:020000040800F2
:100000002081002099D6000899D300089BD30008CE
:100010009DD300089FD30008A1D300080000000072
:10002000000000000000000000000000A3D3000852
:10003000A5D3000800000000A7D30008A9D300083A
:1000400075D7000879D700087DD7000881D7000848
:1000500085D70008B5D3000889D700088DD70008D8
:1000600091D7000895D7000899D700089DD70008B8
:10007000A1D70008A5D70008A9D70008ADD7000868
:10008000B1D70008B5D70008B9D70008BDD7000818
:10009000B7D30008C1D70008C5D70008C9D70008E2
:1000A000CDD70008D1D70008D5D70008D9D7000888
:1000B000DDD70008E1D70008E5D70008E9D7000838
:1000C000EDD70008F1D70008F5D70008F9D70008E8
:1000D000FDD7000801D8000805D8000809D8000895
:1000E0000DD8000811D8000815D8000819D8000844
:1000F0001DD8000821D8000825D8000829D80008F4
:100100002DD8000831D8000835D8000839D80008A3
:100110003DD8000841D8000845D8000849D8000853
:100120004DD8000851D8000855D8000859D8000803
:100130005DD8000861D8000865D8000869D80008B3
:100140006DD8000871D8000875D8000879D8000863
:100150007DD8000881D8000885D8000889D8000813
:100160008DD8000891D8000895D8000899D80008C3
:100170009DD80008A1D80008A5D8000800000000FC
:10018000A9D80008ADD80008BFF34F8F4A490A68C4
:1001900012F4E062494802430A60BFF34F8F00BF88
:1001A000FDE71CB5464C01F014FC206020680028D7
:1001B0001FD04448009040F2D2424349206801F0E9
:1001C00070FB40B2002814D1404801F035FC4FF4D8
:1001D000FA526946206801F0ABFB40B2002808D112
:1001E0003B4801F029FC00220FF2FD01206801F0DC
:1001F000D2FB384801F020FC13BD38B5364D3748E6
:1002000002683749280001F02BFC280001F048FC67
:100210000100032289B2002001F05DFC0400002CE3
:1002200010D0280001F03CFC020092B2290020000E
:1002300001F000FF21002248006801F07EFA200052
:1002400001F0E0FD31BD38B5050003222900C9B237
:1002500089B2002001F03FFC0400002C0ED0EDB26A
:100260002A0092B21C49200001F0E4FE210014484B
:10027000006801F062FA200001F0C4FD31BD38B51C
:10028000050003222900C9B289B2002001F023FC35
:100290000400002C0ED0EDB22A0092B211492000C9
:1002A00001F0C8FE21000648006801F046FA20006F
:1002B00001F0A8FD31BD00000CED00E00400FA05DE
:1002C000B47C0020C0A800136CD7000854D70008E5
:1002D0005CD7000814D7000874780020C87C002080
:1002E00048D50008107800202DE9F04714000022BE
:1002F0006368002004E0195CDFF8D85D2954401CD5
:100300000528F8D3DFF8CC5D2878FA2841F08E80F4
:10031000E8780243297951EA0221C91D002002E050
:100320001A5C2A54401C4A1E9042F9D360898142CB
:1003300041F06180002209E0DFF89C3DDFF89C6D10
:100340001F78A85C4740F05D1870521C881E8242DE
:10035000F2D3A878012840F00784687900280FD0EC
:10036000102872D0202800F0A780302800F07B826F
:10037000402800F0E082502800F0B68301F06CB80D
:10038000A879012817D10020E870022028710020E8
:1003900068710120A8710020E871002107E0DFF8F2
:1003A0003C2DEB79685C4340D05CE871491C07291F
:1003B000F5D3FF2028720920DFF8241D0860DFF83C
:1003C000245D40F201662900300001F000FF0120A9
:1003D00001F02CFF40F202672900380001F0F7FE1F
:1003E000012001F023FF40F203682900404601F09C
:1003F000EEFE012001F01AFF40F204692900484690
:1004000001F0E5FE012001F011FFDFF8DC5C2900BE
:10041000300001F0DCFE012001F008FF2900380067
:1004200001F0D5FE012001F001FF2900404601F056
:10043000CEFE012001F0FAFE2900484601F0C7FE79
:10044000012001F0F3FE01F007B8A879112803D1CB
:10045000E879DFF8981C0870287A122803D1687AA6
:10046000DFF88C1C0870A87A132807D1E87ADFF827
:10047000841C0880287BDFF8801C08800020E8703E
:1004800002202871102068710120A8710020E871F5
:10049000002107E0DFF8442CEB79685C4340D05C36
:1004A000E871491C0729F5D3FF2028720920DFF8DD
:1004B000301C086000F0D0BFDFF840AC40F20166AD
:1004C0005146300001F083FE012001F0AFFE40F202
:1004D00002675146380001F07AFE012001F0A6FEC5
:1004E00040F203685146404601F071FE012001F0E0
:1004F0009DFE40F204695146484601F068FE012025
:1005000001F094FEDFF8F8AB5146300001F05FFED9
:10051000012001F08BFE5146380001F058FE012009
:1005200001F084FE5146404601F051FE012001F0E9
:100530007DFE5146484601F04AFE012001F076FE5C
:10054000DFF8C0AB5146300001F041FE012001F060
:100550006DFE5146380001F03AFE012001F066FEC2
:100560005146404601F033FE012001F05FFE514646
:10057000484601F02CFE012001F058FEDFF888AB60
:100580005146300001F023FE012001F04FFE51469C
:10059000380001F01CFE012001F048FE51464046A3
:1005A00001F015FE012001F041FE5146484601F0E0
:1005B0000EFE012001F03AFEDFF868AE5146300031
:1005C00001F005FE012001F031FE5146380001F036
:1005D000FEFD012001F02AFE5146404601F0F7FDE4
:1005E000012001F023FE5146484601F0F0FD0120B4
:1005F00001F01CFEDFF830AE5146300001F0E7FD9F
:10060000012001F013FE5146380001F0E0FD012009
:1006100001F00CFE5146404601F0D9FD012001F0E9
:1006200005FE5146484601F0D2FD012001F0FEFDD5
:100630000020E87048202871202068710120A871EE
:100640002120E8710020287200206872DFF81C0E5B
:100650000078A872DFF8180E0078E872222028735C
:10066000DFF8100E007868732320A873DFF8080EF7
:100670000078E87324202874DFF8000E818AA974BA
:10068000B0F9141009126974DFF8F41D8A8A2A750A
:10069000B1F914201212EA74DFF8E82D938AAB75D1
:1006A000B2F914301B126B75DFF8DC3D9E8A2E7692
:1006B000B3F914603612EE7525266E76B0F90A602D
:1006C000EE7636B23612AE76B1F90A606E7736B291
:1006D00036122E77B2F90A60EE7736B23612AE775E
:1006E000B3F90A6085F8216036B2361285F82060C9
:1006F000262685F82260B0F90C6085F8246036B2B1
:10070000361285F82360B1F90C6085F8266036B2A0
:10071000361285F82560B2F90C6085F8286036B28B
:10072000361285F82760B3F90C6085F82A6036B276
:10073000361285F82960272685F82B60C66985F86A
:100740002F60C669360A85F82E60C669360C85F8B2
:100750002D60C669360E85F82C60CE6985F8336049
:10076000CE69360A85F83260CE69360C85F831607C
:10077000CE69360E85F83060D66985F83760D6695F
:10078000360A85F83660D669360C85F83560D66944
:10079000360E85F83460DE6985F83B60DE69360A1E
:1007A00085F83A60DE69360C85F83960DE69360E08
:1007B00085F83860282685F83C60866985F84060B1
:1007C0008669361285F83F608669361485F83E6082
:1007D0008069001685F83D00886985F844008869BD
:1007E000001285F843008869001485F84200886982
:1007F000001685F84100906985F84800906900125C
:1008000085F847009069001485F846009069001645
:1008100085F84500986985F84C009869001285F8BC
:100820004B009869001485F84A009869001685F80D
:100830004900FF2085F84E00002085F84D0000217A
:1008400009E0DFF8982895F84D30685C4340D05CAB
:1008500085F84D00491C4D29F3D34F20DFF880184F
:10086000086000F0F9BDA879012862D10920DFF8FD
:10087000701808600120A8710020E870022028711B
:100880000020E871FF202872002107E0DFF84C28E3
:10089000EB79685C4340D05CE871491C0729F5D3CB
:1008A000DFF8E85B40F201662900300001F08FFCC0
:1008B000012001F0BBFC40F202672900380001F082
:1008C00086FC012001F0B2FC40F20368290040469A
:1008D00001F07DFC012001F0A9FC40F2046929002F
:1008E000484601F074FC012001F0A0FCDFF8F45749
:1008F0002900300001F06BFC012001F097FC290079
:10090000380001F064FC012001F090FC2900404611
:1009100001F05DFC012001F089FC2900484601F04E
:1009200056FC012001F082FC012080F31388FFF7C0
:100930002BFC00F091BDA879412806D1E879297AED
:1009400051EA0021DFF8480B0180687A422806D17D
:10095000A87AE97A51EA0021DFF8380B0180DFF844
:10096000306BB6F90000012803DA0020DFF8281BFD
:100970000870A87B44280FD1E87B012808D101200A
:10098000DFF8181B08700020DFF80C1B087003E06C
:100990000020DFF8081B0870DFF8F88AB8F90010AB
:1009A000B6F9000001F0BEFCBDEEC00A10EE100A60
:1009B000DFF8EC1A0880DFF8EC7AB8F90010B6F925
:1009C000000001F07FFCBDEEC00A10EE100A388076
:1009D000DFF8C80A0078012803D1B7F900004042C7
:1009E0003880DFF8C47A30883871B6F90000001218
:1009F000787140F201663900300001F0E8FB012017
:100A000001F014FC40F202683900404601F0DFFBBF
:100A1000012001F00BFC40F203693900484601F067
:100A2000D6FB012001F002FC40F2046A3900504676
:100A300001F0CDFB012001F0F9FB287B432835D1E3
:100A4000687B01282ED1DFF8447A3900300001F0AC
:100A5000BEFB012001F0EAFB3900404601F0B7FB84
:100A6000012001F0E3FB3900484601F0B0FB012012
:100A700001F0DCFB3900504601F0A9FB012001F038
:100A8000D5FBDFF8280A0021017100214171DFF850
:100A9000200A00210171002141710120DFF8D419E1
:100AA000087003E00020DFF8CC1908700020E8701F
:100AB00002202871402068710120A8710020E8718F
:100AC000002107E0DFF81426EB79685C4340D05C36
:100AD000E871491C0729F5D3FF2028720920DFF8A7
:100AE0000016086000F0B8BCDFF8C869310040F2B9
:100AF000016001F06CFB012001F098FB310040F235
:100B0000026001F064FB012001F090FB310040F233
:100B1000036001F05CFB012001F088FB310040F232
:100B2000046001F054FB012001F080FB502068714B
:100B30000120A8710020E870022028710020E871CF
:100B4000002107E0DFF89425EB79685C4340D05C36
:100B5000E871491C0729F5D3FF2028720920DFF826
:100B60008015086000F078BCA878032840F02C8439
:100B70006879002810D0102800F09180202800F01B
:100B8000B280302800F04182402800F0BF82502817
:100B900000F0DE8300F060BCA879012817D10020A6
:100BA000E87002202871002068710120A8710020DF
:100BB000E871002107E0DFF82425EB79685C434009
:100BC000D05CE871491C0729F5D3FF202872092061
:100BD000DFF80C15086040F20566DFF808552900BB
:100BE000300001F0F4FA012001F020FB40F206672A
:100BF0002900380001F0EBFA012001F017FB40F268
:100C000007682900404601F0E2FA012001F00EFBDE
:100C100029004FF4C16001F0DAFA012001F006FB6F
:100C2000DFF8C4542900300001F0D1FA012001F0AE
:100C3000FDFA2900380001F0CAFA012001F0F6FAA5
:100C40002900404601F0C3FA012001F0EFFA290023
:100C50004FF4C16001F0BBFA012001F0E7FADFF8C0
:100C600058582900300001F0B2FA012001F0DEFAF4
:100C70002900380001F0ABFA012001F0D7FA290071
:100C8000404601F0A4FA012001F0D0FA29004FF407
:100C9000C16001F09CFA012001F0C8FADCE3A879F8
:100CA000112803D1E879DFF8441408700020E870B7
:100CB00002202871102068710120A8710020E871BD
:100CC000002107E0DFF81424EB79685C4340D05C36
:100CD000E871491C0729F5D3FF2028720920DFF8A5
:100CE00000140860B8E340F20566DFF81094494646
:100CF000300001F06CFA012001F098FA40F206672A
:100D00004946380001F063FA012001F08FFA40F201
:100D100007684946404601F05AFA012001F086FA78
:100D200049464FF4C16001F052FA012001F07EFA09
:100D3000DFF8D4934946300001F049FA012001F070
:100D400075FA4946380001F042FA012001F06EFAC6
:100D50004946404601F03BFA012001F067FA494656
:100D60004FF4C16001F033FA012001F05FFADFF8BF
:100D7000B4964946300001F02AFA012001F056FAF3
:100D80004946380001F023FA012001F04FFA4946A4
:100D9000404601F01CFA012001F048FA49464FF4A0
:100DA000C16001F014FA012001F040FADFF87896F2
:100DB0004946300001F00BFA012001F037FA4946AC
:100DC000380001F004FA012001F030FA49464046AB
:100DD00001F0FDF9012001F029FA49464FF4C16004
:100DE00001F0F5F9012001F021FADFF8D09649462B
:100DF000300001F0ECF9012001F018FA4946380002
:100E000001F0E5F9012001F011FA4946404601F0F0
:100E1000DEF9012001F00AFA49464FF4C16001F001
:100E2000D6F9012001F002FA202068710120A87192
:100E30002120E871DFF83C060078287222206872D1
:100E4000DFF834060078A8722320E872DFF8700615
:100E500081896973DFF86C16DFF8202692890A8091
:100E6000B1F9002012122A73DFF85C269389EB7324
:100E7000DFF80C369B890B80B1F900301B12AB7385
:100E8000DFF848369E896E74DFF8F865B6890E8003
:100E9000B1F9006036122E74DFF83466B789EF744A
:100EA000DFF8E475BF890F80B1F900100912A97449
:100EB00024212975C1692976C169090AE975C169C1
:100EC000090CA975C169090E6975D1692977D169BC
:100ED000090AE976D169090CA976D169090E697602
:100EE000D96985F82010D969090AE977D969090C07
:100EF000A977D969090E6977F16985F82410F16934
:100F0000090A85F82310F169090C85F82210F169A6
:100F1000090E85F82110252185F82510DFF8B41574
:100F2000097885F82610262185F827108169091689
:100F300085F828108169091485F82910816909123A
:100F400085F82A10806985F82B009069001685F8CD
:100F50002C009069001485F82D009069001285F826
:100F60002E00906985F82F009869001685F83000EA
:100F70009869001485F831009869001285F83200EC
:100F8000986985F83300B069001685F83400B069B7
:100F9000001485F83500B069001285F83600B06994
:100FA00085F83700272085F83800012085F83900BA
:100FB000282085F83A00002085F83B00002085F8BD
:100FC0003C000020E8703A202871292085F83D0077
:100FD000DFF80405007885F83E00FF2085F8400022
:100FE000002085F83F00002109E0DFF8F02495F8A3
:100FF0003F30685C4340D05C85F83F00491C3F2986
:10100000F3D341203649086026E2A87901285FD150
:101010000920334908600120A8710020E8700220EF
:1010200028710020E871FF202872002106E02B4A79
:10103000EB79685C4340D05CE871491C0729F6D322
:1010400040F20566DFF844542900300001F0BFF893
:10105000012001F0EBF840F206672900380001F0AA
:10106000B6F8012001F0E2F840F207682900404696
:1010700001F0ADF8012001F0D9F829004FF4C1606A
:1010800001F0A5F8012001F0D1F8164D290030003B
:1010900001F09DF8012001F0C9F82900380001F0A5
:1010A00096F8012001F0C2F82900404601F08FF8BF
:1010B000012001F0BBF829004FF4C16001F087F86E
:1010C000012001F0B3F8012080F31388FFF75CF8EA
:1010D000C2E100BF107800201D7D00209400002098
:1010E000CC7C00200C0000201C0000201B7D002078
:1010F0001C7D0020E27C0020E47C00204C000020CD
:10110000540000205C00002064000020A8794128E1
:1011100056D1E879012853D1DFF8C41308780028A4
:101120004ED1012008700020DFF8B81308700020AD
:10113000DFF8B41308700020DFF8B0130870002047
:10114000DFF8AC1308700020DFF8A8130870002047
:10115000DFF8A41308700020DFF8A0130870002047
:10116000DFF89C1308700020DFF898130870002047
:10117000DFF8941308700020DFF890130870002047
:10118000DFF88C1308700020DFF888130870002047
:10119000DFF8841308700020DFF880130870002047
:1011A000DFF87C1308700020DFF878130870002047
:1011B000DD4908700020DD4908700020DC49087016
:1011C000287A422802D1687ADA490870A87A432836
:1011D00040F081800120D8490870E87A297B51EAE3
:1011E0000021687B50EA0120A97B51EA0021D34805
:1011F0000160D348E97B2A7C52EA0122697C51EAEA
:101200000221AA7C52EA01220260E97C2A7D52EA8C
:101210000122697D51EA0221AA7D52EA0122C949CF
:101220000A60E97D2A7E52EA0122697E51EA0221A2
:10123000AA7E52EA0122C4490A60C44E0168317193
:1012400001680912717101680914B1710068001612
:10125000F07140F205673100380000F0B8FF01205E
:1012600000F0E4FFDFF8E8824146380000F0AFFF0D
:10127000012000F0DBFF40F206673100380000F08B
:10128000A6FF012000F0D2FF4146380000F09FFF8A
:10129000012000F0CBFF40F207673100380000F07A
:1012A00096FF012000F0C2FF4146380000F08FFF9A
:1012B000012000F0BBFF31004FF4C16000F087FF58
:1012C000012000F0B3FF41464FF4C16000F07FFF02
:1012D000012000F0ABFFE87E44281ED1287F0128C2
:1012E00018D16A4E310040F2056000F070FF310005
:1012F00040F2066000F06BFF310040F2076000F042
:1013000066FF31004FF4C16000F061FF01205949D0
:10131000087002E0002057490870402068710120E1
:10132000A8710020E870022028710020E8710021D7
:1013300006E06A4AEB79685C4340D05CE871491C7E
:101340000729F6D3FF20287209208249086083E02C
:10135000584E310040F2056000F039FF012000F0E6
:1013600065FF310040F2066000F031FF012000F01F
:101370005DFF310040F2076000F029FF012000F01E
:1013800055FF31004FF4C16000F021FF012000F053
:101390004DFF502068710120A8710020E8700220E4
:1013A00028710020E871002106E04C4AEB79685C66
:1013B0004340D05CE871491C0729F6D3FF2028720E
:1013C00009206449086047E009206249086000205C
:1013D000A8710020E87002202871002106E03F4A31
:1013E000EB79685C4340D05CE871491C0729F6D36F
:1013F000FF20287230E00920564908600020A871BB
:101400000020E87002202871002106E0334AEB79C1
:10141000685C4340D05CE871491C0729F6D3FF2083
:10142000287219E06C00002074000020092049494E
:1014300008600020A8710020E870022028710021B7
:1014400006E0264AEB79685C4340D05CE871491CB1
:101450000729F6D3FF2028723E480068C0B2FEF785
:101460000EFF200000F0CEFCBDE8F087FC7C0020E1
:10147000FD7C0020FE7C0020FF7C0020787A00208C
:101480009C7A0020C07A0020E47A0020140000201A
:10149000EC7C0020EE7C0020007D0020017D0020FF
:1014A000E87C0020EA7C00202C0000208400002042
:1014B0008C000020240000203C0000207C00002044
:1014C000087B0020E67C00202C7B0020507B002045
:1014D000747B0020027D0020137D002094000020FA
:1014E000147D00200F7D0020037D0020077D00205B
:1014F000177D00200B7D0020107D0020047D002042
:10150000087D0020187D00200C7D0020117D00202A
:10151000057D0020097D0020197D00200D7D002023
:10152000127D0020067D00200A7D00201A7D00200B
:101530000E7D0020167D0020157D0020B87C002047
:10154000BC7C0020C07C0020C47C00203400002033
:1015500044000020CC7C0020704710B40021FFE73D
:10156000DFF8C4241088431C13804FF6FF7380B249
:10157000984202D14FF440401080DFF8B004006878
:1015800000E0C06800280BD0438A1488A342F8D139
:10159000491C080080B2B0F5804FE1DB002000E07C
:1015A000108810BC7047D2B2002A14D0002810D086
:1015B0000268002A0DD0DFF87824536913F1010F77
:1015C00007D00368886803405269886802409342E4
:1015D0000ED101200DE0002808D00168002905D0B7
:1015E0000068DFF84C144969884201D1012000E00D
:1015F000002070472DE9FE4F06008B4600207089C1
:10160000082803DA300000F0FDFB94E07468DFF88E
:1016100020743968786900F0BFFE8046208800F0A9
:1016200053FF8146608800F04FFFADF800000020B6
:10163000002500200190DFF8F4A3DAF8004001E073
:101640002500E468002C28D0608ABDF8001088428C
:10165000F6D14246D2B259462000FFF7A4FF002837
:10166000EED0207C400703D40198002800D10194DB
:10167000A08A494689B28842E2D16068002803D036
:10168000606839698842DBD1002D06D0E068E860E7
:10169000DAF80000E060CAF80040002C00D1019C9C
:1016A000002C01D0012007E0DBF8040079698842B2
:1016B00001D1012000E00020C0B2002838D07FF026
:1016C0000701300000F092FB002803D0300000F04A
:1016D00099FB30E0002C12D0A06900280BD01FFA33
:1016E00089F9CDF8009017F1100332002100E0696C
:1016F000A469A0471FE0300000F084FB1BE05FFA04
:1017000088F8B8F1000F0FD1387D10F0F000E02814
:101710000AD0B7F90C10083109B2300000F06CFBA8
:101720000321300000F0BCFF300000F06BFB02E052
:10173000300000F067FBBDE8F78F80B5002802D1CC
:101740007FF0050003E0838A021D00F001F802BD6E
:10175000F8B505000E0014001F002000002D01D078
:10176000002C02D17FF005000EE000F0E1FF002820
:1017700002D17FF0030007E000903B009BB2220003
:101780003100280000F001F8F2BD7CB5002801D03E
:10179000002A02D17FF0050019E0069D002807D03D
:1017A0000468002C04D0047814F0F004E02C01D17B
:1017B0002C1D07E004686E68B44202D07FF005007B
:1017C00005E00400019400959BB200F001F876BD9D
:1017D0002DE9FE4F05000E001F00002D02D0140061
:1017E000002C02D17FF0050059E0688A00280AD158
:1017F0006A8A2900280000F054F8010049B2002943
:1018000001D040B24BE0B0460821404600F0EEFA6D
:10181000002813D000220821012000F05CF9060006
:10182000002E02D15FF0FF3039E0B8F80800002840
:1018300005D04146300000F040FB00E04646DDF8B0
:101840003490DDF830A0D6F804B0688A00F03CFE91
:10185000ABF80000380080B200F036FEABF80200B2
:101860000020ABF80600308900F02EFEABF8040033
:101870001120AB7ACDF808A0C0B20190687A009030
:10188000DBB222004946300001F0B6F804004645BC
:1018900003D0300000F0B6FA0020200040B2BDE8CE
:1018A000FE8FF8B505000C00002C00D1614C002D16
:1018B00001D0002C02D17FF0050038E000275B4EFC
:1018C000306800E0C068002802D08542FAD10127C4
:1018D000100080B2002809D1FFF73FFE020010007F
:1018E00080B2002815D17FF0070020E0306800E0CA
:1018F000C06800280DD08542FAD0418A13009BB2FF
:101900009942F5D1016823689942F1D17FF007002F
:101910000DE0002C01D1002000E0206828606A82E0
:10192000FFB2002F02D13068E86035600020F2BDC0
:1019300070B505000C001600002D01D0002C02D15E
:101940007FF0050026E0688A00280AD16A8A29000B
:101950002800FFF7A6FF010049B2002901D040B2DC
:1019600018E0002C01D1002000E020686860AE8201
:10197000287C50F0040028742C49086800E0C068F6
:10198000002803D08542FAD1002003E00868E8600F
:101990000D60002070BD8161C261704780B501009B
:1019A000224802688A4203D10268D26802600CE0D1
:1019B000026800E0D268002A07D0D0680028F9D079
:1019C000D0688842F6D1C868D060002001F0BCF829
:1019D00001BD38B5002001F0A3F80400002C07D0A9
:1019E000202100222500280001F0C0F8FF20A0726D
:1019F000200032BD10B4002813D00268002A10D095
:101A000000290ED00A68002A0BD0084A126806E0A6
:101A100013680468A34201D10B681360D268002ADE
:101A2000F6D110BC7047000064020020B07C00209A
:101A3000B47B00206CD700080EB4C0B5024603A8E2
:101A400000210190009101AB0121044878440C3041
:101A500001F0CEF806BC5DF810FB00BF91BB0000A2
:101A60000CB430B583B00A4606A90291044600259D
:101A70000194009502AB01A9084878441E3001F09A
:101A8000B7F8019A157000284EBF04460198041B50
:101A9000204603B030BC5DF80CFB00BF9B2000006B
:101AA00000F10103810704D010F8011B820781B106
:101AB000FAD10268A2F10131914311F0803104BFE3
:101AC00050F8042FF6E709BAB1FA81F100EBD10022
:101AD000401CC01A7047F8B50E00150040B200282F
:101AE00006D002281BD018D304281CD019D31CE020
:101AF0003627280040B200286CD0022800F08D80E4
:101B0000C0F08B80032840F09980082001F008F88D
:101B10000400002C0BD100205BE02227E9E70E2710
:101B2000E7E70027E5E70027E3E7002051E025731A
:101B300000202060380080B220441030C01C800893
:101B4000800060602681300080B2390089B2C91CF3
:101B500089088900D1F50071884201D2370006E07A
:101B6000BFB2FF1C4FF6FC700740D7F500776781C6
:101B70000120E0812700B6B26089361A18E04FF4E0
:101B800000710CE005730021417300210160386091
:101B90000681310089B2B1F5007FF0D23100418178
:101BA00010F1100141600121C1814189761A0700BD
:101BB000012E09DB082000F0B3FF0028E2D120004D
:101BC00000F020F9002004E00120E0810020607393
:101BD0002000F2BD17F113004FF6FC7108403200EF
:101BE00092B2D21C4FF6FC710A40101880B202F07B
:101BF00089F80400002C01D10020EAE7BFB204EB11
:101C000007001030C01C8008800060602681208999
:101C10006081002020602573D6E7072000F080FF58
:101C20000400002C01D10020D3E700206060268151
:101C300020896081002020602573C5E70020C8E767
:101C400030B40400180064B2002C06D0022C14D06A
:101C500011D3042C15D012D315E03624039B9BB26C
:101C60002500ADB2ED1CAD08AD0015FA81F5AB4213
:101C70000BD200201FE02224F0E70E24EEE7002420
:101C8000ECE70024EAE7002015E0029B0025056050
:101C9000002B06D0A4B2E41CA408A4002344436093
:101CA00001E00023436002234373018101894181E4
:101CB00002730121C18130BC704738B504000D00AA
:101CC0002800218980B288422DD2280080B2218943
:101CD000411A05E060892D1A20890818208124689E
:101CE00060892A0092B29042F4D3207B00280FD161
:101CF0002800618980B288420AD0607B800707D4BF
:101D00006168091B691889B2200001F080FF040096
:101D10006581608920812068002802D0206800F059
:101D200071F80020206031BD70B40B001BB2002B95
:101D300001D0002801D1002044E00B001BB2002B91
:101D40000AD50E0036B2764243893400A4B2A342CB
:101D500001D2012036E001E00E00B6B2047B4568F6
:101D600023009BB2002B03D023009BB2032B0DD189
:101D700042680B001BB25B421A444260426810F199
:101D800010039A4217D2456001201BE023009BB24A
:101D9000022B02D0A4B2012C26D10B001BB2002BC7
:101DA00012D54389B6B2B3420ED342680B001BB2C0
:101DB0005B421A44426042898A184281028989182A
:101DC0000181002070BC70470B001BB2012B09DBA6
:101DD000D2B2002A06D042680B001BB25B421A4402
:101DE0004260E8E70120EDE70120EBE780B5002243
:101DF00009B2FFF799FF02BD80B5012209B2FFF7D2
:101E000093FF02BD38B50100002901D1002030E068
:101E1000002404E0080001F0E3FE641C290000290E
:101E200025D0C889401EC881C88980B200281CD12D
:101E30000D68087B4A7B920704D50A0008001169E7
:101E40008847EAE7020092B2032A03D1082000F093
:101E50007BFEE2E7020092B2012A02D080B20228A1
:101E6000D8D1072000F070FED7E70021D7E7200087
:101E7000C0B232BD0100002001E0401C0968002909
:101E8000FBD180B27047002802D0C189491CC181B2
:101E90007047002801D0002900D10DE004E003893B
:101EA0000A89D318038100680268002AF7D10389E0
:101EB0000A89D31803810160704710B50C00210016
:101EC000FFF7E7FF2000FFF7DEFF10BD2DE9F84325
:101ED00005000C0000270026002D05D0002C03D0A3
:101EE00028892189884202D27FF00F004BE069895E
:101EF000380080B2091A6289300080B2121A914209
:101F000004DBB4F80A80B8EB060803E0B5F80A80F1
:101F1000B8EB0708424692B26068310089B20144CA
:101F200068683B009BB200EB0309484601F066FF7E
:101F300018EB070718EB06063000618980B288426B
:101F400001D3002624683800698980B2884205D10F
:101F500000272D68002D01D1002C16D1002C06D0B1
:101F600060892189884202D12068002810D1002D83
:101F700006D068892989884202D1286800280AD1B8
:101F8000002CB4D10020BDE8F2837FF00F00FAE707
:101F90007FF00500F7E77FF00500F4E72DE9F04753
:101FA00004000D0090460027002C01D100203FE0E6
:101FB000002D01D100203BE00026002C01D0002D97
:101FC00001D1002034E02BE0B4F80A90B9EB03090A
:101FD0004046494680B289B2884200D2C1464A464C
:101FE00092B260689BB200EB0301300080B205EB57
:101FF000000A504601F002FF19EB070719EB06062D
:10200000B8EB090800230AE0180080B20028DBD0F2
:102010001800618980B28842D6D360891B1A24686F
:10202000404680B2002801D0002CEDD1380080B2AB
:10203000BDE8F0872DE9F84304000D0016000027E5
:10204000002C02D17FF00F0036E0002D02D17FF08E
:102050000F0031E02089110089B2884202D25FF07E
:10206000FF3029E0002C05D0002D03D0208992B24A
:10207000904202D27FF00F001EE018E0B046608967
:10208000414689B2884201D2B4F80A80424692B2EF
:10209000380080B205EB0001D4F80490484601F006
:1020A000ADFEB6EB080618EB07084746246830007B
:1020B00080B20028E2D10020BDE8F28310B58AB0DA
:1020C000524C5348206053482063534860630620B5
:1020D00060600020A0600020E0605FF4A02020612C
:1020E0005FF4C00060610020A0610120E061012078
:1020F0002062002060620020A0620020E0622000D8
:1021000001F0D0FE002005900020069001200790ED
:1021100000200090002001900020029000200390F9
:1021200000200490012008900E20099069462000AC
:1021300001F08BFF0AB010BD10B586B000683449BD
:10214000884242D1002000903448016851F000716B
:102150000160006810F0007000900098002000906E
:102160002F48016851F480710160016811F4807199
:102170000091009900210091016851F00201016075
:10218000006810F00200009000984FF40074019471
:1021900002200290002003900920059001A9214807
:1021A00002F006FC01940220029002200490092013
:1021B000059001A91C4802F0FBFB0022002114201D
:1021C00002F071FD142002F07FFD06B010BD10B5C5
:1021D0000E4A136B18600020136B98600020136B7D
:1021E000D8600820136B1861002005E00B78146B91
:1021F00004442375491C401C136B1B699842F5D39A
:102200000A21100001F0A4FF10BD00007079002029
:1022100000640040987B0020547A0020403802403F
:1022200030380240000402400020024031B502F084
:1022300079FD0400009D15F1010F00D06D1C02F026
:1022400071FD001BA842FAD331BDF0B402461068FC
:1022500095681318506803EB5004C0071DD54D4412
:102260001BE013F8017B05F8017B491EF9D1A0B1F1
:10227000B60813F8011B06F00306032E08BF13F877
:10228000016B01EB06214942801C294405D011F85D
:10229000016B05F8016B401EF9D1A3420ED013F873
:1022A000016B16F0030104BF13F8011BC91C3009B0
:1022B0000F28DAD113F8010B0F30D6E7F0BC02F18A
:1022C0000C00704700B2400000EE100AB8EEC00AE1
:1022D00009B200EE901AF8EEE00A9FED2A1A00EE1D
:1022E000810ADFED290A20EE200ADFED280A80EEC0
:1022F000200ADFED270A80EE200ABDEEC00A10EEAC
:10230000100A40F20971884202DB4FF4E16003E0F9
:102310002049884200DA0800404200EE100AB8EE78
:10232000C00A704700B2400000EE100AB8EEC00AC2
:1023300009B200EE901AF8EEE00A9FED121A00EED4
:10234000C10ADFED110A20EE200ADFED100A80EE4F
:10235000200ADFED0F0A80EE200ABDEEC00A10EE63
:10236000100A40F20971884202DB4FF4E16003E099
:102370000849884200DA080000EE100AB8EEC00AE8
:1023800070470000C3F5083F00009643F90F49402D
:1023900000001643F8F8FFFF10B40300C243002A00
:1023A00001D0002801D101201AE091F833209207D2
:1023B00001D4002014E04A68904201D100200FE0CF
:1023C0008A6813404C688A681440A34207D18A681F
:1023D00090438968C943884201D1012000E0002070
:1023E00010BC704780B51022024900F005F802BD0C
:1023F00000000000CC7B0020FCB5002300680090AA
:102400000C006D46002604E02E202070641C6D1C1C
:10241000761C3000C0B2042834DA002795F800C0DA
:102420005FF00A0E9CFBFEF00EFB10C095F800C09A
:102430005FF00A0E9CFBFEFC85F800C00DF1040C59
:102440003030BE465FFA8EFE0CF80E007F1C2878F6
:102450000028E3D13800471EC0B200280CD0180075
:10246000431C904206DA3800C0B21CF8000020700D
:10247000641CEFE7002009E01800431C9042C3DB16
:10248000002003E0601E002202700800F6BD30B498
:10249000002513E050F8042BD30744BFA9F1010332
:1024A0009A18091F042942F8045BFAD213468C07D4
:1024B00044BF15809B1CC90748BF1D7050F8041B02
:1024C0000029E7D130BC70470100080080B2000A43
:1024D00050EA012080B270470100080210F47F002A
:1024E00050EA01600A00120A12F47F42104350EAD7
:1024F000116070472DE9FE4F06000D00DFF89C814A
:10250000D8F808A09AF8000010F00F0000B25FEAB7
:102510008009484600B2142803DA3000FFF772FC45
:1025200017E070890428F8D3706800780100C9B2F8
:10253000002902D0082901D08EE0ABE018F1140781
:1025400098F8140010F0F000E02804D13000FFF7F4
:1025500059FCBDE8F78FD8F80010D8F81400FFF741
:102560001BFF0028F2D130890828D6D3300002F0B2
:1025700012FC002803D03000FFF744FCE9E719F112
:102580000E0109B23000FFF731FC002859D00022BB
:10259000318919EB010189B20220FFF79CFA04008E
:1025A000002CD3D06089494609B20831884203D251
:1025B0002000FFF727FCC9E74A4612B2D4F804B05E
:1025C0005146584601F01AFC494609B2494209B23F
:1025D0002000FFF70BFC002803D02000FFF712FCBF
:1025E000B4E731002000FFF771FC002803D0200081
:1025F000FFF708FCAAE73000FFF704FC2600746828
:10260000494609B23000FFF7F1FB002818D1706885
:102610003968C160D8F810100161002121700021D3
:102620006180FF210172002141810295012001900A
:1026300000200090FF2300223900300000F0C4F990
:1026400028E019F10E0109B2494209B23000FFF742
:10265000CDFB0028D3D079E70100C9B2032919D0F6
:102660000100C9B20B2915D00100C9B20C2911D043
:102670000100C9B204290DD00100C9B2052909D051
:102680000100C9B20D2905D00100C9B20E2901D03F
:10269000C0B211283000FFF7B5FB5AE7B47B002029
:1026A00080B50A00D2B2032100F008F801BD80B560
:1026B0000A00D2B20B2100F001F801BD2DE9F84368
:1026C00084B0070088469146002224210120FFF7AC
:1026D00002FA0400002C28D07E68656885F8008026
:1026E00085F801900020A8800020E8801C227968ED
:1026F000606810F10807380001F080FBF068039073
:1027000003A800F015F800280CD000216980029081
:102710000120019000200090FF2303AA0021200047
:1027200000F052F92000FFF76DFB05B0BDE8F08323
:1027300010B40200DFF87403006808E090F833106A
:10274000890703D41168C368994214D0006800282F
:1027500012D090F8331011F005010529F6D1416827
:102760000029F3D0136881680B40446881680C40ED
:10277000A342E3D113E012E0DFF834130868002825
:102780000AD0086890F8330010F00500052803D13E
:1027900008684068002801D1002000E0086810BCEB
:1027A00070472DE9F84F060088460127D6F80490B7
:1027B00099F80000C0B20009C0B2042804D030006B
:1027C000FFF720FB0020FDE099F8000010F00F005B
:1027D00080B25FEA800AB9F80200FFF775FE0400D4
:1027E0002000318980B2884204D2210089B23000B1
:1027F000FFF763FA7089514689B2884207D330895E
:10280000A4B2A04203D3504680B2142804DA3000A8
:10281000FFF7F8FA0020D5E0D9F81000DFF894B2FD
:10282000CBF81400D9F80C00CBF810009BF814007A
:1028300010F0F000E02831D198F83300C0072BD514
:10284000D8F80400002827D04446002C0CD199F871
:102850000900112808D1504680B248444088B0F59C
:10286000884F01D144460027002F3AD0DBF81000F2
:10287000002836D04146DBF81000FFF78DFD002818
:1028800005D19BF8100010F0F000E02829D13000AD
:10289000FFF7B8FA002095E00024D6E7012544466A
:1028A00094F83300C0070ED5606800280BD0DBF821
:1028B00014006168884211D02100DBF81400FFF792
:1028C0006BFD00280AD1002D09D000257748046847
:1028D000444500D12468002CE2D1B6E7B5E724686E
:1028E000F6E7002C04D13000FFF78CFA002069E0F5
:1028F000B9F806004FF63F71084209D0300002F0E7
:10290000D9FB0600002E01D100205BE0D6F8049030
:10291000CBF80040CBF80480CBF8089099F8000081
:1029200010F00F0080B28000ABF80C00514609B2E5
:10293000494209B23000FFF759FA99F80900012815
:102940000DD0062806D011280ED141463000FEF7E2
:1029500051FE24E04146300002F082FD1FE0414676
:102960003000FFF7C7FD1AE02100DBF81400FFF785
:1029700013FD002810D19BF8140010F0F000E0289F
:102980000AD0514609B23000FFF736FAC6F8049073
:1029900002213000FFF784FE3000FFF733FA0020F9
:1029A000CBF800000020CBF804000020CBF8080092
:1029B0000020ABF80C000020CBF810000020CBF872
:1029C00014000020BDE8F28F7FB50A9E0C00002A9B
:1029D00005D0002902D00968002900D1341D0999C9
:1029E000089D0296C9B20191EDB20095DBB22100BB
:1029F00000F002F804B070BD2DE9F84306000D00A8
:102A000014009946002C38D05FF0140814213000CF
:102A1000FFF7ECF9002802D07FF0010044E00998AC
:102A20000899776887F808907872206838611FFAEB
:102A300088F8042098FBF0F050F04000387079706E
:102A40003089FFF741FD78800020F880DFF868804A
:102A5000B8F80000FFF738FDB880B8F80000401C57
:102A6000A8F80000002D03D114480068F86001E0C8
:102A70002868F8600020788103E07068016900919F
:102A80006C460A9B588D002809D0588D31898842A0
:102A900005D222001900300002F0FAFB04E0220007
:102AA000310018005B699847BDE8F2836C7C002018
:102AB000707C0020B47B0020D47C00206CD7000800
:102AC0000021826811604268D21C920892000021A5
:102AD00007E083681B68136083681A6003881A44E0
:102AE000491C43889942F4DB704710B5002407E085
:102AF0001D48210089B250F82100FFF7E1FF641C56
:102B0000200080B20928F3D310BD01008868006856
:102B1000002803D0026889680A6000E0002070473E
:102B200080B5010049B2092901DB002005E00E490A
:102B300040B251F82000FFF7E8FF02BD826812683A
:102B40000A6080680160704780B5020052B2092AAD
:102B500007DA002905D0044A40B252F82000FFF7F6
:102B6000EDFF01BD00000000C0D4000862F30F2299
:102B700062F31F42401810F0030308D0C91A1FD394
:102B8000DB0748BF00F8012D28BF20F8022D1300F5
:102B900030B414461546103928BF20E93C00FAD855
:102BA000490728BF20E90C0048BF40F8042D8900E0
:102BB00028BF20F8022D48BF00F8012D30BC704717
:102BC000C91818BF00F8012DCB0728BF00F8012D48
:102BD0007047B1F5807F02D34FF0FF30704701702E
:102BE000012070470078401E8041C043C00F7047ED
:102BF0002DE9F04F0FF2A41CA1B0DCE90089CDE96A
:102C000000892A9DDFF8DC9B049100248DF8435055
:102C10000D944FF0FF38824616461F460FE0B3462C
:102C20002C461BF8011B0498D0470028049000F0A4
:102C3000A2800D98401C641E0D90F2D17619307858
:102C4000252808D1002100220791089209910A92B3
:102C50000B910C920DE06A464146304603F000FDB0
:102C6000050001D10D98A1E0D9D50125E6E741F095
:102C7000010116F8010F2028F9D023280CD02B28A9
:102C800004D02D2805D0302809D076E041F002018B
:102C9000EFE741F00401ECE741F00801E9E741F01A
:102CA0001001E6E70F9209E00F98484505DA00EBBE
:102CB000800402EB4402303A0F92761C3278A2F183
:102CC00030000A28F0D330782E2818BFCDF838808D
:102CD00022D116F8010F2A2807D138683860761CEF
:102CE00050F8042B38600E9216E02D280CBF761C8D
:102CF000002000220E920AE040B90E9A4A4505DAF9
:102D000002EB820403EB4403303B0E93761C3378D2
:102D1000A3F130020A2AEFD3ADF8401021A0317898
:102D200003F0A8FC08B116F8010B8DF842009DF8DD
:102D30004200682804D1307868280AD1622105E071
:102D40006C2804BF30786C2803D171218DF84210B3
:102D5000761C12A806903A4616F8013B02A9504686
:102D600000F064F838B912AA02A9504600F0C8F978
:102D700000287FF564AF404618E02A2892D13A68CF
:102D80003A6052F8040B3A6000280F9003D5404295
:102D90000F9041F00401761C95E700000000000050
:102DA00000000000686A6C747A4C000021B0BDE835
:102DB000F08F622820D0682811D06A2803D06C28B0
:102DC00027D0712825D10868C01D20F007000860B1
:102DD000D0E9002308300860194610467047002AE1
:102DE0000A680A60106803D0121D0A6000B217E07A
:102DF000121D0A6080B217E0002A0A680A60106893
:102E000003D0121D0A6040B20AE0121D0A60C0B26F
:102E10000AE0002A0A680A60106803D0121D0A60DE
:102E2000C1177047121D0A60002170477CB50D461E
:102E300011461C462E69B4F1250200F04F811C3A60
:102E400000F08480121F022A40F280800E3A00F0C7
:102E50000981521F59D0093A78D0921E16D0521EBD
:102E600035D0521E022A71D9121F30D0521F00F0E5
:102E70009880521E49D0521E00F0E280D21E00F00F
:102E8000FF80921E41D0D21E3FD02DE195F83A40EE
:102E90006C2C09D06869421C6A610A680A6052F8A1
:102EA000043B0A60335429E10A680A6052F8043B83
:102EB0000A600093002201924FF0FF332B636A46B1
:102EC000294600F098F9002840F1188103E195F8AF
:102ED0003A000122FFF76DFFC5E90001002904D582
:102EE0006869411C69612D220DE0288F810704D596
:102EF0006869411C69612B2205E0C00721D568691A
:102F0000411C6961202232541BE095F83A000022EE
:102F1000FFF74FFFC5E9000195F83800010710D50C
:102F2000D5E90023002B08BF002A0AD044F0200076
:102F3000782806D1686930213154401C421C6A61EE
:102F40003454214668693044E86087E00868C01D51
:102F500020F007000860D0E9002308300860C5E9C8
:102F60000023D5E90001C80F04D06869411C6961DC
:102F70002D220DE0288F810704D56869411C696105
:102F80002B2205E0C00704D56869411C6961202235
:102F9000325468693044E8602146284600F036FA29
:102FA000ACE005F13A02507820B14FF0FF340FF653
:102FB000043074E01078622808D0682824D06A2889
:102FC00012D06C282ED071280ED02BE00A680A602F
:102FD00052F8040B0A6020B94FF0FF340FF6EC20D2
:102FE0005DE0E96A017089E00A680A6052F8040B42
:102FF0000A6020B94FF0FF340FF6D0204FE0EA6AA4
:10300000D317C0E9002379E00A680A6052F8040B7C
:103010000A6020B94FF0FF340FF6B0203FE0E96AB4
:1030200001806BE00A680A6052F8040B0A6020B95C
:103030004FF0FF340FF6942031E0E96A01605DE063
:103040000A680A6052F8040B0A60002120F00002AE
:1030500021F0FF33C5E90023EE607821284600F017
:103060002DF94BE06C2285F83A200B680B6053F881
:10307000042B0B6052BB4FF0FF340FF684200EE0A0
:1030800095F83A206C2AF0D00868086050F8044B94
:103090000860EC603CB94FF0FF340FF6482003F0B5
:1030A000F5FA201A76BD2E6B002E04D52046FEF7C9
:1030B000F7FC044608E032460021204603F006FBF8
:1030C000002814BF041B3446AC6117E0294600F009
:1030D00092F8002812D54FF0FF3076BD6869411C88
:1030E00069612522325409E06969481C686125221A
:1030F0007254210002D0431C6B613454002076BD11
:103100002DE9F0410E4605469046726B7069316AB2
:10311000B46A121AB069521A716A121AF069521A14
:10312000121A96F83800141B41070DD4002C0BDD41
:103130002746B0682021A8470028B06057D0F06A21
:10314000401C7F1EF062F4D1736942463146284626
:1031500000F098FC00284AD1376A002F0ADDB068D9
:103160003021A8470028B06041D0F06A401C7F1E83
:10317000F062F4D1B369F2683146284600F082FC6F
:10318000A8BB776A002F09DDB0683021A847B0607E
:1031900068B3F06A401C7F1EF062F5D1F068B16937
:1031A000F36942183146284600F06CFCF8B9B76A5A
:1031B000002F09DDB0683021A847B060B8B1F06ACF
:1031C000401C7F1EF062F5D196F8380041070BD500
:1031D000002C09DDB0682021A847B06038B1F06A42
:1031E000401C641EF062F5D10020BDE8F0814FF074
:1031F000FF30BDE8F0812DE9F8470D46A3B02F6BF5
:10320000002F0646904648BF6FF000470FF60C149B
:1032100003F088FAD4E90023696B4018CDE9012353
:10322000812828BF4FF0FF3042D20024002F33DD29
:10323000D8F8001001AA684603F014FA8146B9F1E3
:10324000000F38D4D8F8000010B9B9F1010932D410
:103250004F4521DB6869484481280AD3002169630E
:1032600003AA29463046FFF74BFF040014D4002080
:10327000686103ABD5F814A04A46694603EB0A001F
:1032800000F0BCFDCA44C5F814A058F8040B00288F
:1032900018BFA7EB0907C9D14CB903AA2946304684
:1032A000FFF72EFF044614B90020686168632046CA
:1032B00024B0BDE8F0874FF0FF34F8E72DE9FC4378
:1032C00007466F293E6908BF082405D041F0200059
:1032D000782814BF0A2410243C25D7E90023642948
:1032E00018BF69299046994605D1002B03D5D8F11E
:1032F000000869EB4909B9F1000F08BFB8F1000FE8
:103300001FD1386BE8B9082C4CD197F83800010769
:1033100048D530203B2586F83B0043E000280ED5F9
:1033200097F8380000F01400102808D17B6B7969F9
:10333000386A5B1A1B1A9A1A002AC8BF3A62BDE89B
:10334000F3838DF80010404649462246E31703F008
:10335000EFF93032D0B26D1E3A28019504DB9DF8AA
:103360000000A0F151018A18725540464946224694
:10337000E31703F0DDF980465FEA010908BFB8F101
:10338000000F03D0F86871198842DCD3082C09D1EA
:1033900097F83800010705D5705D302802D06D1E02
:1033A00030207055C5F13C02BA617119F960386B73
:1033B0008242B3DA821A3A624FF6EF70398F0140D7
:1033C0003987BDE8F3832DE9D04306460F461446FE
:1033D0004FF00008DFF8109412E0E00707D54246EE
:1033E0004B463046394603F0BBFA06460F46404688
:1033F000494642464B4603F0B3FA6410804689467C
:10340000002CEAD130463946BDE8D0832DE9F84F8B
:1034100005468A464AF020048EB0D5E90089612C21
:1034200002AE09D0286B002848BF062003D408BF8D
:10343000672C01D101202863D5E900014A0052150B
:10344000521C0DD10B030BD0AAF1610103201A29E4
:10345000A86102D20FF2CC6110E00FF2CC610DE056
:103460004A005215521C0ED10B030CD1AAF1610176
:1034700003201A29A86116D30FF2B461E868032269
:1034800000F0BCFCC0E1CDE90C01DDE90C2323F028
:103490000043B3F5801F0DD20027002B08BF002A80
:1034A000019703D111E00FF28461E7E701AA03F06D
:1034B00029FB0AE0CD48CE4900EB1350DDE90C238F
:1034C00001900B40CB4910461943C5E90001612C1E
:1034D0000DD1E86830210170821CBAF1610FEA60F9
:1034E0000CBF7821582141706869801C6861D5E95A
:1034F0000001CDE90C01DDE90C2333F0004104BFEC
:103500000028002300F04881612C40F0A080286B47
:10351000494600284CBF4FF0210B00F1010B4046FB
:1035200000220023DDE90C8903F024FB01990BF153
:10353000010738BF89F00049091F002F01918DF85C
:1035400008200DF1090040F33581A9490091064694
:10355000404649460022002303F024FB80F02981E5
:103560004800400D00F11C0211D0002A0FDD40F28E
:10357000FF739A4205DBA04909F000400143002097
:1035800011E0009B194041EA025140460BE028F04F
:10359000000039F0004108BF00280FBF49461C2237
:1035A000494603F017FB8046894603F0B1FBFF1F35
:1035B000002F044609DD03F0C9FB02460B464046D6
:1035C000494603F0D5FB80468946F01D072104E0FB
:1035D00004F00F0200F8012D2411002C01DD491E1A
:1035E000F6D5491E5CBF002200F8012DF9D5DCE0BC
:1035F0000020194602AA0A4400E05B1E12F80149A5
:10360000491E8442F9D00F2804D10DF10900425C13
:10361000521C4254002904D50198001D02AE5B1CC7
:103620000190581E0CD43118AAF13A040A783032AD
:10363000D7B23A2FA8BFA218401E01F80129F5D52C
:10364000286B002840F1A780591E2963A3E0019947
:103650006A4A47F29750414391FBF2F2019229F0F6
:103660000046D2F1070204DD40463146FFF7ABFECB
:103670000AE0524200206249FFF7A5FE02460B46CF
:103680004046314603F0E6FB8046662C286B06BFB9
:10369000019F0A3706273F18142FC8BF1427302070
:1036A0008DF8080089460DF1090000E03046002F32
:1036B00034DD06464046494603F0F0FC01460A4622
:1036C00006F1080304200A26B2FBF6F606EB860E86
:1036D000A2EB4E02303203F8012C0A22B6FBF2F2C2
:1036E00002EB820EA6EB4E063036401E03F8026D4A
:1036F000E9D1083F002F03F10806D7DD084603F0A3
:10370000E1FC02460B464046494603F031FB0022ED
:103710003C4B03F025F980468946CBE70DF10901C2
:10372000401A0DF1090604E00199491E401E01915D
:10373000761C31783029F7D0662C02D10199491CCA
:1037400003E0652C0CBF012100212B6BCB189842A4
:10375000B8BF431E002B1ED4834204DAF05C352828
:10376000A8BF392000DA30201946721E02EB01088A
:1037700000E05B1E18F80199491E8145F9D03928EF
:1037800002D1705C401C7054002904D50198401C83
:1037900016465B1C0190019800B200901BB23246A5
:1037A0005146284600F034F82EE0C61D002F3FF7A2
:1037B000CFAE30460DF10901401A03465845C8BF47
:1037C0005B46002B0DF109063FF53AAF8342BFF689
:1037D0000FAF0DF10900C15C07297FF709AF0F207A
:1037E00007E70000CBCCCC0C0000244002FCFFFF1C
:1037F000FFFF0F800000E03F0000F07FA086010087
:103800000000F03F84D797410FB0BDE8F08F000073
:103810002DE9F84783B006468A461746984602F0D7
:1038200023FFB8F1000F406A356B90F8009002DC7E
:103830004FF00108BFA74AF02000BDF930406628CC
:1038400008BF641C15D0672840F0848014F1040F71
:10385000C0F28680AC4280F2838096F83800641C07
:10386000010702D4A845B8BF454620B22D1A48BF6B
:1038700000250FFA84FAF068B169BAF1000F25DC6F
:103880004A1C30234354002D03DC96F8380001070E
:1038900003D5F06800F80290521C15EB0A0FB8BF70
:1038A0006C4220B2441941424445B8BFA046B261BF
:1038B00071620FFA88F5F561F068B3692A463946F6
:1038C000184400F09BFA641BB462C4E022B2904535
:1038D000084417DA4246394600F090FAB06940448D
:1038E000B061AAEB0801002D716203DC96F8381074
:1038F0000A0705D5F16801F80090F069401CF061F5
:10390000B562A8E0394600F079FAB069002D50445C
:10391000A8EB040803DC96F838100A0703D5F16811
:1039200001F80090401CB0610FFA88F08542F368FE
:10393000B069B8BFA8460FFA88F207EB0A0118442D
:1039400000F05CFAB1690FFA88F00144B161281AFD
:10395000706280E0BAF1610F14D14FF0700A16E086
:10396000A84504DA96F838100A0758BF45466D1E78
:1039700048BF0025BAF1670F14BF4FF0450A4FF05A
:10398000650A04E0BAF1410F08BF4FF0500AB1696F
:10399000F368481CB061002D17F8012B5A5403DC62
:1039A00096F838100A071BD5F168431CB36101F87B
:1039B0000090002D14DDA8F101080FFA88F03946B7
:1039C0008542F768B8BFA8460FFA88F2F81800F0E9
:1039D00015FAB0690FFA88F108446D1AB061756282
:1039E000F068B1690844002C80F800A003D42B22B1
:1039F0004270811C03E02D2141706442811C002033
:103A00006A460AE023460A2493FBF4F404EB840597
:103A1000A3EB450302F8013B401C24B2002CF1DC6F
:103A2000012806DC4AF02002652A04BF302201F892
:103A3000012B48B9302001F8010B07E0401E1DF8AA
:103A40000030303301F8013B0028F7DCF268B06940
:103A50001044091AF16196F8380000F0140010289B
:103A60000DD17269B169706A8A18F1698218B06AF9
:103A70008A188218706B8242BCBF821A326204B00C
:103A8000BDE8F087F8B505460E4617461C460020EF
:103A900074B117F8011BB068A847B06030B1F06A84
:103AA000401CF0620020641EF3D1F2BD4FF0FF30E5
:103AB000F2BD00007072696E74665F733A20256E05
:103AC00020646973616C6C6F776564007072696EF5
:103AD00074663A2062616420256E20617267756D9C
:103AE000656E74007072696E74665F733A2062610D
:103AF0006420257320617267756D656E7400000027
:103B00007072696E74665F733A2062616420256C1E
:103B10007320617267756D656E74000000000000AF
:103B2000000000006E616E004E414E00696E66003E
:103B3000494E460030000268531C03601170704704
:103B400010B4AA4A116803880B44984213D019791B
:103B5000002910D1A64909688B420CD0A5490C68F0
:103B60009C4200D10860198801801168411A1468CC
:103B70001B8823445980116843880B4483420FD02B
:103B8000197900290CD19B490C68844200D10B6043
:103B90000188198011685B1A116800880844438005
:103BA00010BC704710B491499348800880000860A9
:103BB00008684FF4205202800023438000230371E1
:103BC0008B480B6813440360012304682371036866
:103BD0001A800068428008688649086010BC7047F7
:103BE00080B5002812D081490968884203D38049F2
:103BF0000968884200D309E00838002101717D4935
:103C00000A68904200D20860FFF79AFF01BDF0B445
:103C10000A0092B2D21C4FF6FC710A40110089B220
:103C20000C2900D20C22110089B242F601039942FC
:103C300001D3002064E06D4B1968884203D36C49BE
:103C40000968884200D35BE0B0F108041D68651B79
:103C50002688290089B2761A083E3100170089B2F9
:103C6000BFB2B94201D200204AE01100370089B248
:103C7000BFB2B94244D0196827880F443979002966
:103C80001FD13988521908325A4ED6F800C0BC45A7
:103C900005D11F6894461FFA8CFC674437601E6884
:103CA0001700BFB23E4400273771318075802280F3
:103CB0003188B1F5205F23D01968338819444A80D0
:103CC0001EE0B6B2110089B214318E4218D35219D7
:103CD000083219681600B6B23144464E3768B94208
:103CE00000D2316000260E7126880E804D80228021
:103CF0000C88B4F5205F03D01B68098819444A80FA
:103D0000F0BC704770B40100080080B2002801D1F7
:103D1000002069E089B2C91C4FF6FC700140080020
:103D200080B20C2800D20C21080080B242F60102B9
:103D3000904201D3002057E02C4A2E4B186814689B
:103D4000041B02E01068A4B2045B200080B20D00E6
:103D5000ADB2D5F52055A84245D210682500ADB2C8
:103D6000054428790028EDD12E88200080B2361A2B
:103D7000083E080080B28642E4D32E88200080B23C
:103D8000361A083E080080B21430864216D309194C
:103D9000083110680E00B6B23044002606712E8835
:103DA00006804480298001242C710488B4F5205FAA
:103DB00006D0146800882044418001E00120287169
:103DC000186885420CD1196802E01068098801441E
:103DD0000879002803D0064800688142F5D11960AF
:103DE00015F1080000E0002070BC70473C7C00200A
:103DF000407C0020447C00206B02002062B38B07D3
:103E000008D0521E11F8013B00F8013B00F024805D
:103E10008B07F6D1830740F0208000BF103A07D30C
:103E200030B4B1E83810103AA0E83810F9D230BCFC
:103E3000530724BFB1E80810A0E8081044BF51F8A8
:103E4000043B40F8043BD20724BF31F8022B20F892
:103E5000022B44BF0B7803707047121F17D35B000F
:103E600009D151F8043B20F8023B1B0C121F20F82B
:103E7000023BF6D20BE051F8043B00F8013B1B0A71
:103E800020F8023B1B0C121F00F8013BF3D238BF95
:103E9000121D521E24BF11F8013B00F8013BF8D857
:103EA0007047000070B5040000250020002C01D1EF
:103EB0000120C9E094F93C00002805D1002084F8D5
:103EC0003D002000FEF738F9022084F83C0020680D
:103ED000006830F00200216808602068006850F037
:103EE00001002168086000F01DFF0600206840689E
:103EF000C0070CD400F016FF801B0B28F6D303205C
:103F000084F83C00002084F83D0003209CE02068F9
:103F10004068C00740F18B80A069012806D1206865
:103F2000006850F080002168086005E020680068A3
:103F300030F0800021680860E069012806D120681F
:103F4000006850F040002168086005E020680068C3
:103F500030F0400021680860206A012806D12068FE
:103F6000006850F020002168086005E020680068C3
:103F700030F0200021680860606A012806D12068BE
:103F8000006850F010002168086005E020680068B3
:103F900030F0100021680860A06A012806D120686E
:103FA000006850F008002168086005E0206800689B
:103FB00030F0080021680860E06A012806D1206816
:103FC000006850F004002168086005E0206800687F
:103FD00030F0040021680860A168E06801432069AE
:103FE0000143606901436068401E01432068C1616C
:103FF00020680068400840002168086000F092FED8
:10400000060020684068C0070CD500F08BFE801BBE
:104010000B28F6D3032084F83C00002084F83D00F0
:10402000032011E020684068C00700D40125012D5D
:1040300006D100202064012084F83C00002003E029
:10404000042084F83C00012070BD30B40020012021
:104050004A6910FA02F2DFF86433D3F8000250F034
:104060000100C3F80002D3F8000230F47C50C3F81A
:104070000002D3F800024C6A50EA0420C3F80002A0
:10408000D3F81C029043C3F81C02C869002816D15B
:10409000D3F80C029043C3F80C02486903EBC0004C
:1040A000CC684D68C5EA0444C0F84042486903EB57
:1040B000C0008C680D68C5EA0444C0F84442C86971
:1040C000012816D1D3F80C021043C3F80C0248693A
:1040D00003EBC0000C684D68C5EA0444C0F84042D8
:1040E000486903EBC0008C68CD68C5EA0444C0F899
:1040F00044428869002805D1D3F804029043C3F8EC
:10410000040204E0D3F804021043C3F8040208696F
:10411000002804D1D3F814029043C3F814020869AC
:10412000012804D1D3F814021043C3F81402086A1A
:10413000012804D1D3F81C020243C3F81C22D3F88F
:10414000000240084000C3F80002002030BC704765
:10415000F8B506000D00042000203068806840019A
:1041600008D430688068000104D430688068C000DA
:1041700040F11E8196F93D00012801D102201BE18A
:10418000012086F83D0096F93C00222804D0322810
:1041900006D0622808D00BE0422086F83C000AE0F6
:1041A000522086F83C0006E0722086F83C0002E0CF
:1041B000122086F83C0030688068400101D5002458
:1041C00006E030688068000101D5012400E0022487
:1041D000306821010844D0F8800110F001003168F6
:1041E00022011144C1F88001306B8068002811D190
:1041F000306821010844D0F88001316B0968326BC6
:10420000D26852EA41521043316822011144C1F888
:10421000800113E0306821010844D0F88011306B30
:104220004068326B926852EAC002306BC068024349
:104230001143306822011044C0F88011306B007CBB
:1042400010F00F00316B0861306821010844D0F88C
:10425000840100090001316822011144C1F8840180
:10426000306821010844D0F88411306B00690143A3
:10427000306822011044C0F88411306BC07D316B6E
:10428000897D090451EA0061306B407D51EA0021CB
:10429000306B007D0143306822011044C0F8881162
:1042A000306BC07E316B897E090451EA0061306B4E
:1042B000407E51EA0021306B007E014330682201CC
:1042C0001044C0F88C11306821010844D0F88001F6
:1042D00050F00100316822011144C1F8800100F062
:1042E00021FD0700002C0AD1DFF87C0431688968C1
:1042F0000140814201D1012018E0002016E0012C8C
:104300000AD1DFF86804316889680140814201D12F
:1043100001200BE0002009E0DFF8540431688968CF
:104320000140814201D1012000E00020002822D17B
:1043300015F1010FD6D0002D04D000F0F3FCC01B06
:104340008542CFD2032086F83C00002C03D1802088
:10435000316888600AE0012C04D14FF400403168D4
:10436000886003E05FF4000031688860002086F810
:104370003D00032020E096F93C00422804D052285A
:1043800006D0722808D00BE0222086F83C000AE014
:10439000322086F83C0006E0622086F83C0002E00D
:1043A000012086F83C00002086F83D00002003E054
:1043B000042086F83C000120F2BD000000640040AB
:1043C0000A00D2B2002A11D190F93C20222A0BD047
:1043D00090F93C20422A07D090F93C20622A03D071
:1043E00090F93C20722A01D1022071E00A00D2B279
:1043F000012A11D190F93C20322A0BD090F93C20AF
:10440000522A07D090F93C20622A03D090F93C2030
:10441000722A01D102205BE090F93D20012A01D1EE
:10442000022055E0012280F83D200A00D2B2002A85
:1044300018D190F93C20122A04D0322A06D0522AF0
:1044400008D00BE0422280F83C2023E0622280F872
:104450003C201FE0722280F83C201BE0222280F8E2
:104460003C2017E090F93C20122A04D0222A06D0E2
:10447000422A08D00BE0522280F83C200AE0622257
:1044800080F83C2006E0722280F83C2002E03222D4
:1044900080F83C20002202640268526942F40F4214
:1044A00052F0010203685A61002280F83D20C9B22F
:1044B000002906D10168496951F00A01006841618B
:1044C00005E00168496951F0500100684161002030
:1044D000704738B504000020002000200025206827
:1044E000C168090911F0010120684069C0F3C000EA
:1044F00010F00100002906D0002804D055F4007502
:1045000010202168C86020680169090911F00101C3
:1045100020684069C0F3801010F00100002906D027
:10452000002804D055F480651020216808612068B7
:104530004069C0073DD58C482168896801408142A7
:1045400001D1012000E000208849226892680A40D9
:104550008A4201D1012100E00021854A23689B683D
:104560001340934201D1012200E00022084310438E
:1045700000281ED020688068400810F001002168E3
:104580008968490A11F0010122689268520C12F000
:10459000010208431043002803D0200000F0EEF889
:1045A00001E055F400652068816872480143206885
:1045B00081602068C16811F0030120684069C0F380
:1045C000400010F00100002905D0002803D0002190
:1045D000200000F000F92068016911F00301206853
:1045E0004069C0F3001010F00100002905D0002838
:1045F00003D00121200000F0EEF8206C0543256473
:104600002068826912F0010220684069C0F300212D
:1046100011F0010120684069C0F3C03010F00100C2
:10462000002A07D0002905D0002803D0206C50F0C4
:104630000100206420688269520812F0010220689B
:104640004069C0F3402111F0010120684069C0F3C6
:10465000C03010F00100002A07D0002905D0002842
:1046600003D0206C50F00200206420688269920818
:1046700012F0010220684069C0F3802111F00101AD
:1046800020684069C0F3C03010F00100002A07D054
:10469000002905D0002803D0206C50F004002064CD
:1046A0002068806910F0700F01D1012200E0002223
:1046B00020684069C0F3C02111F001012068406901
:1046C000C0F3C03010F00100002A38D1002936D0E4
:1046D000002834D02068806910F0700010280AD0BB
:1046E00020280DD0302810D0402813D0502816D0C4
:1046F000602819D01DE0206C50F00800206418E0FC
:10470000206C50F01000206413E0206C50F020006A
:1047100020640EE0206C50F04000206409E0206C22
:1047200050F08000206404E0206C50F4807020641D
:10473000FFE72068806930F0700021688861206C94
:1047400000280ED0042021684860012084F83C0035
:10475000206841690848014020684161200002F05A
:10476000BEFC31BD0000000003000004000300088F
:104770000000031019050100A470FFFF80B5016857
:104780004969490849000268516190F93C101229B1
:1047900005D10168496931F40F410268516190F90E
:1047A0003C10422904D0522906D0722908D00BE0CF
:1047B000222180F83C100AE0322180F83C1006E00B
:1047C000622180F83C1002E0012180F83C1002F0E8
:1047D00087FC002002BD10B5002200220A00D2B2E0
:1047E000002A01D1436B00E0836B02680C00E4B245
:1047F00024012244D2F8B02112F004029A609A688F
:10480000002A09D102680C00E4B224012244D2F843
:10481000B021520D1A6008E002680C00E4B22401D5
:104820002244D2F8B021D2085A6002680C00E4B2E7
:1048300024012244D2F8B02112F00202DA600268A8
:104840000C00E4B224012244D2F8B42112F00F0289
:104850001A610A00D2B21A6202680C00E4B22401A2
:104860002244D2F8B421C2F30722DA6102680C00B4
:10487000E4B224012244D2F8B8211A7502680C006F
:10488000E4B224012244D2F8B821120A5A7502680F
:104890000C00E4B224012244D2F8B821120C9A751B
:1048A00002680C00E4B224012244D2F8B821120EAE
:1048B000DA7502680C00E4B224012244D2F8BC216B
:1048C0001A7602680C00E4B224012244D2F8BC211A
:1048D000120A5A7602680C00E4B224012244D2F88B
:1048E000BC21120C9A7602680C00E4B22401224426
:1048F000D2F8BC21120EDA760A00D2B2002A09D10F
:1049000020220368DA600268526932F00A02036802
:104910005A6108E0202203681A610268526932F085
:10492000500203685A6190F93C20222A01D0322AB1
:1049300005D10268526932F40F4203685A61C9B264
:10494000002918D190F93C10422904D0622906D0E0
:10495000722908D00BE0122180F83C1023E03221AC
:1049600080F83C101FE0522180F83C101BE0012130
:1049700080F83C1017E090F93C10522904D06229CD
:1049800006D0722908D00BE0122180F83C100AE012
:10499000222180F83C1006E0422180F83C1002E021
:1049A000012180F83C1002F094FC002010BD0000B2
:1049B000F8B4002200220022002337E0082704E098
:1049C000DFF8DC219042F9D10727FFB213F0030290
:1049D000D2B2920097403E431A00920845F82260F6
:1049E000DFF8C0512A68A2434E68F60300D522437F
:1049F0002A60DFF8B4512A68A2434E68B60300D596
:104A000022432A60DFF8A4512A68A2434E68F602C6
:104A100000D522432A60DFF898512A68A2434E68E5
:104A2000B60201D5144322002A605B1C102B80F0D3
:104A3000AB80012515FA03F20C6814409442F4D1BE
:104A40004A68022A02D04A68122A17D11A00D208EC
:104A500000EB8202166A0F2713F00702D2B292000F
:104A60009740BE430F6913F00702D2B292009740FD
:104A70003E431A00D20800EB820216620768032642
:104A80001A00D2B2520016FA02F2974391F804C00B
:104A90001CF0030C1A00D2B252001CFA02FC5CEAB1
:104AA000070707604A68012A08D04A68022A05D029
:104AB0004A68112A02D04A68122A19D187681A0056
:104AC000D2B2520016FA02F29743D1F80CC01A0083
:104AD000D2B252001CFA02FC5CEA07078760426807
:104AE0009D40AA434D68C5F300159D402A4342608E
:104AF000C5681A00D2B252009640B5438E681A00BB
:104B0000D2B2520096403543C5604A68D2008CD577
:104B100000220092274A156855F4804515601268F6
:104B200012F480420092009A234D1A00920855F820
:104B300022600F2713F00302D2B292009740BE43C7
:104B40001E4A904201D100273FE71D4A904201D101
:104B500001273AE71B4A904201D1022735E71A4A5A
:104B6000904201D1032730E7184A904201D104272F
:104B70002BE7174A904201D1052726E7154A9042B4
:104B80007FF41EAF062720E7F1BC7047006989B2A9
:104B9000084201D0012000E0002040B27047000030
:104BA000001C0240003C0140043C0140083C014024
:104BB0000C3C0140443802400838014000000240EB
:104BC0000004024000080240000C024000100240B5
:104BD000001402400018024010F00700464B1A680B
:104BE0004FF6FF010A40454951EA00210A431A6085
:104BF000704741480068C0F302207047012210F05E
:104C00001F018A403E4940B2400941F820207047C8
:104C1000020052B2002A08D509013A4A40B210F007
:104C20000F00104400F8041C03E00901364A40B2AA
:104C30001154704710B410F00700D0F10703052B92
:104C400001D3042301E0D0F10703041D072C01D296
:104C5000002000E0C01E012414FA03F35B1E19407B
:104C6000814014FA00F0401E1040084310BC704709
:104C700080B5411EB1F1807F01D301200EE0401EBE
:104C8000224908600F215FF0FF30FFF7C1FF0020CD
:104C90001F49086007201F490860002002BD80B539
:104CA000FFF79AFF01BD70B504000D00160000204B
:104CB000FFF79FFF32002900FFF7BCFF0100200033
:104CC00040B2FFF7A5FF70BD80B540B2FFF796FF79
:104CD00001BD80B5FFF7CCFF02BD042805D10D480A
:104CE000016851F00401016004E00A48016831F0F4
:104CF00004010160704700000CED00E00000FA05BF
:104D000000E100E018ED00E000E400E014E000E065
:104D100018E000E010E000E080B500F001F801BD0F
:104D20007047000001480068704700BF747C002095
:104D300018B40022ADF80020002310F00102002A70
:104D400006D0012904DB04788DF80140401C491E7F
:104D500004E0048813FA84F3801C891E0229F8DA1F
:104D6000012902DB00788DF80000BDF8000013FA7D
:104D700080F081B211EB104188B210EB1140002A93
:104D800006D0020212F47F42C0F30721100008434C
:104D900080B212BC704770B50400002600251BE0ED
:104DA00061896068FFF7C4FF16FA80F00600B6B2AA
:104DB00016EB10466089022190FBF1F201FB120014
:104DC000002808D0D5F10105310211F47F41C6F366
:104DD00007200E0006432468002CE1D1EDB2002D1F
:104DE00006D0310211F47F41C6F307200E000643BE
:104DF000F643300080B270BD38B50025DFF85406A8
:104E0000046804E0E07F401EE07725002468002C61
:104E100008D0E07F0028F5D120002468290000F0A8
:104E200002F8F4E731BD2DE9F04107000D0000263E
:104E3000002D786841688888002815D17C6808684A
:104E40007860142217F10801D4F804804046FEF778
:104E5000D5FF01212000FDF72AFC2000FDF70AF80C
:104E600086192000FCF7CEFF7C6809E06068A04648
:104E700004684046FCF7FEFF86194046FCF7C2FF77
:104E8000002CF3D12900380000F077F8DFF8C805CE
:104E90000188891B0180B6B23000BDE8F081F8B509
:104EA00004000D00002600205FF0000C0023002706
:104EB000DFF8A015096814E0C27F91F81FE0724581
:104EC0000AD30800634607E00022002A04D07F1CB2
:104ED0000028F1D1080063460A68002A00D08C46F9
:104EE0000968002910D0E268D1F814E0964509D18C
:104EF0002269D1F818E0964504D18A89B4F804E013
:104F00007245E1D00122E0E7002803D01900FFF745
:104F10008AFF8619AE4201DA022FC4DA3000F2BDF0
:104F200070B505000E000420FDF7FAFD0400002C0A
:104F30000DD131002800FFF7B2FFB04203DB04209F
:104F4000FDF7EEFD0400002C01D1002014E020212B
:104F5000002226003000FDF709FE0320E077DFF88D
:104F6000F404016821600460142214F10806290089
:104F70003000FEF743FF200070BD80B5DFF8D42479
:104F80001368834202D10168116001E002680A607F
:104F900001000420FDF7D8FD01BD2DE9F84306000E
:104FA0000F0000240125D7F80490B9F80200FDF79E
:104FB0008BFA80461FFA88F899F8000010F00F006D
:104FC000B8EB8008B9F80600FDF77EFAC004C00C03
:104FD00080B2C000796800220A60888018EB000067
:104FE000C880706810E08888938898423CD0888890
:104FF000D388984239D3002C04D0E0889388984213
:1050000000D0002510681400002822D042688B8848
:10501000B2F804C06345E6D20860002C18D08B8833
:10502000B4F806C0634503D39288CB889A420DD268
:105030003800FCF71FFFDFF820140A88101A0880D8
:105040003800FCF7DFFE0020BDE8F283276000E0B7
:10505000776000280BD1002C08D02760E0888A8870
:10506000904204D0002502E0E2E7E1E77760B07FFC
:10507000C0071DD5002D19D07068002804D07068B5
:1050800040688088002801D000250FE00A000868E9
:1050900001E00A000868002805D04168D0888A88A5
:1050A0009042F6D00025002D00D008682800CBE7FC
:1050B0000020C9E72DE9F84F0500D5F8048098F8DD
:1050C000000010F00F008000142805D02800FCF725
:1050D00099FE0020BDE8F28FB8F80600FDF7F4F95C
:1050E000C004C00C80B25FEAC009B8F80200FDF746
:1050F000EBF982461FFA8AFA98F8000010F00F00C8
:10510000BAEB800A2800FCF7B5FE8346DFF8486357
:10511000308810FA8BF00B280CDB594689B24046D8
:10512000FFF7BDFE002804D0308810FA8BF00B2862
:1051300000DBCBE7C74F3C6800E02468002C13D0AD
:10514000D8F80C00616981420BD1D8F81000A16930
:10515000814206D1A089B8F80410884201D101200B
:1051600000E000200028E8D0002C08D1594689B280
:105170004046FFF7D5FE0400002C14D1A6E7B8F88E
:105180000600FDF7A1F9C0040DD1E089FDF79CF9F7
:10519000C00408D01422414614F108000090009881
:1051A000FEF72CFE009830881BEB000BA6F800B031
:1051B00098F80600800607D4A07F50F00100A07781
:1051C0001AEB0909A4F81C9029002000FFF7E5FE5E
:1051D000002844D0A08B1430A08360684068056824
:1051E0006068D0F80480142214F10801C1464846D2
:1051F000FEF704FEA08BFDF767F9A8F80200002077
:10520000A8F806000020A8F80A00D4F804800CE0F2
:10521000D5F804907FF013012800FCF7E7FD290082
:105220004046FCF736FED9F80050002DF0D1386822
:10523000844201D1002107E0396800E009680029B3
:1052400002D00868A042F9D12000FFF796FE404640
:10525000FCF710FE3188081A308040463AE70020FB
:1052600038E780B50520FDF75BFC02BD80B5010085
:105270000520FDF769FC01BD10B504006069002838
:1052800002D06069FCF7BEFD2000FFF7EFFF10BD04
:105290002DE9F34F87B0070014000898408D1438AB
:1052A000082190FBF1F0ADF80C005FF014095FF0FD
:1052B000000A786805900598017811F00F018900BF
:1052C000142902D07FF0050072E0C088FDF7FCF8D9
:1052D000C104C90CADF80A10800402D57FF00500A6
:1052E00066E03889B0F11408069438E0002009E03F
:1052F0001AEB09090898408D1438414689B2884252
:10530000F4DB0120BDF80A10C904C90C002801D142
:1053100051F40051080080B2FDF7D6F80499C88016
:10532000BDF80800143080B2FDF7CEF8049948802B
:10533000002004994881069A31000898089B5B690F
:1053400098473000FCF75EFDBDF80800B8EB000898
:10535000BDF80A10BDF80C004118ADF80A1040461F
:1053600080B2002874D0404680B2BDF80C10B0EB7B
:10537000C10F02DAADF8088005E0BDF80C0080B27C
:10538000C000ADF80800002214210220FCF7A3FBA6
:105390000600002E0AD01422059974682000FEF73A
:1053A0002DFD70680490BDF808B007E05FF0FF3095
:1053B00009B0BDE8F08F5FF000093F68584680B241
:1053C000002895D0B7F80AA0BAEB090A584651460A
:1053D00080B289B2884201D2DA46FFE7504680B2F5
:1053E0000028E8D0FFF73DFF0400002C03D1300077
:1053F000FCF708FDDAE7504680B20190786849462C
:1054000089B20844009023000222514689B2042048
:10541000FCF716FC0500002D06D12000FFF726FF43
:105420003000FCF7EFFCC1E73800FCF72CFD6761AA
:105430000A48206129003000FCF72BFDBBEB0A0B6A
:10544000584680B20028B9D05FF000093F68B5E740
:105450000020ADE7347C0020D67C00207952000883
:105460002DE9FE4F0500DFF8F86A6868306068894A
:10547000142804DA2800FCF7C5FCBDE8F78FDFF834
:10548000E47A39687869FCF787FF002804D1387D11
:1054900010F0F000E02800D1ECE730688089FDF7DB
:1054A00013F880B2000BC0B281000800C0B214280B
:1054B00005DB28890A00D2B292B2904200D2D9E725
:1054C000DFF8A44A0800C0B214382080DFF89C8AB4
:1054D0000020C8F8000068890A00D2B292B2904257
:1054E0000AD32088DFF8882A1080C9B2494209B25D
:1054F0002800FCF77BFC27E07FF013012800FCF775
:1055000075FCDFF86C0A69890180218804880C1B0E
:10551000B0F9001009B2494209B22800FCF766FC54
:1055200028684089210089B28842A3D3286840684E
:10553000C8F80000210009B2494209B22868FCF706
:1055400055FC2889041B2C8130680088FCF7BCFFBF
:105550003168088030684088FCF7B6FF31684880C1
:1055600031684868FCF7B8FF31684860DFF8048AA2
:10557000C8F8000031688868FCF7AEFF31688860C1
:10558000DFF83C9BC9F800003068C089FCF79CFF3D
:105590003168C88130688089FCF796FF10F03F00C1
:1055A000DFF8D4190870DFF8D009007810F0030F85
:1055B00001D0012000E00020DFF8C0A929894018AF
:1055C000AAF800000020DFF8B8B9DBF8004001E0DD
:1055D0002000E468002C1AD0218B32681288914296
:1055E000F6D1E18A326852889142F1D161683A6914
:1055F0009142EDD121687A699142E9D1002806D023
:10560000E168C160DBF80000E060CBF80040002CEE
:1056100049D1DFF87009046800E0E468002C18D074
:10562000208B316809888842F7D1E08A316849883F
:105630008842F2D1606839698842EED12068796980
:105640008842EAD1200000F0C6F92800FCF7DAFB16
:1056500013E70022DFF83039186806E0002813D07D
:105660000168002910D00200C06800280CD0C18A4F
:10567000D6F800C0BCF802C06145F4D10168D7F883
:1056800014C06145EAD1FFE700280CD0002A04D0FD
:10569000C168D1601968C160186000F00FF9280076
:1056A000FCF7B0FBE9E6002C00F0EA80DFF8DC78DC
:1056B00000203860288938817D603068F860DFF824
:1056C000D06800203060DFF8CC88002088F8000027
:1056D000DFF8A89B0020A9F80000DFF89C080078FC
:1056E000000703D5687B50F001006873206F002825
:1056F0000DD0200002F05DFE10F10D0F06D0206FDE
:10570000002804D0BAF80000002800D08FE0DFF8AD
:1057100088582C60200000F0A1F940B210F10D0F64
:1057200000F0858098F80000000712D5D4F88800B2
:10573000002805D07FF00D012069D4F8882090471B
:105740002100584602F09BFF21000120FDF7FCF9E3
:105750006DE00020B9F80000002813D0B9F800204F
:10576000A06F002805D092B221002069A36F98474E
:1057700000E000207FF00C0140B2884257D00020AA
:10578000A9F8000098F80000C00615D5A07EC00654
:1057900009D4D4F88800002805D07FF00E012069D4
:1057A000D4F8882090472100584602F068FF210075
:1057B0000120FDF7C9F93AE03068002825D0A07E25
:1057C000C00606D53068FCF71DFB200002F0E4FBA4
:1057D0002DE0E06F002807D0002332682100206907
:1057E000D4F87CC0E04705E00023326821000020A7
:1057F00002F03DFE01007FF00C0249B2914216D04A
:1058000040B2002801D03068206798F80000800678
:1058100008D5206F002819D0206F407B50F0200061
:10582000216F487300202860200003F04AF900200F
:10583000DFF86417086000203060786800283CD0EA
:105840007868FCF7DFFA0020786036E0208D40F6BB
:105850006831884202D0208D401C2085E06F0028EE
:1058600007D00023002221002069D4F87CC0E04743
:1058700000E000207FF00C0140B28842D2D1D6E790
:1058800030688089FCF720FE400713D43068008818
:10589000019030684088009017F1100317F114024E
:1058A000D8F80000BAF8001010FA81F1D9F8000019
:1058B00003F07CFA2800FCF7A5FADEE57CB50500CC
:1058C000DFF8280C0178490700F184800178C906C7
:1058D0001AD5DFF89006DFF888160A681288019258
:1058E00009684988009110F1100310F11402DFF8E3
:1058F00084060068DFF8841609884118DFF8C007BD
:10590000006803F053FA65E00078800762D5687D8F
:1059100002F02CFE0400002C0ED1002D09D0A86945
:10592000002806D05FF0FF3200212869AB69984754
:1059300001E07FF00F004DE0DFF8280641692160AB
:1059400000696060E88AE082DFF8146630680088E9
:10595000208303202075DFF81C060168491C616262
:10596000616AE1620068401E206528692061656700
:10597000287A10F00C002072DFF804060168E1605C
:10598000046003F090FB0120DFF83C1C087020004D
:1059900000F0CFFD3068C089A4F85C00B4F85C006A
:1059A000A4F85E00B4F85C00A4F84A00211D608EE3
:1059B00002F09FFE60861221200002F0CCFF40B270
:1059C000002804D00021200002F07FFA02E020002D
:1059D00003F077F873BD1CB5DFF8101B0A78520787
:1059E0003BD40A78920726D5DFF888452268416AB9
:1059F000521A002A26D42268416A521A018D521A7C
:105A0000012A1FDADFF85C05DFF854150A681288EE
:105A1000019209684988009110F1100310F11402F5
:105A20002068DFF8581509884118DFF894060068E7
:105A300003F0BCF911E00978C90703D5DFF88C1B26
:105A400009680162DFF834150988002905D0817ED4
:105A500051F00201817603F034F813BD3EB5040025
:105A600000200021DFF8845A2978490735D594F9B8
:105A70001410022907D1DFF848160968E26C914238
:105A800019D1012017E0DFF8EC241168636A99420C
:105A900001D101200FE01368616A5B1A002B0AD460
:105AA0001268616A521A218D521A012A03DAA17E04
:105AB00051F00201A176C0B200280CD0DFF8D40466
:105AC000017851F008010170A07E10F0FE00A07670
:105AD0007FF00D0042E2002040E2287880070DD5DB
