:020000040800F2
:10000000C0800020C1CC0008C1C90008C3C90008D5
:10001000C5C90008C7C90008C9C900080000000018
:10002000000000000000000000000000CBC9000834
:10003000CDC9000800000000CFC90008D1C90008E0
:100040009DCD0008A1CD0008A5CD0008A9CD0008D0
:10005000ADCD0008DDC90008B1CD0008B5CD000860
:10006000B9CD0008BDCD0008C1CD0008C5CD000840
:10007000C9CD0008CDCD0008D1CD0008D5CD0008F0
:10008000D9CD0008DDCD0008E1CD0008E5CD0008A0
:10009000DFC90008E9CD0008EDCD0008F1CD00086A
:1000A000F5CD0008F9CD0008FDCD000801CE00080F
:1000B00005CE000809CE00080DCE000811CE0008BC
:1000C00015CE000819CE00081DCE000821CE00086C
:1000D00025CE000829CE00082DCE000831CE00081C
:1000E00035CE000839CE00083DCE000841CE0008CC
:1000F00045CE000849CE00084DCE000851CE00087C
:1001000055CE000859CE00085DCE000861CE00082B
:1001100065CE000869CE00086DCE000871CE0008DB
:1001200075CE000879CE00087DCE000881CE00088B
:1001300085CE000889CE00088DCE000891CE00083B
:1001400095CE000899CE00089DCE0008A1CE0008EB
:10015000A5CE0008A9CE0008ADCE0008B1CE00089B
:10016000B5CE0008B9CE0008BDCE0008C1CE00084B
:10017000C5CE0008C9CE0008CDCE000800000000A2
:10018000D1CE0008D5CE000870B5DFF8384A207807
:10019000002822D1DFF8305A01F00DFB28602868D2
:1001A000002802D15FF0FF301BE02868007A50F091
:1001B000200029680872DFF8146A44223100286898
:1001C00001F061FA43223100286801F0A3FA00220D
:1001D000DFF8FC19286801F0D0FA2078401C207064
:1001E000002070BD10B5DFF8DC090178491E0170F0
:1001F0000078002806D1DFF8D049206801F0C0FA65
:100200000020206010BD10B50400606A0C2100F0D1
:10021000FBFCDFF8B8190B000A00200001F03EFBE0
:10022000200000F060FA10BD38B50400656A0821AE
:10023000280000F0E9FC002215F12801200001F05F
:1002400053FFA87AFF2802D0A87A401CA8724FF466
:10025000FA7080B200F2F3104FF4FA7190FBF1F0F3
:10026000E88231BD38B50400656ADFF8980A807805
:1002700000280BD0DFF85C09806802F06DF8686236
:1002800069680869A862200000F001F831BDFEB578
:100290000600746A0121200000F0B6FC0322210050
:1002A000300000F040FF0500280040B200284DD18A
:1002B00002223921200000F0B2FC718D200000F0F4
:1002C000CAFC04223221200000F0A9FCA06A02F03E
:1002D00043F80100200000F0D4FC04223621200065
:1002E00000F09DFC606A02F037F80100200000F089
:1002F000C8FC04223721200000F091FC002708E010
:10030000DFF8D4083900C9B2415C200000F09AFC43
:100310007F1C3800C0B20428F2D3200000F0DBFFBD
:10032000A18AF03189B2E06802F016F9DFF89C0882
:10033000019000964323DFF8A428E168DFF88808DD
:10034000006801F037F9200000F0B6FFA07AFF281E
:1003500002D0A07A401CA072A07A062805DA0121FA
:1003600094F90A0011FA00F000E03C204FF47A7191
:1003700010FB01F080B200F2F3104FF4FA7190FB21
:10038000F1F0E082280040B2FEBD10B5DFF8500861
:10039000046819E0888B002815D0888B421E8A8358
:1003A00080B201280FD1200000F07EF80BE0C88B4E
:1003B0000028EFD0C88B421ECA8380B20128E9D141
:1003C000200000F08EF82468002C16D0616A002905
:1003D000F9D0487A0028F6D0488C0028E7D0088C5D
:1003E000401C0884088C4A8C9042E0D1200000F028
:1003F0008DFB200000F077F9E5E710BD10B5DFF8C0
:10040000E007046813E0C18A01290FD1C18A491E9F
:10041000C182200000F00EF808E0606A002805D0D4
:10042000C18A0229EFDBC18A491EC1822468002CDF
:10043000F3D110BD10B50400606A417A0C2902D0D6
:10044000417A062903D1200000F04DF92BE0417AD2
:1004500001290DD1807A062803DA2000FFF717FF63
:1004600021E0200000F052FB200000F03CF91AE0EF
:10047000417A08290AD1807A022803DA2000FFF79E
:10048000D3FE10E0200000F097F90CE0417A032938
:1004900009D1807A022803DA200000F0CDFA02E0C8
:1004A000200000F020F910BD10B5446A617A0129DE
:1004B00005D0617A0A2902D0617A052910D100F0AD
:1004C00000FA618B208C091A022091FBF0F00128C0
:1004D00006DB618B208C091A022091FBF0F0A083CF
:1004E00010BD10B5446A617A012908D0617A0A29E1
:1004F00005D0617A052902D0617A042910D100F073
:100500003EFA618C208C091A022091FBF0F0012840
:1005100006DB618C208C091A022091FBF0F0E0834D
:1005200010BD38B5446A0020E06200202063DFF887
:10053000D457E878002803D0DFF89806C0686063D5
:100540002879002804D0DFF88C060069A06302E057
:10055000606B4008A0636879002804D0DFF8740657
:100560004069E06304E0616B07204143C908E1632F
:1005700061680869A062A879002808D0DFF85406ED
:10058000806901F0E9FEE0620120E07201E00020F4
:10059000E072E879002805D0DFF83806C06901F07C
:1005A000DBFE206331BD70B50500002D02D17FF068
:1005B0000F003DE095F83300C00702D47FF00F0034
:1005C00036E06C6A688DB0F5107F02DA5FF0FF30BC
:1005D0002EE0002C0AD1402002F0BEFA0400002CCC
:1005E00002D15FF0FF3023E06C6204E0207A002843
:1005F00001D0FFF7F7FD402100222600300002F075
:1006000027FBFFF7C1FD002802D05FF0FF300FE0AD
:1006100001202072280000F066F8010049B200298C
:1006200005D0280000F0DEFA5FF0FF3000E040B2B5
:1006300070BD80B500280BD0426A002A08D0537ADA
:10064000082B05D10968926A914201D100F001F8A6
:1006500001BD7CB50600746A00200C21200000F06A
:10066000D3FA04222100300000F05DFD05002800CF
:1006700040B2002824D104223221200000F0CFFA19
:10068000A06A01F069FE0100200000F0FAFA2000E3
:1006900000F021FEA18AF03189B2E06801F05CFF30
:1006A000DFF82805019000964323DFF83025E16844
:1006B000DFF81405006800F07DFF200000F0FCFD6D
:1006C000A07AFF2802D0A07A401CA07242F21070DB
:1006D00080B200F2F3104FF4FA7190FBF1F0E08277
:1006E000280040B276BDFEB505006C6A00200020EF
:1006F000A0620621200000F087FA012221002800D4
:1007000000F011FD0600300040B2002835D1022271
:100710003921200000F083FA698D200000F09BFA57
:1007200004223721200000F07AFA002708E0DFF8E1
:10073000A8043900C9B2415C200000F083FA7F1C94
:100740003800C0B20428F2D3200000F0C4FDA18A12
:10075000F03189B2E06801F0FFFEDFF8700401902B
:1007600000954323DFF87424E168DFF85C04006837
:1007700000F020FF200000F09FFDA07AFF2802D0AB
:10078000A07A401CA072A07A062805DA012194F90B
:100790000A0011FA00F000E03C204FF47A7110FBDF
:1007A00001F080B200F2F3104FF4FA7190FBF1F017
:1007B000E082300040B2FEBD3EB50400002C00F0E7
:1007C0007F80656A002D7BD000202884686B10F143
:1007D000010F0FD0686B1E303C21B0FBF1F0B0F57B
:1007E000803F01D34FF6FF706884688C002801D1E8
:1007F00001206884A86B10F1010F11D0A86B1E3086
:100800003C21B0FBF1F0B0F5803F01D34FF6FF7013
:100810002883288B002801D101202883288BA883D6
:10082000E86B10F1010F11D0E86B1E303C21B0FBDA
:10083000F1F0B0F5803F01D34FF6FF706883688B0D
:10084000002801D101206883688BE883288B698B9D
:10085000884204D3688B002801D000202883E87ADE
:10086000002802D0E86A019012E095F82800010003
:10087000C9B2802902DAFF20019009E0C0B2C02885
:1008800003DB7FF07F40019002E04FF6FF700190A4
:10089000286B00900098002807D1A96A01980140B0
:1008A0000091009850F0807000900A21280000F01C
:1008B000ABF96B4601AA15F12801200000F0EEFF0C
:1008C00037BDF8B50600746A0521200000F09CF9D8
:1008D00003222100300000F026FC0500280040B271
:1008E000002830D102223921200000F098F9718DC2
:1008F000200000F0B0F904223721200000F08FF929
:10090000002707E0B4483900C9B2415C200000F07C
:1009100099F97F1C3800C0B20428F3D3200000F0FE
:10092000DAFCA18AF03189B2E06801F015FE009688
:10093000432314F12402E168A348006800F017FE85
:10094000200000F0B9FCA07AFF2802D0A07A401C59
:10095000A072A07A0A2805DAA07A4FF4FA6110FB97
:1009600001F001E044F6206080B200F2F3104FF491
:10097000FA7190FBF1F0E082280040B2F2BDF8B5C8
:100980000600746A0421200000F03EF903222100D1
:10099000300000F0C8FB0500280040B200282FD12D
:1009A00002223921200000F03AF9718D200000F078
:1009B00052F904223721200000F031F9002707E026
:1009C00085483900C9B2415C200000F03BF97F1C2A
:1009D0003800C0B20428F3D3200000F07CFCA18AC8
:1009E000F03189B2E06801F0B7FD009643237B4AFD
:1009F000E1687548006800F0BAFD200000F05CFC7A
:100A0000A07AFF2802D0A07A401CA072A07A0A28FF
:100A100005DAA07A4FF47A7110FB01F001E042F29E
:100A2000107080B200F2F3104FF4FA7190FBF1F005
:100A3000E082280040B2F2BDF8B50600746A0321D6
:100A4000200000F0E1F803222100300000F06BFBF1
:100A50000500280040B200283CD1022239212000A4
:100A600000F0DDF84FF41071200000F0F4F80422DB
:100A70003221200000F0D3F8A06A01F06DFC0100E3
:100A8000200000F0FEF804223721200000F0C7F813
:100A9000002707E050483900C9B2415C200000F04F
:100AA000D1F87F1C3800C0B20428F3D3200000F036
:100AB00012FCA18AF03189B2E06801F04DFD009688
:100AC0004323464AE1684048006800F050FD20009A
:100AD00000F0F2FBA07AFF2802D0A07A401CA0729E
:100AE000A07A0A2805DAA07A4FF47A7110FB01F097
:100AF00001E042F2107080B200F2F3104FF4FA718C
:100B000090FBF1F0E082280040B2F2BD7CB5050018
:100B10006C6A002C02D17FF00F0051E0606A0190F6
:100B2000280000F0F8FB06000021200000F06CF81F
:100B3000002060620020A0620020E06200202063AC
:100B40000020E063A0636063002060842084E08371
:100B5000A083F6B2002E01D1002031E0072221004F
:100B6000280000F0E0FA0600300040B200281FD153
:100B700004223621200000F052F8019801F0ECFB2D
:100B80000100200000F07DF8200000F0A4FBA18A05
:100B9000F03189B2E06801F0DFFC0095432301AA3F
:100BA000E1680948006800F0E2FC200000F084FBE6
:100BB000064A13001100280000F070FE300040B219
:100BC00076BD00008E7C0020C47B002094CD000800
:100BD0000B100008C47900200000002098CD000808
:100BE000047C002010B500280DD0446A002C0AD0E7
:100BF0000021200000F008F8207A002803D0FFF739
:100C0000F1FA0020207210BD0A00437AD2B29A4253
:100C100004D04172002181720021C182704710B45A
:100C2000838A5C1C848204699BB2234483F8F0109D
:100C3000818A4B1C8382006989B2084480F8F020C5
:100C400010BC7047828A531C8382006992B21044A0
:100C500080F8F010704710B4828A531C83820B0016
:100C60009BB21B0A046992B2224482F8F030828A55
:100C7000531C8382006992B2104480F8F01010BCBB
:100C8000704710B4828A531C83820B001B0E0469C8
:100C900092B2224482F8F030828A531C83820B0085
:100CA0001B0C046992B2224482F8F030828A531CF1
:100CB00083820B001B0A046992B2224482F8F0304E
:100CC000828A531C8382006992B2104480F8F0102B
:100CD00010BC70472DE9F24F84B004000020029050
:100CE000002001900A2100200390064D039A28005D
:100CF00001F0AEFF049840892C2805D27FF0010056
:100D000080E100BF847B00200498406860605FF051
:100D1000F0090498058904E0002002905FF06C0956
:100D2000EC25049C05E06089B9EB000960892D1A67
:100D30002468002C04D04846618980B28842F2D2EF
:100D4000002C02D17FF001005CE16068039002E0BA
:100D5000246860680390002C00F02E8103984946B7
:100D600089B2405CFF2800F027814846290080B204
:100D700089B2884280F020810398494689B2415C5B
:100D800000205FF0FF3719F10206484680B2401C90
:100D90006289904205DA03984A4692B2104442783A
:100DA00007E02068002803D020684068027800E04F
:100DB00000229046C9B2002912D0012915D003297A
:100DC0001CD0062927D0332944D034294BD03529CB
:100DD00052D0362959D03A2960D03B2967D06FE0EC
:100DE00000229046B9F101096CE01000C0B204285D
:100DF00002D07FF0050005E1062763E05FF00408FC
:100E000010004146C0B2C9B2884202D27FF005004C
:100E1000F8E0072756E01000C0B2042190FBF1F380
:100E200001FB1300002802D07FF00500EAE010006B
:100E3000C0B2082801DA904601E05FF0080810000F
:100E40004146C0B2C9B2884202D27FF00500D9E063
:100E5000082737E01000C0B2042802D07FF0050058
:100E6000D0E003272EE01000C0B2012802D07FF0AE
:100E70000500C7E0002725E01000C0B2012802D01D
:100E80007FF00500BEE001271CE01000C0B204287E
:100E900002D07FF00500B5E0022713E01000C0B2D9
:100EA000042802D07FF00500ACE004270AE010001F
:100EB000C0B2042802D07FF00500A3E0052701E0BE
:100EC0005FF00008D2B2921C12EB09094046C0B292
:100ED00000285BD0002000901AE04046C0B20528F0
:100EE00038DB4046C0B2042190FBF1F201FB120056
:100EF00000282CD101200AF80700009801F02CFAF4
:100F0000DFF8A01341F82700B8F10408361D7F1C54
:100F1000DFF894A31AF80700002837D14046C0B282
:100F2000042803DAC3465FFA8BFB01E05FF0040B91
:100F300033009BB25A4692B26946200001F07DFC14
:100F40001FFA8BFB5845C8D07FF001005AE07FF0B4
:100F5000050057E04046C0B2042804D1009801F0D3
:100F6000FBF900900AE05FFA88F8B8F1010F02D0AF
:100F70007FF0050046E09DF80000009001200AF88F
:100F800007000098DFF81C1341F8270048466189E4
:100F900080B28842FFF4DFAE6089B9EB0009608956
:100FA0002D1A4846290080B289B2884204D228000E
:100FB00080B200287FF4CCAEBB490878002813D05B
:100FC000B848006800220A70012802D1012002906E
:100FD0000AE0022802D10120019005E0032803D194
:100FE0000120019001200290029800287FF494AE25
:100FF0000198002805D0002001905FF02C096C2595
:101000008FE6002005B0BDE8F08F70B51500A74849
:101010004668746A6968002C02D0207A002800D1E2
:1010200079E068892C2876DB0878022873D10020C3
:1010300000E0401C020096F82C30D2B29A4213D243
:101040000200D2B2062A0FD20200D2B2102A0BD26C
:101050000200D2B2324492F82D200300DBB20B44DE
:101060001B7F9A42E5D056E0486801F075F9216887
:10107000884250D129002000FFF72CFE00284AD1D9
:1010800089484078002846D0864840680100C9B2A7
:10109000052921D1607A01280ED13000FFF741FAED
:1010A00096F83300000703D53000FFF7BDF832E0B3
:1010B0003000FFF781FB2EE0607A032805D0607ACC
:1010C000042802D0607A052825D13000FFF729FADC
:1010D0003000FFF771FB1EE00100C9B206290FD1F5
:1010E000617A032908D0617A012905D0617A04293F
:1010F00002D0617A052903D13000FFF784F80AE0B5
:10110000C0B2022807D1607A062804D10020E0820C
:101110003000FFF7A7F8002C01D000206060280005
:1011200001F0BFFA70BD70B505000C001600002D6F
:1011300002D17FF00F00B4E0002C02D17FF0050057
:10114000AFE000224FF49A71002001F013F9E06043
:10115000E068002802D15FF0FF30A2E03000C0B2AA
:10116000032809D0A07A002803D101F0B3FD50492B
:1011700008604F4800682060E068406820610120F6
:101180002169087001202169487095F82C002169B7
:10119000887000202169C870206801F0DDF821699D
:1011A00048600020216908810020216948810020D1
:1011B0002169C8603100C9B2082911D03100C9B213
:1011C00004290DD03100C9B2072909D03100C9B2B4
:1011D000032908D1617A052902D0617A042902D154
:1011E00021696A68CA6021690861216948612169C9
:1011F0008861002017E000210FE0010095F82C2005
:1012000089B292B29142F6D2010089B20629F2D295
:10121000010089B2294491F82D10226903009BB284
:101220001A441177401C010089B21029E5D300202F
:1012300007E00021226903009BB21A4482F82C10B7
:10124000401C010089B24029F3D3002007E00021AF
:10125000226903009BB21A4482F86C10401C010002
:1012600089B28029F3D320691249C0F8EC1000201C
:10127000A082002006E02169020092B2114481F8A8
:10128000F000401C010089B24429F4D30122352129
:101290002000FFF7C4FC3100C9B22000FFF7D2FCE8
:1012A000002070BDC4790020847B00204C7B00208E
:1012B000C87B00206382536310B50400002C09D062
:1012C000E068002802D0E06801F0EBF90020E0605F
:1012D0000020206110BD00281CD0818A4A1C828217
:1012E000FF22036989B2194481F8F02008E0818A5D
:1012F0004A1C82820022036989B2194481F8F020D5
:10130000818A442903D3017D11F0030F02D0818A21
:101310004429ECD3704700280ED0416A00290BD035
:10132000406A417A0A2902D0407A052801D1012079
:1013300000E00020C0B200E000207047704710B409
:101340000021FFE7DFF8C4241088431C13804FF608
:10135000FF7380B2984202D14FF440401080DFF812
:10136000B004006800E0C06800280BD0438A1488ED
:10137000A342F8D1491C080080B2B0F5804FE1DBF0
:10138000002000E0108810BC7047D2B2002A14D0B0
:10139000002810D00268002A0DD0DFF878245369A5
:1013A00013F1010F07D00368886803405269886809
:1013B000024093420ED101200DE0002808D00168C0
:1013C000002905D00068DFF84C144969884201D132
:1013D000012000E0002070472DE9FE4F06008B46FB
:1013E00000207089082803DA300001F05AF994E0EF
:1013F0007468DFF820743968786901F0BDFC8046B4
:10140000208800F0A1FF8146608800F09DFFADF8C4
:1014100000000020002500200190DFF8F4A3DAF896
:10142000004001E02500E468002C28D0608ABDF867
:1014300000108842F6D14246D2B259462000FFF74A
:10144000A4FF0028EED0207C400703D40198002898
:1014500000D10194A08A494689B28842E2D16068ED
:10146000002803D0606839698842DBD1002D06D09E
:10147000E068E860DAF80000E060CAF80040002C9C
:1014800000D1019C002C01D0012007E0DBF8040012
:101490007969884201D1012000E00020C0B2002813
:1014A00038D07FF00701300001F0EFF8002803D0BA
:1014B000300001F0F6F830E0002C12D0A0690028CE
:1014C0000BD01FFA89F9CDF8009017F11003320004
:1014D0002100E069A469A0471FE0300001F0E1F8B5
:1014E0001BE05FFA88F8B8F1000F0FD1387D10F0DB
:1014F000F000E0280AD0B7F90C10083109B230002A
:1015000001F0C9F80321300001F08CFD300001F03A
:10151000C8F802E0300001F0C4F8BDE8F78F80B5EC
:10152000002802D17FF0050003E0838A021D00F04D
:1015300001F802BDF8B505000E0014001F002000E0
:10154000002D01D0002C02D17FF005000EE001F04B
:10155000B1FD002802D17FF0030007E000903B00BE
:101560009BB222003100280000F001F8F2BD7CB5EA
:10157000002801D0002A02D17FF0050019E0069D65
:10158000002807D00468002C04D0047814F0F0047C
:10159000E02C01D12C1D07E004686E68B44202D033
:1015A0007FF0050005E00400019400959BB200F077
:1015B00001F876BD2DE9FE4F05000E001F00002D3D
:1015C00002D01400002C02D17FF0050059E0688A97
:1015D00000280AD16A8A2900280000F054F8010086
:1015E00049B2002901D040B24BE0B0460821404644
:1015F00001F04BF8002813D000220821012000F050
:10160000B9FE0600002E02D15FF0FF3039E0B8F8D5
:101610000800002805D04146300001F09DF800E0A8
:101620004646DDF83490DDF830A0D6F804B0688A7C
:1016300000F08AFEABF80000380080B200F084FEB3
:10164000ABF802000020ABF80600308900F07CFE09
:10165000ABF804001120AB7ACDF808A0C0B201901D
:10166000687A0090DBB222004946300001F086FE25
:101670000400464503D0300001F013F8002020009C
:1016800040B2BDE8FE8FF8B505000C00002C00D17B
:10169000614C002D01D0002C02D17FF0050038E014
:1016A00000275B4E306800E0C068002802D0854209
:1016B000FAD10127100080B2002809D1FFF73FFEC0
:1016C0000200100080B2002815D17FF0070020E052
:1016D000306800E0C06800280DD08542FAD0418A09
:1016E00013009BB29942F5D1016823689942F1D168
:1016F0007FF007000DE0002C01D1002000E0206801
:1017000028606A82FFB2002F02D13068E86035603D
:101710000020F2BD70B505000C001600002D01D0B0
:10172000002C02D17FF0050026E0688A00280AD14B
:101730006A8A29002800FFF7A6FF010049B20029A4
:1017400001D040B218E0002C01D1002000E0206858
:101750006860AE82287C50F0040028742C49086828
:1017600000E0C068002803D08542FAD1002003E0E1
:101770000868E8600D60002070BD8161C26170473B
:1017800080B50100224802688A4203D10268D2680B
:1017900002600CE0026800E0D268002A07D0D0683E
:1017A0000028F9D0D0688842F6D1C868D0600020FF
:1017B00001F08CFE01BD38B5002001F073FE04007D
:1017C000002C07D0202100222500280001F040FA3B
:1017D000FF20A072200032BD10B4002813D0026890
:1017E000002A10D000290ED00A68002A0BD0084A1F
:1017F000126806E013680468A34201D10B68136005
:10180000D268002AF6D110BC70470000FC0100200D
:10181000487C00204C7B002094CD000870472DE9C7
:10182000F84F04000D0016001F00DDF82880DDF8D9
:101830002C90DDF830A0002060600020A060002027
:10184000E060002084F833000421002214F1240B0E
:10185000584601F0FDF9032084F828000020E061DB
:10186000C4F820803948017884F836100178491C82
:101870000170C4F810A03B0032002900200000F0E5
:101880000DF82000C847002801D0002004E03048AF
:101890000168216004602000BDE8F28FF8B5050002
:1018A0000C0016001F00002C02D0206800280CD16C
:1018B0002100280000F016F83100280000F03BF865
:1018C0003900280000F030F80BE03100280000F06B
:1018D00032F83900280000F027F82100280000F035
:1018E00001F8F1BD38B505000C00002C02D02068CD
:1018F000009002E0184800680090009869688842EB
:1019000011D06946281D02F03DFB6946281DFFF7EE
:1019100063FF002C01D1002000E0206868600121F5
:10192000280000F02EF831BD002901D1002100E08F
:101930000968C1607047002901D1002100E00968F1
:10194000816070470349086070470000927C002066
:10195000047C0020087C002094CD000880B590F81D
:101960003310C9070CD490F8331051F0010180F8FE
:10197000331090F83310490702D5032100F001F825
:1019800001BD80B5C90709D54168002906D090F886
:101990003310090702D5011D00F0C9FC01BD80B557
:1019A00090F83310C9070BD590F8331011F0FE01F1
:1019B00080F8331090F83310090701D500F010FAC1
:1019C00001BD002800D0C1617047F0B40246106824
:1019D00095681318506803EB5004C0071DD54D449B
:1019E0001BE013F8017B05F8017B491EF9D1A0B17A
:1019F000B60813F8011B06F00306032E08BF13F800
:101A0000016B01EB06214942801C294405D011F8E5
:101A1000016B05F8016B401EF9D1A3420ED013F8FB
:101A2000016B16F0030104BF13F8011BC91C300938
:101A30000F28DAD113F8010B0F30D6E7F0BC02F112
:101A40000C00704770B504001825DFF8EC6805FB42
:101A500004F03058002808D005FB04F0305800F09E
:101A600020FE002005FB04F1705000206C4306EBC3
:101A70000401087570BD10B5002425E02000C0B237
:101A800050431844007D01281DD12000C0B25043AE
:101A90001844011D2000C0B202FB00F203EB02005B
:101AA000806800F044FC0EE02000C0B250431844AF
:101AB000007D0428E2D12000C0B202FB00F203EB5B
:101AC000020002210175641C2000C0B20A2840DA1D
:101AD0001822DFF864382000C0B250431844007D5B
:101AE000C0B20028EFD02000C0B2504318442100FB
:101AF000C9B251431944498A491C41822000C0B2ED
:101B000050431844408AB0F5967F0DDA2000C0B2E9
:101B100050431844007D01280BD12000C0B250432F
:101B20001844408A052804DB2000C0B2FFF78AFF72
:101B3000C9E72000C0B250431844007D0328B3D148
:101B40002000C0B202FB00F203EB02000421017589
:101B5000B9E710BD2DE9F14F0A230A250A26002016
:101B60000A2400275FF0000C5FF0000E002230E036
:101B70005FFA8AFABAF1020F2ADB1000C0B208FB42
:101B800000F04844408AF2461FFA8AFA50451FD3B3
:101B900015006DB21000C0B208FB00F809EB080098
:101BA000B0F812E014E01000C0B208FB00F04844A6
:101BB000408AE2461FFA8AFA504509D313005BB205
:101BC0001000C0B208FB00F809EB0800B0F812C022
:101BD000521C1000C0B20A284CDA5FF01808DFF877
:101BE00058971000C0B208FB00F0484490F814A0C9
:101BF000300040B20A2806D15046C0B2002802D1B7
:101C0000160076B2E4E75046C0B20028E0D0009853
:101C100000280BD00098006893465FFA8BFB08FB06
:101C20000BFBCB44DBF804B0584520D05046C0B283
:101C300001289DD11000C0B208FB00F059F8000047
:101C40000028B0D01000C0B208FB00F04844408A21
:101C5000BA461FFA8AFA5045BAD3140064B210008B
:101C6000C0B208FB00F809EB0800478AB0E7100093
:101C700040B235E0880705D4300040B20A2804D1CC
:101C8000C80702D45FF0FF302AE0300040B20A28D3
:101C900002DAF6B2340009E0280040B20A2821DA5C
:101CA000EDB22C002000C0B2FFF7CCFE0098002857
:101CB0000AD000980168DFF880262300DBB21820E4
:101CC000434302EB030041600021DFF86C26230050
:101CD000DBB21820434302EB03004182200040B2F4
:101CE000BDE8F28F180040B20A2802DADBB21C000D
:101CF000D8E7200040B20A2801DAE4B2D2E75FF068
:101D0000FF30EDE72DE9F8430C0016001F00002C12
:101D10000ED0216800290BD005002900206801F0B1
:101D20002BF8002804D1207810F0F000E02802D130
:101D30007FF00F0052E02A003900C9B22000FFF7FF
:101D400009FF0400200040B2002802D5200040B264
:101D500044E01827DFF8E085200040B210FB07F0D0
:101D6000404402210175200040B210FB07F04044BE
:101D7000856006223100200040B210FB07F040448D
:101D800010F10C09484602F03DF9200040B210FB6A
:101D900007F0404400214182200040B210FB07F0D0
:101DA00058F80000002818D0200040B210FB07F0BF
:101DB00058F80090002064B214FB07F148F80100C5
:101DC0004FF400600090330015F12D0249462800C1
:101DD00002F0D2F9484600F064FC0020BDE8F2832E
:101DE00038B50400002518E01821DFF84C2528003C
:101DF000C0B248431044007DC0B200280CD0280077
:101E0000C0B201FB00F102EB01008068A04203D1E7
:101E10002800C0B2FFF716FE6D1C2800C0B20A28C9
:101E2000E2DB31BDFEB50C00002C7DD006007768EA
:101E30003888B0F5807F08D13879062805D17879BF
:101E4000042802D17888082803D0300000F029FC4B
:101E50006AE0042217F10E0101AD280002F0D2F869
:101E6000042217F1180102AD280002F0CBF86068D7
:101E7000002801D1002506E002986168884201D15E
:101E8000012500E000252800C0B2002801D0012370
:101E900000E00223DBB217F1080201A92000FFF7DE
:101EA00031FFF888B0F5807F03D0B0F5007F33D0E4
:101EB00037E0EDB2002D2ED0022000F045FAF88078
:101EC000042217F10E0117F11805280002F09AF804
:101ED0000422211D17F10E05280002F093F80622B6
:101EE00017F1080117F11205280002F08BF80622FD
:101EF00014F12D0117F10805280002F083F840F6CF
:101F00000600009017F1120317F1080231002000BB
:101F100002F032F9FFE704E001A92000FEF789FB97
:101F2000FFE7300000F0BDFBF7BD2DE9FC410400E8
:101F30000D0090461826DFF800744046C0B270438A
:101F40003844007D022837D14046C0B2704338443F
:101F5000408A40F21D11884210DB4046C0B27043F7
:101F60003844011D200000F0E2F9002824D1404649
:101F7000C0B270433844032101751DE04046C0B231
:101F800070433844408AB0F5877F15DB4046C0B2C5
:101F90007043384410F10C024046C0B270433844DC
:101FA000011D200000F0B3F9002805D14046C0B261
:101FB00070433844032101754FF4006000905FFACC
:101FC00088F806FB08F807EB080010F10C0314F181
:101FD0002D022900200002F0CFF8BDE8F681FEB501
:101FE00004000D00160037002100306800F0C4FE28
:101FF00000280AD0D14B4FF40060009014F12D025C
:102000002900200002F0B8F8FEBD307810F0F00092
:10201000E02815D101208DF8040000208DF805007E
:102020005E208DF80600707810F07F008DF80700B4
:10203000B0788DF80800F0788DF8090001ABDAE788
:102040003168A06801406268A068024091420AD0ED
:10205000306880B24FF6A961884204D0E068002859
:1020600017D014F10C071820B549B34A0B78434335
:1020700013441B7D022B0FDB3B680E78464316444E
:102080007668B34208D10A7829002000FFF74DFF97
:10209000BAE77FF00300B7E7002300E05B1C1E00F7
:1020A00076B20A2E1ADA1E0076B216FB00F6164435
:1020B000367D022EF2DB3E689C464FFA8CFC1CFB00
:1020C00000FC9444DCF804C06645E7D10B701A00AC
:1020D000D2B229002000FFF728FF95E72A00390037
:1020E000200000F001F88FE72DE9FE4F82460D0039
:1020F00014001AF12D0001905FF0FF3B00265146BD
:10210000286800F039FE002809D1287810F0F00086
:10211000E02804D0002D02D02868002802D17FF0EA
:102120000F0098E0524601212800FFF713FD070039
:10213000380040B2002802D5380040B28BE05FF092
:102140001808DFF8F491380040B210FB08F048445A
:10215000007D00280ED10126380040B210FB08F0A7
:10216000484401210175380040B210FB08F0484492
:10217000C0F808A0002E01D1002C09D1290050463A
:1021800000F0D5F88346002C02D1584640B262E0F8
:10219000380040B210FB08F04844007D022811DBF3
:1021A000674807704FF4006000907FB217FB08F09B
:1021B000484410F10C03019A2100504601F0DCFF65
:1021C000834646E0380040B210FB08F04844007DEA
:1021D00001283ED10021200000E00068002803D043
:1021E000027B012AF9D00121002912D000220189A5
:1021F000022000F0BFF80500002D0ED021002800BD
:1022000000F0B3FA002808D0280000F04AFA0025B0
:1022100003E02500280000F085FA002D17D03800D3
:1022200040B210FB08F059F80000002807D0380031
:1022300040B210FB08F059F8000000F032FA7FB20B
:1022400017FB08F049F800505FF0000B01E05FF069
:10225000FF3B584640B2BDE8FE8F2DE9F84F84B0F1
:1022600005000E0017009B4600208DF80400002298
:102270001C21022000F07EF80400002C02D15FF047
:10228000FF3041E01198DDF84080DDF83C90DDF84A
:1022900038A002970396666880B200F055F8F08087
:1022A0000622594616F10807380001F0ABFE062257
:1022B000494616F11207380001F0A4FE04225146E7
:1022C00016F10E07380001F09DFE0422414616F17A
:1022D0001807380001F096FE4FF480703080082017
:1022E0007080062030710420707140F60600009066
:1022F000029B039A2100280001F03EFF200000F01D
:10230000D0F900209DF9040005B0BDE8F08FF8B5C4
:102310000123039302910B490191011D009110F1DA
:102320002D0310F12D01FFF798FF05B000BD80B51A
:10233000024AFFF7ECFF02BD7071002054CD000887
:102340008F7C00205CCD00080100080080B2000AEC
:1023500050EA012080B270470100080210F47F00AB
:1023600050EA01600A00120A12F47F42104350EA58
:1023700011607047F8B50E00150040B2002806D075
:1023800002281BD018D304281CD019D31CE03627F0
:10239000280040B200286CD0022800F08D80C0F0E8
:1023A0008B80032840F09980082001F07BF804001E
:1023B000002C0BD100205BE02227E9E70E27E7E79E
:1023C0000027E5E70027E3E7002051E02573002020
:1023D0002060380080B220441030C01C800880008B
:1023E00060602681300080B2390089B2C91C89083A
:1023F0008900D1F50071884201D2370006E0BFB2F2
:10240000FF1C4FF6FC700740D7F50077678101206D
:10241000E0812700B6B26089361A18E04FF40071E7
:102420000CE00573002141730021016038600681D2
:10243000310089B2B1F5007FF0D23100418110F155
:10244000100141600121C1814189761A0700012EE6
:1024500009DB082001F026F80028E2D1200000F076
:1024600020F9002004E00120E081002060732000BA
:10247000F2BD17F113004FF6FC710840320092B222
:10248000D21C4FF6FC710A40101880B200F064FBB9
:102490000400002C01D10020EAE7BFB204EB0700E2
:1024A0001030C01C80088000606026812089608117
:1024B000002020602573D6E7072000F0F3FF04001A
:1024C000002C01D10020D3E7002060602681208904
:1024D0006081002020602573C5E70020C8E730B484
:1024E0000400180064B2002C06D0022C14D011D3C2
:1024F000042C15D012D315E03624039B9BB2250083
:10250000ADB2ED1CAD08AD0015FA81F5AB420BD2B2
:1025100000201FE02224F0E70E24EEE70024ECE781
:102520000024EAE7002015E0029B00250560002B4F
:1025300006D0A4B2E41CA408A4002344436001E034
:1025400000234360022343730181018941810273A7
:102550000121C18130BC704738B504000D0028004E
:10256000218980B288422DD2280080B22189411A67
:1025700005E060892D1A2089081820812468608967
:102580002A0092B29042F4D3207B00280FD1280079
:10259000618980B288420AD0607B800707D4616875
:1025A000091B691889B2200000F05BFA04006581FC
:1025B000608920812068002802D0206800F071F82E
:1025C0000020206031BD70B40B001BB2002B01D085
:1025D000002801D1002044E00B001BB2002B0AD5DB
:1025E0000E0036B2764243893400A4B2A34201D22F
:1025F000012036E001E00E00B6B2047B45682300FE
:102600009BB2002B03D023009BB2032B0DD1426859
:102610000B001BB25B421A444260426810F1100387
:102620009A4217D2456001201BE023009BB2022B87
:1026300002D0A4B2012C26D10B001BB2002B12D564
:102640004389B6B2B3420ED342680B001BB25B4261
:102650001A44426042898A1842810289891801819C
:10266000002070BC70470B001BB2012B09DBD2B2FB
:10267000002A06D042680B001BB25B421A4442603B
:10268000E8E70120EDE70120EBE780B5002209B281
:10269000FFF799FF02BD80B5012209B2FFF793FF52
:1026A00002BD38B50100002901D1002030E000242E
:1026B00004E0080000F0BEF9641C2900002925D0C0
:1026C000C889401EC881C88980B200281CD10D6805
:1026D000087B4A7B920704D50A00080011698847E5
:1026E000EAE7020092B2032A03D1082000F0EEFECE
:1026F000E2E7020092B2012A02D080B20228D8D1C9
:10270000072000F0E3FED7E70021D7E72000C0B2A2
:1027100032BD0100002001E0401C09680029FBD106
:1027200080B27047002802D0C189491CC18170471E
:10273000002801D0002900D10DE004E003890A89B6
:10274000D318038100680268002AF7D103890A8937
:10275000D31803810160704710B50C002100FFF70A
:10276000E7FF2000FFF7DEFF10BD2DE9F84305006D
:102770000C0000270026002D05D0002C03D028894E
:102780002189884202D27FF00F004BE0698938002E
:1027900080B2091A6289300080B2121A914204DBB9
:1027A000B4F80A80B8EB060803E0B5F80A80B8EB85
:1027B0000708424692B26068310089B201446868F5
:1027C0003B009BB200EB0309484601F01BFC18EBF1
:1027D000070718EB06063000618980B2884201D3F2
:1027E000002624683800698980B2884205D1002714
:1027F0002D68002D01D1002C16D1002C06D0608947
:102800002189884202D12068002810D1002D06D0ED
:1028100068892989884202D1286800280AD1002CB9
:10282000B4D10020BDE8F2837FF00F00FAE77FF01B
:102830000500F7E77FF00500F4E72DE9F047040015
:102840000D0090460027002C01D100203FE0002D14
:1028500001D100203BE00026002C01D0002D01D149
:10286000002034E02BE0B4F80A90B9EB03094046AD
:10287000494680B289B2884200D2C1464A4692B2E5
:1028800060689BB200EB0301300080B205EB000AE8
:10289000504601F0B7FB19EB070719EB0606B8EB3A
:1028A000090800230AE0180080B20028DBD01800D5
:1028B000618980B28842D6D360891B1A2468404659
:1028C00080B2002801D0002CEDD1380080B2BDE8E4
:1028D000F0872DE9F84304000D0016000027002CB6
:1028E00002D17FF00F0036E0002D02D17FF00F0003
:1028F00031E02089110089B2884202D25FF0FF30B6
:1029000029E0002C05D0002D03D0208992B29042FE
:1029100002D27FF00F001EE018E0B0466089414609
:1029200089B2884201D2B4F80A80424692B2380095
:1029300080B205EB0001D4F80490484601F062FB38
:10294000B6EB080618EB070847462468300080B24B
:102950000028E2D10020BDE8F28330B4002513E066
:1029600050F8042BD30744BFA9F101039A18091F9B
:10297000042942F8045BFAD213468C0744BF158041
:102980009B1CC90748BF1D7050F8041B0029E7D1E4
:1029900030BC704710B4AA4A116803880B449842AF
:1029A00013D01979002910D1A64909688B420CD09F
:1029B000A5490C689C4200D1086019880180116803
:1029C000411A14681B8823445980116843880B44BA
:1029D00083420FD0197900290CD19B490C6884429D
:1029E00000D10B600188198011685B1A116800889A
:1029F0000844438010BC704710B491499348800844
:102A00008000086008684FF4205202800023438051
:102A1000002303718B480B6813440360012304688F
:102A2000237103681A80006842800868864908603C
:102A300010BC704780B5002812D0814909688842CF
:102A400003D380490968884200D309E0083800218F
:102A500001717D490A68904200D20860FFF79AFF31
:102A600001BDF0B40A0092B2D21C4FF6FC710A40CC
:102A7000110089B20C2900D20C22110089B242F651
:102A80000103994201D3002064E06D4B196888422C
:102A900003D36C490968884200D35BE0B0F10804B5
:102AA0001D68651B2688290089B2761A083E310008
:102AB000170089B2BFB2B94201D200204AE011002A
:102AC000370089B2BFB2B94244D0196827880F4491
:102AD000397900291FD13988521908325A4ED6F84F
:102AE00000C0BC4505D11F6894461FFA8CFC6744A2
:102AF00037601E681700BFB23E440027377131802F
:102B0000758022803188B1F5205F23D01968338821
:102B100019444A801EE0B6B2110089B214318E42C7
:102B200018D35219083219681600B6B23144464E0D
:102B30003768B94200D2316000260E7126880E80B7
:102B40004D8022800C88B4F5205F03D01B68098873
:102B500019444A80F0BC704770B40100080080B28C
:102B6000002801D1002069E089B2C91C4FF6FC7031
:102B70000140080080B20C2800D20C21080080B26D
:102B800042F60102904201D3002057E02C4A2E4B1E
:102B900018681468041B02E01068A4B2045B2000EB
:102BA00080B20D00ADB2D5F52055A84245D21068CF
:102BB0002500ADB2054428790028EDD12E882000EB
:102BC00080B2361A083E080080B28642E4D32E88CE
:102BD000200080B2361A083E080080B214308642C7
:102BE00016D30919083110680E00B6B23044002619
:102BF00006712E8806804480298001242C71048867
:102C0000B4F5205F06D0146800882044418001E0BC
:102C100001202871186885420CD1196802E01068FB
:102C2000098801440879002803D0064800688142D9
:102C3000F5D1196015F1080000E0002070BC704764
:102C4000D47B0020D87B0020DC7B00200302002006
:102C500062F30F2262F31F42401810F0030308D002
:102C6000C91A1FD3DB0748BF00F8012D28BF20F881
:102C7000022D130030B414461546103928BF20E940
:102C80003C00FAD8490728BF20E90C0048BF40F8AB
:102C9000042D890028BF20F8022D48BF00F8012D1F
:102CA00030BC7047C91818BF00F8012DCB0728BFEA
:102CB00000F8012D7047B1F5807F02D34FF0FF304F
:102CC00070470170012070470078401E8041C0436A
:102CD000C00F7047F0B5244C244A2078244B6FF085
:102CE000004150BB0820656803FB05250E46B5FB77
:102CF000F6F601FB1655401E6560F4D11D4D2E46BB
:102D00001020676803FB07278C46B7FBFCFC01FB20
:102D10001C77676046F8047B8E4603FB0727B7FBEA
:102D2000FEFE01FB1E776760401E46F8047BE8D17B
:102D3000E86FC5F8800001252570606803FB00225C
:102D40000B46B2FBF3F301FB13210A4A616092F8D0
:102D5000803003F01F0352F82300C2F8800042F8CD
:102D6000231020F04040F0BD2C0100205FF36E3CAA
:102D70000D6619002476002010B40300C243002A17
:102D800001D0002801D101201AE091F833209207E8
:102D900001D4002014E04A68904201D100200FE0E5
:102DA0008A6813404C688A681440A34207D18A6835
:102DB00090438968C943884201D1012000E0002086
:102DC00010BC704780B51022024900F005F802BD22
:102DD00000000000647B0020FCB500230068009028
:102DE0000C006D46002604E02E202070641C6D1C33
:102DF000761C3000C0B2042834DA002795F800C0F1
:102E00005FF00A0E9CFBFEF00EFB10C095F800C0B0
:102E10005FF00A0E9CFBFEFC85F800C00DF1040C6F
:102E20003030BE465FFA8EFE0CF80E007F1C28780C
:102E30000028E3D13800471EC0B200280CD018008B
:102E4000431C904206DA3800C0B21CF80000207023
:102E5000641CEFE7002009E01800431C9042C3DB2C
:102E6000002003E0601E002202700800F6BD026828
:102E7000531C0360117070472DE9FE4F06000D00D2
:102E8000DFF89C81D8F808A09AF8000010F00F0035
:102E900000B25FEA8009484600B2142803DA300025
:102EA000FFF7FFFB17E070890428F8D370680078FB
:102EB0000100C9B2002902D0082901D08EE0ABE0A0
:102EC00018F1140798F8140010F0F000E02804D16D
:102ED0003000FFF7E6FBBDE8F78FD8F80010D8F810
:102EE0001400FFF749FF0028F2D130890828D6D313
:102EF000300001F09DF9002803D03000FFF7D1FB2E
:102F0000E9E719F10E0109B23000FFF7BEFB002816
:102F100059D00022318919EB010189B20220FFF753
:102F200029FA0400002CD3D06089494609B208313F
:102F3000884203D22000FFF7B4FBC9E74A4612B229
:102F4000D4F804B05146584601F05CF8494609B23D
:102F5000494209B22000FFF798FB002803D0200067
:102F6000FFF79FFBB4E731002000FFF7FEFB0028CE
:102F700003D02000FFF795FBAAE73000FFF791FB95
:102F800026007468494609B23000FFF77EFB00282E
:102F900018D170683968C160D8F81010016100213B
:102FA000217000216180FF21017200214181029581
:102FB0000120019000200090FF2300223900300002
:102FC00000F0C4F928E019F10E0109B2494209B232
:102FD0003000FFF75AFB0028D3D079E70100C9B2CF
:102FE000032919D00100C9B20B2915D00100C9B2BB
:102FF0000C2911D00100C9B204290DD00100C9B2B9
:10300000052909D00100C9B20D2905D00100C9B2B6
:103010000E2901D0C0B211283000FFF742FB5AE759
:103020004C7B002080B50A00D2B2032100F008F8E2
:1030300001BD80B50A00D2B20B2100F001F801BD3C
:103040002DE9F84384B007008846914600222421E8
:103050000120FFF78FF90400002C28D07E686568F6
:1030600085F8008085F801900020A8800020E88085
:103070001C227968606810F10807380000F0C2FF70
:10308000F068039003A800F015F800280CD0002188
:10309000698002900120019000200090FF2303AA84
:1030A0000021200000F052F92000FFF7FAFA05B0E5
:1030B000BDE8F08310B40200DFF87403006808E094
:1030C00090F83310890703D41168C368994214D06B
:1030D0000068002812D090F8331011F0050105297E
:1030E000F6D141680029F3D0136881680B40446829
:1030F00081680C40A342E3D113E012E0DFF83413FF
:10310000086800280AD0086890F8330010F005001D
:10311000052803D108684068002801D1002000E09C
:10312000086810BC70472DE9F84F06008846012753
:10313000D6F8049099F80000C0B20009C0B2042883
:1031400004D03000FFF7ADFA0020FDE099F8000050
:1031500010F00F0080B25FEA800AB9F80200FFF7B2
:10316000F3F804002000318980B2884204D22100A3
:1031700089B23000FFF7F0F97089514689B2884270
:1031800007D33089A4B2A04203D3504680B214289A
:1031900004DA3000FFF785FA0020D5E0D9F81000F6
:1031A000DFF894B2CBF81400D9F80C00CBF810007B
:1031B0009BF8140010F0F000E02831D198F83300AB
:1031C000C0072BD5D8F80400002827D04446002C8F
:1031D0000CD199F80900112808D1504680B2484412
:1031E0004088B0F5884F01D144460027002F3AD0DF
:1031F000DBF81000002836D04146DBF81000FFF75E
:10320000BBFD002805D19BF8100010F0F000E0286D
:1032100029D13000FFF745FA002095E00024D6E7D9
:103220000125444694F83300C0070ED56068002895
:103230000BD0DBF814006168884211D02100DBF864
:103240001400FFF799FD00280AD1002D09D00025B0
:1032500077480468444500D12468002CE2D1B6E7E1
:10326000B5E72468F6E7002C04D13000FFF719FA1F
:10327000002069E0B9F806004FF63F71084209D016
:10328000300001F065F90600002E01D100205BE05E
:10329000D6F80490CBF80040CBF80480CBF8089027
:1032A00099F8000010F00F0080B28000ABF80C001D
:1032B000514609B2494209B23000FFF7E6F999F8E0
:1032C000090001280DD0062806D011280ED141464C
:1032D0003000FEF781F824E04146300001F00EFB9B
:1032E0001FE041463000FFF7C7FD1AE02100DBF880
:1032F0001400FFF741FD002810D19BF8140010F0D6
:10330000F000E0280AD0514609B23000FFF7C3F9B7
:10331000C6F8049002213000FFF784FE3000FFF76A
:10332000C0F90020CBF800000020CBF804000020FA
:10333000CBF808000020ABF80C000020CBF8100000
:103340000020CBF814000020BDE8F28F7FB50A9E64
:103350000C00002A05D0002902D00968002900D1FC
:10336000341D0999089D0296C9B20191EDB20095EC
:10337000DBB2210000F002F804B070BD2DE9F84383
:1033800006000D0014009946002C38D05FF0140898
:1033900014213000FFF779F9002802D07FF00100F6
:1033A00044E009980899776887F80890787220684F
:1033B00038611FFA88F8042098FBF0F050F04000C4
:1033C000387079703089FEF7BFFF78800020F88070
:1033D000DFF86880B8F80000FEF7B6FFB880B8F8EC
:1033E0000000401CA8F80000002D03D1144800681C
:1033F000F86001E02868F8600020788103E07068D8
:10340000016900916C460A9B588D002809D0588D9F
:103410003189884205D222001900300001F086F976
:1034200004E02200310018005B699847BDE8F28390
:10343000047C0020087C00204C7B0020707C002055
:1034400094CD00080021826811604268D21C920865
:103450009200002107E083681B68136083681A608C
:1034600003881A44491C43889942F4DB704710B51D
:10347000002407E01D48210089B250F82100FFF721
:10348000E1FF641C200080B20928F3D310BD0100C5
:1034900088680068002803D0026889680A6000E034
:1034A0000020704780B5010049B2092901DB0020E6
:1034B00005E00E4940B251F82000FFF7E8FF02BDD9
:1034C000826812680A6080680160704780B50200F7
:1034D00052B2092A07DA002905D0044A40B252F84C
:1034E0002000FFF7EDFF01BD00000000E8CA000862
:1034F000704780B500F047FBDFF81C080178491CD5
:1035000001700078C00701D500F0B8F901BD05E0F1
:10351000426F8A4201D100224267C0680028F7D179
:10352000704738B50400012508E02100DFF82C08B9
:1035300050F825000068FFF7EAFF6D1C042DF4D356
:1035400031BD3EB50400C9B2002951D094F9140030
:10355000042803D094F91400072849D1206F0028CB
:1035600004D1208D40F66831884241D0208B0190F3
:10357000E08A0090231D2200616AE06C02F07CFD6D
:10358000200000F071FCDFF8D8070168A14203D1E8
:103590000168C968016009E0006800E0C0680028AF
:1035A00004D0C168A142F9D1E168C1600020E060A7
:1035B0000120DFF8E017087094F91400042809D1FD
:1035C0000A202075DFF8D0070168E160046002F08E
:1035D000D0FE0BE0DFF8C4070068A04202D102F081
:1035E0003BFA03E021000120FFF770FF00207AE0A2
:1035F00094F9140000280AD0012827D0022834D0DA
:10360000032842D004284BD0072854D05EE0002580
:10361000E08A002814D0DFF888070168A14203D1AE
:103620000168C968016009E0006800E0C06800281E
:1036300004D0C168A142F9D1E168C1600020E06016
:1036400021000120FFF742FF002441E00025200077
:10365000FFF767FF2100DFF80C0800F02CFC2100C9
:103660000220FFF733FF002432E000252100DFF8BD
:10367000F00600F020FC0120DFF818170870210088
:103680000120FFF723FF002422E0200002F03EFA91
:103690000500280040B2002801D10520207517E060
:1036A000200002F033FA0500280040B2002801D1C2
:1036B000052020750CE0200002F028FA0500280003
:1036C00040B2002801D10920207501E00025002426
:1036D000002C06D0280040B2002802D1200002F0C1
:1036E00056FB280040B23EBD80B590F91410012968
:1036F00003D0817E51F0100181760121FFF721FF77
:1037000002BD2DE9FC47050095F914000A2809D1EE
:103710002900DFF8840600F0CEFB29000120FFF726
:10372000D5FE53E000240026EF6CD5F82480D5F8B0
:103730008890D5F810A095F91400002818D1E88ACF
:10374000002820D0DFF858060168A94203D101689B
:10375000C968016009E0006800E0C068002804D082
:10376000C168A942F9D1E968C1600020E8600AE0B7
:103770000C00EE8A2900DFF8E80500F09CFB012030
:10378000DFF84C180870E86E002802D0E86E00F0F0
:1037900072FAA86E002802D0A86E00F06CFA002C15
:1037A00009D0288B0190B6B200962B1D2A00414605
:1037B000380002F061FC29000120FFF787FE48462F
:1037C000002803D07FF00C015046C847BDE8F387BE
:1037D00080B50121FFF795FF01BD416A028D89186F
:1037E000428E40F2B5539A4202DB40F2B45200E0FE
:1037F000428EC36ACB1A9A1A002A05D4028D4285DA
:10380000C06A091A08000CE0426AC16A521A012A09
:1038100002DB0021418503E0C26A416A511A4185F9
:103820000020704710B50400208D09182185208DD7
:1038300040F66931884203DB40F6683020850EE0AF
:10384000208D00280BD194F91400072803D094F997
:103850001400092803D140F668302085FFE72000D6
:10386000FFF7BBFF40F2DA21884206DBA07E50F072
:103870000200A076200002F08AFA10BD2DE9FE4F6A
:103880000020DFF85487D8F80000401CC8F800007A
:10389000DFF8489799F80000401C89F8000025E0FF
:1038A000E868CAF80000F6B2002E09D0288B019013
:1038B000E88A00902B1D2A00696AE86C02F0DCFBA4
:1038C0002E692900ED680120FFF700FEDFF8C4B47F
:1038D00000208BF800003800002803D07FF00C0196
:1038E0003000B8479BF80000002806D00024DFF81D
:1038F00070A4DAF8005000E0ED68002D00F01E81A1
:10390000687F99F800108842F6D099F8000068772F
:103910000027002695F91400022805D195F84200E9
:10392000062801D17F1C76E095F842000C2801D1D1
:103930007F1C70E095F89100002828D0DFF8A006E1
:1039400095F89110084410F8010C95F890100200B9
:10395000D2B2914204D295F89010491C85F890108B
:1039600095F89010C0B2814255D3280002F07DFC3A
:10397000002850D1002085F8900095F89100072884
:1039800049D295F89100401C85F8910043E0B5F9C3
:103990003000002802D4288E401C2886E86E0028BB
:1039A00039D0B5F93000B5F94010884233DB95F9CC
:1039B000140002280DD0B5F93C00C010B5F93E1036
:1039C0004118DFF8200695F8422080568140A5F87E
:1039D000401000202886B5F84800B5F85C108842F1
:1039E00002D2B5F8480001E0B5F85C0080B24008AA
:1039F000A5F84A00B5F84A00698E490089B28842A4
:103A000003D2688E4000A5F84A00688EA5F84800E9
:103A1000280002F07DFB95F91400062809D1A87E44
:103A2000C00606D5D8F80010286A091A292900D33B
:103A30007F1C287A000736D595F91400042803D096
:103A400095F9140007282ED1D5F88C10DFF89805C9
:103A500041184FF4FA70B1FBF0F1D8F80020286A51
:103A6000121A914202D27F1C761C1CE0D5F88C10F1
:103A700095F89220DFF8740500FB02114FF4FA70FC
:103A8000B1FBF0F1D8F80020286A121A91420AD24C
:103A9000280002F0BEFB40B2002804D195F8920045
:103AA000401C85F8920095F91400032806D1D8F837
:103AB0000010286A091A292900D37F1C95F91400DF
:103AC000092806D1D8F80010286A091AF12900D36C
:103AD0007F1CFFB2002F0AD0D5F88870280000F0B4
:103AE000C3F9002C3FF4DCAEE868E060DBE62C00B4
:103AF000ED68E07E401CE076E07E217F8842FFF4A6
:103B0000FCAE0020E076A34E00203070D4F8840094
:103B1000002806D021002069D4F8842090470100B5
:103B200000E00021307800287FF4E0AE49B200299F
:103B30007FF4E3AE200002F02AF9DEE60024964E80
:103B4000356806E0E86830602900ED680120FFF77D
:103B5000BDFC002D15D00020D8F80020296A521A8B
:103B6000F12A00D3401CC0B2002807D0280000F082
:103B70007BF9002CE6D0E868E060E5E72C00ED6812
:103B8000E7E7BDE8F78FF8B5DFF850542878401C18
:103B900028701CE028786077A07EC0070AD5A07E38
:103BA00050F00200A076200002F0F1F8A07E10F0A4
:103BB000FC00A076E668206F00280CD0754F00202E
:103BC0003870200000F011F83878002803D0DFF8B2
:103BD0002004046800E03400002C05D0607F2978C0
:103BE0008842D7D1E468F7E7F1BDF8B50400206F4B
:103BF000467B256F00202067E06F002806D0002359
:103C00002A0021002069E76FB84705E000232A0059
:103C10002100002000F047F8010049B200291CD122
:103C2000B00626D5208D40F66831884202D0208D1E
:103C3000401C2085E06F002807D0002300222100CF
:103C40002069E46FA047010000E000217FF00C0034
:103C5000020049B291420CD10CE07FF00C010A0045
:103C600040B2904201D1080004E025677FF00400D3
:103C700000E00020F2BD10B503E0046800F004F895
:103C800020000028F9D110BD10B50400002C09D087
:103C90006068002802D06068FEF703FD2100032061
:103CA000FFF714FC10BD10B508001400002C07D05D
:103CB0002189FFF7B7FD2000FEF7F3FC002010BDBF
:103CC0005BB2002BFAD1FFF70FFDF8E770B50100EA
:103CD000C9B2802901DB7F20FFE7002400222049B0
:103CE000096811E003004D7DDBB2AB420BD3DFF876
:103CF000E8522E680B6AF61AA64204D328680C6AAA
:103D0000041B0A00487DC9680029EBD1002A02D0B3
:103D10001000FFF75DFD70BD947C002070B500249D
:103D200000220F49096810E091F9143005006DB2C6
:103D3000AB4209D1A84D2E680B6AF61AA64203D3EE
:103D40002A680C6A141B0A00C9680029ECD1002AF1
:103D500003D000211000FFF7D4FC70BDB0CC0008E8
:103D60001C7C002038B5002300200B4909680AE0BC
:103D7000994C25680A6AAD1A9D4203D320680B6AE4
:103D8000C31A0800C9680029F2D1002801D0FFF742
:103D90001FFD31BD937C0020207C0020387C00205A
:103DA000147C002070B505000120FFF77BFB0400A8
:103DB000002C21D1FFF7D6FF0120FFF773FB040091
:103DC000002C19D10920FFF7A9FF0120FFF76AFB9A
:103DD0000400002C10D10820FFF7A0FF0120FFF7FE
:103DE00061FB0400002C07D12800C0B2FFF76EFF72
:103DF0000120FFF757FB0400002C30D09421002253
:103E000026003000FEF724FF657541F2D060A4F86B
:103E1000600040F668306085608D2085FF20A072CC
:103E20004FF4067060860620A4F840000620E08764
:103E30005FF0FF3020860120A4F8480000F06DF804
:103E40006065E0646064A065634800682062634860
:103E5000007860776748E0676748C4F88C00200006
:103E600070BD0000187C002010B5040094F9140007
:103E700000281FD094F914000A281BD094F91400CC
:103E8000012817D0206F002804D0206FFEF709FC0E
:103E9000002020675FF0FF302086A06EFFF7EBFE6A
:103EA000E06EFFF7E8FE0020A066A06EE06600204E
:103EB000A4F8640010BD10B50C000168A14203D144
:103EC0000168C968016009E0006800E0C068002876
:103ED00004D0C168A142F9D1E168C1600020E0606E
:103EE0002000FFF7C1FF94F914000A280DD094F9BF
:103EF0001400012809D0A07EC00706D5A07E50F08E
:103F00000200A076200001F042FF94F9140001287D
:103F1000002020750020E08210BD38490A682E4834
:103F2000006882180A600868704710B5040008002D
:103F3000FFF7C0F8002802D1200080B210E0B0F9ED
:103F40002A10080000B2002808D0B1F12800210092
:103F5000020089B292B2914200D30400200080B2E4
:103F600010BD38B50400080003E0C568FFF730FC59
:103F70002800002805D0016822689142F5D0C06869
:103F8000F7E731BD38B504000D00002C1ED02068C5
:103F900000281BD0164801682000FFF7E2FF0D48FB
:103FA00001682000FFF7DDFF002D0FD028680028F2
:103FB0000CD01348006807E0C168026823689A4281
:103FC00001D12A68026008000028F5D131BD000047
:103FD000937C0020147C0020107C0020957C002025
:103FE00074CD0008A0CC0008B84C0A00F8240100E9
:103FF0001C7C0020A73C000800DD6D0008000020AC
:10400000187C002062B38B0708D0521E11F8013BC8
:1040100000F8013B00F024808B07F6D1830740F0C5
:10402000208000BF103A07D330B4B1E83810103AFE
:10403000A0E83810F9D230BC530724BFB1E808100B
:10404000A0E8081044BF51F8043B40F8043BD207F5
:1040500024BF31F8022B20F8022B44BF0B780370E9
:104060007047121F17D35B0009D151F8043B20F8A9
:10407000023B1B0C121F20F8023BF6D20BE051F85A
:10408000043B00F8013B1B0A20F8023B1B0C121FEB
:1040900000F8013BF3D238BF121D521E24BF11F8A5
:1040A000013B00F8013BF8D870470000F8B5040068
:1040B0000D000E2660890F2804DA2000FEF7F1FAC1
:1040C0000020F2BD63689F891878C00718D518785A
:1040D00001280AD15878002812D198785E280FD18B
:1040E000607B50F0100060730AE00622214918003E
:1040F00002F006FA002803D1607B50F008006073DC
:10410000BFB2082F03D0B7F5C16F19D030E095F8D2
:1041100033000007D1D56089310009B2884208DB3D
:1041200036B27642310009B22000FEF7AEFA00281E
:1041300000D0C2E729002000FEF7F5FF0020C0E70D
:1041400095F833000007B8D56089310009B288427C
:1041500008DB36B27642310009B22000FEF795FA4C
:10416000002800D0A9E729002000FDF75BFEE5E765
:10417000A3E7000054CD00082DE9F84304000D002A
:1041800016009846089880B2FEF7DEF881460E21A8
:104190002800FEF77AFA002802D07FF0010012E032
:1041A0006F68A7F80C900622B94641464846FFF7CB
:1041B00029FF0622BF1D31003800FFF723FF290029
:1041C0002000A2699047BDE8F28318B40022ADF840
:1041D0000020002310F00102002A06D0012904DB90
:1041E00004788DF80140401C491E04E0048813FA4D
:1041F00084F3801C891E0229F8DA012902DB007889
:104200008DF80000BDF8000013FA80F081B211EBC8
:10421000104188B210EB1140002A06D0020212F4BD
:104220007F42C0F307211000084380B212BC7047E0
:1042300070B50400002600251BE061896068FFF767
:10424000C4FF16FA80F00600B6B216EB104660897D
:10425000022190FBF1F201FB1200002808D0D5F1F9
:104260000105310211F47F41C6F307200E00064319
:104270002468002CE1D1EDB2002D06D0310211F4FA
:104280007F41C6F307200E000643F643300080B29C
:1042900070BD000038B50025DFF85406046804E05E
:1042A000E07F401EE07725002468002C08D0E07FE6
:1042B0000028F5D120002468290000F002F8F4E776
:1042C00031BD2DE9F04107000D000026002D786872
:1042D00041688888002815D17C68086878601422B5
:1042E00017F10801D4F804804046FFF78BFE012146
:1042F0002000FEF79EFE2000FEF70BFA8619200034
:10430000FEF7CFF97C6809E06068A0460468404683
:10431000FEF7FFF986194046FEF7C3F9002CF3D1EA
:104320002900380000F077F8DFF8C8050188891BFC
:104330000180B6B23000BDE8F081F8B504000D0090
:10434000002600205FF0000C00230027DFF8A015F6
:10435000096814E0C27F91F81FE072450AD3080093
:10436000634607E00022002A04D07F1C0028F1D118
:10437000080063460A68002A00D08C4609680029B4
:1043800010D0E268D1F814E0964509D12269D1F83D
:1043900018E0964504D18A89B4F804E07245E1D06A
:1043A0000122E0E7002803D01900FFF78AFF8619F1
:1043B000AE4201DA022FC4DA3000F2BD70B505005A
:1043C0000E000420FFF76EF80400002C0DD1310020
:1043D0002800FFF7B2FFB04203DB0420FFF762F8CA
:1043E0000400002C01D1002014E02021002226002E
:1043F0003000FEF72DFC0320E077DFF8F4040168BD
:1044000021600460142214F1080629003000FFF72F
:10441000F9FD200070BD80B5DFF8D4241368834215
:1044200002D10168116001E002680A600100042005
:10443000FFF74CF801BD2DE9F84306000F000024FA
:104440000125D7F80490B9F80200FDF77DFF8046FA
:104450001FFA88F899F8000010F00F00B8EB8008F8
:10446000B9F80600FDF770FFC004C00C80B2C000B0
:10447000796800220A60888018EB0000C8807068A4
:1044800010E08888938898423CD08888D3889842E6
:1044900039D3002C04D0E0889388984200D00025BE
:1044A00010681400002822D042688B88B2F804C03B
:1044B0006345E6D20860002C18D08B88B4F806C09B
:1044C000634503D39288CB889A420DD23800FEF719
:1044D00020F9DFF820140A88101A08803800FEF747
:1044E000E0F80020BDE8F283276000E07760002854
:1044F0000BD1002C08D02760E0888A88904204D035
:10450000002502E0E2E7E1E77760B07FC0071DD554
:10451000002D19D07068002804D070684068808829
:10452000002801D000250FE00A00086801E00A0019
:104530000868002805D04168D0888A889042F6D063
:104540000025002D00D008682800CBE70020C9E72F
:104550002DE9F84F0500D5F8048098F8000010F018
:104560000F008000142805D02800FEF79AF80020DC
:10457000BDE8F28FB8F80600FDF7E6FEC004C00CF7
:1045800080B25FEAC009B8F80200FDF7DDFE82469E
:104590001FFA8AFA98F8000010F00F00BAEB800AB0
:1045A0002800FEF7B6F88346DFF84863308810FA33
:1045B0008BF00B280CDB594689B24046FFF7BDFE55
:1045C000002804D0308810FA8BF00B2800DBCBE7F2
:1045D000C74F3C6800E02468002C13D0D8F80C00CA
:1045E000616981420BD1D8F81000A169814206D1DE
:1045F000A089B8F80410884201D1012000E0002011
:104600000028E8D0002C08D1594689B24046FFF76F
:10461000D5FE0400002C14D1A6E7B8F80600FDF77B
:1046200093FEC0040DD1E089FDF78EFEC00408D0D2
:104630001422414614F1080000900098FFF7E2FCB4
:10464000009830881BEB000BA6F800B098F8060025
:10465000800607D4A07F50F00100A0771AEB09096B
:10466000A4F81C9029002000FFF7E5FE002844D0A4
:10467000A08B1430A0836068406805686068D0F83B
:104680000480142214F10801C1464846FFF7BAFC21
:10469000A08BFDF759FEA8F802000020A8F806003C
:1046A0000020A8F80A00D4F804800CE0D5F80490A3
:1046B0007FF013012800FDF7E8FF29004046FEF7D0
:1046C00037F8D9F80050002DF0D13868844201D174
:1046D000002107E0396800E00968002902D0086875
:1046E000A042F9D12000FFF796FE4046FEF711F8F0
:1046F0003188081A308040463AE7002038E780B514
:104700000520FEF7CFFE02BD80B501000520FEF7B3
:10471000DDFE01BD10B504006069002802D06069AB
:10472000FDF7BFFF2000FFF7EFFF10BD2DE9F34FAE
:1047300087B0070014000898408D1438082190FBBA
:10474000F1F0ADF80C005FF014095FF0000A786832
:1047500005900598017811F00F018900142902D005
:104760007FF0050072E0C088FDF7EEFDC104C90CC2
:10477000ADF80A10800402D57FF0050066E03889A4
:10478000B0F11408069438E0002009E01AEB09099A
:104790000898408D1438414689B28842F4DB0120E4
:1047A000BDF80A10C904C90C002801D151F4005108
:1047B000080080B2FDF7C8FD0499C880BDF8080064
:1047C000143080B2FDF7C0FD0499488000200499A0
:1047D0004881069A31000898089B5B699847300029
:1047E000FDF75FFFBDF80800B8EB0008BDF80A1040
:1047F000BDF80C004118ADF80A10404680B2002800
:1048000074D0404680B2BDF80C10B0EBC10F02DA94
:10481000ADF8088005E0BDF80C0080B2C000ADF82E
:104820000800002214210220FDF7A4FD0600002E3E
:104830000AD01422059974682000FFF7E3FB706822
:104840000490BDF808B007E05FF0FF3009B0BDE8A4
:10485000F08F5FF000093F68584680B2002895D07D
:10486000B7F80AA0BAEB090A5846514680B289B295
:10487000884201D2DA46FFE7504680B20028E8D0ED
:10488000FFF73DFF0400002C03D13000FDF709FFC6
:10489000DAE7504680B201907868494689B2084408
:1048A000009023000222514689B20420FDF717FE32
:1048B0000500002D06D12000FFF726FF3000FDF790
:1048C000F0FEC1E73800FDF72DFF67610A4820615F
:1048D00029003000FDF72CFFBBEB0A0B584680B2D5
:1048E0000028B9D05FF000093F68B5E70020ADE7C8
:1048F000CC7B0020727C0020154700082DE9FE4F7C
:104900000500DFF8F86A686830606889142804DAFE
:104910002800FDF7C6FEBDE8F78FDFF8E47A3968B6
:104920007869FEF729FA002804D1387D10F0F000EC
:10493000E02800D1ECE730688089FDF705FD80B202
:10494000000BC0B281000800C0B2142805DB288922
:104950000A00D2B292B2904200D2D9E7DFF8A44A5C
:104960000800C0B214382080DFF89C8A0020C8F804
:10497000000068890A00D2B292B290420AD320881D
:10498000DFF8882A1080C9B2494209B22800FDF731
:104990007CFE27E07FF013012800FDF776FEDFF8AC
:1049A0006C0A69890180218804880C1BB0F9001009
:1049B00009B2494209B22800FDF767FE286840891C
:1049C000210089B28842A3D328684068C8F8000053
:1049D000210009B2494209B22868FDF756FE28892C
:1049E000041B2C8130680088FDF7AEFC316808801C
:1049F00030684088FDF7A8FC316848803168486815
:104A0000FDF7AAFC31684860DFF8048AC8F80000A6
:104A100031688868FDF7A0FC31688860DFF83C9B4E
:104A2000C9F800003068C089FDF78EFC3168C88184
:104A300030688089FDF788FC10F03F00DFF8D4195A
:104A40000870DFF8D009007810F0030F01D00120C2
:104A500000E00020DFF8C0A929894018AAF800006A
:104A60000020DFF8B8B9DBF8004001E02000E4687E
:104A7000002C1AD0218B326812889142F6D1E18A3B
:104A8000326852889142F1D161683A699142EDD120
:104A900021687A699142E9D1002806D0E168C160B5
:104AA000DBF80000E060CBF80040002C49D1DFF8D3
:104AB0007009046800E0E468002C18D0208B31688D
:104AC00009888842F7D1E08A316849888842F2D162
:104AD000606839698842EED1206879698842EAD1F4
:104AE000200000F0C6F92800FDF7DBFD13E70022E7
:104AF000DFF83039186806E0002813D00168002973
:104B000010D00200C06800280CD0C18AD6F800C0BE
:104B1000BCF802C06145F4D10168D7F814C0614502
:104B2000EAD1FFE700280CD0002A04D0C168D16088
:104B30001968C160186000F00FF92800FDF7B1FD99
:104B4000E9E6002C00F0EA80DFF8DC78002038602D
:104B5000288938817D603068F860DFF8D0680020EF
:104B60003060DFF8CC88002088F80000DFF8A89BD0
:104B70000020A9F80000DFF89C080078000703D5A2
:104B8000687B50F001006873206F00280DD0200072
:104B9000FFF72BF810F10D0F06D0206F002804D07E
:104BA000BAF80000002800D08FE0DFF888582C60A9
:104BB000200000F0A1F940B210F10D0F00F0858047
:104BC00098F80000000712D5D4F88800002805D016
:104BD0007FF00D012069D4F88820904721005846C5
:104BE000FFF769F921000120FEF770FC6DE000205D
:104BF000B9F80000002813D0B9F80020A06F0028F1
:104C000005D092B221002069A36F984700E00020F0
:104C10007FF00C0140B2884257D00020A9F8000074
:104C200098F80000C00615D5A07EC00609D4D4F8B7
:104C30008800002805D07FF00E012069D4F8882074
:104C4000904721005846FFF736F921000120FEF772
:104C50003DFC3AE03068002825D0A07EC00606D58D
:104C60003068FDF71EFD2000FEF7B2FD2DE0E06F7D
:104C7000002807D00023326821002069D4F87CC0C6
:104C8000E04705E00023326821000020FFF70BF821
:104C900001007FF00C0249B2914216D040B20028C8
:104CA00001D03068206798F80000800608D5206F92
:104CB000002819D0206F407B50F02000216F4873EE
:104CC00000202860200001F062F80020DFF864175F
:104CD000086000203060786800283CD07868FDF7D4
:104CE000E0FC0020786036E0208D40F66831884294
:104CF00002D0208D401C2085E06F002807D00023C3
:104D0000002221002069D4F87CC0E04700E00020A8
:104D10007FF00C0140B28842D2D1D6E7306880895A
:104D2000FDF712FB400713D430680088019030680B
:104D30004088009017F1100317F11402D8F8000012
:104D4000BAF8001010FA81F1D9F8000001F094F9D6
:104D50002800FDF7A6FCDEE57CB50500DFF8280C91
:104D60000178490700F184800178C9061AD5DFF877
:104D70009006DFF888160A68128801920968498847
:104D8000009110F1100310F11402DFF8840600689E
:104D9000DFF8841609884118DFF8C007006801F0C1
:104DA0006BF965E00078800762D5687DFEF7FAFF51
:104DB0000400002C0ED1002D09D0A869002806D0CF
:104DC0005FF0FF3200212869AB69984701E07FF06E
:104DD0000F004DE0DFF8280641692160006960603E
:104DE000E88AE082DFF814663068008820830320B8
:104DF0002075DFF81C060168491C6162616AE16286
:104E00000068401E2065286920616567287A10F0D7
:104E10000C002072DFF804060168E160046001F014
:104E2000A8FA0120DFF83C1C0870200000F0CFFD3C
:104E30003068C089A4F85C00B4F85C00A4F85E0097
:104E4000B4F85C00A4F84A00211D608EFFF76DF8ED
:104E500060861221200000F0E4FE40B2002804D059
:104E600000212000FEF74DFC02E0200000F08FFF43
:104E700073BD1CB5DFF8101B0A7852073BD40A78C3
:104E8000920726D5DFF888452268416A521A002A1F
:104E900026D42268416A521A018D521A012A1FDA59
:104EA000DFF85C05DFF854150A681288019209687A
:104EB0004988009110F1100310F114022068DFF806
:104EC000581509884118DFF89406006801F0D4F8F5
:104ED00011E00978C90703D5DFF88C1B0968016266
:104EE000DFF834150988002905D0817E51F00201D0
:104EF000817600F04CFF13BD3EB504000020002178
:104F0000DFF8845A2978490735D594F91410022915
:104F100007D1DFF848160968E26C914219D10120E7
:104F200017E0DFF8EC241168636A994201D101208F
:104F30000FE01368616A5B1A002B0AD41268616A79
:104F4000521A218D521A012A03DAA17E51F0020170
:104F5000A176C0B200280CD0DFF8D404017851F05B
:104F600008010170A07E10F0FE00A0767FF00D0019
:104F700042E2002040E2287880070DD594F9140021
:104F8000022809D094F91400032805D0A07E50F01F
:104F90000200A07600202FE2A07EC00603D4DFF836
:104FA000C80A00682062002084F89200200000F007
:104FB0000EFD94F91400022814D0C0F01C820428BD
:104FC00000F04781C0F0B280062800F09F81C0F059
:104FD0004E81082800F0C981C0F03B81092800F00B
:104FE000F68108E2287810F0120012287BD1DFF851
:104FF0006C150868626C521C904274D1DFF8100482
:105000000268521C6262626AE26209686164DFF8E7
:10501000EC130968C989A4F85C10B4F85C10A4F812
:105020005E100068401E206504202075211D608EE2
:10503000FEF77BFF6086B4F85C00A4F84A0041F2FA
:105040001D10618E4900814202D3618E490001E04A
:1050500041F21C11628E92008A4203D2608E80B2AD
:10506000800009E0618E4900814203D3608E80B2E6
:10507000400001E041F21C10A4F84800B4F86200BE
:10508000401EA4F86200E06E002803D1A06E016803
:10509000A16601E00168E166FEF7F6FDE06E00281A
:1050A00003D15FF0FF30208604E00020208600203E
:1050B00084F84200D4F88000002807D000222100A4
:1050C0002069D4F880309847010000E000217FF08B
:1050D0000C00020049B2914200F08E81A07E50F097
:1050E0000200A07621E02878C0061ED5DFF8100364
:1050F000DFF808130A68128801920968498800914C
:1051000010F1100310F11402DFF804030068DFF857
:10511000081309884118DFF84404006800F0ACFF68
:1051200000202086200000F0F3FF64E12878C0060C
:1051300040F18280DFF824542968606C091A491E06
:10514000002964D42968E06C091A01295FDA042077
:105150002075606F002802D17FF0050110E0606FBC
:1051600000280BD0606F8069002807D00022210042
:105170002069636F9B699847010001E07FF00F0190
:10518000080040B2002809D049B211F10D0F02D039
:105190002000FEF71DFB7FF00C002DE1200000F049
:1051A0004BF9B4F85C00A4F84A00DFF86C150888E5
:1051B000002802D00888401E088041F21D10618E30
:1051C0004900814202D3618E490001E041F21C1185
:1051D000628E92008A4203D2608E80B2800009E023
:1051E000618E4900814203D3608E80B2400001E0AD
:1051F00041F21C10A4F848008D480078800627D59D
:10520000A07E50F00200A0760720207520E07C48A8
:105210007A490A681288019209684988009110F158
:10522000100310F114027A4800687B49098841187C
:10523000286800F021FF0BE02878800708D5744823
:105240000068616A491E884202D1200000F07AFF9E
:10525000D1E0200000F0F0F875480078800605D510
:10526000A07E50F00200A07607202075C3E0200049
:1052700000F0E2F86E480078800639D52878C0063C
:105280002FD5B6480068E16C88422AD1A06E00286C
:1052900027D1A07E50F00200A0762000FEF7E4FDAA
:1052A0005E480168A14203D10168C968016009E054
:1052B000006800E0C068002804D0C168A142F9D1AC
:1052C000E168C1600020E0600120DFF898170870F5
:1052D0000A20207552480168E160046001F049F835
:1052E00013E0A07E50F00200A076082020750CE0AC
:1052F0002878C00609D599480068E16C884204D135
:10530000A06E002801D10620207574E0200000F076
:1053100093F847480078800626D5A07E50F002001A
:10532000A0762000FEF7A0FD3C480168A14203D111
:105330000168C968016009E0006800E0C0680028F1
:1053400004D0C168A142F9D1E168C1600020E060E9
:105350000120DFF8101708700A2020753048016816
:10536000E160046001F005F845E0200000F064F819
:105370002878C0062AD579480068E16C884225D192
:10538000A06E002822D12000FEF76EFD23480168A0
:10539000A14203D10168C968016009E0006800E02A
:1053A000C068002804D0C168A142F9D1E168C16099
:1053B0000020E0600120DFF8AC1608700A2020759C
:1053C00017480168E160046000F0D3FF13E020009B
:1053D00000F032F82878C0060CD560480068E16C0F
:1053E000884207D1A06E002804D11148017851F0FD
:1053F00010010170FFE700203EBD0000247C00206A
:105400004C7B0020747C0020287C0020767C0020CF
:105410002C7C0020967C00207C7C00201C7C0020C2
:10542000207C0020187C0020747B0020347C00202D
:10543000977C0020387C0020F8B505000024DFF8B8
:1054400048050078C00640F1AB81B5F85C00696D95
:105450000918DFF818262B6D10681B1A002B16D4BC
:10546000286D1368984205D16B6D3C4800681B1A83
:10547000002B0CD4686D394B1B68984232D1B5F8BB
:105480005C00DFF8EC351B68DB8998422AD2DFF834
:10549000E0050068C089A5F85C00B5F85E00B5F8C5
:1054A0005C30984203D2B5F85C00A5F85E00106845
:1054B00028652A4800686865B5F85C0000280AD1AC
:1054C00095F8910000280DD1002085F8900001206A
:1054D00085F8910006E095F89100002802D00020A0
:1054E00085F891001D4E3268686C121A012A45DA5F
:1054F000DFF880050088002839D1686DB5F85C2098
:105500008018884233D1B5F9300000282FD4686C58
:10551000316888422BD1012495F8430095F8431057
:10552000491CC9B2884204D295F84300401C85F852
:10553000430095F84300042812DBB5F84810B5F88D
:105540004820688E821892B2914210D2B5F8481065
:10555000688E4118A5F8481009E000BF307C002093
:1055600095F84300032802D1280000F018FE002C13
:1055700040F0BF80002085F84300BAE03168686CD5
:10558000091A491E002900F190803168E86C091A57
:10559000012980F28A80A87E400707D5A87E10F0F6
:1055A000FB00A876B5F84A00A5F84800002085F869
:1055B0004200B5F93C00C010B5F93E104018A5F8FE
:1055C0004000002085F843003068686495F91400B5
:1055D000042842DBB5F84800B5F84A1088420FD2DB
:1055E000B5F84810B5F84820688E821892B29142FA
:1055F00033D2B5F84810688E4118A5F848102CE051
:10560000B5F848106A8E688E4243B5F8480092FBA0
:10561000F0F04118B5F848000A0092B290421CD24E
:10562000A5F8481019E0EC6EE86E0068E86660685E
:10563000FDF76FF86068FDF76CF8B5F86210081AAE
:10564000A5F8620034490A88208982180A8020005F
:10565000FEF71AFBB5F862000028E86E002818D0A3
:10566000E86EC1684868FCF777FE0400E86EC06821
:105670008089FCF769FE10F0030F01D0012100E0E2
:105680000021E86E0089201809183068091A0129DC
:10569000C9DBE86E002803D15FF0FF30288601E007
:1056A000002028860020E87623E0280000F02FFB69
:1056B0001FE0AC6EA86E0068A866A86E002802D134
:1056C0000020A5F864006068FDF723F86068FDF726
:1056D00020F8B5F86210081AA5F862000E490A8889
:1056E000208982180A802000FEF7CEFAB5F8620001
:1056F0000028A86E00281FD0A86EC1684868FCF773
:105700002BFE0400A86EC0688089FCF71DFE10F017
:10571000030F03D0012102E07A7C002000213068D1
:10572000041BA86E0089241A641A002C04D4316862
:10573000E86C091A0129BCDBB5F86010DFF8380302
:1057400000884118A5F86010686B002828D0A96B64
:105750003068091A002923D5C3480168686B081A04
:1057600000B2B5F93C10B0EBE100A98F4118A98750
:10577000010009B2002901D500B2404200B2B5F9DA
:105780003E10B0EBA100E98F4018E887B5F93C0066
:10579000C010B5F93E104018A5F84000002068631D
:1057A000B44C2088002800F0DB8095F9140007280D
:1057B00080F2D680AD4E696A3068091A491E002908
:1057C00036D4696A3068091A2088091A491C0129E7
:1057D0002EDAAA4F78686A6A3168511A7A68528953
:1057E0008A4213DA7A6813895B1A05E04289891ABA
:1057F000038100224281006842898A42F6DB4942E5
:1058000009B2FCF742FF002806D005E0494209B280
:105810007868FCF73AFF002839896A6A3068121AFA
:10582000891A3981686A3060F8683168416008E037
:105830003168686A091A002903D5A87E50F0020071
:10584000A8763168686A091A002900F185803168F4
:10585000686A091A288D091A491C01297CDA686AC4
:105860003168884274D1854FF8688089FCF76CFDF7
:1058700010F0030F01D0012000E00020398940180A
:105880002080288D2188884231D2F8688089FCF7F1
:105890005BFDC0070FD5F8688089FCF755FD10F057
:1058A0003E00FCF751FDF9688A894CF2FF010A407D
:1058B0001043F9688881288D3881F8688089FCF761
:1058C00043FD800702D53889401E388139897868C0
:1058D000FCF742FEF8688089FCF736FD10F0030FF4
:1058E00001D0012000E00020398940182080306874
:1058F000218810FA81F06862298D2088091A29858B
:105900002800FDF76AFF78680089002804D07868CD
:105910005B49086000207860F8688089FCF714FD16
:10592000C00704D55748017851F020010170A87EC6
:10593000C00708D5A87E10F0FE00A876A87E50F01B
:105940000200A87603E0A87E50F00100A87619E0D6
:10595000280000F0DCF915E0280000F0D8F911E08B
:1059600042490A68686A121A002A07D40968686AF4
:10597000091A288D091A491C012903DBA87E50F059
:105980000200A876F1BD0000967C002010B43E49CC
:105990000868002805D03D483D4A13880488A34282
:1059A0000AD23348006810F1140139480288531CA8
:1059B000038092B2885C08E013880088181A138864
:1059C0005B1C13800968C0B2085C10BC7047F8B556
:1059D0000400304D288800283DD02D4E0020308016
:1059E000FFE730882988884235D2FFF7CFFFC0B261
:1059F00000280ED002280DD0F3D3FFF7C7FF010017
:105A0000C9B2022926DB3188C0B2801E411831801C
:105A1000E7E720E0FFF7BAFF042804D1288831889F
:105A2000891C884200DA16E0FFF7B0FF07003F024A
:105A3000FFF7ACFF0743380080B240F2B55188420F
:105A400003DA380080B2002802D140F2B457FFE7F1
:105A50006786C6E7FFE7F1BD0A48017851F01001FB
:105A600001707047937C0020107C00202C7C00206B
:105A7000247C00207C7C00207A7C0020747B002029
:105A8000347C0020977C0020287C0020767C00203D
:105A9000787C0020747C00202DE9F04105000F0087
:105AA000110098460022C919143189B20120FCF76F
:105AB00061FC0400002C26D06668E88AFCF744FCF0
:105AC0003080288BFCF740FC7080C6F80480686A40
:105AD000FCF742FCB060BFB2042097FBF0F0401D21
