:020000040800F2
:10000000B87F00206DD100086DCE00086FCE0008CB
:1000100071CE000873CE000875CE00080000000005
:1000200000000000000000000000000077CE000883
:1000300079CE0008000000007BCE00087DCE0008CD
:100040002DD2000831D2000835D2000839D200087C
:100050003DD2000889CE000841D2000845D20008F0
:1000600049D200084DD2000851D2000855D20008EC
:1000700059D200085DD2000861D2000865D200089C
:1000800069D200086DD2000871D2000875D200084C
:100090008BCE000879D200087DD2000881D20008FA
:1000A00085D2000889D200088DD2000891D20008BC
:1000B00095D2000899D200089DD20008A1D200086C
:1000C000A5D20008A9D20008ADD20008B1D200081C
:1000D000B5D20008B9D20008BDD20008C1D20008CC
:1000E000C5D20008C9D20008CDD20008D1D200087C
:1000F000D5D20008D9D20008DDD20008E1D200082C
:10010000E5D20008E9D20008EDD20008F1D20008DB
:10011000F5D20008F9D20008FDD2000801D300088A
:1001200005D3000809D300080DD3000811D3000837
:1001300015D3000819D300081DD3000821D30008E7
:1001400025D3000829D300082DD3000831D3000897
:1001500035D3000839D300083DD3000841D3000847
:1001600045D3000849D300084DD3000851D30008F7
:1001700055D3000859D300085DD3000800000000E3
:1001800061D3000865D3000800F5E0700268914271
:1001900003D343681A44914202D380680028F5D102
:1001A0007047DFF86C17086890B94FF480504860CA
:1001B0004FF480324FF0FF30C86008610420DFF850
:1001C00054378A604861C3F8BC01DFF84C07086007
:1001D0000120704701F1080313F0070F0EBF002341
:1001E000C3F1080303F007031944D21A8161C26006
:1001F00042F001034B60091D4FF0280C41F802C08A
:10020000DFF80C271369C36170472DE9FC4B0746E3
:1002100001F1080010F0070F0FBF8946C0F1080078
:1002200000F0070001EB000902F1080111F0070FCF
:1002300006D002F10800C0F1080000F007000244F7
:100240001546A5EB090009EB0306A0EB030B43F0F1
:100250000303C9F80430AE4228BF01F005FA28793B
:10026000C10758BF01F000FABBF1100F38BF01F011
:10027000FBF9B869854208D1F9688B44C7F80CB01E
:10028000BE614BF00100706051E1786985420AD18E
:10029000B9688B44C7F808B07E614BF0010070600C
:1002A00046F80BB043E1686800F00301012940F013
:1002B000AC80C008C0000190C0081F2839D8AC68C5
:1002C000D5F80C800090454508BF01F0CDF9A54256
:1002D00008BF01F0C9F968680099C008C000B0EB18
:1002E000C10F18BF01F0C0F9009907F1280000EB19
:1002F000C100844206D039698C42C0F08180E26836
:10030000AA427DD1A04506D10098396801238340D7
:100310009943396076E0804506D0396988456FD3C6
:10032000D8F80800A8426BD1C4F80C80C8F808407F
:1003300068E0EC68D5F81880AC420CD0A868396940
:10034000884223D3C268AA4204BFA168A9421DD132
:10035000C460A0601CE005F114010C6834B905F11B
:1003600010010C68A4B101E011460C6804F11402FC
:100370001068002802BF04F1100210680028F3D1B1
:100380003869814202D300220A6001E001F06CF971
:10039000B8F1000F36D0E96907F5987000EB8100DD
:1003A0000268954208D10460A4B9E869796801221D
:1003B00082409143796025E03869804508D3D8F8B8
:1003C0001010A94214BFC8F81440C8F8104001E04A
:1003D00001F04AF9B4B139698C4211D3C4F81880DC
:1003E000286928B1884226BF2061846101F03CF968
:1003F000686938B13969884202D36061846101E07B
:1004000001F032F901996D188B4469684908490077
:1004100069604BF0010070604FEADB0446F80BB0F6
:100420001F2C23D807F1280000EBC4084546BBF178
:10043000100F38BF01F018F9386820FA04F1CA0724
:1004400005D4012101FA04F404433C6007E0D8F824
:100450000800396988422CBF054601F005F9C8F843
:100460000860EE60B560C6F80C8060E05FEA1B20B3
:1004700008BF002123D0B0F5803F28BF1F211ED226
:10048000A0F58072120C02F008029040A0F5805195
:10049000090C01F004018840A0F580431B0CC2F157
:1004A0000E0203F00203521AD21A984002EBD03225
:1004B000D01D2BFA00F101F0010101EB4201F161C5
:1004C000002307F59872736102EB810033617A684B
:1004D00022FA01F3DC0707D4012303FA01F11143E7
:1004E00079600660B0611DE002681F291DBF4908E0
:1004F000C1F119010BFA01F1594600E002465068BA
:10050000C008C000584516D002F11003C80F03EB15
:100510008003490018680028F0D13869834204D369
:100520001E60B261F660B66001E001F09DF809F16D
:100530000800BDE8F68B396990688A4228BF884276
:10054000F3D3C6609660B060F2600020B061EEE761
:100550002DE9FE4F04468B46A5692E4690469946E6
:100560003146FFF711FE0268416802EB010AAAF169
:10057000270111F007000EBF0021C1F1080101F0B1
:1005800007010AEB0100A0F12F0706F110018F42CD
:1005900038BF374607F11802002101920091A8F1F7
:1005A000280259462046FFF715FE07F1080010F013
:1005B000070F18BF01F058F81B20786007F10801F9
:1005C00004F5E07090E80C5081E80C50C0F800B0E1
:1005D000C0F80480C0F80C9081600722019800994F
:1005E00000E0001D491C00F1080353454260F8D3A8
:1005F0000129D8BF01F038F8B74200F09580BF1B41
:10060000301D321DC15949084900D15147F0010040
:1006100070604FEAD70BF751BBF11F0F21D804EBE5
:10062000CB0000F12805A846102F38BF01F01CF8B8
:10063000206820FA0BF1CA0705D4012101FA0BF159
:100640000843206006E0A868216988422CBF8046E4
:1006500001F00AF8AE60C8F80C60C6F80880F560D2
:100660006FE0380A08BF002123D0B0F5803F28BFD3
:100670001F211ED2A0F58072120C02F008029040D9
:10068000A0F58051090C01F004018840A0F58043D9
:100690001B0CC2F10E0203F00203521AD21A984048
:1006A00002EBD032D01D27FA00F101F0010101EB7D
:1006B000420104EB8102002302F59870F16173613D
:1006C0003361626822FA01F3DB0707D4012303FADE
:1006D00001F1114361600660B0611DE002681F29ED
:1006E0001DBF4908C1F1190107FA01F1394600E0BF
:1006F00002465068C008C000B84216D002F110038C
:10070000C80F03EB8003490018680028F0D1206966
:10071000834204D31E60B261F660B56011E003B09D
:10072000BDE8F04F00F0A0BF0BE0216990688A425D
:1007300028BF8842F3D3C6609560B060F2600020A5
:10074000B06103B0BDE8F08F2DE9F041704F054670
:100750003868884608B9FFF724FDB96801EB08003E
:100760002F30491E20EA010188457DD205F5D87653
:10077000B06828B1326889188A4275D2884273D32A
:1007800000F0B2FF01001CBF0C6811F1010F6BD02B
:100790003068201805F5D87230605368984238BF29
:1007A00018467060A86960BB286908B1814200D210
:1007B0002961316174610020F0614FF0FF303A68C7
:1007C0006A62286205F128020020D260926002F17C
:1007D000080757611761801C10322028F5D34D4857
:1007E000854208BFA4F1280228D055F8040CC0089F
:1007F00005EBC002A2F108000A19121A283A0146B4
:100800001CE005F5E070024600E092687AB31368D8
:1008100057681F44B942F8D1137B1F0727D4AB692F
:100820001768BB4223D3D2F804C06744BB421ED230
:10083000A444C2F804C0E868A96922182846FFF752
:10084000C9FC1FE08068C0B103689342FAD1027B03
:10085000130712D4026801604368E41844604346F9
:100860002846BDE8F041D0E40020BDE8F0812A69C7
:10087000914238BF29610A19E5E70023224628463C
:10088000FFF766FEE8688045EED2A0EB0800A96994
:10089000E86001EB0802AA6140F00100506048F0F6
:1008A0000300486001F10800BDE8F08130B4184B46
:1008B0001A6882B94FF480525A604FF480344FF076
:1008C000FF32DA601A610422124D9C605A61C5F849
:1008D000BC21114A1A6011F1400F17D28269AAB1E6
:1008E000C368283199420BD200F5E0710C68A2422E
:1008F00003D34D682C44A24202D389680029F5D164
:10090000C16999423CBF4FF0FF32C26100F0A8BEFE
:10091000987A0020E46E00206859883C2DE9F84F51
:1009200000258946090AC9F1000B08BF002323D01E
:10093000B1F5803F28BF1F231ED2A1F58072120C93
:1009400002F008029140A1F580531B0C03F0040350
:100950009940A1F58044240CC2F10E0204F0020477
:10096000D21A121BA14002EBD132D11D29FA01F398
:1009700003F0010303EB4203074607F5987858F8A4
:10098000230030B31F2B0FBF4C465C08C4F1190481
:1009900009FA04F4AC46594600E064004268D20803
:1009A000D200A2EB09028A4203D21100054600F0F0
:1009B0006981426910304FEAD47B50F82B00002A3D
:1009C0001CBF824294460028E7D18B466046B0BBEC
:1009D000BDBB012202FA03F35B005842796803436E
:1009E0000B4000F04E81584203405B1E180B00F094
:1009F0001000C340590901F00801CB409A0802F0E9
:100A00000402D3405C0804F002040818E340101804
:100A1000C3F3400620183044F3401B1858F8230055
:100A20000DE008464168C908C900A1EB0901594514
:100A30003CBF8B46054601690029F2D14069002878
:100A4000F0D1002D00F01D81B868A0EB09008345AE
:100A500080F0178139698D42C0F011816868C00843
:100A6000C00009EB0B01884218BF00F0FDFD05EB4B
:100A70000906B54280F00381EC68D5F818A0AC42B5
:100A80000CD0A8683969884223D3C268AA4204BF3F
:100A9000A168A9421DD1C460A0601CE005F1140149
:100AA0000C6834B905F110010C68A4B101E01146DD
:100AB0000C6804F114021068002802BF04F110024F
:100AC00010680028F3D13869814202D300220A60FD
:100AD00001E000F0C9FDBAF1000F36D0E86908EB7B
:100AE000800001688D4209D10460200014D1E869BA
:100AF0007968012282409143796026E03869824515
:100B000008D3DAF81010A94214BFCAF81440CAF882
:100B1000104001E000F0A8FDBCB13869844212D356
:100B2000C4F818A0286930B13969884226BF20610D
:100B3000846100F099FD686938B13969884202D34F
:100B40006061846101E000F08FFDBBF1100F0CD2F9
:100B5000D94449F00300291D6860281D51F8092077
:100B600042F0010240F8092088E049F00300686083
:100B70004BF0010070604FEADB0046F80BB01F2815
:100B80001DD807EBC00101F12804396821FA00F2F1
:100B9000D307A34605D4012202FA00F008433860C7
:100BA00006E0A068396988422CBF834600F05CFDEE
:100BB000A660CBF80C60C6F808B0F4605EE05FEAAF
:100BC0001B2008BF002123D0B0F5803F28BF1F2184
:100BD0001ED2A0F58072120C02F008029040A0F51F
:100BE0008051090C01F004018840A0F580431B0CE2
:100BF000C2F10E0203F00203521AD21A984002EB1D
:100C0000D032D01D2BFA00F101F0010101EB4201BD
:100C1000F16100227261326108EB81007A6822FA88
:100C200001F4E30707D4012404FA01F111437960C8
:100C30000660B0611DE002681F291DBF4908C1F1AF
:100C400019010BFA01F1594600E002465068C0084C
:100C5000C000584518D002F11003C80F03EB800301
:100C6000490018680028F0D13869834204D31E6017
:100C7000B261F660B66001E000F0F6FC14E100F04D
:100C8000F3FC0EE18B46A2E6396990688A4228BFE0
:100C90008842F1D3C6609660B060F2600020B06117
:100CA000ECE72DE9F84F0646884671684842014056
:100CB000491E080B00F01000C1404A0902F008026A
:100CC000D1408B0803F00403D9404D0805F002051C
:100CD0001018E9401818C1F34004281806F5987A4E
:100CE0002044E14009185AF821104868C008C000A3
:100CF0000D46A0EB080909E001464868C008C0009D
:100D0000A0EB080048453CBF81460D460869002815
:100D1000F2D149690029F0D130698542C0F0BF8025
:100D20006968C90808EB090BC900594518BF00F0EC
:100D30009BFC05EB08008542009080F0B080EF68D6
:100D4000AC69AF420CD0A8683169884223D3C2682D
:100D5000AA4204BFB968A9421DD1C760B8601CE0AF
:100D600005F114010F6837B905F110010F68A7B13B
:100D700001E011460F6807F114021068002802BF55
:100D800007F1100210680028F3D13069814202D3C4
:100D900000220A6001E000F067FC002C31D0E86915
:100DA0000AEB800001688D4208D107608FB9E869BD
:100DB0007168012282409143716022E0306984426F
:100DC00005D32169A94214BF6761276101E000F0E2
:100DD0004BFCB7B13069874211D3BC61286930B18F
:100DE0003169884226BF3861876100F03DFC68693F
:100DF00038B13169884202D37861876101E000F03F
:100E000033FCB9F1100F0BD24BF00300291D6860C1
:100E1000281D51F80B2042F0010240F80B203DE064
:100E200048F003012A1D696049F0010042F80800FA
:100E3000009941F80990D6F808804FEAD80BBBF129
:100E4000200F28BF00F010FCB8F1000F22D006EBF5
:100E5000CB00776900F12804A246B8F1100F38BF23
:100E600000F002FC306820FA0BF1CA0705D401211A
:100E700001FA0BF10843306006E0A068316988424E
:100E80002CBF824600F0F0FBA760CAF80C70C7F8D0
:100E900008A0FC60C6F808900098706104E000F0BB
:100EA000E3FB0020BDE8F28F05F10800BDE8F28FFA
:100EB0002DE9FE4F0546AFF30080F52DDFF89C6766
:100EC00080F004810B2D31BF10250B35ED08ED00AE
:100ED0003068EC08E04010F0030F46D0C04300F04B
:100EE0000100041906F1280000EBC408E700D8F857
:100EF00008506868C008C000B84218BF00F0B4FBD2
:100F0000D5F80890454508BF00F0AEFB4D4508BF39
:100F100000F0AAFB6868C008C000B84218BF00F023
:100F2000A3FBC84507D13068012101FA04F420EA87
:100F3000040434600DE03069814508D3D9F80C1001
:100F4000A94204D1C8F80890C9F80C8001E000F06B
:100F50008BFB47F00300291D6860281DCA5942F029
:100F60000102C25105F10804F8E0B168A94280F01D
:100F7000BE80002800F0A1804FF0010808FA04F1BB
:100F8000490000FA04F4484201430C406042044026
:100F9000641E200B00F01000C440610901F008013C
:100FA000CC40A20802F00402D440630803F002031C
:100FB0000818DC401018C4F3400718183818FC4013
:100FC000241806F1280000EBC40AE700DAF80890BC
:100FD000D9F80400C008C000B84218BF00F044FBB4
:100FE000D9F808B0D14508BF00F03EFBD94508BF8D
:100FF00000F03AFBD9F80400C008C000B84218BF9E
:1010000000F032FBDA4506D1306808FA04F420EA31
:10101000040434600DE031698B4508D3DBF80C0023
:10102000484504D1CAF808B0CBF80CA001E000F0A4
:101030001BFB7F1B45F0030009F10402C9F8040003
:1010400047F00101515109EB05020192D751B468F3
:101050004FEAD40ABAF1200F28BF00F005FB34B3E1
:10106000CDF800A006F12800756900EBCA0AD34646
:10107000102C38BF00F0F8FA3168009821FA00F21D
:10108000D30704D408FA00F00843306007E0DAF828
:101090000800316988422CBF834600F0E5FACAF89F
:1010A0000850CBF80C50C5F808B0C5F80CA0B760D4
:1010B00009F108040198706150E07068C0B32946D6
:1010C0003046FFF7EEFD040011D047E015F1400F68
:1010D00028BF4FF0FF350AD20B35ED087068ED00E0
:1010E00028B129463046FFF719FC040036D1B06814
:1010F000A8421DD3411B726910290AD3501970618F
:10110000B16041F001034360415045F00305556073
:101110000BE00021B1607161131D40F003015160CB
:10112000111D1C5844F001040C5002F1080415E094
:10113000F06885420DD2401BB169F0604A19B26176
:1011400040F00100506045F003054D6001F10804D6
:1011500004E029463046FFF7F7FA0446AFF3008073
:101160002046FFF7EEBA002800D170472DE9F0477E
:10117000A0F10805AFF30080DFF8E06431698D422B
:10118000C0F05982686800F00302012A00F053821F
:10119000C2084FEAC209C20705EB090839D42C6816
:1011A00010F0030F00F04982604205448D42A144D3
:1011B000C0F041827069854200F0C680E408202CAE
:1011C0005ED2D5F80CA0AF68554508BF00F04CFAC8
:1011D000BD4208BF00F048FA6868C008C000B0EB24
:1011E000C40F18BF00F040FA06F1280000EBC4005D
:1011F000874205D031698F423FD3FA68AA423CD179
:10120000BA452CD13068012101FA04F420EA040423
:101210003460454580F00F82D8F80440E00740F183
:101220000A82A10700F16881B069804540F09F8083
:10123000F168B5618944C6F80C9049F00100686016
:1012400071698D4202D100207061B060F06948453B
:1012500080F0F38100213046FFF728FBEDE1824565
:1012600006D03069824508D3DAF80810A94204D1C3
:10127000C7F80CA0CAF80870CBE700F0F5F9C8E78A
:10128000EC68AF69AC420BD0A868884222D3C16831
:10129000A94204BFA268AA421CD1C460A0601BE09E
:1012A00005F11402146834B905F1100214689CB1F8
:1012B00001E01A46146804F114031868002802BFFC
:1012C00004F1100318680028F3D18A4202D30021E8
:1012D000116001E000F0C8F9002F9AD0E96906F525
:1012E000987000EB81000268954209D104602000EB
:1012F00011D1E8697168012282409143716088E7E9
:101300003069874205D33969A94214BF7C613C61C9
:1013100001E000F0A9F9002C3FF47BAF31698C4269
:10132000ABD3A761286928B1884226BF20618461B8
:1013300000F09AF9686900283FF46BAF3169884280
:101340009BD36061846164E798F8040000F00300B7
:1013500003287FF45EAFC6F8089049F00101D8F881
:10136000040040084000C8F8040069600AE07069A1
:1013700080450AD1B16875618944C6F8089049F082
:101380000100686045F8099057E1E408E400A144D1
:10139000E408202C3AD2D8F80CA0D8F80870D04530
:1013A00008BF00F061F9B84508BF00F05DF9D8F852
:1013B0000400C008C000B0EBC40F18BF00F054F91F
:1013C00006F1280000EBC400874207D031698F4244
:1013D000C0F08580FA68424540F08180BA4507D167
:1013E0003068012101FA04F420EA0404346078E052
:1013F000824506D03069824571D3DAF8081041453C
:101400006DD1C7F80CA0CAF808706AE0D8F80C4093
:10141000D8F8187044450DD0D8F8080031698842D2
:1014200023D3C268424504BFA16841451DD1C460B1
:10143000A0601CE008F114010C6834B908F1100137
:101440000C68A4B101E011460C6804F114021068A4
:10145000002802BF04F1100210680028F3D130699F
:10146000814202D300220A6001E000F0FDF8002F63
:1014700037D0D8F81C1006F5987000EB8100026890
:1014800090450AD10460200012D1D8F81C00716880
:10149000012282409143716023E03069874205D385
:1014A0003969414514BF7C613C6101E000F0DCF822
:1014B000BCB131698C4212D3A761D8F8100028B1B1
:1014C000884226BF2061846100F0CEF8D8F814006D
:1014D00038B13169884202D36061846101E000F073
:1014E000C3F849F00100686045F8099071698D42C0
:1014F0000BD1C6F80890A0E064086400C8F8044066
:1015000049F00100686045F809904FEAD907202F9B
:1015100022D206F1280000EBC704A046B9F1100F53
:1015200038BF00F0A1F8306820FA07F1CA0705D4E7
:10153000012101FA07F70743376006E0A068316927
:1015400088422CBF804600F08FF8A560C8F80C5088
:10155000C5F80880EC6070E05FEA192008BF002140
:1015600023D0B0F5803F28BF1F211ED2A0F5807286
:10157000120C02F008029040A0F58051090C01F015
:1015800004018840A0F580431B0CC2F10E0203F059
:101590000203521AD21A984002EBD032D01D29FA17
:1015A00000F101F0010101EB420106F59872002300
:1015B00002EB8100E9616B612B61726822FA01F331
:1015C000DC0707D4012303FA01F1114371600560C0
:1015D000A8611DE002681F291DBF4908C1F119015A
:1015E00009FA01F1494600E002465068C008C0000F
:1015F000484526D002F11003C80F03EB80034900D1
:1016000018680028F0D13069834204D31D60AA61B4
:10161000ED60AD6001E000F027F8306A401E3062F6
:101620000BD1D6F8C80100E080680028FCD14FF04B
:10163000FF30306201E000F017F8AFF30080BDE842
:10164000F087316990688A4228BF8842E3D3C56039
:101650009560A860EA600020A861DEE7E46E0020E3
:1016600030BC002070470000012000F053B8F0B4F7
:101670000246106895681318506803EB5004C007C1
:101680001DD54D441BE013F8017B05F8017B491E75
:10169000F9D1A0B1B60813F8011B06F00306032E1A
:1016A00008BF13F8016B01EB06214942801C294455
:1016B00005D011F8016B05F8016B401EF9D1A3426A
:1016C0000ED013F8016B16F0030104BF13F8011BD1
:1016D000C91C30090F28DAD113F8010B0F30D6E7F7
:1016E000F0BC02F10C0070470749086808B10020FF
:1016F00070470648C008C00008600549C908C9000D
:10170000091A0160704700BF987B0020BF7F00204E
:10171000B881002080B5AFF30080024A1100182084
:10172000ABBEFBE72600020070B5DFF8384A207830
:10173000002822D1DFF8305A01F00DFB286028681C
:10174000002802D15FF0FF301BE02868007A50F0DB
:10175000200029680872DFF8146A442231002868E2
:1017600001F061FA43223100286801F0A3FA002257
:10177000DFF8FC19286801F0D0FA2078401C2070AE
:10178000002070BD10B5DFF8DC090178491E01703A
:101790000078002806D1DFF8D049206801F0C0FAAF
:1017A0000020206010BD10B50400606A0C2100F01C
:1017B000FBFCDFF8B8190B000A00200001F03EFB2B
:1017C000200000F060FA10BD38B50400656A0821F9
:1017D000280000F0E9FC002215F12801200001F0AA
:1017E00033FFA87AFF2802D0A87A401CA8724FF4D1
:1017F000FA7080B200F2F3104FF4FA7190FBF1F03E
:10180000E88231BD38B50400656ADFF8980A80784F
:1018100000280BD0DFF85C09806802F04DF86862A0
:1018200069680869A862200000F001F831BDFEB5C2
:101830000600746A0121200000F0B6FC032221009A
:10184000300000F040FF0500280040B200284DD1D4
:1018500002223921200000F0B2FC718D200000F03E
:10186000CAFC04223221200000F0A9FCA06A02F088
:1018700023F80100200000F0D4FC042236212000CF
:1018800000F09DFC606A02F017F80100200000F0F3
:10189000C8FC04223721200000F091FC002708E05A
:1018A000DFF8D4083900C9B2415C200000F09AFC8E
:1018B0007F1C3800C0B20428F2D3200000F0DBFF08
:1018C000A18AF03189B2E06802F0F6F8DFF89C08EE
:1018D000019000964323DFF8A428E168DFF8880828
:1018E000006801F037F9200000F0B6FFA07AFF2869
:1018F00002D0A07A401CA072A07A062805DA012145
:1019000094F90A0011FA00F000E03C204FF47A71DB
:1019100010FB01F080B200F2F3104FF4FA7190FB6B
:10192000F1F0E082280040B2FEBD10B5DFF85008AB
:10193000046819E0888B002815D0888B421E8A83A2
:1019400080B201280FD1200000F07EF80BE0C88B98
:101950000028EFD0C88B421ECA8380B20128E9D18B
:10196000200000F08EF82468002C16D0616A00294F
:10197000F9D0487A0028F6D0488C0028E7D0088CA7
:10198000401C0884088C4A8C9042E0D1200000F072
:101990008DFB200000F077F9E5E710BD10B5DFF80A
:1019A000E007046813E0C18A01290FD1C18A491EEA
:1019B000C182200000F00EF808E0606A002805D01F
:1019C000C18A0229EFDBC18A491EC1822468002C2A
:1019D000F3D110BD10B50400606A417A0C2902D021
:1019E000417A062903D1200000F04DF92BE0417A1D
:1019F00001290DD1807A062803DA2000FFF717FFAE
:101A000021E0200000F052FB200000F03CF91AE039
:101A1000417A08290AD1807A022803DA2000FFF7E8
:101A2000D3FE10E0200000F097F90CE0417A032982
:101A300009D1807A022803DA200000F0CDFA02E012
:101A4000200000F020F910BD10B5446A617A012928
:101A500005D0617A0A2902D0617A052910D100F0F7
:101A600000FA618B208C091A022091FBF0F001280A
:101A700006DB618B208C091A022091FBF0F0A08319
:101A800010BD10B5446A617A012908D0617A0A292B
:101A900005D0617A052902D0617A042910D100F0BD
:101AA0003EFA618C208C091A022091FBF0F001288B
:101AB00006DB618C208C091A022091FBF0F0E08398
:101AC00010BD38B5446A0020E06200202063DFF8D2
:101AD000D457E878002803D0DFF89806C068606320
:101AE0002879002804D0DFF88C060069A06302E0A2
:101AF000606B4008A0636879002804D0DFF87406A2
:101B00004069E06304E0616B07204143C908E16379
:101B100061680869A062A879002808D0DFF8540637
:101B2000806901F0C9FEE0620120E07201E000205E
:101B3000E072E879002805D0DFF83806C06901F0C6
:101B4000BBFE206331BD70B50500002D02D17FF0D2
:101B50000F003DE095F83300C00702D47FF00F007E
:101B600036E06C6A688DB0F5107F02DA5FF0FF3006
:101B70002EE0002C0AD1402002F090FA0400002C44
:101B800002D15FF0FF3023E06C6204E0207A00288D
:101B900001D0FFF7F7FD402100222600300002F0BF
:101BA000F9FAFFF7C1FD002802D05FF0FF300FE027
:101BB00001202072280000F066F8010049B20029D7
:101BC00005D0280000F0DEFA5FF0FF3000E040B200
:101BD00070BD80B500280BD0426A002A08D0537A25
:101BE000082B05D10968926A914201D100F001F8F1
:101BF00001BD7CB50600746A00200C21200000F0B5
:101C0000D3FA04222100300000F05DFD0500280019
:101C100040B2002824D104223221200000F0CFFA63
:101C2000A06A01F049FE0100200000F0FAFA20004D
:101C300000F021FEA18AF03189B2E06801F03CFF9A
:101C4000DFF82805019000964323DFF83025E1688E
:101C5000DFF81405006800F07DFF200000F0FCFDB7
:101C6000A07AFF2802D0A07A401CA07242F2107025
:101C700080B200F2F3104FF4FA7190FBF1F0E082C1
:101C8000280040B276BDFEB505006C6A0020002039
:101C9000A0620621200000F087FA0122210028001E
:101CA00000F011FD0600300040B2002835D10222BC
:101CB0003921200000F083FA698D200000F09BFAA2
:101CC00004223721200000F07AFA002708E0DFF82C
:101CD000A8043900C9B2415C200000F083FA7F1CDF
:101CE0003800C0B20428F2D3200000F0C4FDA18A5D
:101CF000F03189B2E06801F0DFFEDFF87004019096
:101D000000954323DFF87424E168DFF85C04006881
:101D100000F020FF200000F09FFDA07AFF2802D0F5
:101D2000A07A401CA072A07A062805DA012194F955
:101D30000A0011FA00F000E03C204FF47A7110FB29
:101D400001F080B200F2F3104FF4FA7190FBF1F061
:101D5000E082300040B2FEBD3EB50400002C00F031
:101D60007F80656A002D7BD000202884686B10F18D
:101D7000010F0FD0686B1E303C21B0FBF1F0B0F5C5
:101D8000803F01D34FF6FF706884688C002801D132
:101D900001206884A86B10F1010F11D0A86B1E30D0
:101DA0003C21B0FBF1F0B0F5803F01D34FF6FF705E
:101DB0002883288B002801D101202883288BA88321
:101DC000E86B10F1010F11D0E86B1E303C21B0FB25
:101DD000F1F0B0F5803F01D34FF6FF706883688B58
:101DE000002801D101206883688BE883288B698BE8
:101DF000884204D3688B002801D000202883E87A29
:101E0000002802D0E86A019012E095F8280001004D
:101E1000C9B2802902DAFF20019009E0C0B2C028CF
:101E200003DB7FF07F40019002E04FF6FF700190EE
:101E3000286B00900098002807D1A96A01980140FA
:101E40000091009850F0807000900A21280000F066
:101E5000ABF96B4601AA15F12801200000F0EEFF56
:101E600037BDF8B50600746A0521200000F09CF922
:101E700003222100300000F026FC0500280040B2BB
:101E8000002830D102223921200000F098F9718D0C
:101E9000200000F0B0F904223721200000F08FF973
:101EA000002707E0B4483900C9B2415C200000F0C7
:101EB00099F97F1C3800C0B20428F3D3200000F049
:101EC000DAFCA18AF03189B2E06801F0F5FD0096F4
:101ED000432314F12402E168A348006800F017FED0
:101EE000200000F0B9FCA07AFF2802D0A07A401CA4
:101EF000A072A07A0A2805DAA07A4FF4FA6110FBE2
:101F000001F001E044F6206080B200F2F3104FF4DB
:101F1000FA7190FBF1F0E082280040B2F2BDF8B512
:101F20000600746A0421200000F03EF9032221001B
:101F3000300000F0C8FB0500280040B200282FD177
:101F400002223921200000F03AF9718D200000F0C2
:101F500052F904223721200000F031F9002707E070
:101F600085483900C9B2415C200000F03BF97F1C74
:101F70003800C0B20428F3D3200000F07CFCA18A12
:101F8000F03189B2E06801F097FD009643237B4A67
:101F9000E1687548006800F0BAFD200000F05CFCC4
:101FA000A07AFF2802D0A07A401CA072A07A0A284A
:101FB00005DAA07A4FF47A7110FB01F001E042F2E9
:101FC000107080B200F2F3104FF4FA7190FBF1F050
:101FD000E082280040B2F2BDF8B50600746A032121
:101FE000200000F0E1F803222100300000F06BFB3C
:101FF0000500280040B200283CD1022239212000EF
:1020000000F0DDF84FF41071200000F0F4F8042225
:102010003221200000F0D3F8A06A01F04DFC01004D
:10202000200000F0FEF804223721200000F0C7F85D
:10203000002707E050483900C9B2415C200000F099
:10204000D1F87F1C3800C0B20428F3D3200000F080
:1020500012FCA18AF03189B2E06801F02DFD0096F2
:102060004323464AE1684048006800F050FD2000E4
:1020700000F0F2FBA07AFF2802D0A07A401CA072E8
:10208000A07A0A2805DAA07A4FF47A7110FB01F0E1
:1020900001E042F2107080B200F2F3104FF4FA71D6
:1020A00090FBF1F0E082280040B2F2BD7CB5050063
:1020B0006C6A002C02D17FF00F0051E0606A019041
:1020C000280000F0F8FB06000021200000F06CF86A
:1020D000002060620020A0620020E06200202063F7
:1020E0000020E063A0636063002060842084E083BC
:1020F000A083F6B2002E01D1002031E0072221009A
:10210000280000F0E0FA0600300040B200281FD19D
:1021100004223621200000F052F8019801F0CCFB97
:102120000100200000F07DF8200000F0A4FBA18A4F
:10213000F03189B2E06801F0BFFC0095432301AAA9
:10214000E1680948006800F0E2FC200000F084FB30
:10215000064A13001100280000F070FE300040B263
:1021600076BD0000AC7B0020087B002024D2000854
:10217000AB250008187A00200000002028D20008B3
:10218000447B002010B500280DD0446A002C0AD0F2
:102190000021200000F008F8207A002803D0FFF783
:1021A000F1FA0020207210BD0A00437AD2B29A429E
:1021B00004D04172002181720021C182704710B4A5
:1021C000838A5C1C848204699BB2234483F8F010E8
:1021D000818A4B1C8382006989B2084480F8F02010
:1021E00010BC7047828A531C8382006992B21044EB
:1021F00080F8F010704710B4828A531C83820B0061
:102200009BB21B0A046992B2224482F8F030828A9F
:10221000531C8382006992B2104480F8F01010BC05
:10222000704710B4828A531C83820B001B0E046912
:1022300092B2224482F8F030828A531C83820B00CF
:102240001B0C046992B2224482F8F030828A531C3B
:1022500083820B001B0A046992B2224482F8F03098
:10226000828A531C8382006992B2104480F8F01075
:1022700010BC70472DE9F24F84B00400002002909A
:10228000002001900A2100200390064D039A2800A7
:1022900001F080FF049840892C2805D27FF00100CE
:1022A00080E100BFD07A00200498406860605FF051
:1022B000F0090498058904E0002002905FF06C09A1
:1022C000EC25049C05E06089B9EB000960892D1AB2
:1022D0002468002C04D04846618980B28842F2D23A
:1022E000002C02D17FF001005CE16068039002E005
:1022F000246860680390002C00F02E810398494602
:1023000089B2405CFF2800F027814846290080B24E
:1023100089B2884280F020810398494689B2415CA5
:1023200000205FF0FF3719F10206484680B2401CDA
:102330006289904205DA03984A4692B21044427884
:1023400007E02068002803D020684068027800E099
:1023500000229046C9B2002912D0012915D00329C4
:102360001CD0062927D0332944D034294BD0352915
:1023700052D0362959D03A2960D03B2967D06FE036
:1023800000229046B9F101096CE01000C0B20428A7
:1023900002D07FF0050005E1062763E05FF0040846
:1023A00010004146C0B2C9B2884202D27FF0050097
:1023B000F8E0072756E01000C0B2042190FBF1F3CB
:1023C00001FB1300002802D07FF00500EAE01000B6
:1023D000C0B2082801DA904601E05FF0080810005A
:1023E0004146C0B2C9B2884202D27FF00500D9E0AE
:1023F000082737E01000C0B2042802D07FF00500A3
:10240000D0E003272EE01000C0B2012802D07FF0F8
:102410000500C7E0002725E01000C0B2012802D067
:102420007FF00500BEE001271CE01000C0B20428C8
:1024300002D07FF00500B5E0022713E01000C0B223
:10244000042802D07FF00500ACE004270AE0100069
:10245000C0B2042802D07FF00500A3E0052701E008
:102460005FF00008D2B2921C12EB09094046C0B2DC
:1024700000285BD0002000901AE04046C0B205283A
:1024800038DB4046C0B2042190FBF1F201FB1200A0
:1024900000282CD101200AF80700009801F00CFA5E
:1024A000DFF8A01341F82700B8F10408361D7F1C9F
:1024B000DFF894A31AF80700002837D14046C0B2CD
:1024C000042803DAC3465FFA8BFB01E05FF0040BDC
:1024D00033009BB25A4692B26946200001F05DFC7F
:1024E0001FFA8BFB5845C8D07FF001005AE07FF0FF
:1024F000050057E04046C0B2042804D1009801F01E
:10250000DBF900900AE05FFA88F8B8F1010F02D019
:102510007FF0050046E09DF80000009001200AF8D9
:1025200007000098DFF81C1341F82700484661892E
:1025300080B28842FFF4DFAE6089B9EB00096089A0
:102540002D1A4846290080B289B2884204D2280058
:1025500080B200287FF4CCAEBB490878002813D0A5
:10256000B848006800220A70012802D101200290B8
:102570000AE0022802D10120019005E0032803D1DE
:102580000120019001200290029800287FF494AE6F
:102590000198002805D0002001905FF02C096C25DF
:1025A0008FE6002005B0BDE8F08F70B51500A74894
:1025B0004668746A6968002C02D0207A002800D12D
:1025C00079E068892C2876DB0878022873D100200E
:1025D00000E0401C020096F82C30D2B29A4213D28E
:1025E0000200D2B2062A0FD20200D2B2102A0BD2B7
:1025F0000200D2B2324492F82D200300DBB20B4429
:102600001B7F9A42E5D056E0486801F055F92168F1
:10261000884250D129002000FFF72CFE00284AD123
:1026200089484078002846D0864840680100C9B2F1
:10263000052921D1607A01280ED13000FFF741FA37
:1026400096F83300000703D53000FFF7BDF832E0FD
:102650003000FFF781FB2EE0607A032805D0607A16
:10266000042802D0607A052825D13000FFF729FA26
:102670003000FFF771FB1EE00100C9B206290FD13F
:10268000617A032908D0617A012905D0617A042989
:1026900002D0617A052903D13000FFF784F80AE0FF
:1026A000C0B2022807D1607A062804D10020E08257
:1026B0003000FFF7A7F8002C01D000206060280050
:1026C00001F09FFA70BD70B505000C001600002DDA
:1026D00002D17FF00F00B4E0002C02D17FF00500A2
:1026E000AFE000224FF49A71002001F0F3F8E060AF
:1026F000E068002802D15FF0FF30A2E03000C0B2F5
:10270000032809D0A07A002803D101F07BFD5049AD
:1027100008604F4800682060E06840682061012040
:102720002169087001202169487095F82C00216901
:10273000887000202169C870206801F0BDF8216907
:10274000486000202169088100202169488100201B
:102750002169C8603100C9B2082911D03100C9B25D
:1027600004290DD03100C9B2072909D03100C9B2FE
:10277000032908D1617A052902D0617A042902D19E
:1027800021696A68CA602169086121694861216913
:102790008861002017E000210FE0010095F82C204F
:1027A00089B292B29142F6D2010089B20629F2D2E0
:1027B000010089B2294491F82D10226903009BB2CF
:1027C0001A441177401C010089B21029E5D300207A
:1027D00007E00021226903009BB21A4482F82C1002
:1027E000401C010089B24029F3D3002007E00021FA
:1027F000226903009BB21A4482F86C10401C01004D
:1028000089B28029F3D320691249C0F8EC10002066
:10281000A082002006E02169020092B2114481F8F2
:10282000F000401C010089B24429F4D30122352173
:102830002000FFF7C4FC3100C9B22000FFF7D2FC32
:10284000002070BD187A0020D07A0020807A002005
:102850000C7B00206382536310B50400002C09D068
:10286000E068002802D0E06801F0CBF90020E060C9
:102870000020206110BD00281CD0818A4A1C828261
:10288000FF22036989B2194481F8F02008E0818AA7
:102890004A1C82820022036989B2194481F8F0201F
:1028A000818A442903D3017D11F0030F02D0818A6C
:1028B0004429ECD3704700280ED0416A00290BD080
:1028C000406A417A0A2902D0407A052801D10120C4
:1028D00000E00020C0B200E000207047704710B454
:1028E0000021FFE7DFF8C4241088431C13804FF653
:1028F000FF7380B2984202D14FF440401080DFF85D
:10290000B004006800E0C06800280BD0438A148837
:10291000A342F8D1491C080080B2B0F5804FE1DB3A
:10292000002000E0108810BC7047D2B2002A14D0FA
:10293000002810D00268002A0DD0DFF878245369EF
:1029400013F1010F07D00368886803405269886853
:10295000024093420ED101200DE0002808D001680A
:10296000002905D00068DFF84C144969884201D17C
:10297000012000E0002070472DE9FE4F06008B4645
:1029800000207089082803DA300001F03AF994E059
:102990007468DFF820743968786901F085FC804636
:1029A000208800F081FF8146608800F07DFFADF84F
:1029B00000000020002500200190DFF8F4A3DAF8E1
:1029C000004001E02500E468002C28D0608ABDF8B2
:1029D00000108842F6D14246D2B259462000FFF795
:1029E000A4FF0028EED0207C400703D401980028E3
:1029F00000D10194A08A494689B28842E2D1606838
:102A0000002803D0606839698842DBD1002D06D0E8
:102A1000E068E860DAF80000E060CAF80040002CE6
:102A200000D1019C002C01D0012007E0DBF804005C
:102A30007969884201D1012000E00020C0B200285D
:102A400038D07FF00701300001F0CFF8002803D024
:102A5000300001F0D6F830E0002C12D0A069002838
:102A60000BD01FFA89F9CDF8009017F1100332004E
:102A70002100E069A469A0471FE0300001F0C1F81F
:102A80001BE05FFA88F8B8F1000F0FD1387D10F025
:102A9000F000E0280AD0B7F90C10083109B2300074
:102AA00001F0A9F80321300001F050FD300001F0E1
:102AB000A8F802E0300001F0A4F8BDE8F78F80B577
:102AC000002802D17FF0050003E0838A021D00F098
:102AD00001F802BDF8B505000E0014001F0020002B
:102AE000002D01D0002C02D17FF005000EE001F096
:102AF00075FD002802D17FF0030007E000903B0045
:102B00009BB222003100280000F001F8F2BD7CB534
:102B1000002801D0002A02D17FF0050019E0069DAF
:102B2000002807D00468002C04D0047814F0F004C6
:102B3000E02C01D12C1D07E004686E68B44202D07D
:102B40007FF0050005E00400019400959BB200F0C1
:102B500001F876BD2DE9FE4F05000E001F00002D87
:102B600002D01400002C02D17FF0050059E0688AE1
:102B700000280AD16A8A2900280000F054F80100D0
:102B800049B2002901D040B24BE0B046082140468E
:102B900001F02BF8002813D000220821012000F0BA
:102BA00099FE0600002E02D15FF0FF3039E0B8F840
:102BB0000800002805D04146300001F07DF800E013
:102BC0004646DDF83490DDF830A0D6F804B0688AC7
:102BD00000F06AFEABF80000380080B200F064FE3E
:102BE000ABF802000020ABF80600308900F05CFE74
:102BF000ABF804001120AB7ACDF808A0C0B2019068
:102C0000687A0090DBB222004946300001F04AFEAB
:102C10000400464503D0300000F0F3FF0020200000
:102C200040B2BDE8FE8FF8B505000C00002C00D1C5
:102C3000614C002D01D0002C02D17FF0050038E05E
:102C400000275B4E306800E0C068002802D0854253
:102C5000FAD10127100080B2002809D1FFF73FFE0A
:102C60000200100080B2002815D17FF0070020E09C
:102C7000306800E0C06800280DD08542FAD0418A53
:102C800013009BB29942F5D1016823689942F1D1B2
:102C90007FF007000DE0002C01D1002000E020684B
:102CA00028606A82FFB2002F02D13068E860356088
:102CB0000020F2BD70B505000C001600002D01D0FB
:102CC000002C02D17FF0050026E0688A00280AD196
:102CD0006A8A29002800FFF7A6FF010049B20029EF
:102CE00001D040B218E0002C01D1002000E02068A3
:102CF0006860AE82287C50F0040028742C49086873
:102D000000E0C068002803D08542FAD1002003E02B
:102D10000868E8600D60002070BD8161C261704785
:102D200080B50100224802688A4203D10268D26855
:102D300002600CE0026800E0D268002A07D0D06888
:102D40000028F9D0D0688842F6D1C868D060002049
:102D500001F050FE01BD38B5002001F037FE04003F
:102D6000002C07D0202100222500280001F012FAB3
:102D7000FF20A072200032BD10B4002813D00268DA
:102D8000002A10D000290ED00A68002A0BD0084A69
:102D9000126806E013680468A34201D10B6813604F
:102DA000D268002AF6D110BC70470000DC00002079
:102DB000887B0020807A002024D2000870472DE90B
:102DC000F84F04000D0016001F00DDF82880DDF824
:102DD0002C90DDF830A0002060600020A060002072
:102DE000E060002084F833000421002214F1240B59
:102DF000584601F0CFF9032084F828000020E06154
:102E0000C4F820803948017884F836100178491CCC
:102E10000170C4F810A03B0032002900200000F02F
:102E20000DF82000C847002801D0002004E03048F9
:102E30000168216004602000BDE8F28FF8B505004C
:102E40000C0016001F00002C02D0206800280CD1B6
:102E50002100280000F016F83100280000F03BF8AF
:102E60003900280000F030F80BE03100280000F0B5
:102E700032F83900280000F027F82100280000F07F
:102E800001F8F1BD38B505000C00002C02D0206817
:102E9000009002E018480068009000986968884235
:102EA00011D06946281D02F001FB6946281DFFF775
:102EB00063FF002C01D1002000E020686860012140
:102EC000280000F02EF831BD002901D1002100E0DA
:102ED0000968C1607047002901D1002100E009683C
:102EE000816070470349086070470000AE7B002096
:102EF000447B0020487B002024D2000880B590F855
:102F00003310C9070CD490F8331051F0010180F848
:102F1000331090F83310490702D5032100F001F86F
:102F200001BD80B5C90709D54168002906D090F8D0
:102F30003310090702D5011D00F0A9FC01BD80B5C1
:102F400090F83310C9070BD590F8331011F0FE013B
:102F500080F8331090F83310090701D500F0F0F92C
:102F600001BD002800D0C161704730B4002513E0D6
:102F700050F8042BD30744BFA9F101039A18091F85
:102F8000042942F8045BFAD213468C0744BF15802B
:102F90009B1CC90748BF1D7050F8041B0029E7D1CE
:102FA00030BC704770B504001825DFF8EC6805FBED
:102FB00004F03058002808D005FB04F0305800F029
:102FC00020FE002005FB04F1705000206C4306EB4E
:102FD0000401087570BD10B5002425E02000C0B2C2
:102FE00050431844007D01281DD12000C0B2504339
:102FF0001844011D2000C0B202FB00F203EB0200E6
:10300000806800F044FC0EE02000C0B25043184439
:10301000007D0428E2D12000C0B202FB00F203EBE5
:10302000020002210175641C2000C0B20A2840DAA7
:103030001822DFF864382000C0B250431844007DE5
:10304000C0B20028EFD02000C0B250431844210085
:10305000C9B251431944498A491C41822000C0B277
:1030600050431844408AB0F5967F0DDA2000C0B274
:1030700050431844007D01280BD12000C0B25043BA
:103080001844408A052804DB2000C0B2FFF78AFFFD
:10309000C9E72000C0B250431844007D0328B3D1D3
:1030A0002000C0B202FB00F203EB02000421017514
:1030B000B9E710BD2DE9F14F0A230A250A260020A1
:1030C0000A2400275FF0000C5FF0000E002230E0C1
:1030D0005FFA8AFABAF1020F2ADB1000C0B208FBCD
:1030E00000F04844408AF2461FFA8AFA50451FD33E
:1030F00015006DB21000C0B208FB00F809EB080023
:10310000B0F812E014E01000C0B208FB00F0484430
:10311000408AE2461FFA8AFA504509D313005BB28F
:103120001000C0B208FB00F809EB0800B0F812C0AC
:10313000521C1000C0B20A284CDA5FF01808DFF801
:1031400058971000C0B208FB00F0484490F814A053
:10315000300040B20A2806D15046C0B2002802D141
:10316000160076B2E4E75046C0B20028E0D00098DE
:1031700000280BD00098006893465FFA8BFB08FB91
:103180000BFBCB44DBF804B0584520D05046C0B20E
:1031900001289DD11000C0B208FB00F059F80000D2
:1031A0000028B0D01000C0B208FB00F04844408AAC
:1031B000BA461FFA8AFA5045BAD3140064B2100016
:1031C000C0B208FB00F809EB0800478AB0E710001E
:1031D00040B235E0880705D4300040B20A2804D157
:1031E000C80702D45FF0FF302AE0300040B20A285E
:1031F00002DAF6B2340009E0280040B20A2821DAE7
:10320000EDB22C002000C0B2FFF7CCFE00980028E1
:103210000AD000980168DFF880262300DBB218206E
:10322000434302EB030041600021DFF86C262300DA
:10323000DBB21820434302EB03004182200040B27E
:10324000BDE8F28F180040B20A2802DADBB21C0097
:10325000D8E7200040B20A2801DAE4B2D2E75FF0F2
:10326000FF30EDE72DE9F8430C0016001F00002C9D
:103270000ED0216800290BD005002900206801F03C
:1032800013F8002804D1207810F0F000E02802D1D3
:103290007FF00F0052E02A003900C9B22000FFF78A
:1032A00009FF0400200040B2002802D5200040B2EF
:1032B00044E01827DFF8E085200040B210FB07F05B
:1032C000404402210175200040B210FB07F0404449
:1032D000856006223100200040B210FB07F0404418
:1032E00010F10C09484602F021F9200040B210FB11
:1032F00007F0404400214182200040B210FB07F05B
:1033000058F80000002818D0200040B210FB07F049
:1033100058F80090002064B214FB07F148F801004F
:103320004FF400600090330015F12D02494628004B
:1033300002F0B6F9484600F064FC0020BDE8F283D4
:1033400038B50400002518E01821DFF84C252800C6
:10335000C0B248431044007DC0B200280CD0280001
:10336000C0B201FB00F102EB01008068A04203D172
:103370002800C0B2FFF716FE6D1C2800C0B20A2854
:10338000E2DB31BDFEB50C00002C7DD00600776875
:103390003888B0F5807F08D13879062805D178794A
:1033A000042802D17888082803D0300000F029FCD6
:1033B0006AE0042217F10E0101AD280002F0B6F810
:1033C000042217F1180102AD280002F0AFF860687E
:1033D000002801D1002506E002986168884201D1E9
:1033E000012500E000252800C0B2002801D00123FB
:1033F00000E00223DBB217F1080201A92000FFF769
:1034000031FFF888B0F5807F03D0B0F5007F33D06E
:1034100037E0EDB2002D2ED0022000F045FAF88002
:10342000042217F10E0117F11805280002F07EF8AA
:103430000422211D17F10E05280002F077F806225C
:1034400017F1080117F11205280002F06FF80622A3
:1034500014F12D0117F10805280002F067F840F675
:103460000600009017F1120317F108023100200046
:1034700002F016F9FFE704E001A92000FEF7A9FB1E
:10348000FFE7300000F0BDFBF7BD2DE9FC41040073
:103490000D0090461826DFF800744046C0B2704315
:1034A0003844007D022837D14046C0B270433844CA
:1034B000408A40F21D11884210DB4046C0B2704382
:1034C0003844011D200000F0E2F9002824D14046D4
:1034D000C0B270433844032101751DE04046C0B2BC
:1034E00070433844408AB0F5877F15DB4046C0B250
:1034F0007043384410F10C024046C0B27043384467
:10350000011D200000F0B3F9002805D14046C0B2EB
:1035100070433844032101754FF4006000905FFA56
:1035200088F806FB08F807EB080010F10C0314F10B
:103530002D022900200002F0B3F8BDE8F681FEB5A7
:1035400004000D00160037002100306800F0ACFECA
:1035500000280AD0D14B4FF40060009014F12D02E6
:103560002900200002F09CF8FEBD307810F0F00039
:10357000E02815D101208DF8040000208DF8050009
:103580005E208DF80600707810F07F008DF807003F
:10359000B0788DF80800F0788DF8090001ABDAE713
:1035A0003168A06801406268A068024091420AD078
:1035B000306880B24FF6A961884204D0E0680028E4
:1035C00017D014F10C071820B549B34A0B784343C0
:1035D00013441B7D022B0FDB3B680E7846431644D9
:1035E0007668B34208D10A7829002000FFF74DFF22
:1035F000BAE77FF00300B7E7002300E05B1C1E0082
:1036000076B20A2E1ADA1E0076B216FB00F61644BF
:10361000367D022EF2DB3E689C464FFA8CFC1CFB8A
:1036200000FC9444DCF804C06645E7D10B701A0036
:10363000D2B229002000FFF728FF95E72A003900C1
:10364000200000F001F88FE72DE9FE4F82460D00C3
:1036500014001AF12D0001905FF0FF3B0026514647
:10366000286800F021FE002809D1287810F0F00029
:10367000E02804D0002D02D02868002802D17FF075
:103680000F0098E0524601212800FFF713FD0700C4
:10369000380040B2002802D5380040B28BE05FF01D
:1036A0001808DFF8F491380040B210FB08F04844E5
:1036B000007D00280ED10126380040B210FB08F032
:1036C000484401210175380040B210FB08F048441D
:1036D000C0F808A0002E01D1002C09D129005046C5
:1036E00000F0D5F88346002C02D1584640B262E083
:1036F000380040B210FB08F04844007D022811DB7E
:10370000674807704FF4006000907FB217FB08F025
:10371000484410F10C03019A2100504601F0C0FF0B
:10372000834646E0380040B210FB08F04844007D74
:1037300001283ED10021200000E00068002803D0CD
:10374000027B012AF9D00121002912D0002201892F
:10375000022000F0BFF80500002D0ED02100280047
:1037600000F0B3FA002808D0280000F04AFA00253B
:1037700003E02500280000F085FA002D17D038005E
:1037800040B210FB08F059F80000002807D03800BC
:1037900040B210FB08F059F8000000F032FA7FB296
:1037A00017FB08F049F800505FF0000B01E05FF0F4
:1037B000FF3B584640B2BDE8FE8F2DE9F84F84B07C
:1037C00005000E0017009B4600208DF80400002223
:1037D0001C21022000F07EF80400002C02D15FF0D2
:1037E000FF3041E01198DDF84080DDF83C90DDF8D5
:1037F00038A002970396666880B200F055F8F08012
:103800000622594616F10807380001F08FFE0622FD
:10381000494616F11207380001F088FE042251468D
:1038200016F10E07380001F081FE0422414616F120
:103830001807380001F07AFE4FF4807030800820BD
:103840007080062030710420707140F606000090F0
:10385000029B039A2100280001F022FF200000F0C3
:10386000D0F900209DF9040005B0BDE8F08FF8B54F
:103870000123039302910B490191011D009110F165
:103880002D0310F12D01FFF798FF05B000BD80B5A5
:10389000024AFFF7ECFF02BD28720020F4D10008B5
:1038A000AD7B0020FCD100080100080080B2000AB6
:1038B00050EA012080B270470100080210F47F0036
:1038C00050EA01600A00120A12F47F42104350EAE3
:1038D00011607047F8B50E00150040B2002806D000
:1038E00002281BD018D304281CD019D31CE036277B
:1038F000280040B200286CD0022800F08D80C0F073
:103900008B80032840F09980082001F05FF80400C4
:10391000002C0BD100205BE02227E9E70E27E7E728
:103920000027E5E70027E3E7002051E025730020AA
:103930002060380080B220441030C01C8008800015
:1039400060602681300080B2390089B2C91C8908C4
:103950008900D1F50071884201D2370006E0BFB27C
:10396000FF1C4FF6FC700740D7F5007767810120F8
:10397000E0812700B6B26089361A18E04FF4007172
:103980000CE005730021417300210160386006815D
:10399000310089B2B1F5007FF0D23100418110F1E0
:1039A000100141600121C1814189761A0700012E71
:1039B00009DB082001F00AF80028E2D1200000F01D
:1039C00020F9002004E00120E08100206073200045
:1039D000F2BD17F113004FF6FC710840320092B2AD
:1039E000D21C4FF6FC710A40101880B200F056FB52
:1039F0000400002C01D10020EAE7BFB204EB07006D
:103A00001030C01C800880006060268120896081A1
:103A1000002020602573D6E7072000F0D7FF0400C0
:103A2000002C01D10020D3E700206060268120898E
:103A30006081002020602573C5E70020C8E730B40E
:103A40000400180064B2002C06D0022C14D011D34C
:103A5000042C15D012D315E03624039B9BB225000D
:103A6000ADB2ED1CAD08AD0015FA81F5AB420BD23D
:103A700000201FE02224F0E70E24EEE70024ECE70C
:103A80000024EAE7002015E0029B00250560002BDA
:103A900006D0A4B2E41CA408A4002344436001E0BF
:103AA0000023436002234373018101894181027332
:103AB0000121C18130BC704738B504000D002800D9
:103AC000218980B288422DD2280080B22189411AF2
:103AD00005E060892D1A20890818208124686089F2
:103AE0002A0092B29042F4D3207B00280FD1280004
:103AF000618980B288420AD0607B800707D4616800
:103B0000091B691889B2200000F04DFA0400658194
:103B1000608920812068002802D0206800F071F8B8
:103B20000020206031BD70B40B001BB2002B01D00F
:103B3000002801D1002044E00B001BB2002B0AD565
:103B40000E0036B2764243893400A4B2A34201D2B9
:103B5000012036E001E00E00B6B2047B4568230088
:103B60009BB2002B03D023009BB2032B0DD14268E4
:103B70000B001BB25B421A444260426810F1100312
:103B80009A4217D2456001201BE023009BB2022B12
:103B900002D0A4B2012C26D10B001BB2002B12D5EF
:103BA0004389B6B2B3420ED342680B001BB25B42EC
:103BB0001A44426042898A18428102898918018127
:103BC000002070BC70470B001BB2012B09DBD2B286
:103BD000002A06D042680B001BB25B421A444260C6
:103BE000E8E70120EDE70120EBE780B5002209B20C
:103BF000FFF799FF02BD80B5012209B2FFF793FFDD
:103C000002BD38B50100002901D1002030E00024B8
:103C100004E0080000F0B0F9641C2900002925D058
:103C2000C889401EC881C88980B200281CD10D688F
:103C3000087B4A7B920704D50A000800116988476F
:103C4000EAE7020092B2032A03D1082000F0D2FE74
:103C5000E2E7020092B2012A02D080B20228D8D153
:103C6000072000F0C7FED7E70021D7E72000C0B249
:103C700032BD0100002001E0401C09680029FBD191
:103C800080B27047002802D0C189491CC1817047A9
:103C9000002801D0002900D10DE004E003890A8941
:103CA000D318038100680268002AF7D103890A89C2
:103CB000D31803810160704710B50C002100FFF795
:103CC000E7FF2000FFF7DEFF10BD2DE9F8430500F8
:103CD0000C0000270026002D05D0002C03D02889D9
:103CE0002189884202D27FF00F004BE069893800B9
:103CF00080B2091A6289300080B2121A914204DB44
:103D0000B4F80A80B8EB060803E0B5F80A80B8EB0F
:103D10000708424692B26068310089B2014468687F
:103D20003B009BB200EB0309484601F0FFFB18EB98
:103D3000070718EB06063000618980B2884201D37C
:103D4000002624683800698980B2884205D100279E
:103D50002D68002D01D1002C16D1002C06D06089D1
:103D60002189884202D12068002810D1002D06D078
:103D700068892989884202D1286800280AD1002C44
:103D8000B4D10020BDE8F2837FF00F00FAE77FF0A6
:103D90000500F7E77FF00500F4E72DE9F0470400A0
:103DA0000D0090460027002C01D100203FE0002D9F
:103DB00001D100203BE00026002C01D0002D01D1D4
:103DC000002034E02BE0B4F80A90B9EB0309404638
:103DD000494680B289B2884200D2C1464A4692B270
:103DE00060689BB200EB0301300080B205EB000A73
:103DF000504601F09BFB19EB070719EB0606B8EBE1
:103E0000090800230AE0180080B20028DBD018005F
:103E1000618980B28842D6D360891B1A24684046E3
:103E200080B2002801D0002CEDD1380080B2BDE86E
:103E3000F0872DE9F84304000D0016000027002C40
:103E400002D17FF00F0036E0002D02D17FF00F008D
:103E500031E02089110089B2884202D25FF0FF3040
:103E600029E0002C05D0002D03D0208992B2904289
:103E700002D27FF00F001EE018E0B0466089414694
:103E800089B2884201D2B4F80A80424692B2380020
:103E900080B205EB0001D4F80490484601F046FBDF
:103EA000B6EB080618EB070847462468300080B2D6
:103EB0000028E2D10020BDE8F283B1F5807F02D373
:103EC0004FF0FF3070470170012070470078401EAE
:103ED0008041C043C00F704710B4AA4A11680388DC
:103EE0000B44984213D01979002910D1A6490968CA
:103EF0008B420CD0A5490C689C4200D108601988FF
:103F000001801168411A14681B8823445980116884
:103F100043880B4483420FD0197900290CD19B4967
:103F20000C68844200D10B600188198011685B1A0B
:103F3000116800880844438010BC704710B4914950
:103F4000934880088000086008684FF4205202807F
:103F500000234380002303718B480B6813440360E4
:103F600001230468237103681A800068428008688E
:103F70008649086010BC704780B5002812D081497E
:103F80000968884203D380490968884200D309E060
:103F90000838002101717D490A68904200D208600A
:103FA000FFF79AFF01BDF0B40A0092B2D21C4FF69F
:103FB000FC710A40110089B20C2900D20C221100B8
:103FC00089B242F60103994201D3002064E06D4BAF
:103FD0001968884203D36C490968884200D35BE0C2
:103FE000B0F108041D68651B2688290089B2761A7D
:103FF000083E3100170089B2BFB2B94201D2002099
:104000004AE01100370089B2BFB2B94244D0196802
:1040100027880F44397900291FD13988521908326D
:104020005A4ED6F800C0BC4505D11F6894461FFA09
:104030008CFC674437601E681700BFB23E440027FF
:1040400037713180758022803188B1F5205F23D0AF
:104050001968338819444A801EE0B6B2110089B24B
:1040600014318E4218D35219083219681600B6B2AC
:104070003144464E3768B94200D2316000260E7195
:1040800026880E804D8022800C88B4F5205F03D0F6
:104090001B68098819444A80F0BC704770B401005D
:1040A000080080B2002801D1002069E089B2C91C53
:1040B0004FF6FC700140080080B20C2800D20C21A1
:1040C000080080B242F60102904201D3002057E07E
:1040D0002C4A2E4B18681468041B02E01068A4B226
:1040E000045B200080B20D00ADB2D5F52055A8428A
:1040F00045D210682500ADB2054428790028EDD1DD
:104100002E88200080B2361A083E080080B286420F
:10411000E4D32E88200080B2361A083E080080B210
:104120001430864216D30919083110680E00B6B251
:104130003044002606712E880680448029800124A0
:104140002C710488B4F5205F06D0146800882044E0
:10415000418001E001202871186885420CD119685E
:1041600002E01068098801440879002803D0064855
:1041700000688142F5D1196015F1080000E00020C7
:1041800070BC7047147B0020187B00201C7B002033
:10419000E300002062F30F2262F31F42401810F088
:1041A000030308D0C91A1FD3DB0748BF00F8012D4D
:1041B00028BF20F8022D130030B4144615461039DC
:1041C00028BF20E93C00FAD8490728BF20E90C00A5
:1041D00048BF40F8042D890028BF20F8022D48BFB1
:1041E00000F8012D30BC7047C91818BF00F8012D28
:1041F000CB0728BF00F8012D70470268531C0360ED
:1042000011707047F0B5244C244A2078244B6FF08D
:10421000004150BB0820656803FB05250E46B5FB31
:10422000F6F601FB1655401E6560F4D11D4D2E4675
:104230001020676803FB07278C46B7FBFCFC01FBDB
:104240001C77676046F8047B8E4603FB0727B7FBA5
:10425000FEFE01FB1E776760401E46F8047BE8D136
:10426000E86FC5F8800001252570606803FB002217
:104270000B46B2FBF3F301FB13210A4A616092F88B
:10428000803003F01F0352F82300C2F8800042F888
:10429000231020F04040F0BD0C0000205FF36E3C86
:1042A0000D661900DC76002010B40300C243002A1A
:1042B00001D0002801D101201AE091F833209207A3
:1042C00001D4002014E04A68904201D100200FE0A0
:1042D0008A6813404C688A681440A34207D18A68F0
:1042E00090438968C943884201D1012000E0002041
:1042F00010BC704780B51022024900F005F802BDDD
:1043000000000000B07A0020FCB500230068009097
:104310000C006D46002604E02E202070641C6D1CED
:10432000761C3000C0B2042834DA002795F800C0AB
:104330005FF00A0E9CFBFEF00EFB10C095F800C06B
:104340005FF00A0E9CFBFEFC85F800C00DF1040C2A
:104350003030BE465FFA8EFE0CF80E007F1C2878C7
:104360000028E3D13800471EC0B200280CD0180046
:10437000431C904206DA3800C0B21CF800002070DE
:10438000641CEFE7002009E01800431C9042C3DBE7
:10439000002003E0601E002202700800F6BD00004D
:1043A0002DE9FE4F06000D00DFF89C81D8F808A02B
:1043B0009AF8000010F00F0000B25FEA800948464A
:1043C00000B2142803DA3000FFF71BFC17E07089F5
:1043D0000428F8D3706800780100C9B2002902D01F
:1043E000082901D08EE0ABE018F1140798F814000A
:1043F00010F0F000E02804D13000FFF702FCBDE827
:10440000F78FD8F80010D8F81400FFF74DFF0028F8
:10441000F2D130890828D6D3300001F09DF9002868
:1044200003D03000FFF7EDFBE9E719F10E0109B207
:104430003000FFF7DAFB002859D00022318919EB50
:10444000010189B20220FFF745FA0400002CD3D005
:104450006089494609B20831884203D22000FFF73B
:10446000D0FBC9E74A4612B2D4F804B051465846C8
:1044700001F05CF8494609B2494209B22000FFF751
:10448000B4FB002803D02000FFF7BBFBB4E73100EA
:104490002000FFF71AFC002803D02000FFF7B1FB33
:1044A000AAE73000FFF7ADFB26007468494609B261
:1044B0003000FFF79AFB002818D170683968C16096
:1044C000D8F8101001610021217000216180FF21C6
:1044D000017200214181029501200190002000908D
:1044E000FF2300223900300000F0C4F928E019F160
:1044F0000E0109B2494209B23000FFF776FB0028ED
:10450000D3D079E70100C9B2032919D00100C9B29B
:104510000B2915D00100C9B20C2911D00100C9B274
:1045200004290DD00100C9B2052909D00100C9B282
:104530000D2905D00100C9B20E2901D0C0B2112841
:104540003000FFF75EFB5AE7807A002080B50A0052
:10455000D2B2032100F008F801BD80B50A00D2B242
:104560000B2100F001F801BD2DE9F84384B00700EC
:1045700088469146002224210120FFF7ABF9040070
:10458000002C28D07E68656885F8008085F8019049
:104590000020A8800020E8801C227968606810F163
:1045A0000807380000F0C2FFF068039003A800F08D
:1045B00015F800280CD0002169800290012001909C
:1045C00000200090FF2303AA0021200000F052F9F0
:1045D0002000FFF716FB05B0BDE8F08310B4020021
:1045E000DFF87403006808E090F83310890703D4FB
:1045F0001168C368994214D00068002812D090F85E
:10460000331011F005010529F6D141680029F3D0D6
:10461000136881680B40446881680C40A342E3D171
:1046200013E012E0DFF83413086800280AD00868A5
:1046300090F8330010F00500052803D108684068A1
:10464000002801D1002000E0086810BC70472DE967
:10465000F84F060088460127D6F8049099F8000024
:10466000C0B20009C0B2042804D03000FFF7C9FA74
:104670000020FDE099F8000010F00F0080B25FEA22
:10468000800AB9F80200FFF70FF904002000318911
:1046900080B2884204D2210089B23000FFF70CFAC0
:1046A0007089514689B2884207D33089A4B2A042AA
:1046B00003D3504680B2142804DA3000FFF7A1FA81
:1046C0000020D5E0D9F81000DFF894B2CBF8140040
:1046D000D9F80C00CBF810009BF8140010F0F00093
:1046E000E02831D198F83300C0072BD5D8F8040062
:1046F000002827D04446002C0CD199F80900112835
:1047000008D1504680B248444088B0F5884F01D166
:1047100044460027002F3AD0DBF81000002836D09E
:104720004146DBF81000FFF7BFFD002805D19BF8DC
:10473000100010F0F000E02829D13000FFF761FAF6
:10474000002095E00024D6E70125444694F8330084
:10475000C0070ED5606800280BD0DBF81400616834
:10476000884211D02100DBF81400FFF79DFD0028DE
:104770000AD1002D09D0002577480468444500D1AE
:104780002468002CE2D1B6E7B5E72468F6E7002CF0
:1047900004D13000FFF735FA002069E0B9F80600CF
:1047A0004FF63F71084209D0300001F065F906006C
:1047B000002E01D100205BE0D6F80490CBF8004039
:1047C000CBF80480CBF8089099F8000010F00F00A7
:1047D00080B28000ABF80C00514609B2494209B2E0
:1047E0003000FFF702FA99F8090001280DD00628D9
:1047F00006D011280ED141463000FEF7BDF824E066
:104800004146300001F00EFB1FE041463000FFF74B
:10481000C7FD1AE02100DBF81400FFF745FD002872
:1048200010D19BF8140010F0F000E0280AD0514697
:1048300009B23000FFF7DFF9C6F80490022130001A
:10484000FFF784FE3000FFF7DCF90020CBF8000012
:104850000020CBF804000020CBF808000020ABF8C3
:104860000C000020CBF810000020CBF81400002032
:10487000BDE8F28F7FB50A9E0C00002A05D0002902
:1048800002D00968002900D1341D0999089D0296BB
:10489000C9B20191EDB20095DBB2210000F002F83F
:1048A00004B070BD2DE9F84306000D0014009946D0
:1048B000002C38D05FF0140814213000FFF795F970
:1048C000002802D07FF0010044E009980899776839
:1048D00087F808907872206838611FFA88F80420F9
:1048E00098FBF0F050F04000387079703089FEF796
:1048F000DBFF78800020F880DFF86880B8F80000DF
:10490000FEF7D2FFB880B8F80000401CA8F80000FD
:10491000002D03D114480068F86001E02868F860B1
:104920000020788103E07068016900916C460A9B61
:10493000588D002809D0588D3189884205D222002F
:104940001900300001F086F904E02200310018005F
:104950005B699847BDE8F283447B0020487B0020D8
:10496000807A00209C7B002024D2000800218268ED
:1049700011604268D21C92089200002107E083680F
:104980001B68136083681A6003881A44491C4388B3
:104990009942F4DB704710B5002407E01D48210060
:1049A00089B250F82100FFF7E1FF641C200080B2BB
:1049B0000928F3D310BD010088680068002803D0DF
:1049C000026889680A6000E00020704780B5010035
:1049D00049B2092901DB002005E00E4940B251F837
:1049E0002000FFF7E8FF02BD826812680A60806855
:1049F0000160704780B5020052B2092A07DA002927
:104A000005D0044A40B252F82000FFF7EDFF01BD87
:104A10000000000094CF0008704780B500F047FB0D
:104A2000DFF81C080178491C01700078C00701D527
:104A300000F0B8F901BD05E0426F8A4201D10022C1
:104A40004267C0680028F7D1704738B504000125D7
:104A500008E02100DFF82C0850F825000068FFF777
:104A6000EAFF6D1C042DF4D331BD3EB50400C9B27C
:104A7000002951D094F91400042803D094F91400AB
:104A8000072849D1206F002804D1208D40F66831D5
:104A9000884241D0208B0190E08A0090231D2200A3
:104AA000616AE06C02F07CFD200000F071FCDFF830
:104AB000D8070168A14203D10168C968016009E013
:104AC000006800E0C068002804D0C168A142F9D1A4
:104AD000E168C1600020E0600120DFF8E0170870A5
:104AE00094F91400042809D10A202075DFF8D007B2
:104AF0000168E160046002F0D0FE0BE0DFF8C4075B
:104B00000068A04202D102F03BFA03E0210001203C
:104B1000FFF770FF00207AE094F9140000280AD013
:104B2000012827D0022834D0032842D004284BD0B3
:104B3000072854D05EE00025E08A002814D0DFF872
:104B400088070168A14203D10168C968016009E0D2
:104B5000006800E0C068002804D0C168A142F9D113
:104B6000E168C1600020E06021000120FFF742FF02
:104B7000002441E000252000FFF767FF2100DFF857
:104B80000C0800F02CFC21000220FFF733FF00246A
:104B900032E000252100DFF8F00600F020FC0120C3
:104BA000DFF81817087021000120FFF723FF002409
:104BB00022E0200002F03EFA0500280040B2002862
:104BC00001D10520207517E0200002F033FA05001E
:104BD000280040B2002801D1052020750CE02000FB
:104BE00002F028FA0500280040B2002801D109206F
:104BF000207501E000250024002C06D0280040B2DA
:104C0000002802D1200002F056FB280040B23EBD31
:104C100080B590F91410012903D0817E51F0100164
:104C200081760121FFF721FF02BD2DE9FC47050038
:104C300095F914000A2809D12900DFF8840600F04C
:104C4000CEFB29000120FFF7D5FE53E0002400260B
:104C5000EF6CD5F82480D5F88890D5F810A095F998
:104C60001400002818D1E88A002820D0DFF8580660
:104C70000168A94203D10168C968016009E00068C0
:104C800000E0C068002804D0C168A942F9D1E968F1
:104C9000C1600020E8600AE00C00EE8A2900DFF81D
:104CA000E80500F09CFB0120DFF84C180870E86E66
:104CB000002802D0E86E00F072FAA86E002802D038
:104CC000A86E00F06CFA002C09D0288B0190B6B2C7
:104CD00000962B1D2A004146380002F061FC290095
:104CE0000120FFF787FE4846002803D07FF00C0123
:104CF0005046C847BDE8F38780B50121FFF795FF0F
:104D000001BD416A028D8918428E40F2B5539A4224
:104D100002DB40F2B45200E0428EC36ACB1A9A1A08
:104D2000002A05D4028D4285C06A091A08000CE0E9
:104D3000426AC16A521A012A02DB0021418503E05E
:104D4000C26A416A511A41850020704710B50400BB
:104D5000208D09182185208D40F66931884203DBBA
:104D600040F6683020850EE0208D00280BD194F9A4
:104D70001400072803D094F91400092803D140F641
:104D800068302085FFE72000FFF7BBFF40F2DA2103
:104D9000884206DBA07E50F00200A076200002F0E0
:104DA0008AFA10BD2DE9FE4F0020DFF85487D8F8AD
:104DB0000000401CC8F80000DFF8489799F8000090
:104DC000401C89F8000025E0E868CAF80000F6B247
:104DD000002E09D0288B0190E88A00902B1D2A0014
:104DE000696AE86C02F0DCFB2E692900ED6801209D
:104DF000FFF700FEDFF8C4B400208BF80000380095
:104E0000002803D07FF00C013000B8479BF8000069
:104E1000002806D00024DFF870A4DAF8005000E083
:104E2000ED68002D00F01E81687F99F8001088421F
:104E3000F6D099F8000068770027002695F914004D
:104E4000022805D195F84200062801D17F1C76E0A2
:104E500095F842000C2801D17F1C70E095F8910074
:104E6000002828D0DFF8A00695F89110084410F823
:104E7000010C95F890100200D2B2914204D295F83C
:104E80009010491C85F8901095F89010C0B281429E
:104E900055D3280002F07DFC002850D1002085F871
:104EA000900095F89100072849D295F89100401C90
:104EB00085F8910043E0B5F93000002802D4288E2F
:104EC000401C2886E86E002839D0B5F93000B5F9C5
:104ED0004010884233DB95F9140002280DD0B5F953
:104EE0003C00C010B5F93E104118DFF8200695F8D7
:104EF000422080568140A5F8401000202886B5F851
:104F00004800B5F85C10884202D2B5F8480001E0CC
:104F1000B5F85C0080B24008A5F84A00B5F84A0030
:104F2000698E490089B2884203D2688E4000A5F894
:104F30004A00688EA5F84800280002F07DFB95F92C
:104F40001400062809D1A87EC00606D5D8F800109E
:104F5000286A091A292900D37F1C287A000736D528
:104F600095F91400042803D095F9140007282ED1D0
:104F7000D5F88C10DFF8980541184FF4FA70B1FBA2
:104F8000F0F1D8F80020286A121A914202D27F1C50
:104F9000761C1CE0D5F88C1095F89220DFF874058B
:104FA00000FB02114FF4FA70B1FBF0F1D8F80020C9
:104FB000286A121A91420AD2280002F0BEFB40B2BF
:104FC000002804D195F89200401C85F8920095F9CC
:104FD0001400032806D1D8F80010286A091A2929D4
:104FE00000D37F1C95F91400092806D1D8F80010C9
:104FF000286A091AF12900D37F1CFFB2002F0AD0BA
:10500000D5F88870280000F0C3F9002C3FF4DCAE1E
:10501000E868E060DBE62C00ED68E07E401CE076AE
:10502000E07E217F8842FFF4FCAE0020E076A34EB4
:1050300000203070D4F88400002806D021002069B8
:10504000D4F884209047010000E000213078002847
:105050007FF4E0AE49B200297FF4E3AE200002F015
:105060002AF9DEE60024964E356806E0E8683060EE
:105070002900ED680120FFF7BDFC002D15D00020B0
:10508000D8F80020296A521AF12A00D3401CC0B275
:10509000002807D0280000F07BF9002CE6D0E86853
:1050A000E060E5E72C00ED68E7E7BDE8F78FF8B5CD
:1050B000DFF850542878401C28701CE0287860776E
:1050C000A07EC0070AD5A07E50F00200A076200086
:1050D00002F0F1F8A07E10F0FC00A076E668206FE8
:1050E00000280CD0754F00203870200000F011F817
:1050F0003878002803D0DFF82004046800E034008A
:10510000002C05D0607F29788842D7D1E468F7E782
:10511000F1BDF8B50400206F467B256F00202067A5
:10512000E06F002806D000232A0021002069E76FE5
:10513000B84705E000232A002100002000F047F8CE
:10514000010049B200291CD1B00626D5208D40F6B9
:105150006831884202D0208D401C2085E06F0028F5
:1051600007D00023002221002069E46FA04701003E
:1051700000E000217FF00C00020049B291420CD106
:105180000CE07FF00C010A0040B2904201D108000F
:1051900004E025677FF0040000E00020F2BD10B5B8
:1051A00003E0046800F004F820000028F9D110BDE5
:1051B00010B50400002C09D06068002802D0606897
:1051C000FEF71FFD21000320FFF714FC10BD10B5F2
:1051D00008001400002C07D02189FFF7B7FD20003C
:1051E000FEF70FFD002010BD5BB2002BFAD1FFF7D8
:1051F0000FFDF8E770B50100C9B2802901DB7F20FF
:10520000FFE7002400222049096811E003004D7DDA
:10521000DBB2AB420BD3DFF8E8522E680B6AF61A0A
:10522000A64204D328680C6A041B0A00487DC9689A
:105230000029EBD1002A02D01000FFF75DFD70BD00
:10524000B07B002070B5002400220F49096810E0EF
:1052500091F9143005006DB2AB4209D1A84D2E680A
:105260000B6AF61AA64203D32A680C6A141B0A00BA
:10527000C9680029ECD1002A03D000211000FFF7F3
:10528000D4FC70BD5CD100085C7B002038B50023E5
:1052900000200B4909680AE0994C25680A6AAD1A92
:1052A0009D4203D320680B6AC31A0800C96800290D
:1052B000F2D1002801D0FFF71FFD31BDAF7B0020E8
:1052C000607B0020787B0020547B002070B50500B7
:1052D0000120FFF77BFB0400002C21D1FFF7D6FF54
:1052E0000120FFF773FB0400002C19D10920FFF700
:1052F000A9FF0120FFF76AFB0400002C10D1082051
:10530000FFF7A0FF0120FFF761FB0400002C07D18D
:105310002800C0B2FFF76EFF0120FFF757FB040023
:10532000002C30D09421002226003000FEF732FFFE
:10533000657541F2D060A4F8600040F66830608581
:10534000608D2085FF20A0724FF4067060860620D5
:10535000A4F840000620E0875FF0FF30208601209F
:10536000A4F8480000F06DF86065E0646064A06532
:105370006348006820626348007860776748E067A8
:105380006748C4F88C00200070BD0000587B0020E6
:1053900010B5040094F9140000281FD094F91400EB
:1053A0000A281BD094F91400012817D0206F002878
:1053B00004D0206FFEF725FC002020675FF0FF304F
:1053C0002086A06EFFF7EBFEE06EFFF7E8FE002000
:1053D000A066A06EE0660020A4F8640010BD10B5C1
:1053E0000C000168A14203D10168C968016009E0AD
:1053F000006800E0C068002804D0C168A142F9D16B
:10540000E168C1600020E0602000FFF7C1FF94F96F
:1054100014000A280DD094F91400012809D0A07EA8
:10542000C00706D5A07E50F00200A076200001F053
:1054300042FF94F914000128002020750020E0822A
:1054400010BD38490A682E48006882180A6008684A
:10545000704710B504000800FFF7C0F8002802D11B
:10546000200080B210E0B0F92A10080000B2002835
:1054700008D0B1F128002100020089B292B2914215
:1054800000D30400200080B210BD38B5040008002D
:1054900003E0C568FFF730FC2800002805D001684C
:1054A00022689142F5D0C068F7E731BD38B50400F5
:1054B0000D00002C1ED0206800281BD01648016863
:1054C0002000FFF7E2FF0D4801682000FFF7DDFF35
:1054D000002D0FD0286800280CD01348006807E082
:1054E000C168026823689A4201D12A6802600800F4
:1054F0000028F5D131BD0000AF7B0020547B002097
:10550000507B0020B17B002014D200084CD1000851
:10551000B84C0A00F82401005C7B0020CF51000841
:1055200000DD6D0008000020587B002062B38B076F
:1055300008D0521E11F8013B00F8013B00F0248016
:105540008B07F6D1830740F0208000BF103A07D3C5
:1055500030B4B1E83810103AA0E83810F9D230BCB5
:10556000530724BFB1E80810A0E8081044BF51F861
:10557000043B40F8043BD20724BF31F8022B20F84B
:10558000022B44BF0B7803707047121F17D35B00C8
:1055900009D151F8043B20F8023B1B0C121F20F8E4
:1055A000023BF6D20BE051F8043B00F8013B1B0A2A
:1055B00020F8023B1B0C121F00F8013BF3D238BF4E
:1055C000121D521E24BF11F8013B00F8013BF8D810
:1055D00070470000F8B504000D000E2660890F2802
:1055E00004DA2000FEF70DFB0020F2BD63689F89FE
:1055F0001878C00718D5187801280AD158780028DB
:1056000012D198785E280FD1607B50F01000607343
:105610000AE006222149180002F006FA002803D108
:10562000607B50F008006073BFB2082F03D0B7F55D
:10563000C16F19D030E095F833000007D1D56089EB
:10564000310009B2884208DB36B27642310009B235
:105650002000FEF7CAFA002800D0C2E72900200087
:10566000FEF7F5FF0020C0E795F833000007B8D536
:105670006089310009B2884208DB36B276423100D7
:1056800009B22000FEF7B1FA002800D0A9E72900EE
:105690002000FDF777FEE5E7A3E70000F4D100085E
:1056A0002DE9F84304000D0016009846089880B2D2
:1056B000FEF7FAF881460E212800FEF796FA002838
:1056C00002D07FF0010012E06F68A7F80C9006226C
:1056D000B94641464846FFF729FF0622BF1D310063
:1056E0003800FFF723FF29002000A2699047BDE89A
:1056F000F28318B40022ADF80020002310F001025C
:10570000002A06D0012904DB04788DF80140401CF2
:10571000491E04E0048813FA84F3801C891E0229C0
:10572000F8DA012902DB00788DF80000BDF80000EE
:1057300013FA80F081B211EB104188B210EB1140E6
:10574000002A06D0020212F47F42C0F307211000A3
:10575000084380B212BC704770B5040000260025D3
:105760001BE061896068FFF7C4FF16FA80F006004D
:10577000B6B216EB10466089022190FBF1F201FBF4
:105780001200002808D0D5F10105310211F47F4143
:10579000C6F307200E0006432468002CE1D1EDB2C9
:1057A000002D06D0310211F47F41C6F307200E0010
:1057B0000643F643300080B270BD000038B50025C6
:1057C000DFF85406046804E0E07F401EE07725001F
:1057D0002468002C08D0E07F0028F5D12000246840
:1057E000290000F002F8F4E731BD2DE9F04107008F
:1057F0000D000026002D786841688888002815D1A2
:105800007C6808687860142217F10801D4F80480D5
:105810004046FFF78BFE01212000FEF79EFE200090
:10582000FEF727FA86192000FEF7EBF97C6809E0FD
:105830006068A04604684046FEF71BFA8619404699
:10584000FEF7DFF9002CF3D12900380000F077F8DB
:10585000DFF8C8050188891B0180B6B23000BDE8B9
:10586000F081F8B504000D00002600205FF0000C68
:1058700000230027DFF8A015096814E0C27F91F823
:105880001FE072450AD30800634607E00022002AA1
:1058900004D07F1C0028F1D1080063460A68002A62
:1058A00000D08C460968002910D0E268D1F814E0D5
:1058B000964509D12269D1F818E0964504D18A8924
:1058C000B4F804E07245E1D00122E0E7002803D0FB
:1058D0001900FFF78AFF8619AE4201DA022FC4DAF7
:1058E0003000F2BD70B505000E000420FFF76EF821
:1058F0000400002C0DD131002800FFF7B2FFB042A8
:1059000003DB0420FFF762F80400002C01D1002023
:1059100014E02021002226003000FEF73BFC03208B
:10592000E077DFF8F404016821600460142214F1C8
:10593000080629003000FFF7F9FD200070BD80B592
:10594000DFF8D4241368834202D10168116001E0BA
:1059500002680A6001000420FFF74CF801BD2DE940
:10596000F84306000F0000240125D7F80490B9F889
:105970000200FDF799FF80461FFA88F899F80000A9
:1059800010F00F00B8EB8008B9F80600FDF78CFFA7
:10599000C004C00C80B2C000796800220A60888010
:1059A00018EB0000C880706810E0888893889842DF
:1059B0003CD08888D388984239D3002C04D0E08822
:1059C0009388984200D0002510681400002822D047
:1059D00042688B88B2F804C06345E6D20860002CA8
:1059E00018D08B88B4F806C0634503D39288CB885F
:1059F0009A420DD23800FEF73CF9DFF820140A88ED
:105A0000101A08803800FEF7FCF80020BDE8F28389
:105A1000276000E0776000280BD1002C08D02760B9
:105A2000E0888A88904204D0002502E0E2E7E1E7BE
:105A30007760B07FC0071DD5002D19D07068002891
:105A400004D0706840688088002801D000250FE0ED
:105A50000A00086801E00A000868002805D04168CB
:105A6000D0888A889042F6D00025002D00D00868A2
:105A70002800CBE70020C9E72DE9F84F0500D5F84D
:105A8000048098F8000010F00F008000142805D062
:105A90002800FEF7B6F80020BDE8F28FB8F806003F
:105AA000FDF702FFC004C00C80B25FEAC009B8F87D
:105AB0000200FDF7F9FE82461FFA8AFA98F8000004
:105AC00010F00F00BAEB800A2800FEF7D2F88346E8
:105AD000DFF84863308810FA8BF00B280CDB59464E
