:020000040800F2
:100000004082002081E1000801DE000803DE0008D4
:1000100005DE000807DE000809DE00080000000019
:100020000000000000000000000000000BDE0008DF
:100030000DDE0008000000000FDE000811DE0008E1
:1000400099E200089DE20008A1E20008A5E200088C
:10005000A9E200081DDE0008ADE20008B1E20008D8
:10006000B5E20008B9E20008BDE20008C1E20008FC
:10007000C5E20008C9E20008CDE20008D1E20008AC
:10008000D5E20008D9E20008DDE20008E1E200085C
:100090001FDE0008E5E20008E9E20008EDE20008E2
:1000A000F1E20008F5E20008F9E20008FDE20008CC
:1000B0003DDE000833DE000801E3000805E3000828
:1000C00009E300080DE3000811E3000815E3000848
:1000D00019E300081DE3000821E3000825E30008F8
:1000E00029E300082DE3000831E3000835E30008A8
:1000F00039E300083DE3000841E3000845E3000858
:1001000049E300084DE3000851E3000855E3000807
:1001100059E300085DE3000861E3000865E30008B7
:1001200069E300086DE3000871E3000875E3000867
:1001300079E3000829DE00087DE3000881E3000878
:1001400085E3000889E300088DE3000891E30008D7
:1001500095E3000899E300089DE30008A1E3000887
:10016000A5E30008A9E30008ADE30008B1E3000837
:10017000B5E30008B9E30008BDE300080000000093
:10018000C1E30008C5E3000880B592B000200090EC
:10019000DFF84806016851F080510160006810F0F6
:1001A00080500090009800200090DFF8340601682D
:1001B00051F480410160006810F480400090009884
:1001C000012006905FF48030079002200C905FF4CD
:1001D00080000D9008200E904FF4A8700F90022020
:1001E00010900720119006A801F018FC0F20019034
:1001F00002200290002003904FF4A05004904FF48E
:1002000080500590052101A801F0C2FD01F081FE9A
:1002100001F083FE6421B0FBF1F001F07AFF0420CD
:1002200001F07BFF002200215FF0FF3001F05BFF57
:1002300013B000BD10B501F0D1FFFFF7A5FF02F02C
:1002400009F8DFF8A00502F03BF802F04DF800F0E5
:1002500091FADFF89445200002F054F802F01CF9FE
:10026000DFF8880502F058FC0021DFF8840503F070
:10027000D9FA01F0E9F9DFF87C0503F003FE00F09C
:10028000D3FFDFF8740503F0FDFD03F0FCFFDFF89A
:100290006C050068002801D001F010FADFF8600555
:1002A0000068401E642801D200F00BF8200002F024
:1002B000BCF8DFF8500500680028E6D001F010F81F
:1002C000E3E72DE9F047DFF838452168DFF8380526
:1002D00001F0F6FFDFF83455DFF834052968405C9B
:1002E000012814D0022858D0032800F09C8004284C
:1002F00000F0BD80112800F0FD80122800F05B8125
:10030000132800F09C81142800F0DF8121E240F2E4
:100310000166DFF800753900300002F046F901206F
:1003200003F0EEFF40F202683900404602F03DF96A
:10033000012003F0E5FF40F203693900484602F06E
:1003400034F9012003F0DCFF40F2046A3900504622
:1003500002F02BF9012003F0D3FFDFF8BC74390061
:10036000300002F022F9012003F0CAFF39004046B4
:1003700002F01BF9012003F0C3FF3900484602F0E8
:1003800014F9012003F0BCFF3900504602F00DF9CA
:10039000DFF8880401F094FFDFE140F20166DFF846
:1003A00080743900300002F000F9012003F0A8FF4A
:1003B00040F202683900404602F0F7F8012003F0ED
:1003C0009FFF40F203693900484602F0EEF8012031
:1003D00003F096FF40F2046A3900504602F0E5F857
:1003E000012003F08DFFDFF82C743900300002F09B
:1003F000DCF8012003F084FF3900404602F0D5F814
:10040000012003F07DFF3900484602F0CEF80120BC
:1004100003F076FF3900504602F0C7F8DFF8040415
:1004200001F04EFF99E1DFF80064310040F2016015
:1004300002F0BBF8012003F063FF310040F20260DC
:1004400002F0B3F8012003F05BFF310040F20360DB
:1004500002F0ABF8012003F053FF310040F20460DA
:1004600002F0A3F8DFF8C40301F02AFF75E140F2BF
:100470000166EF4F3900300002F097F8012003F0D9
:100480003FFF40F202683900404602F08EF801203A
:1004900003F036FF40F203693900484602F085F860
:1004A000012003F02DFF40F2046A3900504602F0AB
:1004B0007CF8012003F024FFD64F3900300002F011
:1004C00074F8012003F01CFF3900404602F06DF87B
:1004D000012003F015FF3900484602F066F80120BC
:1004E00003F00EFF3900504602F05FF8D14801F0EA
:1004F000E7FE32E1C74E40F205673100380002F0F6
:1005000054F8012003F0FCFE40F20668310040463A
:1005100002F04BF8012003F0F3FE40F207693100CE
:10052000484602F042F8012003F0EAFE31004FF4A1
:10053000C16002F03AF8012003F0E2FEB64E31004D
:10054000380002F032F8012003F0DAFE31004046B4
:1005500002F02BF8012003F0D3FE3100484602F0F0
:1005600024F8012003F0CCFE31004FF4C16002F00A
:100570001CF8012003F0C4FEAF4E3100380002F039
:1005800014F8012003F0BCFE3100404602F00DF8E3
:10059000012003F0B5FE3100484602F006F80120C4
:1005A00003F0AEFE31004FF4C16001F0FEFFA3483E
:1005B00001F086FED1E09A4E40F205673100380026
:1005C00001F0F3FF012003F09BFE40F206683100CA
:1005D000404601F0EAFF012003F092FE40F2076975
:1005E0003100484601F0E1FF012003F089FE3100AF
:1005F0004FF4C16001F0D9FF012003F081FE854E68
:100600003100380001F0D1FF012003F079FE310004
:10061000404601F0CAFF012003F072FE3100484657
:1006200001F0C3FF012003F06BFE31004FF4C16005
:1006300001F0BBFFDFF8E40B01F042FE8DE0DFF8D4
:10064000E07B40F205663900300001F0AEFF01208A
:1006500003F056FEDFF8CC8B4146300001F0A5FFD9
:10066000012003F04DFE40F206663900300001F033
:100670009CFF012003F044FE4146300001F095FF4D
:10068000012003F03DFE40F207663900300001F022
:100690008CFF012003F034FE4146300001F085FF5D
:1006A000012003F02DFE39004FF4C16001F07DFF01
:1006B000012003F025FE41464FF4C16001F075FFB3
:1006C000DFF8EC0B01F0FCFD47E040F20567584E07
:1006D0003100380001F069FF012003F011FE40F203
:1006E00006683100404601F060FF012003F008FE7B
:1006F00040F207693100484601F057FF012003F03E
:10070000FFFD31004FF4C16001F04FFF012003F005
:10071000F7FD404E3100380001F047FF012003F0A3
:10072000EFFD3100404601F040FF012003F0E8FDFD
:100730003100484601F039FF012003F0E1FD3100AE
:100740004FF4C16001F031FFDFF8680B01F0B8FD34
:1007500003E0DFF8640B01F0B3FD2868401C64215E
:1007600090FBF1F201FB120028602068401E20601F
:10077000BDE8F08710B586B003F008FE03F047FF30
:10078000002005900020049000200390164CDFF814
:100790002C0B0290DFF8280B01900020009003AB97
:1007A00004AA05A9200003F074FF200004F004F857
:1007B00094F83300400707D5DFF8080B01F080FDFF
:1007C000200004F005F802E0200004F022F8DFF831
:1007D000F81A200004F02FF806B010BD403802408F
:1007E0000070004014E00008E87A0020A47900209E
:1007F000EC790020AC7A0020707A0020B47D0020D3
:10080000307D0020347D002094E000082C7D002005
:10081000287800200C0000201C00002000E10008C7
:10082000140000209CE100082C000020A8E1000832
:100830002400002010E100084C00002020E1000806
:1008400070B5DFF8882ADFF8881A4B6B1B68537085
:100850004B6B1B681B0A1370002312E04C6B1D00CE
:10086000ADB22C44247D1D00ADB254554C6B1D001F
:10087000ADB22C44247DDFF85C5A1E00B6B2AC55F4
:100880005B1C1C00A4B24D6B2D69AC42E6D3DFF8B3
:10089000482ADFF8403A9C785D7855EA04251560CF
:1008A000496B096840F28154091B16D0491E00F0BB
:1008B0009C80491E00F02181491E00F0A681491E3E
:1008C00000F02B82491E00F0BA82491E00F04983D5
:1008D000491E00F0D88300F067BC116842F203049F
:1008E000A14204D11979DFF8F42911607CE0116884
:1008F000B1F5005F04D11979DFF8E029516073E0A8
:10090000116846F26004A14204D11979DFF8CC29BC
:10091000118169E0116846F26C04A14207D159794E
:100920001A7952EA0122DFF8B4194A815CE01168B1
:1009300046F27804A14207D159791A7952EA012284
:10094000DFF898198A814FE0116846F29104A142BC
:1009500007D159791A7952EA0122DFF880194A82BF
:1009600042E0116842F20B04A1420CD1D9799A7984
:1009700052EA01225C7954EA022419790C43DFF827
:100980005C19CC6130E0116846F26B04A14207D1DA
:1009900059791A7952EA0122DFF840198A8223E054
:1009A000116846F26304A1420DD1D9799A7952EACD
:1009B0000122597951EA02211A7952EA0122DFF81B
:1009C0001C198A6110E0116846F2900291420BD125
:1009D000DFF80819096A1A79C2F30012914201D1AD
:1009E000012100E00021C9B2DEE3116842F20304F4
:1009F000A14204D11979DFF8A82B11607CE01168BD
:100A0000B1F5005F04D11979DFF8942B516073E0E0
:100A1000116846F26004A14204D11979DFF8802BF5
:100A2000118169E0116846F26C04A14207D159793D
:100A30001A7952EA0122DFF8681B4A815CE01168EA
:100A400046F27804A14207D159791A7952EA012273
:100A5000DFF84C1B8A814FE0116846F29104A142F5
:100A600007D159791A7952EA0122DFF8341B4A82F8
:100A700042E0116842F20B04A1420CD1D9799A7973
:100A800052EA01225C7954EA022419790C43DFF816
:100A9000101BCC6130E0116846F26B04A14207D113
:100AA00059791A7952EA0122DFF8F41A8A8223E08E
:100AB000116846F26304A1420DD1D9799A7952EABC
:100AC0000122597951EA02211A7952EA0122DFF80A
:100AD000D01A8A6110E0116846F2900291420BD15F
:100AE000DFF8BC1A096A1A79C2F30012914201D1E7
:100AF000012100E00021C9B256E3116842F203046B
:100B0000A14204D11979DFF8A02B11607CE01168B3
:100B1000B1F5005F04D11979DFF88C2B516073E0D7
:100B2000116846F26004A14204D11979DFF8782BEC
:100B3000118169E0116846F26C04A14207D159792C
:100B40001A7952EA0122DFF8601B4A815CE01168E1
:100B500046F27804A14207D159791A7952EA012262
:100B6000DFF8441B8A814FE0116846F29104A142EC
:100B700007D159791A7952EA0122DFF82C1B4A82EF
:100B800042E0116842F20B04A1420CD1D9799A7962
:100B900052EA01225C7954EA022419790C43DFF805
:100BA000081BCC6130E0116846F26B04A14207D10A
:100BB00059791A7952EA0122DFF8EC1A8A8223E085
:100BC000116846F26304A1420DD1D9799A7952EAAB
:100BD0000122597951EA02211A7952EA0122DFF8F9
:100BE000C81A8A6110E0116846F2900291420BD156
:100BF000DFF8B41A096A1A79C2F30012914201D1DE
:100C0000012100E00021C9B2CEE2116842F20304E2
:100C1000A14204D11979DFF8942A11607CE01168AF
:100C2000B1F5005F04D11979DFF8802A516073E0D3
:100C3000116846F26004A14204D11979DFF86C2AE8
:100C4000118169E0116846F26C04A14207D159791B
:100C50001A7952EA0122DFF8541A4A815CE01168DD
:100C600046F27804A14207D159791A7952EA012251
:100C7000DFF8381A8A814FE0116846F29104A142E8
:100C800007D159791A7952EA0122DFF8201A4A82EB
:100C900042E0116842F20B04A1420CD1D9799A7951
:100CA00052EA01225C7954EA022419790C43DFF8F4
:100CB000FC19CC6130E0116846F26B04A14207D107
:100CC00059791A7952EA0122DFF8E0198A8223E081
:100CD000116846F26304A1420DD1D9799A7952EA9A
:100CE0000122597951EA02211A7952EA0122DFF8E8
:100CF000BC198A6110E0116846F2900291420BD152
:100D0000DFF8A819096A1A79C2F30012914201D1D9
:100D1000012100E00021C9B246E2116842F2030459
:100D2000A14204D11979DFF88829116086E01168A1
:100D3000B1F5005F04D11979DFF8742951607DE0C5
:100D4000116846F26004A14204D11979DFF86029E4
:100D5000118173E0116846F26C04A14207D1597900
:100D60001A7952EA0122DFF848194A8166E01168CF
:100D700046F27804A14207D159791A7952EA012240
:100D8000DFF82C198A8159E0116846F29104A142DA
:100D900007D159791A7952EA0122DFF814194A82E7
:100DA0004CE0116842F20B04A1420CD1D9799A7936
:100DB00052EA01225C7954EA022419790C43DFF8E3
:100DC000F018CC613AE0116846F26B04A14207D1F9
:100DD00059791A7952EA0122DFF8D4188A822DE073
:100DE000116846F26304A1420DD1D9799A7952EA89
:100DF0000122597951EA02211A7952EA0122DFF8D7
:100E0000B0188A611AE0116846F29004A1420CD130
:100E1000DFF89C18096A1A79C2F30012914201D1D5
:100E2000012100E00021C9B208E0116846F2890200
:100E3000914203D11979DFF8302B1160B4E11168C8
:100E400042F20304A14204D11979DFF8202B11608A
:100E500086E01168B1F5005F04D11979DFF80C2B39
:100E600051607DE0116846F26004A14204D1197915
:100E7000DFF8F82A118173E0116846F26C04A14290
:100E800007D159791A7952EA0122DFF8E01A4A812A
:100E900066E0116846F27804A14207D159791A79BF
:100EA00052EA0122DFF8C41A8A8159E0116846F239
:100EB0009104A14207D159791A7952EA0122DFF847
:100EC000AC1A4A824CE0116842F20B04A1420CD1E8
:100ED000D9799A7952EA01225C7954EA0224197983
:100EE0000C43DFF8881ACC613AE0116846F26B04D3
:100EF000A14207D159791A7952EA0122DFF86C1A16
:100F00008A822DE0116846F26304A1420DD1D9799D
:100F10009A7952EA0122597951EA02211A7952EA60
:100F20000122DFF8481A8A611AE0116846F290043B
:100F3000A1420CD1DFF8341A096A1A79C2F30012FF
:100F4000914201D1012100E00021C9B208E01168FD
:100F500046F28902914203D11979DFF8142A11600F
:100F600022E1116842F20304A14204D11979DFF8A9
:100F7000042A116086E01168B1F5005F04D1197987
:100F8000DFF8F02951607DE0116846F26004A1426B
:100F900004D11979DFF8DC29118173E0116846F278
:100FA0006C04A14207D159791A7952EA0122DFF87B
:100FB000C4194A8166E0116846F27804A14207D15B
:100FC00059791A7952EA0122DFF8A8198A8159E081
:100FD000116846F29104A14207D159791A7952EA6F
:100FE0000122DFF890194A824CE0116842F20B04AA
:100FF000A1420CD1D9799A7952EA01225C7954EA5A
:10100000022419790C43DFF86C19CC613AE01168BD
:1010100046F26B04A14207D159791A7952EA0122AA
:10102000DFF850198A822DE0116846F26304A1426C
:101030000DD1D9799A7952EA0122597951EA0221DE
:101040001A7952EA0122DFF82C198A611AE0116834
:1010500046F29004A1420CD1DFF81819096A1A79F6
:10106000C2F30012914201D1012100E00021C9B276
:1010700008E0116846F28902914203D11979DFF83C
:10108000F828116090E0116842F20304A14204D1F3
:101090001979DFF8E828116086E01168B1F5005F82
:1010A00004D11979DFF8D42851607DE0116846F247
:1010B0006004A14204D11979DFF8C028118173E0DE
:1010C000116846F26C04A14207D159791A7952EAA3
:1010D0000122DFF8A8184A8166E0116846F2780418
:1010E000A14207D159791A7952EA0122DFF88C1806
:1010F0008A8159E0116846F29104A14207D15979D9
:101100001A7952EA0122DFF874184A824CE0116819
:1011100042F20B04A1420CD1D9799A7952EA012208
:101120005C7954EA022419790C43DFF85018CC6139
:101130003AE0116846F26B04A14207D159791A7955
:1011400052EA0122DFF834188A822DE0116846F253
:101150006304A1420DD1D9799A7952EA01225979D1
:1011600051EA02211A7952EA0122DFF810188A6145
:101170001AE0116846F29004A1420CD1DFF8FC1786
:10118000096A1A79C2F30012914201D1012100E0EB
:101190000021C9B208E0116846F28902914203D1E8
:1011A0001979DFF8DC2711604C49DFF8F423DFF808
:1011B000F834DFF8F8440D6A166A56EA45061D6AE7
:1011C00055EA4605266A56EA4506DFF8B8572E70F6
:1011D0004D68566856EA45065D6855EA46056668F4
:1011E00056EA4506DFF8A0572E700989128952EA9F
:1011F0000112DFF898170A701989228952EA011240
:10120000DFF88C170A70002102F00CFB70BD80B56E
:10121000DFF8800703F015FD01BD0000B4E1000810
:1012200044000020540000201FB500200090DFF88B
:101230006807016851F002010160006810F00200C7
:1012400000900098DFF85447DFF8540720604CF214
:101250004F30E06040F28F6060600020206100202D
:10126000A060200002F0F2FD00200190002002901A
:1012700001A9200003F08AFD002202211D2000F0B8
:1012800032FF1D2000F040FF1FBD80B5DFF80C17B6
:10129000884204D10120DFF80C17086007E0DFF86E
:1012A0000817884203D1DFF8EC0601F0BEF801BD53
:1012B00030E10008A8E00008C0E1000861D30008A0
:1012C0006B4C000840E10008914C0008F0780020C9
:1012D000EC790020EC7C0020047D00206C7B002059
:1012E0002DE9F84F40F20164DFF8C05629002000D4
:1012F00001F05BF9012003F003F840F202662900D7
:10130000300001F052F9012002F0FAFF40F20367C9
:101310002900380001F049F9012002F0F1FF40F204
:1013200004682900404601F040F9012002F0E8FF7E
:10133000DFF87C964946200001F037F9012002F0E1
:10134000DFFF4946300001F030F9012002F0D8FFFC
:101350004946380001F029F9012002F0D1FF494641
:10136000404601F022F9012002F0CAFFDFF844965E
:101370004946200001F019F9012002F0C1FF494659
:10138000300001F012F9012002F0BAFF494638009E
:1013900001F00BF9012002F0B3FF4946404601F08D
:1013A00004F9012002F0ACFFDFF80C96494620005A
:1013B00001F0FBF8012002F0A3FF4946300001F0E4
:1013C000F4F8012002F09CFF4946380001F0EDF8E6
:1013D000012002F095FF4946404601F0E6F8012061
:1013E00002F08EFFDFF8D4A55146200001F0DDF8B1
:1013F000012002F085FF5146300001F0D6F80120AF
:1014000002F07EFF5146380001F0CFF8012002F0D3
:1014100077FF5146404601F0C8F8012002F070FF06
:10142000DFF89CB55946200001F0BFF8012002F01A
:1014300067FF5946300001F0B8F8012002F060FF64
:101440005946380001F0B1F8012002F059FF594621
:10145000404601F0AAF8012002F052FF40F2056474
:101460002900200001F0A1F8012002F049FF40F21C
:1014700006662900300001F098F8012002F040FFD4
:1014800040F207672900380001F08FF8012002F0D0
:1014900037FF29004FF4C16001F087F8012002F006
:1014A0002FFF4946200001F080F8012002F028FFBC
:1014B0004946300001F079F8012002F021FF494649
:1014C000380001F072F8012002F01AFF49464FF48B
:1014D000C16001F06AF8012002F012FF51462000BD
:1014E00001F063F8012002F00BFF5146300001F0DB
:1014F0005CF8012002F004FF5146380001F055F875
:10150000012002F0FDFE51464FF4C16001F04DF89C
:10151000012002F0F5FE5946200001F046F80120B6
:1015200002F0EEFE5946300001F03FF8012002F0D3
:10153000E7FE5946380001F038F8012002F0E0FEDD
:1015400059464FF4C16001F030F8012002F0D8FE96
:10155000DFF870542900200001F027F8012002F084
:10156000CFFE2900300001F020F8012002F0C8FE73
:101570002900380001F019F8012002F0C1FE29000D
:101580004FF4C16001F011F8012002F0B9FE00F043
:1015900009F80020DFF80C140860BDE8F18F0000A6
:1015A000907B002080B52DED028B9FED428BDFF804
:1015B0001804806903F016FC53EC182B03F024FC8C
:1015C0000022DFF8083403F0F1FC03F013FEDFF82B
:1015D00000140860DFF8FC03806903F003FC53EC9F
:1015E000182B03F011FC0022DFF8E03303F0DEFCDF
:1015F00003F000FEDFF8E01308602B48806903F079
:10160000F1FB53EC182B03F0FFFB0022DFF8BC3397
:1016100003F0CCFC03F0EEFDDFF8C01308602348B4
:10162000806903F0DFFB53EC182B03F0EDFB002285
:10163000DFF8983303F0BAFC03F0DCFDDFF8A01309
:101640000860BDEC028B01BD1FB500200090DFF8E3
:101650004803016851F001010160006810F00100C9
:1016600000900098CD4C5FF0804020604CF24F30ED
:10167000E06053206060002020610020A060200016
:1016800002F0E4FB002001900020029001A920005C
:1016900003F07CFB002201211C2000F024FD1C2013
:1016A00000F032FD1FBD0000B47B0020D87B00207D
:1016B000FC7B002000000000008076402DE9F84F00
:1016C00040F20166C74C2100300000F06EFF40F28E
:1016D00002672100380000F068FF40F20368210033
:1016E000404600F062FF012002F00AFE40F2046969
:1016F0002100484600F059FFBB4D2900300000F0A2
:1017000054FF2900380000F050FF012002F0F8FDDE
:101710002900404600F049FF2900484600F045FFF7
:1017200000209749086094490860914E30608E4FC0
:10173000386040F20568DFF8B4924946404600F050
:1017400034FF40F2066A4946504600F02EFF40F250
:10175000076B4946584600F028FF012002F0D0FDF3
:1017600049464FF4C16000F020FFA148A1498A69B1
:10177000D21702608A69D2179F4B1A608A69D21702
:101780009E4B1A608969C9179D4A1160006800283C
:1017900004D09C49404600F008FF03E09A494046C7
:1017A00000F003FF94480068002804D09549504693
:1017B00000F0FBFE03E09449504600F0F6FE8F482F
:1017C0000068002804D08F49584600F0EEFE03E080
:1017D0008D49584600F0E9FE89480068002805D088
:1017E00088494FF4C16000F0E0FE04E086494FF400
:1017F000C16000F0DAFE3868FE281ED083494046FA
:1018000000F0D3FE4946404600F0CFFE06E04946D0
:10181000404600F0CAFE0A2002F072FD3868FE2839
:10182000F5D12100404600F0C0FE2900404600F0FE
:10183000BCFE7749404600F0B8FE3868FE2821D14A
:101840003068FE281ED07149504600F0AEFE494671
:10185000504600F0AAFE06E04946504600F0A5FEBC
:101860000A2002F04DFD3868FE28F5D121005046CF
:1018700000F09BFE2900504600F097FE6449504658
:1018800000F093FE3868FE2825D13068FE2822D16A
:1018900039480068FE281ED05C49584600F085FE95
:1018A0004946584600F081FE06E04946584600F099
:1018B0007CFE0A2002F024FD3868FE28F5D12100C4
:1018C000584600F072FE2900584600F06EFE50495E
:1018D000584600F06AFE3868FE282FD13068FE288E
:1018E0002CD125480068FE2828D125480068FE280C
:1018F00024D046494FF4C16000F057FE49464FF4EA
:10190000C16000F052FE07E049464FF4C16000F0AC
:101910004CFE0A2002F0F4FC3868FE28F4D12100C5
:101920004FF4C16000F041FE29004FF4C16000F0A7
:101930003CFE37494FF4C16000F037FE3868FE289E
:1019400010D13068FE280DD10B480068FE2809D15F
:101950000B480068FE2805D101202E4908700020A0
:101960002D490860BDE8F18F087D0020207C002013
:101970000C7D0020447C0020107D0020687C00202D
:10198000147D0020227E00201F7E0020147E002077
:10199000157E0020E87A002040380240707A00204E
:1019A00000040040347D0020AC7A00205C00002060
:1019B000640000206C000020740000207C000020E7
:1019C000840000208C0000206C7B00200070B74059
:1019D000B87D0020907B0020BC7D0020C07D0020D1
:1019E000C47D0020140000200C0000209400002082
:1019F000187D0020FC7B00201C7D0020207D002025
:101A0000247D0020340000203C00002054000020F1
:101A10001C0000207E020020B47D0020F8B50400E8
:101A200000202078C0075CD5DFF83803016811F08A
:101A30000C01042909D0006810F00C0008280ED110
:101A4000DFF824030068400209D5DFF820030068AE
:101A5000800346D56068002843D1012081E1606899
:101A6000B0F5803F06D1DFF80403016851F48031FE
:101A7000016017E06068B0F5A02F0AD1DFF8EC0232
:101A8000016851F480210160016851F480310160E6
:101A900008E0B648016831F480310160016831F432
:101AA00080210160606800280DD003F0C1FB0500B3
:101AB000AE480068800314D403F0BAFB401B6528CD
:101AC000F6D303204DE103F0B3FB0500A7480068FF
:101AD000800306D503F0ACFB401B6528F6D303203A
:101AE0003FE12078800722D59E48016811F00C0F55
:101AF00008D0006810F00C0008282FD19A48006820
:101B000040022BD499480168890704D5E16801296E
:101B100001D0012025E101685FF0F852B2FA82F2AB
:101B200031F0F801236913FA02F2114301602078C1
:101B3000000756D56069002842D001208C49086012
:101B400003F076FB05008B480068800749D403F05A
:101B50006FFB401B0328F6D3032002E1E068002856
:101B60001DD001208449086003F062FB05007F4816
:101B70000168890706D403F05BFB401B0328F6D3FA
:101B80000320EEE001685FF0F852B2FA82F231F021
:101B9000F801236913FA02F211430160C7E700203C
:101BA0007549086003F044FB050070480068800731
:101BB000BDD503F03DFB401B0328F6D30320D0E046
:101BC00000206B49086003F033FB0500694800689A
:101BD000800706D503F02CFB401B0328F6D3032017
:101BE000BFE0207840075FD500200090634801687F
:101BF00051F080510160006810F080500090009812
:101C00005F4E306850F48070306003F011FB0500C7
:101C10003068C00506D403F00BFB401B0328F7D344
:101C200003209EE0A068012805D15648016851F0C4
:101C30000101016015E0A068052809D1514801683B
:101C400051F004010160016851F00101016008E0F8
:101C50004C480168490849000160016831F00401FD
:101C60000160A06800280FD003F0E2FA05004548A3
:101C70000068800718D403F0DBFA401B41F2893179
:101C80008842F4D303206CE003F0D2FA05003D480B
:101C90000068800708D503F0CBFA401B41F2893178
:101CA0008842F4D303205CE0A069002858D02D4876
:101CB000006810F00C00082850D0A06902283CD120
:101CC000314E0020306003F0B3FA0700274D28683A
:101CD000800106D503F0ACFAC01B0328F6D303201D
:101CE0003FE02A48B0FA80F14FF44040B0FA80F269
:101CF000F020B0FA80F3E769206A0743606A10FABF
:101D000001F13943A06A4008401E10FA02F2114363
:101D1000E06A10FA03F319431348016001203060B0
:101D200003F086FA04002868800119D403F080FAD1
:101D3000001B0328F7D3032013E00020124908609A
:101D400003F076FA040009480068800108D503F022
:101D50006FFA001B0328F6D3032002E0012000E005
:101D60000020F2BD0838024004380240003802402A
:101D7000800E47427438024000004742403802401B
:101D80000070004070380240600047420000FE03CF
:101D90002DE9F04104000D000020714E306810F074
:101DA0000F00A84207D23570306810F00F00A8422B
:101DB00001D00120ABE02078800706D569490A6888
:101DC00032F0F002A06802430A602078C00768D5AC
:101DD0006068012805D164480068800313D401209D
:101DE00095E06068022802D06068032805D15E484B
:101DF0000068800107D4012089E05B480068800703
:101E000001D4012083E0574F396889088900606850
:101E10000143396003F00CFA8046606801280ED156
:101E2000386810F00C0004283BD003F001FAB0EB46
:101E3000080041F289318842F2D3032067E06068EC
:101E400002280ED1386810F00C00082829D003F0C1
:101E5000EFF9B0EB080041F289318842F2D3032058
:101E600055E0606803280ED1386810F00C000C288B
:101E700017D003F0DDF9B0EB080041F28931884258
:101E8000F2D3032043E0386810F00C0F09D003F0C0
:101E9000CFF9B0EB080041F289318842F3D3032037
:101EA00035E0306810F00F00854207D23570306899
:101EB00010F00F00A84201D0012028E02078400750
:101EC00006D528490A6832F4E052E06802430A6005
:101ED0002078000707D52348016831F46041226962
:101EE00051EAC201016000F049F81E4909685FF03B
:101EF0007062B2FA82F21D4B11F0F001D140595CD0
:101F0000C8401B490860002003F098F90020BDE894
:101F1000F081012017490860704715480068704734
:101F200080B5FFF7FAFF0F4909685FF46012B2FA53
:101F300082F2114B11F4E051D140595CC84002BD0E
:101F400080B5FFF7EAFF074909685FF4E022B2FABB
:101F500082F2094B11F46041D140595CC84002BD86
:101F6000003C0240083802400038024050E10008BE
:101F7000040000204C00474268E2000810B4002032
:101F80000020002000201F48006810F00C000028EE
:101F900004D0042804D0082804D030E01A482FE0E8
:101FA0001A482DE01A49086810F03F000A685202EA
:101FB0000CD50B68174AB2FA82F4144AB2FBF0F25D
:101FC00047F6C0700340E3405A430BE00B68114AE8
:101FD000B2FA82F40C4AB2FBF0F247F6C07003404A
:101FE000E3405A4308684FF44041B1FA81F110F4DC
:101FF0004030C840401C4000B2FBF0F000E0024816
:1020000010BC7047083802400024F40000127A0027
:10201000043802400000FE0310F00700464B1A6827
:102020004FF6FF010A40454951EA00210A431A6070
:10203000704741480068C0F302207047012210F049
:102040001F018A403E4940B2400941F820207047B4
:10205000020052B2002A08D509013A4A40B210F0F3
:102060000F00104400F8041C03E00901364A40B296
:102070001154704710B410F00700D0F10703052B7E
:1020800001D3042301E0D0F10703041D072C01D282
:10209000002000E0C01E012414FA03F35B1E194067
:1020A000814014FA00F0401E1040084310BC7047F5
:1020B00080B5411EB1F1807F01D301200EE0401EAA
:1020C000224908600F215FF0FF30FFF7C1FF0020B9
:1020D0001F49086007201F490860002002BD80B525
:1020E000FFF79AFF01BD70B504000D001600002037
:1020F000FFF79FFF32002900FFF7BCFF010020001F
:1021000040B2FFF7A5FF70BD80B540B2FFF796FF64
:1021100001BD80B5FFF7CCFF02BD042805D10D48F5
:10212000016851F00401016004E00A48016831F0DF
:1021300004010160704700000CED00E00000FA05AA
:1021400000E100E018ED00E000E400E014E000E051
:1021500018E000E010E000E080B500F001F801BDFB
:102160007047F0B40246106895681318506803EB86
:102170005004C0071DD54D441BE013F8017B05F842
:10218000017B491EF9D1A0B1B60813F8011B06F076
:102190000306032E08BF13F8016B01EB0621494229
:1021A000801C294405D011F8016B05F8016B401E15
:1021B000F9D1A3420ED013F8016B16F0030104BF4E
:1021C00013F8011BC91C30090F28DAD113F8010BD1
:1021D0000F30D6E7F0BC02F10C00704780B50B4819
:1021E000016851F400710160016851F4806101607F
:1021F000016851F4807101600320FFF770FF002037
:1022000003F01CF803F02EF8002002BD003C024051
:1022100080B586B000682549884219D10020009019
:102220002348016851F010010160006810F01000AF
:1022300000900098C020019002200290012003909D
:10224000032004900720059001A91A4803F042F8E2
:1022500007B000BD80B5002000901748016851F01C
:1022600002010160006810F002000090009813481D
:102270000E4901605FF4E13141600021816000217D
:10228000C160002101610C214161002181610021B7
:10229000C16103F029F901BD01B54FF6FF730122B9
:1022A0006946064803F05BF9009802BD0010014042
:1022B000443802400004024030380240307A0020A6
:1022C0000EB4C0B5024603A800210190009101ABF5
:1022D0000121044878440C3003F070FB06BC5DF823
:1022E00010FB00BF65BD000080B502F04FF802F0A2
:1022F0008EF902F0CDF904F005FB04F067FD01F062
:1023000058FF01BD80B590F83300C00703D5012008
:102310005249087005E00520504908705048FFF701
:10232000CFFF01BD10B5040094F83300400709D574
:102330004C48FFF7C5FF012048490870200002F013
:1023400047FA08E0052045490870200002F061FACC
:102350004348FFF7B5FF10BD70B588B004003F4D8E
:102360002878012804D0022811D0052855D05AE039
:10237000002060600020A0600020E0600220287043
:10238000200005F0BCFC3848FFF79AFF4BE0200026
:1023900006F06DFB002816D003202870201D06F0E3
:1023A0009FFB02002CA103A806F0F0FB03A92F4815
:1023B000FFF786FF01202E4908702E48FFF780FFA7
:1023C00006F011FC28E0666AB17A2B48FFF778FF27
:1023D000B07A052820DB04202870200005F0AEFF2D
:1023E000264802907FF07F400190254800906B4680
:1023F00001AA02A9200002F08BF9201D06F070FB53
:10240000020015A103A806F0C1FB1E48FFF758FF04
:1024100003A91D48FFF754FF05E0200005F08EFFDB
:1024200000202870FFE708B070BD38B5040002F046
:10243000FFFE164D2968401AB0F5FA7F0BD31448F9
:1024400002F0FFFB02F0F4FE28601248FFF738FFAD
:102450002000FFF781FF31BD25730000107E0020B2
:1024600094DE0008BCDE0008E4DE000868DE000838
:10247000117E00206CE0000890E10008C0A8006513
:10248000C0A8000180E0000830E00008F47C0020D3
:10249000E87A0020D0E0000810B58AB0524C5348CA
:1024A000206053482063534860630620606000202A
:1024B000A0600020E0605FF4A02020615FF4C00015
:1024C00060610020A0610120E06101202062002005
:1024D00060620020A0620020E062200000F014FF93
:1024E0000020059000200690012007900020009019
:1024F0000020019000200290002003900020049012
:10250000012008900E2009906946200000F0CFFFBE
:102510000AB010BD10B586B000683449884242D177
:10252000002000903448016851F00071016000689B
:1025300010F0007000900098002000902F48016873
:1025400051F480710160016811F48071009100996B
:1025500000210091016851F002010160006810F053
:102560000200009000984FF4007401940220029041
:10257000002003900920059001A9214802F0AAFE3D
:10258000019402200290022004900920059001A9E4
:102590001C4802F09FFE002200211420FFF7A3FD3B
:1025A0001420FFF7B1FD06B010BD10B50E4A136B35
:1025B00018600020136B98600020136BD86008200F
:1025C000136B1861002005E00B78146B044423752D
:1025D000491C401C136B1B699842F5D30221100063
:1025E00000F0E8FF10BD0000EC790020006400401E
:1025F0008C7C0020487B002040380240303802406C
:1026000000040240002002402DE9FC4104000020AB
:1026100000200090DFF8B06C300000200025002C76
:1026200001D1012013E194F84400002805D10020D5
:1026300084F84500200002F003F900200190DFF843
:102640008C0C016851F480410160006810F48040F6
:1026500001900198DFF8781C086830F400000860E9
:102660000A68206A02430A604FF480572068C05904
:1026700050F001002168C85102F0DAFD8046206860
:10268000C059C0070FD502F0D3FDB0EB080040F2EF
:10269000F5118842F3D3032084F84400002084F825
:1026A00045000320D3E02068076937F01C07FFF7D7
:1026B00034FCDFF8201C411ADFF81C2C914202D2B6
:1026C00057F008071AE0DFF8141C411ADFF8102C45
:1026D000914202D257F00C0710E0861BDFF8041C71
:1026E0008E420BD3DFF8001C401ADFF8001C884232
:1026F00002D257F0040701E057F010072068076185
:102700004FF400420021200000F0D8FA002808D041
:102710000121200000F0F5FB012084F84400012095
:1027200095E0FF2001F0ECFD606800286DD002F01C
:102730007FFD07006A460121200000F07DFA41F28A
:10274000893602F075FDC01BB04213D200984007D5
:10275000F0D54FF480520021200000F0AFFA00289D
:1027600014D00121200000F0CCFB012084F84400AB
:1027700001206CE00121200000F0C3FB012084F85F
:102780004400002084F84500032060E002F050FD82
:1027900007006A460121200000F04EFA02F048FDD1
:1027A000C01BB04212D200988006F2D56A461021B2
:1027B000200000F041FA002814D00121200000F090
:1027C000A0FB012084F84400012040E0012120000A
:1027D00000F097FB012084F84400002084F84500B5
:1027E000032034E00098400703D54FF40060E06018
:1027F00001E00020E0600098800702D50020A06082
:102800001DE04FF48040A06019E0E268D20892B267
:10281000A068400880B202430021200000F04EFA78
:10282000002808D00121200000F06BFB012084F873
:10283000440001200BE040F6FF7001F061FD29002B
:10284000200000F05EFB012084F844000020BDE879
:10285000F68170B40400002094F94500012801D1EC
:10286000022032E0012084F84500022084F8440070
:10287000E16200251CE0F16019E0680101EB00064F
:102880005FF48010306040F2F45000FB05F010441B
:10289000B060E069002803D1306850F44000306037
:1028A000581E8542E7D2680108442030F0606D1C54
:1028B0009D42E2D3206841F210028150012084F849
:1028C0004400002084F84500002070BC704770B4BC
:1028D000002490F94540012C01D1022034E001246C
:1028E00080F84540022480F84440816200241EE0C4
:1028F000E9601BE065010D445FF000462E6044F284
:10290000F4566E6040F2F45606FB04F61644AE60D0
:102910008669012E03D16E6826F000466E605E1E49
:10292000B442E5D266010E442036EE60641C9C423F
:10293000E0D3026841F20C03D150012180F8441029
:10294000002180F84510002070BC704770B4020070
:1029500000200020002092F94500012801D102202A
:1029600089E0012082F84500022082F84400002915
:1029700007D1012082F84400002082F845000120A0
:1029800079E0D06A0068002807D5122082F8440058
:10299000002082F8450001206DE040F2F5508142B0
:1029A0000DD340F2F450B1FBF0F340F2F450B1FB20
:1029B000F0F400FB1410002802D05B1C00E001239F
:1029C000012B13D1D06A006850F04050D36A1860D0
:1029D000C904C90CD06A4160D06A006850F0004058
:1029E000D16A0860D06AC068D0622FE000202BE076
:1029F000D46A246834F04054D56A2C60002805D18C
:102A0000D46A246854F08054D56A2C6040F2F4559E
:102A1000D46A65605C1EA0420CD1D46A246854F06C
:102A20000054D66A34605C1E05FB1414E404E40C04
:102A3000D56A6C60D46A246854F00044D56A2C606E
:102A4000D46AE468D462401C9842D1D341F21400A5
:102A500011680958490707D5042113681950002047
:102A6000116841F20403C850012082F8440000209C
:102A700082F84500002070BC7047002190F9451095
:102A8000012901D1022046E0012180F845100221F0
:102A900080F84410816A0968002935D4816A096880
:102AA000C9051DD5816B491C8163816B012901D149
:102AB000816A0163816A4163816A0968C1F30D41DA
:102AC000091FC163016B89680164816AC9688162F9
:102AD000012180F84410002180F8451000201AE000
:102AE000816A0968890509D5816A0163002141630A
:102AF00001218163816AC968816205E0816B491C9B
:102B00008163816AC9688162012180F844100021D3
:102B100080F8451001207047002190F94520012AD6
:102B200001D102204CE0012280F84520022280F8E9
:102B3000442006E0826A026301228263826AD268CC
:102B40008262826A1268002A33D4042931D2491C75
:102B5000826A126812F44072B2F5007FEAD0826A8B
:102B6000126812F4407F06D1826B521C8263826A23
:102B7000D2688262E5E7816A4163816B491C8163A7
:102B8000816B012901D1816A0163816A0968C1F3FE
:102B90000D41091FC163016B89680164816AC968BD
:102BA0008162012180F84410002180F84510002046
:102BB00006E0012180F84410002180F84510012032
:102BC000704738B5040041F21405206840594006AA
:102BD0000CD52000FEF71BFB402021684851012046
:102BE00084F84400002084F845000FE02068405934
:102BF000C0070BD5200006F067FF0120216848516F
:102C0000012084F84400002084F845005FF48030FF
:102C1000216848512068405900040CD5200006F076
:102C200054FF4FF4004021684851012084F84400CB
:102C3000002084F8450031BDF8B504000E001500F1
:102C40000020002094F84400822801D1022034E0C2
:102C5000822084F844002068006910F01C00218A5A
:102C6000C90211F478410843B6B2B60116F4F86609
:102C7000064336F0020656F001062068066102F0AF
:102C8000D7FA070001E020680669F0070DD502F0C9
:102C9000CFFAC01BB0F5803FF5D3012084F8440083
:102CA000002084F84500032007E02068406980B2D6
:102CB0002860012084F844000020F2BD70B50400B3
:102CC0000D000020002094F84400422801D1022089
:102CD00033E0422084F844002068006910F01C00B2
:102CE000218AC90211F478410843ADB2AD0115F44F
:102CF000F865054355F0020555F0010592B22068CC
:102D000042612068056102F093FA060001E0206844
:102D10000569E8070DD502F08BFA801BB0F5803FFE
:102D2000F5D3012084F84400002084F845000320F6
:102D300003E0012084F84400002070BD10B50400B9
:102D400094F94500012801D102201BE0012084F8FC
:102D50004500022084F84400200000F018FA20000A
:102D600000F03DFA200000F086FA200000F05FFA43
:102D7000200000F06EFA012084F84400002084F85E
:102D80004500002010BD10B5040094F9450001284D
:102D900001D102201BE0012084F84500022084F8C4
:102DA0004400200000F04CFA200000F05BFA200004
:102DB00000F029FA200000F05EFA200000F0FBF994
:102DC000012084F84400002084F84500002010BD54
:102DD00070B505000C00002095F94500012801D1CF
:102DE00002208DE0012085F84500022085F844008E
:102DF000002C6DD028680168DFF8F40401402268D7
:102E000060680243A0680243E0680243A868024386
:102E10002069024360690243E8680243A0690243F3
:102E2000E0690243206A0243606A0243A06A0243E7
:102E300011432868016028680668012001F060FAE3
:102E400028680660E16A206B0143606B0143A06B58
:102E50000143E06B0143206C0143606C0143A06CB3
:102E600001432868416028684668012001F048FA5B
:102E700028684660E06C29688860206D2968C86011
:102E8000286881694FF641700140606DA26D52EA79
:102E90000042E06D0243206E0243606E0243A06E6A
:102EA000024311432868816128688669012001F086
:102EB00027FA28688661E16E206F01432868C161A6
:102EC0002868C469012001F01BFA2868C46110E079
:102ED0002868016831F49041AA68E8680243114308
:102EE0002868016028680468012001F009FA286850
:102EF0000460012085F84400002085F8450000208A
:102F000070BD78B5ADB004000020002905D04FF4A5
:102F10000060E0604FF48040A0600020109000202E
:102F20001190002012900020139000201490002097
:102F30001590E069002803D14FF48060169001E0FD
:102F4000002016904FF40070179000201890002079
:102F5000199000201A9000201B9000201C90402007
:102F60001D9000201E9000201F9000202090002027
:102F70002190002022900020239000202490002007
:102F80002590802026900020279000202890002067
:102F9000299000202A9000202B9000202C9020685F
:102FA0000168D3480140109A1198024312980243D5
:102FB00013980243A06802431498024315980243F1
:102FC000E068024316980243179802431898024398
:102FD000199802431A98024311432068016020683F
:102FE0000568012001F08CF9206805601B991C9888
:102FF00001431D9801431E9801431F9801432098E7
:1030000001432198014322980143206841602068D0
:103010004568012001F074F9206845602398216813
:10302000886024982168C860206881694FF64170E3
:1030300001402598269A52EA004227980243289890
:103040000243299802432A98024311432068816170
:1030500020688569012001F053F9206885612B996A
:103060002C9801432068C1612068C569012001F0E6
:1030700047F92068C561002000905FF00070019062
:10308000002102915FF400110391002104910021BD
:1030900005910021069100210791042108910990D2
:1030A0005FF480300A905FF480000B904FF4005082
:1030B0000C9080200D9000200E9000200F9041F287
:1030C0001805206841598B480140009A0198024335
:1030D000029802430398024304980243059802436E
:1030E0000698024307980243089802431143206858
:1030F000415120684659012001F002F920684651EB
:103100004FF4805509990A9801430B9801430C9894
:1031100001430D9801430E9851EA80010F98014335
:1031200051F400012068415120684659012001F006
:10313000E7F820684651A06901280CD141F21C0033
:103140002168095841F4803151F040012268115042
:103150006948FFF7B5F862690021200000F002F825
:103160002EB070BD5379107950EA0320634B5B1881
:103170001860D07893781B0453EA0063507853EAC0
:103180000023107803435E4841180B6070471CB55C
:103190000400002000902068006850F008002168BA
:1031A0000860206800680090012000F07AF800981C
:1031B0002168086013BD1CB5040000200090206841
:1031C000006830F0080021680860206800680090FE
:1031D000012000F066F800982168086013BD1CB556
:1031E0000400002000902068006850F0040021686E
:1031F0000860206800680090012000F052F80098F4
:103200002168086013BD1CB50400002000902068F0
:10321000006830F0040021680860206800680090B1
:10322000012000F03EF800982168086013BD41F2CB
:1032300018010268525852F4005200684250704718
:1032400041F218010268525832F4005200684250AC
:10325000704741F218010268525852F002020068A9
:103260004250704741F218010268525832F002028F
:1032700000684250704738B504000020009041F2C9
:1032800018052068405950F4801021684851206882
:1032900040590090012000F004F80098216848513E
:1032A00031BD81B017490968C9084FF47A72B1FB82
:1032B000F2F14843009000BF0098411E00910028A1
:1032C000F9D101B0704700000087930344380240F1
:1032D00004380140002D3101C0E1E400C00E1602A7
:1032E00040787D01005A620200E1F50580F0FA02A3
:1032F0000F8120FF233FDEF8BCE000084080024041
:10330000448002400400002070B504000025002025
:10331000002C01D10120C9E094F93C00002805D11E
:10332000002084F83D002000FFF7F4F8022084F824
:103330003C002068006830F00200216808602068C6
:10334000006850F001002168086001F071FF06007C
:1033500020684068C0070CD401F06AFF801B0B286E
:10336000F6D3032084F83C00002084F83D000320BD
:103370009CE020684068C00740F18B80A06901286C
:1033800006D12068006850F080002168086005E0E0
:103390002068006830F0800021680860E06901283A
:1033A00006D12068006850F040002168086005E000
:1033B0002068006830F0400021680860206A012819
:1033C00006D12068006850F020002168086005E000
:1033D0002068006830F0200021680860606A0128D9
:1033E00006D12068006850F010002168086005E0F0
:1033F0002068006830F0100021680860A06A012889
:1034000006D12068006850F008002168086005E0D7
:103410002068006830F0080021680860E06A012830
:1034200006D12068006850F004002168086005E0BB
:103430002068006830F0040021680860A168E06836
:10344000014320690143606901436068401E0143F4
:103450002068C16120680068400840002168086059
:1034600001F0E6FE060020684068C0070CD501F0B8
:10347000DFFE801B0B28F6D3032084F83C000020DD
:1034800084F83D00032011E020684068C00700D4A4
:103490000125012D06D100202064012084F83C0084
:1034A000002003E0042084F83C00012070BD30B40B
:1034B000002001204A6910FA02F2DFF86433D3F8E1
:1034C000000250F00100C3F80002D3F8000230F40B
:1034D0007C50C3F80002D3F800024C6A50EA042082
:1034E000C3F80002D3F81C029043C3F81C02C86959
:1034F000002816D1D3F80C029043C3F80C02486997
:1035000003EBC000CC684D68C5EA0444C0F84042F3
:10351000486903EBC0008C680D68C5EA0444C0F834
:103520004442C869012816D1D3F80C021043C3F8ED
:103530000C02486903EBC0000C684D68C5EA0444FE
:10354000C0F84042486903EBC0008C68CD68C5EA0A
:103550000444C0F844428869002805D1D3F8040225
:103560009043C3F8040204E0D3F804021043C3F804
:1035700004020869002804D1D3F814029043C3F868
:1035800014020869012804D1D3F814021043C3F8C7
:103590001402086A012804D1D3F81C020243C3F8BC
:1035A0001C22D3F8000240084000C3F800020020AB
:1035B00030BC7047F8B506000D00042000203068CC
:1035C0008068400108D430688068000104D4306805
:1035D0008068C00040F11E8196F93D00012801D1AC
:1035E00002201BE1012086F83D0096F93C002228CC
:1035F00004D0322806D0622808D00BE0422086F89A
:103600003C000AE0522086F83C0006E0722086F872
:103610003C0002E0122086F83C00306880684001DF
:1036200001D5002406E030688068000101D501243E
:1036300000E00224306821010844D0F8800110F035
:103640000100316822011144C1F88001306B8068AB
:10365000002811D1306821010844D0F88001316B75
:103660000968326BD26852EA415210433168220134
:103670001144C1F8800113E0306821010844D0F8FA
:103680008011306B4068326B926852EAC002306B36
:10369000C06802431143306822011044C0F8801111
:1036A000306B007C10F00F00316B08613068210135
:1036B0000844D0F884010009000131682201114456
:1036C000C1F88401306821010844D0F88411306BBE
:1036D00000690143306822011044C0F88411306B46
:1036E000C07D316B897D090451EA0061306B407DFA
:1036F00051EA0021306B007D014330682201104403
:10370000C0F88811306BC07E316B897E090451EAA4
:103710000061306B407E51EA0021306B007E014336
:10372000306822011044C0F88C113068210108442F
:10373000D0F8800150F00100316822011144C1F835
:10374000800101F075FD0700002C0AD1DFF87C0430
:10375000316889680140814201D1012018E00020D0
:1037600016E0012C0AD1DFF868043168896801404D
:10377000814201D101200BE0002009E0DFF8540470
:10378000316889680140814201D1012000E00020B8
:10379000002822D115F1010FD6D0002D04D001F060
:1037A00047FDC01B8542CFD2032086F83C00002C89
:1037B00003D18020316888600AE0012C04D14FF4E5
:1037C00000403168886003E05FF400003168886081
:1037D000002086F83D00032020E096F93C004228B6
:1037E00004D0522806D0722808D00BE0222086F898
:1037F0003C000AE0322086F83C0006E0622086F8B1
:103800003C0002E0012086F83C00002086F83D00E4
:10381000002003E0042086F83C000120F2BD0000F7
:10382000006400400A00D2B2002A11D190F93C2075
:10383000222A0BD090F93C20422A07D090F93C2054
:10384000622A03D090F93C20722A01D1022071E053
:103850000A00D2B2012A11D190F93C20322A0BD0B1
:1038600090F93C20522A07D090F93C20622A03D0DC
:1038700090F93C20722A01D102205BE090F93D20B2
:10388000012A01D1022055E0012280F83D200A00E2
:10389000D2B2002A18D190F93C20122A04D0322A40
:1038A00006D0522A08D00BE0422280F83C2023E0C8
:1038B000622280F83C201FE0722280F83C201BE04E
:1038C000222280F83C2017E090F93C20122A04D0F4
:1038D000222A06D0422A08D00BE0522280F83C204F
:1038E0000AE0622280F83C2006E0722280F83C2048
:1038F00002E0322280F83C20002202640268526911
:1039000042F40F4252F0010203685A61002280F82B
:103910003D20C9B2002906D10168496951F00A0168
:103920000068416105E00168496951F05001006893
:1039300041610020704738B50400002000200020BD
:1039400000252068C168090911F00101206840695B
:10395000C0F3C00010F00100002906D0002804D0F8
:1039600055F4007510202168C860206801690909B4
:1039700011F0010120684069C0F3801010F00100CF
:10398000002906D0002804D055F480651020216855
:10399000086120684069C0073DD58C482168896866
:1039A0000140814201D1012000E0002088492268C5
:1039B00092680A408A4201D1012100E00021854A33
:1039C00023689B681340934201D1012200E000224A
:1039D0000843104300281ED020688068400810F07B
:1039E000010021688968490A11F001012268926882
:1039F000520C12F0010208431043002803D02000AB
:103A000000F0EEF801E055F4006520688168724826
:103A10000143206881602068C16811F003012068BB
:103A20004069C0F3400010F00100002905D00028D3
:103A300003D00021200000F000F92068016911F096
:103A4000030120684069C0F3001010F00100002954
:103A500005D0002803D00121200000F0EEF8206CF2
:103A6000054325642068826912F0010220684069DC
:103A7000C0F3002111F0010120684069C0F3C0309B
:103A800010F00100002A07D0002905D0002803D03B
:103A9000206C50F00100206420688269520812F006
:103AA000010220684069C0F3402111F00101206843
:103AB0004069C0F3C03010F00100002A07D000298F
:103AC00005D0002803D0206C50F00200206420684C
:103AD0008269920812F0010220684069C0F38021D7
:103AE00011F0010120684069C0F3C03010F00100FE
:103AF000002A07D0002905D0002803D0206C50F000
:103B0000040020642068806910F0700F01D1012248
:103B100000E0002220684069C0F3C02111F00101DB
:103B200020684069C0F3C03010F00100002A38D18D
:103B3000002936D0002834D02068806910F0700049
:103B400010280AD020280DD0302810D0402813D0BB
:103B5000502816D0602819D01DE0206C50F00800C5
:103B6000206418E0206C50F01000206413E0206CFA
:103B700050F0200020640EE0206C50F040002064E3
:103B800009E0206C50F08000206404E0206C50F4C8
:103B900080702064FFE72068806930F07000216841
:103BA0008861206C00280ED0042021684860012024
:103BB00084F83C0020684169084801402068416160
:103BC000200005F083FF31BD000000000300000469
:103BD000000300080000031019050100A470FFFF96
:103BE00080B501684969490849000268516190F946
:103BF0003C10122905D10168496931F40F4102686E
:103C0000516190F93C10422904D0522906D0722902
:103C100008D00BE0222180F83C100AE0322180F825
:103C20003C1006E0622180F83C1002E0012180F89F
:103C30003C1005F04CFF002002BD10B50022002210
:103C40000A00D2B2002A01D1436B00E0836B026804
:103C50000C00E4B224012244D2F8B02112F0040294
:103C60009A609A68002A09D102680C00E4B2240123
:103C70002244D2F8B021520D1A6008E002680C000C
:103C8000E4B224012244D2F8B021D2085A6002687A
:103C90000C00E4B224012244D2F8B02112F0020256
:103CA000DA6002680C00E4B224012244D2F8B421A4
:103CB00012F00F021A610A00D2B21A6202680C00F6
:103CC000E4B224012244D2F8B421C2F30722DA611B
:103CD00002680C00E4B224012244D2F8B8211A751B
:103CE00002680C00E4B224012244D2F8B821120A7E
:103CF0005A7502680C00E4B224012244D2F8B821BB
:103D0000120C9A7502680C00E4B224012244D2F825
:103D1000B821120EDA7502680C00E4B224012244C4
:103D2000D2F8BC211A7602680C00E4B224012244C5
:103D3000D2F8BC21120A5A7602680C00E4B22401BF
:103D40002244D2F8BC21120C9A7602680C00E4B22C
:103D500024012244D2F8BC21120EDA760A00D2B233
:103D6000002A09D120220368DA600268526932F021
:103D70000A0203685A6108E0202203681A61026897
:103D8000526932F0500203685A6190F93C20222AAD
:103D900001D0322A05D10268526932F40F42036819
:103DA0005A61C9B2002918D190F93C10422904D0B7
:103DB000622906D0722908D00BE0122180F83C104D
:103DC00023E0322180F83C101FE0522180F83C10A3
:103DD0001BE0012180F83C1017E090F93C105229BB
:103DE00004D0622906D0722908D00BE0122180F895
:103DF0003C100AE0222180F83C1006E0422180F8C5
:103E00003C1002E0012180F83C10FCF719FD002075
:103E100010BD30B4002513E050F8042BD30744BF85
:103E2000A9F101039A18091F042942F8045BFAD288
:103E300013468C0744BF15809B1CC90748BF1D70E3
:103E400050F8041B0029E7D130BC704710B50400BE
:103E5000002C01D1012014E094F93900002805D18B
:103E6000002084F83800200000F05EF9022084F879
:103E70003900211D206800F0CEF8012084F83900B7
:103E8000002010BD0168C96851F001010268D160CD
:103E90000168096851F00101006801600020704765
:103EA00010B504002068006980071AD52068C06832
:103EB000800716D57FF00200216808610120207676
:103EC0002068806910F0030F03D0200005F000FE89
:103ED00005E0200005F0FDFD200005F0FBFD0020C1
:103EE00020762068006940071AD52068C06840071E
:103EF00016D57FF004002168086102202076206832
:103F0000806910F4407F03D0200005F0E1FD05E05A
:103F1000200005F0DEFD200005F0DCFD002020760D
:103F20002068006900071AD52068C068000716D508
:103F30007FF0080021680861042020762068C069AD
:103F400010F0030F03D0200005F0C2FD05E02000B3
:103F500005F0BFFD200005F0BDFD002020762068A3
:103F60000069C0061AD52068C068C00616D57FF063
:103F7000100021680861082020762068C06910F4CC
:103F8000407F03D0200005F0A3FD05E0200005F0F0
:103F9000A0FD200005F09EFD00202076206800692D
:103FA000C0070AD52068C068C00706D57FF00100A9
:103FB000216808612000FDF768F9206800690006A3
:103FC0000AD52068C068000606D57FF08000216809
:103FD0000861200005F07FFD2068006940060AD5D1
:103FE0002068C068400606D57FF04000216808615F
:103FF000200005F071FD2068006980060AD5206860
:10400000C068800606D57FF0200021680861200086
:1040100005F063FD10BD10B400220468DFF8DC3049
:10402000984212D0B0F1804F0FD0DFF8D4209042E8
:104030000BD0DFF8D020904207D0DFF8CC209042A0
:1040400003D0DFF8C820904201D1012200E0002215
:10405000D2B2002A03D034F070044A681443984264
:104060002AD0B0F1804F27D0DFF89420904223D09F
:10407000DFF8902090421FD0DFF88C2090421BD0B8
:10408000DFF88820904217D0DFF88420904213D0C8
:10409000DFF8802090420FD0DFF87C2090420BD0D8
:1040A000DFF87820904207D0DFF87420904203D0E8
:1040B000DFF87020904201D1012200E00022D2B24C
:1040C000002A03D034F44074CA68144304608A6838
:1040D000C2620A688262984203D0DFF830209042C0
:1040E00001D1012200E00022D2B2002A01D00969E8
:1040F00001630121416110BC7047000000000140D4
:104100000004004000080040000C00400004014092
:1041100000400140004401400048014000180040B8
:10412000001C0040002000407047B1F5807F02D3A2
:104130004FF0FF3070470170012070470078401E3B
:104140008041C043C00F704780B502F040FE644814
:104150000068002803D163480068002805D00022C9
:104160006149FA2000F038F802E000205F49086059
:1041700001BD80B55D49086800280ED15848006827
:10418000002803D157480068002806D001200860A5
:1041900000225549FA2000F01FF801BD38B504008F
:1041A00025006868804722005149286800F014F80B
:1041B00031BD10B5012408E04E4800EBC4024C4963
:1041C00050F8340000F008F8641C052CF4D300F01B
:1041D0005BFD4949086010BDF8B505000E001700E9
:1041E000062000F02FFA0400002C4BD000F04CFD0C
:1041F0000100424A1068002803D100203E4B19609C
:1042000003E03D480068091A080000212160A6600B
:10421000E760401960601068002801D1146031E047
:1042200010684068854208D210684068451B1068D5
:10423000456010682060146024E0106800E00068A9
:1042400000281FD0636841685B1A63600168002919
:1042500004D0616803685B689942F0D20168002964
:1042600006D001684A686168521A01684A6006E02F
:1042700061688D4203D2116849684D196560016813
:1042800021600460F1BD2DE9F8431C4C2068002832
:1042900023D000F0F9FC184D2E68861B00272168FA
:1042A000002917D04868864214D301272A68486835
:1042B00082182A604868361A08682060D1F8088099
:1042C000D1F80C90062000F0D1F94046002801D02A
:1042D0004846C047FFB2002FE0D1BDE8F18300009F
:1042E000807D0020847D002049410008A87D0020B9
:1042F0009D4100080CDF0008A47D0020A07D002067
:1043000031B500F095FF0400009D15F1010F00D0BC
:104310006D1C00F08DFF001BA842FAD331BD02686E
:10432000531C03601170704710B4AA4A11680388C7
:104330000B44984213D01979002910D1A649096875
:104340008B420CD0A5490C689C4200D108601988AA
:1043500001801168411A14681B8823445980116830
:1043600043880B4483420FD0197900290CD19B4913
:104370000C68844200D10B600188198011685B1AB7
:10438000116800880844438010BC704710B49149FC
:10439000934880088000086008684FF4205202802B
:1043A00000234380002303718B480B681344036090
:1043B00001230468237103681A800068428008683A
:1043C0008649086010BC704780B5002812D081492A
:1043D0000968884203D380490968884200D309E00C
:1043E0000838002101717D490A68904200D20860B6
:1043F000FFF79AFF01BDF0B40A0092B2D21C4FF64B
:10440000FC710A40110089B20C2900D20C22110063
:1044100089B242F60103994201D3002064E06D4B5A
:104420001968884203D36C490968884200D35BE06D
:10443000B0F108041D68651B2688290089B2761A28
:10444000083E3100170089B2BFB2B94201D2002044
:104450004AE01100370089B2BFB2B94244D01968AE
:1044600027880F44397900291FD139885219083219
:104470005A4ED6F800C0BC4505D11F6894461FFAB5
:104480008CFC674437601E681700BFB23E440027AB
:1044900037713180758022803188B1F5205F23D05B
:1044A0001968338819444A801EE0B6B2110089B2F7
:1044B00014318E4218D35219083219681600B6B258
:1044C0003144464E3768B94200D2316000260E7141
:1044D00026880E804D8022800C88B4F5205F03D0A2
:1044E0001B68098819444A80F0BC704770B4010009
:1044F000080080B2002801D1002069E089B2C91CFF
:104500004FF6FC700140080080B20C2800D20C214C
:10451000080080B242F60102904201D3002057E029
:104520002C4A2E4B18681468041B02E01068A4B2D1
:10453000045B200080B20D00ADB2D5F52055A84235
:1045400045D210682500ADB2054428790028EDD188
:104550002E88200080B2361A083E080080B28642BB
:10456000E4D32E88200080B2361A083E080080B2BC
:104570001430864216D30919083110680E00B6B2FD
:104580003044002606712E8806804480298001244C
:104590002C710488B4F5205F06D01468008820448C
:1045A000418001E001202871186885420CD119680A
:1045B00002E01068098801440879002803D0064801
:1045C00000688142F5D1196015F1080000E0002073
:1045D00070BC7047387D00203C7D0020407D00206D
:1045E000830200200021826811604268D21C920878
:1045F0009200002107E083681B68136083681A60DB
:1046000003881A44491C43889942F4DB704710B56B
:10461000002407E01D48210089B250F82100FFF76F
:10462000E1FF641C200080B20928F3D310BD010013
:1046300088680068002803D0026889680A6000E082
:104640000020704780B5010049B2092901DB002034
:1046500005E00E4940B251F82000FFF7E8FF02BD27
:10466000826812680A6080680160704780B5020045
:1046700052B2092A07DA002905D0044A40B252F89A
:104680002000FFF7EDFF01BD000000005CDF000827
:1046900070472DE9F84F04000D0016001F00DDF8EB
:1046A0002880DDF82C90DDF830A00020606000202C
:1046B000A0600020E060002084F833000421002284
:1046C00014F1240B584605F009FA032084F8280059
:1046D0000020E061C4F820803948017884F8361061
:1046E0000178491C0170C4F810A03B003200290079
:1046F000200000F00DF82000C847002801D000205D
:1047000004E030480168216004602000BDE8F28FB9
:10471000F8B505000C0016001F00002C02D0206820
:1047200000280CD12100280000F016F831002800E4
:1047300000F03BF83900280000F030F80BE03100C1
:10474000280000F032F83900280000F027F8210096
:10475000280000F001F8F1BD38B505000C00002C70
:1047600002D02068009002E018480068009000988D
:104770006968884211D06946281D03F071F86946BE
:10478000281D02F002FB002C01D1002000E020686F
:1047900068600121280000F02EF831BD002901D108
:1047A000002100E00968C1607047002901D10021A3
:1047B00000E00968816070470349086070470000A5
:1047C000167E0020687D00206C7D002090E20008AD
:1047D00080B590F83310C9070CD490F8331051F01D
:1047E000010180F8331090F83310490702D50321F6
:1047F00000F001F801BD80B5C90709D5416800295D
:1048000006D090F83310090702D5011D05F00FFE00
:1048100001BD80B590F83310C9070BD590F833105F
:1048200011F0FE0180F8331090F83310090701D51C
:1048300005F056FB01BD002800D0C16170470000A3
:1048400080B586B000200590DFF80005016851F0C2
:1048500000710160016811F0007105910599002156
:104860000591016851F080610160016811F080617B
:104870000591059900210591016851F000610160E1
:10488000016811F000610591059900210591016809
:1048900051F001010160016811F0010105910599D4
:1048A00000210591016851F004010160016811F0D7
:1048B00004010591059900210591016851F040011D
:1048C0000160016811F040010591059900210591F1
:1048D000016851F000710160016811F000710591EB
:1048E000059900210591016851F08061016001681E
:1048F00011F080610591059900210591016851F041
:1049000000610160006810F0006005900598322099
:1049100000900220019000200290032003900B20C1
:1049200004906946DFF8280400F0D4FC862000904B
:104930000220019000200290032003900B2004909D
:104940006946DFF8100400F0C5FC4FF4D040009039
:104950000220019000200290032003900B2004907D
:104960006946DFF8F40300F0B5FC002200213D2089
:10497000FDF7B9FB3D20FDF7C7FB07B000BD3EB515
:1049800004000020009001A8DFF8D013D1E9002333
:10499000C0E90023DFF8C853DFF8C803286001A886
:1049A0006861012068604FF48040A8604FF40060A7
:1049B000E8605FF4000028620120A8610020E8613F
:1049C000002028822800FDF71FFE00280AD1DFF80A
:1049D0009803FDF775FC94F8330050F0040084F858
:1049E000330003E0DFF88403FDF76AFC0423DFF8FB
:1049F0008023DFF880132800FDF72BFF0423DFF866
:104A00007823DFF878132800FDF761FF062084F88B
:104A10002C00022084F82D00002084F82E000020B5
:104A200084F82F00002084F83000002084F8310042
:104A3000002084F8320040F2DC50608594F83300A6
:104A400050F00A0084F833002800FEF777F96A4630
:104A500011212800FEF7F0F8009850F003000090B4
:104A6000009A11212800FEF729F96A461221280030
:104A7000FEF7E2F8009850F020000090009A122112
:104A80002800FEF71BF937BD2DE9F84FB44DE86A51
:104A9000D0F808B05FF00009002000200020EE6A86
:104AA0005FF0000A0C000DE03A00606800EB0801BE
:104AB0000BEB0A08404605F0C7FC17EB0A0A17EB98
:104AC00009092468002C32D03068002803D4678993
:104AD0005FF0000813E07FF007002DE0D6F808B083
:104AE000AAF2F450C71908F2F458B8EB0A0809F210
:104AF000F4594846D146B0EB09095FF0000A1AEBB9
:104B0000070040F2F5518842CED340F2F452B2EBA6
:104B10000A02606800EB0801D344584605F094FC93
:104B2000F66830680028D9D57FF0070004E04946D0
:104B30002800FDF70BFF002041F214012A685258AB
:104B4000920607D520222B685A5000212A6841F28C
:104B50000403D15040B2BDE8F28F2DE9F84F002593
:104B600000200020002000207D4E3000FDF785FF52
:104B7000002801D0002062E0F16BD6F840800800E8
:104B800080B2002805D0032289B2042005F0AFFCD2
:104B90000500002D36D0376B5FF0000A2C002AE0AC
:104BA00040F2F452B2EB0A0208EB0A01606800EB33
:104BB0000B08404605F048FCFF68D7F80880AAF2C9
:104BC000F45010EB09090BF2F45BBBEB0A0AD34675
:104BD0005FF0000A1AEB090040F2F5518842DFD27B
:104BE0004A4608EB0A0160688344584605F02CFCED
:104BF00019EB0A0A2468002C04D0B4F80A905FF07C
:104C0000000BE7E7306B002105E0026852F000423C
:104C10000260C068491CB26B9142F6D30020B063B9
:104C200041F2140031680958090607D5802132681D
:104C300011500020316841F2080288502800BDE878
:104C4000F28F38B505002800FFF787FF0400002C1D
:104C50000AD0290020002A69904740B2002803D0DA
:104C6000200005F0DBFD002031BD80B5732180F808
:104C70003410742180F83510414941614149816106
:104C8000FFF77DFE002002BD80B500F0D1FA02BD25
:104C90003EB50400002001900020009094F83300FD
:104CA00040074AD53848FDF70BFB2D4D68680028B2
:104CB00024D04FF4805200212800FDF7FFFF00F0C0
:104CC000B7FA01906A4601212800FDF7B5FF00F010
:104CD000AFFA0199401A40F2E93188420ED20098A9
:104CE0008006EFD56A4610212800FDF7A5FF009841
:104CF000400716D54FF40060E86014E0EA68D20877
:104D000092B2A868400880B2024300212800FDF753
:104D1000D5FF00212800FEF75BF82800FEF70EF80B
:104D20000EE00020E8600098800702D50020A8600F
:104D3000EFE74FF48040A860EBE70948FEF723F85F
:104D40002000FDF7EFFA37BD0000000030380240C8
:104D500000080240000002400018024060E2000823
:104D6000A479002000800240E0E00008F0E00008A4
:104D700064420020A8770020942A00202877002091
:104D8000DFA00008894A0008F8DF000890F9382001
:104D9000012A01D1022024E0012280F838200222D9
:104DA00080F839200268526832F0700203685A6055
:104DB000026853680A681343026853600268926885
:104DC00032F0800203689A600268926849680A4378
:104DD00001688A60012180F83910002180F83810BC
:104DE00000207047C11768B14840401AB0FA80F2FD
:104DF0009040D21CC907C2F5846241EA025202EB1C
:104E0000D021400570470000B0B581EA030C0CF0DA
:104E1000004C40F2FF7515EA11541DBF15EA1357F7
:104E2000AC42AF4239E0E41923EA455343F480131E
:104E3000C90241F0004141EA505EC7021100A7FBE0
:104E4000020200284FF00000EEFB01204FF00001AD
:104E5000E3FB072118BF42F001024018002149413D
:104E6000E3FB0E01A4F580640F0302D2520040411F
:104E7000494154F101046CDD470872F1004250F1E0
:104E8000000051EB0451A1F580115CBF41EA0C0117
:104E9000B0BD4CEA05510020B0BD05EA1357AC4245
:104EA00014BFAF4241E050EA410E1CBF52EA430E2C
:104EB00002E061460020B0BD24423C441BD15FEAC1
:104EC000070EF6D0090302BF01460020AEF1140E12
:104ED000B1FA81F7AEEB070401FA07FE0C37C7F110
:104EE000200100FA07F7C8404EEA000E23EA4553B6
:104EF00043F48013A2E733F00043B3FA83F704BF0F
:104F0000B2FA82FE77440B3FE41BB7F1200E2FBFAD
:104F100002FA0EF3BB40C7F1200E22FA0EFE38BF94
:104F200043EA0E03BA40641C82E750EA410E14BF04
:104F300052EA430E6FF000014FF4001717EB430FD6
:104F40008ABF194617EB410FB5E74CEA055100201F
:104F5000B0BDD4F10104B4F120070FDAC4F1200789
:104F6000520828BF42F0010210FA07F501FA07F7CC
:104F7000E1BF2A43E0403843E1400FE0352C98DCA4
:104F8000C7F1200452EA400220FA07F218BF42F0AB
:104F9000010231FA07F0A1400A43002172F10042F8
:104FA00050F1000051EB0C01B0BD0000F0B540F233
:104FB000FF7581EA030C0CF0004C15EA11541DBF7B
:104FC00015EA1357AC42AF42E5E0BC41C1F313010F
:104FD000C3F31303801A994143F4801304D2641E6F
:104FE0004000494180185941C90241EA5051B1FB82
:104FF000F3F603FB1611A2FB0675D7EBC020A941FF
:1050000002D2761E80185941C90241EA5051B1FBC3
:10501000F3FE03FB1E11A2FB0E75D7EBC020A941C6
:1050200003D2AEF1010E80185941890241EA905134
:10503000760546EA8E2EB1FBF3F603FB1611A2FBB2
:105040000675D7EB8020A94102D2761E80185941FF
:10505000C90241EA50514EEA060EB1FBF3F603FBDA
:105060001611A2FB0675D7EBC020A94102D2761E0D
:1050700080185941C90241EA5051B1FBF3F703FBD3
:105080001711A2FB0735D3EBC020A94167F1000738
:105090000CBF004247F0010766F3D5274FEA1E31E7
:1050A000B80814F5806412DDBD0775F1004250EBBD
:1050B0000E5051EB045111F5801F5CBF41EA0C0109
:1050C000F0BD4CF07F6141F0E0410020F0BDBD0734
:1050D0006D0840EA0E5041F48011D4F10104B4F19E
:1050E00020060ADAC4F120060200E04001FA06F3C5
:1050F000E1401843B24015430EE0342C13DCC6F1F6
:10510000200445EA40056D0820FA06F2154321FA0D
:1051100006F0A1400D43002175F1004250F100005E
:1051200051EB0C01F0BD00205FEA0C01F0BDCFB9DE
:1051300092185B41B3FA83F704BFB2FA82F6BF1943
:105140000B3FB7F120062FBF02FA06F3BB40C7F1B1
:10515000200622FA06F638BF3343BA401CB1E419E0
:10516000641E33E77F4231F00041B1FA81F404BF9D
:10517000B0FA80F6A4190B3CB4F120062FBF00FA58
:1051800006F1A140C4F1200620FA06F638BF3143EB
:10519000A0403C1B1AE7AC421ABF05EA1357AF42C6
:1051A00012E050EA41061CBF52EA4306BFE750EA4C
:1051B0004107304661461CBF41EA0551F0BD52EA45
:1051C000430C08BFC143F0BD00204FF4001616EB9E
:1051D000410F98BF16EB430F08BF16EB410F24BFDA
:1051E000C14305E016EB430F0CBF61464CEA055185
:1051F000F0BD0000C1F30A5340F2FE329B1A14DDE9
:10520000D3F120034FEAE17208DDC90241EA5051AF
:1052100041F00040D84080185040704703F2E13020
:1052200010B1D24382F00040704700207047000068
:1052300001480068704700BF707D002010B5040071
:10524000074800684FF47A71B0FBF1F0FCF761FF9A
:10525000002221005FF0FF30FCF745FF002010BD69
:105260000400002080B50320FCF739FF0022002154
:105270007FF00B00FCF737FF002200217FF00A00CF
:10528000FCF731FF002200217FF00900FCF72BFF23
:10529000002200217FF00400FCF725FF00220021FE
:1052A0007FF00300FCF71FFF002200217FF00100C8
:1052B000FCF719FF002200215FF0FF30FCF713FF1D
:1052C000002200210520FCF70EFF0520FCF71CFF43
:1052D00001BD0000F8B4002200220022002337E0C4
:1052E000082704E0DFF8C8219042F9D10727FFB270
:1052F00013F00302D2B2920097403E431A00920884
:1053000045F82260DFF8AC512A68A2434E68F603E4
:1053100000D522432A60DFF8A0512A68A2434E68D4
:10532000B60300D522432A60DFF890512A68A243D1
:105330004E68F60200D522432A60DFF884512A68BD
:10534000A2434E68B60201D5144322002A605B1CBA
:10535000102B80F0AB80012515FA03F20C68144085
:105360009442F4D14A68022A02D04A68122A17D11C
:105370001A00D20800EB8202166A0F2713F0070208
:10538000D2B292009740BE430F6913F00702D2B227
:10539000920097403E431A00D20800EB8202166248
:1053A000076803261A00D2B2520016FA02F2974397
:1053B00091F804C01CF0030C1A00D2B252001CFA7F
:1053C00002FC5CEA070707604A68012A08D04A68BD
:1053D000022A05D04A68112A02D04A68122A19D135
:1053E00087681A00D2B2520016FA02F29743D1F837
:1053F0000CC01A00D2B252001CFA02FC5CEA070789
:10540000876042689D40AA434D68C5F300159D40E2
:105410002A434260C5681A00D2B252009640B54392
:105420008E681A00D2B2520096403543C5604A6871
:10543000D2008CD500220092224A156855F480458E
:105440001560126812F480420092009A1E4D1A00F4
:10545000920855F822600F2713F00302D2B292008F
:105460009740BE43194A904201D100273FE7184AAE
:10547000904201D101273AE7164A904201D1022712
:1054800035E7154A904201D1032730E7134A90428D
:1054900001D104272BE7124A904201D1052726E7C4
:1054A000104A90427FF41EAF062720E7F1BC7047F8
:1054B000001C0240003C0140043C0140083C01400B
:1054C0000C3C0140443802400838014000000240D2
:1054D0000004024000080240000C0240001002409C
:1054E000001402400018024010B50400002C01D145
:1054F000012033E0A0690028FFD194F8390000288A
:1055000005D1002084F838002000FCF781FE24201B
:1055100084F839002068C06830F400502168C86001
:10552000200000F0C1F82068006930F49040216844
:1055300008612068406930F02A00216848612068CD
:10554000C06850F400502168C8600020E06320204B
:1055500084F83900202084F83A00002010BD2DE99D
:10556000FC4105000C0017001E00002095F83900D2
:1055700020285FD1002C03D0380080B2002801D150
:10558000012058E095F93800012801D1022052E0AD
:10559000012085F838000020E863212085F83900D3
:1055A000FFF746FE8046AF84EF8403E02078296849
:1055B0004860641CE88C002829D0E88C401EE884F0
:1055C000A868B0F5805F17D100964346002280217D
:1055D000280000F032F8002801D003202BE0200042
:1055E0000088C005C00D296848602869002801D1DD
:1055F000A41CDFE7641CDDE70096434600228021FF
:10560000280000F01AF80028D0D0032013E00096FC
:10561000434600224021280000F00FF8002801D066
:10562000032008E0202085F83900002085F83800A4
:10563000002000E00220BDE8F6812DE9F0410500E0
:105640000E0090461F00069C286800683040B0425B
:1056500001D1012000E00020414649B2884220D11A
:1056600014F1010FF0D0002C04D0FFF7E1FDC01BB6
:105670008442E9D22868C06830F4D0702968C860D4
:10568000286840694008400029684861202085F862
:105690003900202085F83A00002085F838000320E2
:1056A00000E00020BDE8F0812DE9F0410400002079
:1056B0002068016931F44051E068014320680161CC
:1056C0002068C168BA480140A26820690243606945
:1056D0000243E069024311432068C16020684169C8
:1056E00031F44071A069014320684161E069B0F57F
:1056F000004F40F0AE802068AE49884203D0206859
:10570000AD49884252D1FCF71BFC8046FCF718FCDF
:105710000500FCF715FC0600FCF712FC0700FCF77F
:105720000FFC6421192202FB08F863685B00B8FBD8
:10573000F3F35FF0640CB3FBFCF35543D4F804C0FF
:105740005FEA4C0CB5FBFCF55643D4F804C05FEAA5
:105750004C0CB6FBFCF65FF0640CB6FBFCF601FBF0
:105760001655ED0032356426B5FBF6F56D0015F4DF
:10577000F87515EB0315574363685B00B7FBF3F34C
:1057800002FB00F260684000B2FBF0F06422B0FB64
:10579000F2F001FB1031C80032306421B0FBF1F0AF
:1057A00010F00700451920688560FDE0FCF7B8FBA4
:1057B0008046FCF7B5FB0500FCF7B2FB0600FCF7E2
:1057C000AFFB0700FCF7ACFB6421192202FB08F8D1
:1057D00063685B00B8FBF3F35FF0640CB3FBFCF3AE
:1057E0005543D4F804C05FEA4C0CB5FBFCF55643B6
:1057F000D4F804C05FEA4C0CB6FBFCF65FF0640C16
:10580000B6FBFCF601FB1655ED0032356426B5FB00
:10581000F6F56D0015F4F87515EB0315574363683D
:105820005B00B7FBF3F302FB00F260684000B2FBE1
:10583000F0F06422B0FBF2F001FB1031C80032300E
:105840006421B0FBF1F010F0070045192068856075
:10585000AAE020685749884203D020685649884208
:1058600051D1FCF76DFB8046FCF76AFB0500FCF7A5
:1058700067FB0600FCF764FB0700FCF761FB642193
:10588000192202FB08F863689B00B8FBF3F35FF092
:10589000640CB3FBFCF35543D4F804C05FEA8C0CF2
:1058A000B5FBFCF55643D4F804C05FEA8C0CB6FB9C
:1058B000FCF65FF0640CB6FBFCF601FB16552D01FF
:1058C00032356426B5FBF6F515F0F00515EB03153A
:1058D000574363689B00B7FBF3F302FB00F2606879
:1058E0008000B2FBF0F06422B0FBF2F001FB10315B
:1058F000080132306421B0FBF1F010F00F004519BF
:105900002068856050E0FCF70BFB8046FCF708FB45
:105910000500FCF705FB0600FCF702FB0700FCF79F
:10592000FFFA6421192202FB08F863689B00B8FBA8
:10593000F3F35FF0640CB3FBFCF35543D4F804C0FD
:105940005FEA8C0CB5FBFCF55643D4F804C05FEA63
:105950008C0CB6FBFCF65FF0640CB6FBFCF601FBAE
:1059600016552D0132356426B5FBF6F515F0F00518
:1059700015EB0315574363689B00B7FBF3F302FB7A
:1059800000F260688000B2FBF0F06422B0FBF2F03D
:1059900001FB1031080132306421B0FBF1F010F04E
:1059A0000F00451920688560BDE8F0810000000007
:1059B000F369FFFF00100140001401402DE9F04F92
:1059C0000FF2A41CA1B0DCE90089CDE900892A9D71
:1059D000DFF8DC9B049100248DF843500D944FF0C8
:1059E000FF38824616461F460FE0B3462C461BF88A
:1059F000011B0498D0470028049000F0A2800D9865
:105A0000401C641E0D90F2D176193078252808D1FB
:105A1000002100220791089209910A920B910C92A1
:105A20000DE06A464146304605F086F8050001D192
:105A30000D98A1E0D9D50125E6E741F0010116F85E
:105A4000010F2028F9D023280CD02B2804D02D2892
:105A500005D0302809D076E041F00201EFE741F0AF
:105A60000401ECE741F00801E9E741F01001E6E745
:105A70000F9209E00F98484505DA00EB800402EB2D
:105A80004402303A0F92761C3278A2F130000A2894
:105A9000F0D330782E2818BFCDF8388022D116F8F0
:105AA000010F2A2807D138683860761C50F8042B7B
:105AB00038600E9216E02D280CBF761C00200022C4
:105AC0000E920AE040B90E9A4A4505DA02EB8204CA
:105AD00003EB4403303B0E93761C3378A3F1300282
