:020000040800F2
:100000002085002065F500088DF000088FF00008BD
:1000100091F0000893F0000895F00008000000003F
:1000200000000000000000000000000097F0000841
:1000300099F00008000000009BF000089DF0000807
:100040009DF60008A1F60008A5F60008A9F600082C
:10005000ADF60008A9F00008B1F60008B5F60008F2
:10006000B9F60008BDF60008C1F60008C5F600089C
:10007000C9F60008CDF60008D1F60008D5F600084C
:10008000D9F60008DDF60008E1F60008E5F60008FC
:10009000ABF00008E9F60008EDF60008F1F60008FC
:1000A000F5F60008F9F60008FDF6000801F700086B
:1000B000C9F00008BFF0000805F7000809F70008BC
:1000C0000DF7000811F7000815F7000819F70008E8
:1000D0001DF7000821F7000825F70008DDF00008EB
:1000E00029F700082DF7000831F7000835F7000858
:1000F00039F700083DF7000841F7000845F7000808
:1001000049F700084DF70008D3F0000851F7000840
:1001100055F7000859F700085DF7000861F7000877
:1001200065F7000869F700086DF7000871F7000827
:1001300075F70008B5F0000879F700087DF70008AA
:1001400081F7000885F7000889F700088DF7000897
:1001500091F7000895F7000899F700089DF7000847
:10016000A1F70008A5F70008A9F70008ADF70008F7
:10017000B1F70008B5F70008B9F700080000000063
:10018000BDF70008C1F7000880B592B000200090CC
:10019000DFF88006016851F080510160006810F0BE
:1001A00080500090009800200090DFF86C060168F5
:1001B00051F480410160006810F480400090009884
:1001C000012006905FF48030079002200C905FF4CD
:1001D00080000D9008200E904FF4A8700F90022020
:1001E00010900720119006A801F068FE0F200190E2
:1001F00002200290002003904FF4A05004904FF48E
:1002000080500590052101A802F012F802F0D1F803
:1002100002F0D3F86421B0FBF1F002F0CAF9042037
:1002200002F0CBF9002200215FF0FF3002F0ABF9C1
:1002300013B000BD10B502F021FAFFF7A5FF02F0E0
:10024000A3FA02F043FBDFF8D4452068C06850F001
:1002500002002168C86027A002F088FB2068C068FF
:1002600050F001002168C860200002F0AFFBDFF809
:10027000B00502F07BFB02F007FF00F097FADFF811
:10028000A40502F00FFF02F0D7FFDFF89C0503F092
:1002900013FB0021DFF8940504F094F90020DFF847
:1002A0009015088000F0DEFFDFF8880502F09CFB67
:1002B00001F00CF8DFF8800502F096FB04F035FD44
:1002C000DFF878050068002801D001F0C1FADFF8F6
:1002D00070050068401E322801D200F00DF801F0D0
:1002E000A3FCDFF8600500680028E7D001F0EAF819
:1002F000E4E70000360A00002DE9F047DFF840454A
:100300002168DFF8440502F031FBDFF84055DFF8E3
:1003100040052968405C012814D0022858D00328E1
:1003200000F09C80042800F0BD80112800F0FE80C1
:10033000122800F05C81132800F09D81142800F041
:10034000E08122E240F20166DFF8087539003000F2
:1003500002F0FBFF012004F025FD40F202683900A5
:10036000404602F0F2FF012004F01CFD40F2036958
:100370003900484602F0E9FF012004F013FD40F285
:10038000046A3900504602F0E0FF012004F00AFD43
:10039000DFF8C4743900300002F0D7FF012004F008
:1003A00001FD3900404602F0D0FF012004F0FAFCC4
:1003B0003900484602F0C9FF012004F0F3FC39007F
:1003C000504602F0C2FFDFF8940402F0CFFAE0E1F9
:1003D00040F20166DFF888743900300002F0B5FFA2
:1003E000012004F0DFFC40F202683900404602F0D0
:1003F000ACFF012004F0D6FC40F203693900484606
:1004000002F0A3FF012004F0CDFC40F2046A3900A1
:10041000504602F09AFF012004F0C4FCDFF8347467
:100420003900300002F091FF012004F0BBFC3900DC
:10043000404602F08AFF012004F0B4FC390048462F
:1004400002F083FF012004F0ADFC3900504602F0B9
:100450007CFFDFF8100402F089FA9AE1DFF8086403
:10046000310040F2016002F070FF012004F09AFCBC
:10047000310040F2026002F068FF012004F092FCBB
:10048000310040F2036002F060FF012004F08AFCBA
:10049000310040F2046002F058FFDFF8D00302F0B0
:1004A00065FA76E140F20166DFF8C4733900300086
:1004B00002F04BFF012004F075FC40F202683900A5
:1004C000404602F042FF012004F06CFC40F2036958
:1004D0003900484602F039FF012004F063FC40F285
:1004E000046A3900504602F030FF012004F05AFC43
:1004F000D84F3900300002F028FF012004F052FCF0
:100500003900404602F021FF012004F04BFC390085
:10051000484602F01AFF012004F044FC390050461E
:1005200002F013FFD34802F021FA32E1C94E40F243
:1005300005673100380002F008FF012004F032FCAA
:1005400040F206683100404602F0FFFE012004F050
:1005500029FC40F207693100484602F0F6FE01200E
:1005600004F020FC31004FF4C16002F0EEFE0120E7
:1005700004F018FCB84E3100380002F0E6FE01200D
:1005800004F010FC3100404602F0DFFE012004F0D0
:1005900009FC3100484602F0D8FE012004F002FCBC
:1005A00031004FF4C16002F0D0FE012004F0FAFBEC
:1005B000B14E3100380002F0C8FE012004F0F2FB19
:1005C0003100404602F0C1FE012004F0EBFB310097
:1005D000484602F0BAFE012004F0E4FB31004FF47B
:1005E000C16002F0B2FEA54802F0C0F9D1E09C4E15
:1005F00040F205673100380002F0A7FE012004F048
:10060000D1FB40F206683100404602F09EFE012018
:1006100004F0C8FB40F207693100484602F095FE3D
:10062000012004F0BFFB31004FF4C16002F08DFEE9
:10063000012004F0B7FB874E3100380002F085FE40
:10064000012004F0AFFB3100404602F07EFE0120A5
:1006500004F0A8FB3100484602F077FE012004F0C8
:10066000A1FB31004FF4C16002F06FFEDFF8E80B30
:1006700002F07CF98DE0DFF8E47B40F2056639009A
:10068000300002F062FE012004F08CFBDFF8D08B1A
:100690004146300002F059FE012004F083FB40F295
:1006A00006663900300002F050FE012004F07AFBAB
:1006B0004146300002F049FE012004F073FB40F295
:1006C00007663900300002F040FE012004F06AFBAA
:1006D0004146300002F039FE012004F063FB39008E
:1006E0004FF4C16002F031FE012004F05BFB414693
:1006F0004FF4C16002F029FEDFF8CC0B02F036F9AE
:1007000047E040F205675A4E3100380002F01DFE06
:10071000012004F047FB40F206683100404602F039
:1007200014FE012004F03EFB40F207693100484608
:1007300002F00BFE012004F035FB31004FF4C160E4
:1007400002F003FE012004F02DFB424E3100380080
:1007500002F0FBFD012004F025FB3100404602F0D1
:10076000F4FD012004F01EFB3100484602F0EDFDCF
:10077000012004F017FB31004FF4C16002F0E5FDE9
:10078000DFF8AC0B02F0F2F803E0DFF8A80B02F0A0
:10079000EDF82868401C322190FBF1F201FB1200B9
:1007A00028602068401E2060BDE8F08710B586B044
:1007B00004F048FB04F087FC002005900020049022
:1007C00000200390174CDFF8700B0290DFF86C0BE1
:1007D00001900020009003AB04AA05A9200004F0BA
:1007E000B4FC200004F044FD94F83300400707D522
:1007F000DFF84C0B02F0BAF8200004F045FD02E0EF
:10080000200004F062FDDFF8AC1C200004F06FFD56
:1008100006B010BD4038024000700040807C0020CF
:100820001CF30008347D0020747B0020BC7B00207A
:10083000CE800020F87C0020BC7C00208880002036
:10084000F07F002004800020E8F30008EC7F002007
:100850006C7D00200C0000201C000020A4F4000887
:100860001400002080F500082C0000208CF5000802
:1008700024000020B4F400084C000020C4F4000858
:1008800070B5DFF8C02ADFF8C01A4B6B1B685370D5
:100890004B6B1B681B0A1370002312E04C6B1D008E
:1008A000ADB22C44247D1D00ADB254554C6B1D00DF
:1008B000ADB22C44247DDFF8D45B1E00B6B2AC553B
:1008C0005B1C1C00A4B24D6B2D69AC42E6D3DFF873
:1008D000E82BDFF8B83B9C785D7855EA0425156075
:1008E000496B096840F28154091B16D0491E00F07B
:1008F0009C80491E00F02181491E00F0A681491EFE
:1009000000F02B82491E00F0BA82491E00F0498394
:10091000491E00F0D88300F067BC116842F203045E
:10092000A14204D11979DFF8942B11607CE01168A1
:10093000B1F5005F04D11979DFF8802B516073E0C5
:10094000116846F26004A14204D11979DFF86C2BDA
:10095000118169E0116846F26C04A14207D159790E
:100960001A7952EA0122DFF8541B4A815CE01168CF
:1009700046F27804A14207D159791A7952EA012244
:10098000DFF8381B8A814FE0116846F29104A142DA
:1009900007D159791A7952EA0122DFF8201B4A82DD
:1009A00042E0116842F20B04A1420CD1D9799A7944
:1009B00052EA01225C7954EA022419790C43DFF8E7
:1009C000FC1ACC6130E0116846F26B04A14207D1F9
:1009D00059791A7952EA0122DFF8E01A8A8223E073
:1009E000116846F26304A1420DD1D9799A7952EA8D
:1009F0000122597951EA02211A7952EA0122DFF8DB
:100A0000BC1A8A6110E0116846F2900291420BD143
:100A1000DFF8A81A096A1A79C2F30012914201D1CB
:100A2000012100E00021C9B2DEE3116842F20304B3
:100A3000A14204D11979DFF8882A11607CE011689D
:100A4000B1F5005F04D11979DFF8742A516073E0C1
:100A5000116846F26004A14204D11979DFF8602AD6
:100A6000118169E0116846F26C04A14207D15979FD
:100A70001A7952EA0122DFF8481A4A815CE01168CB
:100A800046F27804A14207D159791A7952EA012233
:100A9000DFF82C1A8A814FE0116846F29104A142D6
:100AA00007D159791A7952EA0122DFF8141A4A82D9
:100AB00042E0116842F20B04A1420CD1D9799A7933
:100AC00052EA01225C7954EA022419790C43DFF8D6
:100AD000F019CC6130E0116846F26B04A14207D1F5
:100AE00059791A7952EA0122DFF8D4198A8223E06F
:100AF000116846F26304A1420DD1D9799A7952EA7C
:100B00000122597951EA02211A7952EA0122DFF8C9
:100B1000B0198A6110E0116846F2900291420BD13F
:100B2000DFF89C19096A1A79C2F30012914201D1C7
:100B3000012100E00021C9B256E3116842F203042A
:100B4000A14204D11979DFF8442C11607CE01168CE
:100B5000B1F5005F04D11979DFF8302C516073E0F2
:100B6000116846F26004A14204D11979DFF81C2C07
:100B7000118169E0116846F26C04A14207D15979EC
:100B80001A7952EA0122DFF8041C4A815CE01168FC
:100B900046F27804A14207D159791A7952EA012222
:100BA000DFF8E81B8A814FE0116846F29104A14208
:100BB00007D159791A7952EA0122DFF8D01B4A820B
:100BC00042E0116842F20B04A1420CD1D9799A7922
:100BD00052EA01225C7954EA022419790C43DFF8C5
:100BE000AC1BCC6130E0116846F26B04A14207D126
:100BF00059791A7952EA0122DFF8901B8A8223E0A0
:100C0000116846F26304A1420DD1D9799A7952EA6A
:100C10000122597951EA02211A7952EA0122DFF8B8
:100C20006C1B8A6110E0116846F2900291420BD170
:100C3000DFF8581B096A1A79C2F30012914201D1F8
:100C4000012100E00021C9B2CEE2116842F20304A2
:100C5000A14204D11979DFF8E02B11607CE0116822
:100C6000B1F5005F04D11979DFF8CC2B516073E046
:100C7000116846F26004A14204D11979DFF8B82B5B
:100C8000118169E0116846F26C04A14207D15979DB
:100C90001A7952EA0122DFF8A01B4A815CE0116850
:100CA00046F27804A14207D159791A7952EA012211
:100CB000DFF8841B8A814FE0116846F29104A1425B
:100CC00007D159791A7952EA0122DFF86C1B4A825E
:100CD00042E0116842F20B04A1420CD1D9799A7911
:100CE00052EA01225C7954EA022419790C43DFF8B4
:100CF000481BCC6130E0116846F26B04A14207D179
:100D000059791A7952EA0122DFF82C1B8A8223E0F2
:100D1000116846F26304A1420DD1D9799A7952EA59
:100D20000122597951EA02211A7952EA0122DFF8A7
:100D3000081B8A6110E0116846F2900291420BD1C3
:100D4000DFF8F41A096A1A79C2F30012914201D14C
:100D5000012100E00021C9B246E2116842F2030419
:100D6000A14204D11979DFF8D42A116086E0116814
:100D7000B1F5005F04D11979DFF8C02A51607DE038
:100D8000116846F26004A14204D11979DFF8AC2A57
:100D9000118173E0116846F26C04A14207D15979C0
:100DA0001A7952EA0122DFF8941A4A8166E0116842
:100DB00046F27804A14207D159791A7952EA012200
:100DC000DFF8781A8A8159E0116846F29104A1424D
:100DD00007D159791A7952EA0122DFF8601A4A825A
:100DE0004CE0116842F20B04A1420CD1D9799A79F6
:100DF00052EA01225C7954EA022419790C43DFF8A3
:100E00003C1ACC613AE0116846F26B04A14207D16A
:100E100059791A7952EA0122DFF8201A8A822DE0E4
:100E2000116846F26304A1420DD1D9799A7952EA48
:100E30000122597951EA02211A7952EA0122DFF896
:100E4000FC198A611AE0116846F29004A1420CD1A3
:100E5000DFF8E819096A1A79C2F30012914201D148
:100E6000012100E00021C9B208E0116846F28902C0
:100E7000914203D11979DFF8C8291160B4E11168F2
:100E800042F20304A14204D11979DFF8B8291160B4
:100E900086E01168B1F5005F04D11979DFF8A42963
:100EA00051607DE0116846F26004A14204D11979D5
:100EB000DFF89029118173E0116846F26C04A142B9
:100EC00007D159791A7952EA0122DFF878194A8153
:100ED00066E0116846F27804A14207D159791A797F
:100EE00052EA0122DFF85C198A8159E0116846F262
:100EF0009104A14207D159791A7952EA0122DFF807
:100F000044194A824CE0116842F20B04A1420CD110
:100F1000D9799A7952EA01225C7954EA0224197942
:100F20000C43DFF82019CC613AE0116846F26B04FB
:100F3000A14207D159791A7952EA0122DFF804193E
:100F40008A822DE0116846F26304A1420DD1D9795D
:100F50009A7952EA0122597951EA02211A7952EA20
:100F60000122DFF8E0188A611AE0116846F2900465
:100F7000A1420CD1DFF8CC18096A1A79C2F3001229
:100F8000914201D1012100E00021C9B208E01168BD
:100F900046F28902914203D11979DFF8A02B116042
:100FA00022E1116842F20304A14204D11979DFF869
:100FB000902B116086E01168B1F5005F04D11979BA
:100FC000DFF87C2B51607DE0116846F26004A1429D
:100FD00004D11979DFF8682B118173E0116846F2AA
:100FE0006C04A14207D159791A7952EA0122DFF83B
:100FF000501B4A8166E0116846F27804A14207D18D
:1010000059791A7952EA0122DFF8341B8A8159E0B2
:10101000116846F29104A14207D159791A7952EA2E
:101020000122DFF81C1B4A824CE0116842F20B04DB
:10103000A1420CD1D9799A7952EA01225C7954EA19
:10104000022419790C43DFF8F81ACC613AE01168F0
:1010500046F26B04A14207D159791A7952EA01226A
:10106000DFF8DC1A8A822DE0116846F26304A1429F
:101070000DD1D9799A7952EA0122597951EA02219E
:101080001A7952EA0122DFF8B81A8A611AE0116867
:1010900046F29004A1420CD1DFF8A41A096A1A7929
:1010A000C2F30012914201D1012100E00021C9B236
:1010B00008E0116846F28902914203D11979DFF8FC
:1010C000602B116090E0116842F20304A14204D148
:1010D0001979DFF8502B116086E01168B1F5005FD7
:1010E00004D11979DFF83C2B51607DE0116846F29C
:1010F0006004A14204D11979DFF8282B118173E033
:10110000116846F26C04A14207D159791A7952EA62
:101110000122DFF8101B4A8166E0116846F278046C
:10112000A14207D159791A7952EA0122DFF8F41A5B
:101130008A8159E0116846F29104A14207D1597998
:101140001A7952EA0122DFF8DC1A4A824CE011686F
:1011500042F20B04A1420CD1D9799A7952EA0122C8
:101160005C7954EA022419790C43DFF8B81ACC618F
:101170003AE0116846F26B04A14207D159791A7915
:1011800052EA0122DFF89C1A8A822DE0116846F2A9
:101190006304A1420DD1D9799A7952EA0122597991
:1011A00051EA02211A7952EA0122DFF8781A8A619B
:1011B0001AE0116846F29004A1420CD1DFF8641ADB
:1011C000096A1A79C2F30012914201D1012100E0AB
:1011D0000021C9B208E0116846F28902914203D1A8
:1011E0001979DFF8A42A1160B449B54ADFF89C35B3
:1011F000DFF844460D6A166A56EA45061D6A55EA46
:101200004605266A56EA4506DFF8805A2E704D6874
:10121000566856EA45065D6855EA4605666856EA28
:101220004506DFF86C5A2E700989128952EA0112BC
:10123000DFF8601A0A701989228952EA0112DFF870
:101240007C1B0A70002103F0BDF970BD80B5DFF88A
:10125000700B04F056FA01BD98F500084400002018
:10126000540000201FB500200090DFF82C0A016810
:1012700051F001010160006810F001000090009839
:10128000DFF8404B5FF0804020604CF24F30E06070
:1012900040F61F506060002020610020A060200008
:1012A00001F078FB002001900020029001A92000AD
:1012B00004F0CCFA002201211C2001F064F91C206A
:1012C00001F072F91FBD0000D4F400081FB5002022
:1012D0000090DFF8C409016851F002010160006864
:1012E00010F0020000900098DFF8DC4ADFF8DC0A1A
:1012F00020604CF24F30E06040F28F606060002070
:1013000020610020A060200001F044FB002001903B
:101310000020029001A9200004F098FA0022022186
:101320001D2001F030F91D2001F03EF91FBD000025
:10133000FCF30008A4F500084DE400082B57000852
:10134000E4F40008C07A0020BC7B002038B5DFF848
:10135000781A884204D10120DFF8741A086094E0FA
:10136000DFF8601A884240F08080DFF8540A01F00C
:101370002CFFDFF8600A0168092972D1DFF8581ADA
:101380000A68121E322A11D2DFF8502A2123DFF810
:10139000504A1568635513685B1C322493FBF4F5BF
:1013A00004FB153313600A68521C0A600A68121E97
:1013B000322A11D2DFF8242A2223DFF8244A1568C2
:1013C000635513685B1C322493FBF4F504FB15335F
:1013D00013600A68521C0A600A68121E322A11D26F
:1013E000DFF8F8292323DFF8F849156863551368F7
:1013F0005B1C322493FBF4F504FB153313600A687D
:10140000521C0A600A68121E322A11D2DFF8CC2957
:101410002423DFF8CC491568635513685B1C32241C
:1014200093FBF4F504FB153313600A68521C0A6041
:101430000A68121E322A11D2DFF8A0292523DFF80C
:10144000A0491568635513685B1C322493FBF4F5BF
:1014500004FB153313600A68521C0A600021016006
:1014600013E00168491C01600FE0DFF87819884239
:101470000BD1DFF874090188B1F5004F03D14FF4A7
:101480000041018001E00321018031BDAC7F0020DB
:10149000DFF8501988420CD1DFF84C090188B1F50A
:1014A000004F03D04FF6FF71018002E04FF400417E
:1014B0000180704751570008C47F0020207E002023
:1014C000447E00202DE9F84F40F20164DFF81C59FA
:1014D0002900200001F039FF012003F063FC40F2F5
:1014E00002662900300001F030FF012003F05AFCB1
:1014F00040F203672900380001F027FF012003F0C4
:1015000051FC40F204682900404601F01EFF012012
:1015100003F048FCDFF8D8984946200001F015FF99
:10152000012003F03FFC4946300001F00EFF01208E
:1015300003F038FC4946380001F007FF012003F0B2
:1015400031FC4946404601F000FF012003F02AFC2F
:10155000DFF8A0984946200001F0F7FE012003F0D3
:1015600021FC4946300001F0F0FE012003F01AFC96
:101570004946380001F0E9FE012003F013FC49461A
:10158000404601F0E2FE012003F00CFCDFF8689811
:101590004946200001F0D9FE012003F003FC494632
:1015A000300001F0D2FE012003F0FCFB4946380078
:1015B00001F0CBFE012003F0F5FB4946404601F067
:1015C000C4FE012003F0EEFBDFF830A851462000F6
:1015D00001F0BBFE012003F0E5FB5146300001F0B5
:1015E000B4FE012003F0DEFB5146380001F0ADFEF1
:1015F000012003F0D7FB5146404601F0A6FE012032
:1016000003F0D0FBDFF8F8B75946200001F09DFE4B
:10161000012003F0C7FB5946300001F096FE01207F
:1016200003F0C0FB5946380001F08FFE012003F0A3
:10163000B9FB5946404601F088FE012003F0B2FB99
:1016400040F205642900200001F07FFE012003F034
:10165000A9FB40F206662900300001F076FE012069
:1016600003F0A0FB40F207672900380001F06DFE8F
:10167000012003F097FB29004FF4C16001F065FEE3
:10168000012003F08FFB4946200001F05EFE01209F
:1016900003F088FB4946300001F057FE012003F0BB
:1016A00081FB4946380001F050FE012003F07AFB2F
:1016B00049464FF4C16001F048FE012003F072FB7F
:1016C0005146200001F041FE012003F06BFB514622
:1016D000300001F03AFE012003F064FB514638006F
:1016E00001F033FE012003F05DFB51464FF4C16071
:1016F00001F02BFE012003F055FB5946200001F0BC
:1017000024FE012003F04EFB5946300001F01DFE7F
:10171000012003F047FB5946380001F016FE012076
:1017200003F040FB59464FF4C16001F00EFE01206A
:1017300003F038FBDFF8CC562900200001F005FE4D
:10174000012003F02FFB2900300001F0FEFD0120F5
:1017500003F028FB2900380001F0F7FD012003F019
:1017600021FB29004FF4C16001F0EFFD012003F0DF
:1017700019FB00F00DF80020DFF854160860DFF8C0
:10178000880601F0F3F8BDE8F18F0000687E0020C4
:1017900080B52DED028B9FED2C8BDFF870068069F4
:1017A00004F080F853EC182B04F08EF80022DFF8D8
:1017B000603604F05BF904F07DFADFF85816086033
:1017C000DFF85406806904F06DF853EC182B04F030
:1017D0007BF80022DFF8383604F048F904F06AFAA2
:1017E000DFF838160860DFF83806806904F05AF828
:1017F00053EC182B04F068F80022DFF8143604F0DC
:1018000035F904F057FADFF81C1608600A488069B9
:1018100004F048F853EC182B04F056F80022DFF8D7
:10182000F03504F023F904F045FADFF8FC15086000
:10183000BDEC028B01BD00008C7E0020B07E00203C
:10184000C87F0020D47E0020000000000080764089
:101850002DE9F84F40F20166DFF8D0452100300055
:1018600001F073FD40F202672100380001F06DFDC8
:1018700040F203682100404601F067FD012003F0BB
:1018800091FA40F204692100484601F05EFDDFF85C
:10189000A0552900300001F058FD2900380001F062
:1018A00054FD012003F07EFA2900404601F04DFD71
:1018B0002900484601F049FD0020DFF8CC130860FC
:1018C000DFF85C1308609D4E3060DFF868753860A3
:1018D00040F20568DFF860954946404601F035FD65
:1018E00040F2066A4946504601F02FFD40F2076B70
:1018F0004946584601F029FD012003F053FA4946B4
:101900004FF4C16001F021FDDFF83005DFF830153C
:101910008A69D21702608A69D217DFF828351A60FF
:101920008A69D217DFF820351A608969C917DFF88C
:101930001C2511600068002805D0DFF8141540460A
:1019400001F003FD04E0DFF80C15404601F0FDFC5A
:10195000DFF8F0040068002805D0DFF8F4145046E2
:1019600001F0F3FC04E0DFF8EC14504601F0EDFC6C
:10197000DFF8D4040068002805D0DFF8D4145846F6
:1019800001F0E3FC04E0DFF8CC14584601F0DDFC84
:10199000DFF8B8040068002806D0DFF8B4144FF46C
:1019A000C16001F0D2FC05E0DFF8A8144FF4C1607B
:1019B00001F0CBFC3868FE2820D0DFF89C144046AC
:1019C00001F0C3FC4946404601F0BFFC06E0494631
:1019D000404601F0BAFC0A2003F0E4F93868FE281A
:1019E000F5D12100404601F0B0FC2900404601F04D
:1019F000ACFCDFF86814404601F0A7FC3868FE280C
:101A000023D13068FE2820D0DFF84C14504601F076
:101A10009CFC4946504601F098FC06E04946504679
:101A200001F093FC0A2003F0BDF93868FE28F5D1D7
:101A30002100504601F089FC2900504601F085FC48
:101A4000DFF81814504601F080FC3868FE2827D1D2
:101A50003068FE2824D172480068FE2820D0DFF8C4
:101A6000F813584601F071FC4946584601F06DFCE8
:101A700006E04946584601F068FC0A2003F092F956
:101A80003868FE28F5D12100584601F05EFC290097
:101A9000584601F05AFCDFF8C413584601F055FCD3
:101AA0003868FE2831D13068FE282ED15C480068A5
:101AB000FE282AD174480068FE2826D0DFF8981343
:101AC0004FF4C16001F041FC49464FF4C16001F0A0
:101AD0003CFC07E049464FF4C16001F036FC0A20A7
:101AE00003F060F93868FE28F4D121004FF4C1609A
:101AF00001F02BFC29004FF4C16001F026FCDFF857
:101B00005C134FF4C16001F020FC3868FE2812D14C
:101B10003068FE280FD142480068FE280BD15A4891
:101B20000068FE2807D10120DFF834130870002078
:101B3000DFF830130860BDE8F18F0000CC7F002093
:101B4000F87E002038B5DFF82043A04226D1A64811
:101B50000188012904D04FF6FF72914209D00BE0B1
:101B6000022101800020C14908809E4800F02EFF1C
:101B700002E04FF400410180BC480288BC490B7868
:101B8000BC4D92B2AB540288521C02800020954A90
:101B9000126850620122200004F053F931BD38B5BB
:101BA0008D4C2168B44800F0E1FEB44D8C482968A2
:101BB000405CB3490860212807D024D3232810D0E3
:101BC00009D3252819D012D31DE001224321012079
:101BD00004F08BFC17E001221021012004F085FCA9
:101BE00011E001221421012004F07FFC0BE001220E
:101BF0000E21012004F079FC05E001220F210120D3
:101C000004F073FCFFE72868401C322190FBF1F2DE
:101C100001FB120028602068401E206031BD0000DA
:101C2000D07F00201C7F002038B56F4C2088B0F595
:101C3000004F04D1934800F099FE002020802088B6
:101C4000032813D1904800F091FE002505E0894853
:101C5000415D58A000F08AFE6D1C844800888542D2
:101C6000F5DB55A000F082FE00F018F8208800286F
:101C700008D159480068401E322803D2FFF78FFF71
:101C80000120208031BD0000D47F0020FF80002093
:101C9000FC800020F18000204038024070B57B4E6F
:101CA000744C724D2988891E200004F0FFFB30809F
:101CB0007748318889B23288120252EA11220280B2
:101CC000298889B2214411F8021C2A880088C9B2E7
:101CD00092B2224412F8012C52EA0122904261D1C0
:101CE000207801285AD16078032853D1A078C0B257
:101CF0002988491F884249D161480068212807D0B6
:101D000043D323281AD00ED3252833D027D33CE041
:101D1000604800F02BFEE078C0B2217951EA002142
:101D20005D48018041E05D4800F020FEE078C0B2EF
:101D3000217951EA00215848418036E0584800F0A6
:101D400015FEE0785449C0B2227952EA00228A8016
:101D5000888880000A2290FBF2F0888025E05148B4
:101D600000F004FEE078C0B2217951EA00214A482F
:101D7000C1801AE04C4800F0F9FDE078C0B221794A
:101D800051EA0021444801810FE00EE0474800F08D
:101D9000EDFD0AE0464800F0E9FD06E0454800F0A8
:101DA000E5FD02E0444800F0E1FD00200E49088016
:101DB00070BD0000257820000A000000F28000209D
:101DC000347D0020F87C0020BC7C00200004004012
:101DD0000480002008800020FC7F0020F47F002089
:101DE000A07D0020807C0020CE8000205C000020B0
:101DF000640000206C000020740000207C000020A3
:101E0000840000208C00002038F30008207E002091
:101E10000070B7408C800020447E0020908000201D
:101E2000687E00209480002098800020140000200C
:101E30000C000020C87F002094000020D87F0020E4
:101E4000B07E0020DC7F0020E07F0020E47F0020C7
:101E5000340000203C000020540000201C00002022
:101E60007E02002088800020407C0020C880002066
:101E7000EE800020F07100206CF30008F87F002055
:101E80000080002010F4000824F40008D280002014
:101E9000D0800020F4F40008A07F002084F3000824
:101EA00004F5000838F400084CF4000814F50008A4
:101EB00024F50008B0F50008BCF50008F8B50400EA
:101EC00000202078C0075CD5DFF83803016811F0E6
:101ED0000C01042909D0006810F00C0008280ED16C
:101EE000DFF824030068400209D5DFF8200300680A
:101EF000800346D56068002843D1012081E16068F5
:101F0000B0F5803F06D1DFF80403016851F4803159
:101F1000016017E06068B0F5A02F0AD1DFF8EC028D
:101F2000016851F480210160016851F48031016041
:101F300008E0B648016831F480310160016831F48D
:101F400080210160606800280DD004F017FB0500B7
:101F5000AE480068800314D404F010FB401B6528D1
:101F6000F6D303204DE104F009FB0500A748006803
:101F7000800306D504F002FB401B6528F6D303203E
:101F80003FE12078800722D59E48016811F00C0FB0
:101F900008D0006810F00C0008282FD19A4800687B
:101FA00040022BD499480168890704D5E1680129CA
:101FB00001D0012025E101685FF0F852B2FA82F207
:101FC00031F0F801236913FA02F21143016020781D
:101FD000000756D56069002842D001208C4908606E
:101FE00004F0CCFA05008B480068800749D404F05F
:101FF000C5FA401B0328F6D3032002E1E06800285D
:102000001DD001208449086004F0B8FA05007F481B
:102010000168890706D404F0B1FA401B0328F6D3FF
:102020000320EEE001685FF0F852B2FA82F231F07C
:10203000F801236913FA02F211430160C7E7002097
:102040007549086004F09AFA050070480068800736
:10205000BDD504F093FA401B0328F6D30320D0E04B
:1020600000206B49086004F089FA0500694800689F
:10207000800706D504F082FA401B0328F6D303201C
:10208000BFE0207840075FD50020009063480168DA
:1020900051F080510160006810F08050009000986D
:1020A0005F4E306850F48070306004F067FA0500CD
:1020B0003068C00506D404F061FA401B0328F7D34A
:1020C00003209EE0A068012805D15648016851F020
:1020D0000101016015E0A068052809D15148016897
:1020E00051F004010160016851F00101016008E054
:1020F0004C480168490849000160016831F0040159
:102100000160A06800280FD004F038FA05004548A7
:102110000068800718D404F031FA401B41F289317D
:102120008842F4D303206CE004F028FA05003D480F
:102130000068800708D504F021FA401B41F289317C
:102140008842F4D303205CE0A069002858D02D48D1
:10215000006810F00C00082850D0A06902283CD17B
:10216000314E0020306004F009FA0700274D28683E
:10217000800106D504F002FAC01B0328F6D3032021
:102180003FE02A48B0FA80F14FF44040B0FA80F2C4
:10219000F020B0FA80F3E769206A0743606A10FA1A
:1021A00001F13943A06A4008401E10FA02F21143BF
:1021B000E06A10FA03F3194313480160012030600C
:1021C00004F0DCF904002868800119D404F0D6F981
:1021D000001B0328F7D3032013E0002012490860F6
:1021E00004F0CCF9040009480068800108D504F027
:1021F000C5F9001B0328F6D3032002E0012000E00C
:102200000020F2BD08380240043802400038024085
:10221000800E474274380240000047424038024076
:102220000070004070380240600047420000FE032A
:102230002DE9F04104000D000020714E306810F0CF
:102240000F00A84207D23570306810F00F00A84286
:1022500001D00120ABE02078800706D569490A68E3
:1022600032F0F002A06802430A602078C00768D507
:102270006068012805D164480068800313D40120F8
:1022800095E06068022802D06068032805D15E48A6
:102290000068800107D4012089E05B48006880075E
:1022A00001D4012083E0574F3968890889006068AC
:1022B0000143396004F062F98046606801280ED15C
:1022C000386810F00C0004283BD004F057F9B0EB4C
:1022D000080041F289318842F2D3032067E0606848
:1022E00002280ED1386810F00C00082829D004F01C
:1022F00045F9B0EB080041F289318842F2D303205E
:1023000055E0606803280ED1386810F00C000C28E6
:1023100017D004F033F9B0EB080041F2893188425C
:10232000F2D3032043E0386810F00C0F09D004F01A
:1023300025F9B0EB080041F289318842F3D303203C
:1023400035E0306810F00F00854207D235703068F4
:1023500010F00F00A84201D0012028E020784007AB
:1023600006D528490A6832F4E052E06802430A6060
:102370002078000707D52348016831F460412269BD
:1023800051EAC201016000F049F81E4909685FF096
:102390007062B2FA82F21D4B11F0F001D140595C2B
:1023A000C8401B490860002004F0EEF80020BDE89A
:1023B000F081012017490860704715480068704790
:1023C00080B5FFF7FAFF0F4909685FF46012B2FAAF
:1023D00082F2114B11F4E051D140595CC84002BD6A
:1023E00080B5FFF7EAFF074909685FF4E022B2FA17
:1023F00082F2094B11F46041D140595CC84002BDE2
:10240000003C0240083802400038024034F5000821
:10241000040000204C0047426CF6000810B4002075
:102420000020002000201F48006810F00C00002849
:1024300004D0042804D0082804D030E01A482FE043
:102440001A482DE01A49086810F03F000A68520245
:102450000CD50B68174AB2FA82F4144AB2FBF0F2B8
:1024600047F6C0700340E3405A430BE00B68114A43
:10247000B2FA82F40C4AB2FBF0F247F6C0700340A5
:10248000E3405A4308684FF44041B1FA81F110F437
:102490004030C840401C4000B2FBF0F000E0024871
:1024A00010BC7047083802400024F40000127A0083
:1024B000043802400000FE0310F00700464B1A6883
:1024C0004FF6FF010A40454951EA00210A431A60CC
:1024D000704741480068C0F302207047012210F0A5
:1024E0001F018A403E4940B2400941F82020704710
:1024F000020052B2002A08D509013A4A40B210F04F
:102500000F00104400F8041C03E00901364A40B2F1
:102510001154704710B410F00700D0F10703052BD9
:1025200001D3042301E0D0F10703041D072C01D2DD
:10253000002000E0C01E012414FA03F35B1E1940C2
:10254000814014FA00F0401E1040084310BC704750
:1025500080B5411EB1F1807F01D301200EE0401E05
:10256000224908600F215FF0FF30FFF7C1FF002014
:102570001F49086007201F490860002002BD80B580
:10258000FFF79AFF01BD70B504000D001600002092
:10259000FFF79FFF32002900FFF7BCFF010020007A
:1025A00040B2FFF7A5FF70BD80B540B2FFF796FFC0
:1025B00001BD80B5FFF7CCFF02BD042805D10D4851
:1025C000016851F00401016004E00A48016831F03B
:1025D00004010160704700000CED00E00000FA0506
:1025E00000E100E018ED00E000E400E014E000E0AD
:1025F00018E000E010E000E080B500F001F801BD57
:102600007047F0B40246106895681318506803EBE1
:102610005004C0071DD54D441BE013F8017B05F89D
:10262000017B491EF9D1A0B1B60813F8011B06F0D1
:102630000306032E08BF13F8016B01EB0621494284
:10264000801C294405D011F8016B05F8016B401E70
:10265000F9D1A3420ED013F8016B16F0030104BFA9
:1026600013F8011BC91C30090F28DAD113F8010B2C
:102670000F30D6E7F0BC02F10C00704780B50B4874
:10268000016851F400710160016851F480610160DA
:10269000016851F4807101600320FFF770FF002092
:1026A00003F072FF03F084FF002002BD003C0240F3
:1026B00010B586B001687A4A91421AD1002005907F
:1026C0007848016851F010010160006810F01000B6
:1026D00005900598C02000900220019001200290F2
:1026E000032003900720049069466F4803F098FF89
:1026F00048E000686D49884244D1002005906C484C
:10270000016851F480210160006810F48020059078
:102710000598002005906748016851F0800101602C
:10272000006810F08000059005984FF480600090DC
:102730000220019003200390072004905A4C694620
:10274000200003F06DFF4FF4006000900220019024
:1027500000200290072004906946200003F060FFEB
:10276000554C00224FF48071200004F047F84FF4DC
:1027700080700090012001900220039069462000A3
:1027800003F04EFF06B010BD1CB500200090494874
:10279000016851F002010160006810F00200009031
:1027A000009846483E4901605FF4E13141600021F4
:1027B00081600021C160002101610C214161002183
:1027C00081610021C16103F093FA00200090384834
:1027D000016851F480210160006810F480200090AD
:1027E00000982BA000F0C2F8354C304820604FF420
:1027F000165060604FF48050A0600020E0604FF4FD
:10280000806020610C2060610020A0610020E061F8
:102810002C4800F0ABF8200003F06AFA1DA000F08D
:10282000A5F8002200212720FFF7ADFE2720FFF7A3
:10283000BBFE19A000F09AF801222349200003F002
:1028400000FB16A000F092F813BD70B504000D0057
:10285000194E01224FF48071300003F0CFFF4FF684
:10286000FF732A0092B22100154803F07CFA00227F
:102870004FF48071300003F0C1FF70BD01B54FF619
:10288000FF73012269460D4803F06DFA009802BDFE
:10289000310A0000320A0000330A0000340A000046
:1028A000001001404438024000040240004800404B
:1028B0004038024030380240001C0240007C0020BA
:1028C000407C00204CF60008EE80002018B58BB04C
:1028D000234C24482060532060600020A06040F614
:1028E0004660E060002020610821200000F08AF8A6
:1028F0004FF48050079007A9200000F095F9302090
:10290000009040F21A60019000200290082003908D
:1029100000200490002005900020069000226946C7
:10292000200000F052F90CB010BD80B500680D49D0
:10293000884213D1002000900B48016851F0080133
:102940000160006810F0080000900098002200214B
:102950003220FFF718FE3220FFF726FE01BD0000EF
:10296000807C0020000C0040403802400EB4C0B50E
:10297000024603A800210190009101AB0121044807
:1029800078440C3003F060FF06BC5DF810FB00BF1C
:102990000DCA000010B50400002C01D1012014E084
:1029A00094F93900002805D1002084F8380020006F
:1029B00000F069FB022084F83900211D206800F036
:1029C000BFF9012084F83900002010BD022180F8F1
:1029D00039100168096851F0010102681160012194
:1029E00080F83910002070470168C96851F0010172
:1029F0000268D1600168096851F001010068016056
:102A00000020704738B504000D00002C01D10120D2
:102A10001FE094F93900002805D1002084F838001F
:102A20002000FFF782FF022084F83900211D206872
:102A300000F086F92068006830F00800216808601E
:102A400020680068054320680560012084F839008B
:102A5000002032BD10B504002068006980071AD537
:102A60002068C068800716D57FF0020021680861E1
:102A7000012020762068806910F0030F03D0200029
:102A800004F085FE05E02000FEF702FD200004F0C2
:102A90007FFE002020762068006940071AD5206854
:102AA000C068400716D57FF0040021680861022045
:102AB00020762068806910F4407F03D0200004F065
:102AC00066FE05E02000FEF7E3FC200004F060FE57
:102AD000002020762068006900071AD52068C068A9
:102AE000000716D57FF008002168086104202076D1
:102AF0002068C06910F0030F03D0200004F047FEE7
:102B000005E02000FEF7C4FC200004F041FE002098
:102B1000207620680069C0061AD52068C068C00603
:102B200016D57FF010002168086108202076206803
:102B3000C06910F4407F03D0200004F028FE05E0B7
:102B40002000FEF7A5FC200004F022FE00202076E5
:102B500020680069C0070AD52068C068C00706D58C
:102B60007FF00100216808612000FEF7EFFB20687C
:102B7000006900060AD52068C068000606D57FF007
:102B8000800021680861200004F003FE20680069CD
:102B900040060AD52068C068400606D57FF0400090
:102BA00021680861200004F0F5FD206800698006B6
:102BB0000AD52068C068800606D57FF0200021680D
:102BC0000861200004F0E7FD10BD10B5040094F981
:102BD0003800012801D1022025E0012084F83800C6
:102BE000022084F83900002A06D0042A08D0082AD6
:102BF0000AD00C2A0CD00FE0206800F04EF90BE050
:102C0000206800F00FF907E0206800F07CF903E08D
:102C1000206800F0B2F9FFE7012084F839000020B5
:102C200084F83800002010BD10B50400002094F98D
:102C30003800012801D1022081E0012084F8380009
:102C4000022084F839002068806830F0770030F482
:102C50007F40226890600868002855D0102858D01E
:102C600020285BD030285ED0402843D050282DD07B
:102C7000602835D070280DD0B0F5805F03D0B0F556
:102C8000005F16D054E020688068C008C00021684A
:102C900088604DE0CB684A688968206800F0E7F9F1
:102CA0002068806830F0770050F0770021688860F5
:102CB0003EE0CB684A688968206800F0D8F920684F
:102CC000806850F480402168886031E0CA684968B3
:102CD000206800F099F95021206800F0BEF927E043
:102CE000CA684968206800F0A3F96021206800F0F4
:102CF000B4F91DE0CA684968206800F085F94021F0
:102D0000206800F0AAF913E00021206800F0A5F97E
:102D10000EE01021206800F0A0F909E020212068D1
:102D200000F09BF904E03021206800F096F9FFE7FD
:102D3000012084F83900002084F83800002010BDFC
:102D400010B400220468DFF89432984212D0B0F137
:102D5000804F0FD0DFF8882290420BD0DFF884221A
:102D6000904207D0DFF88022904203D0DFF87C2227
:102D7000904201D1012200E00022D2B2002A03D009
:102D800034F070044A68144398422AD0B0F1804F5E
:102D900027D0DFF84C22904223D0DFF8482290421F
:102DA0001FD0DFF8442290421BD0DFF8402290422F
:102DB00017D0DFF83C22904213D0DFF8382290423F
:102DC0000FD0DFF8342290420BD0DFF8302290424F
:102DD00007D0DFF82C22904203D0DFF8282290425F
:102DE00001D1012200E00022D2B2002A03D034F443
:102DF0004074CA68144304608A68C2620A688262C6
:102E0000984203D0DFF8E421904201D1012200E092
:102E10000022D2B2002A01D0096901630121416177
:102E200010BC704730B4002200220022026A32F047
:102E300010020262046A4568836933F4E04333F4A4
:102E400040730A6853EA022334F020048A6854EA83
:102E50000214624A904202D0644A904201D1012297
:102E600000E00022D2B2002A10D034F08004CA68F8
:102E700054EA021434F0400435F4806535F40065FA
:102E80004A6955EA82058A6955EA82054560836187
:102E900049688163046230BC704730B4002200226C
:102EA0000022026A520852000262046A456883697D
:102EB00033F070039B089B000A68134334F002044C
:102EC0008A681443454A904202D0484A904201D150
:102ED000012200E00022D2B2002A0DD034F0080412
:102EE000CA68144334F0040435F4807535F4007571
:102EF0004A6915438A69154345608361496841639E
:102F0000046230BC704730B4002200220022026A02
:102F100032F480720262046A4568C36933F0700358
:102F20009B089B000A68134334F400748A6854EACF
:102F300002242A4A904202D02C4A904201D1012216
:102F400000E00022D2B2002A10D034F40064CA6833
:102F500054EA022434F4806435F4805535F4005585
:102F60004A6955EA02158A6955EA02154560C36146
:102F70004968C163046230BC704730B4002200224B
:102F80000022026A32F480520262046A4568C36910
:102F900033F4E04333F440730A6853EA022334F411
:102FA00000548A6854EA02340C4A904202D00F4A14
:102FB000904201D1012200E00022D2B2002A04D0C6
:102FC00035F480454A6955EA82154560C361496810
:102FD0000164046230BC7047000000000000014042
:102FE0000004004000080040000C004000040140C4
:102FF00000400140004401400048014000180040EA
:10300000001C00400020004010B400230023046A8C
:10301000036A5B085B000362836933F0F00353EAE1
:10302000021334F00A0421438361016210BC70472B
:1030300010B400230023036A33F010030362836992
:10304000046A33F4704353EA023334F0A00454EAC0
:1030500001148361046210BC70470022826832F060
:10306000700289B251F0070111438160704710B4BA
:103070000024846834F47F44114351EA032121433E
:10308000816010BC7047704780B501F0DBFE02F034
:103090001AF802F059F804F07FFB04F0E1FD01F0AA
:1030A000DAFD01BD80B590F83300C00703D50120DB
:1030B0005249087005E00520504908705048FFF754
:1030C00055FC01BD10B5040094F83300400709D544
:1030D0004C48FFF74BFC012048490870200002F0E3
:1030E000D3F808E0052045490870200002F0EDF80B
:1030F0004348FFF73BFC10BD70B588B004003F4D5E
:103100002878012804D0022811D0052855D05AE08B
:10311000002060600020A0600020E0600220287095
:10312000200005F036FD3848FFF720FC4BE020007A
:1031300006F0E7FB002816D003202870201D06F0BB
:1031400019FC02002CA103A806F06AFC03A92F4871
:10315000FFF70CFC01202E4908702E48FFF706FCF3
:1031600006F08BFC28E0666AB17A2B48FFF7FEFB7D
:10317000B07A052820DB04202870200006F028F80B
:10318000264802907FF07F400190254800906B46D2
:1031900001AA02A9200002F017F8201D06F0EAFBA0
:1031A000020015A103A806F03BFC1E48FFF7DEFB5A
:1031B00003A91D48FFF7DAFB05E0200006F008F838
:1031C00000202870FFE708B070BD38B5040003F098
:1031D000D5F9164D2968401AB0F5FA7F0BD314487B
:1031E00002F08FFA03F0CAF928601248FFF7BEFB1D
:1031F0002000FFF781FF31BD25730000EC80002027
:103200009CF10008C4F10008ECF1000870F100081E
:10321000ED800020C0F3000874F50008C0A8006528
:10322000C0A80001D4F3000854F30008B47F0020C4
:10323000347D002074F4000810B58AB0524C534815
:10324000206053482063534860630620606000207C
:10325000A0600020E0605FF4A02020615FF4C00067
:1032600060610020A0610120E06101202062002057
:1032700060620020A0620020E062200000F014FFE5
:10328000002005900020069001200790002000906B
:103290000020019000200290002003900020049064
:1032A000012008900E2009906946200000F0CFFF11
:1032B0000AB010BD10B586B000683449884242D1CA
:1032C000002000903448016851F0007101600068EE
:1032D00010F0007000900098002000902F480168C6
:1032E00051F480710160016811F4807100910099BE
:1032F00000210091016851F002010160006810F0A6
:103300000200009000984FF4007401940220029093
:10331000002003900920059001A9214803F080F9BD
:10332000019402200290022004900920059001A936
:103330001C4803F075F9002200211420FFF723F93F
:103340001420FFF731F906B010BD10B50E4A136B0B
:1033500018600020136B98600020136BD860082061
:10336000136B1861002005E00B78146B044423757F
:10337000491C401C136B1B699842F5D302211000B5
:1033800000F0E8FF10BD0000BC7B0020006400409E
:10339000407F0020FC7D0020403802403038024051
:1033A00000040240002002402DE9FC4104000020FE
:1033B00000200090DFF8B06C300000200025002CC9
:1033C00001D1012013E194F84400002805D1002028
:1033D00084F84500200001F093FF00200190DFF801
:1033E0008C0C016851F480410160006810F4804049
:1033F00001900198DFF8781C086830F4000008603C
:103400000A68206A02430A604FF480572068C05956
:1034100050F001002168C85103F0B0F880462068E0
:10342000C059C0070FD503F0A9F8B0EB080040F26F
:10343000F5118842F3D3032084F84400002084F877
:1034400045000320D3E02068076937F01C07FEF72A
:10345000B4FFDFF8201C411ADFF81C2C914202D285
:1034600057F008071AE0DFF8141C411ADFF8102C97
:10347000914202D257F00C0710E0861BDFF8041CC3
:103480008E420BD3DFF8001C401ADFF8001C884284
:1034900002D257F0040701E057F0100720680761D7
:1034A0004FF400420021200000F0D8FA002808D094
:1034B0000121200000F0F5FB012084F844000120E8
:1034C00095E0FF2001F06EFC606800286DD003F0ED
:1034D00055F807006A460121200000F07DFA41F20C
:1034E000893603F04BF8C01BB04213D20098400756
:1034F000F0D54FF480520021200000F0AFFA0028F0
:1035000014D00121200000F0CCFB012084F84400FD
:1035100001206CE00121200000F0C3FB012084F8B1
:103520004400002084F84500032060E003F026F802
:1035300007006A460121200000F04EFA03F01EF851
:10354000C01BB04212D200988006F2D56A46102104
:10355000200000F041FA002814D00121200000F0E2
:10356000A0FB012084F84400012040E0012120005C
:1035700000F097FB012084F84400002084F8450007
:10358000032034E00098400703D54FF40060E0606A
:1035900001E00020E0600098800702D50020A060D4
:1035A0001DE04FF48040A06019E0E268D20892B2BA
:1035B000A068400880B202430021200000F04EFACB
:1035C000002808D00121200000F06BFB012084F8C6
:1035D000440001200BE040F6FF7001F0E3FB2900FE
:1035E000200000F05EFB012084F844000020BDE8CC
:1035F000F68170B40400002094F94500012801D13F
:10360000022032E0012084F84500022084F84400C2
:10361000E16200251CE0F16019E0680101EB0006A1
:103620005FF48010306040F2F45000FB05F010446D
:10363000B060E069002803D1306850F44000306089
:10364000581E8542E7D2680108442030F0606D1CA6
:103650009D42E2D3206841F210028150012084F89B
:103660004400002084F84500002070BC704770B40E
:10367000002490F94540012C01D1022034E00124BE
:1036800080F84540022480F84440816200241EE016
:10369000E9601BE065010D445FF000462E6044F2D6
:1036A000F4566E6040F2F45606FB04F61644AE6023
:1036B0008669012E03D16E6826F000466E605E1E9C
:1036C000B442E5D266010E442036EE60641C9C4292
:1036D000E0D3026841F20C03D150012180F844107C
:1036E000002180F84510002070BC704770B40200C3
:1036F00000200020002092F94500012801D102207D
:1037000089E0012082F84500022082F84400002967
:1037100007D1012082F84400002082F845000120F2
:1037200079E0D06A0068002807D5122082F84400AA
:10373000002082F8450001206DE040F2F550814202
:103740000DD340F2F450B1FBF0F340F2F450B1FB72
:10375000F0F400FB1410002802D05B1C00E00123F1
:10376000012B13D1D06A006850F04050D36A186022
:10377000C904C90CD06A4160D06A006850F00040AA
:10378000D16A0860D06AC068D0622FE000202BE0C8
:10379000D46A246834F04054D56A2C60002805D1DE
:1037A000D46A246854F08054D56A2C6040F2F455F1
:1037B000D46A65605C1EA0420CD1D46A246854F0BF
:1037C0000054D66A34605C1E05FB1414E404E40C57
:1037D000D56A6C60D46A246854F00044D56A2C60C1
:1037E000D46AE468D462401C9842D1D341F21400F8
:1037F00011680958490707D504211368195000209A
:10380000116841F20403C850012082F844000020EE
:1038100082F84500002070BC7047002190F94510E7
:10382000012901D1022046E0012180F84510022142
:1038300080F84410816A0968002935D4816A0968D2
:10384000C9051DD5816B491C8163816B012901D19B
:10385000816A0163816A4163816A0968C1F30D412C
:10386000091FC163016B89680164816AC96881624B
:10387000012180F84410002180F8451000201AE052
:10388000816A0968890509D5816A0163002141635C
:1038900001218163816AC968816205E0816B491CED
:1038A0008163816AC9688162012180F84410002126
:1038B00080F8451001207047002190F94520012A29
:1038C00001D102204CE0012280F84520022280F83C
:1038D000442006E0826A026301228263826AD2681F
:1038E0008262826A1268002A33D4042931D2491CC8
:1038F000826A126812F44072B2F5007FEAD0826ADE
:10390000126812F4407F06D1826B521C8263826A75
:10391000D2688262E5E7816A4163816B491C8163F9
:10392000816B012901D1816A0163816A0968C1F350
:103930000D41091FC163016B89680164816AC9680F
:103940008162012180F84410002180F84510002098
:1039500006E0012180F84410002180F84510012084
:10396000704738B5040041F21405206840594006FC
:103970000CD52000FDF76AFC402021684851012049
:1039800084F84400002084F845000FE02068405986
:10399000C0070BD5200007F0FDF801202168485131
:1039A000012084F84400002084F845005FF4803052
:1039B000216848512068405900040CD5200007F0C8
:1039C000EAF84FF4004021684851012084F844008F
:1039D000002084F8450031BDF8B504000E00150044
:1039E0000020002094F84400822801D1022034E015
:1039F000822084F844002068006910F01C00218AAD
:103A0000C90211F478410843B6B2B60116F4F8665B
:103A1000064336F0020656F001062068066102F001
:103A2000ADFD070001E020680669F0070DD502F042
:103A3000A5FDC01BB0F5803FF5D3012084F84400FC
:103A4000002084F84500032007E02068406980B228
:103A50002860012084F844000020F2BD70B5040005
:103A60000D000020002094F84400422801D10220DB
:103A700033E0422084F844002068006910F01C0004
:103A8000218AC90211F478410843ADB2AD0115F4A1
:103A9000F865054355F0020555F0010592B220681E
:103AA00042612068056102F069FD060001E02068BE
:103AB0000569E8070DD502F061FD801BB0F5803F78
:103AC000F5D3012084F84400002084F84500032049
:103AD00003E0012084F84400002070BD10B504000C
:103AE00094F94500012801D102201BE0012084F84F
:103AF0004500022084F84400200000F018FA20005D
:103B000000F03DFA200000F086FA200000F05FFA95
:103B1000200000F06EFA012084F84400002084F8B0
:103B20004500002010BD10B5040094F9450001289F
:103B300001D102201BE0012084F84500022084F816
:103B40004400200000F04CFA200000F05BFA200056
:103B500000F029FA200000F05EFA200000F0FBF9E6
:103B6000012084F84400002084F84500002010BDA6
:103B700070B505000C00002095F94500012801D121
:103B800002208DE0012085F84500022085F84400E0
:103B9000002C6DD028680168DFF8F4040140226829
:103BA00060680243A0680243E0680243A8680243D9
:103BB0002069024360690243E8680243A069024346
:103BC000E0690243206A0243606A0243A06A02433A
:103BD00011432868016028680668012001F0E2F8B6
:103BE00028680660E16A206B0143606B0143A06BAB
:103BF0000143E06B0143206C0143606C0143A06C06
:103C000001432868416028684668012001F0CAF82D
:103C100028684660E06C29688860206D2968C86063
:103C2000286881694FF641700140606DA26D52EACB
:103C30000042E06D0243206E0243606E0243A06EBC
:103C4000024311432868816128688669012001F0D8
:103C5000A9F828688661E16E206F01432868C16178
:103C60002868C469012001F09DF82868C46110E04B
:103C70002868016831F49041AA68E868024311435A
:103C80002868016028680468012001F08BF8286822
:103C90000460012085F84400002085F845000020DC
:103CA00070BD78B5ADB004000020002905D04FF4F8
:103CB0000060E0604FF48040A06000201090002081
:103CC00011900020129000201390002014900020EA
:103CD0001590E069002803D14FF48060169001E050
:103CE000002016904FF400701790002018900020CC
:103CF000199000201A9000201B9000201C9040205A
:103D00001D9000201E9000201F9000202090002079
:103D10002190002022900020239000202490002059
:103D200025908020269000202790002028900020B9
:103D3000299000202A9000202B9000202C902068B1
:103D40000168D3480140109A119802431298024327
:103D500013980243A0680243149802431598024343
:103D6000E0680243169802431798024318980243EA
:103D7000199802431A980243114320680160206891
:103D80000568012001F00EF8206805601B991C9859
:103D900001431D9801431E9801431F980143209839
:103DA0000143219801432298014320684160206823
:103DB0004568012000F0F6FF2068456023982168DF
:103DC000886024982168C860206881694FF6417036
:103DD00001402598269A52EA0042279802432898E3
:103DE0000243299802432A980243114320688161C3
:103DF00020688569012000F0D5FF206885612B9936
:103E00002C9801432068C1612068C569012000F039
:103E1000C9FF2068C561002000905FF0007001902C
:103E2000002102915FF4001103910021049100210F
:103E30000591002106910021079104210891099024
:103E40005FF480300A905FF480000B904FF40050D4
:103E50000C9080200D9000200E9000200F9041F2D9
:103E60001805206841598B480140009A0198024387
:103E700002980243039802430498024305980243C0
:103E800006980243079802430898024311432068AA
:103E9000415120684659012000F084FF20684651B6
:103EA0004FF4805509990A9801430B9801430C98E7
:103EB00001430D9801430E9851EA80010F98014388
:103EC00051F400012068415120684659012000F05A
:103ED00069FF20684651A06901280CD141F21C00FD
:103EE0002168095841F4803151F040012268115095
:103EF0006948FEF73BFD62690021200000F002F8EE
:103F00002EB070BD5379107950EA0320634B5B18D3
:103F10001860D07893781B0453EA0063507853EA12
:103F20000023107803435E4841180B6070471CB5AE
:103F30000400002000902068006850F0080021680C
:103F40000860206800680090012000F07AF800986E
:103F50002168086013BD1CB5040000200090206893
:103F6000006830F008002168086020680068009050
:103F7000012000F066F800982168086013BD1CB5A8
:103F80000400002000902068006850F004002168C0
:103F90000860206800680090012000F052F8009846
:103FA0002168086013BD1CB5040000200090206843
:103FB000006830F004002168086020680068009004
:103FC000012000F03EF800982168086013BD41F21E
:103FD00018010268525852F400520068425070476B
:103FE00041F218010268525832F4005200684250FF
:103FF000704741F218010268525852F002020068FC
:104000004250704741F218010268525832F00202E1
:1040100000684250704738B504000020009041F21B
:1040200018052068405950F48010216848512068D4
:1040300040590090012000F004F800982168485190
:1040400031BD81B017490968C9084FF47A72B1FBD4
:10405000F2F14843009000BF0098411E00910028F3
:10406000F9D101B070470000008793034438024043
:1040700004380140002D3101C0E1E400C00E1602F9
:1040800040787D01005A620200E1F50580F0FA02F5
:104090000F8120FF233FDEF860F4000840800240DB
:1040A000448002400400002070B504000025002078
:1040B000002C01D10120C9E094F93C00002805D171
:1040C000002084F83D002000FFF7F4F8022084F877
:1040D0003C002068006830F0020021680860206819
:1040E000006850F001002168086002F047FA0600FD
:1040F00020684068C0070CD402F040FA801B0B28EF
:10410000F6D3032084F83C00002084F83D0003200F
:104110009CE020684068C00740F18B80A0690128BE
:1041200006D12068006850F080002168086005E032
:104130002068006830F0800021680860E06901288C
:1041400006D12068006850F040002168086005E052
:104150002068006830F0400021680860206A01286B
:1041600006D12068006850F020002168086005E052
:104170002068006830F0200021680860606A01282B
:1041800006D12068006850F010002168086005E042
:104190002068006830F0100021680860A06A0128DB
:1041A00006D12068006850F008002168086005E02A
:1041B0002068006830F0080021680860E06A012883
:1041C00006D12068006850F004002168086005E00E
:1041D0002068006830F0040021680860A168E06889
:1041E000014320690143606901436068401E014347
:1041F0002068C161206800684008400021680860AC
:1042000002F0BCF9060020684068C0070CD502F037
:10421000B5F9801B0B28F6D3032084F83C0000205E
:1042200084F83D00032011E020684068C00700D4F6
:104230000125012D06D100202064012084F83C00D6
:10424000002003E0042084F83C00012070BD30B45D
:10425000002001204A6910FA02F2DFF86433D3F833
:10426000000250F00100C3F80002D3F8000230F45D
:104270007C50C3F80002D3F800024C6A50EA0420D4
:10428000C3F80002D3F81C029043C3F81C02C869AB
:10429000002816D1D3F80C029043C3F80C024869E9
:1042A00003EBC000CC684D68C5EA0444C0F8404246
:1042B000486903EBC0008C680D68C5EA0444C0F887
:1042C0004442C869012816D1D3F80C021043C3F840
:1042D0000C02486903EBC0000C684D68C5EA044451
:1042E000C0F84042486903EBC0008C68CD68C5EA5D
:1042F0000444C0F844428869002805D1D3F8040278
:104300009043C3F8040204E0D3F804021043C3F856
:1043100004020869002804D1D3F814029043C3F8BA
:1043200014020869012804D1D3F814021043C3F819
:104330001402086A012804D1D3F81C020243C3F80E
:104340001C22D3F8000240084000C3F800020020FD
:1043500030BC7047F8B506000D000420002030681E
:104360008068400108D430688068000104D4306857
:104370008068C00040F11E8196F93D00012801D1FE
:1043800002201BE1012086F83D0096F93C0022281E
:1043900004D0322806D0622808D00BE0422086F8EC
:1043A0003C000AE0522086F83C0006E0722086F8C5
:1043B0003C0002E0122086F83C0030688068400132
:1043C00001D5002406E030688068000101D5012491
:1043D00000E00224306821010844D0F8800110F088
:1043E0000100316822011144C1F88001306B8068FE
:1043F000002811D1306821010844D0F88001316BC8
:104400000968326BD26852EA415210433168220186
:104410001144C1F8800113E0306821010844D0F84C
:104420008011306B4068326B926852EAC002306B88
:10443000C06802431143306822011044C0F8801163
:10444000306B007C10F00F00316B08613068210187
:104450000844D0F8840100090001316822011144A8
:10446000C1F88401306821010844D0F88411306B10
:1044700000690143306822011044C0F88411306B98
:10448000C07D316B897D090451EA0061306B407D4C
:1044900051EA0021306B007D014330682201104455
:1044A000C0F88811306BC07E316B897E090451EAF7
:1044B0000061306B407E51EA0021306B007E014389
:1044C000306822011044C0F88C1130682101084482
:1044D000D0F8800150F00100316822011144C1F888
:1044E000800102F04BF80700002C0AD1DFF87C04B1
:1044F000316889680140814201D1012018E0002023
:1045000016E0012C0AD1DFF868043168896801409F
:10451000814201D101200BE0002009E0DFF85404C2
:10452000316889680140814201D1012000E000200A
:10453000002822D115F1010FD6D0002D04D002F0B1
:104540001DF8C01B8542CFD2032086F83C00002C0A
:1045500003D18020316888600AE0012C04D14FF437
:1045600000403168886003E05FF4000031688860D3
:10457000002086F83D00032020E096F93C00422808
:1045800004D0522806D0722808D00BE0222086F8EA
:104590003C000AE0322086F83C0006E0622086F803
:1045A0003C0002E0012086F83C00002086F83D0037
:1045B000002003E0042086F83C000120F2BD00004A
:1045C000006400400A00D2B2002A11D190F93C20C8
:1045D000222A0BD090F93C20422A07D090F93C20A7
:1045E000622A03D090F93C20722A01D1022071E0A6
:1045F0000A00D2B2012A11D190F93C20322A0BD004
:1046000090F93C20522A07D090F93C20622A03D02E
:1046100090F93C20722A01D102205BE090F93D2004
:10462000012A01D1022055E0012280F83D200A0034
:10463000D2B2002A18D190F93C20122A04D0322A92
:1046400006D0522A08D00BE0422280F83C2023E01A
:10465000622280F83C201FE0722280F83C201BE0A0
:10466000222280F83C2017E090F93C20122A04D046
:10467000222A06D0422A08D00BE0522280F83C20A1
:104680000AE0622280F83C2006E0722280F83C209A
:1046900002E0322280F83C20002202640268526963
:1046A00042F40F4252F0010203685A61002280F87E
:1046B0003D20C9B2002906D10168496951F00A01BB
:1046C0000068416105E00168496951F050010068E6
:1046D00041610020704738B5040000200020002010
:1046E00000252068C168090911F0010120684069AE
:1046F000C0F3C00010F00100002906D0002804D04B
:1047000055F4007510202168C86020680169090906
:1047100011F0010120684069C0F3801010F0010021
:10472000002906D0002804D055F4806510202168A7
:10473000086120684069C0073DD58C4821688968B8
:104740000140814201D1012000E000208849226817
:1047500092680A408A4201D1012100E00021854A85
:1047600023689B681340934201D1012200E000229C
:104770000843104300281ED020688068400810F0CD
:10478000010021688968490A11F0010122689268D4
:10479000520C12F0010208431043002803D02000FD
:1047A00000F0EEF801E055F4006520688168724879
:1047B0000143206881602068C16811F0030120680E
:1047C0004069C0F3400010F00100002905D0002826
:1047D00003D00021200000F000F92068016911F0E9
:1047E000030120684069C0F3001010F001000029A7
:1047F00005D0002803D00121200000F0EEF8206C45
:10480000054325642068826912F00102206840692E
:10481000C0F3002111F0010120684069C0F3C030ED
:1048200010F00100002A07D0002905D0002803D08D
:10483000206C50F00100206420688269520812F058
:10484000010220684069C0F3402111F00101206895
:104850004069C0F3C03010F00100002A07D00029E1
:1048600005D0002803D0206C50F00200206420689E
:104870008269920812F0010220684069C0F3802129
:1048800011F0010120684069C0F3C03010F0010050
:10489000002A07D0002905D0002803D0206C50F052
:1048A000040020642068806910F0700F01D101229B
:1048B00000E0002220684069C0F3C02111F001012E
:1048C00020684069C0F3C03010F00100002A38D1E0
:1048D000002936D0002834D02068806910F070009C
:1048E00010280AD020280DD0302810D0402813D00E
:1048F000502816D0602819D01DE0206C50F0080018
:10490000206418E0206C50F01000206413E0206C4C
:1049100050F0200020640EE0206C50F04000206435
:1049200009E0206C50F08000206404E0206C50F41A
:1049300080702064FFE72068806930F07000216893
:104940008861206C00280ED0042021684860012076
:1049500084F83C00206841690848014020684161B2
:10496000200006F019F931BD00000000030000042A
:10497000000300080000031019050100A470FFFFE8
:1049800080B501684969490849000268516190F998
:104990003C10122905D10168496931F40F410268C0
:1049A000516190F93C10422904D0522906D0722955
:1049B00008D00BE0222180F83C100AE0322180F878
:1049C0003C1006E0622180F83C1002E0012180F8F2
:1049D0003C1006F0E2F8002002BD10B500220022D3
:1049E0000A00D2B2002A01D1436B00E0836B026857
:1049F0000C00E4B224012244D2F8B02112F00402E7
:104A00009A609A68002A09D102680C00E4B2240175
:104A10002244D2F8B021520D1A6008E002680C005E
:104A2000E4B224012244D2F8B021D2085A600268CC
:104A30000C00E4B224012244D2F8B02112F00202A8
:104A4000DA6002680C00E4B224012244D2F8B421F6
:104A500012F00F021A610A00D2B21A6202680C0048
:104A6000E4B224012244D2F8B421C2F30722DA616D
:104A700002680C00E4B224012244D2F8B8211A756D
:104A800002680C00E4B224012244D2F8B821120AD0
:104A90005A7502680C00E4B224012244D2F8B8210D
:104AA000120C9A7502680C00E4B224012244D2F878
:104AB000B821120EDA7502680C00E4B22401224417
:104AC000D2F8BC211A7602680C00E4B22401224418
:104AD000D2F8BC21120A5A7602680C00E4B2240112
:104AE0002244D2F8BC21120C9A7602680C00E4B27F
:104AF00024012244D2F8BC21120EDA760A00D2B286
:104B0000002A09D120220368DA600268526932F073
:104B10000A0203685A6108E0202203681A610268E9
:104B2000526932F0500203685A6190F93C20222AFF
:104B300001D0322A05D10268526932F40F4203686B
:104B40005A61C9B2002918D190F93C10422904D009
:104B5000622906D0722908D00BE0122180F83C109F
:104B600023E0322180F83C101FE0522180F83C10F5
:104B70001BE0012180F83C1017E090F93C1052290D
:104B800004D0622906D0722908D00BE0122180F8E7
:104B90003C100AE0222180F83C1006E0422180F817
:104BA0003C1002E0012180F83C10FBF769FE002078
:104BB00010BD30B4002513E050F8042BD30744BFD8
:104BC000A9F101039A18091F042942F8045BFAD2DB
:104BD00013468C0744BF15809B1CC90748BF1D7036
:104BE00050F8041B0029E7D130BC704780B503F0B2
:104BF00038F864480068002803D16348006800283A
:104C000005D000226149FA2000F038F802E00020C7
:104C10005F49086001BD80B55D49086800280ED174
:104C200058480068002803D157480068002806D07B
:104C30000120086000225549FA2000F01FF801BD4C
:104C400038B504002500686880472200514928686B
:104C500000F014F831BD10B5012408E04E4800EB17
:104C6000C4024C4950F8340000F008F8641C052CCC
:104C7000F4D300F069FD4949086010BDF8B505009E
:104C80000E001700062000F039FA0400002C4BD06B
:104C900000F05AFD0100424A1068002803D10020AC
:104CA0003E4B196003E03D480068091A08000021E6
:104CB0002160A660E760401960601068002801D19B
:104CC000146031E010684068854208D2106840687E
:104CD000451B1068456010682060146024E010686F
:104CE00000E0006800281FD0636841685B1A6360B9
:104CF0000168002904D0616803685B689942F0D2BA
:104D00000168002906D001684A686168521A016882
:104D10004A6006E061688D4203D2116849684D1906
:104D20006560016821600460F1BD2DE9F8431C4C09
:104D30002068002823D000F007FD184D2E68861B40
:104D400000272168002917D04868864214D301271C
:104D50002A68486882182A604868361A08682060FD
:104D6000D1F80880D1F80C90062000F0DBF940461D
:104D7000002801D04846C047FFB2002FE0D1BDE86F
:104D8000F18300005480002058800020ED4B000883
:104D90007C800020414C000814F20008788000203C
:104DA0007480002031B501F0E9FB0400009D15F18D
:104DB000010F00D06D1C01F0E1FB001BA842FAD3EB
:104DC00031BDB1F5807F02D34FF0FF3070470170E5
:104DD000012070470078401E8041C043C00F7047DB
:104DE00010B4AA4A116803880B44984213D0197969
:104DF000002910D1A64909688B420CD0A5490C683E
:104E00009C4200D10860198801801168411A146819
:104E10001B8823445980116843880B4483420FD078
:104E2000197900290CD19B490C68844200D10B6090
:104E30000188198011685B1A116800880844438052
:104E400010BC704710B491499348800880000860F6
:104E500008684FF42052028000234380002303712E
:104E60008B480B68134403600123046823710368B3
:104E70001A800068428008688649086010BC704744
:104E800080B5002812D081490968884203D380493F
:104E90000968884200D309E00838002101717D4982
:104EA0000A68904200D20860FFF79AFF01BDF0B493
:104EB0000A0092B2D21C4FF6FC710A40110089B26E
:104EC0000C2900D20C22110089B242F6010399424A
:104ED00001D3002064E06D4B1968884203D36C490C
:104EE0000968884200D35BE0B0F108041D68651BC7
:104EF0002688290089B2761A083E3100170089B247
:104F0000BFB2B94201D200204AE01100370089B295
:104F1000BFB2B94244D0196827880F4439790029B3
:104F20001FD13988521908325A4ED6F800C0BC45F4
:104F300005D11F6894461FFA8CFC674437601E68D1
:104F40001700BFB23E440027377131807580228040
:104F50003188B1F5205F23D01968338819444A801D
:104F60001EE0B6B2110089B214318E4218D3521924
:104F7000083219681600B6B23144464E3768B94255
:104F800000D2316000260E7126880E804D8022806E
:104F90000C88B4F5205F03D01B68098819444A8047
:104FA000F0BC704770B40100080080B2002801D145
:104FB000002069E089B2C91C4FF6FC70014008006E
:104FC00080B20C2800D20C21080080B242F6010207
:104FD000904201D3002057E02C4A2E4B18681468E9
:104FE000041B02E01068A4B2045B200080B20D0034
:104FF000ADB2D5F52055A84245D210682500ADB216
:10500000054428790028EDD12E88200080B2361A78
:10501000083E080080B28642E4D32E88200080B289
:10502000361A083E080080B21430864216D3091999
:10503000083110680E00B6B23044002606712E8882
:1050400006804480298001242C710488B4F5205FF7
:1050500006D0146800882044418001E001202871B6
:10506000186885420CD1196802E01068098801446B
:105070000879002803D0064800688142F5D11960FC
:1050800015F1080000E0002070BC70470C80002083
:1050900010800020148000208302002000218268FC
:1050A00011604268D21C92089200002107E08368D8
:1050B0001B68136083681A6003881A44491C43887C
:1050C0009942F4DB704710B5002407E01D48210029
:1050D00089B250F82100FFF7E1FF641C200080B284
:1050E0000928F3D310BD010088680068002803D0A8
:1050F000026889680A6000E00020704780B50100FE
:1051000049B2092901DB002005E00E4940B251F8FF
:105110002000FFF7E8FF02BD826812680A6080681D
:105120000160704780B5020052B2092A07DA0029EF
:1051300005D0044A40B252F82000FFF7EDFF01BD50
:105140000000000064F2000870472DE9F84F0400E9
:105150000D0016001F00DDF82880DDF82C90DDF82A
:1051600030A0002060600020A0600020E0600020EF
:1051700084F833000421002214F1240B584605F072
:105180000DFD032084F828000020E061C4F8208091
:105190003948017884F836100178491C0170C4F848
:1051A00010A03B0032002900200000F00DF8200084
:1051B000C847002801D0002004E030480168216081
:1051C00004602000BDE8F28FF8B505000C00160061
:1051D0001F00002C02D0206800280CD121002800DC
:1051E00000F016F83100280000F03BF839002800E4
:1051F00000F030F80BE03100280000F032F8390000
:10520000280000F027F82100280000F001F8F1BD87
:1052100038B505000C00002C02D02068009002E098
:1052200018480068009000986968884211D0694663
:10523000281D03F05FFA6946281D02F0F0FC002CDF
:1052400001D1002000E0206868600121280000F002
:105250002EF831BD002901D1002100E00968C160AC
:105260007047002901D1002100E009688160704782
:105270000349086070470000F38000203C80002054
:105280004080002094F6000880B590F83310C907DC
:105290000CD490F8331051F0010180F8331090F8DD
:1052A0003310490702D5032100F001F801BD80B594
:1052B000C90709D54168002906D090F833100907BD
:1052C00002D5011D06F013F901BD80B590F8331029
:1052D000C9070BD590F8331011F0FE0180F8331098
:1052E00090F83310090701D505F05AFE01BD0028DA
:1052F00000D0C16170470268531C03601170704791
:1053000080B586B000200590DFF80005016851F0F7
:1053100000710160016811F000710591059900218B
:105320000591016851F080610160016811F08061B0
:105330000591059900210591016851F00061016016
:10534000016811F00061059105990021059101683E
:1053500051F001010160016811F001010591059909
:1053600000210591016851F004010160016811F00C
:1053700004010591059900210591016851F0400152
:105380000160016811F04001059105990021059126
:10539000016851F000710160016811F00071059120
:1053A000059900210591016851F080610160016853
:1053B00011F080610591059900210591016851F076
:1053C00000610160006810F00060059005983220CF
:1053D00000900220019000200290032003900B20F7
:1053E00004906946DFF8280401F01AF9862000903D
:1053F0000220019000200290032003900B200490D3
:105400006946DFF8100401F00BF94FF4D04000902A
:105410000220019000200290032003900B200490B2
:105420006946DFF8F40301F0FBF8012200213D207A
:10543000FDF7A9F83D20FDF7B7F807B000BD3EB570
:1054400004000020009001A8DFF8D013D1E9002368
:10545000C0E90023DFF8C853DFF8C803286001A8BB
:105460006861012068604FF48040A8604FF40060DC
:10547000E8605FF4000028620120A8610020E86174
:10548000002028822800FDF78FFF00280AD1DFF8CE
:105490009803FDF76BFA94F8330050F0040084F899
:1054A000330003E0DFF88403FDF760FA0423DFF83C
:1054B0008023DFF880132800FEF79BF80423DFF831
:1054C0007823DFF878132800FEF7D1F8062084F857
:1054D0002C00022084F82D00002084F82E000020EB
:1054E00084F82F00002084F83000002084F8310078
:1054F000002084F8320040F2DC50608594F83300DC
:1055000050F00A0084F833002800FEF7E7FA6A46F4
:1055100011212800FEF760FA009850F00300009077
:10552000009A11212800FEF799FA6A4612212800F4
:10553000FEF752FA009850F020000090009A1221D5
:105540002800FEF78BFA37BD2DE9F84FB44DE86A15
:10555000D0F808B05FF00009002000200020EE6ABB
:105560005FF0000A0C000DE03A00606800EB0801F3
:105570000BEB0A08404605F0C7FF17EB0A0A17EBCA
:1055800009092468002C32D03068002803D46789C8
:105590005FF0000813E07FF007002DE0D6F808B0B8
:1055A000AAF2F450C71908F2F458B8EB0A0809F245
:1055B000F4594846D146B0EB09095FF0000A1AEBEE
:1055C000070040F2F5518842CED340F2F452B2EBDC
:1055D0000A02606800EB0801D344584605F094FFC6
:1055E000F66830680028D9D57FF0070004E0494606
:1055F0002800FEF77BF8002041F214012A68525877
:10560000920607D520222B685A5000212A6841F2C1
:105610000403D15040B2BDE8F28F2DE9F84F0025C8
:1056200000200020002000207D4E3000FEF7F5F81D
:10563000002801D0002062E0F16BD6F8408008001D
:1056400080B2002805D0032289B2042005F0AFFF04
:105650000500002D36D0376B5FF0000A2C002AE0E1
:1056600040F2F452B2EB0A0208EB0A01606800EB68
:105670000B08404605F048FFFF68D7F80880AAF2FB
:10568000F45010EB09090BF2F45BBBEB0A0AD346AA
:105690005FF0000A1AEB090040F2F5518842DFD2B0
:1056A0004A4608EB0A0160688344584605F02CFF1F
:1056B00019EB0A0A2468002C04D0B4F80A905FF0B1
:1056C000000BE7E7306B002105E0026852F0004272
:1056D0000260C068491CB26B9142F6D30020B063EF
:1056E00041F2140031680958090607D58021326853
:1056F00011500020316841F2080288502800BDE8AE
:10570000F28F38B505002800FFF787FF0400002C52
:105710000AD0290020002A69904740B2002803D00F
:10572000200006F0DBF8002031BD80B5732180F841
:105730003410742180F8351041494161414981613B
:10574000FFF77DFE002002BD80B500F017FF02BD0F
:105750003EB50400002001900020009094F8330032
:1057600040074AD53848FDF701F92D4D68680028F3
:1057700024D04FF4805200212800FEF76FF900F08A
:10578000FDFE01906A4601212800FEF725F900F090
:10579000F5FE0199401A40F2E93188420ED2009894
:1057A0008006EFD56A4610212800FEF715F900980B
:1057B000400716D54FF40060E86014E0EA68D208AC
:1057C00092B2A868400880B2024300212800FEF788
:1057D00045F900212800FEF7CBF92800FEF77EF9F5
:1057E0000EE00020E8600098800702D50020A86045
:1057F000EFE74FF48040A860EBE70948FEF793F924
:105800002000FDF75FFC37BD00000000303802408B
:1058100000080240000002400018024064F6000840
:10582000747B00200080024084F4000894F4000897
:1058300064420020407A0020942A0020C079002091
:105840009FB100084955000800F3000890F938207E
:10585000012A01D1022024E0012280F8382002220E
:1058600080F839200268526832F0700203685A608A
:10587000026853680A6813430268536002689268BA
:1058800032F0800203689A600268926849680A43AD
:1058900001688A60012180F83910002180F83810F1
:1058A00000207047C11768B14840401AB0FA80F232
:1058B0009040D21CC907C2F5846241EA025202EB51
:1058C000D021400570470000B0B581EA030C0CF010
:1058D000004C40F2FF7515EA11541DBF15EA13572D
:1058E000AC42AF4239E0E41923EA455343F4801354
:1058F000C90241F0004141EA505EC7021100A7FB16
:10590000020200284FF00000EEFB01204FF00001E2
:10591000E3FB072118BF42F0010240180021494172
:10592000E3FB0E01A4F580640F0302D25200404154
:10593000494154F101046CDD470872F1004250F115
:10594000000051EB0451A1F580115CBF41EA0C014C
:10595000B0BD4CEA05510020B0BD05EA1357AC427A
:1059600014BFAF4241E050EA410E1CBF52EA430E61
:1059700002E061460020B0BD24423C441BD15FEAF6
:10598000070EF6D0090302BF01460020AEF1140E47
:10599000B1FA81F7AEEB070401FA07FE0C37C7F145
:1059A000200100FA07F7C8404EEA000E23EA4553EB
:1059B00043F48013A2E733F00043B3FA83F704BF44
:1059C000B2FA82FE77440B3FE41BB7F1200E2FBFE3
:1059D00002FA0EF3BB40C7F1200E22FA0EFE38BFCA
:1059E00043EA0E03BA40641C82E750EA410E14BF3A
:1059F00052EA430E6FF000014FF4001717EB430F0C
:105A00008ABF194617EB410FB5E74CEA0551002054
:105A1000B0BDD4F10104B4F120070FDAC4F12007BE
:105A2000520828BF42F0010210FA07F501FA07F701
:105A3000E1BF2A43E0403843E1400FE0352C98DCD9
:105A4000C7F1200452EA400220FA07F218BF42F0E0
:105A5000010231FA07F0A1400A43002172F100422D
:105A600050F1000051EB0C01B0BD0000F0B540F268
:105A7000FF7581EA030C0CF0004C15EA11541DBFB0
:105A800015EA1357AC42AF42E5E0BC41C1F3130144
:105A9000C3F31303801A994143F4801304D2641EA4
:105AA0004000494180185941C90241EA5051B1FBB7
:105AB000F3F603FB1611A2FB0675D7EBC020A94134
:105AC00002D2761E80185941C90241EA5051B1FBF9
:105AD000F3FE03FB1E11A2FB0E75D7EBC020A941FC
