:020000040800F2
:100000005882002045E1000879DD00087BDD00080A
:100010007DDD00087FDD000881DD000800000000B4
:1000200000000000000000000000000083DD000868
:1000300085DD00080000000087DD000889DD00087C
:100040002DE2000831E2000835E2000839E200083C
:100050003DE2000895DD000841E2000845E20008A5
:1000600049E200084DE2000851E2000855E20008AC
:1000700059E200085DE2000861E2000865E200085C
:1000800069E200086DE2000871E2000875E200080C
:1000900097DD000879E200087DE2000881E20008AF
:1000A00085E2000889E200088DE2000891E200087C
:1000B000BBDD0008B1DD000895E2000899E2000808
:1000C0009DE20008A1E20008A5E20008A9E20008FC
:1000D000ADE20008B1E20008B5E20008CFDD00089B
:1000E000B9E20008BDE20008C1E20008C5E200086C
:1000F000C9E20008CDE20008D1E20008D5E200081C
:10010000D9E20008DDE20008C5DD0008E1E20008F0
:10011000E5E20008E9E20008EDE20008F1E200088B
:10012000F5E20008F9E20008FDE2000801E300083A
:1001300005E30008A1DD000809E300080DE300085D
:1001400011E3000815E3000819E300081DE30008A7
:1001500021E3000825E3000829E300082DE3000857
:1001600031E3000835E3000839E300083DE3000807
:1001700041E3000845E3000849E3000800000000EF
:100180004DE3000851E3000880B592B000200090D4
:10019000DFF89C05016851F080510160006810F0A3
:1001A00080500090009800200090DFF888050168DA
:1001B00051F480410160006810F480400090009884
:1001C000012006905FF48030079002200C905FF4CD
:1001D00080000D9008200E904FF4A8700F90022020
:1001E00010900720119006A801F0BCF90F20019093
:1001F00002200290002003904FF4A05004904FF48E
:1002000080500590052101A801F066FB01F025FC56
:1002100001F027FC6421B0FBF1F001F01EFD042089
:1002200001F01FFD002200215FF0FF3001F0FFFC14
:1002300013B000BD10B501F075FDFFF7A5FF01F08B
:10024000D8FDDFF8F40401F01FFE01F031FE00F0EC
:100250003AFADFF8E844200001F038FE01F000FF30
:10026000DFF8DC0402F03CFA0021DFF8D80403F0E8
:10027000BDF801F007F9DFF8D00403F0E7FB00F068
:1002800047FFDFF8C80403F0E1FB03F0E0FDDFF80F
:10029000C0040068401E642801D200F00BF8200062
:1002A00001F0A7FEDFF8AC0400680028EDD000F0F4
:1002B0008BFFEAE72DE9F047DFF894442168DFF887
:1002C000980401F0E1FDDFF89454DFF89404296804
:1002D000405C012814D0022854D0032800F09380F9
:1002E000042800F0AF80112800F0EC80122800F004
:1002F0002A81132800F06781142800F09781D5E146
:1003000040F20166DFF85C743900300001F031FF23
:10031000012003F0D9FD40F202683900404601F0A7
:1003200028FF012003F0D0FD40F203693900484660
:1003300001F01FFF012003F0C7FD40F2046A3900FD
:10034000504601F016FF012003F0BEFDDFF81874DF
:100350003900300001F00DFF012003F0B5FD390038
:10036000404601F006FF012003F0AEFD390048468B
:1003700001F0FFFE012003F0A7FD3900504601F017
:10038000F8FE93E140F20166DFF8E07339003000D7
:1003900001F0EFFE012003F097FD40F20268390002
:1003A000404601F0E6FE012003F08EFD40F20369B5
:1003B0003900484601F0DDFE012003F085FD40F2E2
:1003C000046A3900504601F0D4FE012003F07CFDA0
:1003D000E44F3900300001F0CCFE012003F074FD41
:1003E0003900404601F0C5FE012003F06DFD3900E3
:1003F000484601F0BEFE012003F066FD390050467C
:1004000001F0B7FE52E1DA4E310040F2016001F036
:10041000B0FE012003F058FD310040F2026001F00F
:10042000A8FE012003F050FD310040F2036001F00E
:10043000A0FE012003F048FD310040F2046001F00D
:1004400098FE33E140F20166CA4F3900300001F0F6
:1004500090FE012003F038FD40F20268390040466A
:1004600001F087FE012003F02FFD40F203693900FF
:10047000484601F07EFE012003F026FD40F2046AAA
:100480003900504601F075FE012003F01DFDB54F07
:100490003900300001F06DFE012003F015FD390038
:1004A000404601F066FE012003F00EFD390048468B
:1004B00001F05FFE012003F007FD3900504601F016
:1004C00058FEF3E0A74E40F205673100380001F016
:1004D00050FE012003F0F8FC40F20668310040466F
:1004E00001F047FE012003F0EFFC40F20769310004
:1004F000484601F03EFE012003F0E6FC31004FF4D7
:10050000C16001F036FE012003F0DEFCDFF8FC6B79
:100510003100380001F02DFE012003F0D5FC310040
:10052000404601F026FE012003F0CEFC3100484693
:1005300001F01FFE012003F0C7FC31004FF4C16041
:1005400001F017FEB2E0894E40F205673100380035
:1005500001F00FFE012003F0B7FC40F20668310005
:10056000404601F006FE012003F0AEFC40F20769B0
:100570003100484601F0FDFD012003F0A5FC3100EB
:100580004FF4C16001F0F5FD012003F09DFC754EB4
:100590003100380001F0EDFD012003F095FC310041
:1005A000404601F0E6FD012003F08EFC3100484694
:1005B00001F0DFFD012003F087FC31004FF4C16042
:1005C00001F0D7FD72E0DFF8D87B40F20566390014
:1005D000300001F0CEFDDFF8CC8B4146300001F059
:1005E000C8FD40F206663900300001F0C2FD01206E
:1005F00003F06AFC4146300001F0BBFD40F20766A3
:100600003900300001F0B5FD4146300001F0B1FD88
:10061000012003F059FC39004FF4C16001F0A9FD3D
:1006200041464FF4C16001F0A4FD3FE040F2056790
:10063000504E3100380001F09CFD012003F044FCD5
:1006400040F206683100404601F093FD012003F0BE
:100650003BFC40F207693100484601F08AFD012069
:1006600003F032FC31004FF4C16001F082FD012043
:1006700003F02AFC3B4E3100380001F07AFD0120E6
:1006800003F022FC3100404601F073FD012003F02D
:100690001BFC3100484601F06CFD012003F014FC06
:1006A00031004FF4C16001F064FDFFE72868401C91
:1006B000642190FBF1F201FB120028602068401ECB
:1006C0002060BDE8F08710B586B003F043FC03F06E
:1006D00082FD002005900020049000200390174C1C
:1006E000DFF8C40A0290DFF8C40A019000200090ED
:1006F00003AB04AA05A9200003F0AFFD200003F01E
:100700003FFE94F83300400707D5DFF8A40A01F054
:10071000BBFB200003F040FE02E0200003F05DFE82
:10072000DFF8901A200003F06AFE06B010BD00004A
:10073000403802400070004010E00008407B00207C
:10074000C0790020087A0020047B0020C87A0020AD
:10075000687D00206C7D0020ACE00008647D0020F6
:10076000A87800200C0000201C00002014000020AD
:100770002C0000202400002070B5DFF83C2ADFF8B0
:100780003C1A4B6B1B6853704B6B1B681B0A137036
:10079000002312E04C6B1D00ADB22C44247D1D00E3
:1007A000ADB254554C6B1D00ADB22C44247DDFF826
:1007B000105A1E00B6B2AC555B1C1C00A4B24D6BA7
:1007C0002D69AC42E6D3DFF8FC29DFF8F4399C78D8
:1007D0005D7855EA04251560496B096840F281543B
:1007E000091B16D0491E00F09C80491E00F0218193
:1007F000491E00F0A681491E00F02B82491E00F020
:10080000B082491E00F03583491E00F0BA8300F023
:100810003FBC116842F20304A14204D11979DFF808
:10082000602C11607CE01168B1F5005F04D119798A
:10083000DFF84C2C516073E0116846F26004A1426D
:1008400004D11979DFF8382C118169E0116846F27A
:100850006C04A14207D159791A7952EA0122DFF8D2
:10086000201C4A815CE0116846F27804A14207D15D
:1008700059791A7952EA0122DFF8041C8A814FE083
:10088000116846F29104A14207D159791A7952EAC6
:100890000122DFF8EC1B4A8242E0116842F20B04AD
:1008A000A1420CD1D9799A7952EA01225C7954EAB1
:1008B000022419790C43DFF8C81BCC6130E01168C1
:1008C00046F26B04A14207D159791A7952EA012202
:1008D000DFF8AC1B8A8223E0116846F26304A14270
:1008E0000DD1D9799A7952EA0122597951EA022136
:1008F0001A7952EA0122DFF8881B8A6110E0116838
:1009000046F2900291420BD1DFF8741B096A1A7902
:10091000C2F30012914201D1012100E00021C9B2CD
:10092000B6E3116842F20304A14204D11979DFF859
:10093000CC2B11607CE01168B1F5005F04D119790E
:10094000DFF8B82B516073E0116846F26004A142F1
:1009500004D11979DFF8A42B118169E0116846F2FE
:100960006C04A14207D159791A7952EA0122DFF8C1
:100970008C1B4A815CE0116846F27804A14207D1E1
:1009800059791A7952EA0122DFF8701B8A814FE007
:10099000116846F29104A14207D159791A7952EAB5
:1009A0000122DFF8581B4A8242E0116842F20B0430
:1009B000A1420CD1D9799A7952EA01225C7954EAA0
:1009C000022419790C43DFF8341BCC6130E0116844
:1009D00046F26B04A14207D159791A7952EA0122F1
:1009E000DFF8181B8A8223E0116846F26304A142F3
:1009F0000DD1D9799A7952EA0122597951EA022125
:100A00001A7952EA0122DFF8F41A8A6110E01168BB
:100A100046F2900291420BD1DFF8E01A096A1A7986
:100A2000C2F30012914201D1012100E00021C9B2BC
:100A30002EE3116842F20304A14204D11979DFF8D0
:100A4000C02A11607CE01168B1F5005F04D119790A
:100A5000DFF8AC2A516073E0116846F26004A142ED
:100A600004D11979DFF8982A118169E0116846F2FA
:100A70006C04A14207D159791A7952EA0122DFF8B0
:100A8000801A4A815CE0116846F27804A14207D1DD
:100A900059791A7952EA0122DFF8641A8A814FE003
:100AA000116846F29104A14207D159791A7952EAA4
:100AB0000122DFF84C1A4A8242E0116842F20B042C
:100AC000A1420CD1D9799A7952EA01225C7954EA8F
:100AD000022419790C43DFF8281ACC6130E0116840
:100AE00046F26B04A14207D159791A7952EA0122E0
:100AF000DFF80C1A8A8223E0116846F26304A142EF
:100B00000DD1D9799A7952EA0122597951EA022113
:100B10001A7952EA0122DFF8E8198A6110E01168B7
:100B200046F2900291420BD1DFF8D419096A1A7982
:100B3000C2F30012914201D1012100E00021C9B2AB
:100B4000A6E2116842F20304A14204D11979DFF848
:100B5000B42911607CE01168B1F5005F04D1197906
:100B6000DFF8A029516073E0116846F26004A142E9
:100B700004D11979DFF88C29118169E0116846F2F6
:100B80006C04A14207D159791A7952EA0122DFF89F
:100B900074194A815CE0116846F27804A14207D1D9
:100BA00059791A7952EA0122DFF858198A814FE0FF
:100BB000116846F29104A14207D159791A7952EA93
:100BC0000122DFF840194A8242E0116842F20B0428
:100BD000A1420CD1D9799A7952EA01225C7954EA7E
:100BE000022419790C43DFF81C19CC6130E011683C
:100BF00046F26B04A14207D159791A7952EA0122CF
:100C0000DFF800198A8223E0116846F26304A142EA
:100C10000DD1D9799A7952EA0122597951EA022102
:100C20001A7952EA0122DFF8DC188A6110E01168B3
:100C300046F2900291420BD1DFF8C818096A1A797E
:100C4000C2F30012914201D1012100E00021C9B29A
:100C50001EE2116842F20304A14204D11979DFF8BF
:100C6000A82811607CE01168B1F5005F04D1197902
:100C7000DFF89428516073E0116846F26004A142E5
:100C800004D11979DFF88028118169E0116846F2F2
:100C90006C04A14207D159791A7952EA0122DFF88E
:100CA00068184A815CE0116846F27804A14207D1D5
:100CB00059791A7952EA0122DFF84C188A814FE0FB
:100CC000116846F29104A14207D159791A7952EA82
:100CD0000122DFF834184A8242E0116842F20B0424
:100CE000A1420CD1D9799A7952EA01225C7954EA6D
:100CF000022419790C43DFF81018CC6130E0116838
:100D000046F26B04A14207D159791A7952EA0122BD
:100D1000DFF8F4178A8223E0116846F26304A142E7
:100D20000DD1D9799A7952EA0122597951EA0221F1
:100D30001A7952EA0122DFF8D0178A6110E01168AF
:100D400046F2900291420BD1DFF8BC17096A1A797A
:100D5000C2F30012914201D1012100E00021C9B289
:100D600096E1116842F20304A14204D11979DFF837
:100D70009C2711607CE01168B1F5005F04D11979FE
:100D8000DFF88827516073E0116846F26004A142E1
:100D900004D11979DFF87427118169E0116846F2EE
:100DA0006C04A14207D159791A7952EA0122DFF87D
:100DB0005C174A815CE0116846F27804A14207D1D1
:100DC00059791A7952EA0122DFF840178A814FE0F7
:100DD000116846F29104A14207D159791A7952EA71
:100DE0000122DFF828174A8242E0116842F20B0420
:100DF000A1420CD1D9799A7952EA01225C7954EA5C
:100E0000022419790C43DFF80417CC6130E0116833
:100E100046F26B04A14207D159791A7952EA0122AC
:100E2000DFF8E8168A8223E0116846F26304A142E3
:100E30000DD1D9799A7952EA0122597951EA0221E0
:100E40001A7952EA0122DFF8C4168A6110E01168AB
:100E500046F2900291420BD1DFF8B016096A1A7976
:100E6000C2F30012914201D1012100E00021C9B278
:100E70000EE1116842F20304A14204D11979DFF8AE
:100E8000902611607CE01168B1F5005F04D11979FA
:100E9000DFF87C26516073E0116846F26004A142DD
:100EA00004D11979DFF86826118169E0116846F2EA
:100EB0006C04A14207D159791A7952EA0122DFF86C
:100EC00050164A815CE0116846F27804A14207D1CD
:100ED00059791A7952EA0122DFF834168A814FE0F3
:100EE000116846F29104A14207D159791A7952EA60
:100EF0000122DFF81C164A8242E0116842F20B041C
:100F0000A1420CD1D9799A7952EA01225C7954EA4A
:100F1000022419790C43DFF8F815CC6130E0116830
:100F200046F26B04A14207D159791A7952EA01229B
:100F3000DFF8DC158A8223E0116846F26304A142DF
:100F40000DD1D9799A7952EA0122597951EA0221CF
:100F50001A7952EA0122DFF8B8158A6110E01168A7
:100F600046F2900291420BD1DFF8A415096A1A7972
:100F7000C2F30012914201D1012100E00021C9B267
:100F800086E0116842F20304A14204D11979DFF826
:100F9000842511607CE01168B1F5005F04D11979F6
:100FA000DFF87025516073E0116846F26004A142D9
:100FB00004D11979DFF85C25118169E0116846F2E6
:100FC0006C04A14207D159791A7952EA0122DFF85B
:100FD00044154A815CE0116846F27804A14207D1C9
:100FE00059791A7952EA0122DFF828158A814FE0EF
:100FF000116846F29104A14207D159791A7952EA4F
:101000000122DFF810154A8242E0116842F20B0417
:10101000A1420CD1D9799A7952EA01225C7954EA39
:10102000022419790C43DFF8EC14CC6130E011682C
:1010300046F26B04A14207D159791A7952EA01228A
:10104000DFF8D0148A8223E0116846F26304A142DB
:101050000DD1D9799A7952EA0122597951EA0221BE
:101060001A7952EA0122DFF8AC148A6110E01168A3
:1010700046F2900291420BD1DFF89814096A1A796E
:10108000C2F30012914201D1012100E00021C9B256
:10109000DFF8EC13DFF86424DFF86434DFF864442D
:1010A0000D6A166A56EA45061D6A55EA4605266A1D
:1010B00056EA4506DFF860542E704D68566856EAC9
:1010C00045065D6855EA4605666856EA4506DFF856
:1010D0004C542E700989128952EA0112DFF840142B
:1010E0000A701989228952EA0112DFF838140A704D
:1010F000002102F07BF970BD80B5DFF82C0403F00D
:1011000084FBDEA000F0C0FE01BD00003C0000201A
:101110001FB500200090DFF81404016851F00201AF
:101120000160006810F0020000900098DFF80044B1
:10113000DFF8000420604CF24F30E06040F28F6036
:101140006060002020610020A060200002F062FCAE
:10115000002001900020029001A9200003F0FAFB7A
:10116000002202211D2000F062FD1D2000F070FD14
:101170001FBD80B5DFF8B813884208D1DFF8B80387
:1011800000F082FE0120DFF8B413086006E0DFF80B
:10119000B013884202D1E44800F02BFF01BD0000EB
:1011A000340000204400002039D3000833480008F0
:1011B00004E10008594800080C790020087A002052
:1011C000447D00205C7D00202DE9F84F40F2016451
:1011D000DC4D2900200000F0CCFF012002F074FE5D
:1011E00040F202662900300000F0C3FF012002F047
:1011F0006BFE40F203672900380000F0BAFF0120BF
:1012000002F062FE40F204682900404600F0B1FF9F
:10121000012002F059FEDFF830934946200000F02B
:10122000A8FF012002F050FE4946300000F0A1FF67
:10123000012002F049FE4946380000F09AFF0120E3
:1012400002F042FE4946404600F093FF012002F0C2
:101250003BFEDFF8F8924946200000F08AFF0120AB
:1012600002F032FE4946300000F083FF012002F018
:101270002BFE4946380000F07CFF012002F024FEDE
:101280004946404600F075FF012002F01DFEDFF8E0
:10129000C0924946200000F06CFF012002F014FECD
:1012A0004946300000F065FF012002F00DFE49467E
:1012B000380000F05EFF012002F006FE494640467D
:1012C00000F057FF012002F0FFFDDFF888A2514631
:1012D000200000F04EFF012002F0F6FD51463000E4
:1012E00000F047FF012002F0EFFD5146380000F00A
:1012F00040FF012002F0E8FD5146404600F039FF72
:10130000012002F0E1FDDFF850B25946200000F064
:1013100030FF012002F0D8FD5946300000F029FFCF
:10132000012002F0D1FD5946380000F022FF0120D3
:1013300002F0CAFD5946404600F01BFF012002F0B2
:10134000C3FD40F205642900200000F012FF0120D7
:1013500002F0BAFD40F206662900300000F009FFF5
:10136000012002F0B1FD40F207672900380000F0CB
:1013700000FF012002F0A8FD29004FF4C16000F039
:10138000F8FE012002F0A0FD4946200000F0F1FE29
:10139000012002F099FD4946300000F0EAFE0120EC
:1013A00002F092FD4946380000F0E3FE012002F011
:1013B0008BFD49464FF4C16000F0DBFE012002F0D6
:1013C00083FD5146200000F0D4FE012002F07CFD98
:1013D0005146300000F0CDFE012002F075FD51466F
:1013E000380000F0C6FE012002F06EFD51464FF4B9
:1013F000C16000F0BEFE012002F066FD59462000EB
:1014000000F0B7FE012002F05FFD5946300000F009
:10141000B0FE012002F058FD5946380000F0A9FE48
:10142000012002F051FD59464FF4C16000F0A1FEC9
:10143000012002F049FD494D2900200000F099FEED
:10144000012002F041FD2900300000F092FE012051
:1014500002F03AFD2900380000F08BFE012002F076
:1014600033FD29004FF4C16000F083FE012002F03B
:101470002BFD002031490860BDE8F18F310A0000E2
:10148000C47B00201FB5002000902848016851F05F
:1014900001010160006810F0010000900098244CE8
:1014A0005FF0804020604CF24F30E060532060607D
:1014B000002020610020A060200002F0ABFA002094
:1014C00001900020029001A9200003F043FA0022BD
:1014D00001211C2000F0ABFB1C2000F0B9FB1FBD5C
:1014E00070471F480188B1F5004F03D04FF6FF71D8
:1014F000018002E04FF4004101807047E87B00204A
:101500000C7C0020307C0020547C0020787C002063
:101510009C7C0020C07C0020397E0020367E00208C
:101520002B7E00202C7E0020407B00204038024093
:10153000C87A0020000400402CE000086C7D0020E8
:10154000047B00204C000020540000205C000020A0
:10155000640000206C000020740000207C0000204B
:101560000C7E0020F8B5040000202078C0075CD570
:10157000DFF83803016811F00C01042909D0006874
:1015800010F00C0008280ED1DFF824030068400298
:1015900009D5DFF820030068800346D5606800287D
:1015A00043D1012081E16068B0F5803F06D1DFF8CA
:1015B0000403016851F48031016017E06068B0F500
:1015C000A02F0AD1DFF8EC02016851F480210160FC
:1015D000016851F48031016008E0B648016831F4D7
:1015E00080310160016831F4802101606068002869
:1015F0000DD003F0DBF90500AE480068800314D479
:1016000003F0D4F9401B6528F6D303204DE103F025
:10161000CDF90500A7480068800306D503F0C6F998
:10162000401B6528F6D303203FE12078800722D5B0
:101630009E48016811F00C0F08D0006810F00C00F3
:1016400008282FD19A48006840022BD49948016895
:10165000890704D5E168012901D0012025E101684D
:101660005FF0F852B2FA82F231F0F801236913FA0E
:1016700002F2114301602078000756D56069002806
:1016800042D001208C49086003F090F905008B4896
:101690000068800749D403F089F9401B0328F6D37A
:1016A000032002E1E06800281DD001208449086081
:1016B00003F07CF905007F480168890706D403F030
:1016C00075F9401B0328F6D30320EEE001685FF0B4
:1016D000F852B2FA82F231F0F801236913FA02F2F9
:1016E00011430160C7E700207549086003F05EF907
:1016F0000500704800688007BDD503F057F9401B0E
:101700000328F6D30320D0E000206B49086003F0E3
:101710004DF9050069480068800706D503F046F9D1
:10172000401B0328F6D30320BFE0207840075FD595
:10173000002000906348016851F08051016000680A
:1017400010F08050009000985F4E306850F4807028
:10175000306003F02BF905003068C00506D403F0B3
:1017600025F9401B0328F7D303209EE0A068012839
:1017700005D15648016851F00101016015E0A068EB
:10178000052809D15148016851F004010160016840
:1017900051F00101016008E04C4801684908490026
:1017A0000160016831F004010160A06800280FD0D9
:1017B00003F0FCF8050045480068800718D403F0E2
:1017C000F5F8401B41F289318842F4D303206CE0E4
:1017D00003F0ECF805003D480068800708D503F0E9
:1017E000E5F8401B41F289318842F4D303205CE0E4
:1017F000A069002858D02D48006810F00C00082877
:1018000050D0A06902283CD1314E0020306003F056
:10181000CDF80700274D2868800106D503F0C6F8EB
:10182000C01B0328F6D303203FE02A48B0FA80F11A
:101830004FF44040B0FA80F2F020B0FA80F3E7694C
:10184000206A0743606A10FA01F13943A06A400830
:10185000401E10FA02F21143E06A10FA03F3194332
:10186000134801600120306003F0A0F804002868EC
:10187000800119D403F09AF8001B0328F7D3032042
:1018800013E000201249086003F090F804000948B2
:101890000068800108D503F089F8001B0328F6D3FF
:1018A000032002E0012000E00020F2BD08380240E1
:1018B0000438024000380240800E4742743802402B
:1018C000000047424038024000700040703802403B
:1018D000600047420000FE032DE9F04104000D00C6
:1018E0000020714E306810F00F00A84207D235700A
:1018F000306810F00F00A84201D00120ABE0207842
:10190000800706D569490A6832F0F002A0680243F0
:101910000A602078C00768D56068012805D164484E
:101920000068800313D4012095E06068022802D08B
:101930006068032805D15E480068800107D4012053
:1019400089E05B480068800701D4012083E0574F9D
:1019500039688908890060680143396003F026F816
:101960008046606801280ED1386810F00C00042809
:101970003BD003F01BF8B0EB080041F289318842FC
:10198000F2D3032067E0606802280ED1386810F0B7
:101990000C00082829D003F009F8B0EB080041F248
:1019A00089318842F2D3032055E0606803280ED1C4
:1019B000386810F00C000C2817D002F0F7FFB0EBDD
:1019C000080041F289318842F2D3032043E03868AD
:1019D00010F00C0F09D002F0E9FFB0EB080041F263
:1019E00089318842F3D3032035E0306810F00F00CE
:1019F000854207D23570306810F00F00A84201D040
:101A0000012028E02078400706D528490A6832F4EA
:101A1000E052E06802430A602078000707D52348B7
:101A2000016831F46041226951EAC201016000F0AD
:101A300049F81E4909685FF07062B2FA82F21D4BE4
:101A400011F0F001D140595CC8401B4908600020EA
:101A500002F0B2FF0020BDE8F081012017490860C4
:101A6000704715480068704780B5FFF7FAFF0F49C7
:101A700009685FF46012B2FA82F2114B11F4E0517E
:101A8000D140595CC84002BD80B5FFF7EAFF074965
:101A900009685FF4E022B2FA82F2094B11F4604166
:101AA000D140595CC84002BD003C024008380240A9
:101AB0000038024014E10008040000204C004742B6
:101AC000FCE1000810B400200020002000201F4886
:101AD000006810F00C00002804D0042804D0082866
:101AE00004D030E01A482FE01A482DE01A4908685F
:101AF00010F03F000A6852020CD50B68174AB2FA80
:101B000082F4144AB2FBF0F247F6C0700340E3409F
:101B10005A430BE00B68114AB2FA82F40C4AB2FB4A
:101B2000F0F247F6C0700340E3405A4308684FF4B0
:101B30004041B1FA81F110F44030C840401C4000EF
:101B4000B2FBF0F000E0024810BC704708380240D9
:101B50000024F40000127A00043802400000FE0362
:101B600010F00700464B1A684FF6FF010A4045493E
:101B700051EA00210A431A60704741480068C0F3E7
:101B800002207047012210F01F018A403E4940B2F6
:101B9000400941F820207047020052B2002A08D5BF
:101BA00009013A4A40B210F00F00104400F8041C3A
:101BB00003E00901364A40B21154704710B410F0E6
:101BC0000700D0F10703052B01D3042301E0D0F176
:101BD0000703041D072C01D2002000E0C01E0124D1
:101BE00014FA03F35B1E1940814014FA00F0401E02
:101BF0001040084310BC704780B5411EB1F1807F92
:101C000001D301200EE0401E224908600F215FF041
:101C1000FF30FFF7C1FF00201F49086007201F4960
:101C20000860002002BD80B5FFF79AFF01BD70B5C6
:101C300004000D0016000020FFF79FFF320029006E
:101C4000FFF7BCFF0100200040B2FFF7A5FF70BD09
:101C500080B540B2FFF796FF01BD80B5FFF7CCFF1E
:101C600002BD042805D10D48016851F0040101604E
:101C700004E00A48016831F0040101607047000087
:101C80000CED00E00000FA0500E100E018ED00E0D6
:101C900000E400E014E000E018E000E010E000E004
:101CA00080B500F001F801BD7047F0B4024610683D
:101CB00095681318506803EB5004C0071DD54D44B8
:101CC0001BE013F8017B05F8017B491EF9D1A0B197
:101CD000B60813F8011B06F00306032E08BF13F81D
:101CE000016B01EB06214942801C294405D011F803
:101CF000016B05F8016B401EF9D1A3420ED013F819
:101D0000016B16F0030104BF13F8011BC91C300955
:101D10000F28DAD113F8010B0F30D6E7F0BC02F12F
:101D20000C00704780B50B48016851F400710160E8
:101D3000016851F480610160016851F480710160B3
:101D40000320FFF770FF002002F036FE02F048FE8D
:101D5000002002BD003C024010B586B00068434937
:101D6000884244D1002000904148016851F480210C
:101D70000160006810F4802000900098002000901E
:101D80003C48016851F080010160006810F080005B
:101D9000009000984FF48060019002200290032090
:101DA000049007200590344C01A9200002F050FE59
:101DB0004FF4006001900220029000200390072061
:101DC000059001A9200002F043FE2C4C00224FF4A4
:101DD0008071200002F02AFF4FF4807001900120F2
:101DE00002900220049001A9200002F031FE06B00A
:101DF00010BD1CB5002000901E48016851F0020182
:101E00000160006810F00200009000981C4C174818
:101E100020604FF4964060604FF48050A060002036
:101E2000E0604FF4806020610C2060610020A061C0
:101E30000020E061200002F01FFF01220121272085
:101E4000FFF7F5FE2720FFF703FF01220D492000D1
:101E500002F0BBFF13BD01B54FF6FF7301226946C7
:101E6000074802F044FF009802BD0000004800400F
:101E7000403802403038024000040240001C02405A
:101E80004C7A0020287E00200EB4C0B5024603A87C
:101E900000210190009101AB0121044878440C30ED
:101EA00003F0C8FA06BC5DF810FB00BFB5C1000026
:101EB00080B502F04FF802F08EF902F0CDF904F08F
:101EC0005DFA04F0BFFC01F058FF01BD80B590F849
:101ED0003300C00703D501205249087005E00520F2
:101EE000504908705048FFF7CFFF01BD10B50400FE
:101EF00094F83300400709D54C48FFF7C5FF01208F
:101F000048490870200002F047FA08E005204549DA
:101F10000870200002F061FA4348FFF7B5FF10BDDA
:101F200070B588B004003F4D2878012804D00228FD
:101F300011D0052855D05AE0002060600020A06034
:101F40000020E06002202870200005F014FC3848D2
:101F5000FFF79AFF4BE0200006F0C5FA002816D0E4
:101F600003202870201D06F0F7FA02002CA103A818
:101F700006F048FB03A92F48FFF786FF01202E49F2
:101F800008702E48FFF780FF06F069FB28E0666ABC
:101F9000B17A2B48FFF778FFB07A052820DB0420C0
:101FA0002870200005F006FF264802907FF07F4051
:101FB0000190254800906B4601AA02A9200002F07A
:101FC0008BF9201D06F0C8FA020015A103A806F03F
:101FD00019FB1E48FFF758FF03A91D48FFF754FFE0
:101FE00005E0200005F0E6FE00202870FFE708B0BD
:101FF00070BD38B5040002F0D9FC164D2968401AAE
:10200000B0F5FA7F0BD3144802F0FFFB02F0CEFCD0
:1020100028601248FFF738FF2000FFF781FF31BD2D
:1020200025730000267E002090DE0008B8DE000840
:10203000E0DE000864DE0008277E002084E000085F
:1020400054E10008C0A80065C0A8000198E000089D
:1020500048E000084C7D0020407B0020D4E00008D0
:1020600010B58AB0524C53482060534820635348FF
:102070006063062060600020A0600020E0605FF4E4
:10208000A02020615FF4C00060610020A0610120F9
:10209000E06101202062002060620020A062002038
:1020A000E062200000F014FF002005900020069060
:1020B0000120079000200090002001900020029055
:1020C0000020039000200490012008900E20099029
:1020D0006946200000F0CFFF0AB010BD10B586B0F1
:1020E00000683449884242D1002000903448016899
:1020F00051F000710160006810F0007000900098CD
:10210000002000902F48016851F48071016001683F
:1021100011F480710091009900210091016851F043
:1021200002010160006810F00200009000984FF476
:102130000074019402200290002003900920059071
:1021400001A9214802F084FC01940220029002209F
:1021500004900920059001A91C4802F079FC002296
:1021600000211420FFF763FD1420FFF771FD06B076
:1021700010BD10B50E4A136B18600020136B9860E9
:102180000020136BD8600820136B1861002005E055
:102190000B78146B04442375491C401C136B1B699A
:1021A0009842F5D30221100000F0E8FF10BD0000B6
:1021B000087A002000640040E47C0020A07B00201E
:1021C0004038024030380240000402400020024003
:1021D0002DE9FC410400002000200090DFF8B06CE5
:1021E000300000200025002C01D1012013E194F8DB
:1021F0004400002805D1002084F84500200002F0AA
:1022000003F900200190DFF88C0C016851F4804143
:102210000160006810F4804001900198DFF8781C9C
:10222000086830F4000008600A68206A02430A6007
:102230004FF480572068C05950F001002168C85100
:1022400002F0B4FB80462068C059C0070FD502F0E9
:10225000ADFBB0EB080040F2F5118842F3D3032048
:1022600084F84400002084F845000320D3E020686F
:10227000076937F01C07FFF7F4FBDFF8201C411A51
:10228000DFF81C2C914202D257F008071AE0DFF861
:10229000141C411ADFF8102C914202D257F00C079F
:1022A00010E0861BDFF8041C8E420BD3DFF8001C05
:1022B000401ADFF8001C884202D257F0040701E000
:1022C00057F01007206807614FF4004200212000FA
:1022D00000F0D8FA002808D00121200000F0F5FB1A
:1022E000012084F84400012095E0FF2001F0ECFD7E
:1022F000606800286DD002F059FB07006A46012192
:10230000200000F07DFA41F2893602F04FFBC01B3D
:10231000B04213D200984007F0D54FF4805200210C
:10232000200000F0AFFA002814D00121200000F0B6
:10233000CCFB012084F8440001206CE00121200046
:1023400000F0C3FB012084F84400002084F845001D
:10235000032060E002F02AFB07006A46012120000A
:1023600000F04EFA02F022FBC01BB04212D20098DD
:102370008006F2D56A461021200000F041FA0028BC
:1023800014D00121200000F0A0FB012084F84400BB
:10239000012040E00121200000F097FB012084F89B
:1023A0004400002084F84500032034E000984007F2
:1023B00003D54FF40060E06001E00020E060009889
:1023C000800702D50020A0601DE04FF48040A0608F
:1023D00019E0E268D20892B2A068400880B20243D5
:1023E0000021200000F04EFA002808D00121200032
:1023F00000F06BFB012084F8440001200BE040F664
:10240000FF7001F061FD2900200000F05EFB01205B
:1024100084F844000020BDE8F68170B40400002078
:1024200094F94500012801D1022032E0012084F80E
:102430004500022084F84400E16200251CE0F160C0
:1024400019E0680101EB00065FF48010306040F293
:10245000F45000FB05F01044B060E069002803D19F
:10246000306850F440003060581E8542E7D2680161
:1024700008442030F0606D1C9D42E2D3206841F298
:1024800010028150012084F84400002084F84500A7
:10249000002070BC704770B4002490F94540012CB6
:1024A00001D1022034E0012480F84540022480F864
:1024B0004440816200241EE0E9601BE065010D4498
:1024C0005FF000462E6044F2F4566E6040F2F4561F
:1024D00006FB04F61644AE608669012E03D16E68D1
:1024E00026F000466E605E1EB442E5D266010E44E0
:1024F0002036EE60641C9C42E0D3026841F20C037B
:10250000D150012180F84410002180F845100020AE
:1025100070BC704770B4020000200020002092F9C7
:102520004500012801D1022089E0012082F8450000
:10253000022082F84400002907D1012082F84400DB
:10254000002082F84500012079E0D06A0068002868
:1025500007D5122082F84400002082F845000120AF
:102560006DE040F2F55081420DD340F2F450B1FBE2
:10257000F0F340F2F450B1FBF0F400FB141000282B
:1025800002D05B1C00E00123012B13D1D06A00684C
:1025900050F04050D36A1860C904C90CD06A416039
:1025A000D06A006850F00040D16A0860D06AC06804
:1025B000D0622FE000202BE0D46A246834F040542D
:1025C000D56A2C60002805D1D46A246854F0805460
:1025D000D56A2C6040F2F455D46A65605C1EA04256
:1025E0000CD1D46A246854F00054D66A34605C1E5E
:1025F00005FB1414E404E40CD56A6C60D46A246806
:1026000054F00044D56A2C60D46AE468D462401C5B
:102610009842D1D341F2140011680958490707D5EF
:102620000421136819500020116841F20403C850B6
:10263000012082F84400002082F84500002070BC90
:102640007047002190F94510012901D1022046E090
:10265000012180F84510022180F84410816A096840
:10266000002935D4816A0968C9051DD5816B491CCB
:102670008163816B012901D1816A0163816A4163B0
:10268000816A0968C1F30D41091FC163016B896843
:102690000164816AC9688162012180F844100021C7
:1026A00080F8451000201AE0816A0968890509D57B
:1026B000816A01630021416301218163816AC968E4
:1026C000816205E0816B491C8163816AC96881620E
:1026D000012180F84410002180F845100120704746
:1026E000002190F94520012A01D102204CE001226D
:1026F00080F84520022280F8442006E0826A0263C6
:1027000001228263826AD2688262826A1268002A27
:1027100033D4042931D2491C826A126812F44072FF
:10272000B2F5007FEAD0826A126812F4407F06D1C7
:10273000826B521C8263826AD2688262E5E7816A98
:102740004163816B491C8163816B012901D1816ADD
:102750000163816A0968C1F30D41091FC163016BFF
:1027600089680164816AC9688162012180F8441026
:10277000002180F84510002006E0012180F8441077
:10278000002180F845100120704738B5040041F25F
:1027900014052068405940060CD52000FEF7ACFC1B
:1027A000402021684851012084F84400002084F82A
:1027B00045000FE020684059C0070BD5200006F007
:1027C00033FF012021684851012084F84400002093
:1027D00084F845005FF480302168485120684059F2
:1027E00000040CD5200006F020FF4FF400402168C3
:1027F0004851012084F84400002084F8450031BD90
:10280000F8B504000E0015000020002094F84400E4
:10281000822801D1022034E0822084F8440020681C
:10282000006910F01C00218AC90211F478410843A4
:10283000B6B2B60116F4F866064336F0020656F054
:1028400001062068066102F0B1F8070001E0206887
:102850000669F0070DD502F0A9F8C01BB0F5803F5E
:10286000F5D3012084F84400002084F845000320BB
:1028700007E02068406980B22860012084F84400A5
:102880000020F2BD70B504000D000020002094F877
:102890004400422801D1022033E0422084F8440061
:1028A0002068006910F01C00218AC90211F47841E7
:1028B0000843ADB2AD0115F4F865054355F00205C6
:1028C00055F0010592B2206842612068056102F06E
:1028D0006DF8060001E020680569E8070DD502F0F3
:1028E00065F8801BB0F5803FF5D3012084F84400E3
:1028F000002084F84500032003E0012084F8440010
:10290000002070BD10B5040094F94500012801D1E4
:1029100002201BE0012084F84500022084F84400D6
:10292000200000F018FA200000F03DFA200000F02E
:1029300086FA200000F05FFA200000F06EFA012015
:1029400084F84400002084F84500002010BD10B534
:10295000040094F94500012801D102201BE0012068
:1029600084F84500022084F84400200000F04CFA6E
:10297000200000F05BFA200000F029FA200000F0AF
:102980005EFA200000F0FBF9012084F844000020EA
:1029900084F84500002010BD70B505000C00002033
:1029A00095F94500012801D102208DE0012085F82C
:1029B0004500022085F84400002C6DD0286801688D
:1029C000DFF8F4040140226860680243A068024313
:1029D000E0680243A8680243206902436069024339
:1029E000E8680243A0690243E0690243206A0243A7
:1029F000606A0243A06A02431143286801602868A4
:102A00000668012001F060FA28680660E16A206B20
:102A10000143606B0143A06B0143E06B0143206CF9
:102A20000143606C0143A06C014328684160286841
:102A30004668012001F048FA28684660E06C296881
:102A40008860206D2968C860286881694FF64170E8
:102A50000140606DA26D52EA0042E06D0243206EBB
:102A60000243606E0243A06E0243114328688161F5
:102A700028688669012001F027FA28688661E16EDE
:102A8000206F01432868C1612868C469012001F0F2
:102A90001BFA2868C46110E02868016831F490418D
:102AA000AA68E8680243114328680160286804683E
:102AB000012001F009FA28680460012085F844002B
:102AC000002085F84500002070BD78B5ADB0040049
:102AD0000020002905D04FF40060E0604FF48040F2
:102AE000A060002010900020119000201290002083
:102AF00013900020149000201590E069002803D165
:102B00004FF48060169001E0002016904FF40070A2
:102B10001790002018900020199000201A90002093
:102B20001B9000201C9040201D9000201E90002033
:102B30001F90002020900020219000202290002053
:102B400023900020249000202590802026900020B3
:102B50002790002028900020299000202A90002013
:102B60002B9000202C9020680168D3480140109AD7
:102B7000119802431298024313980243A06802433B
:102B80001498024315980243E068024316980243E2
:102B90001798024318980243199802431A9802435F
:102BA00011432068016020680568012001F08CF95C
:102BB000206805601B991C9801431D9801431E98CD
:102BC00001431F9801432098014321980143229813
:102BD00001432068416020684568012001F074F9D4
:102BE0002068456023982168886024982168C8601F
:102BF000206881694FF6417001402598269A52EA73
:102C000000422798024328980243299802432A98B1
:102C1000024311432068816120688569012001F029
:102C200053F9206885612B992C9801432068C16174
:102C30002068C569012001F047F92068C5610020BE
:102C400000905FF000700190002102915FF400118C
:102C5000039100210491002105910021069100219A
:102C600007910421089109905FF480300A905FF485
:102C700080000B904FF400500C9080200D900020AD
:102C80000E9000200F9041F21805206841598B48A2
:102C90000140009A019802430298024303980243BC
:102CA000049802430598024306980243079802439A
:102CB0000898024311432068415120684659012079
:102CC00001F002F9206846514FF4805509990A989D
:102CD00001430B9801430C9801430D9801430E9852
:102CE00051EA80010F98014351F4000120684151DD
:102CF00020684659012001F0E7F820684651A06994
:102D000001280CD141F21C002168095841F480319E
:102D100051F04001226811506948FFF7B5F8626927
:102D20000021200000F002F82EB070BD5379107918
:102D300050EA0320634B5B181860D07893781B042B
:102D400053EA0063507853EA0023107803435E4847
:102D500041180B6070471CB50400002000902068EB
:102D6000006850F008002168086020680068009042
:102D7000012000F07AF800982168086013BD1CB5A6
:102D80000400002000902068006830F008002168EE
:102D90000860206800680090012000F066F8009844
:102DA0002168086013BD1CB5040000200090206855
:102DB000006850F0040021680860206800680090F6
:102DC000012000F052F800982168086013BD1CB57E
:102DD0000400002000902068006830F004002168A2
:102DE0000860206800680090012000F03EF800981C
:102DF0002168086013BD41F218010268525852F46C
:102E0000005200684250704741F21801026852585F
:102E100032F4005200684250704741F218010268D3
:102E2000525852F0020200684250704741F21801B5
:102E30000268525832F0020200684250704738B5BA
:102E400004000020009041F218052068405950F419
:102E5000801021684851206840590090012000F0FE
:102E600004F800982168485131BD81B017490968BC
:102E7000C9084FF47A72B1FBF2F14843009000BFE9
:102E80000098411E00910028F9D101B07047000060
:102E9000008793034438024004380140002D31017B
:102EA000C0E1E400C00E160240787D01005A6202C3
:102EB00000E1F50580F0FA020F8120FF233FDEF8E4
:102EC000C0E000084080024044800240040000202E
:102ED00070B5040000250020002C01D10120C9E0BC
:102EE00094F93C00002805D1002084F83D00200022
:102EF000FFF7F4F8022084F83C002068006830F006
:102F00000200216808602068006850F00100216814
:102F1000086001F04BFD060020684068C0070CD433
:102F200001F044FD801B0B28F6D3032084F83C00FD
:102F3000002084F83D0003209CE020684068C00722
:102F400040F18B80A069012806D12068006850F00C
:102F500080002168086005E02068006830F080008B
:102F600021680860E069012806D12068006850F0F7
:102F700040002168086005E02068006830F04000EB
:102F800021680860206A012806D12068006850F096
:102F900020002168086005E02068006830F020000B
:102FA00021680860606A012806D12068006850F036
:102FB00010002168086005E02068006830F010000B
:102FC00021680860A06A012806D12068006850F0D6
:102FD00008002168086005E02068006830F00800FB
:102FE00021680860E06A012806D12068006850F076
:102FF00004002168086005E02068006830F00400E3
:1030000021680860A168E0680143206901436069A4
:1030100001436068401E01432068C1612068006868
:10302000400840002168086001F0C0FC06002068EC
:103030004068C0070CD501F0B9FC801B0B28F6D303
:10304000032084F83C00002084F83D00032011E0B8
:1030500020684068C00700D40125012D06D100205A
:103060002064012084F83C00002003E0042084F860
:103070003C00012070BD30B4002001204A6910FAE4
:1030800002F2DFF86433D3F8000250F00100C3F815
:103090000002D3F8000230F47C50C3F80002D3F8E9
:1030A00000024C6A50EA0420C3F80002D3F81C0264
:1030B0009043C3F81C02C869002816D1D3F80C024B
:1030C0009043C3F80C02486903EBC000CC684D681C
:1030D000C5EA0444C0F84042486903EBC0008C686C
:1030E0000D68C5EA0444C0F84442C869012816D1F5
:1030F000D3F80C021043C3F80C02486903EBC0007C
:103100000C684D68C5EA0444C0F84042486903EBC6
:10311000C0008C68CD68C5EA0444C0F844428869A0
:10312000002805D1D3F804029043C3F8040204E058
:10313000D3F804021043C3F804020869002804D13C
:10314000D3F814029043C3F814020869012804D18B
:10315000D3F814021043C3F81402086A012804D1FA
:10316000D3F81C020243C3F81C22D3F80002400823
:103170004000C3F80002002030BC7047F8B50600DC
:103180000D000420002030688068400108D43068B9
:103190008068000104D430688068C00040F11E815E
:1031A00096F93D00012801D102201BE1012086F89B
:1031B0003D0096F93C00222804D0322806D062282F
:1031C00008D00BE0422086F83C000AE0522086F846
:1031D0003C0006E0722086F83C0002E0122086F8EF
:1031E0003C0030688068400101D5002406E030686A
:1031F0008068000101D5012400E00224306821012B
:103200000844D0F8800110F0010031682201114417
:10321000C1F88001306B8068002811D1306821012D
:103220000844D0F88001316B0968326BD26852EAE9
:1032300041521043316822011144C1F8800113E06A
:10324000306821010844D0F88011306B4068326B3F
:10325000926852EAC002306BC06802431143306882
:1032600022011044C0F88011306B007C10F00F0078
:10327000316B0861306821010844D0F884010009ED
:103280000001316822011144C1F884013068210134
:103290000844D0F88411306B006901433068220182
:1032A0001044C0F88411306BC07D316B897D0904F6
:1032B00051EA0061306B407D51EA0021306B007DA6
:1032C0000143306822011044C0F88811306BC07E81
:1032D000316B897E090451EA0061306B407E51EA0E
:1032E0000021306B007E0143306822011044C0F899
:1032F0008C11306821010844D0F8800150F00100A1
:10330000316822011144C1F8800101F04FFB070030
:10331000002C0AD1DFF87C043168896801408142C1
:1033200001D1012018E0002016E0012C0AD1DFF8BD
:103330006804316889680140814201D101200BE0B5
:10334000002009E0DFF854043168896801408142B7
:1033500001D1012000E00020002822D115F1010F49
:10336000D6D0002D04D001F021FBC01B8542CFD266
:10337000032086F83C00002C03D18020316888604F
:103380000AE0012C04D14FF400403168886003E06A
:103390005FF4000031688860002086F83D0003205B
:1033A00020E096F93C00422804D0522806D072282A
:1033B00008D00BE0222086F83C000AE0322086F894
:1033C0003C0006E0622086F83C0002E0012086F81E
:1033D0003C00002086F83D00002003E0042086F831
:1033E0003C000120F2BD0000006400400A00D2B29F
:1033F000002A11D190F93C20222A0BD090F93C20D0
:10340000422A07D090F93C20622A03D090F93C2050
:10341000722A01D1022071E00A00D2B2012A11D130
:1034200090F93C20322A0BD090F93C20522A07D048
:1034300090F93C20622A03D090F93C20722A01D1F5
:1034400002205BE090F93D20012A01D1022055E0E5
:10345000012280F83D200A00D2B2002A18D190F94A
:103460003C20122A04D0322A06D0522A08D00BE07F
:10347000422280F83C2023E0622280F83C201FE0BA
:10348000722280F83C201BE0222280F83C2017E0CA
:1034900090F93C20122A04D0222A06D0422A08D0D1
:1034A0000BE0522280F83C200AE0622280F83C20A7
:1034B00006E0722280F83C2002E0322280F83C20B4
:1034C000002202640268526942F40F4252F0010283
:1034D00003685A61002280F83D20C9B2002906D154
:1034E0000168496951F00A010068416105E001681D
:1034F000496951F05001006841610020704738B5BA
:10350000040000200020002000252068C16809096F
:1035100011F0010120684069C0F3C00010F0010003
:10352000002906D0002804D055F400751020216829
:10353000C86020680169090911F00101206840692B
:10354000C0F3801010F00100002906D0002804D03C
:1035500055F4806510202168086120684069C00723
:103560003DD58C48216889680140814201D1012004
:1035700000E000208849226892680A408A4201D10E
:10358000012100E00021854A23689B681340934293
:1035900001D1012200E000220843104300281ED080
:1035A00020688068400810F0010021688968490A95
:1035B00011F0010122689268520C12F001020843D6
:1035C0001043002803D0200000F0EEF801E055F48D
:1035D0000065206881687248014320688160206826
:1035E000C16811F0030120684069C0F3400010F089
:1035F0000100002905D0002803D00021200000F0A0
:1036000000F92068016911F0030120684069C0F3E6
:10361000001010F00100002905D0002803D001217E
:10362000200000F0EEF8206C0543256420688269D4
:1036300012F0010220684069C0F3002111F001017D
:1036400020684069C0F3C03010F00100002A07D0A4
:10365000002905D0002803D0206C50F00100206420
:1036600020688269520812F0010220684069C0F3A4
:10367000402111F0010120684069C0F3C03010F012
:103680000100002A07D0002905D0002803D0206CB3
:1036900050F00200206420688269920812F0010252
:1036A00020684069C0F3802111F001012068406961
:1036B000C0F3C03010F00100002A07D0002905D067
:1036C000002803D0206C50F004002064206880693A
:1036D00010F0700F01D1012200E000222068406943
:1036E000C0F3C02111F0010120684069C0F3C0306F
:1036F00010F00100002A38D1002936D0002834D03B
:103700002068806910F0700010280AD020280DD0A1
:10371000302810D0402813D0502816D0602819D057
:103720001DE0206C50F00800206418E0206C50F080
:103730001000206413E0206C50F0200020640EE0A4
:10374000206C50F04000206409E0206C50F08000B4
:10375000206404E0206C50F480702064FFE720684F
:10376000806930F0700021688861206C00280ED0DC
:10377000042021684860012084F83C0020684169E9
:103780000848014020684161200005F04FFF31BD2D
:103790000000000003000004000300080000031004
:1037A00019050100A470FFFF80B501684969490847
:1037B00049000268516190F93C10122905D1016855
:1037C000496931F40F410268516190F93C10422976
:1037D00004D0522906D0722908D00BE0222180F8AB
:1037E0003C100AE0322180F83C1006E0622180F8AB
:1037F0003C1002E0012180F83C1005F018FF002089
:1038000002BD10B5002200220A00D2B2002A01D166
:10381000436B00E0836B02680C00E4B22401224495
:10382000D2F8B02112F004029A609A68002A09D1F5
:1038300002680C00E4B224012244D2F8B021520DF7
:103840001A6008E002680C00E4B224012244D2F8B5
:10385000B021D2085A6002680C00E4B2240122446C
:10386000D2F8B02112F00202DA6002680C00E4B271
:1038700024012244D2F8B42112F00F021A610A0086
:10388000D2B21A6202680C00E4B224012244D2F8D7
:10389000B421C2F30722DA6102680C00E4B2240109
:1038A0002244D2F8B8211A7502680C00E4B224014F
:1038B0002244D2F8B821120A5A7502680C00E4B208
:1038C00024012244D2F8B821120C9A7502680C0027
:1038D000E4B224012244D2F8B821120EDA7502684B
:1038E0000C00E4B224012244D2F8BC211A7602680A
:1038F0000C00E4B224012244D2F8BC21120A5A7608
:1039000002680C00E4B224012244D2F8BC21120C5B
:103910009A7602680C00E4B224012244D2F8BC2159
:10392000120EDA760A00D2B2002A09D120220368E8
:10393000DA600268526932F00A0203685A6108E0EC
:10394000202203681A610268526932F0500203684B
:103950005A6190F93C20222A01D0322A05D102680E
:10396000526932F40F4203685A61C9B2002918D172
:1039700090F93C10422904D0622906D0722908D05F
:103980000BE0122180F83C1023E0322180F83C103B
:103990001FE0522180F83C101BE0012180F83C1010
:1039A00017E090F93C10522904D0622906D0722900
:1039B00008D00BE0122180F83C100AE0222180F8A8
:1039C0003C1006E0422180F83C1002E0012180F822
:1039D0003C10FCF7D1FE002010BD30B4002513E0F0
:1039E00050F8042BD30744BFA9F101039A18091F0B
:1039F000042942F8045BFAD213468C0744BF1580B1
:103A00009B1CC90748BF1D7050F8041B0029E7D153
:103A100030BC704710B50400002C01D1012014E027
:103A200094F93900002805D1002084F838002000DE
:103A300000F05EF9022084F83900211D206800F0B2
:103A4000CEF8012084F83900002010BD0168C96853
:103A500051F001010268D1600168096851F001016B
:103A6000006801600020704710B5040020680069FC
:103A700080071AD52068C068800716D57FF002003D
:103A800021680861012020762068806910F0030F0A
:103A900003D0200005F0CCFD05E02000FDF721FD5E
:103AA000200005F0C6FD0020207620680069400750
:103AB0001AD52068C068400716D57FF00400216839
:103AC0000861022020762068806910F4407F03D0CE
:103AD000200005F0ADFD05E02000FDF702FD20000F
:103AE00005F0A7FD002020762068006900071AD5A0
:103AF0002068C068000716D57FF0080021680861BB
:103B0000042020762068C06910F0030F03D0200045
:103B100005F08EFD05E02000FDF7E3FC200005F038
:103B200088FD0020207620680069C0061AD520682C
:103B3000C068C00616D57FF0100021680861082013
:103B400020762068C06910F4407F03D0200005F083
:103B50006FFD05E02000FDF7C4FC200005F069FDC5
:103B60000020207620680069C0070AD52068C06858
:103B7000C00706D57FF00100216808612000FDF72D
:103B8000F8FA2068006900060AD52068C0680006B7
:103B900006D57FF0800021680861200005F04AFD0D
:103BA0002068006940060AD52068C068400606D52E
:103BB0007FF0400021680861200005F03CFD20688E
:103BC000006980060AD52068C068800606D57FF0A7
:103BD000200021680861200005F02EFD10BD10B402
:103BE00000220468DFF8DC30984212D0B0F1804F38
:103BF0000FD0DFF8D42090420BD0DFF8D0209042D5
:103C000007D0DFF8CC20904203D0DFF8C8209042E4
:103C100001D1012200E00022D2B2002A03D034F008
:103C200070044A68144398422AD0B0F1804F27D0DC
:103C3000DFF89420904223D0DFF8902090421FD0EC
:103C4000DFF88C2090421BD0DFF88820904217D0FC
:103C5000DFF88420904213D0DFF8802090420FD00C
:103C6000DFF87C2090420BD0DFF87820904207D01C
:103C7000DFF87420904203D0DFF87020904201D129
:103C8000012200E00022D2B2002A03D034F44074B2
:103C9000CA68144304608A68C2620A6882629842F1
:103CA00003D0DFF83020904201D1012200E0002251
:103CB000D2B2002A01D0096901630121416110BC1F
:103CC0007047000000000140000400400008004070
:103CD000000C00400004014000400140004401404D
:103CE0000048014000180040001C00400020004037
:103CF0007047B1F5807F02D34FF0FF3070470170FD
:103D0000012070470078401E8041C043C00F7047BB
:103D100080B502F098FD64480068002803D163482C
:103D20000068002805D000226149FA2000F038F828
:103D300002E000205F49086001BD80B55D49086868
:103D400000280ED158480068002803D15748006861
:103D5000002806D00120086000225549FA2000F012
:103D60001FF801BD38B504002500686880472200AF
:103D70005149286800F014F831BD10B5012408E05D
:103D80004E4800EBC4024C4950F8340000F008F8EB
:103D9000641C052CF4D300F05BFD4949086010BD9C
:103DA000F8B505000E001700062000F02FFA0400F9
:103DB000002C4BD000F04CFD0100424A1068002856
:103DC00003D100203E4B196003E03D480068091A0A
:103DD000080000212160A660E7604019606010685B
:103DE000002801D1146031E010684068854208D293
:103DF00010684068451B10684560106820601460BA
:103E000024E0106800E0006800281FD06368416863
:103E10005B1A63600168002904D0616803685B680D
:103E20009942F0D20168002906D001684A686168A9
:103E3000521A01684A6006E061688D4203D2116837
:103E400049684D196560016821600460F1BD2DE984
:103E5000F8431C4C2068002823D000F0F9FC184DD2
:103E60002E68861B00272168002917D048688642E3
:103E700014D301272A68486882182A604868361ACD
:103E800008682060D1F80880D1F80C90062000F076
:103E9000D1F94046002801D04846C047FFB2002F64
:103EA000E0D1BDE8F1830000B87D0020BC7D00209A
:103EB000113D0008E07D0020653D000808DF000896
:103EC000DC7D0020D87D002031B500F06FFD0400BE
:103ED000009D15F1010F00D06D1C00F067FD001B67
:103EE000A842FAD331BD0268531C036011707047B9
:103EF00010B4AA4A116803880B44984213D0197968
:103F0000002910D1A64909688B420CD0A5490C683C
:103F10009C4200D10860198801801168411A146818
:103F20001B8823445980116843880B4483420FD077
:103F3000197900290CD19B490C68844200D10B608F
:103F40000188198011685B1A116800880844438051
:103F500010BC704710B491499348800880000860F5
:103F600008684FF42052028000234380002303712D
:103F70008B480B68134403600123046823710368B2
:103F80001A800068428008688649086010BC704743
:103F900080B5002812D081490968884203D380493E
:103FA0000968884200D309E00838002101717D4981
:103FB0000A68904200D20860FFF79AFF01BDF0B492
:103FC0000A0092B2D21C4FF6FC710A40110089B26D
:103FD0000C2900D20C22110089B242F60103994249
:103FE00001D3002064E06D4B1968884203D36C490B
:103FF0000968884200D35BE0B0F108041D68651BC6
:104000002688290089B2761A083E3100170089B245
:10401000BFB2B94201D200204AE01100370089B294
:10402000BFB2B94244D0196827880F4439790029B2
:104030001FD13988521908325A4ED6F800C0BC45F3
:1040400005D11F6894461FFA8CFC674437601E68D0
:104050001700BFB23E44002737713180758022803F
:104060003188B1F5205F23D01968338819444A801C
:104070001EE0B6B2110089B214318E4218D3521923
:10408000083219681600B6B23144464E3768B94254
:1040900000D2316000260E7126880E804D8022806D
:1040A0000C88B4F5205F03D01B68098819444A8046
:1040B000F0BC704770B40100080080B2002801D144
:1040C000002069E089B2C91C4FF6FC70014008006D
:1040D00080B20C2800D20C21080080B242F6010206
:1040E000904201D3002057E02C4A2E4B18681468E8
:1040F000041B02E01068A4B2045B200080B20D0033
:10410000ADB2D5F52055A84245D210682500ADB214
:10411000054428790028EDD12E88200080B2361A77
:10412000083E080080B28642E4D32E88200080B288
:10413000361A083E080080B21430864216D3091998
:10414000083110680E00B6B23044002606712E8881
:1041500006804480298001242C710488B4F5205FF6
:1041600006D0146800882044418001E001202871B5
:10417000186885420CD1196802E01068098801446A
:104180000879002803D0064800688142F5D11960FB
:1041900015F1080000E0002070BC7047707D002021
:1041A000747D0020787D00206B0200200021826851
:1041B00011604268D21C92089200002107E08368D7
:1041C0001B68136083681A6003881A44491C43887B
:1041D0009942F4DB704710B5002407E01D48210028
:1041E00089B250F82100FFF7E1FF641C200080B283
:1041F0000928F3D310BD010088680068002803D0A7
:10420000026889680A6000E00020704780B50100FC
:1042100049B2092901DB002005E00E4940B251F8FE
:104220002000FFF7E8FF02BD826812680A6080681C
:104230000160704780B5020052B2092A07DA0029EE
:1042400005D0044A40B252F82000FFF7EDFF01BD4F
:104250000000000058DF000870472DE9F84F040007
:104260000D0016001F00DDF82880DDF82C90DDF829
:1042700030A0002060600020A0600020E0600020EE
:1042800084F833000421002214F1240B584605F071
:10429000D5F9032084F828000020E061C4F82080CC
:1042A0003948017884F836100178491C0170C4F847
:1042B00010A03B0032002900200000F00DF8200083
:1042C000C847002801D0002004E030480168216080
:1042D00004602000BDE8F28FF8B505000C00160060
:1042E0001F00002C02D0206800280CD121002800DB
:1042F00000F016F83100280000F03BF839002800E3
:1043000000F030F80BE03100280000F032F83900FE
:10431000280000F027F82100280000F001F8F1BD86
:1043200038B505000C00002C02D02068009002E097
:1043300018480068009000986968884211D0694662
:10434000281D02F0C9FF6946281D02F05AFA002C08
:1043500001D1002000E0206868600121280000F001
:104360002EF831BD002901D1002100E00968C160AB
:104370007047002901D1002100E009688160704781
:1043800003490860704700002D7E0020A07D0020BA
:10439000A47D002024E2000880B590F83310C907FE
:1043A0000CD490F8331051F0010180F8331090F8DC
:1043B0003310490702D5032100F001F801BD80B593
:1043C000C90709D54168002906D090F833100907BC
:1043D00002D5011D05F0DBFD01BD80B590F833105D
:1043E000C9070BD590F8331011F0FE0180F8331097
:1043F00090F83310090701D505F022FB01BD002814
:1044000000D0C1617047000080B586B000200590E3
:10441000DFF80005016851F000710160016811F0DA
:1044200000710591059900210591016851F08061A5
:104430000160016811F080610591059900210591E5
:10444000016851F000610160016811F0006105919F
:10445000059900210591016851F001010160016891
:1044600011F001010591059900210591016851F0B4
:1044700004010160016811F0040105910599002112
:104480000591016851F040010160016811F040019F
:104490000591059900210591016851F000710160B5
:1044A000016811F0007105910599002105910168DD
:1044B00051F080610160016811F0806105910599FA
:1044C00000210591016851F000610160006810F061
:1044D0000060059005983220009002200190002095
:1044E0000290032003900B2004906946DFF8280413
:1044F00000F0AEFA86200090022001900020029089
:10450000032003900B2004906946DFF8100400F0AC
:104510009FFA4FF4D04000900220019000200290BA
:10452000032003900B2004906946DFF8F40300F0A9
:104530008FFA002200213D20FDF779FB3D20FDF799
:1045400087FB07B000BD3EB504000020009001A825
:10455000DFF8D013D1E90023C0E90023DFF8C85306
:10456000DFF8C803286001A86861012068604FF483
:104570008040A8604FF40060E8605FF400002862AB
:104580000120A8610020E861002028822800FDF7B2
:104590001FFE00280AD1DFF89803FDF775FC94F898
:1045A000330050F0040084F8330003E0DFF88403A4
:1045B000FDF76AFC0423DFF88023DFF8801328006E
:1045C000FDF72BFF0423DFF87823DFF878132800AA
:1045D000FDF761FF062084F82C00022084F82D00EE
:1045E000002084F82E00002084F82F00002084F89A
:1045F0003000002084F83100002084F8320040F2BE
:10460000DC50608594F8330050F00A0084F83300E1
:104610002800FEF777F96A4611212800FEF7F0F826
:10462000009850F003000090009A11212800FEF736
:1046300029F96A4612212800FEF7E2F8009850F0A6
:1046400020000090009A12212800FEF71BF937BDC8
:104650002DE9F84FB44DE86AD0F808B05FF00009D2
:10466000002000200020EE6A5FF0000A0C000DE040
:104670003A00606800EB08010BEB0A08404605F0C1
:1046800093FC17EB0A0A17EB09092468002C32D0B7
:104690003068002803D467895FF0000813E07FF0DA
:1046A00007002DE0D6F808B0AAF2F450C71908F2B6
:1046B000F458B8EB0A0809F2F4594846D146B0EB71
:1046C00009095FF0000A1AEB070040F2F551884231
:1046D000CED340F2F452B2EB0A02606800EB08015C
:1046E000D344584605F060FCF66830680028D9D5F8
:1046F0007FF0070004E049462800FDF70BFF00208B
:1047000041F214012A685258920607D520222B68DC
:104710005A5000212A6841F20403D15040B2BDE84A
:10472000F28F2DE9F84F0025002000200020002006
:104730007D4E3000FDF785FF002801D0002062E0AB
:10474000F16BD6F84080080080B2002805D0032223
:1047500089B2042005F07BFC0500002D36D0376BB4
:104760005FF0000A2C002AE040F2F452B2EB0A0299
:1047700008EB0A01606800EB0B08404605F014FCEA
:10478000FF68D7F80880AAF2F45010EB09090BF281
:10479000F45BBBEB0A0AD3465FF0000A1AEB090090
:1047A00040F2F5518842DFD24A4608EB0A016068C0
:1047B0008344584605F0F8FB19EB0A0A2468002CDC
:1047C00004D0B4F80A905FF0000BE7E7306B0021EB
:1047D00005E0026852F000420260C068491CB26BFA
:1047E0009142F6D30020B06341F2140031680958B9
:1047F000090607D58021326811500020316841F246
:10480000080288502800BDE8F28F38B5050028005E
:10481000FFF787FF0400002C0AD0290020002A6936
:10482000904740B2002803D0200005F0A7FD0020EB
:1048300031BD80B5732180F83410742180F83510B3
:104840004149416141498161FFF77DFE002002BD80
:1048500080B500F0ABF802BD3EB504000020019029
:104860000020009094F8330040074AD53848FDF7FF
:104870000BFB2D4D6868002824D04FF48052002196
:104880002800FDF7FFFF00F091F801906A46012132
:104890002800FDF7B5FF00F089F80199401A40F2B1
:1048A000E93188420ED200988006EFD56A46102181
:1048B0002800FDF7A5FF0098400716D54FF40060CB
:1048C000E86014E0EA68D20892B2A868400880B2B2
:1048D000024300212800FDF7D5FF00212800FEF744
:1048E0005BF82800FEF70EF80EE00020E860009864
:1048F000800702D50020A860EFE74FF48040A86051
:10490000EBE70948FEF723F82000FDF7EFFA37BD83
:104910000000000030380240000802400000024061
:1049200000180240F4E10008C07900200080024035
:10493000E4E00008F4E000084C4200202878002061
:104940007C2A0020A87700203F9C000851460008E0
:10495000F4DF000890F93820012A01D1022024E078
:10496000012280F83820022280F83920026852683B
:1049700032F0700203685A60026853680A68134391
:10498000026853600268926832F0800203689A609D
:104990000268926849680A4301688A60012180F8C8
:1049A0003910002180F83810002070470148006855
:1049B000704700BFA87D002010B5040007480068BC
:1049C0004FF47A71B0FBF1F0FDF747F900222100B6
:1049D0005FF0FF30FDF72BF9002010BD0400002030
:1049E00080B50320FDF71FF9002200217FF00B00A6
:1049F000FDF71DF9002200217FF00A00FDF717F9ED
:104A0000002200217FF00900FDF711F900220021AA
:104A10007FF00400FDF70BF9002200217FF0030076
:104A2000FDF705F9002200217FF00100FDF7FFF8F6
:104A3000002200215FF0FF30FDF7F9F8002200218D
:104A40000520FDF7F4F80520FDF702F901BD00008F
:104A5000F8B4002200220022002337E0082704E0F7
:104A6000DFF8DC219042F9D10727FFB213F00302EF
:104A7000D2B2920097403E431A00920845F8226055
:104A8000DFF8C0512A68A2434E68F60300D52243DE
:104A90002A60DFF8B4512A68A2434E68B60300D5F5
:104AA00022432A60DFF8A4512A68A2434E68F60226
:104AB00000D522432A60DFF898512A68A2434E6845
:104AC000B60201D5144322002A605B1C102B80F033
:104AD000AB80012515FA03F20C6814409442F4D11E
:104AE0004A68022A02D04A68122A17D11A00D2084C
:104AF00000EB8202166A0F2713F00702D2B292006F
:104B00009740BE430F6913F00702D2B2920097405C
:104B10003E431A00D20800EB8202166207680326A1
:104B20001A00D2B2520016FA02F2974391F804C06A
:104B30001CF0030C1A00D2B252001CFA02FC5CEA10
:104B4000070707604A68012A08D04A68022A05D088
:104B50004A68112A02D04A68122A19D187681A00B5
:104B6000D2B2520016FA02F29743D1F80CC01A00E2
:104B7000D2B252001CFA02FC5CEA07078760426866
:104B80009D40AA434D68C5F300159D402A434260ED
:104B9000C5681A00D2B252009640B5438E681A001A
:104BA000D2B2520096403543C5604A68D2008CD5D7
:104BB00000220092274A156855F480451560126856
:104BC00012F480420092009A234D1A00920855F880
:104BD00022600F2713F00302D2B292009740BE4327
:104BE0001E4A904201D100273FE71D4A904201D161
:104BF00001273AE71B4A904201D1022735E71A4ABA
:104C0000904201D1032730E7184A904201D104278E
:104C10002BE7174A904201D1052726E7154A904213
:104C20007FF41EAF062720E7F1BC704752B2002A7E
:104C300002D089B2816102E089B2090481617047C2
:104C4000001C0240003C0140043C0140083C014083
:104C50000C3C01404438024008380140000002404A
:104C60000004024000080240000C02400010024014
:104C7000001402400018024010B50400002C01D1BD
:104C8000012033E0A0690028FFD194F83900002802
:104C900005D1002084F838002000FDF75DF82420BD
:104CA00084F839002068C06830F400502168C8607A
:104CB000200000F036FA2068006930F49040216846
:104CC00008612068406930F02A0021684861206846
:104CD000C06850F400502168C8600020E0632020C4
:104CE00084F83900202084F83A00002010BD2DE916
:104CF000FC4105000C0017001E00002095F839004B
:104D000020285FD1002C03D0380080B2002801D1C8
:104D1000012058E095F93800012801D1022052E025
:104D2000012085F838000020E863212085F839004B
:104D3000FFF73CFE8046AF84EF8403E020782968CB
:104D40004860641CE88C002829D0E88C401EE88468
:104D5000A868B0F5805F17D10096434600228021F5
:104D6000280000F0FCF8002801D003202BE02000F0
:104D70000088C005C00D296848602869002801D155
:104D8000A41CDFE7641CDDE7009643460022802177
:104D9000280000F0E4F80028D0D0032013E00096AB
:104DA000434600224021280000F0D9F8002801D015
:104DB000032008E0202085F83900002085F838001D
:104DC000002000E00220BDE8F68190F83A30202B68
:104DD00029D1002903D013009BB2002B01D101205F
:104DE00022E090F93830012B01D102201CE0012390
:104DF00080F8383081628285C2850021C16322211A
:104E000080F83A10002180F838100168496951F0A3
:104E10000101026851610168C96851F4907100682C
:104E2000C160002000E00220704738B5040020680F
:104E300001682068C268206843690020002011F0E2
:104E40000F00002807D18D0605D5950603D5200053
:104E500000F019F982E0002870D0D80702D412F4CB
:104E6000907F6BD011F00100C0B2002805D0D005B2
:104E700003D5E06B50F00100E063480708D513F05C
:104E80000100C0B2002803D0E06B50F00200E063E4
:104E9000880708D513F00100C0B2002803D0E06BEA
:104EA00050F00400E063080708D513F00103DBB2FB
:104EB000002B03D0E06B50F00800E063E06B0028AB
:104EC0003BD0880604D5900602D5200000F0DBF820
:104ED00020684069800910F00100E16B090701D4E6
:104EE000002825D0200000F071F8206840694006B5
:104EF0001AD52068406930F0400021684861606B35
:104F000000280DD00FF2E500616B0865606B05F0BD
:104F100091FB002811D0606B616B096D88470CE034
:104F2000200005F09AFB08E0200005F096FB04E065
:104F3000200005F092FB0020E0630FE0080605D595
:104F4000100603D5200000F05BF807E0480605D501
:104F5000500603D5200000F088F8FFE731BD2DE9A9
:104F6000F04105000E0090461F00069C286800686E
:104F70003040B04201D1012000E00020414649B25A
:104F8000884220D114F1010FF0D0002C04D0FFF79B
:104F90000DFDC01B8442E9D22868C06830F4D0708F
:104FA0002968C8602868406940084000296848614D
:104FB000202085F83900202085F83A00002085F867
:104FC0003800032000E00020BDE8F0810168C968D6
:104FD00031F490710268D16001684969490849005B
:104FE00002685161202180F83A10704780B5806BCB
:104FF0000021C1850021C18405F02FFB01BD000007
:1050000090F8391021292ED18168B1F5805F10D137
:10501000016A0988C905C90D026851600169002942
:1050200003D1016A891C016209E0016A491C01621D
:1050300005E0016A4A1C0262097802685160C18C6D
:10504000491EC18489B200290BD10168C96831F0B9
:1050500080010268D1600168C96851F040010068B0
:10506000C160002000E00220704780B50168C96877
:1050700031F040010268D160202180F8391005F03C
:10508000EDFA002002BD80B590F83A10222946D1F1
:105090008168B1F5805F15D1826A0169002908D164
:1050A00001684968C905C90D1180816A891C81623E
:1050B0001AE00168496801F0FF011180816A491C0A
:1050C000816211E00169002906D1816A4A1C82626D
:1050D000026852680A7007E0816A4A1C82620268AC
:1050E000526812F07F020A70C18D491EC18589B2D3
:1050F000002912D10168C96831F490710268D16049
:10510000016849694908490002685161202180F815
:105110003A10FCF7E5F9002002E0002000E0022050
:1051200002BD2DE9F041040000202068016931F43E
:105130004051E0680143206801612068C168BA48B5
:105140000140A2682069024360690243E0690243AA
:1051500011432068C1602068416931F44071A06941
:10516000014320684161E069B0F5004F40F0AE8036
:105170002068AE49884203D02068AD49884252D1A8
:10518000FCF782FC8046FCF77FFC0500FCF77CFC0A
:105190000600FCF779FC0700FCF776FC6421192275
:1051A00002FB08F863685B00B8FBF3F35FF0640C84
:1051B000B3FBFCF35543D4F804C05FEA4C0CB5FBD9
:1051C000FCF55643D4F804C05FEA4C0CB6FBFCF681
:1051D0005FF0640CB6FBFCF601FB1655ED003235B2
:1051E0006426B5FBF6F56D0015F4F87515EB03159F
:1051F000574363685B00B7FBF3F302FB00F26068A0
:105200004000B2FBF0F06422B0FBF2F001FB103181
:10521000C80032306421B0FBF1F010F007004519EE
:1052200020688560FDE0FCF71FFC8046FCF71CFC55
:105230000500FCF719FC0600FCF716FC0700FCF75C
:1052400013FC6421192202FB08F863685B00B8FBB9
:10525000F3F35FF0640CB3FBFCF35543D4F804C0E4
:105260005FEA4C0CB5FBFCF55643D4F804C05FEA8A
:105270004C0CB6FBFCF65FF0640CB6FBFCF601FBD5
:105280001655ED0032356426B5FBF6F56D0015F4C4
:10529000F87515EB0315574363685B00B7FBF3F331
:1052A00002FB00F260684000B2FBF0F06422B0FB49
:1052B000F2F001FB1031C80032306421B0FBF1F094
:1052C00010F00700451920688560AAE0206857495A
:1052D000884203D020685649884251D1FCF7D4FB5C
:1052E0008046FCF7D1FB0500FCF7CEFB0600FCF77F
:1052F000CBFB0700FCF7C8FB6421192202FB08F86E
:1053000063689B00B8FBF3F35FF0640CB3FBFCF342
:105310005543D4F804C05FEA8C0CB5FBFCF556434A
:10532000D4F804C05FEA8C0CB6FBFCF65FF0640CAA
:10533000B6FBFCF601FB16552D0132356426B5FB94
:10534000F6F515F0F00515EB0315574363689B0060
:10535000B7FBF3F302FB00F260688000B2FBF0F0F1
:105360006422B0FBF2F001FB1031080132306421FD
:10537000B0FBF1F010F00F0045192068856050E097
:10538000FCF772FB8046FCF76FFB0500FCF76CFB3B
:105390000600FCF769FB0700FCF766FB6421192295
:1053A00002FB08F863689B00B8FBF3F35FF0640C42
:1053B000B3FBFCF35543D4F804C05FEA8C0CB5FB97
:1053C000FCF55643D4F804C05FEA8C0CB6FBFCF63F
:1053D0005FF0640CB6FBFCF601FB16552D0132356F
:1053E0006426B5FBF6F515F0F00515EB03155743EC
:1053F00063689B00B7FBF3F302FB00F26068800078
:10540000B2FBF0F06422B0FBF2F001FB10310801B6
:1054100032306421B0FBF1F010F00F004519206824
:105420008560BDE8F0810000F369FFFF00100140D6
:10543000001401402DE9F04F0FF2A41CA1B0DCE9EB
:105440000089CDE900892A9DDFF8DC9B04910024C6
:105450008DF843500D944FF0FF38824616461F4694
:105460000FE0B3462C461BF8011B0498D0470028D8
:10547000049000F0A2800D98401C641E0D90F2D1A3
:1054800076193078252808D100210022079108924A
:1054900009910A920B910C920DE06A464146304602
:1054A00005F010F9050001D10D98A1E0D9D501252D
:1054B000E6E741F0010116F8010F2028F9D0232872
:1054C0000CD02B2804D02D2805D0302809D076E028
:1054D00041F00201EFE741F00401ECE741F008017F
:1054E000E9E741F01001E6E70F9209E00F9848451F
:1054F00005DA00EB800402EB4402303A0F92761C8E
:105500003278A2F130000A28F0D330782E2818BF64
:10551000CDF8388022D116F8010F2A2807D1386833
:105520003860761C50F8042B38600E9216E02D2857
:105530000CBF761C002000220E920AE040B90E9AA1
:105540004A4505DA02EB820403EB4403303B0E9339
:10555000761C3378A3F130020A2AEFD3ADF840105D
:1055600021A0317805F0B8F808B116F8010B8DF8D4
:1055700042009DF84200682804D1307868280AD19A
:10558000622105E06C2804BF30786C2803D17121BA
:105590008DF84210761C12A806903A4616F8013B88
:1055A00002A9504600F064F838B912AA02A9504680
:1055B00000F0C8F900287FF564AF404618E02A28BB
:1055C00092D13A683A6052F8040B3A6000280F9082
:1055D00003D540420F9041F00401761C95E700008E
:1055E0000000000000000000686A6C747A4C000043
:1055F00021B0BDE8F08F622820D0682811D06A2839
:1056000003D06C2827D0712825D10868C01D20F050
:1056100007000860D0E900230830086019461046EA
:105620007047002A0A680A60106803D0121D0A60D9
:1056300000B217E0121D0A6080B217E0002A0A6863
:105640000A60106803D0121D0A6040B20AE0121D01
:105650000A60C0B20AE0002A0A680A60106803D033
:10566000121D0A60C1177047121D0A6000217047A1
:105670007CB50D4611461C462E69B4F1250200F09A
:105680004F811C3A00F08480121F022A40F2808071
:105690000E3A00F00981521F59D0093A78D0921E73
:1056A00016D0521E35D0521E022A71D9121F30D088
:1056B000521F00F09880521E49D0521E00F0E28026
:1056C000D21E00F0FF80921E41D0D21E3FD02DE1AD
:1056D00095F83A406C2C09D06869421C6A610A68E6
:1056E0000A6052F8043B0A60335429E10A680A60F0
:1056F00052F8043B0A600093002201924FF0FF33FE
:105700002B636A46294600F098F9002840F1188179
:1057100003E195F83A000122FFF76DFFC5E90001AA
:10572000002904D56869411C69612D220DE0288F8C
:10573000810704D56869411C69612B2205E0C00717
:1057400021D56869411C6961202232541BE095F81B
:105750003A000022FFF74FFFC5E9000195F8380035
:10576000010710D5D5E90023002B08BF002A0AD075
:1057700044F02000782806D1686930213154401C5B
:10578000421C6A613454214668693044E86087E00D
:105790000868C01D20F007000860D0E90023083029
:1057A0000860C5E90023D5E90001C80F04D0686985
:1057B000411C69612D220DE0288F810704D568699D
:1057C000411C69612B2205E0C00704D56869411CB2
:1057D00069612022325468693044E86021462846D5
:1057E00000F036FAACE005F13A02507820B14FF003
:1057F000FF340FF6043074E01078622808D068286F
:1058000024D06A2812D06C282ED071280ED02BE01C
:105810000A680A6052F8040B0A6020B94FF0FF349E
:105820000FF6EC205DE0E96A017089E00A680A6021
:1058300052F8040B0A6020B94FF0FF340FF6D02065
:105840004FE0EA6AD317C0E9002379E00A680A60EA
:1058500052F8040B0A6020B94FF0FF340FF6B02065
:105860003FE0E96A01806BE00A680A6052F8040BC5
:105870000A6020B94FF0FF340FF6942031E0E96A56
:1058800001605DE00A680A6052F8040B0A600021BA
:1058900020F0000221F0FF33C5E90023EE607821FB
:1058A000284600F02DF94BE06C2285F83A200B6871
:1058B0000B6053F8042B0B6052BB4FF0FF340FF614
:1058C00084200EE095F83A206C2AF0D00868086031
:1058D00050F8044B0860EC603CB94FF0FF340FF611
:1058E000482004F005FF201A76BD2E6B002E04D54B
:1058F000204604F01DFF044608E032460021204601
:1059000004F032FF002814BF041B3446AC6117E0DA
:10591000294600F092F8002812D54FF0FF3076BDEE
:105920006869411C69612522325409E06969481C93
:10593000686125227254210002D0431C6B613454EB
:10594000002076BD2DE9F0410E4605469046726B6B
:105950007069316AB46A121AB069521A716A121AFD
:10596000F069521A121A96F83800141B41070DD428
:10597000002C0BDD2746B0682021A8470028B06026
:1059800057D0F06A401C7F1EF062F4D17369424622
:105990003146284600F098FC00284AD1376A002F8B
:1059A0000ADDB0683021A8470028B06041D0F06A15
:1059B000401C7F1EF062F4D1B369F268314628467C
:1059C00000F082FCA8BB776A002F09DDB0683021A7
:1059D000A847B06068B3F06A401C7F1EF062F5D142
:1059E000F068B169F36942183146284600F06CFC52
:1059F000F8B9B76A002F09DDB0683021A847B06058
:105A0000B8B1F06A401C7F1EF062F5D196F83800FC
:105A100041070BD5002C09DDB0682021A847B060F4
:105A200038B1F06A401C641EF062F5D10020BDE878
:105A3000F0814FF0FF30BDE8F0812DE9F8470D46C9
:105A4000A3B02F6B002F0646904648BF6FF000476B
:105A50000FF60C1404F0B4FED4E90023696B40186F
:105A6000CDE90123812828BF4FF0FF3042D2002426
:105A7000002F33DDD8F8001001AA684604F024FE98
:105A80008146B9F1000F38D4D8F8000010B9B9F147
:105A9000010932D44F4521DB6869484481280AD383
:105AA0000021696303AA29463046FFF74BFF040033
:105AB00014D40020686103ABD5F814A04A466946A7
:105AC00003EB0A0004F070FACA44C5F814A058F8B1
:105AD000040B002818BFA7EB0907C9D14CB903AACA
