:020000040800F2
:100000005883002051DA000871D6000873D6000822
:1000100075D6000877D6000879D6000800000000E1
:100020000000000000000000000000007BD6000877
:100030007DD60008000000007FD6000881D60008A9
:100040003DDB000841DB000845DB000849DB000818
:100050004DDB00088DD60008E5D60008EFD6000875
:10006000F9D6000803D700080DD7000851DB0008B7
:1000700055DB000859DB00085DDB000861DB000888
:1000800065DB000869DB00086DDB000871DB000838
:100090008FD6000875DB000879DB00087DDB0008DF
:1000A00081DB000885DB000889DB00088DDB0008A8
:1000B000ADD60008A3D6000891DB000895DB000848
:1000C00099DB00089DDB0008A1DB0008A5DB000828
:1000D000A9DB0008ADDB0008B1DB0008C1D60008D1
:1000E000B5DB0008B9DB0008BDDB0008C1DB000898
:1000F000C5DB0008C9DB0008CDDB0008D1DB000848
:10010000D5DB0008D9DB0008B7D60008DDDB000826
:10011000E1DB0008E5DB0008E9DB0008EDDB0008B7
:10012000F1DB0008F5DB0008F9DB0008FDDB000867
:1001300001DC000899D6000805DC000809DC00088D
:100140000DDC000811DC000815DC000819DC0008D3
:100150001DDC000821DC000825DC000829DC000883
:100160002DDC000831DC000835DC000839DC000833
:100170003DDC000841DC000845DC00080000000010
:1001800049DC00084DDC00082DE9FE4F0500DFF8D2
:10019000F86A686830606889142804DA280001F079
:1001A00058FABDE8F78FDFF8E47A3968786901F02A
:1001B000E9FB002804D1387D10F0F000E02800D1E0
:1001C000ECE73068808901F075FC80B2000BC0B2AA
:1001D00081000800C0B2142805DB28890A00D2B2C9
:1001E00092B2904200D2D9E7DFF8A44A0800C0B228
:1001F00014382080DFF89C8A0020C8F80000688945
:100200000A00D2B292B290420AD32088DFF8882A3C
:100210001080C9B2494209B2280001F00EFA27E065
:100220007FF01301280001F008FADFF86C0A6989F1
:100230000180218804880C1BB0F9001009B24942E2
:1002400009B2280001F0F9F928684089210089B233
:100250008842A3D328684068C8F80000210009B28A
:10026000494209B2286801F0E8F92889041B2C8169
:100270003068008801F01EFC3168088030684088D2
:1002800001F018FC316848803168486801F01AFCB8
:1002900031684860DFF8048AC8F80000316888686F
:1002A00001F010FC31688860DFF83C9BC9F8000061
:1002B0003068C08901F0FEFB3168C88130688089F0
:1002C00001F0F8FB10F03F00DFF8D4190870DFF8F8
:1002D000D009007810F0030F01D0012000E00020C9
:1002E000DFF8C0A929894018AAF800000020DFF82B
:1002F000B8B9DBF8004001E02000E468002C1AD017
:10030000218B326812889142F6D1E18A3268528894
:100310009142F1D161683A699142EDD121687A69DF
:100320009142E9D1002806D0E168C160DBF8000005
:10033000E060CBF80040002C49D1DFF87009046878
:1003400000E0E468002C18D0208B316809888842CE
:10035000F7D1E08A316849888842F2D1606839690A
:100360008842EED1206879698842EAD1200000F005
:10037000C6F9280001F06DF913E70022DFF83039E3
:10038000186806E0002813D00168002910D0020088
:10039000C06800280CD0C18AD6F800C0BCF802C0E2
:1003A0006145F4D10168D7F814C06145EAD1FFE78F
:1003B00000280CD0002A04D0C168D1601968C1603F
:1003C000186000F00FF9280001F043F9E9E6002C6D
:1003D00000F0EA80DFF8DC78002038602889388176
:1003E0007D603068F860DFF8D06800203060DFF8AA
:1003F000CC88002088F80000DFF8A89B0020A9F82E
:100400000000DFF89C080078000703D5687B50F0F7
:1004100001006873206F00280DD0200001F0DDFE80
:1004200010F10D0F06D0206F002804D0BAF800009C
:10043000002800D08FE0DFF888582C60200000F002
:10044000A1F940B210F10D0F00F0858098F800007E
:10045000000712D5D4F88800002805D07FF00D01E0
:100460002069D4F8882090472100584602F01BF8F4
:100470002100012002F002F96DE00020B9F800002F
:10048000002813D0B9F80020A06F002805D092B240
:1004900021002069A36F984700E000207FF00C0145
:1004A00040B2884257D00020A9F8000098F8000018
:1004B000C00615D5A07EC00609D4D4F8880000284F
:1004C00005D07FF00E012069D4F8882090472100E4
:1004D000584601F0E8FF2100012002F0CFF83AE091
:1004E0003068002825D0A07EC00606D5306801F00F
:1004F000B0F8200001F064FC2DE0E06F002807D088
:100500000023326821002069D4F87CC0E04705E070
:10051000002332682100002001F0BDFE01007FF0C1
:100520000C0249B2914216D040B2002801D0306886
:10053000206798F80000800608D5206F002819D0A1
:10054000206F407B50F02000216F4873002028600E
:10055000200002F020FA0020DFF864170860002075
:100560003060786800283CD0786801F072F800208C
:10057000786036E0208D40F66831884202D0208DC8
:10058000401C2085E06F002807D0002300222100B6
:100590002069D4F87CC0E04700E000207FF00C0127
:1005A00040B28842D2D1D6E73068808901F082FA21
:1005B000400713D43068008801903068408800906C
:1005C00017F1100317F11402D8F80000BAF8001060
:1005D00010FA81F1D9F8000002F052FB280001F076
:1005E00038F8DEE57CB50500DFF8280C017849070E
:1005F00000F184800178C9061AD5DFF89006DFF88B
:1006000088160A681288019209684988009110F1D9
:10061000100310F11402DFF884060068DFF8841676
:1006200009884118DFF8C007006802F029FB65E07F
:100630000078800762D5687D01F0ACFE0400002CD4
:100640000ED1002D09D0A869002806D05FF0FF3236
:1006500000212869AB69984701E07FF00F004DE069
:10066000DFF828064169216000696060E88AE0825D
:10067000DFF8146630680088208303202075DFF8D7
:100680001C060168491C6162616AE1620068401EE3
:100690002065286920616567287A10F00C002072B7
:1006A000DFF804060168E160046002F074FC0120D8
:1006B000DFF83C1C0870200000F0CFFD3068C089D6
:1006C000A4F85C00B4F85C00A4F85E00B4F85C0028
:1006D000A4F84A00211D608E01F01FFF60861221E0
:1006E000200002F0A2F840B2002804D0002120002F
:1006F00001F0FFFA02E0200002F04DF973BD1CB5D5
:10070000DFF8101B0A7852073BD40A78920726D5E7
:10071000DFF888452268416A521A002A26D42268E6
:10072000416A521A018D521A012A1FDADFF85C055C
:10073000DFF854150A681288019209684988009107
:1007400010F1100310F114022068DFF85815098821
:100750004118DFF89406006802F092FA11E0097877
:10076000C90703D5DFF88C1B09680162DFF834156F
:100770000988002905D0817E51F00201817602F0BE
:100780000AF913BD3EB5040000200021DFF8845AA9
:100790002978490735D594F91410022907D1DFF8D3
:1007A00048160968E26C914219D1012017E0DFF880
:1007B000EC241168636A994201D101200FE01368AB
:1007C000616A5B1A002B0AD41268616A521A218D81
:1007D000521A012A03DAA17E51F00201A176C0B2B9
:1007E00000280CD0DFF8D404017851F00801017022
:1007F000A07E10F0FE00A0767FF00D0042E2002007
:1008000040E2287880070DD594F91400022809D019
:1008100094F91400032805D0A07E50F00200A076C1
:1008200000202FE2A07EC00603D4DFF8C80A0068CB
:100830002062002084F89200200000F00EFD94F960
:100840001400022814D0C0F01C82042800F0478154
:10085000C0F0B280062800F09F81C0F04E810828C9
:1008600000F0C981C0F03B81092800F0F68108E260
:10087000287810F0120012287BD1DFF86C15086878
:10088000626C521C904274D1DFF810040268521C52
:100890006262626AE26209686164DFF8EC13096807
:1008A000C989A4F85C10B4F85C10A4F85E10006864
:1008B000401E206504202075211D608E01F02DFE54
:1008C0006086B4F85C00A4F84A0041F21D10618E05
:1008D0004900814202D3618E490001E041F21C11BE
:1008E000628E92008A4203D2608E80B2800009E05C
:1008F000618E4900814203D3608E80B2400001E0E6
:1009000041F21C10A4F84800B4F86200401EA4F89C
:100910006200E06E002803D1A06E0168A16601E0CC
:100920000168E16601F0A8FCE06E002803D15FF0E9
:10093000FF30208604E000202086002084F842005A
:10094000D4F88000002807D0002221002069D4F8C4
:1009500080309847010000E000217FF00C00020089
:1009600049B2914200F08E81A07E50F00200A07644
:1009700021E02878C0061ED5DFF81003DFF8081341
:100980000A681288019209684988009110F11003E1
:1009900010F11402DFF804030068DFF80813098877
:1009A0004118DFF84404006802F06AF9002020864C
:1009B000200002F0B1F964E12878C00640F182809D
:1009C000DFF824542968606C091A491E002964D490
:1009D0002968E06C091A01295FDA04202075606F2C
:1009E000002802D17FF0050110E0606F00280BD0D5
:1009F000606F8069002807D0002221002069636FA2
:100A00009B699847010001E07FF00F01080040B2A8
:100A1000002809D049B211F10D0F02D0200001F0D9
:100A2000CFF97FF00C002DE1200000F04BF9B4F875
:100A30005C00A4F84A00DFF86C150888002802D092
:100A40000888401E088041F21D10618E49008142D5
:100A500002D3618E490001E041F21C11628E9200C6
:100A60008A4203D2608E80B2800009E0618E490024
:100A7000814203D3608E80B2400001E041F21C103D
:100A8000A4F848008D480078800627D5A07E50F055
:100A90000200A0760720207520E07C487A490A6889
:100AA0001288019209684988009110F1100310F131
:100AB00014027A4800687B4909884118286802F0C6
:100AC000DFF80BE02878800708D574480068616A71
:100AD000491E884202D1200002F038F9D1E02000FE
:100AE00000F0F0F875480078800605D5A07E50F03B
:100AF0000200A07607202075C3E0200000F0E2F895
:100B00006E480078800639D52878C0062FD5B648BB
:100B10000068E16C88422AD1A06E002827D1A07E0F
:100B200050F00200A076200001F096FC5E480168BB
:100B3000A14203D10168C968016009E0006800E0D2
:100B4000C068002804D0C168A142F9D1E168C16041
:100B50000020E0600120DFF8981708700A20207557
:100B600052480168E160046002F015FA13E0A07ECB
:100B700050F00200A076082020750CE02878C0060E
:100B800009D599480068E16C884204D1A06E00281C
:100B900001D10620207574E0200000F093F847484A
:100BA0000078800626D5A07E50F00200A0762000B6
:100BB00001F052FC3C480168A14203D10168C968B8
:100BC000016009E0006800E0C068002804D0C16846
:100BD000A142F9D1E168C1600020E0600120DFF8A6
:100BE000101708700A20207530480168E160046021
:100BF00002F0D1F945E0200000F064F82878C00642
:100C00002AD579480068E16C884225D1A06E002879
:100C100022D1200001F020FC23480168A14203D129
:100C20000168C968016009E0006800E0C068002848
:100C300004D0C168A142F9D1E168C1600020E06040
:100C40000120DFF8AC1608700A20207517480168EB
:100C5000E160046002F09FF913E0200000F032F838
:100C60002878C0060CD560480068E16C884207D13E
:100C7000A06E002804D11148017851F010010170D4
:100C8000FFE700203EBD00009C7E0020B47D0020D8
:100C9000107F0020A07E0020127F0020A47E002074
:100CA000327F0020187F0020947E0020987E002054
:100CB000907E0020DC7D0020AC7E0020337F002071
:100CC000B07E0020F8B505000024DFF84805007864
:100CD000C00640F1AB81B5F85C00696D0918DFF81A
:100CE00018262B6D10681B1A002B16D4286D13685C
:100CF000984205D16B6D3C4800681B1A002B0CD440
:100D0000686D394B1B68984232D1B5F85C00DFF84A
:100D1000EC351B68DB8998422AD2DFF8E0050068D1
:100D2000C089A5F85C00B5F85E00B5F85C30984263
:100D300003D2B5F85C00A5F85E00106828652A4863
:100D400000686865B5F85C0000280AD195F8910044
:100D500000280DD1002085F89000012085F8910031
:100D600006E095F89100002802D0002085F8910057
:100D70001D4E3268686C121A012A45DADFF88005C8
:100D80000088002839D1686DB5F85C208018884249
:100D900033D1B5F9300000282FD4686C316888420F
:100DA0002BD1012495F8430095F84310491CC9B292
:100DB000884204D295F84300401C85F8430095F81A
:100DC0004300042812DBB5F84810B5F84820688EB7
:100DD000821892B2914210D2B5F84810688E41182C
:100DE000A5F8481009E000BFA87E002095F8430050
:100DF000032802D1280001F0D6FF002C40F0BF806C
:100E0000002085F84300BAE03168686C091A491E71
:100E1000002900F190803168E86C091A012980F2FC
:100E20008A80A87E400707D5A87E10F0FB00A87630
:100E3000B5F84A00A5F84800002085F84200B5F949
:100E40003C00C010B5F93E104018A5F84000002045
:100E500085F843003068686495F91400042842DB83
:100E6000B5F84800B5F84A1088420FD2B5F84810D6
:100E7000B5F84820688E821892B2914233D2B5F804
:100E80004810688E4118A5F848102CE0B5F84810B5
:100E90006A8E688E4243B5F8480092FBF0F0411824
:100EA000B5F848000A0092B290421CD2A5F848104A
:100EB00019E0EC6EE86E0068E866606800F001FC1E
:100EC000606800F0FEFBB5F86210081AA5F8620031
:100ED00034490A88208982180A80200001F0CCF960
:100EE000B5F862000028E86E002818D0E86EC168E6
:100EF000486800F0E7FD0400E86EC068808900F0F3
:100F0000D9FD10F0030F01D0012100E00021E86EAF
:100F10000089201809183068091A0129C9DBE86E10
:100F2000002803D15FF0FF30288601E000202886EA
:100F30000020E87623E0280001F0EDFC1FE0AC6E15
:100F4000A86E0068A866A86E002802D10020A5F847
:100F50006400606800F0B5FB606800F0B2FBB5F8B3
:100F60006210081AA5F862000E490A8820898218C2
:100F70000A80200001F080F9B5F862000028A86E10
:100F800000281FD0A86EC168486800F09BFD0400CF
:100F9000A86EC068808900F08DFD10F0030F03D0AB
:100FA000012102E0167F002000213068041BA86E9A
:100FB0000089241A641A002C04D43168E86C091AD8
:100FC0000129BCDBB5F86010DFF838030088411850
:100FD000A5F86010686B002828D0A96B3068091A42
:100FE000002923D5C3480168686B081A00B2B5F917
:100FF0003C10B0EBE100A98F4118A987010009B2AC
:10100000002901D500B2404200B2B5F93E10B0EB64
:10101000A100E98F4018E887B5F93C00C010B5F988
:101020003E104018A5F8400000206863B44C2088AA
:10103000002800F0DB8095F91400072880F2D680A4
:10104000AD4E696A3068091A491E002936D4696AAA
:101050003068091A2088091A491C01292EDAAA4F7A
:1010600078686A6A3168511A7A6852898A4213DA52
:101070007A6813895B1A05E04289891A0381002284
:101080004281006842898A42F6DB494209B200F097
:10109000D4FA002806D005E0494209B2786800F089
:1010A000CCFA002839896A6A3068121A891A39819B
:1010B000686A3060F8683168416008E03168686AE1
:1010C000091A002903D5A87E50F00200A8763168DD
:1010D000686A091A002900F185803168686A091A6E
:1010E000288D091A491C01297CDA686A316888420E
:1010F00074D1854FF868808900F0DCFC10F0030F94
:1011000001D0012000E00020398940182080288D7E
:101110002188884231D2F868808900F0CBFCC00772
:101120000FD5F868808900F0C5FC10F03E0000F093
:10113000C1FCF9688A894CF2FF010A401043F96842
:101140008881288D3881F868808900F0B3FC800799
:1011500002D53889401E38813989786800F0D4F981
:10116000F868808900F0A6FC10F0030F01D0012080
:1011700000E000203989401820803068218810FA6A
:1011800081F06862298D2088091A2985280000F0DD
:101190001CFE78680089002804D078685B490860E4
:1011A00000207860F868808900F084FCC00704D5CE
:1011B0005748017851F020010170A87EC00708D57A
:1011C000A87E10F0FE00A876A87E50F00200A87657
:1011D00003E0A87E50F00100A87619E0280001F095
:1011E0009AFB15E0280001F096FB11E042490A68DD
:1011F000686A121A002A07D40968686A091A288DD1
:10120000091A491C012903DBA87E50F00200A876C8
:10121000F1BD0000327F002010B43E49086800286C
:1012200005D03D483D4A13880488A3420AD233487A
:10123000006810F1140139480288531C038092B2EF
:10124000885C08E013880088181A13885B1C1380D8
:101250000968C0B2085C10BC7047F8B50400304D96
:10126000288800283DD02D4E00203080FFE73088B0
:101270002988884235D2FFF7CFFFC0B200280ED0B0
:1012800002280DD0F3D3FFF7C7FF0100C9B202292E
:1012900026DB3188C0B2801E41183180E7E720E0AC
:1012A000FFF7BAFF042804D128883188891C8842B6
:1012B00000DA16E0FFF7B0FF07003F02FFF7ACFFD0
:1012C0000743380080B240F2B551884203DA380053
:1012D00080B2002802D140F2B457FFE76786C6E724
:1012E000FFE7F1BD0A48017851F010010170704725
:1012F0002F7F0020887E0020A47E00209C7E00207E
:10130000187F0020167F0020DC7D0020AC7E0020AE
:10131000337F0020A07E0020127F0020147F002059
:10132000107F0020F8B50E00150040B2002806D04E
:1013300002281BD018D304281CD019D31CE0362750
:10134000280040B200286CD0022800F08D80C0F048
:101350008B80032840F09980082001F07BF904007D
:10136000002C0BD100205BE02227E9E70E27E7E7FE
:101370000027E5E70027E3E7002051E02573002080
:101380002060380080B220441030C01C80088000EB
:1013900060602681300080B2390089B2C91C89089A
:1013A0008900D1F50071884201D2370006E0BFB252
:1013B000FF1C4FF6FC700740D7F5007767810120CE
:1013C000E0812700B6B26089361A18E04FF4007148
:1013D0000CE0057300214173002101603860068133
:1013E000310089B2B1F5007FF0D23100418110F1B6
:1013F000100141600121C1814189761A0700012E47
:1014000009DB082001F026F90028E2D1200000F0D5
:1014100020F9002004E00120E0810020607320001A
:10142000F2BD17F113004FF6FC710840320092B282
:10143000D21C4FF6FC710A40101880B201F028FF50
:101440000400002C01D10020EAE7BFB204EB070042
:101450001030C01C80088000606026812089608177
:10146000002020602573D6E7072001F0F3F8040080
:10147000002C01D10020D3E7002060602681208964
:101480006081002020602573C5E70020C8E730B4E4
:101490000400180064B2002C06D0022C14D011D322
:1014A000042C15D012D315E03624039B9BB22500E3
:1014B000ADB2ED1CAD08AD0015FA81F5AB420BD213
:1014C00000201FE02224F0E70E24EEE70024ECE7E2
:1014D0000024EAE7002015E0029B00250560002BB0
:1014E00006D0A4B2E41CA408A4002344436001E095
:1014F0000023436002234373018101894181027308
:101500000121C18130BC704738B504000D002800AE
:10151000218980B288422DD2280080B22189411AC7
:1015200005E060892D1A20890818208124686089C7
:101530002A0092B29042F4D3207B00280FD12800D9
:10154000618980B288420AD0607B800707D46168D5
:10155000091B691889B2200001F01FFE0400658193
:10156000608920812068002802D0206800F071F88E
:101570000020206031BD70B40B001BB2002B01D0E5
:10158000002801D1002044E00B001BB2002B0AD53B
:101590000E0036B2764243893400A4B2A34201D28F
:1015A000012036E001E00E00B6B2047B456823005E
:1015B0009BB2002B03D023009BB2032B0DD14268BA
:1015C0000B001BB25B421A444260426810F11003E8
:1015D0009A4217D2456001201BE023009BB2022BE8
:1015E00002D0A4B2012C26D10B001BB2002B12D5C5
:1015F0004389B6B2B3420ED342680B001BB25B42C2
:101600001A44426042898A184281028989180181FC
:10161000002070BC70470B001BB2012B09DBD2B25B
:10162000002A06D042680B001BB25B421A4442609B
:10163000E8E70120EDE70120EBE780B5002209B2E1
:10164000FFF799FF02BD80B5012209B2FFF793FFB2
:1016500002BD38B50100002901D1002030E000248E
:1016600004E0080001F082FD641C2900002925D057
:10167000C889401EC881C88980B200281CD10D6865
:10168000087B4A7B920704D50A0008001169884745
:10169000EAE7020092B2032A03D1082000F0EEFF2D
:1016A000E2E7020092B2012A02D080B20228D8D129
:1016B000072000F0E3FFD7E70021D7E72000C0B202
:1016C00032BD0100002001E0401C09680029FBD167
:1016D00080B27047002802D0C189491CC18170477F
:1016E000002801D0002900D10DE004E003890A8917
:1016F000D318038100680268002AF7D103890A8998
:10170000D31803810160704710B50C002100FFF76A
:10171000E7FF2000FFF7DEFF10BD2DE9F8430500CD
:101720000C0000270026002D05D0002C03D02889AE
:101730002189884202D27FF00F004BE0698938008E
:1017400080B2091A6289300080B2121A914204DB19
:10175000B4F80A80B8EB060803E0B5F80A80B8EBE5
:101760000708424692B26068310089B20144686855
:101770003B009BB200EB0309484601F005FE18EB65
:10178000070718EB06063000618980B2884201D352
:10179000002624683800698980B2884205D1002774
:1017A0002D68002D01D1002C16D1002C06D06089A7
:1017B0002189884202D12068002810D1002D06D04E
:1017C00068892989884202D1286800280AD1002C1A
:1017D000B4D10020BDE8F2837FF00F00FAE77FF07C
:1017E0000500F7E77FF00500F4E72DE9F047040076
:1017F0000D0090460027002C01D100203FE0002D75
:1018000001D100203BE00026002C01D0002D01D1A9
:10181000002034E02BE0B4F80A90B9EB030940460D
:10182000494680B289B2884200D2C1464A4692B245
:1018300060689BB200EB0301300080B205EB000A48
:10184000504601F0A1FD19EB070719EB0606B8EBAE
:10185000090800230AE0180080B20028DBD0180035
:10186000618980B28842D6D360891B1A24684046B9
:1018700080B2002801D0002CEDD1380080B2BDE844
:10188000F0872DE9F84304000D0016000027002C16
:1018900002D17FF00F0036E0002D02D17FF00F0063
:1018A00031E02089110089B2884202D25FF0FF3016
:1018B00029E0002C05D0002D03D0208992B290425F
:1018C00002D27FF00F001EE018E0B046608941466A
:1018D00089B2884201D2B4F80A80424692B23800F6
:1018E00080B205EB0001D4F80490484601F04CFDAD
:1018F000B6EB080618EB070847462468300080B2AC
:101900000028E2D10020BDE8F283F0B4024610685E
:1019100095681318506803EB5004C0071DD54D445B
:101920001BE013F8017B05F8017B491EF9D1A0B13A
:10193000B60813F8011B06F00306032E08BF13F8C0
:10194000016B01EB06214942801C294405D011F8A6
:10195000016B05F8016B401EF9D1A3420ED013F8BC
:10196000016B16F0030104BF13F8011BC91C3009F9
:101970000F28DAD113F8010B0F30D6E7F0BC02F1D3
:101980000C00704710B40300C243002A01D00028A5
:1019900001D101201AE091F83320920701D40020F0
:1019A00014E04A68904201D100200FE08A68134099
:1019B0004C688A681440A34207D18A6890438968BA
:1019C000C943884201D1012000E0002010BC7047CB
:1019D00080B51022024900F005F802BD00000000A9
:1019E000CC7D0020FCB50023006800900C006D4603
:1019F000002604E02E202070641C6D1C761C300034
:101A0000C0B2042834DA002795F800C05FF00A0E4F
:101A10009CFBFEF00EFB10C095F800C05FF00A0EB4
:101A20009CFBFEFC85F800C00DF1040C3030BE4676
:101A30005FFA8EFE0CF80E007F1C28780028E3D198
:101A40003800471EC0B200280CD01800431C90423A
:101A500006DA3800C0B21CF800002070641CEFE702
:101A6000002009E01800431C9042C3DB002003E083
:101A7000601E002202700800F6BD30B4002513E09D
:101A800050F8042BD30744BFA9F101039A18091F8A
:101A9000042942F8045BFAD213468C0744BF158030
:101AA0009B1CC90748BF1D7050F8041B0029E7D1D3
:101AB00030BC70470100080080B2000A50EA0120E3
:101AC00080B270470100080210F47F0050EA016004
:101AD0000A00120A12F47F42104350EA1160704764
:101AE000704780B500F047FBDFF81C080178491CFF
:101AF00001700078C00701D500F0B8F901BD05E01C
:101B0000426F8A4201D100224267C0680028F7D1A3
:101B1000704738B50400012508E02100DFF82C08E3
:101B200050F825000068FFF7EAFF6D1C042DF4D380
:101B300031BD3EB50400C9B2002951D094F914005A
:101B4000042803D094F91400072849D1206F0028F5
:101B500004D1208D40F66831884241D0208B01901D
:101B6000E08A0090231D2200616AE06C01F088F891
:101B7000200000F071FCDFF8D8070168A14203D112
:101B80000168C968016009E0006800E0C0680028D9
:101B900004D0C168A142F9D1E168C1600020E060D1
:101BA0000120DFF8E017087094F91400042809D127
:101BB0000A202075DFF8D0070168E160046001F0B9
:101BC000EAF90BE0DFF8C4070068A04202D1FFF792
:101BD00089FB03E02100012000F050FD00207AE0A5
:101BE00094F9140000280AD0012827D0022834D004
:101BF000032842D004284BD0072854D05EE00025AB
:101C0000E08A002814D0DFF888070168A14203D1D8
:101C10000168C968016009E0006800E0C068002848
:101C200004D0C168A142F9D1E168C1600020E06040
:101C30002100012000F022FD002441E000252000C9
:101C4000FFF767FF2100DFF80C0800F02CFC2100F3
:101C5000022000F013FD002432E000252100DFF80F
:101C6000F00600F020FC0120DFF8181708702100B2
:101C7000012000F003FD002422E0200000F04AFDD6
:101C80000500280040B2002801D10520207517E08A
:101C9000200000F03FFD0500280040B2002801D1DF
:101CA000052020750CE0200000F034FD0500280020
:101CB00040B2002801D10920207501E00025002450
:101CC000002C06D0280040B2002802D1200000F0ED
:101CD00062FE280040B23EBD80B590F91410012983
:101CE00003D0817E51F0100181760121FFF721FFA1
:101CF00002BD2DE9FC47050095F914000A2809D119
:101D00002900DFF8840600F0CEFB2900012000F056
:101D1000B5FC53E000240026EF6CD5F82480D5F8FC
:101D20008890D5F810A095F91400002818D1E88AF9
:101D3000002820D0DFF858060168A94203D10168C5
:101D4000C968016009E0006800E0C068002804D0AC
:101D5000C168A942F9D1E968C1600020E8600AE0E1
:101D60000C00EE8A2900DFF8E80500F09CFB01205A
:101D7000DFF84C180870E86E002802D0E86E00F01A
:101D800072FAA86E002802D0A86E00F06CFA002C3F
:101D900009D0288B0190B6B200962B1D2A0041462F
:101DA000380000F06DFF2900012000F067FC484674
:101DB000002803D07FF00C015046C847BDE8F387E8
:101DC00080B50121FFF795FF01BD416A028D891899
:101DD000428E40F2B5539A4202DB40F2B45200E028
:101DE000428EC36ACB1A9A1A002A05D4028D428504
:101DF000C06A091A08000CE0426AC16A521A012A34
:101E000002DB0021418503E0C26A416A511A418523
:101E10000020704710B50400208D09182185208D01
:101E200040F66931884203DB40F6683020850EE0D9
:101E3000208D00280BD194F91400072803D094F9C1
:101E40001400092803D140F668302085FFE7200000
:101E5000FFF7BBFF40F2DA21884206DBA07E50F09C
:101E60000200A076200000F096FD10BD2DE9FE4F87
:101E70000020DFF85487D8F80000401CC8F80000A4
:101E8000DFF8489799F80000401C89F8000025E029
:101E9000E868CAF80000F6B2002E09D0288B01903D
:101EA000E88A00902B1D2A00696AE86C00F0E8FEC1
:101EB0002E692900ED68012000F0E0FBDFF8C4B4D2
:101EC00000208BF800003800002803D07FF00C01C0
:101ED0003000B8479BF80000002806D00024DFF847
:101EE00070A4DAF8005000E0ED68002D00F01E81CB
:101EF000687F99F800108842F6D099F8000068775A
:101F00000027002695F91400022805D195F8420013
:101F1000062801D17F1C76E095F842000C2801D1FB
:101F20007F1C70E095F89100002828D0DFF8A0060B
:101F300095F89110084410F8010C95F890100200E3
:101F4000D2B2914204D295F89010491C85F89010B5
:101F500095F89010C0B2814255D3280000F089FF57
:101F6000002850D1002085F8900095F891000728AE
:101F700049D295F89100401C85F8910043E0B5F9ED
:101F80003000002802D4288E401C2886E86E0028E5
:101F900039D0B5F93000B5F94010884233DB95F9F6
:101FA000140002280DD0B5F93C00C010B5F93E1060
:101FB0004118DFF8200695F8422080568140A5F8A8
:101FC000401000202886B5F84800B5F85C1088421B
:101FD00002D2B5F8480001E0B5F85C0080B24008D4
:101FE000A5F84A00B5F84A00698E490089B28842CE
:101FF00003D2688E4000A5F84A00688EA5F8480014
:10200000280000F089FE95F91400062809D1A87E61
:10201000C00606D5D8F80010286A091A292900D365
:102020007F1C287A000736D595F91400042803D0C0
:1020300095F9140007282ED1D5F88C10DFF89805F3
:1020400041184FF4FA70B1FBF0F1D8F80020286A7B
:10205000121A914202D27F1C761C1CE0D5F88C101B
:1020600095F89220DFF8740500FB02114FF4FA7026
:10207000B1FBF0F1D8F80020286A121A91420AD276
:10208000280000F0CAFE40B2002804D195F8920062
:10209000401C85F8920095F91400032806D1D8F861
:1020A0000010286A091A292900D37F1C95F9140009
:1020B000092806D1D8F80010286A091AF12900D396
:1020C0007F1CFFB2002F0AD0D5F88870280000F0DE
:1020D000C3F9002C3FF4DCAEE868E060DBE62C00DE
:1020E000ED68E07E401CE076E07E217F8842FFF4D0
:1020F000FCAE0020E076A34E00203070D4F88400BF
:10210000002806D021002069D4F8842090470100DF
:1021100000E00021307800287FF4E0AE49B20029C9
:102120007FF4E3AE200000F036FCDEE60024964E9D
:10213000356806E0E86830602900ED68012000F0AD
:102140009DFA002D15D00020D8F80020296A521AD7
:10215000F12A00D3401CC0B2002807D0280000F0AC
:102160007BF9002CE6D0E868E060E5E72C00ED683C
:10217000E7E7BDE8F78FF8B5DFF850542878401C42
:1021800028701CE028786077A07EC0070AD5A07E62
:1021900050F00200A076200000F0FDFBA07E10F0C1
:1021A000FC00A076E668206F00280CD0754F002058
:1021B0003870200000F011F83878002803D0DFF8DC
:1021C0002004046800E03400002C05D0607F2978EA
:1021D0008842D7D1E468F7E7F1BDF8B50400206F75
:1021E000467B256F00202067E06F002806D0002383
:1021F0002A0021002069E76FB84705E000232A0084
:102200002100002000F047F8010049B200291CD14C
:10221000B00626D5208D40F66831884202D0208D48
:10222000401C2085E06F002807D0002300222100F9
:102230002069E46FA047010000E000217FF00C005E
:10224000020049B291420CD10CE07FF00C010A006F
:1022500040B2904201D1080004E025677FF00400FD
:1022600000E00020F2BD10B503E0046800F004F8BF
:1022700020000028F9D110BD10B50400002C09D0B1
:102280006068002802D06068FFF7E3F921000320AE
:1022900000F0F4F910BD10B508001400002C07D0B0
:1022A0002189FFF7B7FD2000FFF7D3F9002010BD0B
:1022B0005BB2002BFAD1FFF70FFDF8E770B5010014
:1022C000C9B2802901DB7F20FFE7002400222049DA
:1022D000096811E003004D7DDBB2AB420BD3DFF8A0
:1022E000E8522E680B6AF61AA64204D328680C6AD4
:1022F000041B0A00487DC9680029EBD1002A02D0DE
:102300001000FFF75DFD70BD307F002070B5002428
:1023100000220F49096810E091F9143005006DB2F0
:10232000AB4209D1A84D2E680B6AF61AA64203D318
:102330002A680C6A141B0A00C9680029ECD1002A1B
:1023400003D000211000FFF7D4FC70BD40DA000874
:10235000947E002038B5002300200B4909680AE06C
:10236000994C25680A6AAD1A9D4203D320680B6A0E
:10237000C31A0800C9680029F2D1002801D0FFF76C
:102380001FFD31BD2F7F0020987E0020B07E0020F1
:102390008C7E002070B50500012000F05BF9040080
:1023A000002C21D1FFF7D6FF012000F053F90400E3
:1023B000002C19D10920FFF7A9FF012000F04AF9EC
:1023C0000400002C10D10820FFF7A0FF012000F02E
:1023D00041F90400002C07D12800C0B2FFF76EFFBE
:1023E000012000F037F90400002C30D094210022A5
:1023F0002600300001F020F8657541F2D060A4F8A5
:10240000600040F668306085608D2085FF20A072F6
:102410004FF4067060860620A4F840000620E0878E
:102420005FF0FF3020860120A4F8480000F06DF82E
:102430006065E0646064A06563480068206263488A
:10244000007860776748E0676748C4F88C00200030
:1024500070BD0000907E002010B5040094F91400B7
:1024600000281FD094F914000A281BD094F91400F6
:10247000012817D0206F002804D0206FFFF7E9F85B
:10248000002020675FF0FF302086A06EFFF7EBFE94
:10249000E06EFFF7E8FE0020A066A06EE066002078
:1024A000A4F8640010BD10B50C000168A14203D16E
:1024B0000168C968016009E0006800E0C0680028A0
:1024C00004D0C168A142F9D1E168C1600020E06098
:1024D0002000FFF7C1FF94F914000A280DD094F9E9
:1024E0001400012809D0A07EC00706D5A07E50F0B8
:1024F0000200A076200000F04EFA94F914000128A2
:10250000002020750020E08210BD38490A682E485E
:10251000006882180A600868704710B50400080057
:1025200000F0BEFF002802D1200080B210E0B0F918
:102530002A10080000B2002808D0B1F128002100BC
:10254000020089B292B2914200D30400200080B20E
:1025500010BD38B50400080003E0C568FFF730FC83
:102560002800002805D0016822689142F5D0C06893
:10257000F7E731BD38B504000D00002C1ED02068EF
:1025800000281BD0164801682000FFF7E2FF0D4825
:1025900001682000FFF7DDFF002D0FD0286800281C
:1025A0000CD01348006807E0C168026823689A42AB
:1025B00001D12A68026008000028F5D131BD000071
:1025C0002F7F00208C7E0020887E0020317F00201D
:1025D00014DB000830DA0008B84C0A00F8240100C7
:1025E000947E00209722000800DD6D000800002086
:1025F000907E00200021826811604268D21C9208FF
:102600009200002107E083681B68136083681A60EA
:1026100003881A44491C43889942F4DB704710B57B
:10262000002407E01D48210089B250F82100FFF77F
:10263000E1FF641C200080B20928F3D310BD010023
:1026400088680068002803D0026889680A6000E092
:102650000020704780B5010049B2092901DB002044
:1026600005E00E4940B251F82000FFF7E8FF02BD37
:10267000826812680A6080680160704780B5020055
:1026800052B2092A07DA002905D0044A40B252F8AA
:102690002000FFF7EDFF01BD00000000B8D80008E2
:1026A0002DE9F04105000F00110098460022C919DC
:1026B000143189B20120FEF735FE0400002C26D02B
:1026C0006668E88AFFF7F6F93080288BFFF7F2F9A1
:1026D0007080C6F80480686AFFF7F4F9B060BFB292
:1026E000042097FBF0F0401D000350F0100080B272
:1026F000FFF7E0F9B081688DFFF7DCF9F081002089
:10270000308200207082686A698D4018E86220007B
:10271000BDE8F08138B50400A06E00281AD0A56E7F
:1027200000E02D6828680028FBD1E8688089FFF761
:10273000C1F910F0070F0DD10120FFF7BBF9E968CF
:1027400089890843E9688881A07E50F02000A0763E
:10275000002003E00121200000F067F832BD2DE9E0
:10276000F04781468A4617001E00089DE80702D5FB
:102770005FF0040801E05FF00008A80701D5002021
:1027800000E00020290701D5002100E0002110EB26
:10279000080811EB08080320FFF75CFF0400002C79
:1027A00004D15046FEF755FF00203CE0A572002002
:1027B0002060C4F804A0BAF808104046C0B2091A54
:1027C000218114215046FEF738FF002804D0200054
:1027D000FFF752FD002026E060684068E060B9F82D
:1027E0001600FFF767F9E1680880B9F81800FFF7ED
:1027F00061F9E16848803000FFF764F9E1684860FA
:102800005FFA88F8042098FBF0F0401DFFB257EA09
:102810000037380080B2FFF74DF9E1688881002069
:10282000E16848822000BDE8F0877CB504000D0017
:1028300000260020B4F86200082805DAB4F8620027
:102840004FF6FD71884208D3E80706D4A07E50F009
:102850008000A0765FF0FF305CE0A80700D501267D
:10286000F00701D5042100E00021B00701D50020C8
:1028700000E00020320701D5002200E000224118CC
:1028800051180022C9B289B20020FEF74BFD0100A9
:10289000002806D1A07E50F08000A0765FF0FF30C7
:1028A00038E0F6B20096A36D2A00D2B22000FFF7FE
:1028B00056FF0100002806D1A07E50F08000A076CF
:1028C0005FF0FF3026E0A06E002801D1A16606E08F
:1028D000A26E00E0126810680028FBD11160002091
:1028E000A4F8640015F0030F02D0A06D401CA06591
:1028F000E80703D5A07E50F02000A0764868FEF7D8
:10290000E0FEB4F862104018A4F86200B4F8620067
:102910000028002076BD7FB505000024E86CFFF795
:10292000D1F803000022E4B2210089B22800FFF7A9
:10293000B7FE0400002C06D1A87E50F00300A87654
:102940007FF0010025E0281D00F0AAFD002802D13B
:102950007FF003060BE0029006200190687A009059
:10296000AB7A2A1D2900200000F0E6FE06002000B8
:10297000FEF76FFE300040B2002804D0A87E50F071
:102980000300A87603E0A87E10F0FC00A8763000D3
:1029900040B204B070BD2DE9F0470600B6480068AB
:1029A000B04201D10020CDE0B6F85C00B6F8481086
:1029B000884202D2B6F85C8001E0B6F84880B46E76
:1029C000B07E80070FD5002C09D0E1684868FFF77A
:1029D00079F8716C401A21894018804503D2300083
:1029E000FFF799FFAEE0F76E002F04D000E03F68DC
:1029F00038680028FBD1301D00F052FD0500002D85
:102A000002D17FF003009DE0002E02D03068002844
:102A100059D1002D01D0281D00E00020002802D14E
:102A20007FF003008EE0006830604CE02000FFF78C
:102A300023FC47E096F91400022807D01020FFF786
:102A400039F8E16889890843E16888812A00310002
:102A5000200000F0B3F8010049B2002974D12068C9
:102A6000B06696F91400022803D0B07E10F0FC0086
:102A7000B076E1684868FFF725F88146E06880890C
:102A8000FFF718F810F0030F64D00121208919EB2B
:102A900000000818F16C091A002900D5F064E068FC
:102AA0008089FFF707F810F0030F55D00120218926
:102AB00040180028BAD000202060F06E00284DD1C8
:102AC000F4662700B46E002C31D0E1684868FEF748
:102AD000F9FF716C401A21894018804527D3E068BE
:102AE0008089FEF7E7FFF06E002817D0B07E10F067
:102AF000440F13D1B06E002808D0B06E00680028D3
:102B00000CD1B06E0089718E884207D2B6F8600091
:102B1000002803D0B6F86200082801DB012000E09D
:102B20000020002886D1B07E10F0A00F82D1B06EB8
:102B3000002802D10020A6F86400B07E10F07F00CB
:102B4000B0760020BDE8F087B17E51F08001B1760B
:102B500040B2F7E7002199E70020A8E7E16848685C
:102B6000FEF7B0FF8146F9684868FEF7ABFFB9EBA6
:102B70000009B9F1000F1ED516F16C0901E0D9F872
:102B80000090D9F8000000280FD0D9F80000C168E3
:102B90004868FEF797FF8246E1684868FEF792FFB3
:102BA000BAEB000ABAF1000FE9D4D9F800002060AE
:102BB000C9F8004086E73C603F6883E7FEB5040043
:102BC0000D0016006068C089012801D0002050E087
:102BD000686AFEF777FFE1688860688DFEF76AFF34
:102BE000E168C881686A698D4018E862E06810F1A0
:102BF0001407A07AC0070BD5291D40F2B450FFF787
:102C00008CFC80B250F00170FEF75CFF3860381D1C
:102C1000B5F93000002801D500202886686B00280F
:102C200007D1164800686863E1684868FEF74AFF04
:102C3000A863E16860684068081A61684989091AF0
:102C40006268518161680989081A61680881E068D1
:102C5000616848600020E1680882029606200190C1
:102C6000687A0090AB7A2A1D2900606800F064FD44
:102C700040B2FEBD00000000B07E0020887E002033
:102C80002DE9FF478146884615001F0000221421C8
:102C90000120FEF747FB0400002C3BD00D9E0C9852
:102CA000D4F804A080B2FEF705FFAAF800003000B7
:102CB00080B2FEF7FFFEAAF802004846FEF702FFC8
:102CC000CAF804004046FEF7FDFECAF8080045F2C7
:102CD0001400FEF7EFFEAAF80C0046F60B00AAF867
:102CE0000E000020AAF810000020AAF812003800F8
:102CF00000F0D6FB00280AD029000290062001909F
:102D000000200090FF233A00200000F015FD200075
:102D1000FEF79FFCBDE8FF8780B5C16E002914D087
:102D2000C26E00E0126811680029FBD1816E11604B
:102D3000C16E81660021C16690F84210491C80F87E
:102D4000421000214163FFF726FE01BDF8B50400E3
:102D5000E06E002826D0E56E2868E06614F168066B
:102D600000E03668306800280CD03068C1684868D8
:102D7000FEF7A8FE0700E9684868FEF7A3FE3F1AC1
:102D8000002FEED43068286035602868002802D112
:102D90000020A4F8640094F84200401C84F842002B
:102DA00000206063F1BD10B50400E06E002833D050
:102DB000A07E400730D42000FFF7C8FFB4F85C00C5
:102DC000B4F84810884207D2B4F85C00022190FBA6
:102DD000F1F0A4F84A0006E0B4F84800022190FBA4
:102DE000F1F0A4F84A00B4F84A00618EB0EB410F4C
:102DF00004D2608E80B24000A4F84A00B4F84A10B1
:102E0000628E032042435018A4F84800A07E50F080
:102E10000400A0760020208610BD3EB50500E86CB9
:102E2000401EFEF74FFE0300002200212800FFF79E
:102E300037FC0400002C02D15FF0FF3018E0281DA1
:102E400000F02EFB002802D17FF003050BE002907A
:102E50000620019000200090AB7A2A1D2900200056
:102E600000F06AFC05002000FEF7F3FB280040B2EA
:102E70003EBD2DE9FF410700FC6E002C00D1BC6E69
:102E8000002C01D100205FE0E0688089FEF712FE8F
:102E9000C00704D52089002801D1012600E00026C2
:102EA0003000C0B2002801D0002200E00122E0681A
:102EB000436892B200213800FFF7F2FB0500002DB5
:102EC00002D15FF0FF303FE0D5F80480F6B2002E6B
:102ED0000BD01120FEF7EEFDB8F80C204CF2FF01EC
:102EE0000A401043A8F80C000BE0686810F11401C8
:102EF0006068038920891B1A9BB201226068FEF773
:102F000074FCE1684868FEF7DDFD401CF96C091AA5
:102F1000002900D5F864381D00F0C2FA002802D15B
:102F20007FF003040BE00290062001900020009047
:102F3000BB7A3A1D3900280000F0FEFB040028008F
:102F4000FEF787FB200040B204B0BDE8F081B1F588
:102F5000807F02D34FF0FF3070470170012070472F
:102F60000078401E8041C043C00F704780B5FEF717
:102F7000B8FD4E480068002803D14D48006800287D
:102F800005D000224B49FA2000F038F802E000207A
:102F90004949086001BD80B54749086800280ED13D
:102FA00042480068002803D141480068002806D044
:102FB0000120086000223F49FA2000F01FF801BDFF
:102FC00038B5040025006868804722003B4928681E
:102FD00000F014F831BD10B5012408E0384800EBCA
:102FE000C402364950F8340000F008F8641C052C7F
:102FF000F4D300F041FE3349086010BDF8B5050078
:103000000E0017000620FFF725FB0400002C4BD014
:1030100000F032FE01002C4A1068002803D1002085
:10302000284B196003E027480068091A08000021AE
:103030002160A660E760401960601068002801D137
:10304000146031E010684068854208D2106840681A
:10305000451B1068456010682060146024E010680B
:1030600000E0006800281FD0636841685B1A636055
:103070000168002904D0616803685B689942F0D256
:103080000168002906D001684A686168521A01681F
:103090004A6006E061688D4203D2116849684D19A3
:1030A0006560016821600460F1BD0000947E00202D
:1030B000987E00206D2F0008BC7E0020C12F0008E4
:1030C00068D80008B87E0020B47E002010B4AA4A58
:1030D000116803880B44984213D01979002910D144
:1030E000A64909688B420CD0A5490C689C4200D1C6
:1030F0000860198801801168411A14681B882344EC
:103100005980116843880B4483420FD019790029F4
:103110000CD19B490C68844200D10B600188198056
:1031200011685B1A116800880844438010BC70471E
:1031300010B49149934880088000086008684FF4F3
:103140002052028000234380002303718B480B68C8
:103150001344036001230468237103681A80006824
:10316000428008688649086010BC704780B5002816
:1031700012D081490968884203D38049096888428E
:1031800000D309E00838002101717D490A689042A6
:1031900000D20860FFF79AFF01BDF0B40A0092B2B6
:1031A000D21C4FF6FC710A40110089B20C2900D2E2
:1031B0000C22110089B242F60103994201D300208A
:1031C00064E06D4B1968884203D36C4909688842F2
:1031D00000D35BE0B0F108041D68651B2688290058
:1031E00089B2761A083E3100170089B2BFB2B942DF
:1031F00001D200204AE01100370089B2BFB2B942C3
:1032000044D0196827880F44397900291FD139889B
:10321000521908325A4ED6F800C0BC4505D11F6875
:1032200094461FFA8CFC674437601E681700BFB2D3
:103230003E44002737713180758022803188B1F596
:10324000205F23D01968338819444A801EE0B6B243
:10325000110089B214318E4218D3521908321968FC
:103260001600B6B23144464E3768B94200D23160DA
:1032700000260E7126880E804D8022800C88B4F5C1
:10328000205F03D01B68098819444A80F0BC70474E
:1032900070B40100080080B2002801D1002069E06C
:1032A00089B2C91C4FF6FC700140080080B20C289E
:1032B00000D20C21080080B242F60102904201D3F4
:1032C000002057E02C4A2E4B18681468041B02E0BB
:1032D0001068A4B2045B200080B20D00ADB2D5F539
:1032E0002055A84245D210682500ADB20544287982
:1032F0000028EDD12E88200080B2361A083E080042
:1033000080B28642E4D32E88200080B2361A083E6E
:10331000080080B21430864216D3091908311068AB
:103320000E00B6B23044002606712E880680448016
:10333000298001242C710488B4F5205F06D014681C
:1033400000882044418001E00120287118688542EE
:103350000CD1196802E01068098801440879002836
:1033600003D0064800688142F5D1196015F10800C4
:1033700000E0002070BC70474C7E0020507E002092
:10338000547E00200302002062B38B0708D0521E37
:1033900011F8013B00F8013B00F024808B07F6D1C7
:1033A000830740F0208000BF103A07D330B4B1E863
:1033B0003810103AA0E83810F9D230BC530724BFB7
:1033C000B1E80810A0E8081044BF51F8043B40F8E9
:1033D000043BD20724BF31F8022B20F8022B44BF54
:1033E0000B7803707047121F17D35B0009D151F897
:1033F000043B20F8023B1B0C121F20F8023BF6D2C4
:103400000BE051F8043B00F8013B1B0A20F8023B9B
:103410001B0C121F00F8013BF3D238BF121D521EC5
:1034200024BF11F8013B00F8013BF8D8704702684F
:10343000531C03601170704762F30F2262F31F4246
:10344000401810F0030308D0C91A1FD3DB0748BF88
:1034500000F8012D28BF20F8022D130030B41446C7
:103460001546103928BF20E93C00FAD8490728BF83
:1034700020E90C0048BF40F8042D890028BF20F83F
:10348000022D48BF00F8012D30BC7047C91818BF85
:1034900000F8012DCB0728BF00F8012D7047000070
:1034A00010B40200DFF87403006808E090F83310ED
:1034B000890703D41168C368994214D000680028B2
:1034C00012D090F8331011F005010529F6D14168AA
:1034D0000029F3D0136881680B40446881680C4070
:1034E000A342E3D113E012E0DFF8341308680028A8
:1034F0000AD0086890F8330010F00500052803D1C1
:1035000008684068002801D1002000E0086810BC6D
:1035100070472DE9F84F060088460127D6F8049039
:1035200099F80000C0B20009C0B2042804D03000ED
:10353000FEF78FF80020FDE099F8000010F00F0072
:1035400080B25FEA800AB9F80200FEF7B3FA04001D
:103550002000318980B2884204D2210089B2300033
:10356000FDF7D2FF7089514689B2884207D330896E
:10357000A4B2A04203D3504680B2142804DA30002B
:10358000FEF767F80020D5E0D9F81000DFF894B214
:10359000CBF81400D9F80C00CBF810009BF81400FD
:1035A00010F0F000E02831D198F83300C0072BD597
:1035B000D8F80400002827D04446002C0CD199F8F4
:1035C0000900112808D1504680B248444088B0F51F
:1035D000884F01D144460027002F3AD0DBF8100075
:1035E000002836D04146DBF81000FEF7CBF9002862
:1035F00005D19BF8100010F0F000E02829D1300030
:10360000FEF727F8002095E00024D6E70125444680
:1036100094F83300C0070ED5606800280BD0DBF8A3
:1036200014006168884211D02100DBF81400FEF715
:10363000A9F900280AD1002D09D00025774804688F
:10364000444500D12468002CE2D1B6E7B5E72468F0
:10365000F6E7002C04D13000FDF7FBFF002069E005
:10366000B9F806004FF63F71084209D0300000F06B
:10367000E3FC0600002E01D100205BE0D6F80490A8
:10368000CBF80040CBF80480CBF8089099F8000004
:1036900010F00F0080B28000ABF80C00514609B268
:1036A000494209B23000FDF7C8FF99F80900012826
:1036B0000DD0062806D011280ED14146300000F06A
:1036C000DFFE24E041463000FCF75EFD1FE041468E
:1036D000300001F09DF81AE02100DBF81400FEF73D
:1036E00051F9002810D19BF8140010F0F000E028E8
:1036F0000AD0514609B23000FDF7A5FFC6F8049084
:103700000221300001F05AF93000FDF7A2FF00203D
:10371000CBF800000020CBF804000020CBF8080014
:103720000020ABF80C000020CBF810000020CBF8F4
:1037300014000020BDE8F28F7FB50A9E0C00002A1D
:1037400005D0002902D00968002900D1341D09994B
:10375000089D0296C9B20191EDB20095DBB221003D
:1037600000F002F804B070BD2DE9F84306000D002A
:1037700014009946002C38D05FF014081421300052
:10378000FDF75BFF002802D07FF0010044E00998BC
:103790000899776887F808907872206838611FFA6E
:1037A00088F8042098FBF0F050F0400038707970F1
:1037B0003089FEF77FF978800020F880DFF8688094
:1037C000B8F80000FEF776F9B880B8F80000401CA1
:1037D000A8F80000002D03D114480068F86001E04B
:1037E0002868F8600020788103E070680169009122
:1037F0006C460A9B588D002809D0588D3189884223
:1038000005D222001900300000F004FD04E022007F
:10381000310018005B699847BDE8F2837C7E002088
:10382000807E0020B47D00200A7F002034DB000869
:1038300080B586B000200590DFF80005016851F0E2
:1038400000710160016811F0007105910599002176
:103850000591016851F080610160016811F080619B
:103860000591059900210591016851F00061016001
:10387000016811F000610591059900210591016829
:1038800051F001010160016811F0010105910599F4
:1038900000210591016851F004010160016811F0F7
:1038A00004010591059900210591016851F040013D
:1038B0000160016811F04001059105990021059111
:1038C000016851F000710160016811F0007105910B
:1038D000059900210591016851F08061016001683E
:1038E00011F080610591059900210591016851F061
:1038F00000610160006810F00060059005983220BA
:1039000000900220019000200290032003900B20E1
:1039100004906946DFF8280401F098F886200090AA
:103920000220019000200290032003900B200490BD
:103930006946DFF8100401F089F84FF4D040009098
:103940000220019000200290032003900B2004909D
:103950006946DFF8F40301F079F8012200213D20E7
:1039600001F00FFA3D2001F01DFA07B000BD3EB591
:1039700004000020009001A8DFF8D013D1E9002353
:10398000C0E90023DFF8C853DFF8C803286001A8A6
:103990006861012068604FF48040A8604FF40060C7
:1039A000E8605FF4000028620120A8610020E8615F
:1039B00000202882280001F023FA00280AD1DFF82D
:1039C000980302F09DF894F8330050F0040084F856
:1039D000330003E0DFF8840302F092F80423DFF8F9
:1039E0008023DFF88013280001F02FFB0423DFF889
:1039F0007823DFF87813280001F065FB062084F8AF
:103A00002C00022084F82D00002084F82E000020D5
:103A100084F82F00002084F83000002084F8310062
:103A2000002084F8320040F2DC50608594F83300C6
:103A300050F00A0084F83300280001F07BFD6A464C
:103A40001121280001F0F4FC009850F003000090D0
:103A5000009A1121280001F02DFD6A46122128004C
:103A600001F0E6FC009850F020000090009A12212E
:103A7000280001F01FFD37BD2DE9F84FB44DE86A6D
:103A8000D0F808B05FF00009002000200020EE6AA6
:103A90005FF0000A0C000DE03A00606800EB0801DE
:103AA0000BEB0A084046FFF76FFC17EB0A0A17EB0F
:103AB00009092468002C32D03068002803D46789B3
:103AC0005FF0000813E07FF007002DE0D6F808B0A3
:103AD000AAF2F450C71908F2F458B8EB0A0809F230
:103AE000F4594846D146B0EB09095FF0000A1AEBD9
:103AF000070040F2F5518842CED340F2F452B2EBC7
:103B00000A02606800EB0801D3445846FFF73CFC0A
:103B1000F66830680028D9D57FF0070004E04946F0
:103B2000280001F00FFB002041F214012A685258CE
:103B3000920607D520222B685A5000212A6841F2AC
:103B40000403D15040B2BDE8F28F2DE9F84F0025B3
:103B500000200020002000207D4E300001F089FB75
:103B6000002801D0002062E0F16BD6F84080080008
:103B700080B2002805D0032289B20420FDF7D2FBD1
:103B80000500002D36D0376B5FF0000A2C002AE0CC
:103B900040F2F452B2EB0A0208EB0A01606800EB53
:103BA0000B084046FFF7F0FBFF68D7F80880AAF241
:103BB000F45010EB09090BF2F45BBBEB0A0AD34695
:103BC0005FF0000A1AEB090040F2F5518842DFD29B
:103BD0004A4608EB0A01606883445846FFF7D4FB65
:103BE00019EB0A0A2468002C04D0B4F80A905FF09C
:103BF000000BE7E7306B002105E0026852F000425D
:103C00000260C068491CB26B9142F6D30020B063D9
:103C100041F2140031680958090607D5802132683D
:103C200011500020316841F2080288502800BDE898
:103C3000F28F38B505002800FFF787FF0400002C3D
:103C40000AD0290020002A69904740B2002803D0FA
:103C50002000FDF7FEFC002031BD80B5732180F807
:103C60003410742180F83510414941614149816126
:103C7000FFF77DFE002002BD80B501F055FF02BDBB
:103C80003EB50400002001900020009094F833001D
:103C900040074AD5384801F033FF2D4D68680028A9
:103CA00024D04FF480520021280001F003FC01F0E1
:103CB0003BFF01906A460121280001F0B9FB01F0A9
:103CC00033FF0199401A40F2E93188420ED2009840
:103CD0008006EFD56A461021280001F0A9FB009864
:103CE000400716D54FF40060E86014E0EA68D20897
:103CF00092B2A868400880B202430021280001F077
:103D0000D9FB0021280001F05FFC280001F012FC23
:103D10000EE00020E8600098800702D50020A8602F
:103D2000EFE74FF48040A860EBE7094801F027FC7B
:103D3000200001F017FF37BD0000000030380240BE
:103D4000000802400000024000180240FCDA0008AF
:103D5000F479002000800240F0D9000800DA000861
:103D6000E4410020C0780020142A00204078002080
:103D70008BC20008793A000854D9000838B50025EC
:103D8000DFF85406046804E0E07F401EE077250079
:103D90002468002C08D0E07F0028F5D1200024689A
:103DA000290000F002F8F4E731BD2DE9F0410700E9
:103DB0000D000026002D786841688888002815D1FC
:103DC0007C6808687860142217F10801D4F8048030
:103DD0004046FFF7D9FA0121200000F0F6FD20004F
:103DE000FDF76FFC86192000FDF733FC7C6809E0C5
:103DF0006068A04604684046FDF763FC86194046AB
:103E0000FDF727FC002CF3D12900380000F077F8EB
:103E1000DFF8C8050188891B0180B6B23000BDE813
:103E2000F081F8B504000D00002600205FF0000CC2
:103E300000230027DFF8A015096814E0C27F91F87D
:103E40001FE072450AD30800634607E00022002AFB
:103E500004D07F1C0028F1D1080063460A68002ABC
:103E600000D08C460968002910D0E268D1F814E02F
:103E7000964509D12269D1F818E0964504D18A897E
:103E8000B4F804E07245E1D00122E0E7002803D055
:103E90001900FFF78AFF8619AE4201DA022FC4DA51
:103EA0003000F2BD70B505000E000420FEF7D2FB15
:103EB0000400002C0DD131002800FFF7B2FFB04202
:103EC00003DB0420FEF7C6FB0400002C01D1002018
:103ED00014E02021002226003000FFF7ADFA032075
:103EE000E077DFF8F404016821600460142214F123
:103EF000080629003000FFF747FA200070BD80B5A2
:103F0000DFF8D4241368834202D10168116001E014
:103F100002680A6001000420FEF7B0FB01BD2DE934
:103F2000F84306000F0000240125D7F80490B9F8E3
:103F30000200FDF7BFFD80461FFA88F899F80000DF
:103F400010F00F00B8EB8008B9F80600FDF7B2FDDD
:103F5000C004C00C80B2C000796800220A6088806A
:103F600018EB0000C880706810E088889388984239
:103F70003CD08888D388984239D3002C04D0E0887C
:103F80009388984200D0002510681400002822D0A1
:103F900042688B88B2F804C06345E6D20860002C02
:103FA00018D08B88B4F806C0634503D39288CB88B9
:103FB0009A420DD23800FDF784FBDFF820140A88FE
:103FC000101A08803800FDF744FB0020BDE8F2839A
:103FD000276000E0776000280BD1002C08D0276014
:103FE000E0888A88904204D0002502E0E2E7E1E719
:103FF0007760B07FC0071DD5002D19D070680028EC
:1040000004D0706840688088002801D000250FE047
:104010000A00086801E00A000868002805D0416825
:10402000D0888A889042F6D00025002D00D00868FC
:104030002800CBE70020C9E72DE9F84F0500D5F8A7
:10404000048098F8000010F00F008000142805D0BC
:104050002800FDF7FEFA0020BDE8F28FB8F8060050
:10406000FDF728FDC004C00C80B25FEAC009B8F8B3
:104070000200FDF71FFD82461FFA8AFA98F8000039
:1040800010F00F00BAEB800A2800FDF71AFB8346F8
:10409000DFF84863308810FA8BF00B280CDB5946A8
:1040A00089B24046FFF7BDFE002804D0308810FAE0
:1040B0008BF00B2800DBCBE7C74F3C6800E024689F
:1040C000002C13D0D8F80C00616981420BD1D8F8CC
:1040D0001000A169814206D1A089B8F80410884275
:1040E00001D1012000E000200028E8D0002C08D1F8
:1040F000594689B24046FFF7D5FE0400002C14D182
:10410000A6E7B8F80600FDF7D5FCC0040DD1E0899C
:10411000FDF7D0FCC00408D01422414614F1080079
:1041200000900098FFF730F9009830881BEB000BE7
:10413000A6F800B098F80600800607D4A07F50F0DB
:104140000100A0771AEB0909A4F81C9029002000AF
:10415000FFF7E5FE002844D0A08B1430A0836068F0
:10416000406805686068D0F80480142214F10801E2
:10417000C1464846FFF708F9A08BFDF79BFCA8F85D
:1041800002000020A8F806000020A8F80A00D4F8D1
:1041900004800CE0D5F804907FF013012800FDF7AF
:1041A0004CFA29004046FDF79BFAD9F80050002D43
:1041B000F0D13868844201D1002107E0396800E07D
:1041C0000968002902D00868A042F9D12000FFF751
:1041D00096FE4046FDF775FA3188081A3080404651
:1041E0003AE7002038E780B50520FEF733FA02BD34
:1041F00080B501000520FEF741FA01BD10B50400AD
:104200006069002802D06069FDF723FA2000FFF7FB
:10421000EFFF10BD2DE9F34F87B007001400089899
:10422000408D1438082190FBF1F0ADF80C005FF0E0
:1042300014095FF0000A786805900598017811F07C
:104240000F018900142902D07FF0050072E0C088B8
:10425000FDF730FCC104C90CADF80A10800402D58A
:104260007FF0050066E03889B0F11408069438E064
:10427000002009E01AEB09090898408D14384146DE
:1042800089B28842F4DB0120BDF80A10C904C90CC8
:10429000002801D151F40051080080B2FDF70AFC5A
:1042A0000499C880BDF80800143080B2FDF702FC04
:1042B00004994880002004994881069A31000898A2
:1042C000089B5B6998473000FDF7C3F9BDF808000B
:1042D000B8EB0008BDF80A10BDF80C004118ADF8A5
:1042E0000A10404680B2002874D0404680B2BDF823
:1042F0000C10B0EBC10F02DAADF8088005E0BDF894
:104300000C0080B2C000ADF8080000221421022089
:10431000FDF708F80600002E0AD0142205997468EB
:104320002000FFF731F870680490BDF808B007E08E
:104330005FF0FF3009B0BDE8F08F5FF000093F6823
:10434000584680B2002895D0B7F80AA0BAEB090AFF
:104350005846514680B289B2884201D2DA46FFE718
:10436000504680B20028E8D0FFF73DFF0400002C43
:1043700003D13000FDF76DF9DAE7504680B20190C5
:104380007868494689B208440090230002225146C9
:1043900089B20420FDF77BF80500002D06D120002E
:1043A000FFF726FF3000FDF754F9C1E73800FDF7AD
:1043B00091F967610A48206129003000FDF790F902
:1043C000BBEB0A0B584680B20028B9D05FF0000959
:1043D0003F68B5E70020ADE7087E00200C7F002095
:1043E000FD410008704710B40021FFE7DFF81024FA
:1043F0001088431C13804FF6FF7380B2984202D19D
:104400004FF440401080DFF8FC03006800E0C06813
:1044100000280BD0438A1488A342F8D1491C080015
:1044200080B2B0F5804FE1DB002000E0108810BCC6
:104430007047D2B2002A14D0002810D00268002A97
:104440000DD0DFF8C423536913F1010F07D00368BF
:104450008868034052698868024093420ED1012067
:104460000DE0002808D00168002905D00068DFF8B9
:1044700098134969884201D1012000E0002070476B
:104480002DE9FE4F06008B4600207089082803DACC
:104490003000FDF7DEF894E07468DFF86C7339687B
:1044A0007869FDF76FFA80462088FDF703FB8146A7
:1044B0006088FDF7FFFAADF800000020002500201D
:1044C0000190DFF840A3DAF8004001E02500E4683D
:1044D000002C28D0608ABDF800108842F6D14246F0
:1044E000D2B259462000FFF7A4FF0028EED0207C6E
:1044F000400703D40198002800D10194A08A4946BE
:1045000089B28842E2D16068002803D060683969C6
:104510008842DBD1002D06D0E068E860DAF80000C0
:10452000E060CAF80040002C00D1019C002C01D0B2
:10453000012007E0DBF804007969884201D10120FD
:1045400000E00020C0B2002838D07FF00701300022
:10455000FDF773F8002803D03000FDF77AF830E05B
:10456000002C12D0A06900280BD01FFA89F9CDF8D1
:10457000009017F1100332002100E069A469A04700
:104580001FE03000FDF765F81BE05FFA88F8B8F12E
:10459000000F0FD1387D10F0F000E0280AD0B7F9F5
:1045A0000C10083109B23000FDF74DF8032130003E
:1045B00000F004FA3000FDF74CF802E03000FDF79F
:1045C00048F8BDE8F78FF8B505000E0014001F008D
:1045D0002000002D01D0002C02D17FF005000EE05C
:1045E000FEF75EFF002802D17FF0030007E0009095
:1045F0003B009BB222003100280000F001F8F2BD20
:104600007CB5002801D0002A02D17FF0050019E016
:10461000069D002807D00468002C04D0047814F00C
:10462000F004E02C01D12C1D07E004686E68B44250
:1046300002D07FF0050005E00400019400959BB2D4
:1046400000F001F876BD2DE9FE4F05000E001F00B9
:10465000002D02D01400002C02D17FF0050059E09B
:10466000688A00280AD16A8A2900280000F054F8D4
:10467000010049B2002901D040B24BE0B046082108
:104680004046FCF7DAFF002813D000220821012061
:10469000FCF748FE0600002E02D15FF0FF3039E043
:1046A000B8F80800002805D041463000FDF72CF886
:1046B00000E04646DDF83490DDF830A0D6F804B0CE
:1046C000688AFDF7F7F9ABF80000380080B2FDF713
:1046D000F1F9ABF802000020ABF806003089FDF7D5
:1046E000E9F9ABF804001120AB7ACDF808A0C0B20C
:1046F0000190687A0090DBB2220049463000FFF753
:1047000033F80400464503D03000FCF7A2FF002038
:10471000200040B2BDE8FE8FF8B505000C00002C6B
:1047200000D13A4C002D01D0002C02D17FF00500C1
:1047300038E00027334E306800E0C068002802D01F
:104740008542FAD10127100080B2002809D1FFF775
:104750004AFE0200100080B2002815D17FF0070049
:1047600020E0306800E0C06800280DD08542FAD013
:10477000418A13009BB29942F5D10168236899429E
:10478000F1D17FF007000DE0002C01D1002000E006
:10479000206828606A82FFB2002F02D13068E8608A
:1047A00035600020F2BD8161C261704738B50020DC
:1047B000FDF750FF0400002C07D020210022250027
:1047C0002800FEF739FEFF20A072200032BD10B491
:1047D000002813D00268002A10D000290ED00A68E1
:1047E000002A0BD0074A126806E013680468A34247
:1047F00001D10B681360D268002AF6D110BC704753
:10480000FC010020C07E0020B47D002034DB0008C5
:104810002DE9FE4F06000D00DFF89C81D8F808A0B6
:104820009AF8000010F00F0000B25FEA80094846D5
:1048300000B2142803DA3000FCF70BFF17E0708990
:104840000428F8D3706800780100C9B2002902D0AA
:10485000082901D08EE0ABE018F1140798F8140095
:1048600010F0F000E02804D13000FCF7F2FEBDE8C3
:10487000F78FD8F80010D8F81400FDF783F8002857
:10488000F2D130890828D6D3300001F0DAF90028B7
:1048900003D03000FCF7DDFEE9E719F10E0109B2A3
:1048A0003000FCF7CAFE002859D00022318919EBEC
:1048B000010189B20220FCF735FD0400002CD3D0A1
:1048C0006089494609B20831884203D22000FCF7CA
:1048D000C0FEC9E74A4612B2D4F804B05146584661
:1048E000FEF752FD494609B2494209B22000FCF7E1
:1048F000A4FE002803D02000FCF7ABFEB4E7310093
:104900002000FCF70AFF002803D02000FCF7A1FEDE
:10491000AAE73000FCF79DFE26007468494609B2FC
:104920003000FCF78AFE002818D170683968C16031
:10493000D8F8101001610021217000216180FF2151
:104940000172002141810295012001900020009018
:10495000FF23002239003000FEF7EEFE28E019F1B7
:104960000E0109B2494209B23000FCF766FE002888
:10497000D3D079E70100C9B2032919D00100C9B227
:104980000B2915D00100C9B20C2911D00100C9B200
:1049900004290DD00100C9B2052909D00100C9B20E
:1049A0000D2905D00100C9B20E2901D0C0B21128CD
:1049B0003000FCF74EFE5AE7B47D002080B50A00B7
:1049C000D2B2032100F008F801BD80B50A00D2B2CE
:1049D0000B2100F001F801BD2DE9F84384B0070078
:1049E00088469146002224210120FCF79BFC04000C
:1049F000002C28D07E68656885F8008085F80190D5
:104A00000020A8800020E8801C227968606810F1EE
:104A100008073800FEF7B8FCF068039003A8FEF71B
:104A20003FFD00280CD000216980029001200190F8
:104A300000200090FF2303AA00212000FEF77CFE47
:104A40002000FCF706FE05B0BDE8F083F8B40022B4
:104A500000220022002337E0082704E0DFF81822B4
:104A60009042F9D10727FFB213F00302D2B29200AD
:104A700097403E431A00920845F82260DFF8FC5147
:104A80002A68A2434E68F60300D522432A60DFF865
:104A9000F0512A68A2434E68B60300D522432A602B
:104AA000DFF8E0512A68A2434E68F60200D522439F
:104AB0002A60DFF8D4512A68A2434E68B60201D5B5
:104AC000144322002A605B1C102B80F0AB80012570
:104AD00015FA03F20C6814409442F4D14A68022A91
:104AE00002D04A68122A17D11A00D20800EB8202BB
:104AF000166A0F2713F00702D2B292009740BE4306
:104B00000F6913F00702D2B2920097403E431A0099
:104B1000D20800EB82021662076803261A00D2B29E
:104B2000520016FA02F2974391F804C01CF0030CED
:104B30001A00D2B252001CFA02FC5CEA07070760B6
:104B40004A68012A08D04A68022A05D04A68112A10
:104B500002D04A68122A19D187681A00D2B25200CC
:104B600016FA02F29743D1F80CC01A00D2B25200E2
:104B70001CFA02FC5CEA0707876042689D40AA4372
:104B80004D68C5F300159D402A434260C5681A0070
:104B9000D2B252009640B5438E681A00D2B252008B
:104BA00096403543C5604A68D2008CD500220092F9
:104BB000364A156855F480451560126812F4804233
:104BC0000092009A324D1A00920855F822600F2781
:104BD00013F00302D2B292009740BE432D4A904296
:104BE00001D100273FE72C4A904201D101273AE743
:104BF0002A4A904201D1022735E7294A904201D141
:104C0000032730E7274A904201D104272BE7264AA1
:104C1000904201D1052726E7244A90427FF41EAF37
:104C2000062720E7F1BC7047006989B2084201D02D
:104C3000012000E0002040B2704752B2002A02D0AA
:104C400089B2816102E089B20904816170474269D9
:104C500089B251404161704780B515490A68030027
:104C60009BB21A4205D0020092B20A6080B201F0F3
:104C7000B1FF01BD00000000001C0240003C0140EB
:104C8000043C0140083C01400C3C014044380240D7
:104C900008380140000002400004024000080240C1
:104CA000000C0240001002400014024000180240B4
:104CB000143C014010F00700464B1A684FF6FF0104
:104CC0000A40454951EA00210A431A6070474148A9
:104CD0000068C0F302207047012210F01F018A40D3
:104CE0003E4940B2400941F820207047020052B2CC
:104CF000002A08D509013A4A40B210F00F001044CA
:104D000000F8041C03E00901364A40B21154704710
:104D100010B410F00700D0F10703052B01D30423D2
:104D200001E0D0F10703041D072C01D2002000E0B0
:104D3000C01E012414FA03F35B1E1940814014FACB
:104D400000F0401E1040084310BC704780B5411E63
:104D5000B1F1807F01D301200EE0401E224908609E
:104D60000F215FF0FF30FFF7C1FF00201F490860EF
:104D700007201F490860002002BD80B5FFF79AFF99
:104D800001BD70B504000D0016000020FFF79FFF65
:104D900032002900FFF7BCFF0100200040B2FFF7FE
:104DA000A5FF70BD80B540B2FFF796FF01BD80B58D
:104DB000FFF7CCFF02BD042805D10D48016851F072
:104DC0000401016004E00A48016831F00401016057
:104DD000704700000CED00E00000FA0500E100E083
:104DE00018ED00E000E400E014E000E018E000E06E
:104DF00010E000E080B500F001F801BD7047000050
:104E00002DE9FC410400002000200090DFF8B06C88
:104E1000300000200025002C01D1012013E194F87E
:104E20004400002805D1002084F845002000FEF74A
:104E3000FFFC00200190DFF88C0C016851F48041E8
:104E40000160006810F4804001900198DFF8781C40
:104E5000086830F4000008600A68206A02430A60AB
:104E60004FF480572068C05950F001002168C851A4
:104E700000F05AFE80462068C059C0070FD500F0E8
:104E800053FEB0EB080040F2F5118842F3D3032043
:104E900084F84400002084F845000320D3E0206813
:104EA000076937F01C0701F0CEFFDFF8201C411A1C
:104EB000DFF81C2C914202D257F008071AE0DFF805
:104EC000141C411ADFF8102C914202D257F00C0743
:104ED00010E0861BDFF8041C8E420BD3DFF8001CA9
:104EE000401ADFF8001C884202D257F0040701E0A4
:104EF00057F01007206807614FF40042002120009E
:104F000000F0D8FA002808D00121200000F0F5FBBD
:104F1000012084F84400012095E0FF2002F012F8FF
:104F2000606800286DD000F0FFFD07006A4601218F
:104F3000200000F07DFA41F2893600F0F5FDC01B3B
:104F4000B04213D200984007F0D54FF480520021B0
:104F5000200000F0AFFA002814D00121200000F05A
:104F6000CCFB012084F8440001206CE001212000EA
:104F700000F0C3FB012084F84400002084F84500C1
:104F8000032060E000F0D0FD07006A460121200008
:104F900000F04EFA00F0C8FDC01BB04212D20098DB
:104FA0008006F2D56A461021200000F041FA002860
:104FB00014D00121200000F0A0FB012084F844005F
:104FC000012040E00121200000F097FB012084F83F
:104FD0004400002084F84500032034E00098400796
:104FE00003D54FF40060E06001E00020E06000982D
:104FF000800702D50020A0601DE04FF48040A06033
:1050000019E0E268D20892B2A068400880B2024378
:105010000021200000F04EFA002808D001212000D5
:1050200000F06BFB012084F8440001200BE040F607
:10503000FF7001F087FF2900200000F05EFB0120D7
:1050400084F844000020BDE8F68170B4040000201C
:1050500094F94500012801D1022032E0012084F8B2
:105060004500022084F84400E16200251CE0F16064
:1050700019E0680101EB00065FF48010306040F237
:10508000F45000FB05F01044B060E069002803D143
:10509000306850F440003060581E8542E7D2680105
:1050A00008442030F0606D1C9D42E2D3206841F23C
:1050B00010028150012084F84400002084F845004B
:1050C000002070BC704770B4002490F94540012C5A
:1050D00001D1022034E0012480F84540022480F808
:1050E0004440816200241EE0E9601BE065010D443C
:1050F0005FF000462E6044F2F4566E6040F2F456C3
:1051000006FB04F61644AE608669012E03D16E6874
:1051100026F000466E605E1EB442E5D266010E4483
:105120002036EE60641C9C42E0D3026841F20C031E
:10513000D150012180F84410002180F84510002052
:1051400070BC704770B4020000200020002092F96B
:105150004500012801D1022089E0012082F84500A4
:10516000022082F84400002907D1012082F844007F
:10517000002082F84500012079E0D06A006800280C
:1051800007D5122082F84400002082F84500012053
:105190006DE040F2F55081420DD340F2F450B1FB86
:1051A000F0F340F2F450B1FBF0F400FB14100028CF
:1051B00002D05B1C00E00123012B13D1D06A0068F0
:1051C00050F04050D36A1860C904C90CD06A4160DD
:1051D000D06A006850F00040D16A0860D06AC068A8
:1051E000D0622FE000202BE0D46A246834F04054D1
:1051F000D56A2C60002805D1D46A246854F0805404
:10520000D56A2C6040F2F455D46A65605C1EA042F9
:105210000CD1D46A246854F00054D66A34605C1E01
:1052200005FB1414E404E40CD56A6C60D46A2468A9
:1052300054F00044D56A2C60D46AE468D462401CFF
:105240009842D1D341F2140011680958490707D593
:105250000421136819500020116841F20403C8505A
:10526000012082F84400002082F84500002070BC34
:105270007047002190F94510012901D1022046E034
:10528000012180F84510022180F84410816A0968E4
:10529000002935D4816A0968C9051DD5816B491C6F
:1052A0008163816B012901D1816A0163816A416354
:1052B000816A0968C1F30D41091FC163016B8968E7
:1052C0000164816AC9688162012180F8441000216B
:1052D00080F8451000201AE0816A0968890509D51F
:1052E000816A01630021416301218163816AC96888
:1052F000816205E0816B491C8163816AC9688162B2
:10530000012180F84410002180F8451001207047E9
:10531000002190F94520012A01D102204CE0012210
:1053200080F84520022280F8442006E0826A026369
:1053300001228263826AD2688262826A1268002ACB
:1053400033D4042931D2491C826A126812F44072A3
:10535000B2F5007FEAD0826A126812F4407F06D16B
:10536000826B521C8263826AD2688262E5E7816A3C
:105370004163816B491C8163816B012901D1816A81
:105380000163816A0968C1F30D41091FC163016BA3
:1053900089680164816AC9688162012180F84410CA
:1053A000002180F84510002006E0012180F844101B
:1053B000002180F845100120704738B5040041F203
:1053C00014052068405940060CD5200001F064FA0D
:1053D000402021684851012084F84400002084F8CE
:1053E00045000FE020684059C0070BD5200001F0B0
:1053F000B8FD012021684851012084F844000020B4
:1054000084F845005FF48030216848512068405995
:1054100000040CD5200001F0A5FD4FF400402168E8
:105420004851012084F84400002084F8450031BD33
:10543000F8B504000E0015000020002094F8440088
:10544000822801D1022034E0822084F844002068C0
:10545000006910F01C00218AC90211F47841084348
:10546000B6B2B60116F4F866064336F0020656F0F8
:1054700001062068066100F057FB070001E0206884
:105480000669F0070DD500F04FFBC01BB0F5803F5B
:10549000F5D3012084F84400002084F8450003205F
:1054A00007E02068406980B22860012084F8440049
:1054B0000020F2BD70B504000D000020002094F81B
:1054C0004400422801D1022033E0422084F8440005
:1054D0002068006910F01C00218AC90211F478418B
:1054E0000843ADB2AD0115F4F865054355F002056A
:1054F00055F0010592B2206842612068056100F014
:1055000013FB060001E020680569E8070DD500F0EF
:105510000BFB801BB0F5803FF5D3012084F84400DD
:10552000002084F84500032003E0012084F84400B3
:10553000002070BD10B5040094F94500012801D188
:1055400002201BE0012084F84500022084F844007A
:10555000200000F018FA200000F03DFA200000F0D2
:1055600086FA200000F05FFA200000F06EFA0120B9
:1055700084F84400002084F84500002010BD10B5D8
:10558000040094F94500012801D102201BE001200C
:1055900084F84500022084F84400200000F04CFA12
:1055A000200000F05BFA200000F029FA200000F053
:1055B0005EFA200000F0FBF9012084F8440000208E
:1055C00084F84500002010BD70B505000C000020D7
:1055D00095F94500012801D102208DE0012085F8D0
:1055E0004500022085F84400002C6DD02868016831
:1055F000DFF8F4040140226860680243A0680243B7
:10560000E0680243A86802432069024360690243DC
:10561000E8680243A0690243E0690243206A02434A
:10562000606A0243A06A0243114328680160286847
:105630000668012001F086FC28680660E16A206B9C
:105640000143606B0143A06B0143E06B0143206C9D
:105650000143606C0143A06C0143286841602868E5
:105660004668012001F06EFC28684660E06C2968FD
:105670008860206D2968C860286881694FF641708C
:105680000140606DA26D52EA0042E06D0243206E5F
:105690000243606E0243A06E024311432868816199
:1056A00028688669012001F04DFC28688661E16E5A
:1056B000206F01432868C1612868C469012001F096
:1056C00041FC2868C46110E02868016831F4904109
:1056D000AA68E868024311432868016028680468E2
:1056E000012001F02FFC28680460012085F84400A7
:1056F000002085F84500002070BD78B5ADB00400ED
:105700000020002905D04FF40060E0604FF4804095
:10571000A060002010900020119000201290002026
:1057200013900020149000201590E069002803D108
:105730004FF48060169001E0002016904FF4007046
:105740001790002018900020199000201A90002037
:105750001B9000201C9040201D9000201E900020D7
:105760001F900020209000202190002022900020F7
:105770002390002024900020259080202690002057
:105780002790002028900020299000202A900020B7
:105790002B9000202C9020680168D3480140109A7B
:1057A000119802431298024313980243A0680243DF
:1057B0001498024315980243E06802431698024386
:1057C0001798024318980243199802431A98024303
:1057D00011432068016020680568012001F0B2FBD8
:1057E000206805601B991C9801431D9801431E9871
:1057F00001431F98014320980143219801432298B7
:1058000001432068416020684568012001F09AFB4F
:105810002068456023982168886024982168C860C2
:10582000206881694FF6417001402598269A52EA16
:1058300000422798024328980243299802432A9855
:10584000024311432068816120688569012001F0CD
:1058500079FB206885612B992C9801432068C161F0
:105860002068C569012001F06DFB2068C56100203A
:1058700000905FF000700190002102915FF4001130
:10588000039100210491002105910021069100213E
:1058900007910421089109905FF480300A905FF429
:1058A00080000B904FF400500C9080200D90002051
:1058B0000E9000200F9041F21805206841598B4846
:1058C0000140009A01980243029802430398024360
:1058D000049802430598024306980243079802433E
:1058E000089802431143206841512068465901201D
:1058F00001F028FB206846514FF4805509990A9819
:1059000001430B9801430C9801430D9801430E98F5
:1059100051EA80010F98014351F400012068415180
:1059200020684659012001F00DFB20684651A0690E
:1059300001280CD141F21C002168095841F4803142
:1059400051F0400122681150694800F0D9F86269AD
:105950000021200000F002F82EB070BD53791079BC
:1059600050EA0320634B5B181860D07893781B04CF
:1059700053EA0063507853EA0023107803435E48EB
:1059800041180B6070471CB504000020009020688F
:10599000006850F0080021680860206800680090E6
:1059A000012000F07AF800982168086013BD1CB54A
:1059B0000400002000902068006830F00800216892
:1059C0000860206800680090012000F066F80098E8
:1059D0002168086013BD1CB50400002000902068F9
:1059E000006850F00400216808602068006800909A
:1059F000012000F052F800982168086013BD1CB522
:105A00000400002000902068006830F00400216845
:105A10000860206800680090012000F03EF80098BF
:105A20002168086013BD41F218010268525852F40F
:105A3000005200684250704741F218010268525803
:105A400032F4005200684250704741F21801026877
:105A5000525852F0020200684250704741F2180159
:105A60000268525832F0020200684250704738B55E
:105A700004000020009041F218052068405950F4BD
:105A8000801021684851206840590090012000F0A2
:105A900004F800982168485131BD81B01749096860
:105AA000C9084FF47A72B1FBF2F14843009000BF8D
:105AB0000098411E00910028F9D101B07047000004
:105AC000008793034438024004380140002D31011F
:105AD000C0E1E400C00E160240787D01005A620267
