:020000040800F2
:10000000F88400201DF2000821ED000823ED00080F
:1000100025ED000827ED000829ED0008000000008C
:100020000000000000000000000000002BED0008B0
:100030002DED0008000000002FED000831ED000854
:1000400055F3000859F300085DF3000861F3000858
:1000500065F300083DED000895ED00089FED0008F0
:10006000A9ED0008B3ED0008BDED000869F3000834
:100070006DF3000871F3000875F3000879F30008C8
:100080007DF3000881F3000885F3000889F3000878
:100090003FED00088DF3000891F3000895F3000888
:1000A00099F300089DF30008A1F30008A5F30008E8
:1000B0005DED000853ED0008A9F30008ADF300085A
:1000C000B1F30008B5F30008B9F30008BDF3000868
:1000D000C1F30008C5F30008C9F3000871ED00087A
:1000E000CDF30008D1F30008D5F30008D9F30008D8
:1000F000DDF30008E1F30008E5F30008E9F3000888
:10010000EDF30008F1F3000867ED0008F5F30008CF
:10011000F9F30008FDF3000801F4000805F40008F5
:1001200009F400080DF4000811F4000815F40008A3
:1001300019F4000849ED00081DF4000821F4000836
:1001400025F4000829F400082DF4000831F4000813
:1001500035F4000839F400083DF4000841F40008C3
:1001600045F4000849F400084DF4000851F4000873
:1001700055F4000859F400085DF400080000000080
:1001800061F4000865F4000880B592B0002000908A
:10019000DFF84807016851F080510160006810F0F5
:1001A00080500090009800200090DFF8340701682C
:1001B00051F480410160006810F480400090009884
:1001C000012006905FF48030079002200C905FF4CD
:1001D00080000D9008200E904FF4A8700F90022020
:1001E00010900720119006A802F04AF80F20019005
:1001F00002200290002003904FF4A05004904FF48E
:1002000080500590052101A802F0F4F902F0B3FA3C
:1002100002F0B5FA6421B0FBF1F002F0ACFB04206F
:1002200002F0ADFB002200215FF0FF3002F08DFBF9
:1002300013B000BD38B502F003FCFFF7A5FF02F0D4
:1002400019FC02F0F3FC02F07DFDDFF8980601686E
:10025000C96851F002010268D1600168C96851F0B3
:1002600001010268D16002F0D9FDDFF87C0603F0DD
:1002700033F903F045F900F0DEFADFF8700603F019
:100280004DF9DFF86C0603F027F903F0B0F9DFF859
:10029000640604F0A7FC05F09DF8DFF85C46002139
:1002A000200005F0DDFB0020DFF85016088001F08B
:1002B00025F8DFF84C0602F0BFFD01F057F8DFF833
:1002C000440602F0B9FD9FED1F0A002001224FF401
:1002D0007041DFF8340605F0C5FF0021200005F06D
:1002E000BFFB0122DFF82416DFF8240606F09BF896
:1002F00006F06DFCDFF81C060068002801D001F054
:1003000061FBDFF814562868401E322801D200F045
:100310001BF801F0DDFD2868401E322801D200F0F4
:1003200013F803F042F9DFF8F4050068002801D063
:1003300001F074F92868401E3228CED200F004F88B
:10034000CBE70000000000002DE9F04757E0DFF8A0
:10035000D00503F0C1F847E040F20567DFF8C46557
:100360003100380005F0BFF8012006F06DFC40F2C6
:1003700006683100404605F0B6F8012006F064FC3E
:1003800040F207693100484605F0ADF8012006F05B
:100390005BFC31004FF4C16005F0A5F8012006F0C8
:1003A00053FCDFF884653100380005F09CF801202B
:1003B00006F04AFC3100404605F095F8012006F0B1
:1003C00043FC3100484605F08EF8012006F03CFC65
:1003D00031004FF4C16005F086F8012006F034FCCE
:1003E000DFF8480503F078F82868401C322190FBBC
:1003F000F1F201FB120028602068401E2060DFF847
:1004000018452068002800F014822168DFF82005D4
:1004100003F062F8DFF81C55DFF81C052968405C22
:10042000012813D002285AD0032800F0A180042804
:1004300000F0C480112800F00781122800F06981C3
:10044000132800F0AD81142886D080E740F20166C1
:10045000DFF8D4743900300005F045F8012006F0CB
:10046000F3FB40F202683900404605F03CF80120F9
:1004700006F0EAFB40F203693900484605F033F81C
:10048000012006F0E1FB40F2046A3900504605F015
:100490002AF8012006F0D8FBDFF8A07439003000FC
:1004A00005F021F8012006F0CFFB3900404605F0A9
:1004B0001AF8012006F0C8FB3900484605F013F889
:1004C000012006F0C1FB3900504605F00CF8012070
:1004D00006F0BAFBDFF8680402F0FEFF84E740F2A2
:1004E0000166DFF860743900300004F0FCFF012081
:1004F00006F0AAFB40F202683900404604F0F3FF20
:10050000012006F0A1FB40F203693900484604F0DF
:10051000EAFF012006F098FB40F2046A39005046D9
:1005200004F0E1FF012006F08FFBDFF8FC733900D7
:10053000300004F0D8FF012006F086FB3900404669
:1005400004F0D1FF012006F07FFB3900484604F09B
:10055000CAFF012006F078FB3900504604F0C3FFC3
:10056000012006F071FBDFF8E00302F0B5FF3BE786
:10057000DFF8D863310040F2016004F0B4FF0120DD
:1005800006F062FB310040F2026004F0ACFF012093
:1005900006F05AFB310040F2036004F0A4FF012092
:1005A00006F052FB310040F2046004F09CFF012091
:1005B00006F04AFBE64802F08FFF15E740F20166BD
:1005C000D84F3900300004F08EFF012006F03CFBCC
:1005D00040F202683900404604F085FF012006F031
:1005E00033FB40F203693900484604F07CFF0120E8
:1005F00006F02AFB40F2046A3900504604F073FF0B
:10060000012006F021FBC84F3900300004F06BFFD9
:10061000012006F019FB3900404604F064FF012078
:1006200006F012FB3900484604F05DFF012006F099
:100630000BFB3900504604F056FF012006F004FB86
:10064000C44802F049FFCFE6B74E40F205673100DB
:10065000380004F048FF012006F0F6FA40F2066880
:100660003100404604F03FFF012006F0EDFA40F271
:1006700007693100484604F036FF012006F0E4FA2D
:1006800031004FF4C16004F02EFF012006F0DCFAC7
:10069000AA4E3100380004F026FF012006F0D4FAFB
:1006A0003100404604F01FFF012006F0CDFA310072
:1006B000484604F018FF012006F0C6FA31004FF456
:1006C000C16004F010FF012006F0BEFAA24E310016
:1006D000380004F008FF012006F0B6FA3100404669
:1006E00004F001FF012006F0AFFA3100484604F0A3
:1006F000FAFE012006F0A8FA31004FF4C16004F0C0
:10070000F2FE012006F0A0FADFF8EC0B02F0E4FEA6
:100710006AE68C4E40F205673100380004F0E3FED3
:10072000012006F091FA40F206683100404604F0DC
:10073000DAFE012006F088FA40F2076931004846E7
:1007400004F0D1FE012006F07FFA31004FF4C160C1
:1007500004F0C9FE012006F077FA734E310038002C
:1007600004F0C1FE012006F06FFA3100404604F0AB
:10077000BAFE012006F068FA3100484604F0B3FEE4
:10078000012006F061FA31004FF4C16004F0ABFEC5
:10079000012006F059FADFF8C80B02F09DFE23E6AF
:1007A000DFF8C07B40F205663900300004F09BFEA4
:1007B000012006F049FADFF8B08B4146300004F022
:1007C00092FE012006F040FA40F206663900300041
:1007D00004F089FE012006F037FA4146300004F0AB
:1007E00082FE012006F030FA40F207663900300040
:1007F00004F079FE012006F027FA4146300004F0AB
:1008000072FE012006F020FA39004FF4C16004F0B6
:100810006AFE012006F018FA41464FF4C16004F068
:1008200062FE012006F010FADFF8A00B02F054FE81
:10083000DAE5BDE8F08710B586B006F055FA06F0A7
:1008400094FBDFF88C0B05907FF07F400490DFF87D
:10085000840B0390652000900023A822C021DFF8BC
:10086000780B02F039FE00200090FF23FF22FF21C9
:10087000DFF8680B02F030FE012000900023A82270
:10088000C021DFF85C0B02F027FE184CDFF8540B98
:100890000290DFF8540B01900020009003AB04AAF3
:1008A00005A9200006F0A3FB200006F033FC94F815
:1008B0003300400707D5DFF8340B02F00DFE2000AF
:1008C00006F034FC02E0200006F051FCDFF8201BAB
:1008D000200006F05EFC06B010BD0000403802406B
:1008E00000700040807C002020F00008347D002053
:1008F000C4F00008747B0020BC7B0020AA8000208C
:10090000F87C0020BC7C002000140240CA8000203B
:10091000407C002064800020B87F0020E07F002021
:1009200050F20008240000200C000020ECF0000829
:10093000D8F00008B47F00206C7D00201C0000204F
:100940005CF10008140000202CF200082C000020AC
:1009500038F200086CF100084C00002070B500214E
:1009600014E0536B0C00A4B223441B7DDFF8844ACF
:100970000D00ADB26355526B0B009BB21A44127D51
:10098000DFF8743A0C00A4B21A55491CDFF86C2A3F
:100990000B009BB2546B2469A342E2D3516B0969EB
:1009A000082940F09F84DFF8581ADFF84C3A9C7809
:1009B0005D7855EA04250D60526B126840F281544F
:1009C000121B16D0521E00F09680521E00F01581A8
:1009D000521E00F09481521E00F01382521E00F04D
:1009E0009C82521E00F02583521E00F0AE8300F060
:1009F00037BC0A6842F20304A24204D11979DFF835
:100A0000E02B116076E00A68B2F5005F04D1197935
:100A1000DFF8CC2B51606DE00A6846F26004A24218
:100A200004D11979DFF8B82B118163E00A6846F226
:100A30006C04A24207D159791A7952EA0122DFF8EF
:100A4000A01B4A8156E00A6846F27804A24207D108
:100A500059791A7952EA0122DFF8841B8A8149E028
:100A60000A6846F29104A24207D159791A7952EAEA
:100A70000122DFF86C1B4A823CE00A6842F20B0458
:100A8000A2420CD1D9799A7952EA01225C7954EACE
:100A9000022419790C43DFF8481BCC612AE00A686C
:100AA00046F26B04A24207D159791A7952EA01221F
:100AB000DFF82C1B8A821DE00A6846F26304A2421A
:100AC0000DD1D9799A7952EA0122597951EA022154
:100AD0001A7952EA0122DFF8081B8A610AE00968E4
:100AE00046F29002914205D11979C1F30011DFF865
:100AF000F02A1162B4E30A6842F20304A24204D16C
:100B00001979DFF8102B116076E00A68B2F5005F02
:100B100004D11979DFF8FC2A51606DE00A6846F2C9
:100B20006004A24204D11979DFF8E82A118163E058
:100B30000A6846F26C04A24207D159791A7952EA3E
:100B40000122DFF8D01A4A8156E00A6846F278049A
:100B5000A24207D159791A7952EA0122DFF8B41A70
:100B60008A8149E00A6846F29104A24207D1597984
:100B70001A7952EA0122DFF89C1A4A823CE00A689C
:100B800042F20B04A2420CD1D9799A7952EA01229D
:100B90005C7954EA022419790C43DFF8781ACC61A5
:100BA0002AE00A6846F26B04A24207D159791A7901
:100BB00052EA0122DFF85C1A8A821DE00A6846F2D6
:100BC0006304A2420DD1D9799A7952EA0122597966
:100BD00051EA02211A7952EA0122DFF8381A8A61B1
:100BE0000AE0096846F29002914205D11979C1F3F1
:100BF0000011DFF8202A116232E30A6842F203048E
:100C0000A24204D11979DFF8102A116076E00A684F
:100C1000B2F5005F04D11979DFF8FC2951606DE06D
:100C20000A6846F26004A24204D11979DFF8E82983
:100C3000118163E00A6846F26C04A24207D1597937
:100C40001A7952EA0122DFF8D0194A8156E00A687F
:100C500046F27804A24207D159791A7952EA012260
:100C6000DFF8B4198A8149E00A6846F29104A24289
:100C700007D159791A7952EA0122DFF89C194A8280
:100C80003CE00A6842F20B04A2420CD1D9799A796D
:100C900052EA01225C7954EA022419790C43DFF804
:100CA0007819CC612AE00A6846F26B04A24207D1A7
:100CB00059791A7952EA0122DFF85C198A821DE01B
:100CC0000A6846F26304A2420DD1D9799A7952EAB0
:100CD0000122597951EA02211A7952EA0122DFF8F8
:100CE00038198A610AE0096846F29002914205D1FA
:100CF0001979C1F30011DFF820291162B0E20A6806
:100D000042F20304A24204D11979DFF8E82B116002
:100D100076E00A68B2F5005F04D11979DFF8D42BC8
:100D200051606DE00A6846F26004A24204D119796C
:100D3000DFF8C02B118163E00A6846F26C04A2421E
:100D400007D159791A7952EA0122DFF8A81B4A81A2
:100D500056E00A6846F27804A24207D159791A7916
:100D600052EA0122DFF88C1B8A8149E00A6846F2C8
:100D70009104A24207D159791A7952EA0122DFF887
:100D8000741B4A823CE00A6842F20B04A2420CD176
:100D9000D9799A7952EA01225C7954EA02241979C4
:100DA0000C43DFF8501BCC612AE00A6846F26B0462
:100DB000A24207D159791A7952EA0122DFF8341B8D
:100DC0008A821DE00A6846F26304A2420DD1D979F5
:100DD0009A7952EA0122597951EA02211A7952EAA2
:100DE0000122DFF8101B8A610AE0096846F29002CE
:100DF000914205D11979C1F30011DFF8F82A116287
:100E00002EE20A6842F20304A24204D11979DFF803
:100E1000902B116080E00A68B2F5005F04D1197967
:100E2000DFF87C2B516077E00A6846F26004A2424A
:100E300004D11979DFF8682B11816DE00A6846F258
:100E40006C04A24207D159791A7952EA0122DFF8DB
:100E5000501B4A8160E00A6846F27804A24207D13A
:100E600059791A7952EA0122DFF8341B8A8153E05A
:100E70000A6846F29104A24207D159791A7952EAD6
:100E80000122DFF81C1B4A8246E00A6842F20B048A
:100E9000A2420CD1D9799A7952EA01225C7954EABA
:100EA000022419790C43DFF8F81ACC6134E00A689F
:100EB00046F26B04A24207D159791A7952EA01220B
:100EC000DFF8DC1A8A8227E00A6846F26304A2424D
:100ED0000DD1D9799A7952EA0122597951EA022140
:100EE0001A7952EA0122DFF8B81A8A6114E00A6816
:100EF00046F29004A24206D1197911F00101DFF8FF
:100F0000A02A116208E0096846F28902914203D1E1
:100F10001979DFF8902A1160A2E10A6842F203040D
:100F2000A24204D11979DFF8802A116080E00A68B2
:100F3000B2F5005F04D11979DFF86C2A516077E0CF
:100F40000A6846F26004A24204D11979DFF8582AEF
:100F500011816DE00A6846F26C04A24207D159790A
:100F60001A7952EA0122DFF8401A4A8160E00A68E1
:100F700046F27804A24207D159791A7952EA01223D
:100F8000DFF8241A8A8153E00A6846F29104A242EB
:100F900007D159791A7952EA0122DFF80C1A4A82EC
:100FA00046E00A6842F20B04A2420CD1D9799A7940
:100FB00052EA01225C7954EA022419790C43DFF8E1
:100FC000E819CC6134E00A6846F26B04A24207D10A
:100FD00059791A7952EA0122DFF8CC198A8227E07E
:100FE0000A6846F26304A2420DD1D9799A7952EA8D
:100FF0000122597951EA02211A7952EA0122DFF8D5
:10100000A8198A6114E00A6846F29004A24206D147
:10101000197911F00101DFF89029116208E00968DF
:1010200046F28902914203D11979DFF880291160D3
:1010300016E10A6842F20304A24204D11979DFF8EA
:101040007029116080E00A68B2F5005F04D1197957
:10105000DFF85C29516077E00A6846F26004A2423A
:1010600004D11979DFF8482911816DE00A6846F248
:101070006C04A24207D159791A7952EA0122DFF8A9
:1010800030194A8160E00A6846F27804A24207D12A
:1010900059791A7952EA0122DFF814198A8153E04A
:1010A0000A6846F29104A24207D159791A7952EAA4
:1010B0000122DFF8FC184A8246E00A6842F20B047B
:1010C000A2420CD1D9799A7952EA01225C7954EA88
:1010D000022419790C43DFF8D818CC6134E00A688F
:1010E00046F26B04A24207D159791A7952EA0122D9
:1010F000DFF8BC188A8227E00A6846F26304A2423D
:101100000DD1D9799A7952EA0122597951EA02210D
:101110001A7952EA0122DFF898188A6114E00A6805
:1011200046F29004A24206D1197911F00101DFF8CC
:101130008028116208E0096846F28902914203D1D1
:101140001979DFF8702811608AE00A6842F2030416
:10115000A24204D11979DFF86028116080E00A68A2
:10116000B2F5005F04D11979DFF84C28516077E0BF
:101170000A6846F26004A24204D11979DFF83828DF
:1011800011816DE00A6846F26C04A24207D15979D8
:101190001A7952EA0122DFF820184A8160E00A68D1
:1011A00046F27804A24207D159791A7952EA01220B
:1011B000DFF804188A8153E00A6846F29104A242DB
:1011C00007D159791A7952EA0122DFF8EC174A82DD
:1011D00046E00A6842F20B04A2420CD1D9799A790E
:1011E00052EA01225C7954EA022419790C43DFF8AF
:1011F000C817CC6134E00A6846F26B04A24207D1FA
:1012000059791A7952EA0122DFF8AC178A8227E06D
:101210000A6846F26304A2420DD1D9799A7952EA5A
:101220000122597951EA02211A7952EA0122DFF8A2
:1012300088178A6114E00A6846F29004A24206D137
:10124000197911F00101DFF87027116208E00968CF
:1012500046F28902914203D11979DFF87C2B1160A3
:10126000DFF83C17DFF84027DFF84437DFF848475E
:101270000D6A166A56EA45061D6A55EA4605266A4B
:1012800056EA4506DFF8545B2E704968526852EA08
:101290004102596851EA4201626852EA4102DFF8AC
:1012A000401B0A70CE49DB4ADB4BDFF848464D68ED
:1012B000566856EA45065D6855EA4605666856EA88
:1012C0004506DFF8205B2E700989128952EA011267
:1012D000DFF8F41B0A701989228952EA0112DFF83B
:1012E000441C0A70002104F0BBFB70BD80B5DFF820
:1012F000380C06F058F901BD7CF100081FB500203C
:101300000090DFF8C80B016851F00101016000682E
:1013100010F0010000900098DFF8104C5FF0804062
:1013200020604CF24F30E06040F28F60606000203F
:1013300020610020A060200001F054FD00200190F9
:101340000020029001A9200006F0D2F9002201211C
:101350001C2001F0FAFA1C2001F008FB1FBD000060
:1013600044F2000844000020540000201FB5002073
:101370000090DFF8580B016851F00201016000682D
:1013800010F0020000900098DFF8A44BDFF8200D69
:10139000206042F21070E060532060600020206105
:1013A0000020A060200001F01DFD00200190002021
:1013B000029001A9200006F09BF9002202211D20C5
:1013C00001F0C3FA1D2001F0D1FA1FBD8CF1000815
:1013D000C0A80065C0A8000138EE000868EE00084B
:1013E00098EE0008EDD40008CF7500089CF10008C5
:1013F000F5750008C07A0020787F0020BC7B0020B3
:101400008C7F002030B4DFF8281B884200F0E58094
:10141000DFF8181B884240F0D080DFF8180B016815
:101420000E2902D001682C2931D1DFF80C1B0A6883
:10143000121E322A11D2DFF8042B2223DFF8004BD0
:101440001568635513685B1C322493FBF4F504FBA9
:10145000153313600A68521C0A600A68121E322A89
:1014600011D2DFF8D82A2323DFF8D44A1568635550
:1014700013685B1C322493FBF4F504FB15331360F3
:101480000A68521C0A600168491C0160A5E00168F5
:101490001D2902D001683A291BD1DFF89C1A0A687D
:1014A000121E322A11D2DFF8942A3123DFF8904A33
:1014B0001568635513685B1C322493FBF4F504FB39
:1014C000153313600A68521C0A600168491C0160E8
:1014D00083E00168152902D0016833291BD1DFF8A8
:1014E000581A0A68121E322A11D2DFF8502A322303
:1014F000DFF84C4A1568635513685B1C322493FB74
:10150000F4F504FB153313600A68521C0A60016885
:10151000491C016061E001683B2902D100210160A2
:101520005BE00121DFF81C2A1160DFF80C1A0A6861
:10153000121E322A11D2DFF8042A2123DFF8004AD2
:101540001568635513685B1C322493FBF4F504FBA8
:10155000153313600A68521C0A600A68121E322A88
:1015600011D2DFF8D8292423DFF8D4491568635550
:1015700013685B1C322493FBF4F504FB15331360F2
:101580000A68521C0A600A68121E322A11D2DFF859
:10159000AC292523DFF8A8491568635513685B1C3F
:1015A000322493FBF4F504FB153313600A68521CD4
:1015B0000A600168491C01600FE0DFF8001B8842E7
:1015C0000BD1DFF8FC0A0188B1F5004F03D14FF4CD
:1015D0000041018001E00321018030BC7047000020
:1015E000F87D002080B5DFF8D41A884210D1DFF8EA
:1015F000D00A0188B1F5004F03D04FF6FF7101808A
:1016000006E04FF400410180DFF8740B01F064FF45
:1016100001BD00001C7E0020407E00202DE9F84F17
:1016200040F20164DFF89C5A2900200003F05BFFC0
:10163000012005F009FB40F202662900300003F0AA
:1016400052FF012005F000FB40F20367290038003B
:1016500003F049FF012005F0F7FA40F20468290081
:10166000404603F040FF012005F0EEFADFF8149B3E
:101670004946200003F037FF012005F0E5FA49460E
:10168000300003F030FF012005F0DEFA4946380053
:1016900003F029FF012005F0D7FA4946404603F040
:1016A00022FF012005F0D0FADFF8DC9A494620003D
:1016B00003F019FF012005F0C7FA4946300003F096
:1016C00012FF012005F0C0FA4946380003F00BFF75
:1016D000012005F0B9FA4946404603F004FF012015
:1016E00005F0B2FADFF8A49A4946200003F0FBFEA9
:1016F000012005F0A9FA4946300003F0F4FE01206C
:1017000005F0A2FA4946380003F0EDFE012005F08D
:101710009BFA4946404603F0E6FE012005F094FAA4
:10172000DFF86CAA5146200003F0DDFE012005F031
:101730008BFA5146300003F0D6FE012005F084FA02
:101740005146380003F0CFFE012005F07DFA5146E6
:10175000404603F0C8FE012005F076FADFF834BAFF
:101760005946200003F0BFFE012005F06DFA5946EE
:10177000300003F0B8FE012005F066FA5946380043
:1017800003F0B1FE012005F05FFA5946404603F030
:10179000AAFE012005F058FADFF8FC090068401E97
:1017A000322801D2FEF7D0FD40F205642900200066
:1017B00003F099FE012005F047FA40F20666290081
:1017C000300003F090FE012005F03EFA40F207677A
:1017D0002900380003F087FE012005F035FA2900C2
:1017E0004FF4C16003F07FFE012005F02DFA494659
:1017F000200003F078FE012005F026FA494630006B
:1018000003F071FE012005F01FFA4946380003F08D
:101810006AFE012005F018FA49464FF4C16003F052
:1018200062FE012005F010FA5146200003F05BFE35
:10183000012005F009FA5146300003F054FE012062
:1018400005F002FA5146380003F04DFE012005F084
:10185000FBF951464FF4C16003F045FE012005F04D
:10186000F3F95946200003F03EFE012005F0ECF9A3
:101870005946300003F037FE012005F0E5F95946DE
:10188000380003F030FE012005F0DEF959464FF430
:10189000C16003F028FE012005F0D6F9DFF8FC58FE
:1018A0002900200003F01FFE012005F0CDF92900DA
:1018B000300003F018FE012005F0C6F929003800B9
:1018C00003F011FE012005F0BFF929004FF4C160BB
:1018D00003F009FE012005F0B7F900F00DF8002033
:1018E000DFF860160860DFF8B80801F0F5FDBDE824
:1018F000F18F0000647E002080B52DED028B9FEDFE
:101900002F8BDFF8A008806905F01EFF53EC182B21
:1019100005F02CFF0022DFF8903805F0F9FF06F003
:101920001BF9DFF888180860DFF88408806905F083
:101930000BFF53EC182B05F019FF0022DFF8683875
:1019400005F0E6FF06F008F9DFF868180860DFF830
:101950006808806905F0F8FE53EC182B05F006FFC7
:101960000022DFF8443805F0D3FF06F0F5F8DFF881
:101970004C180860DFF84808806905F0E5FE53EC74
:10198000182B05F0F3FE0022DFF81C3805F0C0FF2D
:1019900006F0E2F8DFF82C180860BDEC028B01BD00
:1019A000887E0020907F0020AC7E0020947F002065
:1019B000D07E0020987F0020F47E002000000000F0
:1019C000008076402DE9F84F40F20166DFF8F847D5
:1019D0002100300003F087FD40F20267210038004B
:1019E00003F081FD40F203682100404603F07BFDD7
:1019F000012005F029F940F204692100484603F06E
:101A000072FDDFF8C8572900300003F06CFD290093
:101A1000380003F068FD012005F016F92900404662
:101A200003F061FD2900484603F05DFD0020DFF86A
:101A3000A8130860DFF898170860DFF8986730602F
:101A4000DFF89477386040F20568DFF890974946F0
:101A5000404603F048FD012005F0F6F840F2066A22
:101A60004946504603F03FFD012005F0EDF840F2F5
:101A7000076B4946584603F036FD012005F0E4F8AF
:101A800049464FF4C16003F02EFD012005F0DCF85B
:101A9000DFF84C07DFF84C178969C9170160DFF8D8
:101AA00048178969C917DFF844271160DFF8401724
:101AB0008969C917DFF83C271160DFF83C1789698D
:101AC000C917DFF8382711600068002805D0DFF853
:101AD0003017404603F007FD04E0DFF828174046C2
:101AE00003F001FD012005F0AFF8DFF80007006802
:101AF000002805D0DFF80817504603F0F4FC04E096
:101B0000DFF80017504603F0EEFC012005F09CF8CA
:101B1000DFF8E0060068002805D0DFF8E416584634
:101B200003F0E1FC04E0DFF8DC16584603F0DBFCD0
:101B3000012005F089F8DFF8C4060068002806D007
:101B4000DFF8BC164FF4C16003F0CDFC05E0DFF810
:101B5000B4164FF4C16003F0C6FC012005F074F820
:101B60003868FE282FD0DFF8A016404603F0BBFCF3
:101B7000012005F069F84946404603F0B4FC012015
:101B800005F062F806E04946404603F0ACFC0A2046
:101B900005F05AF83868FE28F5D12100404603F0D8
:101BA000A2FC012005F050F82900404603F09BFC00
:101BB000012005F049F8DFF85416404603F093FC85
:101BC000012005F041F83868FE2832D13068FE283F
:101BD0002FD0DFF83416504603F085FC012005F0C5
:101BE00033F84946504603F07EFC012005F02CF8FE
:101BF00006E04946504603F076FC0A2005F024F83A
:101C00003868FE28F5D12100504603F06CFC012015
:101C100005F01AF82900504603F065FC012005F094
:101C200013F8DFF8E815504603F05DFC012005F0DD
:101C30000BF83868FE283AD13068FE2837D1DFF833
:101C400090050068FE2832D0DFF8BC15584603F036
:101C50004AFC012004F0F8FF4946584603F043FCD3
:101C6000012004F0F1FF09E04946584603F03BFC2F
:101C7000012004F0E9FF0A2004F0E6FF3868FE289E
:101C8000F2D12100584603F02EFC012004F0DCFFC5
:101C90002900584603F027FC012004F0D5FFDFF8A7
:101CA0006C15584603F01FFC012004F0CDFF386886
:101CB000FE2844D13068FE2841D1DFF814050068C1
:101CC000FE283CD144480068FE2838D0DFF838159B
:101CD0004FF4C16003F007FC012004F0B5FF494652
:101CE0004FF4C16003F0FFFB012004F0ADFF0AE0F8
:101CF00049464FF4C16003F0F6FB012004F0A4FF55
:101D00000A2004F0A1FF3868FE28F1D121004FF429
:101D1000C16003F0E8FB012004F096FF29004FF4B6
:101D2000C16003F0E0FB012004F08EFFDFF8DC145B
:101D30004FF4C16003F0D7FB012004F085FF386841
:101D4000FE2813D13068FE2810D1DFF88404006823
:101D5000FE280BD120480068FE2807D10120DFF8BB
:101D6000B01408700020DFF8AC140860BDE8F18FF3
:101D700038B5DFF8A444A0422CD1DFF84403018831
:101D8000002904D04FF6FF7291420BD00DE00221E2
:101D900001800020DFF884140880DFF8200301F0C0
:101DA0003DF802E04FF400410180DFF87004028842
:101DB000DFF86C140B78DFF86C5492B2AB540288E5
:101DC000521C02800020BD4A12685062012220008D
:101DD00004F029FB31BD00009C7F0020D980002049
:101DE000D5800020D680002038B5534C2168DFF81C
:101DF000380401F071FBDFF8345451482968405C25
:101E0000DFF82C14086021280CD0222814D02328B5
:101E10001CD0242824D025282CD0312834D0322896
:101E20003CD045E0012343220321012005F0D1FEEF
:101E3000012004F009FF3BE00123102203210120CF
:101E400005F0C7FE012004F0FFFE31E0012314225B
:101E50000321012005F0BDFE012004F0F5FE27E07E
:101E600001230E220321012005F0B3FE012004F01E
:101E7000EBFE1DE001230F220321012005F0A9FE46
:101E8000012004F0E1FE13E00123012204210320DC
:101E900005F09FFE032004F0D7FE09E00123022293
:101EA0000421032005F095FE032004F0CDFEFFE79A
:101EB0002868401C322190FBF1F201FB12002860DF
:101EC0002068401E206031BDCC8000204038024098
:101ED00038B57B4C2088B0F5004F01D10020208020
:101EE0002088032812D1002506E0DFF83803415D81
:101EF00070A001F0F1FA6D1CDFF820030088854224
:101F0000F3DB6DA001F0E8FA00F01EF8208800284D
:101F100006D109480068401E322801D2FFF764FF4D
:101F200031BD0000CD800020347D0020F87C0020F1
:101F3000BC7C0020E47F0020C47F0020BC7F002008
:101F4000A07D0020E07F002070B5BA4EB54CB34DA7
:101F50002988891E200005F01DFE3080B648318892
:101F600089B23288120252EA11220280298889B28B
:101F7000214411F8021C2A880088C9B292B2224476
:101F800012F8012C52EA0122904240F08A80207817
:101F900001285AD16078032853D1A078C0B229888B
:101FA000491F884249D1A2480068212807D043D35D
:101FB00023281AD00ED3252833D027D33CE09F48BE
:101FC00001F08AFAE078C0B2217951EA00219C48F8
:101FD000018069E09B4801F07FFAE078C0B2217986
:101FE00051EA0021964841805EE0974801F074FA7A
:101FF000E0789349C0B2227952EA00228A80888828
:1020000080000A2290FBF2F088804DE08F4801F0BA
:1020100063FAE078C0B2217950EA01208849C8808B
:1020200042E08B4801F058FAE078C0B2217951EAD9
:1020300000218348018137E036E0864801F04CFA00
:1020400032E0854801F048FA2EE02078022810D1CD
:102050006078032809D1A078C0B22988491F884236
:1020600022D07C4801F038FA1EE07B4801F034FAB7
:102070001AE02078032810D16078032809D1A078CD
:10208000C0B22988491F88420ED0724801F024FA54
:102090000AE0714801F020FA06E0704801F01CFAED
:1020A00002E06F4801F018FA00200549088070BD71
:1020B00000040040257820000A000000807C0020F9
:1020C000AA8000205C00002080B5010089B20129AF
:1020D0000FD1644801F000FA63490868002802D073
:1020E0000020086001E00120086001205F490860CD
:1020F00044E0010089B202290FD15A4801F0ECF9FD
:102100005B490868002802D00020086001E0012037
:10211000086002205549086030E0010089B20429B6
:102120000CD154490868002802D00020086001E062
:102130000120086004204D4908601FE0010089B2B9
:1021400008290CD14C490868002802D000200860FA
:1021500001E0012008600820444908600EE080B2D8
:1021600010280BD145490868002802D000200860DB
:1021700001E00120086010203C49086001BD00001A
:102180005CF20008640000206C0000207400002055
:102190007C00002084000020B87F00208C000020FC
:1021A0003CF00008F87D00200070B74068800020F7
:1021B0001C7E00206C800020407E0020708000206B
:1021C000647E002074800020140000200C00002099
:1021D000987F0020947F0020907F002094000020B2
:1021E000A07F0020887E0020AC7E0020A47F0020FD
:1021F000D07E0020A87F0020F47E0020AC7F00204D
:10220000340000203C000020540000201C0000206E
:102210007E02002064800020407C0020A4800020FA
:10222000CA800020F071002070F00008C07F0020FC
:10223000C87F0020AE800020AC800020ACF10008F8
:102240006C7F002088F00008BCF1000800F1000855
:1022500014F10008CCF10008DCF1000868F2000875
:1022600074F200081CF30008CC7F0020143C0140ED
:10227000D07F0020D47F0020D87F0020DC7F00208A
:10228000F8B5040000202078C0075CD5DFF83803DB
:10229000016811F00C01042909D0006810F00C004D
:1022A00008280ED1DFF824030068400209D5DFF8C2
:1022B00020030068800346D56068002843D10120D0
:1022C00081E16068B0F5803F06D1DFF80403016862
:1022D00051F48031016017E06068B0F5A02F0AD199
:1022E000DFF8EC02016851F480210160016851F4CB
:1022F0008031016008E0B648016831F48031016046
:10230000016831F480210160606800280DD005F07B
:10231000ABFC0500AE480068800314D405F0A4FCB3
:10232000401B6528F6D303204DE105F09DFC050018
:10233000A7480068800306D505F096FC401B652879
:10234000F6D303203FE12078800722D59E4801681C
:1023500011F00C0F08D0006810F00C0008282FD1E5
:102360009A48006840022BD499480168890704D52F
:10237000E168012901D0012025E101685FF0F852F0
:10238000B2FA82F231F0F801236913FA02F2114332
:1023900001602078000756D56069002842D00120EE
:1023A0008C49086005F060FC05008B4800688007D8
:1023B00049D405F059FC401B0328F6D3032002E161
:1023C000E06800281DD001208449086005F04CFC1D
:1023D00005007F480168890706D405F045FC401BCD
:1023E0000328F6D30320EEE001685FF0F852B2FA5A
:1023F00082F231F0F801236913FA02F2114301600D
:10240000C7E700207549086005F02EFC05007048FC
:1024100000688007BDD505F027FC401B0328F6D3D4
:102420000320D0E000206B49086005F01DFC05008A
:1024300069480068800706D505F016FC401B032894
:10244000F6D30320BFE0207840075FD5002000903E
:102450006348016851F080510160006810F08050BD
:10246000009000985F4E306850F48070306005F046
:10247000FBFB05003068C00506D405F0F5FB401BEA
:102480000328F7D303209EE0A068012805D1564811
:10249000016851F00101016015E0A068052809D12B
:1024A0005148016851F004010160016851F00101D7
:1024B000016008E04C480168490849000160016872
:1024C00031F004010160A06800280FD005F0CCFBBA
:1024D000050045480068800718D405F0C5FB401B7F
:1024E00041F289318842F4D303206CE005F0BCFB53
:1024F00005003D480068800708D505F0B5FB401B86
:1025000041F289318842F4D303205CE0A0690028BD
:1025100058D02D48006810F00C00082850D0A06951
:1025200002283CD1314E0020306005F09DFB0700B1
:10253000274D2868800106D505F096FBC01B0328AF
:10254000F6D303203FE02A48B0FA80F14FF4404030
:10255000B0FA80F2F020B0FA80F3E769206A07430E
:10256000606A10FA01F13943A06A4008401E10FA6F
:1025700002F21143E06A10FA03F3194313480160B1
:102580000120306005F070FB04002868800119D438
:1025900005F06AFB001B0328F7D3032013E000209B
:1025A0001249086005F060FB0400094800688001DA
:1025B00008D505F059FB001B0328F6D3032002E0E1
:1025C000012000E00020F2BD08380240043802403B
:1025D00000380240800E47427438024000004742F3
:1025E00040380240007000407038024060004742AE
:1025F0000000FE032DE9F04104000D000020714EA3
:10260000306810F00F00A84207D23570306810F023
:102610000F00A84201D00120ABE02078800706D54A
:1026200069490A6832F0F002A06802430A60207823
:10263000C00768D56068012805D164480068800338
:1026400013D4012095E06068022802D06068032856
:1026500005D15E480068800107D4012089E05B480D
:102660000068800701D4012083E0574F396889084A
:10267000890060680143396005F0F6FA80466068B9
:1026800001280ED1386810F00C0004283BD005F06A
:10269000EBFAB0EB080041F289318842F2D3032013
:1026A00067E0606802280ED1386810F00C00082836
:1026B00029D005F0D9FAB0EB080041F289318842FF
:1026C000F2D3032055E0606803280ED1386810F07B
:1026D0000C000C2817D005F0C7FAB0EB080041F247
:1026E00089318842F2D3032043E0386810F00C0FA0
:1026F00009D005F0B9FAB0EB080041F289318842FF
:10270000F3D3032035E0306810F00F00854207D284
:102710003570306810F00F00A84201D0012028E089
:102720002078400706D528490A6832F4E052E0686C
:1027300002430A602078000707D52348016831F476
:102740006041226951EAC201016000F049F81E4966
:1027500009685FF07062B2FA82F21D4B11F0F0016D
:10276000D140595CC8401B490860002005F082FA3E
:102770000020BDE8F0810120174908607047154826
:102780000068704780B5FFF7FAFF0F4909685FF4EA
:102790006012B2FA82F2114B11F4E051D140595C4F
:1027A000C84002BD80B5FFF7EAFF074909685FF43A
:1027B000E022B2FA82F2094B11F46041D140595C37
:1027C000C84002BD003C02400838024000380240C8
:1027D000ECF10008040000204C00474224F30008FC
:1027E00010B400200020002000201F48006810F0D6
:1027F0000C00002804D0042804D0082804D030E0BD
:102800001A482FE01A482DE01A49086810F03F00D6
:102810000A6852020CD50B68174AB2FA82F4144ABD
:10282000B2FBF0F247F6C0700340E3405A430BE0BE
:102830000B68114AB2FA82F40C4AB2FBF0F247F686
:10284000C0700340E3405A4308684FF44041B1FA76
:1028500081F110F44030C840401C4000B2FBF0F061
:1028600000E0024810BC7047083802400024F40021
:1028700000127A00043802400000FE0310F0070046
:10288000464B1A684FF6FF010A40454951EA0021BC
:102890000A431A60704741480068C0F3022070473D
:1028A000012210F01F018A403E4940B2400941F820
:1028B00020207047020052B2002A08D509013A4A86
:1028C00040B210F00F00104400F8041C03E00901AE
:1028D000364A40B21154704710B410F00700D0F1DE
:1028E0000703052B01D3042301E0D0F10703041DE6
:1028F000072C01D2002000E0C01E012414FA03F3CB
:102900005B1E1940814014FA00F0401E104008433D
:1029100010BC704780B5411EB1F1807F01D301200A
:102920000EE0401E224908600F215FF0FF30FFF7E4
:10293000C1FF00201F49086007201F4908600020D0
:1029400002BD80B5FFF79AFF01BD70B504000D0010
:1029500016000020FFF79FFF32002900FFF7BCFFA1
:102960000100200040B2FFF7A5FF70BD80B540B266
:10297000FFF796FF01BD80B5FFF7CCFF02BD04282D
:1029800005D10D48016851F00401016004E00A48D6
:10299000016831F004010160704700000CED00E0B7
:1029A0000000FA0500E100E018ED00E000E400E0BE
:1029B00014E000E018E000E010E000E080B500F076
:1029C00001F801BD7047F0B402461068956813180D
:1029D000506803EB5004C0071DD54D441BE013F8AD
:1029E000017B05F8017B491EF9D1A0B1B60813F8A7
:1029F000011B06F00306032E08BF13F8016B01EB61
:102A000006214942801C294405D011F8016B05F8C4
:102A1000016B401EF9D1A3420ED013F8016B16F0E2
:102A2000030104BF13F8011BC91C30090F28DAD1B8
:102A300013F8010B0F30D6E7F0BC02F10C00704721
:102A400080B50B48016851F400710160016851F4D0
:102A500080610160016851F4807101600320FFF71B
:102A600070FF002005F006F905F018F9002002BDFE
:102A7000003C024038B586B0002000903148016823
:102A800051F040010160016811F04001009100998E
:102A900000210091016851F020010160006810F0F0
:102AA000200000900098284D00224FF4704128002B
:102AB00003F0D8FB254C00221F21200003F0D2FB9D
:102AC0004FF470400190012002900020049001A971
:102AD000280003F0D9FA1F2001901D480290012020
:102AE00003900320049001A9200003F0CDFA0122F5
:102AF00000210620FFF729FF0620FFF737FF0122FC
:102B000000210720FFF721FF0720FFF72FFF0122F9
:102B100001210820FFF719FF0820FFF727FF0222F5
:102B200001210920FFF711FF0920FFF71FFF0322F2
:102B300001210A20FFF709FF0A20FFF717FF07B05E
:102B400030BD00BF3038024000140240001802407F
:102B50000000311010B586B00168704A91421AD158
:102B6000002005906E48016851F010010160006876
:102B700010F0100005900598C020009002200190F0
:102B800001200290032003900720049069466548C5
:102B900003F07AFA48E000686349884244D1002093
:102BA00005906248016851F480210160006810F4CA
:102BB000802005900598002005905D48016851F03F
:102BC00080010160006810F08000059005984FF4C6
:102BD0008060009002200190032003900720049061
:102BE000504C6946200003F04FFA4FF4006000900B
:102BF00002200190002002900720049069462000E6
:102C000003F042FA4B4C00224FF48071200003F095
:102C100029FB4FF480700090012001900220039066
:102C20006946200003F030FA06B010BD1CB5002044
:102C300000903F48016851F002010160006810F007
:102C40000200009000983C48344901605FF4E13193
:102C50004160002181600021C160002101610C21DF
:102C60004161002181610021C16103F033FB00203B
:102C700000902E48016851F480210160006810F432
:102C800080200090009824A000F026FC2B4C2648C1
:102C900020604FF4165060600020A0600020E060CB
:102CA000002020610C2060610020A0610020E06114
:102CB000200003F00FFB002200212720FFF745FE34
:102CC0002720FFF753FE01221D49200003F0ABFB34
:102CD00013BD70B504000D00164E01224FF4807133
:102CE000300003F0BFFA4FF6FF732A0092B22100C2
:102CF000124803F02AFB00224FF48071300003F0E9
:102D0000B1FA70BD01B54FF6FF73012269460A485A
:102D100003F01BFB009802BD310A000000100140C7
:102D2000443802400004024000480040403802405D
:102D300030380240001C0240007C0020407C002013
:102D4000CA80002018B58BB0234C24482060532043
:102D500060600020A06041F26800E0600020206117
:102D60000821200000F076F84FF48050079007A962
:102D7000200000F081F9302000904FF4E1600190D4
:102D8000002002900820039000200490002005906D
:102D90000020069000226946200000F03EF90CB0A9
:102DA00010BD80B500680D49884213D10020009005
:102DB0000B48016851F008010160006810F008003C
:102DC00000900098002200213220FFF7BEFD322043
:102DD000FFF7CCFD01BD0000807C0020000C00400E
:102DE0004038024010B50400002C01D1012014E04D
:102DF00094F93900002805D1002084F8380020001B
:102E000000F069FB022084F83900211D206800F0E1
:102E1000BFF9012084F83900002010BD022180F89C
:102E200039100168096851F001010268116001213F
:102E300080F83910002070470168C96851F001011D
:102E40000268D1600168096851F001010068016001
:102E50000020704738B504000D00002C01D101207E
:102E60001FE094F93900002805D1002084F83800CB
:102E70002000FFF796FF022084F83900211D20680A
:102E800000F086F92068006830F0080021680860CA
:102E900020680068054320680560012084F8390037
:102EA000002032BD10B504002068006980071AD5E3
:102EB0002068C068800716D57FF00200216808618D
:102EC000012020762068806910F0030F03D02000D5
:102ED00004F01BFF05E02000FEF784FB200004F057
:102EE00015FF002020762068006940071AD5206869
:102EF000C068400716D57FF00400216808610220F1
:102F000020762068806910F4407F03D0200004F010
:102F1000FCFE05E02000FEF765FB200004F0F6FE55
:102F2000002020762068006900071AD52068C06854
:102F3000000716D57FF0080021680861042020767C
:102F40002068C06910F0030F03D0200004F0DDFEFC
:102F500005E02000FEF746FB200004F0D7FE00202D
:102F6000207620680069C0061AD52068C068C006AF
:102F700016D57FF0100021680861082020762068AF
:102F8000C06910F4407F03D0200004F0BEFE05E0CD
:102F90002000FEF727FB200004F0B8FE002020767A
:102FA00020680069C0070AD52068C068C00706D538
:102FB0007FF00100216808612000FEF723FA2068F5
:102FC000006900060AD52068C068000606D57FF0B3
:102FD000800021680861200004F099FE20680069E3
:102FE00040060AD52068C068400606D57FF040003C
:102FF00021680861200004F08BFE206800698006CB
:103000000AD52068C068800606D57FF020002168B8
:103010000861200004F07DFE10BD10B5040094F995
:103020003800012801D1022025E0012084F8380071
:10303000022084F83900002A06D0042A08D0082A81
:103040000AD00C2A0CD00FE0206800F04EF90BE0FB
:10305000206800F00FF907E0206800F07CF903E039
:10306000206800F0B2F9FFE7012084F83900002061
:1030700084F83800002010BD10B50400002094F939
:103080003800012801D1022081E0012084F83800B5
:10309000022084F839002068806830F0770030F42E
:1030A0007F40226890600868002855D0102858D0CA
:1030B00020285BD030285ED0402843D050282DD027
:1030C000602835D070280DD0B0F5805F03D0B0F502
:1030D000005F16D054E020688068C008C0002168F6
:1030E00088604DE0CB684A688968206800F0E7F99D
:1030F0002068806830F0770050F0770021688860A1
:103100003EE0CB684A688968206800F0D8F92068FA
:10311000806850F480402168886031E0CA6849685E
:10312000206800F099F95021206800F0BEF927E0EE
:10313000CA684968206800F0A3F96021206800F09F
:10314000B4F91DE0CA684968206800F085F940219B
:10315000206800F0AAF913E00021206800F0A5F92A
:103160000EE01021206800F0A0F909E0202120687D
:1031700000F09BF904E03021206800F096F9FFE7A9
:10318000012084F83900002084F83800002010BDA8
:1031900010B400220468DFF89432984212D0B0F1E3
:1031A000804F0FD0DFF8882290420BD0DFF88422C6
:1031B000904207D0DFF88022904203D0DFF87C22D3
:1031C000904201D1012200E00022D2B2002A03D0B5
:1031D00034F070044A68144398422AD0B0F1804F0A
:1031E00027D0DFF84C22904223D0DFF848229042CB
:1031F0001FD0DFF8442290421BD0DFF840229042DB
:1032000017D0DFF83C22904213D0DFF838229042EA
:103210000FD0DFF8342290420BD0DFF830229042FA
:1032200007D0DFF82C22904203D0DFF8282290420A
:1032300001D1012200E00022D2B2002A03D034F4EE
:103240004074CA68144304608A68C2620A68826271
:10325000984203D0DFF8E421904201D1012200E03E
:103260000022D2B2002A01D0096901630121416123
:1032700010BC704730B4002200220022026A32F0F3
:1032800010020262046A4568836933F4E04333F450
:1032900040730A6853EA022334F020048A6854EA2F
:1032A0000214624A904202D0644A904201D1012243
:1032B00000E00022D2B2002A10D034F08004CA68A4
:1032C00054EA021434F0400435F4806535F40065A6
:1032D0004A6955EA82058A6955EA82054560836133
:1032E00049688163046230BC704730B40022002218
:1032F0000022026A520852000262046A4568836929
:1033000033F070039B089B000A68134334F00204F7
:103310008A681443454A904202D0484A904201D1FB
:10332000012200E00022D2B2002A0DD034F00804BD
:10333000CA68144334F0040435F4807535F400751C
:103340004A6915438A691543456083614968416349
:10335000046230BC704730B4002200220022026AAE
:1033600032F480720262046A4568C36933F0700304
:103370009B089B000A68134334F400748A6854EA7B
:1033800002242A4A904202D02C4A904201D10122C2
:1033900000E00022D2B2002A10D034F40064CA68DF
:1033A00054EA022434F4806435F4805535F4005531
:1033B0004A6955EA02158A6955EA02154560C361F2
:1033C0004968C163046230BC704730B400220022F7
:1033D0000022026A32F480520262046A4568C369BC
:1033E00033F4E04333F440730A6853EA022334F4BD
:1033F00000548A6854EA02340C4A904202D00F4AC0
:10340000904201D1012200E00022D2B2002A04D071
:1034100035F480454A6955EA82154560C3614968BB
:103420000164046230BC70470000000000000140ED
:103430000004004000080040000C0040000401406F
:103440000040014000440140004801400018004095
:10345000001C00400020004010B400230023046A38
:10346000036A5B085B000362836933F0F00353EA8D
:10347000021334F00A0421438361016210BC7047D7
:1034800010B400230023036A33F01003036283693E
:10349000046A33F4704353EA023334F0A00454EA6C
:1034A00001148361046210BC70470022826832F00C
:1034B000700289B251F0070111438160704710B466
:1034C0000024846834F47F44114351EA03212143EA
:1034D000816010BC704770470EB4C0B5024603A8A7
:1034E00000210190009101AB0121044878440C3087
:1034F00004F010FC06BC5DF810FB00BFA5BB00008B
:1035000080B503F0F1FB03F030FD03F06FFD05F033
:10351000A5FB05F0B9FD03F0F0FA01BD00B585B0DB
:1035200090F83310C9070CD5001D06F05DFB0200B2
:1035300021A1684606F0AEFB69462048FFF7CCFFA4
:1035400002E01F48FFF7C8FF05B000BD10B588B006
:10355000040094F8330040071FD51A48FFF7BCFF5A
:10356000194802907FF07F400190184800906B4608
:1035700001AA02A9200003F079FD201D06F034FB0A
:1035800002000DA103A806F085FB03A90B48FFF775
:10359000A3FF200003F0CAFD05E0200003F0E7FDD3
:1035A0000748FFF799FF08B010BD80B5084803F041
:1035B000FAFF03F00CFB01BD2573000058F0000872
:1035C000C8EE0008F0EE0008C0A80065C0A8000121
:1035D000347D0020BFF34F8F29490A6812F4E0625E
:1035E000284802430A60BFF34F8F00BFFDE738B59C
:1035F000254D05F017FD2860286800281CD02348B9
:103600002349086040F2D2422249286805F0C0FCF4
:103610000400200040B200280ED11F48FFF75CFFD5
:1036200064B2002C08D11D48FFF756FF00220FF2AC
:103630007901286805F0F3FC1948FFF74DFF31BD0B
:1036400070B505000E0003222900C9B289B200201E
:1036500006F040FB0400002C11D0EDB22A0092B21B
:103660001049200006F0E5FD33009BB2084A210016
:103670000548006805F0E3FB200006F0C2FC70BDC1
:103680000CED00E00400FA0560800020C0A80013E3
:103690009C8000204CF3000834F300083CF3000841
:1036A000ECF20008907700202DE9F8432DED028B15
:1036B000140000216368002004E01A5CDFF8405B1E
:1036C0002A54401C0528F8D3DFF8345B2878FA2800
:1036D00040F04F87E87801432A7952EA0122D21D4F
:1036E000002002E0195C2954401C511E8842F9D385
:1036F0006089824240F02687A878012840F0D08275
:10370000687900280ED0102845D020287AD030289B
:1037100000F08F81402800F0C881502800F08A8294
:1037200000F03DBFA879012817D10020E8700220E1
:103730002871002068710120A8710020E871002123
:1037400007E0DFF8C02AEB79685C4340D05CE871A1
:10375000491C0729F5D3FF2028720920DFF8A81A91
:103760000860DFF8A80A0168091E322911D2DFF8C3
:10377000A01A0122DFF89C3A0D685A550A68521CBB
:10378000322392FBF3F503FB15220A600168491C02
:10379000016000F004BFA879112803D1E879DFF8AF
:1037A000781A0870287A122803D1687ADFF86C1A20
:1037B0000870A87A132807D1E87ADFF8641A08801D
:1037C000287BDFF8601A08800020E870022028714A
:1037D000102068710120A8710020E871002107E025
:1037E000DFF8202AEB79685C4340D05CE871491C23
:1037F0000729F5D3FF2028720920DFF80C1A08608A
:1038000000F0CDBE0020E8704820287120206871AB
:103810000120A8712120E871002028720020687220
:103820000020A8720020E87222202873DFF88C0D97
:10383000007868732320A873DFF8840D0078E8739C
:1038400024202874DFF87C0D818AA974B0F9141043
:1038500009126974DFF8701D8A8A2A75B1F914207B
:103860001212EA74DFF8642D938AAB75B2F9143042
:103870001B126B75DFF8583D9E8A2E76B3F91460E3
:103880003612EE7525266E76B0F90A60EE7636B2FF
:103890003612AE76B1F90A606E7736B236122E77EE
:1038A000B2F90A60EE7736B23612AE77B3F90A6033
:1038B00085F8216036B2361285F82060262685F814
:1038C0002260B0F90C6085F8246036B2361285F8B3
:1038D0002360B1F90C6085F8266036B2361285F89F
:1038E0002560B2F90C6085F8286036B2361285F88A
:1038F0002760B3F90C6085F82A6036B2361285F875
:103900002960272685F82B60C66985F82F60C6696F
:10391000360A85F82E60C669360C85F82D60C669B2
:10392000360E85F82C60CE6985F83360CE69360A8C
:1039300085F83260CE69360C85F83160CE69360E76
:1039400085F83060D66985F83760D669360A85F81B
:103950003660D669360C85F83560D669360E85F83E
:103960003460DE6985F83B60DE69360A85F83A60C6
:10397000DE69360C85F83960DE69360E85F8386008
:10398000282685F83C60866985F84060866936128D
:1039900085F83F608669361485F83E6080690016B8
:1039A00085F83D00886985F844008869001285F82B
:1039B00043008869001485F842008869001685F87C
:1039C0004100906985F848009069001285F8470029
:1039D0009069001485F846009069001685F8450046
:1039E000986985F84C009869001285F84B00986931
:1039F000001485F84A009869001685F84900FF20F0
:103A000085F84E00002085F84D00002109E0DFF820
:103A1000F42795F84D30685C4340D05C85F84D0044
:103A2000491C4D29F3D34F20DFF8DC17086000F064
:103A3000B6BDA879012836D10920DFF8CC17086077
:103A40000120A8710020E870022028710020E87190
:103A5000FF202872002107E0DFF8A827EB79685CD7
:103A60004340D05CE871491C0729F5D3DFF89C0777
:103A70000168091E322911D2DFF894170222DFF8FB
:103A800094370D685A550A68521C322392FBF3F59D
:103A900003FB15220A600168491C0160012080F3C4
:103AA0001388FFF797FD00F07ABDA879412806D169
:103AB000E879297A51EA0021DFF8180B0180687A49
:103AC000422806D1A87AE97A51EA0021DFF8080BEA
:103AD0000180DFF8006BB6F90000012803DA00204E
:103AE000DFF8F81A0870A87B44280FD1E87B01287A
:103AF00008D10120DFF8E81A08700020DFF8DC1A8E
:103B0000087003E00020DFF8D81A0870DFF8C88AD0
:103B1000B8F90010B6F9000006F000FCBDEEC00ACE
:103B200010EE100ADFF8BC1A0880DFF8BC7AB8F98A
:103B30000010B6F9000006F0C1FBBDEEC00A10EEA1
:103B4000100A3880DFF8980A0078012803D1B7F905
:103B5000000040423880DFF8940A31880171B6F9DC
:103B6000001009124171DFF8A4060168091E32290C
:103B700011D2DFF89C160322DFF898360E689A55AA
:103B80000A68521C322392FBF3F603FB16220A60EA
:103B90000168491C0160297B43292DD1697B0129DA
:103BA00026D10168091E322911D2DFF864160222DB
:103BB000DFF860360E689A550A68521C322392FB71
:103BC000F3F603FB16220A600168491C0160DFF866
:103BD000200A0021017100214171DFF8180A00213B
:103BE0000171002141710120DFF8D019087003E054
:103BF0000020DFF8C81908700020E8700220287142
:103C0000402068710120A8710020E871002107E0C0
:103C1000DFF8F025EB79685C4340D05CE871491C23
:103C20000729F5D3FF2028720920DFF8DC1508608A
:103C300000F0B5BCDFF8D4050168091E322911D2A5
:103C4000DFF8CC150422DFF8CC350E689A550A68E7
:103C5000521C322392FBF3F603FB16220A60016822
:103C6000491C0160502068710120A8710020E87093
:103C7000022028710020E871002107E0DFF8842588
:103C8000EB79685C4340D05CE871491C0729F5D3A7
:103C9000FF2028720920DFF87015086000F07FBC53
:103CA000A878022840F01D81687900280ED01028DD
:103CB0002DD0202854D0302800F0BD80502800F0AE
:103CC000D780602800F0F08000F069BCA879012856
:103CD00017D10020E87002202871002068710120AF
:103CE000A8710020E871002107E0DFF81825EB79C2
:103CF000685C4340D05CE871491C0729F5D3FF207C
:103D000028720920DFF80015086000F048BCA87987
:103D1000112807D1287A122804D1A87A132801D1B2
:103D2000287B14280020E870022028711020687178
:103D30000120A8710020E871002107E0DFF8C42409
:103D4000EB79685C4340D05CE871491C0729F5D3E6
:103D5000FF2028720920DFF8B014086000F01FBCB3
:103D60000020E8701E202871202068710120A871B1
:103D70002220E871DFF88008018889B2090A2972D7
:103D8000018869722421A9720021E9720021297336
:103D900025216973DFF864184288283A0A800A8866
:103DA00092B2120AAA730988E97326212974402164
:103DB00069742721A9740021E97400212975002163
:103DC00069750021A9750021E97500212976002176
:103DD00069760021A9762821E97681882977292129
:103DE0006977C18889B2090AA977C188E9772A2148
:103DF00085F82010018989B2090A85F82110008907
:103E000085F82200002085F82300002109E0DFF872
:103E1000F42395F82330685C4340D05C85F8230098
:103E2000491C2329F3D3FF2085F824002520DFF83F
:103E3000D8130860B3E30020E87002202871302016
:103E400068710120A8710020E871002107E0DFF807
:103E5000B423EB79685C4340D05CE871491C0729C6
:103E6000F5D3FF2028720920DFF89C13086096E341
:103E70000020E87002202871502068710120A8718C
:103E80000020E871002107E0DFF87823EB79685C17
:103E90004340D05CE871491C0729F5D3FF20287204
:103EA0000920D94908607AE30020E870852028714C
:103EB00060206871002085F88A00002108E0D14A5E
:103EC00095F88A30685C4340D05C85F88A00491CCC
:103ED0008A29F4D3FF2085F88B008B20CA4908601B
:103EE0005DE3A878032840F01683687900280DD098
:103EF00010283ED020285DD0302800F04B8140288B
:103F000000F09281502800F0D68248E3A879012879
:103F100016D10020E870022028710020687101206D
:103F2000A8710020E871002106E0B64AEB79685CD0
:103F30004340D05CE871491C0729F6D3FF20287262
:103F40000920B1490860B1480168091E32290FD221
:103F5000AF491122AF4B0D685A550A68521C3223E3
:103F600092FBF3F503FB15220A600168491C01600E
:103F700015E3A879112802D1E879A7490870002033
:103F8000E87002202871102068710120A8710020BB
:103F9000E871002106E09B4AEB79685C4340D05C05
:103FA000E871491C0729F6D3FF2028720920964999
:103FB0000860F4E2202068710120A8712120E871D6
:103FC000DFF8F8050078287222206872DFF83006E2
:103FD0000078A8722320E872DFF8280681896973C7
:103FE000DFF8241682890A80B1F9002012122A73A0
:103FF000DFF818269389EB7393890B80B1F90030B1
:104000001B12AB73DFF808369E896E749E890E8092
:10401000B1F9006036122E74DFF8F865B789EF74D5
:10402000B7890F80B1F900100912A97424212975EC
:10403000C1692976C169090AE975C169090CA975BF
:10404000C069000E6875D0692877D069000AE876E3
:10405000D069000CA876D069000E6876D86985F81A
:104060002000D869000AE877D869000CA877D869D9
:10407000000E6877F06985F82400F069000A85F879
:104080002300F069000C85F82200F069000E85F825
:104090002100252085F82500DFF87C05007885F8CB
:1040A0002600262085F82700DFF87005016809162C
:1040B00085F828100168091485F82910016809128B
:1040C00085F82A10006885F82B00DFF85405016890
:1040D000091685F82C100168091485F82D1001685F
:1040E000091285F82E10006885F82F00DFF83405D6
:1040F0000168091685F830100168091485F8311037
:104100000168091285F83210006885F83300DFF87D
:1041100018050168091685F834100168091485F836
:1041200035100168091285F83610006885F83700E7
:10413000272085F83800012085F83900282085F8E7
:104140003A00002085F83B00002085F83C00002064
:10415000E8703A202871292085F83D00DFF8CC046A
:10416000007885F83E00002085F83F00FF2085F8A4
:104170004000002108E0234A95F83F30685C434046
:10418000D05C85F83F00491C3F29F4D341201E49EB
:10419000086004E2A879012831D109201A49086091
:1041A0000120A8710020E870022028710020E87129
:1041B000FF202872002106E0124AEB79685C434038
:1041C000D05CE871491C0729F6D310480168091E24
:1041D00032290FD20E4912220E4B0D685A550A6829
:1041E000521C322392FBF3F503FB15220A6001688F
:1041F000491C0160012080F31388FFF7EBF9CEE141
:1042000090770020AC00002098800020B87F00202C
:10421000B07F00206C7D0020F1800020F280002023
:10422000BA800020BC800020A879412861D1E879BB
:1042300001285ED1DFF8F8030078002859D1DFF8B3
:10424000F403E97901600068012852D10020DFF809
:10425000E81308700020DFF8E41308700020DFF88E
:10426000E01308700020DFF8DC1308700020DFF88E
:10427000D81308700020DFF8D41308700020DFF88E
:10428000D01308700020DFF8CC1308700020DFF88E
:10429000C81308700020DFF8C41308700020DFF88E
:1042A000C01308700020DFF8BC1308700020DFF88E
:1042B000B81308700020DFF8B41308700020DFF88E
:1042C000B01308700020DFF8AC1308700020DFF88E
:1042D000A81308700020DFF8A41308700020DFF88E
:1042E000A01308700020DFF89C1308700020CF494D
:1042F0000870287A422803D1687ADFF88C13087096
:10430000A87A432840F09A800120DFF880130870D3
:10431000DFF87C03E97A2A7B52EA0122697B51EAC1
:104320000221AA7B52EA01220260DFF86883E97B5E
:104330002A7C52EA0122697C51EA0221AA7C52EAD3
:104340000122C8F80020DFF85093E97C2A7D52EA68
:104350000122697D51EA0221AA7D52EA0122C9F8AF
:104360000020CE4EE97D2A7E52EA0122697E51EA82
:104370000221AA7E52EA01223260C94F9FEDD38BFF
:10438000006803F0E1F953EC182B03F0EFF9002279
:10439000C44B03F0BDFA03F0DFFB3860D8F800002F
:1043A00003F0D2F953EC182B03F0E0F90022BD4BD7
:1043B00003F0AEFA03F0D0FBBB490860D9F8000067
:1043C00003F0C2F953EC182B03F0D0F90022B54BDF
:1043D00003F09EFA03F0C0FBB4490860306803F0B4
:1043E000B3F953EC182B03F0C1F90022AD4B03F0E5
:1043F0008FFA03F0B1FBAE490860AE48396801712D
:1044000039680912417139680914817139680916CE
:10441000C171A9480168091E32290FD2A749132288
:10442000A74B0E689A550A68521C322392FBF3F68A
:1044300003FB16220A600168491C0160E87E4428DB
:104440001ED1287F012818D19B480168091E3229F6
:104450000FD29A4912229A4B0E689A550A68521C3A
:10446000322392FBF3F603FB16220A600168491C13
:10447000016001205149087002E000204F49087096
:10448000402068710120A8710020E8700220287186
:104490000020E871002106E08A4AEB79685C43401D
:1044A000D05CE871491C0729F6D3FF202872092047
:1044B0008549086073E080480168091E32290FD2DF
:1044C0007E4914227E4B0E689A550A68521C32238C
:1044D00092FBF3F603FB16220A600168491C016097
:1044E000502068710120A8710020E8700220287116
:1044F0000020E871002106E0724AEB79685C4340D5
:10450000D05CE871491C0729F6D3FF2028720920E6
:104510006D49086043E009206B4908600020A871DC
:104520000020E87002202871002106E0654AEB793E
:10453000685C4340D05CE871491C0729F6D3FF2032
:1045400028722CE00920604908600020A871002032
:10455000E87002202871002106E05A4AEB79685C75
:104560004340D05CE871491C0729F6D3FF2028722C
:1045700015E00920544908600020A8710020E87067
:1045800002202871002106E04E4AEB79685C434026
:10459000D05CE871491C0729F6D3FF2028720A99DC
:1045A00089B249480068C0B2FFF74AF8200005F018
:1045B00028FDBDEC028BBDE8F18300BFD480002054
:1045C000D6800020F87D00201C7E0020407E002048
:1045D000647E0020C4800020C6800020D780002098
:1045E000D8800020C0800020C28000202C00002045
:1045F0009C000020A40000206C7F0020C8800020C8
:10460000D5800020887E0020BE800020AC7E002067
:10461000D07E0020F47E0020D98000206880002019
:104620006C80002070800020748000207E020020BA
:10463000EE80002064800020E6800020DA800020E8
:10464000DE800020EA800020E2800020E780002059
:10465000DB800020DF800020EB800020E380002052
:10466000E8800020DC800020E0800020EC8000203A
:10467000E4800020E9800020DD800020E18000202F
:10468000ED800020E5800020F0800020EF800020F9
:10469000888000208C800020908000209480002062
:1046A0007880002000807640808000207C80002080
:1046B0008480002044000020B87F0020B07F0020CC
:1046C0006C7D0020AC0000209880002000000000DD
:1046D0000070B7402DE9FC4104000020002000904C
:1046E000DFF8B06C300000200025002C01D1012043
:1046F00013E194F84400002805D1002084F8450017
:10470000200002F04FFD00200190DFF88C0C0168C2
:1047100051F480410160006810F4804001900198DC
:10472000DFF8781C086830F4000008600A68206A26
:1047300002430A604FF480572068C05950F00100CE
:104740002168C85103F090FA80462068C059C0071C
:104750000FD503F089FAB0EB080040F2F51188425A
:10476000F3D3032084F84400002084F8450003209C
:10477000D3E02068076937F01C07FEF700F8DFF880
:10478000201C411ADFF81C2C914202D257F0080776
:104790001AE0DFF8141C411ADFF8102C914202D203
:1047A00057F00C0710E0861BDFF8041C8E420BD379
:1047B000DFF8001C401ADFF8001C884202D257F0D4
:1047C000040701E057F01007206807614FF400422A
:1047D0000021200000F0D8FA002808D00121200094
:1047E00000F0F5FB012084F84400012095E0FF2053
:1047F00002F02AFA606800286DD003F035FA07004D
:104800006A460121200000F07DFA41F2893603F06A
:104810002BFAC01BB04213D200984007F0D54FF4DA
:1048200080520021200000F0AFFA002814D00121AE
:10483000200000F0CCFB012084F8440001206CE053
:104840000121200000F0C3FB012084F84400002077
:1048500084F84500032060E003F006FA07006A468A
:104860000121200000F04EFA03F0FEF9C01BB04217
:1048700012D200988006F2D56A461021200000F07E
:1048800041FA002814D00121200000F0A0FB0120F3
:1048900084F84400012040E00121200000F097FB53
:1048A000012084F84400002084F84500032034E00F
:1048B0000098400703D54FF40060E06001E000205D
:1048C000E0600098800702D50020A0601DE04FF452
:1048D0008040A06019E0E268D20892B2A068400867
:1048E00080B202430021200000F04EFA002808D0D8
:1048F0000121200000F06BFB012084F8440001201E
:104900000BE040F6FF7002F09FF92900200000F054
:104910005EFB012084F844000020BDE8F68170B4FD
:104920000400002094F94500012801D1022032E062
:10493000012084F84500022084F84400E16200254B
:104940001CE0F16019E0680101EB00065FF48010E3
:10495000306040F2F45000FB05F01044B060E069B4
:10496000002803D1306850F440003060581E854262
:10497000E7D2680108442030F0606D1C9D42E2D30C
:10498000206841F210028150012084F84400002088
:1049900084F84500002070BC704770B4002490F982
:1049A0004540012C01D1022034E0012480F845402B
:1049B000022480F84440816200241EE0E9601BE08C
:1049C00065010D445FF000462E6044F2F4566E60BF
:1049D00040F2F45606FB04F61644AE608669012EDA
:1049E00003D16E6826F000466E605E1EB442E5D2CA
:1049F00066010E442036EE60641C9C42E0D30268DF
:104A000041F20C03D150012180F84410002180F8BC
:104A10004510002070BC704770B4020000200020D8
:104A2000002092F94500012801D1022089E00120EF
:104A300082F84500022082F84400002907D10120B5
:104A400082F84400002082F84500012079E0D06A15
:104A50000068002807D5122082F84400002082F860
:104A6000450001206DE040F2F55081420DD340F247
:104A7000F450B1FBF0F340F2F450B1FBF0F400FB62
:104A80001410002802D05B1C00E00123012B13D17D
:104A9000D06A006850F04050D36A1860C904C90C4D
:104AA000D06A4160D06A006850F00040D16A086066
:104AB000D06AC068D0622FE000202BE0D46A24685E
:104AC00034F04054D56A2C60002805D1D46A24689B
:104AD00054F08054D56A2C6040F2F455D46A656075
:104AE0005C1EA0420CD1D46A246854F00054D66AEB
:104AF00034605C1E05FB1414E404E40CD56A6C609D
:104B0000D46A246854F00044D56A2C60D46AE468FE
:104B1000D462401C9842D1D341F214001168095864
:104B2000490707D50421136819500020116841F284
:104B30000403C850012082F84400002082F8450098
:104B4000002070BC7047002190F94510012901D167
:104B5000022046E0012180F84510022180F844102F
:104B6000816A0968002935D4816A0968C9051DD59B
:104B7000816B491C8163816B012901D1816A0163C9
:104B8000816A4163816A0968C1F30D41091FC163EC
:104B9000016B89680164816AC9688162012180F8BA
:104BA0004410002180F8451000201AE0816A09684D
:104BB000890509D5816A016300214163012181636F
:104BC000816AC968816205E0816B491C8163816AE1
:104BD000C9688162012180F84410002180F84510E5
:104BE00001207047002190F94520012A01D10220BF
:104BF0004CE0012280F84520022280F8442006E0A3
:104C0000826A026301228263826AD2688262826A55
:104C10001268002A33D4042931D2491C826A1268EE
:104C200012F44072B2F5007FEAD0826A126812F480
:104C3000407F06D1826B521C8263826AD268826294
:104C4000E5E7816A4163816B491C8163816B0129BE
:104C500001D1816A0163816A0968C1F30D41091FAD
:104C6000C163016B89680164816AC968816201213D
:104C700080F84410002180F84510002006E0012152
:104C800080F84410002180F845100120704738B5A5
:104C9000040041F214052068405940060CD520005C
:104CA000FCF724FB402021684851012084F844008F
:104CB000002084F845000FE020684059C0070BD55C
:104CC000200005F065FB012021684851012084F88F
:104CD0004400002084F845005FF48030216848518A
:104CE0002068405900040CD5200005F052FB4FF419
:104CF000004021684851012084F84400002084F8D5
:104D0000450031BDF8B504000E001500002000205C
:104D100094F84400822801D1022034E0822084F8F3
:104D200044002068006910F01C00218AC90211F4B7
:104D300078410843B6B2B60116F4F866064336F079
:104D4000020656F001062068066102F08DFF07009A
:104D500001E020680669F0070DD502F085FFC01B51
:104D6000B0F5803FF5D3012084F84400002084F89A
:104D70004500032007E02068406980B228600120D8
:104D800084F844000020F2BD70B504000D0000203E
:104D9000002094F84400422801D1022033E0422050
:104DA00084F844002068006910F01C00218AC902C0
:104DB00011F478410843ADB2AD0115F4F86505432F
:104DC00055F0020555F0010592B220684261206855
:104DD000056102F049FF060001E020680569E80767
:104DE0000DD502F041FF801BB0F5803FF5D30120C7
:104DF00084F84400002084F84500032003E00120EB
:104E000084F84400002070BD10B5040094F94500FA
:104E1000012801D102201BE0012084F84500022076
:104E200084F84400200000F018FA200000F03DFA59
:104E3000200000F086FA200000F05FFA200000F069
:104E40006EFA012084F84400002084F84500002018
:104E500010BD10B5040094F94500012801D10220CD
:104E60001BE0012084F84500022084F84400200063
:104E700000F04CFA200000F05BFA200000F029FA64
:104E8000200000F05EFA200000F0FBF9012084F819
:104E90004400002084F84500002010BD70B50500D6
:104EA0000C00002095F94500012801D102208DE079
:104EB000012085F84500022085F84400002C6DD0C3
:104EC00028680168DFF8F404014022686068024342
:104ED000A0680243E0680243A868024320690243D5
:104EE00060690243E8680243A0690243E069024343
:104EF000206A0243606A0243A06A024311432868A1
:104F0000016028680668012001F09EFE286806609E
:104F1000E16A206B0143606B0143A06B0143E06BCE
:104F20000143206C0143606C0143A06C014328687D
:104F3000416028684668012001F086FE28684660C6
:104F4000E06C29688860206D2968C86028688169DC
:104F50004FF641700140606DA26D52EA0042E06D73
:104F60000243206E0243606E0243A06E024311436F
:104F70002868816128688669012001F065FE28683B
:104F80008661E16E206F01432868C1612868C469A9
:104F9000012001F059FE2868C46110E0286801680A
:104FA00031F49041AA68E86802431143286801601F
:104FB00028680468012001F047FE28680460012089
:104FC00085F84400002085F84500002070BD78B5C4
:104FD000ADB004000020002905D04FF40060E0606F
:104FE0004FF48040A060002010900020119000201D
:104FF0001290002013900020149000201590E0697A
:10500000002803D14FF48060169001E00020169034
:105010004FF4007017900020189000201990002085
:105020001A9000201B9000201C9040201D90002012
:105030001E9000201F900020209000202190002032
:105040002290002023900020249000202590802092
:1050500026900020279000202890002029900020F2
:105060002A9000202B9000202C9020680168D348C3
:105070000140109A11980243129802431398024378
:10508000A06802431498024315980243E068024363
:10509000169802431798024318980243199802433E
:1050A0001A980243114320680160206805680120B6
:1050B00001F0CAFD206805601B991C9801431D98EA
:1050C00001431E9801431F980143209801432198F2
:1050D000014322980143206841602068456801200F
:1050E00001F0B2FD2068456023982168886024980B
:1050F0002168C860206881694FF641700140259899
:10510000269A52EA00422798024328980243299897
:1051100002432A980243114320688161206885690F
:10512000012001F091FD206885612B992C980143A5
:105130002068C1612068C569012001F085FD2068F3
:10514000C561002000905FF0007001900021029185
:105150005FF40011039100210491002105910021C9
:105160000691002107910421089109905FF4803095
:105170000A905FF480000B904FF400500C90802058
:105180000D9000200E9000200F9041F2180520682D
:1051900041598B480140009A01980243029802430A
:1051A0000398024304980243059802430698024379
:1051B0000798024308980243114320684151206830
:1051C0004659012001F040FD206846514FF48055BA
:1051D00009990A9801430B9801430C9801430D98D3
:1051E00001430E9851EA80010F98014351F40001E8
:1051F0002068415120684659012001F025FD2068B2
:105200004651A06901280CD141F21C0021680958BF
:1052100041F4803151F04001226811506948FEF795
:105220005BF962690021200000F002F82EB070BD29
:105230005379107950EA0320634B5B181860D078DB
:1052400093781B0453EA0063507853EA00231078E4
:1052500003435E4841180B6070471CB504000020F2
:1052600000902068006850F00800216808602068FD
:1052700000680090012000F07AF80098216808602A
:1052800013BD1CB50400002000902068006830F0B9
:10529000080021680860206800680090012000F084
:1052A00066F800982168086013BD1CB50400002052
:1052B00000902068006850F00400216808602068B1
:1052C00000680090012000F052F800982168086002
:1052D00013BD1CB50400002000902068006830F069
:1052E000040021680860206800680090012000F038
:1052F0003EF800982168086013BD41F21801026869
:10530000525852F4005200684250704741F218015E
:105310000268525832F4005200684250704741F21D
:1053200018010268525852F0020200684250704759
:1053300041F218010268525832F0020200684250ED
:10534000704738B504000020009041F2180520682D
:10535000405950F48010216848512068405900900D
:10536000012000F004F800982168485131BD81B057
:1053700017490968C9084FF47A72B1FBF2F1484342
:10538000009000BF0098411E00910028F9D101B0A3
:1053900070470000008793034438024004380140FE
:1053A000002D3101C0E1E400C00E160240787D01FD
:1053B000005A620200E1F50580F0FA020F8120FF39
:1053C000233FDEF828F1000840800240448002407C
:1053D0000400002010B58AB0524C53482060534856
:1053E000206353486063022060600020A0600020BA
:1053F000E0605FF4602020615FF480006061002065
:10540000A0610120E0610120206200206062002094
:10541000A0620020E062200000F094F800200590D7
:1054200000200690012007900020009000200190AD
:10543000002002900020039000200490012008909A
:105440000E2009906946200000F04FF90AB010BD07
:1054500010B586B000683449884242D100200090DF
:105460003448016851F000710160006810F000706C
:1054700000900098002000902F48016851F480713E
:105480000160016811F48071009100990021009180
:10549000016851F002010160006810F00200009004
:1054A00000984FF4007401940220029000200390B1
:1054B0000920059001A9214800F0E6FD0194022091
:1054C0000290022004900920059001A91C4800F0D8
:1054D000DBFD002200211420FDF737FA1420FDF730
:1054E00045FA06B010BD10B50E4A136B18600020C7
:1054F000136B98600020136BD8600820136B186141
:10550000002005E00B78146B04442375491C401CF3
:10551000136B1B699842F5D30321100000F068F962
:1055200010BD0000BC7B002000640040187F0020FC
:10553000D47D002040380240303802400004024050
:105540000020024070B5040000250020002C01D18D
:105550000120C9E094F93C00002805D1002084F81E
:105560003D002000FFF774FF022084F83C00206813
:10557000006830F00200216808602068006850F080
:1055800001002168086002F06FFB06002068406897
:10559000C0070CD402F068FB801B0B28F6D3032055
:1055A00084F83C00002084F83D0003209CE0206843
:1055B0004068C00740F18B80A069012806D12068AF
:1055C000006850F080002168086005E020680068ED
:1055D00030F0800021680860E069012806D1206869
:1055E000006850F040002168086005E0206800680D
:1055F00030F0400021680860206A012806D1206848
:10560000006850F020002168086005E0206800680C
:1056100030F0200021680860606A012806D1206807
:10562000006850F010002168086005E020680068FC
:1056300030F0100021680860A06A012806D12068B7
:10564000006850F008002168086005E020680068E4
:1056500030F0080021680860E06A012806D120685F
:10566000006850F004002168086005E020680068C8
:1056700030F0040021680860A168E06801432069F7
:105680000143606901436068401E01432068C161B5
:1056900020680068400840002168086002F0E4FAD1
:1056A000060020684068C0070CD502F0DDFA801BB8
:1056B0000B28F6D3032084F83C00002084F83D003A
:1056C000032011E020684068C00700D40125012DA7
:1056D00006D100202064012084F83C00002003E073
:1056E000042084F83C00012070BD30B4002001206B
:1056F0004A6910FA02F2DFF86433D3F8000250F07E
:105700000100C3F80002D3F8000230F47C50C3F863
:105710000002D3F800024C6A50EA0420C3F80002E9
:10572000D3F81C029043C3F81C02C869002816D1A4
:10573000D3F80C029043C3F80C02486903EBC00095
:10574000CC684D68C5EA0444C0F84042486903EBA0
:10575000C0008C680D68C5EA0444C0F84442C869BA
:10576000012816D1D3F80C021043C3F80C02486983
:1057700003EBC0000C684D68C5EA0444C0F8404221
:10578000486903EBC0008C68CD68C5EA0444C0F8E2
:1057900044428869002805D1D3F804029043C3F835
:1057A000040204E0D3F804021043C3F804020869B9
:1057B000002804D1D3F814029043C3F814020869F6
:1057C000012804D1D3F814021043C3F81402086A64
:1057D000012804D1D3F81C020243C3F81C22D3F8D9
:1057E000000240084000C3F80002002030BC7047AF
:1057F000F8B506000D0004200020306880684001E4
:1058000008D430688068000104D430688068C00023
:1058100040F11E8196F93D00012801D102201BE1D3
:10582000012086F83D0096F93C00222804D0322859
:1058300006D0622808D00BE0422086F83C000AE03F
:10584000522086F83C0006E0722086F83C0002E018
:10585000122086F83C0030688068400101D50024A1
:1058600006E030688068000101D5012400E00224D0
:10587000306821010844D0F8800110F0010031683F
:1058800022011144C1F88001306B8068002811D1D9
:10589000306821010844D0F88001316B0968326B0F
:1058A000D26852EA41521043316822011144C1F8D2
:1058B000800113E0306821010844D0F88011306B7A
:1058C0004068326B926852EAC002306BC068024393
:1058D0001143306822011044C0F88011306B007C05
:1058E00010F00F00316B0861306821010844D0F8D6
:1058F000840100090001316822011144C1F88401CA
:10590000306821010844D0F88411306B00690143EC
:10591000306822011044C0F88411306BC07D316BB7
:10592000897D090451EA0061306B407D51EA002114
:10593000306B007D0143306822011044C0F88811AB
:10594000306BC07E316B897E090451EA0061306B97
:10595000407E51EA0021306B007E01433068220115
:105960001044C0F88C11306821010844D0F880013F
:1059700050F00100316822011144C1F8800102F0A9
:1059800073F90700002C0AD1DFF87C0431688968BC
:105990000140814201D1012018E0002016E0012CD5
:1059A0000AD1DFF86804316889680140814201D179
:1059B00001200BE0002009E0DFF854043168896819
:1059C0000140814201D1012000E00020002822D1C5
:1059D00015F1010FD6D0002D04D002F045F9C01BFF
:1059E0008542CFD2032086F83C00002C03D18020D2
:1059F000316888600AE0012C04D14FF4004031681E
:105A0000886003E05FF4000031688860002086F859
:105A10003D00032020E096F93C00422804D05228A3
:105A200006D0722808D00BE0222086F83C000AE05D
:105A3000322086F83C0006E0622086F83C0002E056
:105A4000012086F83C00002086F83D00002003E09D
:105A5000042086F83C000120F2BD000000640040F4
:105A60000A00D2B2002A11D190F93C20222A0BD090
:105A700090F93C20422A07D090F93C20622A03D0BA
:105A800090F93C20722A01D1022071E00A00D2B2C2
:105A9000012A11D190F93C20322A0BD090F93C20F8
:105AA000522A07D090F93C20622A03D090F93C207A
:105AB000722A01D102205BE090F93D20012A01D138
:105AC000022055E0012280F83D200A00D2B2002ACF
:105AD00018D190F93C20122A04D0322A06D0522A3A
