:020000040800F2
:10000000F88400205DF2000861ED000863ED00084F
:1000100065ED000867ED000869ED000800000000CC
:100020000000000000000000000000006BED000870
:100030006DED0008000000006FED000871ED000894
:1000400095F3000899F300089DF30008A1F3000858
:10005000A5F300087DED0008D5ED0008DFED0008F0
:10006000E9ED0008F3ED0008FDED0008A9F3000834
:10007000ADF30008B1F30008B5F30008B9F30008C8
:10008000BDF30008C1F30008C5F30008C9F3000878
:100090007FED0008CDF30008D1F30008D5F3000888
:1000A000D9F30008DDF30008E1F30008E5F30008E8
:1000B0009DED000893ED0008E9F30008EDF300085A
:1000C000F1F30008F5F30008F9F30008FDF3000868
:1000D00001F4000805F4000809F40008B1ED000877
:1000E0000DF4000811F4000815F4000819F40008D4
:1000F0001DF4000821F4000825F4000829F4000884
:100100002DF4000831F40008A7ED000835F40008CC
:1001100039F400083DF4000841F4000845F40008F3
:1001200049F400084DF4000851F4000855F40008A3
:1001300059F4000889ED00085DF4000861F4000836
:1001400065F4000869F400086DF4000871F4000813
:1001500075F4000879F400087DF4000881F40008C3
:1001600085F4000889F400088DF4000891F4000873
:1001700095F4000899F400089DF4000800000000C0
:10018000A1F40008A5F4000880B592B0002000900A
:10019000DFF83807016851F080510160006810F005
:1001A00080500090009800200090DFF8240701683C
:1001B00051F480410160006810F480400090009884
:1001C000012006905FF48030079002200C905FF4CD
:1001D00080000D9008200E904FF4A8700F90022020
:1001E00010900720119006A802F06AF80F200190E5
:1001F00002200290002003904FF4A05004904FF48E
:1002000080500590052101A802F014FA02F0D3FAFB
:1002100002F0D5FA6421B0FBF1F002F0CCFB04202F
:1002200002F0CDFB002200215FF0FF3002F0ADFBB9
:1002300013B000BD38B502F023FCFFF7A5FF02F0B4
:1002400039FC02F013FD02F09DFDDFF8880601681D
:10025000C96851F002010268D1600168C96851F0B3
:1002600001010268D16002F0F9FDDFF86C0603F0CD
:1002700053F903F065F900F0D6FADFF8600603F0F1
:100280006DF9DFF85C0603F047F903F0D0F9DFF809
:10029000540604F0C7FC05F0BDF8DFF84C46002119
:1002A000200005F0FDFB0020DFF84016088001F07B
:1002B0001BF8DFF83C0602F0DFFD01F04DF8DFF837
:1002C000340602F0D9FD9FED1B0A002001224FF4F5
:1002D0007041DFF8240605F0E5FF0021200005F05D
:1002E000DFFB06F0B6F8DFF814060068002801D03E
:1002F00001F07EFBDFF808562868401E322801D244
:1003000000F01AF801F002FE2868401E322801D2DF
:1003100000F012F803F069F9DFF8E805006800283A
:1003200001D001F091F92868401E3228D5D200F0A2
:1003300003F8D2E7000000002DE9F04757E0DFF8AE
:10034000C80503F0E9F847E040F20567DFF8BC654F
:100350003100380005F0E7F8012006F0B7F840F268
:1003600006683100404605F0DEF8012006F0AEF8E0
:1003700040F207693100484605F0D5F8012006F043
:10038000A5F831004FF4C16005F0CDF8012006F06A
:100390009DF8DFF87C653100380005F0C4F80120D5
:1003A00006F094F83100404605F0BDF8012006F053
:1003B0008DF83100484605F0B6F8012006F086F8C1
:1003C00031004FF4C16005F0AEF8012006F07EF870
:1003D000DFF8400503F0A0F82868401C322190FBAC
:1003E000F1F201FB120028602068401E2060DFF857
:1003F00010452068002800F014822168DFF81805F5
:1004000003F08AF8DFF81455DFF814052968405C1A
:10041000012813D002285AD0032800F0A180042814
:1004200000F0C480112800F00781122800F06981D3
:10043000132800F0AD81142886D080E740F20166D1
:10044000DFF8CC743900300005F06DF8012006F0BB
:100450003DF840F202683900404605F064F801209A
:1004600006F034F840F203693900484605F05BF8BD
:10047000012006F02BF840F2046A3900504605F0DE
:1004800052F8012006F022F8DFF8987439003000A5
:1004900005F049F8012006F019F83900404605F04A
:1004A00042F8012006F012F83900484605F03BF802
:1004B000012006F00BF83900504605F034F8012011
:1004C00006F004F8DFF8600403F026F884E740F251
:1004D0000166DFF858743900300005F024F8012077
:1004E00005F0F4FF40F202683900404605F01BF8C1
:1004F000012005F0EBFF40F203693900484605F0A2
:1005000012F8012005F0E2FF40F2046A390050467B
:1005100005F009F8012005F0D9FFDFF8F473390080
:10052000300005F000F8012005F0D0FF390040460A
:1005300004F0F9FF012005F0C9FF3900484604F036
:10054000F2FF012005F0C2FF3900504604F0EBFF36
:10055000012005F0BBFFDFF8D80302F0DDFF3BE729
:10056000DFF8D063310040F2016004F0DCFF0120CD
:1005700005F0ACFF310040F2026004F0D4FF01202E
:1005800005F0A4FF310040F2036004F0CCFF01202D
:1005900005F09CFF310040F2046004F0C4FF01202C
:1005A00005F094FFE44802F0B7FF15E740F201665A
:1005B000D64F3900300004F0B6FF012005F086FF69
:1005C00040F202683900404604F0ADFF012005F01A
:1005D0007DFF40F203693900484604F0A4FF012082
:1005E00005F074FF40F2046A3900504604F09BFFA6
:1005F000012005F06BFFC64F3900300004F093FF77
:10060000012005F063FF3900404604F08CFF012013
:1006100005F05CFF3900484604F085FF012005F035
:1006200055FF3900504604F07EFF012005F04EFFD3
:10063000C24802F071FFCFE6B54E40F205673100C7
:10064000380004F070FF012005F040FF40F206681A
:100650003100404604F067FF012005F037FF40F20B
:1006600007693100484604F05EFF012005F02EFFC7
:1006700031004FF4C16004F056FF012005F026FF61
:10068000A84E3100380004F04EFF012005F01EFF97
:100690003100404604F047FF012005F017FF31000C
:1006A000484604F040FF012005F010FF31004FF4F0
:1006B000C16004F038FF012005F008FFA04E3100B2
:1006C000380004F030FF012005F000FF3100404603
:1006D00004F029FF012005F0F9FE3100484604F03E
:1006E00022FF012005F0F2FE31004FF4C16004F05A
:1006F0001AFF012005F0EAFEDFF8E80B02F00CFF1C
:100700006AE68A4E40F205673100380004F00BFFBC
:10071000012005F0DBFE40F206683100404604F09F
:1007200002FF012005F0D2FE40F207693100484681
:1007300004F0F9FE012005F0C9FE31004FF4C1605C
:1007400004F0F1FE012005F0C1FE714E31003800C9
:1007500004F0E9FE012005F0B9FE3100404604F046
:10076000E2FE012005F0B2FE3100484604F0DBFE57
:10077000012005F0ABFE31004FF4C16004F0D3FE60
:10078000012005F0A3FEDFF8C40B02F0C5FE23E64E
:10079000DFF8BC7B40F205663900300004F0C3FE90
:1007A000012005F093FEDFF8AC8B4146300004F0E9
:1007B000BAFE012005F08AFE40F2066639003000DC
:1007C00004F0B1FE012005F081FE4146300004F046
:1007D000AAFE012005F07AFE40F2076639003000DB
:1007E00004F0A1FE012005F071FE4146300004F046
:1007F0009AFE012005F06AFE39004FF4C16004F052
:1008000092FE012005F062FE41464FF4C16004F003
:100810008AFE012005F05AFEDFF89C0B02F07CFEF8
:10082000DAE5BDE8F08710B586B005F09FFE05F06B
:10083000DEFFDFF8880B05907FF07F400490DFF843
:10084000800B0390652000900023A822C021DFF8D0
:10085000740B02F061FE00200090FF23FF22FF21B5
:10086000DFF8640B02F058FE012000900023A8225C
:10087000C021DFF8580B02F04FFE184CDFF8500B88
:100880000290DFF8500B01900020009003AB04AA07
:1008900005A9200005F0EDFF200006F07DF894F892
:1008A0003300400707D5DFF8300B02F035FE20009B
:1008B00006F07EF802E0200006F09BF8DFF81C1B33
:1008C000200006F0A8F806B010BD00004038024035
:1008D00000700040807C002060F00008347D002023
:1008E00004F10008747B0020BC7B0020AA8000205B
:1008F000F87C0020BC7C00200014024064800020B2
:10090000B87F0020E07F002090F200082400002043
:100910000C0000202CF1000818F10008B47F002022
:100920006C7D00201C0000209CF1000814000020B9
:100930006CF200082C00002078F20008ACF10008EE
:100940004C00002070B5002114E0536B0C00A4B2E1
:1009500023441B7DDFF8884A0D00ADB26355526B0E
:100960000B009BB21A44127DDFF8783A0C00A4B257
:100970001A55491CDFF8702A0B009BB2546B24698E
:10098000A342E2D3516B0969082940F0A184DFF842
:100990005C1ADFF8503A9C785D7855EA04250D60C2
:1009A000526B126840F28154121B16D0521E00F096
:1009B0009680521E00F01581521E00F09481521E46
:1009C00000F01382521E00F09C82521E00F025831C
:1009D000521E00F0AE8300F037BC0A6842F20304F6
:1009E000A24204D11979DFF8082A116076E00A687A
:1009F000B2F5005F04D11979DFF8F42951606DE098
:100A00000A6846F26004A24204D11979DFF8E029AD
:100A1000118163E00A6846F26C04A24207D1597959
:100A20001A7952EA0122DFF8C8194A8156E00A68A9
:100A300046F27804A24207D159791A7952EA012282
:100A4000DFF8AC198A8149E00A6846F29104A242B3
:100A500007D159791A7952EA0122DFF894194A82AA
:100A60003CE00A6842F20B04A2420CD1D9799A798F
:100A700052EA01225C7954EA022419790C43DFF826
:100A80007019CC612AE00A6846F26B04A24207D1D1
:100A900059791A7952EA0122DFF854198A821DE045
:100AA0000A6846F26304A2420DD1D9799A7952EAD2
:100AB0000122597951EA02211A7952EA0122DFF81A
:100AC00030198A610AE0096846F29002914205D124
:100AD0001979C1F30011DFF818291162B4E30A682B
:100AE00042F20304A24204D11979DFF8542B1160B9
:100AF00076E00A68B2F5005F04D11979DFF8402B7F
:100B000051606DE00A6846F26004A24204D119798E
:100B1000DFF82C2B118163E00A6846F26C04A242D4
:100B200007D159791A7952EA0122DFF8141B4A8158
:100B300056E00A6846F27804A24207D159791A7938
:100B400052EA0122DFF8F81A8A8149E00A6846F27F
:100B50009104A24207D159791A7952EA0122DFF8A9
:100B6000E01A4A823CE00A6842F20B04A2420CD12D
:100B7000D9799A7952EA01225C7954EA02241979E6
:100B80000C43DFF8BC1ACC612AE00A6846F26B0419
:100B9000A24207D159791A7952EA0122DFF8A01A44
:100BA0008A821DE00A6846F26304A2420DD1D97917
:100BB0009A7952EA0122597951EA02211A7952EAC4
:100BC0000122DFF87C1A8A610AE0096846F2900285
:100BD000914205D11979C1F30011DFF8642A11623D
:100BE00032E30A6842F20304A24204D11979DFF821
:100BF000542A116076E00A68B2F5005F04D11979D1
:100C0000DFF8402A51606DE00A6846F26004A242B3
:100C100004D11979DFF82C2A118163E00A6846F2C1
:100C20006C04A24207D159791A7952EA0122DFF8FD
:100C3000141A4A8156E00A6846F27804A24207D1A3
:100C400059791A7952EA0122DFF8F8198A8149E0C4
:100C50000A6846F29104A24207D159791A7952EAF8
:100C60000122DFF8E0194A823CE00A6842F20B04F4
:100C7000A2420CD1D9799A7952EA01225C7954EADC
:100C8000022419790C43DFF8BC19CC612AE00A6808
:100C900046F26B04A24207D159791A7952EA01222D
:100CA000DFF8A0198A821DE00A6846F26304A242B6
:100CB0000DD1D9799A7952EA0122597951EA022162
:100CC0001A7952EA0122DFF87C198A610AE0096880
:100CD00046F29002914205D11979C1F30011DFF873
:100CE00064291162B0E20A6842F20304A24204D10C
:100CF0001979DFF82C2C116076E00A68B2F5005FF4
:100D000004D11979DFF8182C51606DE00A6846F2B9
:100D10006004A24204D11979DFF8042C118163E048
:100D20000A6846F26C04A24207D159791A7952EA4C
:100D30000122DFF8EC1B4A8156E00A6846F278048B
:100D4000A24207D159791A7952EA0122DFF8D01B61
:100D50008A8149E00A6846F29104A24207D1597992
:100D60001A7952EA0122DFF8B81B4A823CE00A688D
:100D700042F20B04A2420CD1D9799A7952EA0122AB
:100D80005C7954EA022419790C43DFF8941BCC6196
:100D90002AE00A6846F26B04A24207D159791A790F
:100DA00052EA0122DFF8781B8A821DE00A6846F2C7
:100DB0006304A2420DD1D9799A7952EA0122597974
:100DC00051EA02211A7952EA0122DFF8541B8A61A2
:100DD0000AE0096846F29002914205D11979C1F3FF
:100DE0000011DFF83C2B11622EE20A6842F2030484
:100DF000A24204D11979DFF8D42B116080E00A688F
:100E0000B2F5005F04D11979DFF8C02B516077E0AB
:100E10000A6846F26004A24204D11979DFF8AC2BCB
:100E200011816DE00A6846F26C04A24207D159793B
:100E30001A7952EA0122DFF8941B4A8160E00A68BD
:100E400046F27804A24207D159791A7952EA01226E
:100E5000DFF8781B8A8153E00A6846F29104A242C7
:100E600007D159791A7952EA0122DFF8601B4A82C8
:100E700046E00A6842F20B04A2420CD1D9799A7971
:100E800052EA01225C7954EA022419790C43DFF812
:100E90003C1BCC6134E00A6846F26B04A24207D1E5
:100EA00059791A7952EA0122DFF8201B8A8227E059
:100EB0000A6846F26304A2420DD1D9799A7952EABE
:100EC0000122597951EA02211A7952EA0122DFF806
:100ED000FC1A8A6114E00A6846F29004A24206D124
:100EE000197911F00101DFF8E42A116208E00968BC
:100EF00046F28902914203D11979DFF8D42A1160B0
:100F0000A2E10A6842F20304A24204D11979DFF88F
:100F1000C42A116080E00A68B2F5005F04D1197933
:100F2000DFF8B02A516077E00A6846F26004A24216
:100F300004D11979DFF89C2A11816DE00A6846F224
:100F40006C04A24207D159791A7952EA0122DFF8DA
:100F5000841A4A8160E00A6846F27804A24207D106
:100F600059791A7952EA0122DFF8681A8A8153E026
:100F70000A6846F29104A24207D159791A7952EAD5
:100F80000122DFF8501A4A8246E00A6842F20B0456
:100F9000A2420CD1D9799A7952EA01225C7954EAB9
:100FA000022419790C43DFF82C1ACC6134E00A686A
:100FB00046F26B04A24207D159791A7952EA01220A
:100FC000DFF8101A8A8227E00A6846F26304A24218
:100FD0000DD1D9799A7952EA0122597951EA02213F
:100FE0001A7952EA0122DFF8EC198A6114E00A68E2
:100FF00046F29004A24206D1197911F00101DFF8FE
:10100000D429116208E0096846F28902914203D1AD
:101010001979DFF8C429116016E10A6842F2030465
:10102000A24204D11979DFF8B429116080E00A687E
:10103000B2F5005F04D11979DFF8A029516077E09B
:101040000A6846F26004A24204D11979DFF88C29BB
:1010500011816DE00A6846F26C04A24207D1597909
:101060001A7952EA0122DFF874194A8160E00A68AD
:1010700046F27804A24207D159791A7952EA01223C
:10108000DFF858198A8153E00A6846F29104A242B7
:1010900007D159791A7952EA0122DFF840194A82B8
:1010A00046E00A6842F20B04A2420CD1D9799A793F
:1010B00052EA01225C7954EA022419790C43DFF8E0
:1010C0001C19CC6134E00A6846F26B04A24207D1D5
:1010D00059791A7952EA0122DFF800198A8227E049
:1010E0000A6846F26304A2420DD1D9799A7952EA8C
:1010F0000122597951EA02211A7952EA0122DFF8D4
:10110000DC188A6114E00A6846F29004A24206D113
:10111000197911F00101DFF8C428116208E00968AB
:1011200046F28902914203D11979DFF8B42811609F
:101130008AE00A6842F20304A24204D11979DFF876
:10114000A428116080E00A68B2F5005F04D1197923
:10115000DFF89028516077E00A6846F26004A24206
:1011600004D11979DFF87C2811816DE00A6846F214
:101170006C04A24207D159791A7952EA0122DFF8A8
:1011800064184A8160E00A6846F27804A24207D1F6
:1011900059791A7952EA0122DFF848188A8153E016
:1011A0000A6846F29104A24207D159791A7952EAA3
:1011B0000122DFF830184A8246E00A6842F20B0446
:1011C000A2420CD1D9799A7952EA01225C7954EA87
:1011D000022419790C43DFF80C18CC6134E00A685A
:1011E00046F26B04A24207D159791A7952EA0122D8
:1011F000DFF8F0178A8227E00A6846F26304A24209
:101200000DD1D9799A7952EA0122597951EA02210C
:101210001A7952EA0122DFF8CC178A6114E00A68D1
:1012200046F29004A24206D1197911F00101DFF8CB
:10123000B427116208E0096846F28902914203D19D
:101240001979DFF8C02B1160DFF88017DFF88427E9
:10125000DFF88837DFF88C470D6A166A56EA4506CC
:101260001D6A55EA4605266A56EA4506DFF8985B88
:101270002E704968526852EA4102596851EA4201A7
:10128000626852EA4102DFF8841B0A705849DFF8AD
:10129000B023DFF8B033DFF888464D68566856EA69
:1012A00045065D6855EA4605666856EA4506DFF874
:1012B000605B2E700989128952EA0112DFF8541B13
:1012C0000A701989228952EA0112DFF89C1C0A70FF
:1012D000002104F0E5FB70BD80B5DFF8900C05F04F
:1012E000A4FD01BDBCF100081FB500200090DFF88F
:1012F000280B016851F001010160006810F0010045
:1013000000900098DFF8684C5FF0804020604CF25D
:101310004F30E06040F28F6060600020206100206C
:10132000A060200001F07EFD0020019000200290CE
:1013300001A9200005F01EFE002201211C2001F061
:1013400024FB1C2001F032FB1FBD000084F20008CA
:1013500044000020540000201FB500200090DFF85A
:10136000B80A016851F002010160006810F0020043
:1013700000900098DFF8904BDFF8F80B206042F205
:101380001070E06053206060002020610020A060A9
:10139000200001F047FD002001900020029001A9EB
:1013A000200005F0E7FD002202211D2001F0EDFAEA
:1013B0001D2001F0FBFA1FBDCCF10008C0A800659C
:1013C000C0A8000178EE0008A8EE0008D8EE0008DA
:1013D0002DD50008536E0008DCF10008796E000876
:1013E000C07A0020787F0020BC7B00208C7F00200A
:1013F000F87D002030B4DFF8101B884200F0068131
:10140000DFF86C1B884240F0F180DFF86C1B086845
:101410000E2802D008682C2803D10868401C0860F8
:10142000F4E008681D2802D008683A2803D108684B
:10143000401C0860EAE00868152802D008683328D4
:1014400003D10868401C0860E0E008683B2802D12E
:1014500000200860DAE00120DFF8202B1060DFF8C0
:10146000202B1068001E322811D2DFF8180B212320
:10147000DFF8144B0568635503685B1C322493FB4B
:10148000F4F504FB153303601068401C106010680D
:10149000001E322811D2DFF8EC0A2423DFF8E84AD4
:1014A0000568635503685B1C322493FBF4F504FB69
:1014B000153303601068401C10601068001E32284D
:1014C00011D2DFF8C00A2523DFF8BC4A056863554E
:1014D00003685B1C322493FBF4F504FB15330360B3
:1014E0001068401C106004200B680C6894FBF0F43A
:1014F00000FB1430002816D11068001E322871D26B
:10150000DFF8800A3123DFF8804A056863550368F5
:101510005B1C322493FBF4F504FB15330360106865
:10152000401C10605EE004200B680C6894FBF0F433
:1015300000FB1430012816D11068001E322851D249
:10154000DFF8400A3223DFF8404A05686355036834
:101550005B1C322493FBF4F504FB15330360106825
:10156000401C10603EE004200B680C6894FBF0F413
:1015700000FB1430022816D11068001E322831D228
:10158000DFF8000A2223DFF8004A05686355036884
:101590005B1C322493FBF4F504FB153303601068E5
:1015A000401C10601EE004200B680C6894FBF0F4F3
:1015B00000FB1430032815D11068001E322811D208
:1015C000DFF8C0092323DFF8C049056863550368C5
:1015D0005B1C322493FBF4F504FB153303601068A5
:1015E000401C10600868401C08600FE0DFF80C1B0E
:1015F00088420BD1DFF8080B0188B1F5004F03D109
:101600004FF40041018001E00321018030BC7047AC
:1016100080B5DFF8E81A884210D1DFF8E40A0188C3
:10162000B1F5004F03D04FF6FF71018006E04FF493
:1016300000410180DFF8880B01F06EFF01BD000062
:101640001C7E0020407E00202DE9F84F40F201640E
:10165000DFF8B05A2900200003F065FF012004F0F4
:1016600035FF40F202662900300003F05CFF0120E4
:1016700004F02CFF40F203672900380003F053FF09
:10168000012004F023FF40F204682900404603F0E3
:101690004AFF012004F01AFFDFF8289B494620008A
:1016A00003F041FF012004F011FF4946300003F030
:1016B0003AFF012004F00AFF4946380003F033FFE7
:1016C000012004F003FF4946404603F02CFF0120AF
:1016D00004F0FCFEDFF8F09A4946200003F023FFF7
:1016E000012004F0F3FE4946300003F01CFF012006
:1016F00004F0ECFE4946380003F015FF012004F029
:10170000E5FE4946404603F00EFF012004F0DEFEF0
:10171000DFF8B89A4946200003F005FF012004F0E5
:10172000D5FE4946300003F0FEFE012004F0CEFE57
:101730004946380003F0F7FE012004F0C7FE494691
:10174000404603F0F0FE012004F0C0FEDFF880AA5E
:101750005146200003F0E7FE012004F0B7FE514699
:10176000300003F0E0FE012004F0B0FE51463800E6
:1017700003F0D9FE012004F0A9FE5146404603F0D3
:10178000D2FE012004F0A2FEDFF848BA594620003C
:1017900003F0C9FE012004F099FE5946300003F021
:1017A000C2FE012004F092FE5946380003F0BBFE51
:1017B000012004F08BFE5946404603F0B4FE0120A0
:1017C00004F084FEDFF8100A0068401E322801D2BF
:1017D000FEF7B2FD40F205642900200003F0A3FEED
:1017E000012004F073FE40F206662900300003F089
:1017F0009AFE012004F06AFE40F2076729003800D3
:1018000003F091FE012004F061FE29004FF4C16055
:1018100003F089FE012004F059FE4946200003F040
:1018200082FE012004F052FE4946300003F07BFEA8
:10183000012004F04BFE4946380003F074FE0120FD
:1018400004F044FE49464FF4C16003F06CFE0120F1
:1018500004F03CFE5146200003F065FE012004F038
:1018600035FE5146300003F05EFE012004F02EFEEE
:101870005146380003F057FE012004F027FE514680
:101880004FF4C16003F04FFE012004F01FFE5946E3
:10189000200003F048FE012004F018FE59463000F5
:1018A00003F041FE012004F011FE5946380003F018
:1018B0003AFE012004F00AFE59464FF4C16003F0DD
:1018C00032FE012004F002FEDFF81059290020004A
:1018D00003F029FE012004F0F9FD2900300003F097
:1018E00022FE012004F0F2FD2900380003F01BFE67
:1018F000012004F0EBFD29004FF4C16003F013FE5A
:10190000012004F0E3FD00F00DF80020DFF86C1674
:101910000860DFF8CC0801F0FFFDBDE8F18F0000A2
:10192000647E002080B52DED028B9FED2F8BDFF8BC
:10193000B408806905F04AFB53EC182B05F058FBFE
:101940000022DFF8A43805F025FC05F047FDDFF89C
:101950009C180860DFF89808806905F037FB53ECA5
:10196000182B05F045FB0022DFF87C3805F012FC4F
:1019700005F034FDDFF87C180860DFF87C0880692A
:1019800005F024FB53EC182B05F032FB0022DFF8A6
:10199000583805F0FFFB05F021FDDFF860180860FE
:1019A000DFF85C08806905F011FB53EC182B05F09B
:1019B0001FFB0022DFF8303805F0ECFB05F00EFDD0
:1019C000DFF840180860BDEC028B01BD887E002066
:1019D000907F0020AC7E0020947F0020D07E0020ED
:1019E000987F0020F47E00200000000000807640F8
:1019F0002DE9F84F40F20166DFF80C482100300075
:101A000003F091FD40F202672100380003F08BFDE6
:101A100040F203682100404603F085FD012004F0F8
:101A200055FD40F204692100484603F07CFDDFF8D3
:101A3000DC572900300003F076FD2900380003F060
:101A400072FD012004F042FD2900404603F06BFDC9
:101A50002900484603F067FD0020DFF8A81308605E
:101A6000DFF8AC170860DFF8AC673060DFF8A87704
:101A7000386040F20568DFF8A4974946404603F015
:101A800052FD012004F022FD40F2066A494650460C
:101A900003F049FD012004F019FD40F2076B4946AF
:101AA000584603F040FD012004F010FD49464FF474
:101AB000C16003F038FD012004F008FDDFF8600785
:101AC000DFF860178969C9170160DFF85C17896959
:101AD000C917DFF858271160DFF854178969C9174B
:101AE000DFF850271160DFF850178969C917DFF850
:101AF0004C2711600068002805D0DFF844174046E5
:101B000003F011FD04E0DFF83C17404603F00BFD45
:101B1000012004F0DBFCDFF814070068002805D082
:101B2000DFF81C17504603F0FEFC04E0DFF8141742
:101B3000504603F0F8FC012004F0C8FCDFF8F4067E
:101B40000068002805D0DFF8F816584603F0EBFCD3
:101B500004E0DFF8F016584603F0E5FC012004F03D
:101B6000B5FCDFF8D8060068002806D0DFF8D016EC
:101B70004FF4C16003F0D7FC05E0DFF8C8164FF45E
:101B8000C16003F0D0FC012004F0A0FC3868FE28FE
:101B90002FD0DFF8B416404603F0C5FC012004F056
:101BA00095FC4946404603F0BEFC012004F08EFC43
:101BB00006E04946404603F0B6FC0A2004F086FCE5
:101BC0003868FE28F5D12100404603F0ACFC012026
:101BD00004F07CFC2900404603F0A5FC012004F041
:101BE00075FCDFF86816404603F09DFC012004F008
:101BF0006DFC3868FE2832D13068FE282FD0DFF81F
:101C00004816504603F08FFC012004F05FFC494663
:101C1000504603F088FC012004F058FC06E04946D9
:101C2000504603F080FC0A2004F050FC3868FE287F
:101C3000F5D12100504603F076FC012004F046FC6B
:101C40002900504603F06FFC012004F03FFCDFF850
:101C5000FC15504603F067FC012004F037FC38689F
:101C6000FE283AD13068FE2837D1DFF8A405006895
:101C7000FE2832D0DFF8D015584603F054FC01207E
:101C800004F024FC4946584603F04DFC012004F0C2
:101C90001DFC09E04946584603F045FC012004F0CC
:101CA00015FC0A2004F012FC3868FE28F2D121004D
:101CB000584603F038FC012004F008FC290058467F
:101CC00003F031FC012004F001FCDFF880155846D8
:101CD00003F029FC012004F0F9FB3868FE2844D108
:101CE0003068FE2841D1DFF828050068FE283CD185
:101CF00044480068FE2838D0DFF84C154FF4C16026
:101D000003F011FC012004F0E1FB49464FF4C160EF
:101D100003F009FC012004F0D9FB0AE049464FF426
:101D2000C16003F000FC012004F0D0FB0A2004F0A5
:101D3000CDFB3868FE28F1D121004FF4C16003F0DB
:101D4000F2FB012004F0C2FB29004FF4C16003F054
:101D5000EAFB012004F0BAFBDFF8F0144FF4C16095
:101D600003F0E1FB012004F0B1FB3868FE2813D139
:101D70003068FE2810D1DFF898040068FE280BD1E7
:101D800020480068FE2807D10120DFF8C41408703D
:101D90000020DFF8C0140860BDE8F18F38B5DFF827
:101DA000B844A0422CD1DFF858030188002904D0A0
:101DB0004FF6FF7291420BD00DE00221018000200E
:101DC000DFF898140880DFF8340301F047F802E0E8
:101DD0004FF400410180DFF884040288DFF88014AA
:101DE0000B78DFF8805492B2AB540288521C028008
:101DF0000020C24A126850620122200005F0B5FBA3
:101E000031BD00009C7F0020D9800020D5800020BB
:101E1000D6800020CC8000204038024038B5584C95
:101E20002168DFF8440401F077FBDFF8405456489E
:101E30002968405CDFF83814086021280CD022287B
:101E400014D023281CD0242824D025282CD0312895
:101E500034D032283FD04BE001234322032101201C
:101E600005F0D7FE012004F031FB41E001231022F0
:101E70000321012005F0CDFE012004F027FB37E00F
:101E8000012314220321012005F0C3FE012004F0E8
:101E90001DFB2DE001230E220321012005F0B9FED8
:101EA000012004F013FB23E001230F220321012072
:101EB00005F0AFFE012004F009FB19E0022004F058
:101EC00005FB012301220421032005F0A2FE0320CB
:101ED00004F0FCFA0CE0022004F0F8FA01230222DC
:101EE0000421032005F095FE032004F0EFFAFFE73C
:101EF0002868401C322190FBF1F201FB120028609F
:101F00002068401E206031BDBC7C002038B57C4C70
:101F10002088B0F5004F01D10020208020880328C0
:101F200012D1002506E0DFF83C03415D71A001F00D
:101F3000F3FA6D1CDFF8240300888542F3DB6EA002
:101F400001F0EAFA00F022F8208800280BD10C48B2
:101F50000068401E322806D20122C149BE4805F061
:101F600004FBFFF75BFF31BDCD800020347D0020F6
:101F7000F87C002000040040E47F0020E07F002087
:101F8000C47F0020BC7F0020A07D002070B5B94E2A
:101F9000B44CB24D2988891E200005F01BFE30800C
:101FA000B548318889B23288120252EA1122028081
:101FB000298889B2214411F8021C2A880088C9B2F4
:101FC00092B2224412F8012C52EA0122904240F0CF
:101FD0008A80207801285AD16078032853D1A078CC
:101FE000C0B22988491F884249D1A14800682128E8
:101FF00007D043D323281AD00ED3252833D027D394
:102000003CE09E4801F088FAE078C0B2217951EABC
:1020100000219B48018069E09A4801F07DFAE07850
:10202000C0B2217951EA0021954841805EE096488E
:1020300001F072FAE0789249C0B2227952EA0022A5
:102040008A80888880000A2290FBF2F088804DE028
:102050008E4801F061FAE078C0B2217950EA01209F
:102060008749C88042E08A4801F056FAE078C0B259
:10207000217951EA00218248018137E036E0854824
:1020800001F04AFA32E0844801F046FA2EE0207866
:10209000022810D16078032809D1A078C0B229881D
:1020A000491F884222D07B4801F036FA1EE07A4868
:1020B00001F032FA1AE02078032810D16078032862
:1020C00009D1A078C0B22988491F88420ED0714832
:1020D00001F022FA0AE0704801F01EFA06E06F48AB
:1020E00001F01AFA02E06E4801F016FA00200449E5
:1020F000088070BD257820000A000000807C002048
:10210000AA8000205C00002080B5010089B201296E
:102110000FD1644801F000FA63490868002802D032
:102120000020086001E00120086001205F4908608C
:1021300044E0010089B202290FD15A4801F0ECF9BC
:102140005B490868002802D00020086001E00120F7
:10215000086002205549086030E0010089B2042976
:102160000CD154490868002802D00020086001E022
:102170000120086004204D4908601FE0010089B279
:1021800008290CD14C490868002802D000200860BA
:1021900001E0012008600820444908600EE080B298
:1021A00010280BD145490868002802D0002008609B
:1021B00001E00120086010203C49086001BD0000DA
:1021C0009CF20008640000206C00002074000020D5
:1021D0007C00002084000020B87F00208C000020BC
:1021E0007CF00008F87D00200070B7406880002077
:1021F0001C7E00206C800020407E0020708000202B
:10220000647E002074800020140000200C00002058
:10221000987F0020947F0020907F00209400002071
:10222000A07F0020887E0020AC7E0020A47F0020BC
:10223000D07E0020A87F0020F47E0020AC7F00200C
:10224000340000203C000020540000201C0000202E
:102250007E02002064800020407C0020A4800020BA
:10226000CA800020F0710020B0F00008C07F00207C
:10227000C87F0020AE800020AC800020ECF1000878
:102280006C7F0020C8F00008FCF1000840F1000855
:1022900054F100080CF200081CF20008A8F2000833
:1022A000B4F200085CF30008CC7F0020143C01402D
:1022B000D07F0020D47F0020D87F0020DC7F00204A
:1022C000F8B5040000202078C0075CD5DFF838039B
:1022D000016811F00C01042909D0006810F00C000D
:1022E00008280ED1DFF824030068400209D5DFF882
:1022F00020030068800346D56068002843D1012090
:1023000081E16068B0F5803F06D1DFF80403016821
:1023100051F48031016017E06068B0F5A02F0AD158
:10232000DFF8EC02016851F480210160016851F48A
:102330008031016008E0B648016831F48031016005
:10234000016831F480210160606800280DD005F03B
:10235000ABFC0500AE480068800314D405F0A4FC73
:10236000401B6528F6D303204DE105F09DFC0500D8
:10237000A7480068800306D505F096FC401B652839
:10238000F6D303203FE12078800722D59E480168DC
:1023900011F00C0F08D0006810F00C0008282FD1A5
:1023A0009A48006840022BD499480168890704D5EF
:1023B000E168012901D0012025E101685FF0F852B0
:1023C000B2FA82F231F0F801236913FA02F21143F2
:1023D00001602078000756D56069002842D00120AE
:1023E0008C49086005F060FC05008B480068800798
:1023F00049D405F059FC401B0328F6D3032002E121
:10240000E06800281DD001208449086005F04CFCDC
:1024100005007F480168890706D405F045FC401B8C
:102420000328F6D30320EEE001685FF0F852B2FA19
:1024300082F231F0F801236913FA02F211430160CC
:10244000C7E700207549086005F02EFC05007048BC
:1024500000688007BDD505F027FC401B0328F6D394
:102460000320D0E000206B49086005F01DFC05004A
:1024700069480068800706D505F016FC401B032854
:10248000F6D30320BFE0207840075FD500200090FE
:102490006348016851F080510160006810F080507D
:1024A000009000985F4E306850F48070306005F006
:1024B000FBFB05003068C00506D405F0F5FB401BAA
:1024C0000328F7D303209EE0A068012805D15648D1
:1024D000016851F00101016015E0A068052809D1EB
:1024E0005148016851F004010160016851F0010197
:1024F000016008E04C480168490849000160016832
:1025000031F004010160A06800280FD005F0CCFB79
:10251000050045480068800718D405F0C5FB401B3E
:1025200041F289318842F4D303206CE005F0BCFB12
:1025300005003D480068800708D505F0B5FB401B45
:1025400041F289318842F4D303205CE0A06900287D
:1025500058D02D48006810F00C00082850D0A06911
:1025600002283CD1314E0020306005F09DFB070071
:10257000274D2868800106D505F096FBC01B03286F
:10258000F6D303203FE02A48B0FA80F14FF44040F0
:10259000B0FA80F2F020B0FA80F3E769206A0743CE
:1025A000606A10FA01F13943A06A4008401E10FA2F
:1025B00002F21143E06A10FA03F319431348016071
:1025C0000120306005F070FB04002868800119D4F8
:1025D00005F06AFB001B0328F7D3032013E000205B
:1025E0001249086005F060FB04000948006880019A
:1025F00008D505F059FB001B0328F6D3032002E0A1
:10260000012000E00020F2BD0838024004380240FA
:1026100000380240800E47427438024000004742B2
:10262000403802400070004070380240600047426D
:102630000000FE032DE9F04104000D000020714E62
:10264000306810F00F00A84207D23570306810F0E3
:102650000F00A84201D00120ABE02078800706D50A
:1026600069490A6832F0F002A06802430A602078E3
:10267000C00768D56068012805D1644800688003F8
:1026800013D4012095E06068022802D06068032816
:1026900005D15E480068800107D4012089E05B48CD
:1026A0000068800701D4012083E0574F396889080A
:1026B000890060680143396005F0F6FA8046606879
:1026C00001280ED1386810F00C0004283BD005F02A
:1026D000EBFAB0EB080041F289318842F2D30320D3
:1026E00067E0606802280ED1386810F00C000828F6
:1026F00029D005F0D9FAB0EB080041F289318842BF
:10270000F2D3032055E0606803280ED1386810F03A
:102710000C000C2817D005F0C7FAB0EB080041F206
:1027200089318842F2D3032043E0386810F00C0F5F
:1027300009D005F0B9FAB0EB080041F289318842BE
:10274000F3D3032035E0306810F00F00854207D244
:102750003570306810F00F00A84201D0012028E049
:102760002078400706D528490A6832F4E052E0682C
:1027700002430A602078000707D52348016831F436
:102780006041226951EAC201016000F049F81E4926
:1027900009685FF07062B2FA82F21D4B11F0F0012D
:1027A000D140595CC8401B490860002005F082FAFE
:1027B0000020BDE8F08101201749086070471548E6
:1027C0000068704780B5FFF7FAFF0F4909685FF4AA
:1027D0006012B2FA82F2114B11F4E051D140595C0F
:1027E000C84002BD80B5FFF7EAFF074909685FF4FA
:1027F000E022B2FA82F2094B11F46041D140595CF7
:10280000C84002BD003C0240083802400038024087
:102810002CF20008040000204C00474264F300083A
:1028200010B400200020002000201F48006810F095
:102830000C00002804D0042804D0082804D030E07C
:102840001A482FE01A482DE01A49086810F03F0096
:102850000A6852020CD50B68174AB2FA82F4144A7D
:10286000B2FBF0F247F6C0700340E3405A430BE07E
:102870000B68114AB2FA82F40C4AB2FBF0F247F646
:10288000C0700340E3405A4308684FF44041B1FA36
:1028900081F110F44030C840401C4000B2FBF0F021
:1028A00000E0024810BC7047083802400024F400E1
:1028B00000127A00043802400000FE0310F0070006
:1028C000464B1A684FF6FF010A40454951EA00217C
:1028D0000A431A60704741480068C0F302207047FD
:1028E000012210F01F018A403E4940B2400941F8E0
:1028F00020207047020052B2002A08D509013A4A46
:1029000040B210F00F00104400F8041C03E009016D
:10291000364A40B21154704710B410F00700D0F19D
:102920000703052B01D3042301E0D0F10703041DA5
:10293000072C01D2002000E0C01E012414FA03F38A
:102940005B1E1940814014FA00F0401E10400843FD
:1029500010BC704780B5411EB1F1807F01D30120CA
:102960000EE0401E224908600F215FF0FF30FFF7A4
:10297000C1FF00201F49086007201F490860002090
:1029800002BD80B5FFF79AFF01BD70B504000D00D0
:1029900016000020FFF79FFF32002900FFF7BCFF61
:1029A0000100200040B2FFF7A5FF70BD80B540B226
:1029B000FFF796FF01BD80B5FFF7CCFF02BD0428ED
:1029C00005D10D48016851F00401016004E00A4896
:1029D000016831F004010160704700000CED00E077
:1029E0000000FA0500E100E018ED00E000E400E07E
:1029F00014E000E018E000E010E000E080B500F036
:102A000001F801BD7047F0B40246106895681318CC
:102A1000506803EB5004C0071DD54D441BE013F86C
:102A2000017B05F8017B491EF9D1A0B1B60813F866
:102A3000011B06F00306032E08BF13F8016B01EB20
:102A400006214942801C294405D011F8016B05F884
:102A5000016B401EF9D1A3420ED013F8016B16F0A2
:102A6000030104BF13F8011BC91C30090F28DAD178
:102A700013F8010B0F30D6E7F0BC02F10C007047E1
:102A800080B50B48016851F400710160016851F490
:102A900080610160016851F4807101600320FFF7DB
:102AA00070FF002005F006F905F018F9002002BDBE
:102AB000003C024038B586B00020009031480168E3
:102AC00051F040010160016811F04001009100994E
:102AD00000210091016851F020010160006810F0B0
:102AE000200000900098284D00224FF470412800EB
:102AF00003F0D8FB254C00221F21200003F0D2FB5D
:102B00004FF470400190012002900020049001A930
:102B1000280003F0D9FA1F2001901D4802900120DF
:102B200003900320049001A9200003F0CDFA0122B4
:102B300000210620FFF729FF0620FFF737FF0122BB
:102B400000210720FFF721FF0720FFF72FFF0122B9
:102B500001210820FFF719FF0820FFF727FF0222B5
:102B600001210920FFF711FF0920FFF71FFF0322B2
:102B700001210A20FFF709FF0A20FFF717FF07B01E
:102B800030BD00BF3038024000140240001802403F
:102B90000000311010B586B00168704A91421AD118
:102BA000002005906E48016851F010010160006836
:102BB00010F0100005900598C020009002200190B0
:102BC0000120029003200390072004906946654885
:102BD00003F07AFA48E000686349884244D1002053
:102BE00005906248016851F480210160006810F48A
:102BF000802005900598002005905D48016851F0FF
:102C000080010160006810F08000059005984FF485
:102C10008060009002200190032003900720049020
:102C2000504C6946200003F04FFA4FF400600090CA
:102C300002200190002002900720049069462000A5
:102C400003F042FA4B4C00224FF48071200003F055
:102C500029FB4FF480700090012001900220039026
:102C60006946200003F030FA06B010BD1CB5002004
:102C700000903F48016851F002010160006810F0C7
:102C80000200009000983C48344901605FF4E13153
:102C90004160002181600021C160002101610C219F
:102CA0004161002181610021C16104F0B5FB002078
:102CB00000902E48016851F480210160006810F4F2
:102CC00080200090009824A000F026FC2B4C264881
:102CD00020604FF4165060600020A0600020E0608B
:102CE000002020610C2060610020A0610020E061D4
:102CF000200004F091FB002200212720FFF745FE71
:102D00002720FFF753FE01221D49200004F02DFC6F
:102D100013BD70B504000D00164E01224FF48071F2
:102D2000300003F0BFFA4FF6FF732A0092B2210081
:102D3000124804F0ACFB00224FF48071300003F025
:102D4000B1FA70BD01B54FF6FF73012269460A481A
:102D500004F09DFB009802BD310A00000010014004
:102D6000443802400004024000480040403802401D
:102D700030380240001C0240007C0020407C0020D3
:102D8000CA80002018B58BB0234C24482060532003
:102D900060600020A06041F26800E06000202061D7
:102DA0000821200000F076F84FF48050079007A922
:102DB000200000F081F9302000904FF4E160019094
:102DC000002002900820039000200490002005902D
:102DD0000020069000226946200000F03EF90CB069
:102DE00010BD80B500680D49884213D100200090C5
:102DF0000B48016851F008010160006810F00800FC
:102E000000900098002200213220FFF7BEFD322002
:102E1000FFF7CCFD01BD0000807C0020000C0040CD
:102E20004038024010B50400002C01D1012014E00C
:102E300094F93900002805D1002084F838002000DA
:102E400000F069FB022084F83900211D206800F0A1
:102E5000BFF9012084F83900002010BD022180F85C
:102E600039100168096851F00101026811600121FF
:102E700080F83910002070470168C96851F00101DD
:102E80000268D1600168096851F0010100680160C1
:102E90000020704738B504000D00002C01D101203E
:102EA0001FE094F93900002805D1002084F838008B
:102EB0002000FFF796FF022084F83900211D2068CA
:102EC00000F086F92068006830F00800216808608A
:102ED00020680068054320680560012084F83900F7
:102EE000002032BD10B504002068006980071AD5A3
:102EF0002068C068800716D57FF00200216808614D
:102F0000012020762068806910F0030F03D0200094
:102F100004F01BFF05E02000FEF77AFB200004F020
:102F200015FF002020762068006940071AD5206828
:102F3000C068400716D57FF00400216808610220B0
:102F400020762068806910F4407F03D0200004F0D0
:102F5000FCFE05E02000FEF75BFB200004F0F6FE1F
:102F6000002020762068006900071AD52068C06814
:102F7000000716D57FF0080021680861042020763C
:102F80002068C06910F0030F03D0200004F0DDFEBC
:102F900005E02000FEF73CFB200004F0D7FE0020F7
:102FA000207620680069C0061AD52068C068C0066F
:102FB00016D57FF01000216808610820207620686F
:102FC000C06910F4407F03D0200004F0BEFE05E08D
:102FD0002000FEF71DFB200004F0B8FE0020207644
:102FE00020680069C0070AD52068C068C00706D5F8
:102FF0007FF00100216808612000FEF7FBF92068DE
:10300000006900060AD52068C068000606D57FF072
:10301000800021680861200004F099FE20680069A2
:1030200040060AD52068C068400606D57FF04000FB
:1030300021680861200004F08BFE2068006980068A
:103040000AD52068C068800606D57FF02000216878
:103050000861200004F07DFE10BD10B5040094F955
:103060003800012801D1022025E0012084F8380031
:10307000022084F83900002A06D0042A08D0082A41
:103080000AD00C2A0CD00FE0206800F04EF90BE0BB
:10309000206800F00FF907E0206800F07CF903E0F9
:1030A000206800F0B2F9FFE7012084F83900002021
:1030B00084F83800002010BD10B50400002094F9F9
:1030C0003800012801D1022081E0012084F8380075
:1030D000022084F839002068806830F0770030F4EE
:1030E0007F40226890600868002855D0102858D08A
:1030F00020285BD030285ED0402843D050282DD0E7
:10310000602835D070280DD0B0F5805F03D0B0F5C1
:10311000005F16D054E020688068C008C0002168B5
:1031200088604DE0CB684A688968206800F0E7F95C
:103130002068806830F0770050F077002168886060
:103140003EE0CB684A688968206800F0D8F92068BA
:10315000806850F480402168886031E0CA6849681E
:10316000206800F099F95021206800F0BEF927E0AE
:10317000CA684968206800F0A3F96021206800F05F
:10318000B4F91DE0CA684968206800F085F940215B
:10319000206800F0AAF913E00021206800F0A5F9EA
:1031A0000EE01021206800F0A0F909E0202120683D
:1031B00000F09BF904E03021206800F096F9FFE769
:1031C000012084F83900002084F83800002010BD68
:1031D00010B400220468DFF89432984212D0B0F1A3
:1031E000804F0FD0DFF8882290420BD0DFF8842286
:1031F000904207D0DFF88022904203D0DFF87C2293
:10320000904201D1012200E00022D2B2002A03D074
:1032100034F070044A68144398422AD0B0F1804FC9
:1032200027D0DFF84C22904223D0DFF8482290428A
:103230001FD0DFF8442290421BD0DFF8402290429A
:1032400017D0DFF83C22904213D0DFF838229042AA
:103250000FD0DFF8342290420BD0DFF830229042BA
:1032600007D0DFF82C22904203D0DFF828229042CA
:1032700001D1012200E00022D2B2002A03D034F4AE
:103280004074CA68144304608A68C2620A68826231
:10329000984203D0DFF8E421904201D1012200E0FE
:1032A0000022D2B2002A01D00969016301214161E3
:1032B00010BC704730B4002200220022026A32F0B3
:1032C00010020262046A4568836933F4E04333F410
:1032D00040730A6853EA022334F020048A6854EAEF
:1032E0000214624A904202D0644A904201D1012203
:1032F00000E00022D2B2002A10D034F08004CA6864
:1033000054EA021434F0400435F4806535F4006565
:103310004A6955EA82058A6955EA820545608361F2
:1033200049688163046230BC704730B400220022D7
:103330000022026A520852000262046A45688369E8
:1033400033F070039B089B000A68134334F00204B7
:103350008A681443454A904202D0484A904201D1BB
:10336000012200E00022D2B2002A0DD034F008047D
:10337000CA68144334F0040435F4807535F40075DC
:103380004A6915438A691543456083614968416309
:10339000046230BC704730B4002200220022026A6E
:1033A00032F480720262046A4568C36933F07003C4
:1033B0009B089B000A68134334F400748A6854EA3B
:1033C00002242A4A904202D02C4A904201D1012282
:1033D00000E00022D2B2002A10D034F40064CA689F
:1033E00054EA022434F4806435F4805535F40055F1
:1033F0004A6955EA02158A6955EA02154560C361B2
:103400004968C163046230BC704730B400220022B6
:103410000022026A32F480520262046A4568C3697B
:1034200033F4E04333F440730A6853EA022334F47C
:1034300000548A6854EA02340C4A904202D00F4A7F
:10344000904201D1012200E00022D2B2002A04D031
:1034500035F480454A6955EA82154560C36149687B
:103460000164046230BC70470000000000000140AD
:103470000004004000080040000C0040000401402F
:103480000040014000440140004801400018004055
:10349000001C00400020004010B400230023046AF8
:1034A000036A5B085B000362836933F0F00353EA4D
:1034B000021334F00A0421438361016210BC704797
:1034C00010B400230023036A33F0100303628369FE
:1034D000046A33F4704353EA023334F0A00454EA2C
:1034E00001148361046210BC70470022826832F0CC
:1034F000700289B251F0070111438160704710B426
:103500000024846834F47F44114351EA03212143A9
:10351000816010BC704770470EB4C0B5024603A866
:1035200000210190009101AB0121044878440C3046
:1035300004F010FC06BC5DF810FB00BFA5BB00004A
:1035400080B503F013F803F052F903F091F905F098
:10355000A5FB05F0B9FD02F012FF01BD00B585B075
:1035600090F83310C9070CD5001D06F05DFB020072
:1035700021A1684606F0AEFB69462048FFF7CCFF64
:1035800002E01F48FFF7C8FF05B000BD10B588B0C6
:10359000040094F8330040071FD51A48FFF7BCFF1A
:1035A000194802907FF07F400190184800906B46C8
:1035B00001AA02A9200003F09BF9201D06F034FBAC
:1035C00002000DA103A806F085FB03A90B48FFF735
:1035D000A3FF200003F0ECF905E0200003F009FA56
:1035E0000748FFF799FF08B010BD80B5084803F001
:1035F0001CFC02F02EFF01BD2573000098F00008AE
:1036000008EF000830EF0008C0A80065C0A800015E
:10361000347D0020BFF34F8F29490A6812F4E0621D
:10362000284802430A60BFF34F8F00BFFDE738B55B
:10363000254D05F017FD2860286800281CD0234878
:103640002349086040F2D2422249286805F0C0FCB4
:103650000400200040B200280ED11F48FFF75CFF95
:1036600064B2002C08D11D48FFF756FF00220FF26C
:103670007901286805F0F3FC1948FFF74DFF31BDCB
:1036800070B505000E0003222900C9B289B20020DE
:1036900006F040FB0400002C11D0EDB22A0092B2DB
:1036A0001049200006F0E5FD33009BB2084A2100D6
:1036B0000548006805F0E3FB200006F0C2FC70BD81
:1036C0000CED00E00400FA0560800020C0A80013A3
:1036D0009C8000208CF3000874F300087CF3000841
:1036E0002CF30008907700202DE9F8432DED028B94
:1036F000140000216368002004E01A5CDFF8405BDE
:103700002A54401C0528F8D3DFF8345B2878FA28BF
:1037100040F04F87E87801432A7952EA0122D21D0E
:10372000002002E0195C2954401C511E8842F9D344
:103730006089824240F02687A878012840F0D08234
:10374000687900280ED0102845D020287AD030285B
:1037500000F08F81402800F0C881502800F08A8254
:1037600000F03DBFA879012817D10020E8700220A1
:103770002871002068710120A8710020E8710021E3
:1037800007E0DFF8C02AEB79685C4340D05CE87161
:10379000491C0729F5D3FF2028720920DFF8A81A51
:1037A0000860DFF8A80A0168091E322911D2DFF883
:1037B000A01A0122DFF89C3A0D685A550A68521C7B
:1037C000322392FBF3F503FB15220A600168491CC2
:1037D000016000F004BFA879112803D1E879DFF86F
:1037E000781A0870287A122803D1687ADFF86C1AE0
:1037F0000870A87A132807D1E87ADFF8641A0880DD
:10380000287BDFF8601A08800020E8700220287109
:10381000102068710120A8710020E871002107E0E4
:10382000DFF8202AEB79685C4340D05CE871491CE2
:103830000729F5D3FF2028720920DFF80C1A086049
:1038400000F0CDBE0020E87048202871202068716B
:103850000120A8712120E8710020287200206872E0
:103860000020A8720020E87222202873DFF88C0D57
:10387000007868732320A873DFF8840D0078E8735C
:1038800024202874DFF87C0D818AA974B0F9141003
:1038900009126974DFF8701D8A8A2A75B1F914203B
:1038A0001212EA74DFF8642D938AAB75B2F9143002
:1038B0001B126B75DFF8583D9E8A2E76B3F91460A3
:1038C0003612EE7525266E76B0F90A60EE7636B2BF
:1038D0003612AE76B1F90A606E7736B236122E77AE
:1038E000B2F90A60EE7736B23612AE77B3F90A60F3
:1038F00085F8216036B2361285F82060262685F8D4
:103900002260B0F90C6085F8246036B2361285F872
:103910002360B1F90C6085F8266036B2361285F85E
:103920002560B2F90C6085F8286036B2361285F849
:103930002760B3F90C6085F82A6036B2361285F834
:103940002960272685F82B60C66985F82F60C6692F
:10395000360A85F82E60C669360C85F82D60C66972
:10396000360E85F82C60CE6985F83360CE69360A4C
:1039700085F83260CE69360C85F83160CE69360E36
:1039800085F83060D66985F83760D669360A85F8DB
:103990003660D669360C85F83560D669360E85F8FE
:1039A0003460DE6985F83B60DE69360A85F83A6086
:1039B000DE69360C85F83960DE69360E85F83860C8
:1039C000282685F83C60866985F84060866936124D
:1039D00085F83F608669361485F83E608069001678
:1039E00085F83D00886985F844008869001285F8EB
:1039F00043008869001485F842008869001685F83C
:103A00004100906985F848009069001285F84700E8
:103A10009069001485F846009069001685F8450005
:103A2000986985F84C009869001285F84B009869F0
:103A3000001485F84A009869001685F84900FF20AF
:103A400085F84E00002085F84D00002109E0DFF8E0
:103A5000F42795F84D30685C4340D05C85F84D0004
:103A6000491C4D29F3D34F20DFF8DC17086000F024
:103A7000B6BDA879012836D10920DFF8CC17086037
:103A80000120A8710020E870022028710020E87150
:103A9000FF202872002107E0DFF8A827EB79685C97
:103AA0004340D05CE871491C0729F5D3DFF89C0737
:103AB0000168091E322911D2DFF894170222DFF8BB
:103AC00094370D685A550A68521C322392FBF3F55D
:103AD00003FB15220A600168491C0160012080F384
:103AE0001388FFF797FD00F07ABDA879412806D129
:103AF000E879297A51EA0021DFF8180B0180687A09
:103B0000422806D1A87AE97A51EA0021DFF8080BA9
:103B10000180DFF8006BB6F90000012803DA00200D
:103B2000DFF8F81A0870A87B44280FD1E87B012839
:103B300008D10120DFF8E81A08700020DFF8DC1A4D
:103B4000087003E00020DFF8D81A0870DFF8C88A90
:103B5000B8F90010B6F9000006F000FCBDEEC00A8E
:103B600010EE100ADFF8BC1A0880DFF8BC7AB8F94A
:103B70000010B6F9000006F0C1FBBDEEC00A10EE61
:103B8000100A3880DFF8980A0078012803D1B7F9C5
:103B9000000040423880DFF8940A31880171B6F99C
:103BA000001009124171DFF8A4060168091E3229CC
:103BB00011D2DFF89C160322DFF898360E689A556A
:103BC0000A68521C322392FBF3F603FB16220A60AA
:103BD0000168491C0160297B43292DD1697B01299A
:103BE00026D10168091E322911D2DFF8641602229B
:103BF000DFF860360E689A550A68521C322392FB31
:103C0000F3F603FB16220A600168491C0160DFF825
:103C1000200A0021017100214171DFF8180A0021FA
:103C20000171002141710120DFF8D019087003E013
:103C30000020DFF8C81908700020E8700220287101
:103C4000402068710120A8710020E871002107E080
:103C5000DFF8F025EB79685C4340D05CE871491CE3
:103C60000729F5D3FF2028720920DFF8DC1508604A
:103C700000F0B5BCDFF8D4050168091E322911D265
:103C8000DFF8CC150422DFF8CC350E689A550A68A7
:103C9000521C322392FBF3F603FB16220A600168E2
:103CA000491C0160502068710120A8710020E87053
:103CB000022028710020E871002107E0DFF8842548
:103CC000EB79685C4340D05CE871491C0729F5D367
:103CD000FF2028720920DFF87015086000F07FBC13
:103CE000A878022840F01D81687900280ED010289D
:103CF0002DD0202854D0302800F0BD80502800F06E
:103D0000D780602800F0F08000F069BCA879012815
:103D100017D10020E870022028710020687101206E
:103D2000A8710020E871002107E0DFF81825EB7981
:103D3000685C4340D05CE871491C0729F5D3FF203B
:103D400028720920DFF80015086000F048BCA87947
:103D5000112807D1287A122804D1A87A132801D172
:103D6000287B14280020E870022028711020687138
:103D70000120A8710020E871002107E0DFF8C424C9
:103D8000EB79685C4340D05CE871491C0729F5D3A6
:103D9000FF2028720920DFF8B014086000F01FBC73
:103DA0000020E8701E202871202068710120A87171
:103DB0002220E871DFF88008018889B2090A297297
:103DC000018869722421A9720021E97200212973F6
:103DD00025216973DFF864184288283A0A800A8826
:103DE00092B2120AAA730988E97326212974402124
:103DF00069742721A9740021E97400212975002123
:103E000069750021A9750021E97500212976002135
:103E100069760021A9762821E976818829772921E8
:103E20006977C18889B2090AA977C188E9772A2107
:103E300085F82010018989B2090A85F821100089C6
:103E400085F82200002085F82300002109E0DFF832
:103E5000F42395F82330685C4340D05C85F8230058
:103E6000491C2329F3D3FF2085F824002520DFF8FF
:103E7000D8130860B3E30020E870022028713020D6
:103E800068710120A8710020E871002107E0DFF8C7
:103E9000B423EB79685C4340D05CE871491C072986
:103EA000F5D3FF2028720920DFF89C13086096E301
:103EB0000020E87002202871502068710120A8714C
:103EC0000020E871002107E0DFF87823EB79685CD7
:103ED0004340D05CE871491C0729F5D3FF202872C4
:103EE0000920D94908607AE30020E870852028710C
:103EF00060206871002085F88A00002108E0D14A1E
:103F000095F88A30685C4340D05C85F88A00491C8B
:103F10008A29F4D3FF2085F88B008B20CA490860DA
:103F20005DE3A878032840F01683687900280DD057
:103F300010283ED020285DD0302800F04B8140284A
:103F400000F09281502800F0D68248E3A879012839
:103F500016D10020E870022028710020687101202D
:103F6000A8710020E871002106E0B64AEB79685C90
:103F70004340D05CE871491C0729F6D3FF20287222
:103F80000920B1490860B1480168091E32290FD2E1
:103F9000AF491122AF4B0D685A550A68521C3223A3
:103FA00092FBF3F503FB15220A600168491C0160CE
:103FB00015E3A879112802D1E879A74908700020F3
:103FC000E87002202871102068710120A87100207B
:103FD000E871002106E09B4AEB79685C4340D05CC5
:103FE000E871491C0729F6D3FF2028720920964959
:103FF0000860F4E2202068710120A8712120E87196
:10400000DFF8F8050078287222206872DFF83006A1
:104010000078A8722320E872DFF828068189697386
:10402000DFF8241682890A80B1F9002012122A735F
:10403000DFF818269389EB7393890B80B1F9003070
:104040001B12AB73DFF808369E896E749E890E8052
:10405000B1F9006036122E74DFF8F865B789EF7495
:10406000B7890F80B1F900100912A97424212975AC
:10407000C1692976C169090AE975C169090CA9757F
:10408000C069000E6875D0692877D069000AE876A3
:10409000D069000CA876D069000E6876D86985F8DA
:1040A0002000D869000AE877D869000CA877D86999
:1040B000000E6877F06985F82400F069000A85F839
:1040C0002300F069000C85F82200F069000E85F8E5
:1040D0002100252085F82500DFF87C05007885F88B
:1040E0002600262085F82700DFF8700501680916EC
:1040F00085F828100168091485F82910016809124B
:1041000085F82A10006885F82B00DFF8540501684F
:10411000091685F82C100168091485F82D1001681E
:10412000091285F82E10006885F82F00DFF8340595
:104130000168091685F830100168091485F83110F6
:104140000168091285F83210006885F83300DFF83D
:1041500018050168091685F834100168091485F8F6
:1041600035100168091285F83610006885F83700A7
:10417000272085F83800012085F83900282085F8A7
:104180003A00002085F83B00002085F83C00002024
:10419000E8703A202871292085F83D00DFF8CC042A
:1041A000007885F83E00002085F83F00FF2085F864
:1041B0004000002108E0234A95F83F30685C434006
:1041C000D05C85F83F00491C3F29F4D341201E49AB
:1041D000086004E2A879012831D109201A49086051
:1041E0000120A8710020E870022028710020E871E9
:1041F000FF202872002106E0124AEB79685C4340F8
:10420000D05CE871491C0729F6D310480168091EE3
:1042100032290FD20E4912220E4B0D685A550A68E8
:10422000521C322392FBF3F503FB15220A6001684E
:10423000491C0160012080F31388FFF7EBF9CEE100
:1042400090770020AC00002098800020B87F0020EC
:10425000B07F00206C7D0020F1800020F2800020E3
:10426000BA800020BC800020A879412861D1E8797B
:1042700001285ED1DFF8F8030078002859D1DFF873
:10428000F403E97901600068012852D10020DFF8C9
:10429000E81308700020DFF8E41308700020DFF84E
:1042A000E01308700020DFF8DC1308700020DFF84E
:1042B000D81308700020DFF8D41308700020DFF84E
:1042C000D01308700020DFF8CC1308700020DFF84E
:1042D000C81308700020DFF8C41308700020DFF84E
:1042E000C01308700020DFF8BC1308700020DFF84E
:1042F000B81308700020DFF8B41308700020DFF84E
:10430000B01308700020DFF8AC1308700020DFF84D
:10431000A81308700020DFF8A41308700020DFF84D
:10432000A01308700020DFF89C1308700020CF490C
:104330000870287A422803D1687ADFF88C13087055
:10434000A87A432840F09A800120DFF88013087093
:10435000DFF87C03E97A2A7B52EA0122697B51EA81
:104360000221AA7B52EA01220260DFF86883E97B1E
:104370002A7C52EA0122697C51EA0221AA7C52EA93
:104380000122C8F80020DFF85093E97C2A7D52EA28
:104390000122697D51EA0221AA7D52EA0122C9F86F
:1043A0000020CE4EE97D2A7E52EA0122697E51EA42
:1043B0000221AA7E52EA01223260C94F9FEDD38BBF
:1043C000006802F003FE53EC182B02F011FE0022ED
:1043D000C44B02F0DFFE03F001F83860D8F80000AB
:1043E00002F0F4FD53EC182B02F002FE0022BD4B4C
:1043F00002F0D0FE02F0F2FFBB490860D9F80000DD
:1044000002F0E4FD53EC182B02F0F2FD0022B54B54
:1044100002F0C0FE02F0E2FFB4490860306802F02A
:10442000D5FD53EC182B02F0E3FD0022AD4B02F05A
:10443000B1FE02F0D3FFAE490860AE4839680171A1
:10444000396809124171396809148171396809168E
:10445000C171A9480168091E32290FD2A749132248
:10446000A74B0E689A550A68521C322392FBF3F64A
:1044700003FB16220A600168491C0160E87E44289B
:104480001ED1287F012818D19B480168091E3229B6
:104490000FD29A4912229A4B0E689A550A68521CFA
:1044A000322392FBF3F603FB16220A600168491CD3
:1044B000016001205149087002E000204F49087056
:1044C000402068710120A8710020E8700220287146
:1044D0000020E871002106E08A4AEB79685C4340DD
:1044E000D05CE871491C0729F6D3FF202872092007
:1044F0008549086073E080480168091E32290FD29F
:104500007E4914227E4B0E689A550A68521C32234B
:1045100092FBF3F603FB16220A600168491C016056
:10452000502068710120A8710020E87002202871D5
:104530000020E871002106E0724AEB79685C434094
:10454000D05CE871491C0729F6D3FF2028720920A6
:104550006D49086043E009206B4908600020A8719C
:104560000020E87002202871002106E0654AEB79FE
:10457000685C4340D05CE871491C0729F6D3FF20F2
:1045800028722CE00920604908600020A8710020F2
:10459000E87002202871002106E05A4AEB79685C35
:1045A0004340D05CE871491C0729F6D3FF202872EC
:1045B00015E00920544908600020A8710020E87027
:1045C00002202871002106E04E4AEB79685C4340E6
:1045D000D05CE871491C0729F6D3FF2028720A999C
:1045E00089B249480068C0B2FFF74AF8200005F0D8
:1045F00028FDBDEC028BBDE8F18300BFD480002014
:10460000D6800020F87D00201C7E0020407E002007
:10461000647E0020C4800020C6800020D780002057
:10462000D8800020C0800020C28000202C00002004
:104630009C000020A40000206C7F0020C880002087
:10464000D5800020887E0020BE800020AC7E002027
:10465000D07E0020F47E0020D980002068800020D9
:104660006C80002070800020748000207E0200207A
:10467000EE80002064800020E6800020DA800020A8
:10468000DE800020EA800020E2800020E780002019
:10469000DB800020DF800020EB800020E380002012
:1046A000E8800020DC800020E0800020EC800020FA
:1046B000E4800020E9800020DD800020E1800020EF
:1046C000ED800020E5800020F0800020EF800020B9
:1046D000888000208C800020908000209480002022
:1046E0007880002000807640808000207C80002040
:1046F0008480002044000020B87F0020B07F00208C
:104700006C7D0020AC00002098800020000000009C
:104710000070B7402DE9FC4104000020002000900B
:10472000DFF8B06C300000200025002C01D1012002
:1047300013E194F84400002805D1002084F84500D6
:10474000200002F071F900200190DFF88C0C016864
:1047500051F480410160006810F48040019001989C
:10476000DFF8781C086830F4000008600A68206AE6
:1047700002430A604FF480572068C05950F001008E
:104780002168C85103F090FA80462068C059C007DC
:104790000FD503F089FAB0EB080040F2F51188421A
:1047A000F3D3032084F84400002084F8450003205C
:1047B000D3E02068076937F01C07FEF700F8DFF840
:1047C000201C411ADFF81C2C914202D257F0080736
:1047D0001AE0DFF8141C411ADFF8102C914202D2C3
:1047E00057F00C0710E0861BDFF8041C8E420BD339
:1047F000DFF8001C401ADFF8001C884202D257F094
:10480000040701E057F01007206807614FF40042E9
:104810000021200000F0D8FA002808D00121200053
:1048200000F0F5FB012084F84400012095E0FF2012
:1048300001F04CFE606800286DD003F035FA0700E7
:104840006A460121200000F07DFA41F2893603F02A
:104850002BFAC01BB04213D200984007F0D54FF49A
:1048600080520021200000F0AFFA002814D001216E
:10487000200000F0CCFB012084F8440001206CE013
:104880000121200000F0C3FB012084F84400002037
:1048900084F84500032060E003F006FA07006A464A
:1048A0000121200000F04EFA03F0FEF9C01BB042D7
:1048B00012D200988006F2D56A461021200000F03E
:1048C00041FA002814D00121200000F0A0FB0120B3
:1048D00084F84400012040E00121200000F097FB13
:1048E000012084F84400002084F84500032034E0CF
:1048F0000098400703D54FF40060E06001E000201D
:10490000E0600098800702D50020A0601DE04FF411
:104910008040A06019E0E268D20892B2A068400826
:1049200080B202430021200000F04EFA002808D097
:104930000121200000F06BFB012084F844000120DD
:104940000BE040F6FF7001F0C1FD2900200000F0EF
:104950005EFB012084F844000020BDE8F68170B4BD
:104960000400002094F94500012801D1022032E022
:10497000012084F84500022084F84400E16200250B
:104980001CE0F16019E0680101EB00065FF48010A3
:10499000306040F2F45000FB05F01044B060E06974
:1049A000002803D1306850F440003060581E854222
:1049B000E7D2680108442030F0606D1C9D42E2D3CC
:1049C000206841F210028150012084F84400002048
:1049D00084F84500002070BC704770B4002490F942
:1049E0004540012C01D1022034E0012480F84540EB
:1049F000022480F84440816200241EE0E9601BE04C
:104A000065010D445FF000462E6044F2F4566E607E
:104A100040F2F45606FB04F61644AE608669012E99
:104A200003D16E6826F000466E605E1EB442E5D289
:104A300066010E442036EE60641C9C42E0D302689E
:104A400041F20C03D150012180F84410002180F87C
:104A50004510002070BC704770B402000020002098
:104A6000002092F94500012801D1022089E00120AF
:104A700082F84500022082F84400002907D1012075
:104A800082F84400002082F84500012079E0D06AD5
:104A90000068002807D5122082F84400002082F820
:104AA000450001206DE040F2F55081420DD340F207
:104AB000F450B1FBF0F340F2F450B1FBF0F400FB22
:104AC0001410002802D05B1C00E00123012B13D13D
:104AD000D06A006850F04050D36A1860C904C90C0D
:104AE000D06A4160D06A006850F00040D16A086026
:104AF000D06AC068D0622FE000202BE0D46A24681E
:104B000034F04054D56A2C60002805D1D46A24685A
:104B100054F08054D56A2C6040F2F455D46A656034
:104B20005C1EA0420CD1D46A246854F00054D66AAA
:104B300034605C1E05FB1414E404E40CD56A6C605C
:104B4000D46A246854F00044D56A2C60D46AE468BE
:104B5000D462401C9842D1D341F214001168095824
:104B6000490707D50421136819500020116841F244
:104B70000403C850012082F84400002082F8450058
:104B8000002070BC7047002190F94510012901D127
:104B9000022046E0012180F84510022180F84410EF
:104BA000816A0968002935D4816A0968C9051DD55B
:104BB000816B491C8163816B012901D1816A016389
:104BC000816A4163816A0968C1F30D41091FC163AC
:104BD000016B89680164816AC9688162012180F87A
:104BE0004410002180F8451000201AE0816A09680D
:104BF000890509D5816A016300214163012181632F
:104C0000816AC968816205E0816B491C8163816AA0
:104C1000C9688162012180F84410002180F84510A4
:104C200001207047002190F94520012A01D102207E
:104C30004CE0012280F84520022280F8442006E062
:104C4000826A026301228263826AD2688262826A15
:104C50001268002A33D4042931D2491C826A1268AE
:104C600012F44072B2F5007FEAD0826A126812F440
:104C7000407F06D1826B521C8263826AD268826254
:104C8000E5E7816A4163816B491C8163816B01297E
:104C900001D1816A0163816A0968C1F30D41091F6D
:104CA000C163016B89680164816AC96881620121FD
:104CB00080F84410002180F84510002006E0012112
:104CC00080F84410002180F845100120704738B565
:104CD000040041F214052068405940060CD520001C
:104CE000FCF7FAFA402021684851012084F844007A
:104CF000002084F845000FE020684059C0070BD51C
:104D0000200005F065FB012021684851012084F84E
:104D10004400002084F845005FF480302168485149
:104D20002068405900040CD5200005F052FB4FF4D8
:104D3000004021684851012084F84400002084F894
:104D4000450031BDF8B504000E001500002000201C
:104D500094F84400822801D1022034E0822084F8B3
:104D600044002068006910F01C00218AC90211F477
:104D700078410843B6B2B60116F4F866064336F039
:104D8000020656F001062068066102F08DFF07005A
:104D900001E020680669F0070DD502F085FFC01B11
:104DA000B0F5803FF5D3012084F84400002084F85A
:104DB0004500032007E02068406980B22860012098
:104DC00084F844000020F2BD70B504000D000020FE
:104DD000002094F84400422801D1022033E0422010
:104DE00084F844002068006910F01C00218AC90280
:104DF00011F478410843ADB2AD0115F4F8650543EF
:104E000055F0020555F0010592B220684261206814
:104E1000056102F049FF060001E020680569E80726
:104E20000DD502F041FF801BB0F5803FF5D3012086
:104E300084F84400002084F84500032003E00120AA
:104E400084F84400002070BD10B5040094F94500BA
:104E5000012801D102201BE0012084F84500022036
:104E600084F84400200000F018FA200000F03DFA19
:104E7000200000F086FA200000F05FFA200000F029
:104E80006EFA012084F84400002084F845000020D8
:104E900010BD10B5040094F94500012801D102208D
:104EA0001BE0012084F84500022084F84400200023
:104EB00000F04CFA200000F05BFA200000F029FA24
:104EC000200000F05EFA200000F0FBF9012084F8D9
:104ED0004400002084F84500002010BD70B5050096
:104EE0000C00002095F94500012801D102208DE039
:104EF000012085F84500022085F84400002C6DD083
:104F000028680168DFF8F404014022686068024301
:104F1000A0680243E0680243A86802432069024394
:104F200060690243E8680243A0690243E069024302
:104F3000206A0243606A0243A06A02431143286860
:104F4000016028680668012001F0C0FA2868066040
:104F5000E16A206B0143606B0143A06B0143E06B8E
:104F60000143206C0143606C0143A06C014328683D
:104F7000416028684668012001F0A8FA2868466068
:104F8000E06C29688860206D2968C860286881699C
:104F90004FF641700140606DA26D52EA0042E06D33
:104FA0000243206E0243606E0243A06E024311432F
:104FB0002868816128688669012001F087FA2868DD
:104FC0008661E16E206F01432868C1612868C46969
:104FD000012001F07BFA2868C46110E028680168AC
:104FE00031F49041AA68E8680243114328680160DF
:104FF00028680468012001F069FA2868046001202B
:1050000085F84400002085F84500002070BD78B583
:10501000ADB004000020002905D04FF40060E0602E
:105020004FF48040A06000201090002011900020DC
:105030001290002013900020149000201590E06939
:10504000002803D14FF48060169001E000201690F4
:105050004FF4007017900020189000201990002045
:105060001A9000201B9000201C9040201D900020D2
:105070001E9000201F9000202090002021900020F2
:105080002290002023900020249000202590802052
:1050900026900020279000202890002029900020B2
:1050A0002A9000202B9000202C9020680168D34883
:1050B0000140109A11980243129802431398024338
:1050C000A06802431498024315980243E068024323
:1050D00016980243179802431898024319980243FE
:1050E0001A98024311432068016020680568012076
:1050F00001F0ECF9206805601B991C9801431D988C
:1051000001431E9801431F980143209801432198B1
:1051100001432298014320684160206845680120CE
:1051200001F0D4F9206845602398216888602498AC
:105130002168C860206881694FF641700140259858
:10514000269A52EA00422798024328980243299857
:1051500002432A98024311432068816120688569CF
:10516000012001F0B3F9206885612B992C98014347
:105170002068C1612068C569012001F0A7F9206895
:10518000C561002000905FF0007001900021029145
:105190005FF4001103910021049100210591002189
:1051A0000691002107910421089109905FF4803055
:1051B0000A905FF480000B904FF400500C90802018
:1051C0000D9000200E9000200F9041F218052068ED
:1051D00041598B480140009A0198024302980243CA
:1051E0000398024304980243059802430698024339
:1051F00007980243089802431143206841512068F0
:105200004659012001F062F9206846514FF480555B
:1052100009990A9801430B9801430C9801430D9892
:1052200001430E9851EA80010F98014351F40001A7
:105230002068415120684659012001F047F9206853
:105240004651A06901280CD141F21C00216809587F
:1052500041F4803151F04001226811506948FEF755
:105260005BF962690021200000F002F82EB070BDE9
:105270005379107950EA0320634B5B181860D0789B
:1052800093781B0453EA0063507853EA00231078A4
:1052900003435E4841180B6070471CB504000020B2
:1052A00000902068006850F00800216808602068BD
:1052B00000680090012000F07AF8009821680860EA
:1052C00013BD1CB50400002000902068006830F079
:1052D000080021680860206800680090012000F044
:1052E00066F800982168086013BD1CB50400002012
:1052F00000902068006850F0040021680860206871
:1053000000680090012000F052F8009821680860C1
:1053100013BD1CB50400002000902068006830F028
:10532000040021680860206800680090012000F0F7
:105330003EF800982168086013BD41F21801026828
:10534000525852F4005200684250704741F218011E
:105350000268525832F4005200684250704741F2DD
:1053600018010268525852F0020200684250704719
:1053700041F218010268525832F0020200684250AD
:10538000704738B504000020009041F218052068ED
:10539000405950F4801021684851206840590090CD
:1053A000012000F004F800982168485131BD81B017
:1053B00017490968C9084FF47A72B1FBF2F1484302
:1053C000009000BF0098411E00910028F9D101B063
:1053D00070470000008793034438024004380140BE
:1053E000002D3101C0E1E400C00E160240787D01BD
:1053F000005A620200E1F50580F0FA020F8120FFF9
:10540000233FDEF868F100084080024044800240FB
:105410000400002010B58AB0524C53482060534815
:10542000206353486063022060600020A060002079
:10543000E0605FF4602020615FF480006061002024
:10544000A0610120E0610120206200206062002054
:10545000A0620020E062200000F094F80020059097
:10546000002006900120079000200090002001906D
:10547000002002900020039000200490012008905A
:105480000E2009906946200000F04FF90AB010BDC7
:1054900010B586B000683449884242D1002000909F
:1054A0003448016851F000710160006810F000702C
:1054B00000900098002000902F48016851F48071FE
:1054C0000160016811F48071009100990021009140
:1054D000016851F002010160006810F002000090C4
:1054E00000984FF400740194022002900020039071
:1054F0000920059001A9214800F0E6FD0194022051
:105500000290022004900920059001A91C4800F097
:10551000DBFD002200211420FDF737FA1420FDF7EF
:1055200045FA06B010BD10B50E4A136B1860002086
:10553000136B98600020136BD8600820136B186100
:10554000002005E00B78146B04442375491C401CB3
:10555000136B1B699842F5D30321100000F068F922
:1055600010BD0000BC7B002000640040187F0020BC
:10557000D47D002040380240303802400004024010
:105580000020024070B5040000250020002C01D14D
:105590000120C9E094F93C00002805D1002084F8DE
:1055A0003D002000FFF774FF022084F83C002068D3
:1055B000006830F00200216808602068006850F040
:1055C00001002168086002F06FFB06002068406857
:1055D000C0070CD402F068FB801B0B28F6D3032015
:1055E00084F83C00002084F83D0003209CE0206803
:1055F0004068C00740F18B80A069012806D120686F
:10560000006850F080002168086005E020680068AC
:1056100030F0800021680860E069012806D1206828
:10562000006850F040002168086005E020680068CC
:1056300030F0400021680860206A012806D1206807
:10564000006850F020002168086005E020680068CC
:1056500030F0200021680860606A012806D12068C7
:10566000006850F010002168086005E020680068BC
:1056700030F0100021680860A06A012806D1206877
:10568000006850F008002168086005E020680068A4
:1056900030F0080021680860E06A012806D120681F
:1056A000006850F004002168086005E02068006888
:1056B00030F0040021680860A168E06801432069B7
:1056C0000143606901436068401E01432068C16175
:1056D00020680068400840002168086002F0E4FA91
:1056E000060020684068C0070CD502F0DDFA801B78
:1056F0000B28F6D3032084F83C00002084F83D00FA
:10570000032011E020684068C00700D40125012D66
:1057100006D100202064012084F83C00002003E032
:10572000042084F83C00012070BD30B4002001202A
:105730004A6910FA02F2DFF86433D3F8000250F03D
:105740000100C3F80002D3F8000230F47C50C3F823
:105750000002D3F800024C6A50EA0420C3F80002A9
:10576000D3F81C029043C3F81C02C869002816D164
:10577000D3F80C029043C3F80C02486903EBC00055
:10578000CC684D68C5EA0444C0F84042486903EB60
:10579000C0008C680D68C5EA0444C0F84442C8697A
:1057A000012816D1D3F80C021043C3F80C02486943
:1057B00003EBC0000C684D68C5EA0444C0F84042E1
:1057C000486903EBC0008C68CD68C5EA0444C0F8A2
:1057D00044428869002805D1D3F804029043C3F8F5
:1057E000040204E0D3F804021043C3F80402086979
:1057F000002804D1D3F814029043C3F814020869B6
:10580000012804D1D3F814021043C3F81402086A23
:10581000012804D1D3F81C020243C3F81C22D3F898
:10582000000240084000C3F80002002030BC70476E
:10583000F8B506000D0004200020306880684001A3
:1058400008D430688068000104D430688068C000E3
:1058500040F11E8196F93D00012801D102201BE193
:10586000012086F83D0096F93C00222804D0322819
:1058700006D0622808D00BE0422086F83C000AE0FF
:10588000522086F83C0006E0722086F83C0002E0D8
:10589000122086F83C0030688068400101D5002461
:1058A00006E030688068000101D5012400E0022490
:1058B000306821010844D0F8800110F001003168FF
:1058C00022011144C1F88001306B8068002811D199
:1058D000306821010844D0F88001316B0968326BCF
:1058E000D26852EA41521043316822011144C1F892
:1058F000800113E0306821010844D0F88011306B3A
:105900004068326B926852EAC002306BC068024352
:105910001143306822011044C0F88011306B007CC4
:1059200010F00F00316B0861306821010844D0F895
:10593000840100090001316822011144C1F8840189
:10594000306821010844D0F88411306B00690143AC
:10595000306822011044C0F88411306BC07D316B77
:10596000897D090451EA0061306B407D51EA0021D4
:10597000306B007D0143306822011044C0F888116B
:10598000306BC07E316B897E090451EA0061306B57
:10599000407E51EA0021306B007E014330682201D5
:1059A0001044C0F88C11306821010844D0F88001FF
:1059B00050F00100316822011144C1F8800102F069
:1059C00073F90700002C0AD1DFF87C04316889687C
:1059D0000140814201D1012018E0002016E0012C95
:1059E0000AD1DFF86804316889680140814201D139
:1059F00001200BE0002009E0DFF8540431688968D9
:105A00000140814201D1012000E00020002822D184
:105A100015F1010FD6D0002D04D002F045F9C01BBE
:105A20008542CFD2032086F83C00002C03D1802091
:105A3000316888600AE0012C04D14FF400403168DD
:105A4000886003E05FF4000031688860002086F819
:105A50003D00032020E096F93C00422804D0522863
:105A600006D0722808D00BE0222086F83C000AE01D
:105A7000322086F83C0006E0622086F83C0002E016
:105A8000012086F83C00002086F83D00002003E05D
:105A9000042086F83C000120F2BD000000640040B4
:105AA0000A00D2B2002A11D190F93C20222A0BD050
:105AB00090F93C20422A07D090F93C20622A03D07A
:105AC00090F93C20722A01D1022071E00A00D2B282
:105AD000012A11D190F93C20322A0BD090F93C20B8
