:020000040800F2
:100000001885002025F30008EDED0008EFED00084D
:10001000F1ED0008F3ED0008F5ED00080000000028
:10002000000000000000000000000000F7ED0008E4
:10003000F9ED000800000000FBED0008FDED0008F0
:1000400051F4000855F4000859F400085DF4000864
:1000500061F4000809EE000861EE00086BEE00088C
:1000600075EE00087FEE000889EE000865F40008D0
:1000700069F400086DF4000871F4000875F40008D4
:1000800079F400087DF4000881F4000885F4000884
:100090000BEE000889F400088DF4000891F40008C4
:1000A00095F4000899F400089DF40008A1F40008F4
:1000B00029EE00081FEE0008A5F40008A9F40008C6
:1000C000ADF40008B1F40008B5F40008B9F4000874
:1000D000BDF40008C1F40008C5F400083DEE0008B6
:1000E000C9F40008CDF40008D1F40008D5F40008E4
:1000F000D9F40008DDF40008E1F40008E5F4000894
:10010000E9F40008EDF4000833EE0008F1F400080B
:10011000F5F40008F9F40008FDF4000801F5000802
:1001200005F5000809F500080DF5000811F50008AF
:1001300015F5000815EE000819F500081DF5000872
:1001400021F5000825F5000829F500082DF500081F
:1001500031F5000835F5000839F500083DF50008CF
:1001600041F5000845F5000849F500084DF500087F
:1001700051F5000855F5000859F500080000000089
:100180005DF5000861F5000880B592B00020009090
:10019000DFF8F008016851F080510160006810F04C
:1001A00080500090009800200090DFF8DC08016883
:1001B00051F480410160006810F480400090009884
:1001C000012006905FF48030079002200C905FF4CD
:1001D00080000D9008200E904FF4A8700F90022020
:1001E00010900720119006A802F0A4F80F200190AB
:1001F00002200290002003904FF4A05004904FF48E
:1002000080500590052101A802F04EFA02F00DFB86
:1002100002F00FFB6421B0FBF1F002F006FC0420B9
:1002200002F007FC002200215FF0FF3002F0E7FB44
:1002300013B000BD2DE9F04102F05CFCFFF7A4FF14
:1002400002F072FC02F04CFD02F0ECFDDFF83C081D
:100250000168C96851F002010268D1600168C9688B
:1002600051F001010268D16002F048FEDFF8200879
:1002700003F0A2F903F0B4F900F0B2FBDFF81408C0
:1002800003F0BCF9DFF8100803F096F903F01FFA49
:10029000DFF8080804F00EFD05F004F9DFF8004867
:1002A0000021200005F044FC0020DFF8F81708804A
:1002B00001F0F8F8DFF8F00702F02EFE01F026F961
:1002C000DFF8E80702F028FE9FED890A002098E099
:1002D000DFF8DC57286800286BD0DFF8D8673100DA
:1002E00040F2016005F067F9012005F018FF3100C8
:1002F00040F2026005F05FF9012005F010FF3100C7
:1003000040F2036005F057F9012005F008FF3100C5
:1003100040F2046005F04FF9012005F000FFDFF81E
:10032000988740F205664146300005F044F9012007
:1003300005F0F5FEDFF884773900300005F03BF971
:10034000012005F0ECFE40F206664146300005F063
:1003500032F9012005F0E3FE3900300005F02BF9F9
:10036000012005F0DCFE40F207664146300005F052
:1003700022F9012005F0D3FE3900300005F01BF909
:10038000012005F0CCFE41464FF4C16005F013F9A1
:10039000012005F0C4FE39004FF4C16005F00BF9EF
:1003A000012005F0BCFE00202860DFF8140703F0F0
:1003B00003F905F062FFDFF80C070068002801D0A0
:1003C00001F0A4FBDFF800572868401E322801D254
:1003D00000F090F801F0E9FD2868401E322801D2B3
:1003E00000F088F803F051F9DFF8E0060068002813
:1003F00001D001F0B9F92868401E322801D200F07E
:1004000079F80021200005F093FBDFF8C456286836
:1004100000283FF45DAFDFF8BC66310040F20160B8
:1004200005F0C9F8012005F07AFE310040F20260C3
:1004300005F0C1F8012005F072FE310040F20360C2
:1004400005F0B9F8012005F06AFE310040F20460C1
:1004500005F0B1F8012005F062FE40F20566DFF814
:1004600078864146300005F0A6F8012005F057FED9
:10047000DFF848763900300005F09DF8012005F0DE
:100480004EFE40F206664146300005F094F8012029
:1004900005F045FE3900300005F08DF8012005F02B
:1004A0003EFE40F207664146300005F084F8012028
:1004B00005F035FE3900300005F07DF8012005F02B
:1004C0002EFE41464FF4C16005F075F8012005F09D
:1004D00026FE39004FF4C16005F06DF8012005F0EB
:1004E0001EFE00202860DFF8F40503F065F860E7E1
:1004F000000000002DE9F04757E0DFF8E40503F0C5
:100500005BF847E040F20567DFF8D8653100380056
:1005100005F051F8012005F002FE40F206683100B6
:10052000404605F048F8012005F0F9FD40F2076962
:100530003100484605F03FF8012005F0F0FD31009C
:100540004FF4C16005F037F8012005F0E8FDDFF851
:1005500098653100380005F02EF8012005F0DFFD28
:100560003100404605F027F8012005F0D8FD3100A4
:10057000484605F020F8012005F0D1FD31004FF488
:10058000C16005F018F8012005F0C9FDDFF85C0531
:1005900003F012F82868401C322190FBF1F201FBB5
:1005A000120028602068401E2060DFF81C4520688B
:1005B000002800F013822168DFF8340502F0FCFF08
:1005C000DFF83055DFF830052968405C012813D08A
:1005D00002285AD0032800F0A180042800F0C4802B
:1005E000112800F00781122800F06981132800F01B
:1005F000AD81142886D080E740F20166DFF8E87408
:100600003900300004F0D7FF012005F088FD40F2EA
:1006100002683900404604F0CEFF012005F07FFD5E
:1006200040F203693900484604F0C5FF012005F097
:1006300076FD40F2046A3900504604F0BCFF012008
:1006400005F06DFDDFF8B4743900300004F0B3FF3D
:10065000012005F064FD3900404604F0ACFF0120A4
:1006600005F05DFD3900484604F0A5FF012005F0C6
:1006700056FD3900504604F09EFF012005F04FFD65
:10068000DFF87C0402F098FF84E740F20166DFF8AF
:1006900074743900300004F08EFF012005F03FFD36
:1006A00040F202683900404604F085FF012005F061
:1006B00036FD40F203693900484604F07CFF012012
:1006C00005F02DFD40F2046A3900504604F073FF36
:1006D000012005F024FDDFF810743900300004F02B
:1006E0006AFF012005F01BFD3900404604F063FF5E
:1006F000012005F014FD3900484604F05CFF01209C
:1007000005F00DFD3900504604F055FF012005F0BD
:1007100006FDDFF8F40302F04FFF3BE7DFF8EC6380
:10072000310040F2016004F046FF012005F0F7FCC3
:10073000310040F2026004F03EFF012005F0EFFCC2
:10074000310040F2036004F036FF012005F0E7FCC1
:10075000310040F2046004F02EFF012005F0DFFCC0
:10076000EB4802F029FF15E740F20166DD4F390042
:10077000300004F020FF012005F0D1FC40F20268B7
:100780003900404604F017FF012005F0C8FC40F294
:1007900003693900484604F00EFF012005F0BFFC54
:1007A00040F2046A3900504604F005FF012005F0CC
:1007B000B6FCCD4F3900300004F0FDFE012005F0FD
:1007C000AEFC3900404604F0F6FE012005F0A7FC1F
:1007D0003900484604F0EFFE012005F0A0FC390086
:1007E000504604F0E8FE012005F099FCC94802F0EB
:1007F000E3FECFE6BC4E40F205673100380004F05E
:10080000DAFE012005F08BFC40F20668310040461C
:1008100004F0D1FE012005F082FC40F207693100AE
:10082000484604F0C8FE012005F079FC31004FF481
:10083000C16004F0C0FE012005F071FCAF4E310034
:10084000380004F0B8FE012005F069FC3100404694
:1008500004F0B1FE012005F062FC3100484604F0CE
:10086000AAFE012005F05BFC31004FF4C16004F0EA
:10087000A2FE012005F053FCA74E3100380004F021
:100880009AFE012005F04BFC3100404604F093FE37
:10089000012005F044FC3100484604F08CFE0120A4
:1008A00005F03DFC31004FF4C16004F084FE0120EE
:1008B00005F035FCDFF8E80B02F07EFE6AE6914EAB
:1008C00040F205673100380004F075FE012005F0A4
:1008D00026FC40F206683100404604F06CFE012020
:1008E00005F01DFC40F207693100484604F063FE44
:1008F000012005F014FC31004FF4C16004F05BFEF0
:10090000012005F00CFC784E3100380004F053FE55
:10091000012005F004FC3100404604F04CFE0120AB
:1009200005F0FDFB3100484604F045FE012005F0CE
:10093000F6FB31004FF4C16004F03DFE012005F0EC
:10094000EEFBDFF8C40B02F037FE23E65A4F40F20D
:1009500005663900300004F02EFE012005F0DFFBB3
:10096000DFF858814146300004F025FE012005F0F3
:10097000D6FB40F206663900300004F01CFE012070
:1009800005F0CDFB4146300004F015FE012005F0D6
:10099000C6FB40F207663900300004F00CFE01206F
:1009A00005F0BDFB4146300004F005FE012005F0D6
:1009B000B6FB39004FF4C16004F0FDFD012005F0E5
:1009C000AEFB41464FF4C16004F0F5FD012005F097
:1009D000A6FBDFF89C0B02F0EFFDDBE5BDE8F0873E
:1009E00010B586B005F0B8FC05F0F7FDDFF8840B14
:1009F00005907FF07F400490DFF87C0B039065202A
:100A000000900023A822C021DFF8700B02F0D4FD73
:100A100000200090FF23FF22FF21DFF8640B02F08B
:100A2000CBFD012000900023A822C021DFF8540B49
:100A300002F0C2FD174CDFF8500B0290DFF84C0BB0
:100A400001900020009003AB04AA05A9200005F046
:100A500006FE200005F096FE94F83300400707D507
:100A6000DFF82C0B02F0A8FD200005F097FE02E055
:100A7000200005F0B4FEDFF8E01C200005F0C1FE08
:100A800006B010BD4038024000700040987C002045
:100A9000ECF000084C7D0020ACF100088C7B0020BD
:100AA000D47B0020CE800020107D0020D47C00204C
:100AB00008800020140000205C0000206C00002052
:100AC00054F2000888800020D07F0020F87F0020AA
:100AD000048000200C0000200400002044F20008E4
:100AE00058F300083C00002024000020D4F1000846
:100AF000C0F10008CC7F0020847D0020340000205D
:100B000064F200082C00002034F3000844000020A8
:100B100040F3000874F200086400002070B5002162
:100B200014E0536B0C00A4B223441B7DDFF8644A2D
:100B30000D00ADB26355526B0B009BB21A44127D8F
:100B4000DFF8543A0C00A4B21A55491CDFF84C2ABD
:100B50000B009BB2546B2469A342E2D3516B096929
:100B6000082940F09284DFF8C81BDFF82C3A9C7803
:100B70005D7855EA04250D60526B126840F281548D
:100B8000121B16D0521E00F09680521E00F01581E6
:100B9000521E00F09481521E00F01382521E00F08B
:100BA0009C82521E00F02583521E00F0AE8300F09E
:100BB00037BC0A6842F20304A24204D11979DFF873
:100BC0009C2B116076E00A68B2F5005F04D11979B8
:100BD000DFF8882B51606DE00A6846F26004A2429B
:100BE00004D11979DFF8742B118163E00A6846F2A9
:100BF0006C04A24207D159791A7952EA0122DFF82E
:100C00005C1B4A8156E00A6846F27804A24207D18A
:100C100059791A7952EA0122DFF8401B8A8149E0AA
:100C20000A6846F29104A24207D159791A7952EA28
:100C30000122DFF8281B4A823CE00A6842F20B04DA
:100C4000A2420CD1D9799A7952EA01225C7954EA0C
:100C5000022419790C43DFF8041BCC612AE00A68EE
:100C600046F26B04A24207D159791A7952EA01225D
:100C7000DFF8E81A8A821DE00A6846F26304A2429D
:100C80000DD1D9799A7952EA0122597951EA022192
:100C90001A7952EA0122DFF8C41A8A610AE0096867
:100CA00046F29002914205D11979C1F30011DFF8A3
:100CB000AC2A1162B4E30A6842F20304A24204D1EE
:100CC0001979DFF89C2A116076E00A68B2F5005FB6
:100CD00004D11979DFF8882A51606DE00A6846F27C
:100CE0006004A24204D11979DFF8742A118163E00B
:100CF0000A6846F26C04A24207D159791A7952EA7D
:100D00000122DFF85C1A4A8156E00A6846F278044C
:100D1000A24207D159791A7952EA0122DFF8401A22
:100D20008A8149E00A6846F29104A24207D15979C2
:100D30001A7952EA0122DFF8281A4A823CE00A684E
:100D400042F20B04A2420CD1D9799A7952EA0122DB
:100D50005C7954EA022419790C43DFF8041ACC6157
:100D60002AE00A6846F26B04A24207D159791A793F
:100D700052EA0122DFF8E8198A821DE00A6846F289
:100D80006304A2420DD1D9799A7952EA01225979A4
:100D900051EA02211A7952EA0122DFF8C4198A6164
:100DA0000AE0096846F29002914205D11979C1F32F
:100DB0000011DFF8AC29116232E30A6842F2030441
:100DC000A24204D11979DFF89C29116076E00A6803
:100DD000B2F5005F04D11979DFF8882951606DE020
:100DE0000A6846F26004A24204D11979DFF8742936
:100DF000118163E00A6846F26C04A24207D1597976
:100E00001A7952EA0122DFF85C194A8156E00A6831
:100E100046F27804A24207D159791A7952EA01229E
:100E2000DFF840198A8149E00A6846F29104A2423B
:100E300007D159791A7952EA0122DFF828194A8232
:100E40003CE00A6842F20B04A2420CD1D9799A79AB
:100E500052EA01225C7954EA022419790C43DFF842
:100E60000419CC612AE00A6846F26B04A24207D159
:100E700059791A7952EA0122DFF8E8188A821DE0CE
:100E80000A6846F26304A2420DD1D9799A7952EAEE
:100E90000122597951EA02211A7952EA0122DFF836
:100EA000C4188A610AE0096846F29002914205D1AD
:100EB0001979C1F30011DFF8AC281162B0E20A68B9
:100EC00042F20304A24204D11979DFF8782B1160B1
:100ED00076E00A68B2F5005F04D11979DFF8642B77
:100EE00051606DE00A6846F26004A24204D11979AB
:100EF000DFF8502B118163E00A6846F26C04A242CD
:100F000007D159791A7952EA0122DFF8381B4A8150
:100F100056E00A6846F27804A24207D159791A7954
:100F200052EA0122DFF81C1B8A8149E00A6846F276
:100F30009104A24207D159791A7952EA0122DFF8C5
:100F4000041B4A823CE00A6842F20B04A2420CD124
:100F5000D9799A7952EA01225C7954EA0224197902
:100F60000C43DFF8E01ACC612AE00A6846F26B0411
:100F7000A24207D159791A7952EA0122DFF8C41A3C
:100F80008A821DE00A6846F26304A2420DD1D97933
:100F90009A7952EA0122597951EA02211A7952EAE0
:100FA0000122DFF8A01A8A610AE0096846F290027D
:100FB000914205D11979C1F30011DFF8882A116235
:100FC0002EE20A6842F20304A24204D11979DFF842
:100FD000202B116080E00A68B2F5005F04D1197916
:100FE000DFF80C2B516077E00A6846F26004A242F9
:100FF00004D11979DFF8F82A11816DE00A6846F208
:101000006C04A24207D159791A7952EA0122DFF819
:10101000E01A4A8160E00A6846F27804A24207D1E9
:1010200059791A7952EA0122DFF8C41A8A8153E009
:101030000A6846F29104A24207D159791A7952EA14
:101040000122DFF8AC1A4A8246E00A6842F20B0439
:10105000A2420CD1D9799A7952EA01225C7954EAF8
:10106000022419790C43DFF8881ACC6134E00A684D
:1010700046F26B04A24207D159791A7952EA012249
:10108000DFF86C1A8A8227E00A6846F26304A242FB
:101090000DD1D9799A7952EA0122597951EA02217E
:1010A0001A7952EA0122DFF8481A8A6114E00A68C4
:1010B00046F29004A24206D1197911F00101DFF83D
:1010C000302A116208E0096846F28902914203D190
:1010D0001979DFF8202A1160A2E10A6842F20304BC
:1010E000A24204D11979DFF8102A116080E00A6861
:1010F000B2F5005F04D11979DFF8FC29516077E07F
:101100000A6846F26004A24204D11979DFF8E8299E
:1011100011816DE00A6846F26C04A24207D1597948
:101120001A7952EA0122DFF8D0194A8160E00A6890
:1011300046F27804A24207D159791A7952EA01227B
:10114000DFF8B4198A8153E00A6846F29104A2429A
:1011500007D159791A7952EA0122DFF89C194A829B
:1011600046E00A6842F20B04A2420CD1D9799A797E
:1011700052EA01225C7954EA022419790C43DFF81F
:101180007819CC6134E00A6846F26B04A24207D1B8
:1011900059791A7952EA0122DFF85C198A8227E02C
:1011A0000A6846F26304A2420DD1D9799A7952EACB
:1011B0000122597951EA02211A7952EA0122DFF813
:1011C00038198A6114E00A6846F29004A24206D1F6
:1011D000197911F00101DFF82029116208E009688E
:1011E00046F28902914203D11979DFF81029116082
:1011F00016E10A6842F20304A24204D11979DFF829
:101200000029116080E00A68B2F5005F04D1197905
:10121000DFF8EC28516077E00A6846F26004A242E9
:1012200004D11979DFF8D82811816DE00A6846F2F7
:101230006C04A24207D159791A7952EA0122DFF8E7
:10124000C0184A8160E00A6846F27804A24207D1D9
:1012500059791A7952EA0122DFF8A4188A8153E0F9
:101260000A6846F29104A24207D159791A7952EAE2
:101270000122DFF88C184A8246E00A6842F20B0429
:10128000A2420CD1D9799A7952EA01225C7954EAC6
:10129000022419790C43DFF86818CC6134E00A683D
:1012A00046F26B04A24207D159791A7952EA012217
:1012B000DFF84C188A8227E00A6846F26304A242EB
:1012C0000DD1D9799A7952EA0122597951EA02214C
:1012D0001A7952EA0122DFF828188A6114E00A68B4
:1012E00046F29004A24206D1197911F00101DFF80B
:1012F0001028116208E0096846F28902914203D180
:101300001979DFF8AC2B11608AE00A6842F2030415
:10131000A24204D11979DFF89C2B116080E00A68A1
:10132000B2F5005F04D11979DFF8882B516077E0BE
:101330000A6846F26004A24204D11979DFF8742BDE
:1013400011816DE00A6846F26C04A24207D1597916
:101350001A7952EA0122DFF85C1B4A8160E00A68D0
:1013600046F27804A24207D159791A7952EA012249
:10137000DFF8401B8A8153E00A6846F29104A242DA
:1013800007D159791A7952EA0122DFF8281B4A82DB
:1013900046E00A6842F20B04A2420CD1D9799A794C
:1013A00052EA01225C7954EA022419790C43DFF8ED
:1013B000041BCC6134E00A6846F26B04A24207D1F8
:1013C00059791A7952EA0122DFF8E81A8A8227E06D
:1013D0000A6846F26304A2420DD1D9799A7952EA99
:1013E0000122597951EA02211A7952EA0122DFF8E1
:1013F000C41A8A6114E00A6846F29004A24206D137
:10140000197911F00101DFF8AC2A116208E00968CE
:1014100046F28902914203D11979DFF8042B116059
:10142000DFF8CC16DFF8D026DFF8D436DFF8844AB0
:101430000D6A166A56EA45061D6A55EA4605266A89
:1014400056EA4506DFF8985B2E704968526852EA02
:101450004102596851EA4201626852EA4102DFF8EA
:10146000841B0A70BD490989BD4A128952EA0112DA
:10147000DFF8741B0A70BB490989DFF8C825128997
:1014800052EA0112DFF8E41C0A70002104F050FB5C
:1014900070BD80B5DFF8D80C05F0D5FB01BD0000AC
:1014A00084F200081FB500200090DFF8400B0168AF
:1014B00051F001010160006810F0010000900098F7
:1014C000DFF8B04C5FF0804020604CF24F30E060BD
:1014D00040F61F506060002020610020A0602000C6
:1014E00001F0F0FC002001900020029001A92000F2
:1014F00005F04EFC002201211C2001F080FA1C2086
:1015000001F08EFA1FBD00004CF300081FB500204B
:101510000090DFF8D80A016851F00201016000680C
:1015200010F0020000900098DFF8C44ADFF8480C81
:1015300020604CF24F30E06040F28F60606000202D
:1015400020610020A060200001F0BCFC0020019080
:101550000020029001A9200005F01AFC00220221BF
:101560001D2001F04CFA1D2001F05AFA1FBD0000A9
:1015700094F20008C0A80065C0A8000104EF0008AC
:1015800034EF000864EF0008B9D500086F6C00085C
:10159000A4F20008D87A0020907F0020D47B00209D
:1015A00038B5DFF84C1A884249D10120DFF8441AD7
:1015B0000860DFF8440A0168091E322911D2DFF8F9
:1015C0003C1A2122DFF8383A0C681A550A68521C76
:1015D000322392FBF3F403FB14220A600168491CD6
:1015E00001600168091E322911D2DFF8101A242285
:1015F000DFF80C3A0C681A550A68521C322392FB29
:10160000F3F403FB14220A600168491C01600168BD
:10161000091E322980F08B80DFF8E0192522DFF8DF
:10162000E0390C681A550A68521C322392FBF3F415
:1016300003FB14220A600168491C016077E0DFF8AF
:10164000341B884263D1DFF8340B0168092930D19B
:10165000DFF8A4190A68121E322A11D2DFF89C2979
:101660002223DFF89C491568635513685B1C3224FC
:1016700093FBF4F504FB153313600A68521C0A60EF
:101680000A68121E322A11D2DFF870292323DFF8EC
:1016900070491568635513685B1C322493FBF4F59D
:1016A00004FB153313600A68521C0A6000210160B4
:1016B00002E00168491C0160DFF8C44A2168DFF8D4
:1016C000C40A01F079FF2068002807D10120DFF863
:1016D000B81A08602068401C206013E020683C288D
:1016E00007D10120DFF8A41A08602068401C2060A0
:1016F00008E020684B2802D10020206002E020682A
:10170000401C20602168CEA001F056FF0FE0DFF8FA
:10171000281B88420BD1DFF8240B0188B1F5004F5C
:1017200003D14FF40041018001E00321018031BD6C
:10173000A47F0020DFF8001B88420CD1DFF8FC0AF0
:101740000188B1F5004F03D04FF6FF71018002E030
:101750004FF4004101807047956C0008107E002016
:10176000347E0020587E00202DE9F84F40F20164BD
:10177000DFF8CC5A2900200003F01DFF012004F0FF
:10178000CEFC40F202662900300003F014FF012075
:1017900004F0C5FC40F203672900380003F00BFF9A
:1017A000012004F0BCFC40F204682900404603F02C
:1017B00002FF012004F0B3FCDFF8889A49462000BC
:1017C00003F0F9FE012004F0AAFC4946300003F0C2
:1017D000F2FE012004F0A3FC4946380003F0EBFEC2
:1017E000012004F09CFC4946404603F0E4FE012041
:1017F00004F095FCDFF8509A4946200003F0DBFE28
:10180000012004F08CFC4946300003F0D4FE012096
:1018100004F085FC4946380003F0CDFE012004F0B9
:101820007EFC4946404603F0C6FE012004F077FCEA
:10183000DFF8189A4946200003F0BDFE012004F0AD
:101840006EFC4946300003F0B6FE012004F067FC50
:101850004946380003F0AFFE012004F060FC494621
:10186000404603F0A8FE012004F059FCDFF8E0A98F
:101870005146200003F09FFE012004F050FC514629
:10188000300003F098FE012004F049FC5146380076
:1018900003F091FE012004F042FC5146404603F063
:1018A0008AFE012004F03BFCDFF8A8B9594620006D
:1018B00003F081FE012004F032FC5946300003F0B1
:1018C0007AFE012004F02BFC5946380003F073FE29
:1018D000012004F024FC5946404603F06CFE012030
:1018E00004F01DFCDFF870090068401E322801D2A8
:1018F000FEF700FE40F205642900200003F05BFEC5
:10190000012004F00CFC40F206662900300003F0D0
:1019100052FE012004F003FC40F207672900380062
:1019200003F049FE012004F0FAFB29004FF4C160E6
:1019300003F041FE012004F0F2FB4946200003F0D1
:101940003AFE012004F0EBFB4946300003F033FE81
:10195000012004F0E4FB4946380003F02CFE01208E
:1019600004F0DDFB49464FF4C16003F024FE012082
:1019700004F0D5FB5146200003F01DFE012004F0C9
:10198000CEFB5146300003F016FE012004F0C7FBE9
:101990005146380003F00FFE012004F0C0FB514611
:1019A0004FF4C16003F007FE012004F0B8FB594674
:1019B000200003F000FE012004F0B1FB5946300086
:1019C00003F0F9FD012004F0AAFB5946380003F0AA
:1019D000F2FD012004F0A3FB59464FF4C16003F06F
:1019E000EAFD012004F09BFBDFF87058290020007D
:1019F00003F0E1FD012004F092FB2900300003F028
:101A0000DAFD012004F08BFB2900380003F0D3FD40
:101A1000012004F084FB29004FF4C16003F0CBFDEA
:101A2000012004F07CFB00F00FF80020DFF8C41563
:101A30000860DFF82C0801F0BFFDBDE8F18F000061
:101A4000256400007C7E002080B52DED028B9FED8B
:101A50002D8BDFF81008806905F0C6F953EC182BC0
:101A600005F0E2F90022DFF8003805F0B3FA05F0DE
:101A7000D5FBDFF8F8170860DFF8F407806905F098
:101A8000B3F953EC182B05F0CFF90022DFF8D83763
:101A900005F0A0FA05F0C2FBDFF8D8170860DFF800
:101AA000D807806905F0A0F953EC182B05F0BCF9B4
:101AB0000022DFF8B43705F08DFA05F0AFFBDFF850
:101AC000BC170860DFF8B807806905F08DF953ECA2
:101AD000182B05F0A9F90022DFF88C3705F07AFA07
:101AE00005F09CFBDFF89C170860BDEC028B01BD84
:101AF000A07E0020A87F0020C47E0020AC7F0020B4
:101B0000E87E002000000000008076402DE9F84FBC
:101B100040F20166DFF870472100300003F04BFD12
:101B200040F202672100380003F045FD40F20368EF
:101B30002100404603F03FFD012004F0F0FA40F29E
:101B400004692100484603F036FDDFF840572900BC
:101B5000300003F030FD2900380003F02CFD012097
:101B600004F0DDFA2900404603F025FD290048462F
:101B700003F021FD0020DFF8A8130860CC490860BD
:101B8000DFF80C673060DFF80C77386040F20568EA
:101B9000DFF804974946404603F00DFD012004F0AC
:101BA000BEFA40F2066A4946504603F004FD0120A1
:101BB00004F0B5FA40F2076B4946584603F0FBFCC7
:101BC000012004F0ACFA49464FF4C16003F0F3FC85
:101BD000012004F0A4FADFF8C406DFF8C41689690E
:101BE000C9170160DFF8BC168969C917DFF8B82684
:101BF0001160DFF8B8168969C917DFF8B4261160DB
:101C0000AC498969C917DFF8AC2611600068002863
:101C100005D0DFF8A416404603F0CDFC04E0DFF861
:101C20009C16404603F0C7FC012004F078FADFF868
:101C300078060068002805D0DFF87C16504603F0CF
:101C4000BAFC04E0DFF87416504603F0B4FC01203F
:101C500004F065FADFF858060068002805D0DFF8C0
:101C60005816584603F0A7FC04E0DFF85016584613
:101C700003F0A1FC012004F052FADFF838060068F6
:101C8000002806D0DFF830164FF4C16003F093FC53
:101C900005E0DFF828164FF4C16003F08CFC01204A
:101CA00004F03DFA3868FE282FD0DFF814164046BD
:101CB00003F081FC012004F032FA4946404603F06B
:101CC0007AFC012004F02BFA06E04946404603F076
:101CD00072FC0A2004F023FA3868FE28F5D12100AE
:101CE000404603F068FC012004F019FA2900404640
:101CF00003F061FC012004F012FADFF8C815404639
:101D000003F059FC012004F00AFA3868FE2832D1A9
:101D10003068FE282FD0DFF8A815504603F04BFCA2
:101D2000012004F0FCF94946504603F044FC012030
:101D300004F0F5F906E04946504603F03CFC0A2061
:101D400004F0EDF93868FE28F5D12100504603F083
:101D500032FC012004F0E3F92900504603F02BFC8B
:101D6000012004F0DCF9DFF85C15504603F023FC99
:101D7000012004F0D4F93868FE2839D13068FE28F3
:101D800036D14B480068FE2832D0DFF8341558466B
:101D900003F011FC012004F0C2F94946584603F053
:101DA0000AFC012004F0BBF909E04946584603F05B
:101DB00002FC012004F0B3F90A2004F0B0F93868FD
:101DC000FE28F2D12100584603F0F5FB012004F073
:101DD000A6F92900584603F0EEFB012004F09FF914
:101DE000DFF8E014584603F0E6FB012004F097F911
:101DF0003868FE2843D13068FE2840D12C4800685E
:101E0000FE283CD146480068FE2838D0DFF8B014E0
:101E10004FF4C16003F0CFFB012004F080F9494684
:101E20004FF4C16003F0C7FB012004F078F90AE029
:101E300049464FF4C16003F0BEFB012004F06FF986
:101E40000A2004F06CF93868FE28F1D121004FF423
:101E5000C16003F0B0FB012004F061F929004FF4E8
:101E6000C16003F0A8FB012004F059F9DFF8541415
:101E70004FF4C16003F09FFB012004F050F9386873
:101E8000FE2812D13068FE280FD109480068FE28CC
:101E90000BD123480068FE2807D10120DFF8281461
:101EA00008700020DFF824140860BDE8F18F0000FE
:101EB000B07F00200C7F002038B5DFF81444A0422A
:101EC0002DD1DFF878030188012904D04FF6FF7285
:101ED00091420BD00DE0022101800020DFF8F413C5
:101EE0000880DFF8540301F009F802E04FF40041E4
:101EF0000180DFF8E0030288DFF8DC130B78DFF8FD
:101F0000DC5392B2AB540288521C02800020DFF8EE
:101F10002823126850620122200005F046FA31BDE4
:101F2000B47F002038B5344C2168DFF8B40301F0E9
:101F300043FBDFF8B05332482968405CDFF8A81350
:101F40000860212807D024D3232810D009D32528BE
:101F500019D012D31DE001224321012005F079FDA3
:101F600017E001221021012005F073FD11E001228C
:101F70001421012005F06DFD0BE001220E2101204E
:101F800005F067FD05E001220F21012005F061FD4C
:101F9000FFE72868401C322190FBF1F201FB1200A0
:101FA00028602068401E206031BD10B5A34C2088F9
:101FB000B0F5004F01D1002020802088032801D1F6
:101FC00000F020F82088002808D10B480068401E47
:101FD000322803D2FFF7A6FF0120208010BD0000A9
:101FE000FA800020F7800020EE8000204038024078
:101FF000D47C0020F87F0020DC7F0020D47F0020EC
:10200000B87D002070B5B94EB44CB24D2988891EF8
:10201000200005F0FFFC3080B548318889B2328855
:10202000120252EA11220280298889B2214411F851
:10203000021C2A880088C9B292B2224412F8012CEC
:1020400052EA0122904240F08A80207801285AD139
:102050006078032853D1A078C0B22988491F8842EC
:1020600049D1A1480068212807D043D323281AD09A
:102070000ED3252833D027D33CE09E4801F09CFAAC
:10208000E078C0B2217951EA00219B48018069E0E3
:102090009A4801F091FAE078C0B2217951EA002122
:1020A000954841805EE0964801F086FAE0789249D2
:1020B000C0B2227952EA00228A80888880000A22EF
:1020C00090FBF2F088804DE08E4801F075FAE078E0
:1020D000C0B2217951EA00218748C18042E08A4894
:1020E00001F06AFAE078C0B2217951EA0021824811
:1020F000018137E036E0854801F05EFA32E084483D
:1021000001F05AFA2EE02078022810D160780328D6
:1021100009D1A078C0B22988491F884222D07B48C3
:1021200001F04AFA1EE07A4801F046FA1AE02078F7
:10213000032810D16078032809D1A078C0B229887B
:10214000491F88420ED0714801F036FA0AE0704803
:1021500001F032FA06E06F4801F02EFA02E06E4814
:1021600001F02AFA00203549088070BDEF80002078
:102170004C7D0020107D002000040040FC7F0020EA
:102180000080002008F10008048000200880002062
:10219000010089B201290CD160490868002802D0E9
:1021A0000020086001E00120086001205C4908600F
:1021B00041E0010089B202290CD15A49086800287F
:1021C00002D00020086001E001200860022054498C
:1021D000086030E0010089B204290CD15249086836
:1021E000002802D00020086001E0012008600420DF
:1021F0004B4908601FE0010089B208290CD14B4906
:102200000868002802D00020086001E00120086072
:102210000820434908600EE080B210280BD14449E1
:102220000868002802D00020086001E00120086052
:1022300010203B4908607047987C0020CE80002029
:10224000740000207C000020840000208C0000200E
:10225000940000209C000020D07F0020A4000020DB
:1022600024F10008107E00200070B7408C80002010
:10227000347E002090800020587E00209480002032
:102280007C7E0020988000202C000020240000206C
:10229000AC7F0020A87F0020AC000020B87F002089
:1022A000A07E0020C47E0020BC7F0020E87E0020AD
:1022B000C07F0020C47F00204C000020540000207C
:1022C0006C0000203400002096020020888000204E
:1022D000587C0020C8800020EC800020087200207C
:1022E00058F10008D87F0020E07F0020D280002035
:1022F000D0800020B4F20008847F002070F1000834
:10230000C4F20008E8F10008FCF10008D4F200086B
:10231000E4F2000864F3000870F30008E47F002092
:10232000143C0140E87F0020EC7F0020F07F00207B
:10233000F47F0020F8B5040000202078C0075CD5A9
:10234000DFF83803016811F00C01042909D0006896
:1023500010F00C0008280ED1DFF8240300684002BA
:1023600009D5DFF820030068800346D5606800289F
:1023700043D1012081E16068B0F5803F06D1DFF8EC
:102380000403016851F48031016017E06068B0F522
:10239000A02F0AD1DFF8EC02016851F4802101601E
:1023A000016851F48031016008E0B648016831F4F9
:1023B00080310160016831F480210160606800288B
:1023C0000DD005F08FFB0500AE480068800314D4E3
:1023D00005F088FB401B6528F6D303204DE105F08E
:1023E00081FB0500A7480068800306D505F07AFB4D
:1023F000401B6528F6D303203FE12078800722D5D3
:102400009E48016811F00C0F08D0006810F00C0015
:1024100008282FD19A48006840022BD499480168B7
:10242000890704D5E168012901D0012025E101686F
:102430005FF0F852B2FA82F231F0F801236913FA30
:1024400002F2114301602078000756D56069002828
:1024500042D001208C49086005F044FB05008B4800
:102460000068800749D405F03DFB401B0328F6D3E4
:10247000032002E1E06800281DD0012084490860A3
:1024800005F030FB05007F480168890706D405F098
:1024900029FB401B0328F6D30320EEE001685FF020
:1024A000F852B2FA82F231F0F801236913FA02F21B
:1024B00011430160C7E700207549086005F012FB71
:1024C0000500704800688007BDD505F00BFB401B78
:1024D0000328F6D30320D0E000206B49086005F004
:1024E00001FB050069480068800706D505F0FAFA87
:1024F000401B0328F6D30320BFE0207840075FD5B8
:10250000002000906348016851F08051016000682C
:1025100010F08050009000985F4E306850F480704A
:10252000306005F0DFFA05003068C00506D405F01C
:10253000D9FA401B0328F7D303209EE0A0680128A6
:1025400005D15648016851F00101016015E0A0680D
:10255000052809D15148016851F004010160016862
:1025600051F00101016008E04C4801684908490048
:102570000160016831F004010160A06800280FD0FB
:1025800005F0B0FA050045480068800718D405F04A
:10259000A9FA401B41F289318842F4D303206CE050
:1025A00005F0A0FA05003D480068800708D505F051
:1025B00099FA401B41F289318842F4D303205CE050
:1025C000A069002858D02D48006810F00C00082899
:1025D00050D0A06902283CD1314E0020306005F077
:1025E00081FA0700274D2868800106D505F07AFAA0
:1025F000C01B0328F6D303203FE02A48B0FA80F13D
:102600004FF44040B0FA80F2F020B0FA80F3E7696E
:10261000206A0743606A10FA01F13943A06A400852
:10262000401E10FA02F21143E06A10FA03F3194354
:10263000134801600120306005F054FA0400286856
:10264000800119D405F04EFA001B0328F7D30320AC
:1026500013E000201249086005F044FA040009481C
:102660000068800108D505F03DFA001B0328F6D369
:10267000032002E0012000E00020F2BD0838024003
:102680000438024000380240800E4742743802404D
:10269000000047424038024000700040703802405D
:1026A000600047420000FE032DE9F04104000D00E8
:1026B0000020714E306810F00F00A84207D235702C
:1026C000306810F00F00A84201D00120ABE0207864
:1026D000800706D569490A6832F0F002A068024313
:1026E0000A602078C00768D56068012805D1644871
:1026F0000068800313D4012095E06068022802D0AE
:102700006068032805D15E480068800107D4012075
:1027100089E05B480068800701D4012083E0574FBF
:1027200039688908890060680143396005F0DAF981
:102730008046606801280ED1386810F00C0004282B
:102740003BD005F0CFF9B0EB080041F28931884267
:10275000F2D3032067E0606802280ED1386810F0D9
:102760000C00082829D005F0BDF9B0EB080041F2B3
:1027700089318842F2D3032055E0606803280ED1E6
:10278000386810F00C000C2817D005F0ABF9B0EB4E
:10279000080041F289318842F2D3032043E03868CF
:1027A00010F00C0F09D005F09DF9B0EB080041F2D4
:1027B00089318842F3D3032035E0306810F00F00F0
:1027C000854207D23570306810F00F00A84201D062
:1027D000012028E02078400706D528490A6832F40D
:1027E000E052E06802430A602078000707D52348DA
:1027F000016831F46041226951EAC201016000F0D0
:1028000049F81E4909685FF07062B2FA82F21D4B06
:1028100011F0F001D140595CC8401B49086000200C
:1028200005F066F90020BDE8F08101201749086035
:10283000704715480068704780B5FFF7FAFF0F49E9
:1028400009685FF46012B2FA82F2114B11F4E051A0
:10285000D140595CC84002BD80B5FFF7EAFF074987
:1028600009685FF4E022B2FA82F2094B11F4604188
:10287000D140595CC84002BD003C024008380240CB
:1028800000380240F4F200081C0000204C004742CF
:1028900020F4000810B400200020002000201F4871
:1028A000006810F00C00002804D0042804D0082888
:1028B00004D030E01A482FE01A482DE01A49086881
:1028C00010F03F000A6852020CD50B68174AB2FAA2
:1028D00082F4144AB2FBF0F247F6C0700340E340C2
:1028E0005A430BE00B68114AB2FA82F40C4AB2FB6D
:1028F000F0F247F6C0700340E3405A4308684FF4D3
:102900004041B1FA81F110F44030C840401C400011
:10291000B2FBF0F000E0024810BC704708380240FB
:102920000024F40000127A00043802400000FE0384
:1029300010F00700464B1A684FF6FF010A40454960
:1029400051EA00210A431A60704741480068C0F309
:1029500002207047012210F01F018A403E4940B218
:10296000400941F820207047020052B2002A08D5E1
:1029700009013A4A40B210F00F00104400F8041C5C
:1029800003E00901364A40B21154704710B410F008
:102990000700D0F10703052B01D3042301E0D0F198
:1029A0000703041D072C01D2002000E0C01E0124F3
:1029B00014FA03F35B1E1940814014FA00F0401E24
:1029C0001040084310BC704780B5411EB1F1807FB4
:1029D00001D301200EE0401E224908600F215FF064
:1029E000FF30FFF7C1FF00201F49086007201F4983
:1029F0000860002002BD80B5FFF79AFF01BD70B5E9
:102A000004000D0016000020FFF79FFF3200290090
:102A1000FFF7BCFF0100200040B2FFF7A5FF70BD2B
:102A200080B540B2FFF796FF01BD80B5FFF7CCFF40
:102A300002BD042805D10D48016851F00401016070
:102A400004E00A48016831F00401016070470000A9
:102A50000CED00E00000FA0500E100E018ED00E0F8
:102A600000E400E014E000E018E000E010E000E026
:102A700080B500F001F801BD7047F0B4024610685F
:102A800095681318506803EB5004C0071DD54D44DA
:102A90001BE013F8017B05F8017B491EF9D1A0B1B9
:102AA000B60813F8011B06F00306032E08BF13F83F
:102AB000016B01EB06214942801C294405D011F825
:102AC000016B05F8016B401EF9D1A3420ED013F83B
:102AD000016B16F0030104BF13F8011BC91C300978
:102AE0000F28DAD113F8010B0F30D6E7F0BC02F152
:102AF0000C00704780B50B48016851F4007101600B
:102B0000016851F480610160016851F480710160D5
:102B10000320FFF770FF002004F0EAFF04F0FCFF41
:102B2000002002BD003C024038B586B00020009075
:102B30003148016851F040010160016811F0400125
:102B40000091009900210091016851F0200101607D
:102B5000006810F0200000900098284D00224FF4EB
:102B60007041280005F0FEF8254C00221F212000AE
:102B700005F0F8F84FF47040019001200290002019
:102B8000049001A9280004F0FFFF1F2001901D48B8
:102B90000290012003900320049001A9200004F07A
:102BA000F3FF012200210620FFF729FF0620FFF78F
:102BB00037FF012200210720FFF721FF0720FFF741
:102BC0002FFF012201210820FFF719FF0820FFF73E
:102BD00027FF022201210920FFF711FF0920FFF73B
:102BE0001FFF032201210A20FFF709FF0A20FFF738
:102BF00017FF07B030BD00BF30380240001402405C
:102C0000001802400000311010B586B001687A4A01
:102C100091421AD1002005907848016851F01001C6
:102C20000160006810F0100005900598C020009029
:102C300002200190012002900320039007200490BD
:102C400069466F4804F0A0FF48E000686D4988427B
:102C500044D1002005906C48016851F48021016046
:102C6000006810F4802005900598002005906748C2
:102C7000016851F080010160006810F0800005904B
:102C800005984FF48060009002200190032003908B
:102C9000072004905A4C6946200004F075FF4FF459
:102CA0000060009002200190002002900720049014
:102CB0006946200004F068FF554C00224FF48071F3
:102CC000200005F04FF84FF4807000900120019033
:102CD000022003906946200004F056FF06B010BDA4
:102CE0001CB5002000904948016851F002010160C4
:102CF000006810F002000090009846483E490160CC
:102D00005FF4E1314160002181600021C160002158
:102D100001610C214161002181610021C16104F048
:102D20009BFA002000903848016851F4802101602E
:102D3000006810F48020009000982BA000F03CFC6C
:102D4000354C304820604FF4165060604FF480508E
:102D5000A0600020E0604FF4806020610C20606182
:102D60000020A0610020E0612C4800F025FC20003C
:102D700004F072FA1DA000F01FFC002200212720A1
:102D8000FFF73DFE2720FFF74BFE19A000F014FCD3
:102D900001222349200004F008FB16A000F00CFCDF
:102DA00013BD70B504000D00194E01224FF480715F
:102DB000300004F0D7FF4FF6FF732A0092B22100D3
:102DC000154804F084FA00224FF48071300004F0BA
:102DD000C9FF70BD01B54FF6FF73012269460D486A
:102DE00004F075FA009802BD310A0000320A0000B2
:102DF000330A0000340A0000001001404438024049
:102E00000004024000480040403802403038024090
:102E1000001C0240187C0020587C002000F40008B0
:102E2000EC80002018B58BB0234C24482060532040
:102E300060600020A06040F64660E06000202061F5
:102E40000821200000F076F84FF48050079007A981
:102E5000200000F081F93020009040F21A600190CB
:102E6000002002900820039000200490002005908C
:102E70000020069000226946200000F03EF90CB0C8
:102E800010BD80B500680D49884213D10020009024
:102E90000B48016851F008010160006810F008005B
:102EA00000900098002200213220FFF7A8FD322078
:102EB000FFF7B6FD01BD0000987C0020000C00402B
:102EC0004038024010B50400002C01D1012014E06C
:102ED00094F93900002805D1002084F8380020003A
:102EE00000F069FB022084F83900211D206800F001
:102EF000BFF9012084F83900002010BD022180F8BC
:102F000039100168096851F001010268116001215E
:102F100080F83910002070470168C96851F001013C
:102F20000268D1600168096851F001010068016020
:102F30000020704738B504000D00002C01D101209D
:102F40001FE094F93900002805D1002084F83800EA
:102F50002000FFF796FF022084F83900211D206829
:102F600000F086F92068006830F0080021680860E9
:102F700020680068054320680560012084F8390056
:102F8000002032BD10B504002068006980071AD502
:102F90002068C068800716D57FF0020021680861AC
:102FA000012020762068806910F0030F03D02000F4
:102FB00004F010FF05E02000FEF7BCFB200004F049
:102FC0000AFF002020762068006940071AD5206893
:102FD000C068400716D57FF0040021680861022010
:102FE00020762068806910F4407F03D0200004F030
:102FF000F1FE05E02000FEF79DFB200004F0EBFE53
:10300000002020762068006900071AD52068C06873
:10301000000716D57FF0080021680861042020769B
:103020002068C06910F0030F03D0200004F0D2FE26
:1030300005E02000FEF77EFB200004F0CCFE00201F
:10304000207620680069C0061AD52068C068C006CE
:1030500016D57FF0100021680861082020762068CE
:10306000C06910F4407F03D0200004F0B3FE05E0F7
:103070002000FEF75FFB200004F0ADFE002020766C
:1030800020680069C0070AD52068C068C00706D557
:103090007FF00100216808612000FEF781FA2068B6
:1030A000006900060AD52068C068000606D57FF0D2
:1030B000800021680861200004F08EFE206800690D
:1030C00040060AD52068C068400606D57FF040005B
:1030D00021680861200004F080FE206800698006F5
:1030E0000AD52068C068800606D57FF020002168D8
:1030F0000861200004F072FE10BD10B5040094F9C0
:103100003800012801D1022025E0012084F8380090
:10311000022084F83900002A06D0042A08D0082AA0
:103120000AD00C2A0CD00FE0206800F04EF90BE01A
:10313000206800F00FF907E0206800F07CF903E058
:10314000206800F0B2F9FFE7012084F83900002080
:1031500084F83800002010BD10B50400002094F958
:103160003800012801D1022081E0012084F83800D4
:10317000022084F839002068806830F0770030F44D
:103180007F40226890600868002855D0102858D0E9
:1031900020285BD030285ED0402843D050282DD046
:1031A000602835D070280DD0B0F5805F03D0B0F521
:1031B000005F16D054E020688068C008C000216815
:1031C00088604DE0CB684A688968206800F0E7F9BC
:1031D0002068806830F0770050F0770021688860C0
:1031E0003EE0CB684A688968206800F0D8F920681A
:1031F000806850F480402168886031E0CA6849687E
:10320000206800F099F95021206800F0BEF927E00D
:10321000CA684968206800F0A3F96021206800F0BE
:10322000B4F91DE0CA684968206800F085F94021BA
:10323000206800F0AAF913E00021206800F0A5F949
:103240000EE01021206800F0A0F909E0202120689C
:1032500000F09BF904E03021206800F096F9FFE7C8
:10326000012084F83900002084F83800002010BDC7
:1032700010B400220468DFF89432984212D0B0F102
:10328000804F0FD0DFF8882290420BD0DFF88422E5
:10329000904207D0DFF88022904203D0DFF87C22F2
:1032A000904201D1012200E00022D2B2002A03D0D4
:1032B00034F070044A68144398422AD0B0F1804F29
:1032C00027D0DFF84C22904223D0DFF848229042EA
:1032D0001FD0DFF8442290421BD0DFF840229042FA
:1032E00017D0DFF83C22904213D0DFF8382290420A
:1032F0000FD0DFF8342290420BD0DFF8302290421A
:1033000007D0DFF82C22904203D0DFF82822904229
:1033100001D1012200E00022D2B2002A03D034F40D
:103320004074CA68144304608A68C2620A68826290
:10333000984203D0DFF8E421904201D1012200E05D
:103340000022D2B2002A01D0096901630121416142
:1033500010BC704730B4002200220022026A32F012
:1033600010020262046A4568836933F4E04333F46F
:1033700040730A6853EA022334F020048A6854EA4E
:103380000214624A904202D0644A904201D1012262
:1033900000E00022D2B2002A10D034F08004CA68C3
:1033A00054EA021434F0400435F4806535F40065C5
:1033B0004A6955EA82058A6955EA82054560836152
:1033C00049688163046230BC704730B40022002237
:1033D0000022026A520852000262046A4568836948
:1033E00033F070039B089B000A68134334F0020417
:1033F0008A681443454A904202D0484A904201D11B
:10340000012200E00022D2B2002A0DD034F00804DC
:10341000CA68144334F0040435F4807535F400753B
:103420004A6915438A691543456083614968416368
:10343000046230BC704730B4002200220022026ACD
:1034400032F480720262046A4568C36933F0700323
:103450009B089B000A68134334F400748A6854EA9A
:1034600002242A4A904202D02C4A904201D10122E1
:1034700000E00022D2B2002A10D034F40064CA68FE
:1034800054EA022434F4806435F4805535F4005550
:103490004A6955EA02158A6955EA02154560C36111
:1034A0004968C163046230BC704730B40022002216
:1034B0000022026A32F480520262046A4568C369DB
:1034C00033F4E04333F440730A6853EA022334F4DC
:1034D00000548A6854EA02340C4A904202D00F4ADF
:1034E000904201D1012200E00022D2B2002A04D091
:1034F00035F480454A6955EA82154560C3614968DB
:103500000164046230BC704700000000000001400C
:103510000004004000080040000C0040000401408E
:1035200000400140004401400048014000180040B4
:10353000001C00400020004010B400230023046A57
:10354000036A5B085B000362836933F0F00353EAAC
:10355000021334F00A0421438361016210BC7047F6
:1035600010B400230023036A33F01003036283695D
:10357000046A33F4704353EA023334F0A00454EA8B
:1035800001148361046210BC70470022826832F02B
:10359000700289B251F0070111438160704710B485
:1035A0000024846834F47F44114351EA0321214309
:1035B000816010BC704770470EB4C0B5024603A8C6
:1035C00000210190009101AB0121044878440C30A6
:1035D00004F006FC06BC5DF810FB00BFADBB0000AC
:1035E00080B502F0B9FE02F0F8FF03F037F805F0FD
:1035F0009BFB05F0AFFD02F0D6FD01BD00B585B027
:1036000090F83310C9070CD5001D06F053FB0200DB
:1036100021A1684606F0A4FB69462048FFF7CCFFCD
:1036200002E01F48FFF7C8FF05B000BD10B588B025
:10363000040094F8330040071FD51A48FFF7BCFF79
:10364000194802907FF07F400190184800906B4627
:1036500001AA02A9200003F041F8201D06F02AFB70
:1036600002000DA103A806F07BFB03A90B48FFF79E
:10367000A3FF200003F092F805E0200003F0AFF86C
:103680000748FFF799FF08B010BD80B5084803F060
:10369000DAFA02F0F2FD01BD2573000040F10008E6
:1036A00094EF0008BCEF0008C0A80065C0A80001A6
:1036B0004C7D0020BFF34F8F29490A6812F4E06265
:1036C000284802430A60BFF34F8F00BFFDE738B5BB
:1036D000254D05F00DFD2860286800281CD02348E2
:1036E0002349086040F2D2422249286805F0B6FC1E
:1036F0000400200040B200280ED11F48FFF75CFFF5
:1037000064B2002C08D11D48FFF756FF00220FF2CB
:103710007901286805F0E9FC1948FFF74DFF31BD34
:1037200070B505000E0003222900C9B289B200203D
:1037300006F036FB0400002C11D0EDB22A0092B244
:103740001049200006F0DBFD33009BB2084A21003F
:103750000548006805F0D9FB200006F0B8FC70BDF4
:103760000CED00E00400FA0584800020C0A80013DE
:10377000C080002048F4000830F4000838F4000845
:10378000E8F30008A87700202DE9F8432DED028B1F
:10379000140000216368002004E01A5CDFF8385B45
:1037A0002A54401C0528F8D3DFF82C5B2878FA2827
:1037B00040F04B87E87801432A7952EA0122D21D72
:1037C000002002E0195C2954401C511E8842F9D3A4
:1037D0006089824240F02287A878012840F0D08298
:1037E000687900280ED0102845D020287AD03028BB
:1037F00000F08F81402800F0C881502800F08A82B4
:1038000000F039BFA879012817D10020E870022004
:103810002871002068710120A8710020E871002142
:1038200007E0DFF8B82AEB79685C4340D05CE871C8
:10383000491C0729F5D3FF2028720920DFF8A01AB8
:103840000860DFF8A00A0168091E322911D2DFF8EA
:10385000981A0122DFF8943A0D685A550A68521CEA
:10386000322392FBF3F503FB15220A600168491C21
:10387000016000F000BFA879112803D1E879DFF8D2
:10388000701A0870287A122803D1687ADFF8641A4F
:103890000870A87A132807D1E87ADFF85C1A088044
:1038A000287BDFF8581A08800020E8700220287171
:1038B000102068710120A8710020E871002107E044
:1038C000DFF8182AEB79685C4340D05CE871491C4A
:1038D0000729F5D3FF2028720920DFF8041A0860B1
:1038E00000F0C9BE0020E8704820287120206871CF
:1038F0000120A8712120E871002028720020687240
:103900000020A8720020E87222202873DFF8840DBE
:10391000007868732320A873DFF87C0D0078E873C3
:1039200024202874DFF8740D818AA974B0F914106A
:1039300009126974DFF8681D8A8A2A75B1F91420A2
:103940001212EA74DFF85C2D938AAB75B2F9143069
:103950001B126B75DFF8503D9E8A2E76B3F914600A
:103960003612EE7525266E76B0F90A60EE7636B21E
:103970003612AE76B1F90A606E7736B236122E770D
:10398000B2F90A60EE7736B23612AE77B3F90A6052
:1039900085F8216036B2361285F82060262685F833
:1039A0002260B0F90C6085F8246036B2361285F8D2
:1039B0002360B1F90C6085F8266036B2361285F8BE
:1039C0002560B2F90C6085F8286036B2361285F8A9
:1039D0002760B3F90C6085F82A6036B2361285F894
:1039E0002960272685F82B60C66985F82F60C6698F
:1039F000360A85F82E60C669360C85F82D60C669D2
:103A0000360E85F82C60CE6985F83360CE69360AAB
:103A100085F83260CE69360C85F83160CE69360E95
:103A200085F83060D66985F83760D669360A85F83A
:103A30003660D669360C85F83560D669360E85F85D
:103A40003460DE6985F83B60DE69360A85F83A60E5
:103A5000DE69360C85F83960DE69360E85F8386027
:103A6000282685F83C60866985F8406086693612AC
:103A700085F83F608669361485F83E6080690016D7
:103A800085F83D00886985F844008869001285F84A
:103A900043008869001485F842008869001685F89B
:103AA0004100906985F848009069001285F8470048
:103AB0009069001485F846009069001685F8450065
:103AC000986985F84C009869001285F84B00986950
:103AD000001485F84A009869001685F84900FF200F
:103AE00085F84E00002085F84D00002109E0DFF840
:103AF000EC2795F84D30685C4340D05C85F84D006C
:103B0000491C4D29F3D34F20DFF8D417086000F08B
:103B1000B2BDA879012836D10920DFF8C4170860A2
:103B20000120A8710020E870022028710020E871AF
:103B3000FF202872002107E0DFF8A027EB79685CFE
:103B40004340D05CE871491C0729F5D3DFF894079E
:103B50000168091E322911D2DFF88C170222DFF822
:103B60008C370D685A550A68521C322392FBF3F5C4
:103B700003FB15220A600168491C0160012080F3E3
:103B80001388FFF797FD00F076BDA879412806D18C
:103B9000E879297A51EA0021DFF8100B0180687A70
:103BA000422806D1A87AE97A51EA0021DFF8000B11
:103BB0000180DFF8F86AB6F90000012803DA002076
:103BC000DFF8F01A0870A87B44280FD1E87B0128A1
:103BD00008D10120DFF8E01A08700020DFF8D41ABD
:103BE000087003E00020DFF8D01A0870DFF8C08A00
:103BF000B8F90010B6F9000006F0F6FBBDEEC00AF9
:103C000010EE100ADFF8B41A0880DFF8B47AB8F9B9
:103C10000010B6F9000006F0B7FBBDEEC00A10EECA
:103C2000100A3880DFF8900A0078012803D1B7F92C
:103C3000000040423880DFF88C0A31880171B6F903
:103C4000001009124171DFF89C060168091E322933
:103C500011D2DFF894160322DFF890360E689A55D9
:103C60000A68521C322392FBF3F603FB16220A6009
:103C70000168491C0160297B43292DD1697B0129F9
:103C800026D10168091E322911D2DFF85C16022202
:103C9000DFF858360E689A550A68521C322392FB98
:103CA000F3F603FB16220A600168491C0160DFF885
:103CB000180A0021017100214171DFF8100A00216A
:103CC0000171002141710120DFF8C819087003E07B
:103CD0000020DFF8C01908700020E8700220287169
:103CE000402068710120A8710020E871002107E0E0
:103CF000DFF8E825EB79685C4340D05CE871491C4B
:103D00000729F5D3FF2028720920DFF8D4150860B1
:103D100000F0B1BCDFF8CC050168091E322911D2D0
:103D2000DFF8C4150422DFF8C4350E689A550A6816
:103D3000521C322392FBF3F603FB16220A60016841
:103D4000491C0160502068710120A8710020E870B2
:103D5000022028710020E871002107E0DFF87C25AF
:103D6000EB79685C4340D05CE871491C0729F5D3C6
:103D7000FF2028720920DFF86815086000F07BBC7E
:103D8000A878022840F01881687900280ED0102801
:103D90002DD0202854D0302800F0B880502800F0D2
:103DA000D280602800F0EB8000F065BCA879012883
:103DB00017D10020E87002202871002068710120CE
:103DC000A8710020E871002107E0DFF81025EB79E9
:103DD000685C4340D05CE871491C0729F5D3FF209B
:103DE00028720920DFF8F814086000F044BCA879B4
:103DF000112807D1287A122804D1A87A132801D1D2
:103E0000287B14280020E870022028711020687197
:103E10000120A8710020E871002107E0DFF8BC2430
:103E2000EB79685C4340D05CE871491C0729F5D305
:103E3000FF2028720920DFF8A814086000F01BBCDE
:103E40000020E8701E202871202068710120A871D0
:103E50002220E871DFF87808018889B2090A2972FE
:103E6000018869722421A9720021E9720021297355
:103E700025216973418889B2090AA9734188E973C8
:103E800026212974402169742721A9740021E9742D
:103E900000212975002169750021A9750021E975A6
:103EA00000212976002169760021A9762821E9766A
:103EB0008188297729216977C18889B2090AA97778
:103EC000C188E9772A2185F82010018989B2090A79
:103ED00085F82110008985F82200002085F823004C
:103EE000002109E0DFF8F42395F82330685C4340B3
:103EF000D05C85F82300491C2329F3D3FF2085F8E3
:103F000024002520DFF8D8130860B4E30020E8700F
:103F100002202871302068710120A8710020E8710A
:103F2000002107E0DFF8B423EB79685C4340D05C04
:103F3000E871491C0729F5D3FF2028720920DFF812
:103F4000A013086097E30020E87002202871502039
:103F500068710120A8710020E871002107E0DFF8F6
:103F60007C23EB79685C4340D05CE871491C0729ED
:103F7000F5D3FF2028720920D94908607BE300208F
:103F8000E8708520287160206871002085F88A001B
:103F9000002108E0D14A95F88A30685C4340D05C43
:103FA00085F88A00491C8A29F4D3FF2085F88B0004
:103FB0008B20CB4908605EE3A878032840F0178384
:103FC000687900280DD010283ED020285DD03028F8
:103FD00000F04B81402800F09381502800F0D782F8
:103FE00049E3A879012816D10020E8700220287141
:103FF000002068710120A8710020E871002106E00E
:10400000B64AEB79685C4340D05CE871491C0729EB
:10401000F6D3FF2028720920B1490860B148016831
:10402000091E32290FD2B0491122B04B0D685A55E2
:104030000A68521C322392FBF3F503FB15220A6037
:104040000168491C016016E3A879112802D1E879BA
:10405000A74908700020E8700220287110206871BC
:104060000120A8710020E871002106E09B4AEB794D
:10407000685C4340D05CE871491C0729F6D3FF20F7
:104080002872092096490860F5E220206871012015
:10409000A8712120E871DFF8FC0500782872222041
:1040A0006872DFF8F4050078A8722320E872DFF860
:1040B000240681896973DFF8201682890A80B1F9A4
:1040C000002012122A73DFF814269389EB73938968
:1040D0000B80B1F900301B12AB73DFF804369E89F8
:1040E0006E749E890E80B1F9006036122E74DFF86E
:1040F000F465B789EF74B7890F80B1F90010091220
:10410000A97424212975C1692976C169090AE9754B
:10411000C169090CA975C069000E6875D069287756
:10412000D069000AE876D069000CA876D069000E44
:104130006876D86985F82000D869000AE877D869D8
:10414000000CA877D869000E6877F06985F824001C
:10415000F069000A85F82300F069000C85F8220058
:10416000F069000E85F82100252085F82500DFF88C
:104170007805007885F82600262085F82700DFF8E6
:104180006C050168091685F828100168091485F87E
:1041900029100168091285F82A10006885F82B009B
:1041A000DFF84C050168091685F82C100168091420
:1041B00085F82D100168091285F82E10006885F821
:1041C0002F00DFF830050168091685F83010016806
:1041D000091485F831100168091285F83210006859
:1041E00085F83300DFF810050168091685F83410EA
:1041F0000168091485F835100168091285F8361030
:10420000006885F83700272085F83800012085F8F8
:104210003900282085F83A00002085F83B0000206E
:1042200085F83C000020E8703A202871292085F8A4
:104230003D00DFF8C804007885F83E00002085F8CE
:104240003F00FF2085F84000002108E0234A95F850
:104250003F30685C4340D05C85F83F00491C3F29F3
:10426000F4D341201E49086005E2A879012831D124
:1042700009201B4908600120A8710020E870022075
:1042800028710020E871FF202872002106E0134AFF
:10429000EB79685C4340D05CE871491C0729F6D390
:1042A00010480168091E32290FD20F4912220F4B04
:1042B0000D685A550A68521C322392FBF3F503FB32
:1042C00015220A600168491C0160012080F31388EF
:1042D000FFF7F0F9CFE100BFA8770020C40000206D
:1042E000BC800020D07F0020C87F0020847D00207B
:1042F0001281002013810020DE800020E080002059
:10430000A879412861D1E87901285ED1DFF8F0036E
:104310000078002859D1DFF8EC03E97901600068E2
:10432000012852D10020DFF8E01308700020DFF8E8
:10433000DC1308700020DFF8D81308700020DFF8C5
:10434000D41308700020DFF8D01308700020DFF8C5
:10435000CC1308700020DFF8C81308700020DFF8C5
:10436000C41308700020DFF8C01308700020DFF8C5
:10437000BC1308700020DFF8B81308700020DFF8C5
:10438000B41308700020DFF8B01308700020DFF8C5
:10439000AC1308700020DFF8A81308700020DFF8C5
:1043A000A41308700020DFF8A01308700020DFF8C5
:1043B0009C1308700020DFF8981308700020DFF8C5
:1043C000941308700020CD490870287A422803D140
:1043D000687ADFF884130870A87A432840F09A803E
:1043E0000120DFF878130870DFF87403E97A2A7B7C
:1043F00052EA0122697B51EA0221AA7B52EA012298
:104400000260DFF86083E97B2A7C52EA0122697C42
:1044100051EA0221AA7C52EA0122C8F80020DFF802
:104420004893E97C2A7D52EA0122697D51EA022102
:10443000AA7D52EA0122C9F80020CC4EE97D2A7EED
:1044400052EA0122697E51EA0221AA7E52EA012241
:104450003260C74F9FEDD18B006802F0C5FC53EC72
:10446000182B02F0E1FC0022C24B02F0B3FD02F077
:10447000D5FE3860D8F8000002F0B6FC53EC182BDB
:1044800002F0D2FC0022BB4B02F0A4FD02F0C6FEFB
:10449000B9490860D9F8000002F0A6FC53EC182BCB
:1044A00002F0C2FC0022B34B02F094FD02F0B6FE13
:1044B000B2490860306802F097FC53EC182B02F008
:1044C000B3FC0022AB4B02F085FD02F0A7FEAC4925
:1044D0000860AC483968017139680912417139685E
:1044E0000914817139680916C171A7480168091E4C
:1044F00032290FD2A5491322A54B0E689A550A6896
:10450000521C322392FBF3F603FB16220A60016869
:10451000491C0160E87E44281ED1287F012818D15B
:1045200099480168091E32290FD298491222984BE6
:104530000E689A550A68521C322392FBF3F603FB6D
:1045400016220A600168491C016001205149087067
:1045500002E000204F490870402068710120A871D6
:104560000020E870022028710020E871002106E098
:10457000884AEB79685C4340D05CE871491C0729A4
:10458000F6D3FF20287209208349086073E07E4833
:104590000168091E32290FD27C4914227C4B0E6817
:1045A0009A550A68521C322392FBF3F603FB16223B
:1045B0000A600168491C0160502068710120A871DF
:1045C0000020E870022028710020E871002106E038
:1045D000704AEB79685C4340D05CE871491C07295C
:1045E000F6D3FF20287209206B49086043E00920B8
:1045F000694908600020A8710020E8700220287135
:10460000002106E0634AEB79685C4340D05CE871C6
:10461000491C0729F6D3FF2028722CE009205E49A7
:1046200008600020A8710020E87002202871002195
:1046300006E0584AEB79685C4340D05CE871491C5D
:104640000729F6D3FF20287215E009205249086097
:104650000020A8710020E87002202871002106E0E7
:104660004C4AEB79685C4340D05CE871491C0729EF
:10467000F6D3FF2028720A9989B247480068C0B271
:10468000FFF74EF8200005F022FDBDEC028BBDE8DF
:10469000F18300BFF6800020F7800020107E00200C
:1046A000347E0020587E00207C7E0020E8800020A0
:1046B000EA800020F8800020F9800020E4800020BB
:1046C000E680002044000020B4000020BC00002050
:1046D000847F0020A07E0020E2800020C47E002095
:1046E000E87E00200C7F0020FA8000208C800020D3
:1046F0009080002094800020988000209602002066
:104700000F8100208880002007810020FB8000208E
:10471000FF8000200B810020038100200881002001
:10472000FC800020008100200C81002004810020FA
:1047300009810020FD800020018100200D810020E2
:10474000058100200A810020FE80002002810020D7
:104750000E810020068100201181002010810020A0
:10476000AC800020B0800020B4800020B880002001
:104770009C80002000807640A4800020A080002043
:10478000A88000205C000020D07F0020C87F00208F
:10479000847D0020C4000020BC80002000000000B8
:1047A0000070B7402DE9FC4104000020002000907B
:1047B000DFF8B06C300000200025002C01D1012072
:1047C00013E194F84400002805D1002084F8450046
:1047D000200002F037F800200190DFF88C0C01680F
:1047E00051F480410160006810F48040019001980C
:1047F000DFF8781C086830F4000008600A68206A56
:1048000002430A604FF480572068C05950F00100FD
:104810002168C85103F066F980462068C059C00776
:104820000FD503F05FF9B0EB080040F2F5118842B4
:10483000F3D3032084F84400002084F845000320CB
:10484000D3E02068076937F01C07FDF7F2FFDFF8B7
:10485000201C411ADFF81C2C914202D257F00807A5
:104860001AE0DFF8141C411ADFF8102C914202D232
:1048700057F00C0710E0861BDFF8041C8E420BD3A8
:10488000DFF8001C401ADFF8001C884202D257F003
:10489000040701E057F01007206807614FF4004259
:1048A0000021200000F0D8FA002808D001212000C3
:1048B00000F0F5FB012084F84400012095E0FF2082
:1048C00001F02DFC606800286DD003F00BF90700A3
:1048D0006A460121200000F07DFA41F2893603F09A
:1048E00001F9C01BB04213D200984007F0D54FF435
:1048F00080520021200000F0AFFA002814D00121DE
:10490000200000F0CCFB012084F8440001206CE082
:104910000121200000F0C3FB012084F844000020A6
:1049200084F84500032060E003F0DCF807006A46E5
:104930000121200000F04EFA03F0D4F8C01BB04271
:1049400012D200988006F2D56A461021200000F0AD
:1049500041FA002814D00121200000F0A0FB012022
:1049600084F84400012040E00121200000F097FB82
:10497000012084F84400002084F84500032034E03E
:104980000098400703D54FF40060E06001E000208C
:10499000E0600098800702D50020A0601DE04FF481
:1049A0008040A06019E0E268D20892B2A068400896
:1049B00080B202430021200000F04EFA002808D007
:1049C0000121200000F06BFB012084F8440001204D
:1049D0000BE040F6FF7001F0A2FB2900200000F080
:1049E0005EFB012084F844000020BDE8F68170B42D
:1049F0000400002094F94500012801D1022032E092
:104A0000012084F84500022084F84400E16200257A
:104A10001CE0F16019E0680101EB00065FF4801012
:104A2000306040F2F45000FB05F01044B060E069E3
:104A3000002803D1306850F440003060581E854291
:104A4000E7D2680108442030F0606D1C9D42E2D33B
:104A5000206841F210028150012084F844000020B7
:104A600084F84500002070BC704770B4002490F9B1
:104A70004540012C01D1022034E0012480F845405A
:104A8000022480F84440816200241EE0E9601BE0BB
:104A900065010D445FF000462E6044F2F4566E60EE
:104AA00040F2F45606FB04F61644AE608669012E09
:104AB00003D16E6826F000466E605E1EB442E5D2F9
:104AC00066010E442036EE60641C9C42E0D302680E
:104AD00041F20C03D150012180F84410002180F8EC
:104AE0004510002070BC704770B402000020002008
:104AF000002092F94500012801D1022089E001201F
:104B000082F84500022082F84400002907D10120E4
:104B100082F84400002082F84500012079E0D06A44
:104B20000068002807D5122082F84400002082F88F
:104B3000450001206DE040F2F55081420DD340F276
:104B4000F450B1FBF0F340F2F450B1FBF0F400FB91
:104B50001410002802D05B1C00E00123012B13D1AC
:104B6000D06A006850F04050D36A1860C904C90C7C
:104B7000D06A4160D06A006850F00040D16A086095
:104B8000D06AC068D0622FE000202BE0D46A24688D
:104B900034F04054D56A2C60002805D1D46A2468CA
:104BA00054F08054D56A2C6040F2F455D46A6560A4
:104BB0005C1EA0420CD1D46A246854F00054D66A1A
:104BC00034605C1E05FB1414E404E40CD56A6C60CC
:104BD000D46A246854F00044D56A2C60D46AE4682E
:104BE000D462401C9842D1D341F214001168095894
:104BF000490707D50421136819500020116841F2B4
:104C00000403C850012082F84400002082F84500C7
:104C1000002070BC7047002190F94510012901D196
:104C2000022046E0012180F84510022180F844105E
:104C3000816A0968002935D4816A0968C9051DD5CA
:104C4000816B491C8163816B012901D1816A0163F8
:104C5000816A4163816A0968C1F30D41091FC1631B
:104C6000016B89680164816AC9688162012180F8E9
:104C70004410002180F8451000201AE0816A09687C
:104C8000890509D5816A016300214163012181639E
:104C9000816AC968816205E0816B491C8163816A10
:104CA000C9688162012180F84410002180F8451014
:104CB00001207047002190F94520012A01D10220EE
:104CC0004CE0012280F84520022280F8442006E0D2
:104CD000826A026301228263826AD2688262826A85
:104CE0001268002A33D4042931D2491C826A12681E
:104CF00012F44072B2F5007FEAD0826A126812F4B0
:104D0000407F06D1826B521C8263826AD2688262C3
:104D1000E5E7816A4163816B491C8163816B0129ED
:104D200001D1816A0163816A0968C1F30D41091FDC
:104D3000C163016B89680164816AC968816201216C
:104D400080F84410002180F84510002006E0012181
:104D500080F84410002180F845100120704738B5D4
:104D6000040041F214052068405940060CD520008B
:104D7000FCF78FFB402021684851012084F8440053
:104D8000002084F845000FE020684059C0070BD58B
:104D9000200005F063FB012021684851012084F8C0
:104DA0004400002084F845005FF4803021684851B9
:104DB0002068405900040CD5200005F050FB4FF44A
:104DC000004021684851012084F84400002084F804
:104DD000450031BDF8B504000E001500002000208C
:104DE00094F84400822801D1022034E0822084F823
:104DF00044002068006910F01C00218AC90211F4E7
:104E000078410843B6B2B60116F4F866064336F0A8
:104E1000020656F001062068066102F063FE0700F4
:104E200001E020680669F0070DD502F05BFEC01BAB
:104E3000B0F5803FF5D3012084F84400002084F8C9
:104E40004500032007E02068406980B22860012007
:104E500084F844000020F2BD70B504000D0000206D
:104E6000002094F84400422801D1022033E042207F
:104E700084F844002068006910F01C00218AC902EF
:104E800011F478410843ADB2AD0115F4F86505435E
:104E900055F0020555F0010592B220684261206884
:104EA000056102F01FFE060001E020680569E807C1
:104EB0000DD502F017FE801BB0F5803FF5D3012021
:104EC00084F84400002084F84500032003E001201A
:104ED00084F84400002070BD10B5040094F945002A
:104EE000012801D102201BE0012084F845000220A6
:104EF00084F84400200000F018FA200000F03DFA89
:104F0000200000F086FA200000F05FFA200000F098
:104F10006EFA012084F84400002084F84500002047
:104F200010BD10B5040094F94500012801D10220FC
:104F30001BE0012084F84500022084F84400200092
:104F400000F04CFA200000F05BFA200000F029FA93
:104F5000200000F05EFA200000F0FBF9012084F848
:104F60004400002084F84500002010BD70B5050005
:104F70000C00002095F94500012801D102208DE0A8
:104F8000012085F84500022085F84400002C6DD0F2
:104F900028680168DFF8F404014022686068024371
:104FA000A0680243E0680243A86802432069024304
:104FB00060690243E8680243A0690243E069024372
:104FC000206A0243606A0243A06A024311432868D0
:104FD000016028680668012001F0A1F828680660D1
:104FE000E16A206B0143606B0143A06B0143E06BFE
:104FF0000143206C0143606C0143A06C01432868AD
:10500000416028684668012001F089F828684660F8
:10501000E06C29688860206D2968C860286881690B
:105020004FF641700140606DA26D52EA0042E06DA2
:105030000243206E0243606E0243A06E024311439E
:105040002868816128688669012001F068F828686D
:105050008661E16E206F01432868C1612868C469D8
:10506000012001F05CF82868C46110E0286801683C
:1050700031F49041AA68E86802431143286801604E
:1050800028680468012001F04AF8286804600120BB
:1050900085F84400002085F84500002070BD78B5F3
:1050A000ADB004000020002905D04FF40060E0609E
:1050B0004FF48040A060002010900020119000204C
:1050C0001290002013900020149000201590E069A9
:1050D000002803D14FF48060169001E00020169064
:1050E0004FF40070179000201890002019900020B5
:1050F0001A9000201B9000201C9040201D90002042
:105100001E9000201F900020209000202190002061
:1051100022900020239000202490002025908020C1
:105120002690002027900020289000202990002021
:105130002A9000202B9000202C9020680168D348F2
:105140000140109A119802431298024313980243A7
:10515000A06802431498024315980243E068024392
:10516000169802431798024318980243199802436D
:105170001A980243114320680160206805680120E5
:1051800000F0CDFF206805601B991C9801431D9815
:1051900001431E9801431F98014320980143219821
:1051A000014322980143206841602068456801203E
:1051B00000F0B5FF20684560239821688860249836
:1051C0002168C860206881694FF6417001402598C8
:1051D000269A52EA004227980243289802432998C7
:1051E00002432A980243114320688161206885693F
:1051F000012000F094FF206885612B992C980143D1
:105200002068C1612068C569012000F088FF20681E
:10521000C561002000905FF00070019000210291B4
:105220005FF40011039100210491002105910021F8
:105230000691002107910421089109905FF48030C4
:105240000A905FF480000B904FF400500C90802087
:105250000D9000200E9000200F9041F2180520685C
:1052600041598B480140009A019802430298024339
:1052700003980243049802430598024306980243A8
:10528000079802430898024311432068415120685F
:105290004659012000F043FF206846514FF48055E5
:1052A00009990A9801430B9801430C9801430D9802
:1052B00001430E9851EA80010F98014351F4000117
:1052C0002068415120684659012000F028FF2068DD
:1052D0004651A06901280CD141F21C0021680958EF
:1052E00041F4803151F04001226811506948FEF7C5
:1052F00063F962690021200000F002F82EB070BD51
:105300005379107950EA0320634B5B181860D0780A
:1053100093781B0453EA0063507853EA0023107813
:1053200003435E4841180B6070471CB50400002021
:1053300000902068006850F008002168086020682C
:1053400000680090012000F07AF800982168086059
:1053500013BD1CB50400002000902068006830F0E8
:10536000080021680860206800680090012000F0B3
:1053700066F800982168086013BD1CB50400002081
:1053800000902068006850F00400216808602068E0
:1053900000680090012000F052F800982168086031
:1053A00013BD1CB50400002000902068006830F098
:1053B000040021680860206800680090012000F067
:1053C0003EF800982168086013BD41F21801026898
:1053D000525852F4005200684250704741F218018E
:1053E0000268525832F4005200684250704741F24D
:1053F00018010268525852F0020200684250704789
:1054000041F218010268525832F00202006842501C
:10541000704738B504000020009041F2180520685C
:10542000405950F48010216848512068405900903C
:10543000012000F004F800982168485131BD81B086
:1054400017490968C9084FF47A72B1FBF2F1484371
:10545000009000BF0098411E00910028F9D101B0D2
:10546000704700000087930344380240043801402D
:10547000002D3101C0E1E400C00E160240787D012C
:10548000005A620200E1F50580F0FA020F8120FF68
:10549000233FDEF810F200084080024044800240C2
:1054A0001C00002010B58AB0524C5348206053486D
:1054B000206353486063062060600020A0600020E5
:1054C000E0605FF4A02020615FF4C0006061002014
:1054D000A0610120E06101202062002060620020C4
:1054E000A0620020E062200000F094F80020059007
:1054F00000200690012007900020009000200190DD
:1055000000200290002003900020049001200890C9
:105510000E2009906946200000F04FF90AB010BD36
:1055200010B586B000683449884242D1002000900E
:105530003448016851F000710160006810F000709B
:1055400000900098002000902F48016851F480716D
:105550000160016811F480710091009900210091AF
:10556000016851F002010160006810F00200009033
:1055700000984FF4007401940220029000200390E0
:105580000920059001A9214802F0FEFA01940220A9
:105590000290022004900920059001A91C4802F005
:1055A000F3FA002200211420FDF729FA1420FDF758
:1055B00037FA06B010BD10B50E4A136B1860002004
:1055C000136B98600020136BD8600820136B186170
:1055D000002005E00B78146B04442375491C401C23
:1055E000136B1B699842F5D30A21100000F068F98B
:1055F00010BD0000D47B002000640040307F0020FC
:10560000EC7D002040380240303802400004024067
:105610000020024070B5040000250020002C01D1BC
:105620000120C9E094F93C00002805D1002084F84D
:105630003D002000FFF774FF022084F83C00206842
:10564000006830F00200216808602068006850F0AF
:1056500001002168086002F045FA060020684068F1
:10566000C0070CD402F03EFA801B0B28F6D30320AF
:1056700084F83C00002084F83D0003209CE0206872
:105680004068C00740F18B80A069012806D12068DE
:10569000006850F080002168086005E0206800681C
:1056A00030F0800021680860E069012806D1206898
:1056B000006850F040002168086005E0206800683C
:1056C00030F0400021680860206A012806D1206877
:1056D000006850F020002168086005E0206800683C
:1056E00030F0200021680860606A012806D1206837
:1056F000006850F010002168086005E0206800682C
:1057000030F0100021680860A06A012806D12068E6
:10571000006850F008002168086005E02068006813
:1057200030F0080021680860E06A012806D120688E
:10573000006850F004002168086005E020680068F7
:1057400030F0040021680860A168E0680143206926
:105750000143606901436068401E01432068C161E4
:1057600020680068400840002168086002F0BAF92B
:10577000060020684068C0070CD502F0B3F9801B12
:105780000B28F6D3032084F83C00002084F83D0069
:10579000032011E020684068C00700D40125012DD6
:1057A00006D100202064012084F83C00002003E0A2
:1057B000042084F83C00012070BD30B4002001209A
:1057C0004A6910FA02F2DFF86433D3F8000250F0AD
:1057D0000100C3F80002D3F8000230F47C50C3F893
:1057E0000002D3F800024C6A50EA0420C3F8000219
:1057F000D3F81C029043C3F81C02C869002816D1D4
:10580000D3F80C029043C3F80C02486903EBC000C4
:10581000CC684D68C5EA0444C0F84042486903EBCF
:10582000C0008C680D68C5EA0444C0F84442C869E9
:10583000012816D1D3F80C021043C3F80C024869B2
:1058400003EBC0000C684D68C5EA0444C0F8404250
:10585000486903EBC0008C68CD68C5EA0444C0F811
:1058600044428869002805D1D3F804029043C3F864
:10587000040204E0D3F804021043C3F804020869E8
:10588000002804D1D3F814029043C3F81402086925
:10589000012804D1D3F814021043C3F81402086A93
:1058A000012804D1D3F81C020243C3F81C22D3F808
:1058B000000240084000C3F80002002030BC7047DE
:1058C000F8B506000D000420002030688068400113
:1058D00008D430688068000104D430688068C00053
:1058E00040F11E8196F93D00012801D102201BE103
:1058F000012086F83D0096F93C00222804D0322889
:1059000006D0622808D00BE0422086F83C000AE06E
:10591000522086F83C0006E0722086F83C0002E047
:10592000122086F83C0030688068400101D50024D0
:1059300006E030688068000101D5012400E00224FF
:10594000306821010844D0F8800110F0010031686E
:1059500022011144C1F88001306B8068002811D108
:10596000306821010844D0F88001316B0968326B3E
:10597000D26852EA41521043316822011144C1F801
:10598000800113E0306821010844D0F88011306BA9
:105990004068326B926852EAC002306BC0680243C2
:1059A0001143306822011044C0F88011306B007C34
:1059B00010F00F00316B0861306821010844D0F805
:1059C000840100090001316822011144C1F88401F9
:1059D000306821010844D0F88411306B006901431C
:1059E000306822011044C0F88411306BC07D316BE7
:1059F000897D090451EA0061306B407D51EA002144
:105A0000306B007D0143306822011044C0F88811DA
:105A1000306BC07E316B897E090451EA0061306BC6
:105A2000407E51EA0021306B007E01433068220144
:105A30001044C0F88C11306821010844D0F880016E
:105A400050F00100316822011144C1F8800102F0D8
:105A500049F80700002C0AD1DFF87C043168896816
:105A60000140814201D1012018E0002016E0012C04
:105A70000AD1DFF86804316889680140814201D1A8
:105A800001200BE0002009E0DFF854043168896848
:105A90000140814201D1012000E00020002822D1F4
:105AA00015F1010FD6D0002D04D002F01BF8C01B59
:105AB0008542CFD2032086F83C00002C03D1802001
:105AC000316888600AE0012C04D14FF4004031684D
:105AD000886003E05FF4000031688860002086F889
