:020000040800F2
:10000000E082002069DB0008B5D60008B7D60008FA
:10001000B9D60008BBD60008BDD600080000000015
:10002000000000000000000000000000BFD6000833
:10003000C1D6000800000000C3D60008C5D60008DD
:1000400079DC00087DDC000881DC000885DC000824
:1000500089DC0008D1D600088DDC000891DC00089E
:1000600095DC000899DC00089DDC0008A1DC000894
:10007000A5DC0008A9DC0008ADDC0008B1DC000844
:10008000B5DC0008B9DC0008BDDC0008C1DC0008F4
:10009000D3D60008C5DC0008C9DC0008CDDC0008A8
:1000A000D1DC0008D5DC0008D9DC0008DDDC000864
:1000B000F1D60008E7D60008E1DC0008E5DC00081E
:1000C000E9DC0008EDDC0008F1DC0008F5DC0008E4
:1000D000F9DC0008FDDC000801DD000805D7000898
:1000E00005DD000809DD00080DDD000811DD000850
:1000F00015DD000819DD00081DDD000821DD000800
:1001000025DD000829DD0008FBD600082DDD0008EC
:1001100031DD000835DD000839DD00083DDD00086F
:1001200041DD000845DD000849DD00084DDD00081F
:1001300051DD0008DDD6000855DD000859DD000856
:100140005DDD000861DD000865DD000869DD00088F
:100150006DDD000871DD000875DD000879DD00083F
:100160007DDD000881DD000885DD000889DD0008EF
:100170008DDD000891DD000895DD0008000000001D
:1001800099DD00089DDD000880B592B00020009048
:10019000DFF81007016851F080510160006810F02D
:1001A00080500090009800200090DFF8FC06016865
:1001B00051F480410160006810F480400090009884
:1001C000012006905FF48030079002200C905FF4CD
:1001D00080000D9008200E904FF4A8700F90022020
:1001E00010900720119006A801F0E0FE0F2001906A
:1001F00002200290002003904FF4A05004904FF48E
:1002000080500590052101A802F08AF802F049F912
:1002100002F04BF96421B0FBF1F002F042FA042045
:1002200002F043FA002200215FF0FF3002F023FACF
:1002300013B000BD38B502F099FAFFF7A5FF02F040
:100240001BFB02F0BBFBDFF864060168C96851F0D4
:1002500002010268D1600168C96851F001010268B9
:10026000D16002F017FCDFF8480602F071FF02F0DF
:1002700083FF00F0C5FADFF83C0602F08BFFDFF8E1
:10028000380603F06BFA03F061FEDFF83046002118
:10029000200004F0A1F90020DFF82416088001F006
:1002A00001F8DFF8200602F003FC01F031F8DFF876
:1002B000180602F0FDFB0021200004F08DF904F087
:1002C0003EFDDFF808060068002801D001F0FAFAC8
:1002D000DFF8FC552868401E322801D200F018F8DB
:1002E00001F030FD2868401E322801D200F010F8DD
:1002F00002F097FFDFF8DC050068002801D001F06C
:1003000011F92868401E3228D5D200F001F8D2E752
:100310002DE9F04757E0DFF8C00502F019FF47E08C
:1003200040F20567DFF8B4653100380003F097FE4E
:10033000012004F041FD40F206683100404603F020
:100340008EFE012004F038FD40F207693100484676
:1003500003F085FE012004F02FFD31004FF4C16051
:1003600003F07DFE012004F027FDDFF87465310005
:10037000380003F074FE012004F01EFD31004046F9
:1003800003F06DFE012004F017FD3100484603F034
:1003900066FE012004F010FD31004FF4C16003F04F
:1003A0005EFE012004F008FDDFF8380502F0D0FE03
:1003B0002868401C322190FBF1F201FB12002860FA
:1003C0002068401E2060DFF808452068002800F003
:1003D00015822168DFF8100502F0BAFEDFF80C552F
:1003E000DFF80C052968405C012813D002285AD098
:1003F000032800F0A180042800F0C480112800F038
:100400000781122800F06A81132800F0AE811428B9
:1004100086D080E740F20166DFF8C474390030000E
:1004200003F01DFE012004F0C7FC40F20268390011
:10043000404603F014FE012004F0BEFC40F20369C4
:100440003900484603F00BFE012004F0B5FC40F2F1
:10045000046A3900504603F002FE012004F0ACFCAF
:10046000DFF890743900300003F0F9FD012004F04A
:10047000A3FC3900404603F0F2FD012004F09CFC8F
:100480003900484603F0EBFD012004F095FC3900EB
:10049000504603F0E4FD012004F08EFCDFF8580420
:1004A00002F056FE84E740F20166DFF8507439002E
:1004B000300003F0D4FD012004F07EFC40F202681D
:1004C0003900404603F0CBFD012004F075FC40F2FA
:1004D00003693900484603F0C2FD012004F06CFCBA
:1004E00040F2046A3900504603F0B9FD012004F0DF
:1004F00063FCDFF8EC733900300003F0B0FD01203D
:1005000004F05AFC3900404603F0A9FD012004F034
:1005100053FC3900484603F0A2FD012004F04CFCD6
:100520003900504603F09BFD012004F045FCDFF844
:10053000D00302F00DFE3BE7DFF8C863310040F264
:10054000016003F08CFD012004F036FC310040F224
:10055000026003F084FD012004F02EFC310040F223
:10056000036003F07CFD012004F026FC310040F222
:10057000046003F074FD012004F01EFCE24802F068
:10058000E7FD15E740F20166D44F3900300003F073
:1005900066FD012004F010FC40F20268390040467C
:1005A00003F05DFD012004F007FC40F2036939000F
:1005B000484603F054FD012004F0FEFB40F2046ABB
:1005C0003900504603F04BFD012004F0F5FBC44F09
:1005D0003900300003F043FD012004F0EDFB390049
:1005E000404603F03CFD012004F0E6FB390048469C
:1005F00003F035FD012004F0DFFB3900504603F025
:100600002EFD012004F0D8FBC04802F0A1FDCFE68A
:10061000B34E40F205673100380003F020FD0120A1
:1006200004F0CAFB40F206683100404603F017FDB3
:10063000012004F0C1FB40F207693100484603F095
:100640000EFD012004F0B8FB31004FF4C16003F04F
:1006500006FD012004F0B0FBA64E3100380003F087
:10066000FEFC012004F0A8FB3100404603F0F7FC3B
:10067000012004F0A1FB3100484603F0F0FC01200A
:1006800004F09AFB31004FF4C16003F0E8FC012054
:1006900004F092FBDFF8F06B3100380003F0DFFC70
:1006A000012004F089FB3100404603F0D8FC012012
:1006B00004F082FB3100484603F0D1FC012004F035
:1006C0007BFB31004FF4C16003F0C9FC012004F052
:1006D00073FBDFF8CC0B02F03BFD69E6874E40F27E
:1006E00005673100380003F0BAFC012004F064FB18
:1006F00040F206683100404603F0B1FC012004F0EE
:100700005BFB40F207693100484603F0A8FC01207A
:1007100004F052FB31004FF4C16003F0A0FC012053
:1007200004F04AFB6E4E3100380003F098FC0120C3
:1007300004F042FB3100404603F091FC012004F03C
:100740003BFB3100484603F08AFC012004F034FBF7
:1007500031004FF4C16003F082FC012004F02CFB57
:10076000DFF8A40B02F0F4FC22E6DFF8A07B40F2F5
:1007700005663900300003F072FC012004F01CFB18
:10078000DFF8F08B4146300003F069FC012004F0F3
:1007900013FB40F206663900300003F060FC0120D4
:1007A00004F00AFB4146300003F059FC012004F03C
:1007B00003FB40F207663900300003F050FC0120D3
:1007C00004F0FAFA4146300003F049FC012004F03D
:1007D000F3FA39004FF4C16003F041FC012004F04A
:1007E000EBFA41464FF4C16003F039FC012004F0FC
:1007F000E3FADFF8E40C02F0ABFCD9E5BDE8F087E2
:1008000010B586B004F028FB04F067FCDFF8680B35
:1008100005907FF07F400490DFF8600B0390652027
:1008200000900023A822C021DFF8540B02F090FCB6
:1008300000200090FF23FF22FF21DFF8480B02F089
:1008400087FC012000900023A822C021DFF8380B8C
:1008500002F07EFC174CDFF8340B0290DFF8300B0F
:1008600001900020009003AB04AA05A9200004F029
:1008700076FC200004F006FD94F83300400707D50D
:10088000DFF8100B02F064FC200004F007FD02E02A
:10089000200004F024FDDFF86C1C200004F031FD82
:1008A00006B010BD4038024000700040D87A0020E9
:1008B00080D900088C7B0020CC790020147A00209D
:1008C000BE7E0020507B0020147B0020A07E0020F4
:1008D0000C7E0020207E00209CDB000824000020ED
:1008E0000C00002038DA000824DA0008087E002016
:1008F000C47B00201C000020A8DA0008140000209F
:1009000078DB00082C00002084DB0008B8DA00083F
:1009100070B5002114E0536B0C00A4B223441B7D7E
:10092000DFF8B84B0D00ADB26355526B0B009BB2B4
:100930001A44127DDFF8D43B0C00A4B21A55491CAE
:10094000DFF8CC2B0B009BB2546B2469A342E2D39B
:10095000516B0969082940F09284DFF8B81BDFF871
:10096000AC3B9C785D7855EA04250D60526B1268AB
:1009700040F28154121B16D0521E00F09680521E77
:1009800000F01581521E00F09481521E00F0138277
:10099000521E00F09C82521E00F02583521E00F071
:1009A000AE8300F037BC0A6842F20304A24204D1CD
:1009B0001979DFF8642B116076E00A68B2F5005F00
:1009C00004D11979DFF8502B51606DE00A6846F2C6
:1009D0006004A24204D11979DFF83C2B118163E055
:1009E0000A6846F26C04A24207D159791A7952EA90
:1009F0000122DFF8241B4A8156E00A6846F2780497
:100A0000A24207D159791A7952EA0122DFF8081B6C
:100A10008A8149E00A6846F29104A24207D15979D5
:100A20001A7952EA0122DFF8F01A4A823CE00A6899
:100A300042F20B04A2420CD1D9799A7952EA0122EE
:100A40005C7954EA022419790C43DFF8CC1ACC61A2
:100A50002AE00A6846F26B04A24207D159791A7952
:100A600052EA0122DFF8B01A8A821DE00A6846F2D3
:100A70006304A2420DD1D9799A7952EA01225979B7
:100A800051EA02211A7952EA0122DFF88C1A8A61AE
:100A90000AE0096846F29002914205D11979C1F342
:100AA0000011DFF8742A1162B4E30A6842F2030409
:100AB000A24204D11979DFF8642A116076E00A684D
:100AC000B2F5005F04D11979DFF8502A51606DE06A
:100AD0000A6846F26004A24204D11979DFF83C2A80
:100AE000118163E00A6846F26C04A24207D1597989
:100AF0001A7952EA0122DFF8241A4A8156E00A687C
:100B000046F27804A24207D159791A7952EA0122B1
:100B1000DFF8081A8A8149E00A6846F29104A24285
:100B200007D159791A7952EA0122DFF8F0194A827D
:100B30003CE00A6842F20B04A2420CD1D9799A79BE
:100B400052EA01225C7954EA022419790C43DFF855
:100B5000CC19CC612AE00A6846F26B04A24207D1A4
:100B600059791A7952EA0122DFF8B0198A821DE018
:100B70000A6846F26304A2420DD1D9799A7952EA01
:100B80000122597951EA02211A7952EA0122DFF849
:100B90008C198A610AE0096846F29002914205D1F7
:100BA0001979C1F30011DFF87429116232E30A6880
:100BB00042F20304A24204D11979DFF864291160DA
:100BC00076E00A68B2F5005F04D11979DFF85029A0
:100BD00051606DE00A6846F26004A24204D11979BE
:100BE000DFF83C29118163E00A6846F26C04A242F6
:100BF00007D159791A7952EA0122DFF824194A817A
:100C000056E00A6846F27804A24207D159791A7967
:100C100052EA0122DFF808198A8149E00A6846F29F
:100C20009104A24207D159791A7952EA0122DFF8D8
:100C3000F0184A823CE00A6842F20B04A2420CD14E
:100C4000D9799A7952EA01225C7954EA0224197915
:100C50000C43DFF8CC18CC612AE00A6846F26B043A
:100C6000A24207D159791A7952EA0122DFF8B01865
:100C70008A821DE00A6846F26304A2420DD1D97946
:100C80009A7952EA0122597951EA02211A7952EAF3
:100C90000122DFF88C188A610AE0096846F29002A6
:100CA000914205D11979C1F30011DFF8742811625E
:100CB000B0E20A6842F20304A24204D11979DFF8D3
:100CC000E42B116076E00A68B2F5005F04D119796F
:100CD000DFF8D02B51606DE00A6846F26004A24252
:100CE00004D11979DFF8BC2B118163E00A6846F260
:100CF0006C04A24207D159791A7952EA0122DFF82D
:100D0000A41B4A8156E00A6846F27804A24207D141
:100D100059791A7952EA0122DFF8881B8A8149E061
:100D20000A6846F29104A24207D159791A7952EA27
:100D30000122DFF8701B4A823CE00A6842F20B0491
:100D4000A2420CD1D9799A7952EA01225C7954EA0B
:100D5000022419790C43DFF84C1BCC612AE00A68A5
:100D600046F26B04A24207D159791A7952EA01225C
:100D7000DFF8301B8A821DE00A6846F26304A24253
:100D80000DD1D9799A7952EA0122597951EA022191
:100D90001A7952EA0122DFF80C1B8A610AE009681D
:100DA00046F29002914205D11979C1F30011DFF8A2
:100DB000F42A11622EE20A6842F20304A24204D12C
:100DC0001979DFF8E42A116080E00A68B2F5005F63
:100DD00004D11979DFF8D02A516077E00A6846F229
:100DE0006004A24204D11979DFF8BC2A11816DE0B8
:100DF0000A6846F26C04A24207D159791A7952EA7C
:100E00000122DFF8A41A4A8160E00A6846F27804F9
:100E1000A24207D159791A7952EA0122DFF8881AD9
:100E20008A8153E00A6846F29104A24207D15979B7
:100E30001A7952EA0122DFF8701A4A8246E00A68FB
:100E400042F20B04A2420CD1D9799A7952EA0122DA
:100E50005C7954EA022419790C43DFF84C1ACC610E
:100E600034E00A6846F26B04A24207D159791A7934
:100E700052EA0122DFF8301A8A8227E00A6846F235
:100E80006304A2420DD1D9799A7952EA01225979A3
:100E900051EA02211A7952EA0122DFF80C1A8A611A
:100EA00014E00A6846F29004A24206D1197911F0C2
:100EB0000101DFF8F429116208E0096846F28902AD
:100EC000914203D11979DFF8E4291160A2E10A689F
:100ED00042F20304A24204D11979DFF8D429116047
:100EE00080E00A68B2F5005F04D11979DFF8C02903
:100EF000516077E00A6846F26004A24204D1197991
:100F0000DFF8AC2911816DE00A6846F26C04A24258
:100F100007D159791A7952EA0122DFF894194A81E6
:100F200060E00A6846F27804A24207D159791A793A
:100F300052EA0122DFF878198A8153E00A6846F202
:100F40009104A24207D159791A7952EA0122DFF8B5
:100F500060194A8246E00A6842F20B04A2420CD1B0
:100F6000D9799A7952EA01225C7954EA02241979F2
:100F70000C43DFF83C19CC6134E00A6846F26B049C
:100F8000A24207D159791A7952EA0122DFF82019D1
:100F90008A8227E00A6846F26304A2420DD1D97919
:100FA0009A7952EA0122597951EA02211A7952EAD0
:100FB0000122DFF8FC188A6114E00A6846F2900406
:100FC000A24206D1197911F00101DFF8E42811627B
:100FD00008E0096846F28902914203D11979DFF8E5
:100FE000D428116016E10A6842F20304A24204D137
:100FF0001979DFF8C428116080E00A68B2F5005F53
:1010000004D11979DFF8B028516077E00A6846F218
:101010006004A24204D11979DFF89C2811816DE0A7
:101020000A6846F26C04A24207D159791A7952EA49
:101030000122DFF884184A8160E00A6846F27804E9
:10104000A24207D159791A7952EA0122DFF86818C9
:101050008A8153E00A6846F29104A24207D1597985
:101060001A7952EA0122DFF850184A8246E00A68EB
:1010700042F20B04A2420CD1D9799A7952EA0122A8
:101080005C7954EA022419790C43DFF82C18CC61FE
:1010900034E00A6846F26B04A24207D159791A7902
:1010A00052EA0122DFF810188A8227E00A6846F225
:1010B0006304A2420DD1D9799A7952EA0122597971
:1010C00051EA02211A7952EA0122DFF8EC178A610B
:1010D00014E00A6846F29004A24206D1197911F090
:1010E0000101DFF8D427116208E0096846F289029D
:1010F000914203D11979DFF86C2B11608AE00A68FC
:1011000042F20304A24204D11979DFF8B42B116032
:1011100080E00A68B2F5005F04D11979DFF8A02BEE
:10112000516077E00A6846F26004A24204D119795E
:10113000DFF88C2B11816DE00A6846F26C04A24244
:1011400007D159791A7952EA0122DFF8741B4A81D2
:1011500060E00A6846F27804A24207D159791A7908
:1011600052EA0122DFF8581B8A8153E00A6846F2EE
:101170009104A24207D159791A7952EA0122DFF883
:10118000401B4A8246E00A6842F20B04A2420CD19C
:10119000D9799A7952EA01225C7954EA02241979C0
:1011A0000C43DFF81C1BCC6134E00A6846F26B0488
:1011B000A24207D159791A7952EA0122DFF8001BBD
:1011C0008A8227E00A6846F26304A2420DD1D979E7
:1011D0009A7952EA0122597951EA02211A7952EA9E
:1011E0000122DFF8DC1A8A6114E00A6846F29004F2
:1011F000A24206D1197911F00101DFF8C42A116267
:1012000008E0096846F28902914203D11979DFF8B2
:10121000682B1160DFF89016DFF89426DFF8983617
:10122000DFF89C4A0D6A166A56EA45061D6A55EAB9
:101230004605266A56EA4506DFF8405B2E70496887
:10124000526852EA4102596851EA4201626852EA20
:101250004102DFF82C1B0A70AF490989AF4A128995
:1012600052EA0112DFF81C1B0A70AD490989DFF848
:101270003426128952EA0112DFF8301C0A7000216C
:1012800003F0AAF970BD00004C00002080B5DFF823
:10129000F80A04F040FA9CA001F05AFF01BD0000DA
:1012A000C8DA00081FB500200090DFF8E00A0168E6
:1012B00051F001010160006810F0010000900098F9
:1012C000DFF8EC4B5FF0804020604CF24F30E06084
:1012D00040F61F506060002020610020A0602000C8
:1012E00001F0BCFB002001900020029001A9200029
:1012F00004F0B6FA002201211C2001F0BCF91C20E8
:1013000001F0CAF91FBD000090DB00084400002076
:101310001FB500200090DFF8740A016851F0020147
:101320000160006810F0020000900098DFF8604A49
:10133000DFF8800B20604CF24F30E06040F28F60AD
:101340006060002020610020A060200001F086FB8A
:10135000002001900020029001A9200004F080FAF2
:10136000002202211D2001F086F91D2001F094F9D0
:101370001FBD000054000020C0A80065C0A80001E7
:1013800098D70008C8D70008F8D7000881BE000821
:101390003F570008E8DA000830B4DFF8F419884253
:1013A0001DD10120DFF8101B0860DFF8100B016869
:1013B000091E322980F08D80DFF8041B2122DFF81E
:1013C000043B0C681A550A68521C322392FBF3F452
:1013D00003FB14220A600168491C016079E0DFF810
:1013E000D01A884265D1DFF8E00A016809295CD18A
:1013F000DFF8C81A0A68121E322A11D2DFF8C02A92
:101400002223DFF8C04A1568635513685B1C322439
:1014100093FBF4F504FB153313600A68521C0A6051
:101420000A68121E322A11D2DFF8942A2323DFF829
:10143000944A1568635513685B1C322493FBF4F5DA
:1014400004FB153313600A68521C0A600A68121EF6
:10145000322A11D2DFF8682A2423DFF8684A156897
:10146000635513685B1C322493FBF4F504FB1533BE
:1014700013600A68521C0A600A68121E322A11D2CE
:10148000DFF83C2A2523DFF83C4A156863551368CA
:101490005B1C322493FBF4F504FB153313600A68DC
:1014A000521C0A600021016013E00168491C0160C0
:1014B0000FE0DFF8181A88420BD1DFF8140A018810
:1014C000B1F5004F03D14FF40041018001E0032149
:1014D000018030BC70470000D8DA0008187900207D
:1014E000DFF8E81988420CD1DFF8E4090188B1F58A
:1014F000004F03D04FF6FF71018002E04FF400412E
:101500000180704765570008310A0000D07D002037
:10151000147A0020E47D0020507C0020747C0020A0
:10152000987C00202DE9F84F40F20164DFF8A459BF
:101530002900200002F093FD012003F03DFC40F261
:1015400002662900300002F08AFD012003F034FC1D
:1015500040F203672900380002F081FD012003F00A
:101560002BFC40F204682900404602F078FD01207F
:1015700003F022FCDFF860994946200002F06FFD7D
:10158000012003F019FC4946300002F068FD0120FB
:1015900003F012FC4946380002F061FD012003F01F
:1015A0000BFC4946404602F05AFD012003F004FCC2
:1015B000DFF828994946200002F051FD012003F090
:1015C000FBFB4946300002F04AFD012003F0F4FB2A
:1015D0004946380002F043FD012003F0EDFB494687
:1015E000404602F03CFD012003F0E6FBDFF8F098F6
:1015F0004946200002F033FD012003F0DDFB49469F
:10160000300002F02CFD012003F0D6FB49463800E3
:1016100002F025FD012003F0CFFB4946404602F0D1
:101620001EFD012003F0C8FBDFF8B8A851462000DA
:1016300002F015FD012003F0BFFB5146300002F01F
:101640000EFD012003F0B8FB5146380002F007FD03
:10165000012003F0B1FB5146404602F000FD01209D
:1016600003F0AAFBDFF880B85946200002F0F7FC2F
:10167000012003F0A1FB5946300002F0F0FC0120EC
:1016800003F09AFB5946380002F0E9FC012003F010
:1016900093FB5946404602F0E2FC012003F08CFB2C
:1016A000DFF848080068401E322801D2FEF730FEFD
:1016B00040F205642900200002F0D1FC012003F073
:1016C0007BFB40F206662900300002F0C8FC0120D6
:1016D00003F072FB40F207672900380002F0BFFCFC
:1016E000012003F069FB29004FF4C16002F0B7FC50
:1016F000012003F061FB4946200002F0B0FC01200C
:1017000003F05AFB4946300002F0A9FC012003F027
:1017100053FB4946380002F0A2FC012003F04CFBC9
:1017200049464FF4C16002F09AFC012003F044FBEB
:101730005146200002F093FC012003F03DFB51468E
:10174000300002F08CFC012003F036FB51463800DB
:1017500002F085FC012003F02FFB51464FF4C160DD
:1017600002F07DFC012003F027FB5946200002F027
:1017700076FC012003F020FB5946300002F06FFC9C
:10178000012003F019FB5946380002F068FC0120E3
:1017900003F012FB59464FF4C16002F060FC0120D7
:1017A00003F00AFBDFF848572900200002F057FC3D
:1017B000012003F001FB2900300002F050FC012061
:1017C00003F0FAFA2900380002F049FC012003F086
:1017D000F3FA29004FF4C16002F041FC012003F04C
:1017E000EBFA00F00BF80020DFF8CC160860DFF809
:1017F000040701F0ADFCBDE8F18F000080B52DEDD0
:10180000028B9FED2E8BDFF8F006806904F054F810
:1018100053EC182B04F062F80022DFF8E03604F0F5
:101820002FF904F051FADFF8D8160860DFF8D40673
:10183000806904F041F853EC182B04F04FF80022B3
:10184000DFF8B83604F01CF904F03EFADFF8B816F9
:101850000860DFF8B806806904F02EF853EC182B06
:1018600004F03CF80022DFF8943604F009F904F0A3
:101870002BFADFF89C1608600A48806904F01CF80F
:1018800053EC182B04F02AF80022DFF8703604F02D
:10189000F7F804F019FADFF87C160860BDEC028B4B
:1018A00001BD0000BC7C0020E07C0020E87D002021
:1018B000047D0020EC7D0020287D00200000000039
:1018C000008076402DE9F84F40F20166DFF8484687
:1018D0002100300002F0C3FB40F202672100380013
:1018E00002F0BDFB40F203682100404602F0B7FB66
:1018F000012003F061FA40F204692100484602F039
:10190000AEFBDFF818562900300002F0A8FB2900D2
:10191000380002F0A4FB012003F04EFA29004046F3
:1019200002F09DFB2900484602F099FB0020DFF8F9
:1019300048140860CB490860DFF8E4653060DFF8E0
:10194000E475386040F20568DFF8DC9549464046AA
:1019500002F085FB012003F02FFA40F2066A4946A7
:10196000504602F07CFB012003F026FA40F2076BA0
:101970004946584602F073FB012003F01DFA494620
:101980004FF4C16002F06BFB012003F015FADFF8A1
:101990009C05DFF89C158969C9170160DFF894156B
:1019A0008969C917DFF890251160DFF890158969FA
:1019B000C917DFF88C251160C1498969C917DFF89B
:1019C000842511600068002805D0DFF87C154046AA
:1019D00002F045FB04E0DFF87415404602F03FFBDF
:1019E000012003F0E9F9DFF850050068002805D070
:1019F000DFF85415504602F032FB04E0DFF84C15D6
:101A0000504602F02CFB012003F0D6F9DFF8300538
:101A10000068002805D0DFF83015584602F01FFB9B
:101A200004E0DFF82815584602F019FB012003F006
:101A3000C3F9DFF810050068002806D0DFF80815A4
:101A40004FF4C16002F00BFB05E0DFF800154FF426
:101A5000C16002F004FB012003F0AEF93868FE28F3
:101A60002FD0DFF8EC14404602F0F9FA012003F021
:101A7000A3F94946404602F0F2FA012003F09CF92E
:101A800006E04946404602F0EAFA0A2003F094F9DB
:101A90003868FE28F5D12100404602F0E0FA012026
:101AA00003F08AF92900404602F0D9FA012003F038
:101AB00083F9DFF8A014404602F0D1FA012003F0C8
:101AC0007BF93868FE2832D13068FE282FD0DFF845
:101AD0008014504602F0C3FA012003F06DF9494624
:101AE000504602F0BCFA012003F066F906E04946D0
:101AF000504602F0B4FA0A2003F05EF93868FE2876
:101B0000F5D12100504602F0AAFA012003F054F961
:101B10002900504602F0A3FA012003F04DF9DFF846
:101B20003414504602F09BFA012003F045F938685E
:101B3000FE2839D13068FE2836D14A480068FE2890
:101B400032D0DFF80C14584602F089FA012003F075
:101B500033F94946584602F082FA012003F02CF985
:101B600009E04946584602F07AFA012003F024F9C8
:101B70000A2003F021F93868FE28F2D121005846E6
:101B800002F06DFA012003F017F92900584602F01F
:101B900066FA012003F010F9DFF8B813584602F096
:101BA0005EFA012003F008F93868FE2843D1306856
:101BB000FE2840D12B480068FE283CD16E480068C2
:101BC000FE2838D0DFF888134FF4C16002F047FADE
:101BD000012003F0F1F849464FF4C16002F03FFAEA
:101BE000012003F0E9F80AE049464FF4C16002F031
:101BF00036FA012003F0E0F80A2003F0DDF8386837
:101C0000FE28F1D121004FF4C16002F028FA012032
:101C100003F0D2F829004FF4C16002F020FA01204D
:101C200003F0CAF8DFF82C134FF4C16002F017FA82
:101C3000012003F0C1F83868FE2810D13068FE2872
:101C40000DD108480068FE2809D14B480068FE28DD
:101C500005D10120C04908700020C0490860BDE8D6
:101C6000F18F0000F07D002038B5BD4CA04226D198
:101C700097480188012904D04FF6FF72914209D09C
:101C80000BE0022101800020B64908808F4800F057
:101C900001FF02E04FF400410180B2480288B249DE
:101CA0000B78B24D92B2AB540288521C02800020D5
:101CB000864A126850620122200004F0CCF831BD3F
:101CC0004C7D002038B57D4C2168A94801F040FAD0
:101CD000A84D7C482968405CA7490860212807D0A6
:101CE00024D3232810D009D3252819D012D31DE0DE
:101CF00001224321012004F002FC17E001221021FF
:101D0000012004F0FCFB11E001221421012004F069
:101D1000F6FB0BE001220E21012004F0F0FB05E0B0
:101D200001220F21012004F0EAFBFFE72868401C94
:101D3000322190FBF1F201FB120028602068401E66
:101D4000206031BD10B5624C2088B0F5004F01D144
:101D5000002020802088032801D100F01BF8208873
:101D6000002808D155480068401E322803D2FFF7EA
:101D7000A9FF0120208010BDF47D0020D97E002025
:101D8000D87E0020D07E00208C7B0020403802408E
:101D9000147B002070B5794E744C724D2988891ED1
:101DA000200004F08DFB30807548318889B232887C
:101DB000120252EA11220280298889B2214411F8C4
:101DC000021C2A880088C9B292B2224412F8012C5F
:101DD00052EA0122904261D1207801285AD16078DC
:101DE000032853D1A078C0B22988491F884249D11D
:101DF00061480068212807D043D323281AD00ED386
:101E0000252833D027D33CE05E4801F0A1F9E078E3
:101E1000C0B2217951EA00215B48018041E05B4872
:101E200001F096F9E078C0B2217951EA00215648D4
:101E3000418036E0564801F08BF9E0785249C0B253
:101E4000227952EA00228A80888880000A2290FB48
:101E5000F2F0888025E04F4801F07AF9E078C0B2CE
:101E6000217951EA00214848C1801AE04A4801F02E
:101E70006FF9E078C0B2217951EA0021424801812E
:101E80000FE00EE0454801F063F90AE0444801F034
:101E90005FF906E0434801F05BF902E0424801F0D7
:101EA00057F900200A49088070BD0000D17E00204B
:101EB000507B002000040040207E0020187E00207F
:101EC000107E0020F87B0020247E0020D87A00209D
:101ED000BE7E00205C000020640000206C0000201A
:101EE000740000207C000020840000200C7E002074
:101EF0008C0000209CD90008507C00200070B74066
:101F0000A47E0020747C0020A87E0020987C002005
:101F1000AC7E0020B07E0020140000200C000020C9
:101F2000EC7D0020E87D002094000020F87D00205A
:101F3000E07C0020047D0020FC7D0020287D002026
:101F4000007E0020047E0020340000203C000020A1
:101F5000540000201C0000206E010020A07E002004
:101F6000987A0020B87E0020CE7E0020E07000200D
:101F7000D0D90008147E00201C7E0020C27E0020E4
:101F8000C07E0020F8DA0008C47D0020E8D90008EF
:101F900008DB00084CDA000860DA000818DB0008EB
:101FA00028DB0008A8DB0008B4DB0008F8B5040053
:101FB00000202078C0075CD5DFF83803016811F0F5
:101FC0000C01042909D0006810F00C0008280ED17B
:101FD000DFF824030068400209D5DFF82003006819
:101FE000800346D56068002843D1012081E1606804
:101FF000B0F5803F06D1DFF80403016851F4803169
:10200000016017E06068B0F5A02F0AD1DFF8EC029C
:10201000016851F480210160016851F48031016050
:1020200008E0B648016831F480310160016831F49C
:1020300080210160606800280DD004F0A9FA050035
:10204000AE480068800314D404F0A2FA401B65284F
:10205000F6D303204DE104F09BFA0500A748006881
:10206000800306D504F094FA401B6528F6D30320BC
:102070003FE12078800722D59E48016811F00C0FBF
:1020800008D0006810F00C0008282FD19A4800688A
:1020900040022BD499480168890704D5E1680129D9
:1020A00001D0012025E101685FF0F852B2FA82F216
:1020B00031F0F801236913FA02F21143016020782C
:1020C000000756D56069002842D001208C4908607D
:1020D00004F05EFA05008B480068800749D404F0DC
:1020E00057FA401B0328F6D3032002E1E0680028DA
:1020F0001DD001208449086004F04AFA05007F4899
:102100000168890706D404F043FA401B0328F6D37C
:102110000320EEE001685FF0F852B2FA82F231F08B
:10212000F801236913FA02F211430160C7E70020A6
:102130007549086004F02CFA0500704800688007B3
:10214000BDD504F025FA401B0328F6D30320D0E0C8
:1021500000206B49086004F01BFA0500694800681C
:10216000800706D504F014FA401B0328F6D3032099
:10217000BFE0207840075FD50020009063480168E9
:1021800051F080510160006810F08050009000987C
:102190005F4E306850F48070306004F0F9F905004B
:1021A0003068C00506D404F0F3F9401B0328F7D3C8
:1021B00003209EE0A068012805D15648016851F02F
:1021C0000101016015E0A068052809D151480168A6
:1021D00051F004010160016851F00101016008E063
:1021E0004C480168490849000160016831F0040168
:1021F0000160A06800280FD004F0CAF90500454826
:102200000068800718D404F0C3F9401B41F28931FB
:102210008842F4D303206CE004F0BAF905003D488D
:102220000068800708D504F0B3F9401B41F28931FA
:102230008842F4D303205CE0A069002858D02D48E0
:10224000006810F00C00082850D0A06902283CD18A
:10225000314E0020306004F09BF90700274D2868BC
:10226000800106D504F094F9C01B0328F6D303209F
:102270003FE02A48B0FA80F14FF44040B0FA80F2D3
:10228000F020B0FA80F3E769206A0743606A10FA29
:1022900001F13943A06A4008401E10FA02F21143CE
:1022A000E06A10FA03F3194313480160012030601B
:1022B00004F06EF904002868800119D404F068F96C
:1022C000001B0328F7D3032013E000201249086005
:1022D00004F05EF9040009480068800108D504F0A4
:1022E00057F9001B0328F6D3032002E0012000E089
:1022F0000020F2BD08380240043802400038024095
:10230000800E474274380240000047424038024085
:102310000070004070380240600047420000FE0339
:102320002DE9F04104000D000020714E306810F0DE
:102330000F00A84207D23570306810F00F00A84295
:1023400001D00120ABE02078800706D569490A68F2
:1023500032F0F002A06802430A602078C00768D516
:102360006068012805D164480068800313D4012007
:1023700095E06068022802D06068032805D15E48B5
:102380000068800107D4012089E05B48006880076D
:1023900001D4012083E0574F3968890889006068BB
:1023A0000143396004F0F4F88046606801280ED1DA
:1023B000386810F00C0004283BD004F0E9F8B0EBCA
:1023C000080041F289318842F2D3032067E0606857
:1023D00002280ED1386810F00C00082829D004F02B
:1023E000D7F8B0EB080041F289318842F2D30320DC
:1023F00055E0606803280ED1386810F00C000C28F6
:1024000017D004F0C5F8B0EB080041F289318842DA
:10241000F2D3032043E0386810F00C0F09D004F029
:10242000B7F8B0EB080041F289318842F3D30320BA
:1024300035E0306810F00F00854207D23570306803
:1024400010F00F00A84201D0012028E020784007BA
:1024500006D528490A6832F4E052E06802430A606F
:102460002078000707D52348016831F460412269CC
:1024700051EAC201016000F049F81E4909685FF0A5
:102480007062B2FA82F21D4B11F0F001D140595C3A
:10249000C8401B490860002004F080F80020BDE817
:1024A000F08101201749086070471548006870479F
:1024B00080B5FFF7FAFF0F4909685FF46012B2FABE
:1024C00082F2114B11F4E051D140595CC84002BD79
:1024D00080B5FFF7EAFF074909685FF4E022B2FA26
:1024E00082F2094B11F46041D140595CC84002BDF1
:1024F000003C0240083802400038024038DB000847
:10250000040000204C00474258DC000810B40020B2
:102510000020002000201F48006810F00C00002858
:1025200004D0042804D0082804D030E01A482FE052
:102530001A482DE01A49086810F03F000A68520254
:102540000CD50B68174AB2FA82F4144AB2FBF0F2C7
:1025500047F6C0700340E3405A430BE00B68114A52
:10256000B2FA82F40C4AB2FBF0F247F6C0700340B4
:10257000E3405A4308684FF44041B1FA81F110F446
:102580004030C840401C4000B2FBF0F000E0024880
:1025900010BC7047083802400024F40000127A0092
:1025A000043802400000FE0310F00700464B1A6892
:1025B0004FF6FF010A40454951EA00210A431A60DB
:1025C000704741480068C0F302207047012210F0B4
:1025D0001F018A403E4940B2400941F8202070471F
:1025E000020052B2002A08D509013A4A40B210F05E
:1025F0000F00104400F8041C03E00901364A40B201
:102600001154704710B410F00700D0F10703052BE8
:1026100001D3042301E0D0F10703041D072C01D2EC
:10262000002000E0C01E012414FA03F35B1E1940D1
:10263000814014FA00F0401E1040084310BC70475F
:1026400080B5411EB1F1807F01D301200EE0401E14
:10265000224908600F215FF0FF30FFF7C1FF002023
:102660001F49086007201F490860002002BD80B58F
:10267000FFF79AFF01BD70B504000D0016000020A1
:10268000FFF79FFF32002900FFF7BCFF0100200089
:1026900040B2FFF7A5FF70BD80B540B2FFF796FFCF
:1026A00001BD80B5FFF7CCFF02BD042805D10D4860
:1026B000016851F00401016004E00A48016831F04A
:1026C00004010160704700000CED00E00000FA0515
:1026D00000E100E018ED00E000E400E014E000E0BC
:1026E00018E000E010E000E080B500F001F801BD66
:1026F0007047F0B40246106895681318506803EBF1
:102700005004C0071DD54D441BE013F8017B05F8AC
:10271000017B491EF9D1A0B1B60813F8011B06F0E0
:102720000306032E08BF13F8016B01EB0621494293
:10273000801C294405D011F8016B05F8016B401E7F
:10274000F9D1A3420ED013F8016B16F0030104BFB8
:1027500013F8011BC91C30090F28DAD113F8010B3B
:102760000F30D6E7F0BC02F10C00704780B50B4883
:10277000016851F400710160016851F480610160E9
:10278000016851F4807101600320FFF770FF0020A1
:1027900003F004FF03F016FF002002BD003C0240DE
:1027A00010B586B001687A4A91421AD1002005908E
:1027B0007848016851F010010160006810F01000C5
:1027C00005900598C0200090022001900120029001
:1027D000032003900720049069466F4803F02AFF06
:1027E00048E000686D49884244D1002005906C485B
:1027F000016851F480210160006810F48020059088
:102800000598002005906748016851F0800101603B
:10281000006810F08000059005984FF480600090EB
:102820000220019003200390072004905A4C69462F
:10283000200003F0FFFE4FF40060009002200190A2
:1028400000200290072004906946200003F0F2FE69
:10285000554C00224FF48071200003F0D9FF4FF453
:1028600080700090012001900220039069462000B2
:1028700003F0E0FE06B010BD1CB5002000904948F2
:10288000016851F002010160006810F00200009040
:10289000009846483E4901605FF4E1314160002103
:1028A00081600021C160002101610C214161002192
:1028B00081610021C16103F025FA002000903848B1
:1028C000016851F480210160006810F480200090BC
:1028D00000982BA000F03CFC354C304820604FF4B1
:1028E000165060604FF48050A0600020E0604FF40C
:1028F000806020610C2060610020A0610020E06108
:102900002C4800F025FC200003F0FCF91DA000F08D
:102910001FFC002200212720FFF7ADFE2720FFF734
:10292000BBFE19A000F014FC01222349200003F093
:1029300092FA16A000F00CFC13BD70B504000D0057
:10294000194E01224FF48071300003F061FF4FF601
:10295000FF732A0092B22100154803F00EFA0022FC
:102960004FF48071300003F053FF70BD01B54FF696
:10297000FF73012269460D4803F0FFF9009802BD7C
:10298000310A0000320A0000330A0000340A000055
:10299000001001404438024000040240004800405A
:1029A0004038024030380240001C0240587A002073
:1029B000987A002038DC0008CE7E002018B58BB055
:1029C000234C24482060532060600020A06040F623
:1029D0004660E060002020610821200000F076F8C9
:1029E0004FF48050079007A9200000F081F93020B3
:1029F000009040F21A60019000200290082003909D
:102A000000200490002005900020069000226946D6
:102A1000200000F03EF90CB010BD80B500680D49F3
:102A2000884213D1002000900B48016851F0080142
:102A30000160006810F0080000900098002200215A
:102A40003220FFF718FE3220FFF726FE01BD0000FE
:102A5000D87A0020000C00404038024010B5040035
:102A6000002C01D1012014E094F93900002805D18F
:102A7000002084F83800200000F069FB022084F870
:102A80003900211D206800F0BFF9012084F83900C9
:102A9000002010BD022180F839100168096851F04A
:102AA000010102681160012180F83910002070478F
:102AB0000168C96851F001010268D16001680968C4
:102AC00051F00101006801600020704738B5040032
:102AD0000D00002C01D101201FE094F939000028DD
:102AE00005D1002084F838002000FFF796FF02206F
:102AF00084F83900211D206800F086F920680068FC
:102B000030F00800216808602068006805432068EC
:102B10000560012084F83900002032BD10B50400A2
:102B20002068006980071AD52068C068800716D51C
:102B30007FF002002168086101202076206880690A
:102B400010F0030F03D0200003F088FE05E0200002
:102B5000FEF7C6FC200003F082FE002020762068ED
:102B6000006940071AD52068C068400716D57FF075
:102B7000040021680861022020762068806910F432
:102B8000407F03D0200003F069FE05E02000FEF73F
:102B9000A7FC200003F063FE002020762068006977
:102BA00000071AD52068C068000716D57FF0080016
:102BB00021680861042020762068C06910F0030FA6
:102BC00003D0200003F04AFE05E02000FEF788FC59
:102BD000200003F044FE0020207620680069C00633
:102BE0001AD52068C068C00616D57FF0100021688D
:102BF0000861082020762068C06910F4407F03D067
:102C0000200003F02BFE05E02000FEF769FC200009
:102C100003F025FE0020207620680069C0070AD551
:102C20002068C068C00706D57FF0010021680861F0
:102C30002000FEF7B1FB2068006900060AD5206875
:102C4000C068000606D57FF080002168086120007A
:102C500003F006FE2068006940060AD52068C068B7
:102C6000400606D57FF0400021680861200003F08F
:102C7000F8FD2068006980060AD52068C0688006D3
:102C800006D57FF0200021680861200003F0EAFDEE
:102C900010BD10B5040094F93800012801D10220BC
:102CA00025E0012084F83800022084F83900002A49
:102CB00006D0042A08D0082A0AD00C2A0CD00FE02B
:102CC000206800F04EF90BE0206800F00FF907E0F3
:102CD000206800F07CF903E0206800F0B2F9FFE71B
:102CE000012084F83900002084F83800002010BD4D
:102CF00010B50400002094F93800012801D1022009
:102D000081E0012084F83800022084F8390020682E
:102D1000806830F0770030F47F4022689060086867
:102D2000002855D0102858D020285BD030285ED0FD
:102D3000402843D050282DD0602835D070280DD0A1
:102D4000B0F5805F03D0B0F5005F16D054E0206886
:102D50008068C008C000216888604DE0CB684A6880
:102D60008968206800F0E7F92068806830F0770013
:102D700050F07700216888603EE0CB684A68896837
:102D8000206800F0D8F92068806850F480402168FD
:102D9000886031E0CA684968206800F099F95021DC
:102DA000206800F0BEF927E0CA684968206800F092
:102DB000A3F96021206800F0B4F91DE0CA684968F1
:102DC000206800F085F94021206800F0AAF913E09E
:102DD0000021206800F0A5F90EE01021206800F025
:102DE000A0F909E02021206800F09BF904E03021DF
:102DF000206800F096F9FFE7012084F839000020F0
:102E000084F83800002010BD10B400220468DFF8F8
:102E10009432984212D0B0F1804F0FD0DFF8882260
:102E200090420BD0DFF88422904207D0DFF8802256
:102E3000904203D0DFF87C22904201D1012200E0D1
:102E40000022D2B2002A03D034F070044A6814433E
:102E500098422AD0B0F1804F27D0DFF84C22904220
:102E600023D0DFF8482290421FD0DFF8442290425E
:102E70001BD0DFF84022904217D0DFF83C2290426E
:102E800013D0DFF8382290420FD0DFF8342290427E
:102E90000BD0DFF83022904207D0DFF82C2290428E
:102EA00003D0DFF82822904201D1012200E0002265
:102EB000D2B2002A03D034F44074CA6814430460C8
:102EC0008A68C2620A688262984203D0DFF8E4210D
:102ED000904201D1012200E00022D2B2002A01D0AA
:102EE000096901630121416110BC704730B40022BF
:102EF00000220022026A32F010020262046A45686F
:102F0000836933F4E04333F440730A6853EA0223DD
:102F100034F020048A6854EA0214624A904202D0D3
:102F2000644A904201D1012200E00022D2B2002A7C
:102F300010D034F08004CA6854EA021434F040041B
:102F400035F4806535F400654A6955EA82058A6979
:102F500055EA82054560836149688163046230BC3B
:102F6000704730B4002200220022026A5208520048
:102F70000262046A4568836933F070039B089B0012
:102F80000A68134334F002048A681443454A9042A5
:102F900002D0484A904201D1012200E00022D2B280
:102FA000002A0DD034F00804CA68144334F0040435
:102FB00035F4807535F400754A6915438A691543FF
:102FC0004560836149684163046230BC704730B436
:102FD000002200220022026A32F480720262046A35
:102FE0004568C36933F070039B089B000A6813436C
:102FF00034F400748A6854EA02242A4A904202D0C7
:103000002C4A904201D1012200E00022D2B2002AD3
:1030100010D034F40064CA6854EA022434F48064A2
:1030200035F4805535F400554A6955EA02158A6928
:1030300055EA02154560C3614968C163046230BC4A
:10304000704730B4002200220022026A32F480521B
:103050000262046A4568C36933F4E04333F44073A1
:103060000A6853EA022334F400548A6854EA0234AA
:103070000C4A904202D00F4A904201D1012200E056
:103080000022D2B2002A04D035F480454A6955EABC
:1030900082154560C36149680164046230BC7047B1
:1030A0000000000000000140000400400008004053
:1030B000000C004000040140004001400044014079
:1030C0000048014000180040001C00400020004063
:1030D00010B400230023046A036A5B085B000362E8
:1030E000836933F0F00353EA021334F00A042143F6
:1030F0008361016210BC704710B400230023036A8F
:1031000033F0100303628369046A33F4704353EAB3
:10311000023334F0A00454EA01148361046210BC49
:1031200070470022826832F0700289B251F00701C4
:1031300011438160704710B40024846834F47F44E4
:10314000114351EA03212143816010BC704770474D
:103150000EB4C0B5024603A800210190009101AB56
:103160000121044878440C3003F07EFB06BC5DF876
:1031700010FB00BF8DA8000080B501F06DFE01F0CE
:10318000ACFF01F0EBFF04F013FB04F0F7FC01F0DF
:103190006CFD01BD00B585B090F83310C9070CD5A2
:1031A000001D05F09BFA020021A1684605F0ECFA2B
:1031B00069462048FFF7CCFF02E01F48FFF7C8FF31
:1031C00005B000BD10B588B0040094F83300400786
:1031D0001FD51A48FFF7BCFF194802907FF07F40C7
:1031E0000190184800906B4601AA02A9200001F046
:1031F000F5FF201D05F072FA02000DA103A805F0ED
:10320000C3FA03A90B48FFF7A3FF200002F046F81A
:1032100005E0200002F063F80748FFF799FF08B0C7
:1032200010BD80B5084802F076FA01F088FD01BDB6
:1032300025730000B8D9000828D8000850D8000825
:10324000C0A80065C0A800018C7B00202DE9FC41CE
:103250000400002000200090DFF8B06C3000002057
:103260000025002C01D1012013E194F8440000282E
:1032700005D1002084F84500200002F04BF8002022
:103280000190DFF88C0C016851F480410160006806
:1032900010F4804001900198DFF8781C086830F441
:1032A000000008600A68206A02430A604FF48057F1
:1032B0002068C05950F001002168C85103F068F936
:1032C00080462068C059C0070FD503F061F9B0EB04
:1032D000080040F2F5118842F3D3032084F844003B
:1032E000002084F845000320D3E02068076937F008
:1032F0001C07FFF7DAF8DFF8201C411ADFF81C2C56
:10330000914202D257F008071AE0DFF8141C411A64
:10331000DFF8102C914202D257F00C0710E0861B08
:10332000DFF8041C8E420BD3DFF8001C401ADFF8D4
:10333000001C884202D257F0040701E057F0100742
:10334000206807614FF400420021200000F0D8FA05
:10335000002808D00121200000F0F5FB012084F8AE
:103360004400012095E0FF2001F026FD6068002860
:103370006DD003F00DF907006A460121200000F02E
:103380007DFA41F2893603F003F9C01BB04213D233
:1033900000984007F0D54FF480520021200000F043
:1033A000AFFA002814D00121200000F0CCFB01204E
:1033B00084F8440001206CE00121200000F0C3FBF0
:1033C000012084F84400002084F84500032060E0D8
:1033D00003F0DEF807006A460121200000F04EFAF3
:1033E00003F0D6F8C01BB04212D200988006F2D586
:1033F0006A461021200000F041FA002814D0012173
:10340000200000F0A0FB012084F84400012040E0EF
:103410000121200000F097FB012084F844000020E7
:1034200084F84500032034E00098400703D54FF4AA
:103430000060E06001E00020E0600098800702D5B5
:103440000020A0601DE04FF48040A06019E0E26819
:10345000D20892B2A068400880B202430021200046
:1034600000F04EFA002808D00121200000F06BFB8C
:10347000012084F8440001200BE040F6FF7001F0C9
:103480009BFC2900200000F05EFB012084F8440032
:103490000020BDE8F68170B40400002094F94500D6
:1034A000012801D1022032E0012084F845000220E9
:1034B00084F84400E16200251CE0F16019E0680135
:1034C00001EB00065FF48010306040F2F45000FB26
:1034D00005F01044B060E069002803D1306850F472
:1034E00040003060581E8542E7D268010844203011
:1034F000F0606D1C9D42E2D3206841F210028150C1
:10350000012084F84400002084F84500002070BCAD
:10351000704770B4002490F94540012C01D102207D
:1035200034E0012480F84540022480F84440816260
:1035300000241EE0E9601BE065010D445FF00046D9
:103540002E6044F2F4566E6040F2F45606FB04F628
:103550001644AE608669012E03D16E6826F00046DF
:103560006E605E1EB442E5D266010E442036EE6007
:10357000641C9C42E0D3026841F20C03D15001214B
:1035800080F84410002180F84510002070BC70477E
:1035900070B4020000200020002092F945000128AC
:1035A00001D1022089E0012082F84500022082F842
:1035B0004400002907D1012082F84400002082F84D
:1035C0004500012079E0D06A0068002807D5122064
:1035D00082F84400002082F8450001206DE040F2AE
:1035E000F55081420DD340F2F450B1FBF0F340F2BC
:1035F000F450B1FBF0F400FB1410002802D05B1C67
:1036000000E00123012B13D1D06A006850F0405034
:10361000D36A1860C904C90CD06A4160D06A0068D6
:1036200050F00040D16A0860D06AC068D0622FE0D4
:1036300000202BE0D46A246834F04054D56A2C6012
:10364000002805D1D46A246854F08054D56A2C60CF
:1036500040F2F455D46A65605C1EA0420CD1D46A75
:10366000246854F00054D66A34605C1E05FB1414C0
:10367000E404E40CD56A6C60D46A246854F0004415
:10368000D56A2C60D46AE468D462401C9842D1D3D5
:1036900041F2140011680958490707D5042113683D
:1036A00019500020116841F20403C850012082F82B
:1036B0004400002082F84500002070BC70470021C3
:1036C00090F94510012901D1022046E0012180F83E
:1036D0004510022180F84410816A0968002935D418
:1036E000816A0968C9051DD5816B491C8163816B9D
:1036F000012901D1816A0163816A4163816A096894
:10370000C1F30D41091FC163016B89680164816ABE
:10371000C9688162012180F84410002180F84510B9
:1037200000201AE0816A0968890509D5816A016368
:103730000021416301218163816AC968816205E0DA
:10374000816B491C8163816AC9688162012180F8AB
:103750004410002180F8451001207047002190F9A5
:103760004520012A01D102204CE0012280F84520A9
:10377000022280F8442006E0826A0263012282630A
:10378000826AD2688262826A1268002A33D404296B
:1037900031D2491C826A126812F44072B2F5007F7D
:1037A000EAD0826A126812F4407F06D1826B521C02
:1037B0008263826AD2688262E5E7816A4163816BD3
:1037C000491C8163816B012901D1816A0163816A8E
:1037D0000968C1F30D41091FC163016B8968016468
:1037E000816AC9688162012180F84410002180F853
:1037F0004510002006E0012180F84410002180F8E7
:1038000045100120704738B5040041F214052068C6
:10381000405940060CD52000FDF738FD40202168B6
:103820004851012084F84400002084F845000FE04E
:1038300020684059C0070BD5200004F0C5FF0120C7
:1038400021684851012084F84400002084F8450094
:103850005FF48030216848512068405900040CD53D
:10386000200004F0B2FF4FF40040216848510120CD
:1038700084F84400002084F8450031BDF8B5040008
:103880000E0015000020002094F84400822801D189
:10389000022034E0822084F844002068006910F09F
:1038A0001C00218AC90211F478410843B6B2B6015E
:1038B00016F4F866064336F0020656F00106206854
:1038C000066102F065FE070001E020680669F00766
:1038D0000DD502F05DFEC01BB0F5803FF5D3012091
:1038E00084F84400002084F84500032007E02068A5
:1038F000406980B22860012084F844000020F2BDB5
:1039000070B504000D000020002094F84400422807
:1039100001D1022033E0422084F84400206800698D
:1039200010F01C00218AC90211F478410843ADB29D
:10393000AD0115F4F865054355F0020555F0010594
:1039400092B2206842612068056102F021FE060003
:1039500001E020680569E8070DD502F019FE801B1B
:10396000B0F5803FF5D3012084F84400002084F8AE
:103970004500032003E0012084F84400002070BDCE
:1039800010B5040094F94500012801D102201BE084
:10399000012084F84500022084F84400200000F053
:1039A00018FA200000F03DFA200000F086FA20000E
:1039B00000F05FFA200000F06EFA012084F8440065
:1039C000002084F84500002010BD10B5040094F9D3
:1039D0004500012801D102201BE0012084F84500A8
:1039E000022084F84400200000F04CFA200000F08F
:1039F0005BFA200000F029FA200000F05EFA2000B7
:103A000000F0FBF9012084F84400002084F8450010
:103A1000002010BD70B505000C00002095F9450090
:103A2000012801D102208DE0012085F84500022007
:103A300085F84400002C6DD028680168DFF8F40494
:103A40000140226860680243A0680243E0680243C4
:103A5000A86802432069024360690243E8680243A0
:103A6000A0690243E0690243206A0243606A02439C
:103A7000A06A024311432868016028680668012093
:103A800001F09AF928680660E16A206B0143606BD7
:103A90000143A06B0143E06B0143206C0143606C68
:103AA0000143A06C014328684160286846680120F2
:103AB00001F082F928684660E06C29688860206D12
:103AC0002968C860286881694FF641700140606DBF
:103AD000A26D52EA0042E06D0243206E0243606E26
:103AE0000243A06E024311432868816128688669F9
:103AF000012001F061F928688661E16E206F0143C1
:103B00002868C1612868C469012001F055F9286856
:103B1000C46110E02868016831F49041AA68E8683F
:103B2000024311432868016028680468012001F0FD
:103B300043F928680460012085F84400002085F8D6
:103B40004500002070BD78B5ADB00400002000290C
:103B500005D04FF40060E0604FF48040A06000208A
:103B6000109000201190002012900020139000204F
:103B7000149000201590E069002803D14FF4806074
:103B8000169001E0002016904FF40070179000206E
:103B900018900020199000201A9000201B900020FF
:103BA0001C9040201D9000201E9000201F9000209F
:103BB00020900020219000202290002023900020BF
:103BC000249000202590802026900020279000201F
:103BD00028900020299000202A9000202B9000207F
:103BE0002C9020680168D3480140109A1198024334
:103BF0001298024313980243A068024314980243A8
:103C000015980243E068024316980243179802434E
:103C100018980243199802431A98024311432068E6
:103C2000016020680568012001F0C6F82068056081
:103C30001B991C9801431D9801431E9801431F982E
:103C400001432098014321980143229801432068B1
:103C5000416020684568012001F0AEF820684560A9
:103C600023982168886024982168C8602068816949
:103C70004FF6417001402598269A52EA0042279853
:103C8000024328980243299802432A980243114389
:103C90002068816120688569012001F08DF8206825
:103CA00085612B992C9801432068C1612068C56902
:103CB000012001F081F82068C561002000905FF0CC
:103CC00000700190002102915FF400110391002126
:103CD0000491002105910021069100210791042102
:103CE000089109905FF480300A905FF480000B9097
:103CF0004FF400500C9080200D9000200E9000207A
:103D00000F9041F21805206841598B480140009AF4
:103D10000198024302980243039802430498024325
:103D20000598024306980243079802430898024305
:103D300011432068415120684659012001F03CF8A8
:103D4000206846514FF4805509990A9801430B9811
:103D500001430C9801430D9801430E9851EA8001EC
:103D60000F98014351F400012068415120684659E1
:103D7000012001F021F820684651A06901280CD1EA
:103D800041F21C002168095841F4803151F0400192
:103D9000226811506948FFF7DBF9626900212000B1
:103DA00000F002F82EB070BD5379107950EA03206C
:103DB000634B5B181860D07893781B0453EA006358
:103DC000507853EA0023107803435E4841180B6093
:103DD00070471CB50400002000902068006850F077
:103DE000080021680860206800680090012000F049
:103DF0007AF800982168086013BD1CB50400002003
:103E000000902068006830F0080021680860206891
:103E100000680090012000F066F8009821680860B2
:103E200013BD1CB50400002000902068006850F00D
:103E3000040021680860206800680090012000F0FC
:103E400052F800982168086013BD1CB504000020DA
:103E500000902068006830F0040021680860206845
:103E600000680090012000F03EF80098216808608A
:103E700013BD41F218010268525852F40052006812
:103E80004250704741F218010268525832F4005211
:103E900000684250704741F218010268525852F0CF
:103EA000020200684250704741F2180102685258FD
:103EB00032F0020200684250704738B5040000201A
:103EC000009041F218052068405950F48010216894
:103ED0004851206840590090012000F004F80098F3
:103EE0002168485131BD81B017490968C9084FF4AC
:103EF0007A72B1FBF2F14843009000BF0098411E76
:103F000000910028F9D101B07047000000879303A9
:103F10004438024004380140002D3101C0E1E40082
:103F2000C00E160240787D01005A620200E1F505DC
:103F300080F0FA020F8120FF233FDEF874DA0008D8
:103F400040800240448002400400002010B58AB046
:103F5000524C534820605348206353486063062006
:103F600060600020A0600020E0605FF4A02020617D
:103F70005FF4C00060610020A0610120E0610120C9
:103F80002062002060620020A0620020E062200029
:103F900000F094F800200590002006900120079082
:103FA000002000900020019000200290002003904B
:103FB00000200490012008900E20099069462000FE
:103FC00000F04FF90AB010BD10B586B00068344952
:103FD000884242D1002000903448016851F00071BD
:103FE0000160006810F000700090009800200090C0
:103FF0002F48016851F480710160016811F48071EB
:104000000091009900210091016851F002010160C6
:10401000006810F00200009000984FF400740194C2
:1040200002200290002003900920059001A9214858
:1040300002F000FB0194022002900220049009206B
:10404000059001A91C4802F0F5FA00220021142075
:10405000FEF711FB1420FEF71FFB06B010BD10B5D4
:104060000E4A136B18600020136B98600020136BCE
:10407000D8600820136B1861002005E00B78146BE2
:1040800004442375491C401C136B1B699842F5D3EB
:104090000A21100000F068F910BD0000147A002019
:1040A00000640040707D00202C7C002040380240DD
:1040B00030380240000402400020024070B5040085
:1040C00000250020002C01D10120C9E094F93C001A
:1040D000002805D1002084F83D002000FFF774FF80
:1040E000022084F83C002068006830F0020021685B
:1040F00008602068006850F001002168086002F044
:1041000047FA060020684068C0070CD402F040FA65
:10411000801B0B28F6D3032084F83C00002084F891
:104120003D0003209CE020684068C00740F18B8080
:10413000A069012806D12068006850F0800021683D
:10414000086005E02068006830F0800021680860A1
:10415000E069012806D12068006850F0400021681D
:10416000086005E02068006830F0400021680860C1
:10417000206A012806D12068006850F020002168DC
:10418000086005E02068006830F0200021680860C1
:10419000606A012806D12068006850F0100021688C
:1041A000086005E02068006830F0100021680860B1
:1041B000A06A012806D12068006850F00800216834
:1041C000086005E02068006830F008002168086099
:1041D000E06A012806D12068006850F004002168D8
:1041E000086005E02068006830F00400216808607D
:1041F000A168E06801432069014360690143606888
:10420000401E01432068C1612068006840084000EA
:104210002168086002F0BCF9060020684068C00709
:104220000CD502F0B5F9801B0B28F6D3032084F8D7
:104230003C00002084F83D00032011E02068406825
:10424000C00700D40125012D06D1002020640120E3
:1042500084F83C00002003E0042084F83C000120A6
:1042600070BD30B4002001204A6910FA02F2DFF874
:104270006433D3F8000250F00100C3F80002D3F811
:10428000000230F47C50C3F80002D3F800024C6AFC
:1042900050EA0420C3F80002D3F81C029043C3F88C
:1042A0001C02C869002816D1D3F80C029043C3F849
:1042B0000C02486903EBC000CC684D68C5EA0444B1
:1042C000C0F84042486903EBC0008C680D68C5EA3D
:1042D0000444C0F84442C869012816D1D3F80C023E
:1042E0001043C3F80C02486903EBC0000C684D682A
:1042F000C5EA0444C0F84042486903EBC0008C683A
:10430000CD68C5EA0444C0F844428869002805D154
:10431000D3F804029043C3F8040204E0D3F8040283
:104320001043C3F804020869002804D1D3F814022A
:104330009043C3F814020869012804D1D3F8140289
:104340001043C3F81402086A012804D1D3F81C02F0
:104350000243C3F81C22D3F8000240084000C3F80F
:104360000002002030BC7047F8B506000D000420A4
:10437000002030688068400108D4306880680001FF
:1043800004D430688068C00040F11E8196F93D0079
:10439000012801D102201BE1012086F83D0096F999
:1043A0003C00222804D0322806D0622808D00BE036
:1043B000422086F83C000AE0522086F83C0006E0E5
:1043C000722086F83C0002E0122086F83C0030683B
:1043D0008068400101D5002406E030688068000153
:1043E00001D5012400E00224306821010844D0F8FE
:1043F000800110F00100316822011144C1F88001F0
:10440000306B8068002811D1306821010844D0F851
:104410008001316B0968326BD26852EA4152104315
:10442000316822011144C1F8800113E03068210194
:104430000844D0F88011306B4068326B926852EAC1
:10444000C002306BC068024311433068220110443F
:10445000C0F88011306B007C10F00F00316B0861E8
:10446000306821010844D0F8840100090001316856
:1044700022011144C1F88401306821010844D0F8B8
:104480008411306B00690143306822011044C0F888
:104490008411306BC07D316B897D090451EA006164
:1044A000306B407D51EA0021306B007D0143306864
:1044B00022011044C0F88811306BC07E316B897EB8
:1044C000090451EA0061306B407E51EA0021306BF3
:1044D000007E0143306822011044C0F88C1130681E
:1044E00021010844D0F8800150F001003168220118
:1044F0001144C1F8800102F04BF80700002C0AD1EA
:10450000DFF87C04316889680140814201D10120D3
:1045100018E0002016E0012C0AD1DFF868043168A9
:1045200089680140814201D101200BE0002009E0AF
:10453000DFF85404316889680140814201D10120CB
:1045400000E00020002822D115F1010FD6D0002D67
:1045500004D002F01DF8C01B8542CFD2032086F89C
:104560003C00002C03D18020316888600AE0012CD7
:1045700004D14FF400403168886003E05FF400002C
:1045800031688860002086F83D00032020E096F91D
:104590003C00422804D0522806D0722808D00BE0F4
:1045A000222086F83C000AE0322086F83C0006E033
:1045B000622086F83C0002E0012086F83C000020E2
:1045C00086F83D00002003E0042086F83C0001202E
:1045D000F2BD0000006400400A00D2B2002A11D1EE
:1045E00090F93C20222A0BD090F93C20422A07D097
:1045F00090F93C20622A03D090F93C20722A01D124
:10460000022071E00A00D2B2012A11D190F93C20B7
:10461000322A0BD090F93C20522A07D090F93C2046
:10462000622A03D090F93C20722A01D102205BE07B
:1046300090F93D20012A01D1022055E0012280F8A5
:104640003D200A00D2B2002A18D190F93C20122A4B
:1046500004D0322A06D0522A08D00BE0422280F839
:104660003C2023E0622280F83C201FE0722280F888
:104670003C201BE0222280F83C2017E090F93C20EF
:10468000122A04D0222A06D0422A08D00BE0522255
:1046900080F83C200AE0622280F83C2006E072228A
:1046A00080F83C2002E0322280F83C2000220264A4
:1046B0000268526942F40F4252F0010203685A61E3
:1046C000002280F83D20C9B2002906D1016849695D
:1046D00051F00A010068416105E00168496951F043
:1046E0005001006841610020704738B50400002087
:1046F0000020002000252068C168090911F001018F
:1047000020684069C0F3C00010F00100002906D005
:10471000002804D055F4007510202168C860206876
:104720000169090911F0010120684069C0F3801096
:1047300010F00100002906D0002804D055F480654F
:1047400010202168086120684069C0073DD58C4869
:10475000216889680140814201D1012000E00020E8
:104760008849226892680A408A4201D1012100E00A
:104770000021854A23689B681340934201D101229E
:1047800000E000220843104300281ED02068806803
:10479000400810F0010021688968490A11F0010100
:1047A00022689268520C12F001020843104300285C
:1047B00003D0200000F0EEF801E055F40065206819
:1047C000816872480143206881602068C16811F0E7
:1047D000030120684069C0F3400010F00100002987
:1047E00005D0002803D00021200000F000F9206847
:1047F000016911F0030120684069C0F3001010F056
:104800000100002905D0002803D00121200000F07C
:10481000EEF8206C054325642068826912F00102DD
:1048200020684069C0F3002111F00101206840694F
:10483000C0F3C03010F00100002A07D0002905D0D5
:10484000002803D0206C50F00100206420688269A9
:10485000520812F0010220684069C0F3402111F0B3
:10486000010120684069C0F3C03010F00100002A47
:1048700007D0002905D0002803D0206C50F002009A
:10488000206420688269920812F001022068406961
:10489000C0F3802111F0010120684069C0F3C030ED
:1048A00010F00100002A07D0002905D0002803D00D
:1048B000206C50F0040020642068806910F0700FB4
:1048C00001D1012200E0002220684069C0F3C0212C
:1048D00011F0010120684069C0F3C03010F0010000
:1048E000002A38D1002936D0002834D020688069C9
:1048F00010F0700010280AD020280DD0302810D0D9
:10490000402813D0502816D0602819D01DE0206C04
:1049100050F00800206418E0206C50F01000206473
:1049200013E0206C50F0200020640EE0206C50F06A
:104930004000206409E0206C50F08000206404E016
:10494000206C50F480702064FFE72068806930F0AC
:10495000700021688861206C00280ED00420216836
:104960004860012084F83C00206841690848014003
:1049700020684161200003F029FF31BD00000000E4
:1049800003000004000300080000031019050100E3
:10499000A470FFFF80B501684969490849000268B1
:1049A000516190F93C10122905D10168496931F42F
:1049B0000F410268516190F93C10422904D05229FC
:1049C00006D0722908D00BE0222180F83C100AE0C2
:1049D000322180F83C1006E0622180F83C1002E0B1
:1049E000012180F83C1003F0F2FE002002BD10B55A
:1049F000002200220A00D2B2002A01D1436B00E05B
:104A0000836B02680C00E4B224012244D2F8B02186
:104A100012F004029A609A68002A09D102680C0018
:104A2000E4B224012244D2F8B021520D1A6008E009
:104A300002680C00E4B224012244D2F8B021D2086A
:104A40005A6002680C00E4B224012244D2F8B0217A
:104A500012F00202DA6002680C00E4B2240122447F
:104A6000D2F8B42112F00F021A610A00D2B21A620F
:104A700002680C00E4B224012244D2F8B421C2F34B
:104A80000722DA6102680C00E4B224012244D2F861
:104A9000B8211A7502680C00E4B224012244D2F84D
:104AA000B821120A5A7502680C00E4B224012244AB
:104AB000D2F8B821120C9A7502680C00E4B22401F5
:104AC0002244D2F8B821120EDA7502680C00E4B262
:104AD00024012244D2F8BC211A7602680C00E4B208
:104AE00024012244D2F8BC21120A5A7602680C0032
:104AF000E4B224012244D2F8BC21120C9A76026856
:104B00000C00E4B224012244D2F8BC21120EDA7661
:104B10000A00D2B2002A09D120220368DA600268B2
:104B2000526932F00A0203685A6108E020220368E1
:104B30001A610268526932F0500203685A6190F9B2
:104B40003C20222A01D0322A05D10268526932F46F
:104B50000F4203685A61C9B2002918D190F93C107C
:104B6000422904D0622906D0722908D00BE0122114
:104B700080F83C1023E0322180F83C101FE05221E5
:104B800080F83C101BE0012180F83C1017E090F900
:104B90003C10522904D0622906D0722908D00BE0BB
:104BA000122180F83C100AE0222180F83C1006E037
:104BB000422180F83C1002E0012180F83C10FBF714
:104BC000A7FE002010BD30B4002513E050F8042BE0
:104BD000D30744BFA9F101039A18091F042942F819
:104BE000045BFAD213468C0744BF15809B1CC9078F
:104BF00048BF1D7050F8041B0029E7D130BC704736
:104C000080B502F0BCFF64480068002803D1634807
:104C10000068002805D000226149FA2000F038F829
:104C200002E000205F49086001BD80B55D49086869
:104C300000280ED158480068002803D15748006862
:104C4000002806D00120086000225549FA2000F013
:104C50001FF801BD38B504002500686880472200B0
:104C60005149286800F014F831BD10B5012408E05E
:104C70004E4800EBC4024C4950F8340000F008F8EC
:104C8000641C052CF4D300F069FD4949086010BD8F
:104C9000F8B505000E001700062000F039FA0400F0
:104CA000002C4BD000F05AFD0100424A1068002849
:104CB00003D100203E4B196003E03D480068091A0B
:104CC000080000212160A660E7604019606010685C
:104CD000002801D1146031E010684068854208D294
:104CE00010684068451B10684560106820601460BB
:104CF00024E0106800E0006800281FD06368416865
:104D00005B1A63600168002904D0616803685B680E
:104D10009942F0D20168002906D001684A686168AA
:104D2000521A01684A6006E061688D4203D2116838
:104D300049684D196560016821600460F1BD2DE985
:104D4000F8431C4C2068002823D000F007FD184DC4
:104D50002E68861B00272168002917D048688642E4
:104D600014D301272A68486882182A604868361ACE
:104D700008682060D1F80880D1F80C90062000F077
:104D8000DBF94046002801D04846C047FFB2002F5B
:104D9000E0D1BDE8F1830000707E0020747E002029
:104DA000014C0008987E0020554C000878D8000877
:104DB000947E0020907E002031B501F0E9FB0400D4
:104DC000009D15F1010F00D06D1C01F0E1FB001BEF
:104DD000A842FAD331BDB1F5807F02D34FF0FF3046
:104DE00070470170012070470078401E8041C04329
:104DF000C00F704710B4AA4A116803880B44984248
:104E000013D01979002910D1A64909688B420CD01A
:104E1000A5490C689C4200D108601988018011687E
:104E2000411A14681B8823445980116843880B4435
:104E300083420FD0197900290CD19B490C68844218
:104E400000D10B600188198011685B1A1168008815
:104E50000844438010BC704710B4914993488008BF
:104E60008000086008684FF42052028000234380CD
:104E7000002303718B480B6813440360012304680B
:104E8000237103681A8000684280086886490860B8
:104E900010BC704780B5002812D08149096888424B
:104EA00003D380490968884200D309E0083800210B
:104EB00001717D490A68904200D20860FFF79AFFAD
:104EC00001BDF0B40A0092B2D21C4FF6FC710A4048
:104ED000110089B20C2900D20C22110089B242F6CD
:104EE0000103994201D3002064E06D4B19688842A8
:104EF00003D36C490968884200D35BE0B0F1080431
:104F00001D68651B2688290089B2761A083E310083
:104F1000170089B2BFB2B94201D200204AE01100A5
:104F2000370089B2BFB2B94244D0196827880F440C
:104F3000397900291FD13988521908325A4ED6F8CA
:104F400000C0BC4505D11F6894461FFA8CFC67441D
:104F500037601E681700BFB23E44002737713180AA
:104F6000758022803188B1F5205F23D0196833889D
:104F700019444A801EE0B6B2110089B214318E4243
:104F800018D35219083219681600B6B23144464E89
:104F90003768B94200D2316000260E7126880E8033
:104FA0004D8022800C88B4F5205F03D01B680988EF
:104FB00019444A80F0BC704770B40100080080B208
:104FC000002801D1002069E089B2C91C4FF6FC70AD
:104FD0000140080080B20C2800D20C21080080B2E9
:104FE00042F60102904201D3002057E02C4A2E4B9A
:104FF00018681468041B02E01068A4B2045B200067
:1050000080B20D00ADB2D5F52055A84245D210684A
:105010002500ADB2054428790028EDD12E88200066
:1050200080B2361A083E080080B28642E4D32E8849
:10503000200080B2361A083E080080B21430864242
:1050400016D30919083110680E00B6B23044002694
:1050500006712E8806804480298001242C710488E2
:10506000B4F5205F06D0146800882044418001E038
:1050700001202871186885420CD1196802E0106877
:10508000098801440879002803D006480068814255
:10509000F5D1196015F1080000E0002070BC7047E0
:1050A000287E00202C7E0020307E0020730100200E
:1050B0000021826811604268D21C9208920000218F
:1050C00007E083681B68136083681A6003881A44CA
:1050D000491C43889942F4DB704710B5002407E06F
:1050E0001D48210089B250F82100FFF7E1FF641C40
:1050F000200080B20928F3D310BD01008868006841
:10510000002803D0026889680A6000E00020704728
:1051100080B5010049B2092901DB002005E00E49F4
:1051200040B251F82000FFF7E8FF02BD8268126824
:105130000A6080680160704780B5020052B2092A97
:1051400007DA002905D0044A40B252F82000FFF7E0
:10515000EDFF01BD00000000C8D8000870472DE930
:10516000F84F04000D0016001F00DDF82880DDF860
:105170002C90DDF830A0002060600020A0600020AE
:10518000E060002084F833000421002214F1240B95
:10519000584603F01DFB032084F828000020E0613E
:1051A000C4F820803948017884F836100178491C09
:1051B0000170C4F810A03B0032002900200000F06C
:1051C0000DF82000C847002801D0002004E0304836
:1051D0000168216004602000BDE8F28FF8B5050089
:1051E0000C0016001F00002C02D0206800280CD1F3
:1051F0002100280000F016F83100280000F03BF8EC
:105200003900280000F030F80BE03100280000F0F1
:1052100032F83900280000F027F82100280000F0BB
:1052200001F8F1BD38B505000C00002C02D0206853
:10523000009002E018480068009000986968884271
:1052400011D06946281D03F0E3F96946281D02F0D4
:1052500073FC002C01D1002000E02068686001216F
:10526000280000F02EF831BD002901D1002100E016
:105270000968C1607047002901D1002100E0096878
:10528000816070470349086070470000D27E0020AB
:10529000587E00205C7E002070DC000880B590F80D
:1052A0003310C9070CD490F8331051F0010180F885
:1052B000331090F83310490702D5032100F001F8AC
:1052C00001BD80B5C90709D54168002906D090F80D
:1052D0003310090702D5011D03F023FF01BD80B57E
:1052E00090F83310C9070BD590F8331011F0FE0178
:1052F00080F8331090F83310090701D503F06AFCE9
:1053000001BD002800D0C16170470268531C0360D2
:105310001170704780B586B000200590DFF8000559
:10532000016851F000710160016811F00071059190
:10533000059900210591016851F0806101600168C3
:1053400011F080610591059900210591016851F0E6
:1053500000610160016811F000610591059900216B
:105360000591016851F001010160016811F001012E
:105370000591059900210591016851F00401016032
:10538000016811F00401059105990021059101685A
:1053900051F040010160016811F04001059105994B
:1053A00000210591016851F000710160016811F060
:1053B00000710591059900210591016851F0806106
:1053C0000160016811F08061059105990021059146
:1053D000016851F000610160006810F00060059004
:1053E00005983220009002200190002002900320B6
:1053F00003900B2004906946DFF8280401F01AF9A5
:10540000862000900220019000200290032003904B
:105410000B2004906946DFF8100401F00BF94FF4FB
:10542000D0400090022001900020029003200390C1
:105430000B2004906946DFF8F40301F0FBF8012229
:1054400000213D20FDF717F93D20FDF725F907B0B4
:1054500000BD3EB504000020009001A8DFF8D01385
:10546000D1E90023C0E90023DFF8C853DFF8C803FF
:10547000286001A86861012068604FF48040A8603E
:105480004FF40060E8605FF4000028620120A8612A
:105490000020E861002028822800FDF7D7FE0028C0
:1054A0000AD1DFF89803FDF753FE94F8330050F06B
:1054B000040084F8330003E0DFF88403FDF748FEBE
:1054C0000423DFF88023DFF880132800FDF7E3FFD3
:1054D0000423DFF87823DFF878132800FEF719F8A3
:1054E000062084F82C00022084F82D00002084F887
:1054F0002E00002084F82F00002084F830000020C7
:1055000084F83100002084F8320040F2DC506085DD
:1055100094F8330050F00A0084F833002800FEF7B6
:105520002FFA6A4611212800FEF7A8F9009850F0DA
:1055300003000090009A11212800FEF7E1F96A4665
:1055400012212800FEF79AF9009850F020000090F0
:10555000009A12212800FEF7D3F937BD2DE9F84F44
:10556000B44DE86AD0F808B05FF0000900200020D0
:105570000020EE6A5FF0000A0C000DE03A0060685F
:1055800000EB08010BEB0A08404603F0D7FD17EBD0
:105590000A0A17EB09092468002C32D03068002869
:1055A00003D467895FF0000813E07FF007002DE067
:1055B000D6F808B0AAF2F450C71908F2F458B8EBBC
:1055C0000A0809F2F4594846D146B0EB09095FF0E0
:1055D000000A1AEB070040F2F5518842CED340F2A0
:1055E000F452B2EB0A02606800EB0801D34458465B
:1055F00003F0A4FDF66830680028D9D57FF00700D5
:1056000004E049462800FDF7C3FF002041F21401E1
:105610002A685258920607D520222B685A5000213A
:105620002A6841F20403D15040B2BDE8F28F2DE95F
:10563000F84F002500200020002000207D4E300083
:10564000FEF73DF8002801D0002062E0F16BD6F8AB
:105650004080080080B2002805D0032289B20420CF
:1056600003F0BFFD0500002D36D0376B5FF0000A58
:105670002C002AE040F2F452B2EB0A0208EB0A01D5
:10568000606800EB0B08404603F058FDFF68D7F850
:105690000880AAF2F45010EB09090BF2F45BBBEBA3
:1056A0000A0AD3465FF0000A1AEB090040F2F551EE
:1056B0008842DFD24A4608EB0A01606883445846B4
:1056C00003F03CFD19EB0A0A2468002C04D0B4F85E
:1056D0000A905FF0000BE7E7306B002105E00268FD
:1056E00052F000420260C068491CB26B9142F6D38E
:1056F0000020B06341F2140031680958090607D54B
:105700008021326811500020316841F2080288502F
:105710002800BDE8F28F38B505002800FFF787FFA5
:105720000400002C0AD0290020002A69904740B2CA
:10573000002803D0200003F0EBFE002031BD80B52F
:10574000732180F83410742180F83510414941618B
:1057500041498161FFF77DFE002002BD80B500F068
:1057600017FF02BD3EB5040000200190002000900C
:1057700094F8330040074AD53848FDF7E9FC2D4D31
:105780006868002824D04FF4805200212800FEF7DA
:10579000B7F800F0FDFE01906A4601212800FEF7EF
:1057A0006DF800F0F5FE0199401A40F2E9318842A7
:1057B0000ED200988006EFD56A4610212800FEF729
:1057C0005DF80098400716D54FF40060E86014E0DB
:1057D000EA68D20892B2A868400880B20243002169
:1057E0002800FEF78DF800212800FEF713F92800A5
:1057F000FEF7C6F80EE00020E8600098800702D5AA
:105800000020A860EFE74FF48040A860EBE709486C
:10581000FEF7DBF82000FDF7D5FC37BD00000000E7
:1058200030380240000802400000024000180240E8
:1058300050DC0008CC7900200080024088DA0008A3
:1058400098DA00085441002098780020842900202C
:1058500018780020D38D00085D55000864D9000831
:1058600090F93820012A01D1022024E0012280F899
:105870003820022280F839200268526832F0700223
:1058800003685A60026853680A68134302685360E9
:105890000268926832F0800203689A600268926837
:1058A00049680A4301688A60012180F839100021A3
:1058B00080F8381000207047C11768B14840401A7E
:1058C000B0FA80F29040D21CC907C2F5846241EA66
:1058D000025202EBD021400570470000B0B581EACA
:1058E000030C0CF0004C40F2FF7515EA11541DBF7B
:1058F00015EA1357AC42AF4239E0E41923EA4553A5
:1059000043F48013C90241F0004141EA505EC702EE
:105910001100A7FB020200284FF00000EEFB01205F
:105920004FF00001E3FB072118BF42F001024018CD
:1059300000214941E3FB0E01A4F580640F0302D26C
:1059400052004041494154F101046CDD470872F1B5
:10595000004250F1000051EB0451A1F580115CBFF1
:1059600041EA0C01B0BD4CEA05510020B0BD05EA8A
:105970001357AC4214BFAF4241E050EA410E1CBF86
:1059800052EA430E02E061460020B0BD24423C448E
:105990001BD15FEA070EF6D0090302BF01460020C3
:1059A000AEF1140EB1FA81F7AEEB070401FA07FE6F
:1059B0000C37C7F1200100FA07F7C8404EEA000E85
:1059C00023EA455343F48013A2E733F00043B3FACC
:1059D00083F704BFB2FA82FE77440B3FE41BB7F1B2
:1059E000200E2FBF02FA0EF3BB40C7F1200E22FAA1
:1059F0000EFE38BF43EA0E03BA40641C82E750EA49
:105A0000410E14BF52EA430E6FF000014FF400172D
:105A100017EB430F8ABF194617EB410FB5E74CEA66
:105A200005510020B0BDD4F10104B4F120070FDA14
:105A3000C4F12007520828BF42F0010210FA07F50E
:105A400001FA07F7E1BF2A43E0403843E1400FE0A5
:105A5000352C98DCC7F1200452EA400220FA07F204
:105A600018BF42F0010231FA07F0A1400A430021B9
:105A700072F1004250F1000051EB0C01B0BD00008A
:105A8000F0B540F2FF7581EA030C0CF0004C15EA0A
:105A900011541DBF15EA1357AC42AF42E5E0BC41BB
:105AA000C1F31301C3F31303801A994143F4801324
:105AB00004D2641E4000494180185941C90241EA9C
:105AC0005051B1FBF3F603FB1611A2FB0675D7EBA1
:105AD000C020A94102D2761E80185941C90241EA6C
