:020000040800F2
:10000000F0840020ADF00008B1EB0008B3EB00086D
:10001000B5EB0008B7EB0008B9EB000800000000E2
:10002000000000000000000000000000BBEB000822
:10003000BDEB000800000000BFEB0008C1EB0008AA
:10004000D9F10008DDF10008E1F10008E5F1000850
:10005000E9F10008CDEB000825EC00082FEC0008C2
:1000600039EC000843EC00084DEC0008EDF1000805
:10007000F1F10008F5F10008F9F10008FDF10008C0
:1000800001F2000805F2000809F200080DF200086C
:10009000CFEB000811F2000815F2000819F2000871
:1000A0001DF2000821F2000825F2000829F20008DC
:1000B000EDEB0008E3EB00082DF2000831F2000838
:1000C00035F2000839F200083DF2000841F200085C
:1000D00045F2000849F200084DF2000801EC000862
:1000E00051F2000855F2000859F200085DF20008CC
:1000F00061F2000865F2000869F200086DF200087C
:1001000071F2000875F20008F7EB000879F20008B8
:100110007DF2000881F2000885F2000889F20008EB
:100120008DF2000891F2000895F2000899F200089B
:100130009DF20008D9EB0008A1F20008A5F2000822
:10014000A9F20008ADF20008B1F20008B5F200080B
:10015000B9F20008BDF20008C1F20008C5F20008BB
:10016000C9F20008CDF20008D1F20008D5F200086B
:10017000D9F20008DDF20008E1F2000800000000FA
:10018000E5F20008E9F2000880B592B00020009086
:10019000DFF83807016851F080510160006810F005
:1001A00080500090009800200090DFF8240701683C
:1001B00051F480410160006810F480400090009884
:1001C000012006905FF48030079002200C905FF4CD
:1001D00080000D9008200E904FF4A8700F90022020
:1001E00010900720119006A801F086FF0F200190C3
:1001F00002200290002003904FF4A05004904FF48E
:1002000080500590052101A802F030F902F0EFF9C5
:1002100002F0F1F96421B0FBF1F002F0E8FA0420F9
:1002200002F0E9FA002200215FF0FF3002F0C9FA83
:1002300013B000BD38B502F03FFBFFF7A5FF02F099
:1002400055FB02F02FFC02F0CFFCDFF888060168B6
:10025000C96851F002010268D1600168C96851F0B3
:1002600001010268D16002F02BFDDFF86C0603F09B
:1002700085F803F097F800F0D7FADFF8600603F08E
:100280009FF8DFF85C0603F079F803F002F9DFF875
:10029000540604F0F1FB04F0E7FFDFF84C460021C0
:1002A000200005F027FB0020DFF84016088001F051
:1002B0000DF8DFF83C0602F011FD01F03DF8DFF823
:1002C000340602F00BFD9FED1B0A002001224FF4C3
:1002D0007041DFF8240605F00FFF0021200005F033
:1002E00009FB05F0E0FFDFF814060068002801D0E4
:1002F00001F0F8FADFF808562868401E322801D2CB
:1003000000F01AF801F03BFD2868401E322801D2A7
:1003100000F012F803F09BF8DFF8E8050068002809
:1003200001D001F00DF92868401E3228D5D200F026
:1003300003F8D2E7000000002DE9F04757E0DFF8AE
:10034000C80503F01BF847E040F20567DFF8BC651D
:100350003100380005F011F8012005F0E1FF40F20E
:1003600006683100404605F008F8012005F0D8FF86
:1003700040F207693100484604F0FFFF012005F014
:10038000CFFF31004FF4C16004F0F7FF012005F00A
:10039000C7FFDFF87C653100380004F0EEFF012074
:1003A00005F0BEFF3100404604F0E7FF012005F0F4
:1003B000B7FF3100484604F0E0FF012005F0B0FF30
:1003C00031004FF4C16004F0D8FF012005F0A8FF10
:1003D000DFF8400502F0D2FF2868401C322190FB74
:1003E000F1F201FB120028602068401E2060DFF857
:1003F00010452068002800F015822168DFF81805F4
:1004000002F0BCFFDFF81455DFF814052968405CE2
:10041000012813D002285AD0032800F0A180042814
:1004200000F0C480112800F00781122800F06A81D2
:10043000132800F0AE81142886D080E740F20166D0
:10044000DFF8CC743900300004F097FF012005F08C
:1004500067FF40F202683900404604F08EFF012039
:1004600005F05EFF40F203693900484604F085FF5D
:10047000012005F055FF40F2046A3900504604F0AF
:100480007CFF012005F04CFFDFF898743900300044
:1004900004F073FF012005F043FF3900404604F0EB
:1004A0006CFF012005F03CFF3900484604F065FF71
:1004B000012005F035FF3900504604F05EFF0120B1
:1004C00005F02EFFDFF8600402F058FF84E740F2E9
:1004D0000166DFF858743900300004F04EFF012047
:1004E00005F01EFF40F202683900404604F045FF67
:1004F000012005F015FF40F203693900484604F079
:100500003CFF012005F00CFF40F2046A3900504620
:1005100004F033FF012005F003FFDFF8F473390026
:10052000300004F02AFF012005F0FAFE39004046B1
:1005300004F023FF012005F0F3FE3900484604F0E3
:100540001CFF012005F0ECFE3900504604F015FFB9
:10055000012005F0E5FEDFF8D80302F00FFF3BE7CE
:10056000DFF8D063310040F2016004F006FF0120A3
:1005700005F0D6FE310040F2026004F0FEFE0120DC
:1005800005F0CEFE310040F2036004F0F6FE0120DB
:1005900005F0C6FE310040F2046004F0EEFE0120DA
:1005A00005F0BEFEE44802F0E9FE15E740F2016600
:1005B000D64F3900300004F0E0FE012005F0B0FE17
:1005C00040F202683900404604F0D7FE012005F0F1
:1005D000A7FE40F203693900484604F0CEFE012030
:1005E00005F09EFE40F2046A3900504604F0C5FE54
:1005F000012005F095FEC64F3900300004F0BDFE25
:10060000012005F08DFE3900404604F0B6FE0120C1
:1006100005F086FE3900484604F0AFFE012005F0E3
:100620007FFE3900504604F0A8FE012005F078FE58
:10063000C24802F0A3FECFE6B54E40F20567310096
:10064000380004F09AFE012005F06AFE40F20668C8
:100650003100404604F091FE012005F061FE40F2B9
:1006600007693100484604F088FE012005F058FE75
:1006700031004FF4C16004F080FE012005F050FE0F
:10068000A84E3100380004F078FE012005F048FE45
:100690003100404604F071FE012005F041FE3100BA
:1006A000484604F06AFE012005F03AFE31004FF49E
:1006B000C16004F062FE012005F032FEDFF8F86B45
:1006C0003100380004F059FE012005F029FE310008
:1006D000404604F052FE012005F022FE310048465B
:1006E00004F04BFE012005F01BFE31004FF4C16009
:1006F00004F043FE012005F013FEDFF8CC0B02F0FE
:100700003DFE69E6894E40F205673100380004F08D
:1007100034FE012005F004FE40F206683100404638
:1007200004F02BFE012005F0FBFD40F207693100CB
:10073000484604F022FE012005F0F2FD31004FF49E
:10074000C16004F01AFE012005F0EAFD704E310090
:10075000380004F012FE012005F0E2FD31004046B1
:1007600004F00BFE012005F0DBFD3100484604F0EB
:1007700004FE012005F0D4FD31004FF4C16004F007
:10078000FCFD012005F0CCFDDFF8A40B02F0F6FD26
:1007900022E6DFF8A07B40F205663900300004F065
:1007A000ECFD012005F0BCFDDFF8F08B4146300088
:1007B00004F0E3FD012005F0B3FD40F206663900C8
:1007C000300004F0DAFD012005F0AAFD41463000BA
:1007D00004F0D3FD012005F0A3FD40F207663900C7
:1007E000300004F0CAFD012005F09AFD41463000BA
:1007F00004F0C3FD012005F093FD39004FF4C16002
:1008000004F0BBFD012005F08BFD41464FF4C160B3
:1008100004F0B3FD012005F083FDDFF8E00C02F0E9
:10082000ADFDD9E5BDE8F08710B586B005F0C8FD8F
:1008300005F007FFDFF8680B05907FF07F4004901C
:10084000DFF8600B0390652000900023A822C021F0
:10085000DFF8540B02F092FD00200090FF23FF22EE
:10086000FF21DFF8480B02F089FD012000900023F2
:10087000A822C021DFF8380B02F080FD174CDFF80A
:10088000340B0290DFF8300B01900020009003AB96
:1008900004AA05A9200005F016FF200005F0A6FF18
:1008A00094F83300400707D5DFF8100B02F066FD1F
:1008B000200005F0A7FF02E0200005F0C4FFDFF8EC
:1008C000641C200005F0D1FF06B010BD4038024086
:1008D00000700040807C0020B0EE0008347D0020D5
:1008E00054EF0008747B0020BC7B0020AA8000200D
:1008F000F87C0020BC7C00200014024064800020B2
:10090000B87F0020E07F0020E0F0000824000020F5
:100910000C0000207CEF000868EF0008B47F002086
:100920006C7D00201C000020ECEF0008140000206B
:10093000BCF000082C000020C8F00008FCEF000804
:1009400070B5002114E0536B0C00A4B223441B7D4E
:10095000DFF8D44B0D00ADB26355526B0B009BB268
:100960001A44127DDFF8C43B0C00A4B21A55491C8E
:10097000DFF8BC2B0B009BB2546B2469A342E2D37B
:10098000516B0969082940F09384DFF8A81BDFF850
:100990009C3B9C785D7855EA04250D60526B12688B
:1009A00040F28154121B16D0521E00F09680521E47
:1009B00000F01581521E00F09481521E00F0138247
:1009C000521E00F09C82521E00F02583521E00F041
:1009D000AE8300F037BC0A6842F20304A24204D19D
:1009E0001979DFF8542B116076E00A68B2F5005FE0
:1009F00004D11979DFF8402B51606DE00A6846F2A6
:100A00006004A24204D11979DFF82C2B118163E034
:100A10000A6846F26C04A24207D159791A7952EA5F
:100A20000122DFF8141B4A8156E00A6846F2780476
:100A3000A24207D159791A7952EA0122DFF8F81A4D
:100A40008A8149E00A6846F29104A24207D15979A5
:100A50001A7952EA0122DFF8E01A4A823CE00A6879
:100A600042F20B04A2420CD1D9799A7952EA0122BE
:100A70005C7954EA022419790C43DFF8BC1ACC6182
:100A80002AE00A6846F26B04A24207D159791A7922
:100A900052EA0122DFF8A01A8A821DE00A6846F2B3
:100AA0006304A2420DD1D9799A7952EA0122597987
:100AB00051EA02211A7952EA0122DFF87C1A8A618E
:100AC0000AE0096846F29002914205D11979C1F312
:100AD0000011DFF8642A1162B4E30A6842F20304E9
:100AE000A24204D11979DFF8542A116076E00A682D
:100AF000B2F5005F04D11979DFF8402A51606DE04A
:100B00000A6846F26004A24204D11979DFF82C2A5F
:100B1000118163E00A6846F26C04A24207D1597958
:100B20001A7952EA0122DFF8141A4A8156E00A685B
:100B300046F27804A24207D159791A7952EA012281
:100B4000DFF8F8198A8149E00A6846F29104A24266
:100B500007D159791A7952EA0122DFF8E0194A825D
:100B60003CE00A6842F20B04A2420CD1D9799A798E
:100B700052EA01225C7954EA022419790C43DFF825
:100B8000BC19CC612AE00A6846F26B04A24207D184
:100B900059791A7952EA0122DFF8A0198A821DE0F8
:100BA0000A6846F26304A2420DD1D9799A7952EAD1
:100BB0000122597951EA02211A7952EA0122DFF819
:100BC0007C198A610AE0096846F29002914205D1D7
:100BD0001979C1F30011DFF86429116232E30A6860
:100BE00042F20304A24204D11979DFF82C2C1160DF
:100BF00076E00A68B2F5005F04D11979DFF8182CA5
:100C000051606DE00A6846F26004A24204D119798D
:100C1000DFF8042C118163E00A6846F26C04A242FA
:100C200007D159791A7952EA0122DFF8EC1B4A817F
:100C300056E00A6846F27804A24207D159791A7937
:100C400052EA0122DFF8D01B8A8149E00A6846F2A5
:100C50009104A24207D159791A7952EA0122DFF8A8
:100C6000B81B4A823CE00A6842F20B04A2420CD153
:100C7000D9799A7952EA01225C7954EA02241979E5
:100C80000C43DFF8941BCC612AE00A6846F26B043F
:100C9000A24207D159791A7952EA0122DFF8781B6A
:100CA0008A821DE00A6846F26304A2420DD1D97916
:100CB0009A7952EA0122597951EA02211A7952EAC3
:100CC0000122DFF8541B8A610AE0096846F29002AB
:100CD000914205D11979C1F30011DFF83C2B116263
:100CE000B0E20A6842F20304A24204D11979DFF8A3
:100CF000D42B116076E00A68B2F5005F04D119794F
:100D0000DFF8C02B51606DE00A6846F26004A24231
:100D100004D11979DFF8AC2B118163E00A6846F23F
:100D20006C04A24207D159791A7952EA0122DFF8FC
:100D3000941B4A8156E00A6846F27804A24207D121
:100D400059791A7952EA0122DFF8781B8A8149E041
:100D50000A6846F29104A24207D159791A7952EAF7
:100D60000122DFF8601B4A823CE00A6842F20B0471
:100D7000A2420CD1D9799A7952EA01225C7954EADB
:100D8000022419790C43DFF83C1BCC612AE00A6885
:100D900046F26B04A24207D159791A7952EA01222C
:100DA000DFF8201B8A821DE00A6846F26304A24233
:100DB0000DD1D9799A7952EA0122597951EA022161
:100DC0001A7952EA0122DFF8FC1A8A610AE00968FE
:100DD00046F29002914205D11979C1F30011DFF872
:100DE000E42A11622EE20A6842F20304A24204D10C
:100DF0001979DFF8D42A116080E00A68B2F5005F43
:100E000004D11979DFF8C02A516077E00A6846F208
:100E10006004A24204D11979DFF8AC2A11816DE097
:100E20000A6846F26C04A24207D159791A7952EA4B
:100E30000122DFF8941A4A8160E00A6846F27804D9
:100E4000A24207D159791A7952EA0122DFF8781AB9
:100E50008A8153E00A6846F29104A24207D1597987
:100E60001A7952EA0122DFF8601A4A8246E00A68DB
:100E700042F20B04A2420CD1D9799A7952EA0122AA
:100E80005C7954EA022419790C43DFF83C1ACC61EE
:100E900034E00A6846F26B04A24207D159791A7904
:100EA00052EA0122DFF8201A8A8227E00A6846F215
:100EB0006304A2420DD1D9799A7952EA0122597973
:100EC00051EA02211A7952EA0122DFF8FC198A61FB
:100ED00014E00A6846F29004A24206D1197911F092
:100EE0000101DFF8E429116208E0096846F289028D
:100EF000914203D11979DFF8D4291160A2E10A687F
:100F000042F20304A24204D11979DFF8C429116026
:100F100080E00A68B2F5005F04D11979DFF8B029E2
:100F2000516077E00A6846F26004A24204D1197960
:100F3000DFF89C2911816DE00A6846F26C04A24238
:100F400007D159791A7952EA0122DFF884194A81C6
:100F500060E00A6846F27804A24207D159791A790A
:100F600052EA0122DFF868198A8153E00A6846F2E2
:100F70009104A24207D159791A7952EA0122DFF885
:100F800050194A8246E00A6842F20B04A2420CD190
:100F9000D9799A7952EA01225C7954EA02241979C2
:100FA0000C43DFF82C19CC6134E00A6846F26B047C
:100FB000A24207D159791A7952EA0122DFF81019B1
:100FC0008A8227E00A6846F26304A2420DD1D979E9
:100FD0009A7952EA0122597951EA02211A7952EAA0
:100FE0000122DFF8EC188A6114E00A6846F29004E6
:100FF000A24206D1197911F00101DFF8D42811625B
:1010000008E0096846F28902914203D11979DFF8B4
:10101000C428116016E10A6842F20304A24204D116
:101020001979DFF8B428116080E00A68B2F5005F32
:1010300004D11979DFF8A028516077E00A6846F2F8
:101040006004A24204D11979DFF88C2811816DE087
:101050000A6846F26C04A24207D159791A7952EA19
:101060000122DFF874184A8160E00A6846F27804C9
:10107000A24207D159791A7952EA0122DFF85818A9
:101080008A8153E00A6846F29104A24207D1597955
:101090001A7952EA0122DFF840184A8246E00A68CB
:1010A00042F20B04A2420CD1D9799A7952EA012278
:1010B0005C7954EA022419790C43DFF81C18CC61DE
:1010C00034E00A6846F26B04A24207D159791A79D2
:1010D00052EA0122DFF800188A8227E00A6846F205
:1010E0006304A2420DD1D9799A7952EA0122597941
:1010F00051EA02211A7952EA0122DFF8DC178A61EB
:1011000014E00A6846F29004A24206D1197911F05F
:101110000101DFF8C427116208E0096846F289027C
:10112000914203D11979DFF8602B11608AE00A68D7
:1011300042F20304A24204D11979DFF8B82B1160FE
:1011400080E00A68B2F5005F04D11979DFF8A42BBA
:10115000516077E00A6846F26004A24204D119792E
:10116000DFF8902B11816DE00A6846F26C04A24210
:1011700007D159791A7952EA0122DFF8781B4A819E
:1011800060E00A6846F27804A24207D159791A79D8
:1011900052EA0122DFF85C1B8A8153E00A6846F2BA
:1011A0009104A24207D159791A7952EA0122DFF853
:1011B000441B4A8246E00A6842F20B04A2420CD168
:1011C000D9799A7952EA01225C7954EA0224197990
:1011D0000C43DFF8201BCC6134E00A6846F26B0454
:1011E000A24207D159791A7952EA0122DFF8041B89
:1011F0008A8227E00A6846F26304A2420DD1D979B7
:101200009A7952EA0122597951EA02211A7952EA6D
:101210000122DFF8E01A8A6114E00A6846F29004BD
:10122000A24206D1197911F00101DFF8C82A116232
:1012300008E0096846F28902914203D11979DFF882
:10124000742B1160DFF88016DFF88426DFF888360B
:10125000DFF8A04A0D6A166A56EA45061D6A55EA85
:101260004605266A56EA4506DFF84C5B2E7049684B
:10127000526852EA4102596851EA4201626852EAF0
:101280004102DFF8381B0A70AB490989AB4A128961
:1012900052EA0112DFF8281B0A70DFF87C15098971
:1012A000DFF82026128952EA0112DFF8901C0A703A
:1012B000002104F01FFB70BD4C00002080B5DFF85A
:1012C000800C05F0DCFC01BD0CF000081FB500200F
:1012D0000090DFF8F00A016851F001010160006838
:1012E00010F0010000900098DFF8584C5FF080404B
:1012F00020604CF24F30E06040F61F5060600020EC
:1013000020610020A060200001F0BEFC00200190C0
:101310000020029001A9200005F056FD00220121C5
:101320001C2001F04EFA1C2001F05CFA1FBD0000E9
:10133000D4F00008440000201FB500200090DFF822
:10134000840A016851F002010160006810F0020097
:1013500000900098DFF8704ADFF8EC0B20604CF248
:101360004F30E06040F28F6060600020206100201C
:10137000A060200001F088FC002001900020029075
:1013800001A9200005F020FD002202211D2001F00E
:1013900018FA1D2001F026FA1FBD0000540000209D
:1013A000C0A80065C0A80001C8EC0008F8EC00085F
:1013B00028ED00087DD30008A76C00082CF0000879
:1013C00030B4DFF8041A884248D10120DFF8FC1954
:1013D0000860DFF8FC090168091E322911D2DFF824
:1013E0006C1B2122DFF8683B0C681A550A68521CF6
:1013F000322392FBF3F403FB14220A600168491CB8
:1014000001600168091E322911D2DFF8401B242235
:10141000DFF83C3B0C681A550A68521C322392FBD9
:10142000F3F403FB14220A600168491C016001689F
:10143000091E322960D2DFF8141B2522DFF8103B89
:101440000C681A550A68521C322392FBF3F403FB12
:1014500014220A600168491C01604DE0DFF8E41ABB
:10146000884239D1DFF8EC0A0168092930D1DFF868
:1014700060190A68121E322A11D2DFF8D02A2223FC
:10148000DFF8CC4A1568635513685B1C322493FB64
:10149000F4F504FB153313600A68521C0A600A68ED
:1014A000121E322A11D2DFF8A42A2323DFF8A04A21
:1014B0001568635513685B1C322493FBF4F504FB39
:1014C000153313600A68521C0A600021016013E0A2
:1014D0000168491C01600FE0DFF8241B88420BD132
:1014E000DFF8200B0188B1F5004F03D14FF4004124
:1014F000018001E00321018030BC70471CF000082E
:10150000DFF8FC1A88420CD1DFF8F80A0188B1F53F
:10151000004F03D04FF6FF71018002E04FF400410D
:1015200001807047CD6C0008C07A0020787F0020D1
:10153000BC7B00208C7F0020F87D00201C7E0020DA
:101540002DE9F84F40F20164DFF8BC5A2900200071
:1015500003F013FF012004F0E3FE40F202662900CD
:10156000300003F00AFF012004F0DAFE40F20367C6
:101570002900380003F001FF012004F0D1FE40F201
:1015800004682900404603F0F8FE012004F0C8FE7C
:10159000DFF8789A4946200003F0EFFE012004F0BE
:1015A000BFFE4946300003F0E8FE012004F0B8FE1B
:1015B0004946380003F0E1FE012004F0B1FE49463F
:1015C000404603F0DAFE012004F0AAFEDFF8409A5C
:1015D0004946200003F0D1FE012004F0A1FE494657
:1015E000300003F0CAFE012004F09AFE494638009C
:1015F00003F0C3FE012004F093FE4946404603F089
:10160000BCFE012004F08CFEDFF8089A4946200059
:1016100003F0B3FE012004F083FE4946300003F0DE
:10162000ACFE012004F07CFE4946380003F0A5FE24
:10163000012004F075FE4946404603F09EFE01205D
:1016400004F06EFEDFF8D0A95146200003F095FEAD
:10165000012004F065FE5146300003F08EFE0120AB
:1016600004F05EFE5146380003F087FE012004F0CE
:1016700057FE5146404603F080FE012004F050FE24
:10168000DFF898B95946200003F077FE012004F0F6
:1016900047FE5946300003F070FE012004F040FE82
:1016A0005946380003F069FE012004F039FE59461E
:1016B000404603F062FE012004F032FEDFF86009CC
:1016C0000068401E322801D2FEF736FE40F2056463
:1016D0002900200003F051FE012004F021FE40F219
:1016E00006662900300003F048FE012004F018FED1
:1016F00040F207672900380003F03FFE012004F0A4
:101700000FFE29004FF4C16003F037FE012004F002
:1017100007FE4946200003F030FE012004F000FEE1
:101720004946300003F029FE012004F0F9FD494646
:10173000380003F022FE012004F0F2FD49464FF488
:10174000C16003F01AFE012004F0EAFD51462000BA
:1017500003F013FE012004F0E3FD5146300003F0D6
:101760000CFE012004F0DCFD5146380003F005FEBC
:10177000012004F0D5FD51464FF4C16003F0FDFD9A
:10178000012004F0CDFD5946200003F0F6FD0120B4
:1017900004F0C6FD5946300003F0EFFD012004F0CF
:1017A000BFFD5946380003F0E8FD012004F0B8FD04
:1017B00059464FF4C16003F0E0FD012004F0B0FD94
:1017C000DFF860582900200003F0D7FD012004F065
:1017D000A7FD2900300003F0D0FD012004F0A0FD9A
:1017E0002900380003F0C9FD012004F099FD29000B
:1017F0004FF4C16003F0C1FD012004F091FD00F041
:101800000DF80020DFF8C4150860DFF81C0801F0AF
:10181000B5FDBDE8F18F0000407E002080B52DEDC4
:10182000028B9FED2E8BDFF80408806905F0F8FA33
:1018300053EC182B05F006FB0022DFF8F43705F017
:10184000D3FB05F0F5FCDFF8EC170860DFF8E807DC
:10185000806905F0E5FA53EC182B05F0F3FA002245
:10186000DFF8CC3705F0C0FB05F0E2FCDFF8CC1761
:101870000860DFF8CC07806905F0D2FA53EC182B2A
:1018800005F0E0FA0022DFF8A83705F0ADFB05F01F
:10189000CFFCDFF8B01708600A48806905F0C0FA8D
:1018A00053EC182B05F0CEFA0022DFF8843705F050
:1018B0009BFB05F0BDFCDFF890170860BDEC028BC8
:1018C00001BD0000647E0020887E0020907F002003
:1018D000AC7E0020947F0020D07E0020000000001D
:1018E000008076402DE9F84F40F20166DFF85C4752
:1018F0002100300003F041FD40F202672100380072
:1019000003F03BFD40F203682100404603F035FD43
:10191000012004F005FD40F204692100484603F06F
:101920002CFDDFF82C572900300003F026FD29009C
:10193000380003F022FD012004F0F2FC29004046AB
:1019400003F01BFD2900484603F017FD0020DFF8D7
:1019500064140860CC490860DFF8F8663060DFF88E
:10196000F876386040F20568DFF8F0964946404660
:1019700003F003FD012004F0D3FC40F2066A49465F
:10198000504603F0FAFC012004F0CAFC40F2076B59
:101990004946584603F0F1FC012004F0C1FC4946D9
:1019A0004FF4C16003F0E9FC012004F0B9FCDFF85A
:1019B000B006DFF8B0168969C9170160DFF8A8160C
:1019C0008969C917DFF8A4261160DFF8A4168969B0
:1019D000C917DFF8A0261160C6498969C917DFF861
:1019E000982611600068002805D0DFF89016404660
:1019F00003F0C3FC04E0DFF88816404603F0BDFCAA
:101A0000012004F08DFCDFF864060068002805D092
:101A1000DFF86816504603F0B0FC04E0DFF860160B
:101A2000504603F0AAFC012004F07AFCDFF84406DB
:101A30000068002805D0DFF84416584603F09DFCE6
:101A400004E0DFF83C16584603F097FC012004F050
:101A500067FCDFF824060068002806D0DFF81C16B3
:101A60004FF4C16003F089FC05E0DFF814164FF471
:101A7000C16003F082FC012004F052FC3868FE28AB
:101A80002FD0DFF80016404603F077FC012004F069
:101A900047FC4946404603F070FC012004F040FC3E
:101AA00006E04946404603F068FC0A2004F038FC92
:101AB0003868FE28F5D12100404603F05EFC012085
:101AC00004F02EFC2900404603F057FC012004F0EE
:101AD00027FCDFF8B415404603F04FFC012004F06A
:101AE0001FFC3868FE2832D13068FE282FD0DFF87E
:101AF0009415504603F041FC012004F011FC4946C6
:101B0000504603F03AFC012004F00AFC06E0494686
:101B1000504603F032FC0A2004F002FC3868FE282C
:101B2000F5D12100504603F028FC012004F0F8FB19
:101B30002900504603F021FC012004F0F1FBDFF8FE
:101B40004815504603F019FC012004F0E9FB386801
:101B5000FE2839D13068FE2836D14B480068FE286F
:101B600032D0DFF82015584603F007FC012004F0BE
:101B7000D7FB4946584603F000FC012004F0D0FB97
:101B800009E04946584603F0F8FB012004F0C8FB81
:101B90000A2004F0C5FB3868FE28F2D1210058461F
:101BA00003F0EBFB012004F0BBFB2900584603F0D7
:101BB000E4FB012004F0B4FBDFF8CC14584603F03A
:101BC000DCFB012004F0ACFB3868FE2843D1306810
:101BD000FE2840D12C480068FE283CD1754800689A
:101BE000FE2838D0DFF89C144FF4C16003F0C5FB29
:101BF000012004F095FB49464FF4C16003F0BDFBA2
:101C0000012004F08DFB0AE049464FF4C16003F067
:101C1000B4FB012004F084FB0A2004F081FB386847
:101C2000FE28F1D121004FF4C16003F0A6FB012092
:101C300004F076FB29004FF4C16003F09EFB012005
:101C400004F06EFBDFF840144FF4C16003F095FB25
:101C5000012004F065FB3868FE2812D13068FE28A8
:101C60000FD109480068FE280BD152480068FE28B1
:101C700007D10120DFF8141408700020DFF81014D9
:101C80000860BDE8F18F0000987F002038B5DFF8CC
:101C90000444A0422DD1DFF86C030188012904D04F
:101CA0004FF6FF7291420BD00DE00221018000201F
:101CB000DFF8E4130880DFF8480301F001F802E0E0
:101CC0004FF400410180DFF8D0030288DFF8CC1325
:101CD0000B78DFF8CC5392B2AB540288521C0280CE
:101CE0000020DFF81C23126850620122200005F05A
:101CF00066FB31BDF47E002038B5354C2168DFF835
:101D0000A40301F03BFBDFF8A05391482968405C35
:101D1000DFF898130860212807D024D3232810D097
:101D200009D3252819D012D31DE001224321012017
:101D300005F099FE17E001221021012005F093FE25
:101D400011E001221421012005F08DFE0BE001229B
:101D50000E21012005F087FE05E001220F21012060
:101D600005F081FEFFE72868401C322190FBF1F26C
:101D700001FB120028602068401E206031BD10B5B4
:101D8000A04C2088B0F5004F01D100202080208891
:101D9000032801D100F01EF82088002808D10C4843
:101DA0000068401E322803D2FFF7A6FF01202080E2
:101DB00010BD00009C7F0020D6800020D380002032
:101DC000CA80002040380240BC7C0020E07F002018
:101DD000C47F002070B5B64EB14CAF4D2988891E26
:101DE000200005F021FE3080B248318889B2328867
:101DF000120252EA11220280298889B2214411F884
:101E0000021C2A880088C9B292B2224412F8012C1E
:101E100052EA0122904240F08A80207801285AD16B
:101E20006078032853D1A078C0B22988491F88421E
:101E300049D19E480068212807D043D323281AD0CF
:101E40000ED3252833D027D33CE09B4801F096FAE7
:101E5000E078C0B2217951EA00219848018069E018
:101E6000974801F08BFAE078C0B2217951EA00215D
:101E7000924841805EE0934801F080FAE0788F4913
:101E8000C0B2227952EA00228A80888880000A2221
:101E900090FBF2F088804DE08B4801F06FFAE0781B
:101EA000C0B2217951EA00218448C18042E08748CC
:101EB00001F064FAE078C0B2217951EA00217F484C
:101EC000018137E036E0824801F058FA32E081487B
:101ED00001F054FA2EE02078022810D1607803280F
:101EE00009D1A078C0B22988491F884222D07848F9
:101EF00001F044FA1EE0774801F040FA1AE0207839
:101F0000032810D16078032809D1A078C0B22988AD
:101F1000491F88420ED06E4801F030FA0AE06D4841
:101F200001F02CFA06E06C4801F028FA02E06B4858
:101F300001F024FA00203349088070BDCB800020D6
:101F4000347D0020F87C002000040040BC7F00208D
:101F5000A07D0020E47F0020010089B201290CD17E
:101F60005F490868002802D00020086001E00120D5
:101F7000086001205B49086041E0010089B2022944
:101F80000CD159490868002802D00020086001E0FF
:101F90000120086002205349086030E0010089B246
:101FA00004290CD151490868002802D0002008609B
:101FB00001E00120086004204A4908601FE0010098
:101FC00089B208290CD14A490868002802D00020AB
:101FD000086001E0012008600820424908600EE026
:101FE00080B210280BD143490868002802D0002095
:101FF000086001E00120086010203A49086070473D
:10200000807C0020AA8000205C000020640000206A
:102010006C000020740000207C0000208400002060
:10202000B87F00208C000020CCEE0008F87D002056
:102030000070B740688000201C7E00206C8000206B
:10204000407E00207080002074800020140000205A
:102050000C000020947F0020907F0020940000203E
:10206000A07F0020887E0020AC7E0020A47F00207E
:10207000D07E0020A87F0020AC7F0020340000200C
:102080003C000020540000201C0000207E020020A4
:1020900064800020407C0020A4800020C8800020B4
:1020A000F071002000EF0008C07F0020C87F0020F2
:1020B000AE800020AC8000203CF000086C7F002047
:1020C00018EF00084CF0000890EF0008A4EF00089B
:1020D0005CF000086CF00008ECF00008F8F0000874
:1020E000CC7F0020143C0140D07F0020D47F002012
:1020F000D87F0020DC7F0020F8B504000020207885
:10210000C0075CD5DFF83803016811F00C01042921
:1021100009D0006810F00C0008280ED1DFF8240365
:102120000068400209D5DFF820030068800346D527
:102130006068002843D1012081E16068B0F5803FEC
:1021400006D1DFF80403016851F48031016017E023
:102150006068B0F5A02F0AD1DFF8EC02016851F4F5
:1021600080210160016851F48031016008E0B648C7
:10217000016831F480310160016831F4802101602F
:10218000606800280DD005F0B7FC0500AE48006877
:10219000800314D405F0B0FC401B6528F6D303205F
:1021A0004DE105F0A9FC0500A7480068800306D5AD
:1021B00005F0A2FC401B6528F6D303203FE1207800
:1021C000800722D59E48016811F00C0F08D00068E6
:1021D00010F00C0008282FD19A48006840022BD438
:1021E00099480168890704D5E168012901D00120D7
:1021F00025E101685FF0F852B2FA82F231F0F8019D
:10220000236913FA02F2114301602078000756D5C2
:102210006069002842D001208C49086005F06CFC00
:1022200005008B480068800749D405F065FC401B19
:102230000328F6D3032002E1E06800281DD0012026
:102240008449086005F058FC05007F48016889074B
:1022500006D405F051FC401B0328F6D30320EEE022
:1022600001685FF0F852B2FA82F231F0F8012369A6
:1022700013FA02F211430160C7E7002075490860B4
:1022800005F03AFC0500704800688007BDD505F0F0
:1022900033FC401B0328F6D30320D0E000206B4919
:1022A000086005F029FC050069480068800706D52C
:1022B00005F022FC401B0328F6D30320BFE0207862
:1022C00040075FD5002000906348016851F08051BD
:1022D0000160006810F08050009000985F4E3068F8
:1022E00050F48070306005F007FC05003068C005D0
:1022F00006D405F001FC401B0328F7D303209EE021
:10230000A068012805D15648016851F0010101601B
:1023100015E0A068052809D15148016851F0040171
:102320000160016851F00101016008E04C4801685A
:10233000490849000160016831F004010160A068AA
:1023400000280FD005F0D8FB05004548006880073D
:1023500018D405F0D1FB401B41F289318842F4D3F7
:1023600003206CE005F0C8FB05003D4800688007CD
:1023700008D505F0C1FB401B41F289318842F4D3F6
:1023800003205CE0A069002858D02D48006810F0B8
:102390000C00082850D0A06902283CD1314E002002
:1023A000306005F0A9FB0700274D2868800106D59D
:1023B00005F0A2FBC01B0328F6D303203FE02A4808
:1023C000B0FA80F14FF44040B0FA80F2F020B0FA59
:1023D00080F3E769206A0743606A10FA01F1394324
:1023E000A06A4008401E10FA02F21143E06A10FA97
:1023F00003F31943134801600120306005F07CFBB2
:1024000004002868800119D405F076FB001B03281E
:10241000F7D3032013E000201249086005F06CFB9D
:10242000040009480068800108D505F065FB001B21
:102430000328F6D3032002E0012000E00020F2BDD3
:10244000083802400438024000380240800E4742FB
:10245000743802400000474240380240007000409B
:1024600070380240600047420000FE032DE9F04151
:1024700004000D000020714E306810F00F00A842DB
:1024800007D23570306810F00F00A84201D001204B
:10249000ABE02078800706D569490A6832F0F0027F
:1024A000A06802430A602078C00768D560680128E8
:1024B00005D164480068800313D4012095E060686A
:1024C000022802D06068032805D15E4800688001B8
:1024D00007D4012089E05B480068800701D401200F
:1024E00083E0574F39688908890060680143396083
:1024F00005F002FB8046606801280ED1386810F0B4
:102500000C0004283BD005F0F7FAB0EB080041F2CC
:1025100089318842F2D3032067E0606802280ED137
:10252000386810F00C00082829D005F0E5FAB0EB67
:10253000080041F289318842F2D3032055E06068F7
:1025400003280ED1386810F00C000C2817D005F0C5
:10255000D3FAB0EB080041F289318842F2D303206C
:1025600043E0386810F00C0F09D005F0C5FAB0EB65
:10257000080041F289318842F3D3032035E0306806
:1025800010F00F00854207D23570306810F00F0050
:10259000A84201D0012028E02078400706D528492C
:1025A0000A6832F4E052E06802430A6020780007CB
:1025B00007D52348016831F46041226951EAC2011C
:1025C000016000F049F81E4909685FF07062B2FAD4
:1025D00082F21D4B11F0F001D140595CC8401B49FB
:1025E0000860002005F08EFA0020BDE8F08101208F
:1025F00017490860704715480068704780B5FFF7B5
:10260000FAFF0F4909685FF46012B2FA82F2114BC7
:1026100011F4E051D140595CC84002BD80B5FFF7CC
:10262000EAFF074909685FF4E022B2FA82F2094B37
:1026300011F46041D140595CC84002BD003C0240E9
:1026400008380240003802407CF0000804000020F6
:102650004C004742A8F1000810B4002000200020E0
:1026600000201F48006810F00C00002804D0042847
:1026700004D0082804D030E01A482FE01A482DE092
:102680001A49086810F03F000A6852020CD50B681E
:10269000174AB2FA82F4144AB2FBF0F247F6C0705D
:1026A0000340E3405A430BE00B68114AB2FA82F44C
:1026B0000C4AB2FBF0F247F6C0700340E3405A43C5
:1026C00008684FF44041B1FA81F110F44030C8403D
:1026D000401C4000B2FBF0F000E0024810BC704724
:1026E000083802400024F40000127A000438024046
:1026F0000000FE0310F00700464B1A684FF6FF017A
:102700000A40454951EA00210A431A60704741488E
:102710000068C0F302207047012210F01F018A40B8
:102720003E4940B2400941F820207047020052B2B1
:10273000002A08D509013A4A40B210F00F001044AF
:1027400000F8041C03E00901364A40B211547047F6
:1027500010B410F00700D0F10703052B01D30423B8
:1027600001E0D0F10703041D072C01D2002000E096
:10277000C01E012414FA03F35B1E1940814014FAB1
:1027800000F0401E1040084310BC704780B5411E49
:10279000B1F1807F01D301200EE0401E2249086084
:1027A0000F215FF0FF30FFF7C1FF00201F490860D5
:1027B00007201F490860002002BD80B5FFF79AFF7F
:1027C00001BD70B504000D0016000020FFF79FFF4B
:1027D00032002900FFF7BCFF0100200040B2FFF7E4
:1027E000A5FF70BD80B540B2FFF796FF01BD80B573
:1027F000FFF7CCFF02BD042805D10D48016851F058
:102800000401016004E00A48016831F0040101603C
:10281000704700000CED00E00000FA0500E100E068
:1028200018ED00E000E400E014E000E018E000E053
:1028300010E000E080B500F001F801BD7047F0B491
:102840000246106895681318506803EB5004C007DF
:102850001DD54D441BE013F8017B05F8017B491E93
:10286000F9D1A0B1B60813F8011B06F00306032E38
:1028700008BF13F8016B01EB06214942801C294473
:1028800005D011F8016B05F8016B401EF9D1A34288
:102890000ED013F8016B16F0030104BF13F8011BEF
:1028A000C91C30090F28DAD113F8010B0F30D6E715
:1028B000F0BC02F10C00704780B50B48016851F480
:1028C00000710160016851F480610160016851F498
:1028D000807101600320FFF770FF002005F012F9FE
:1028E00005F024F9002002BD003C024038B586B056
:1028F000002000903148016851F0400101600168FA
:1029000011F040010091009900210091016851F0FF
:1029100020010160006810F0200000900098284D10
:1029200000224FF47041280003F0E6FB254C002202
:102930001F21200003F0E0FB4FF4704001900120C4
:1029400002900020049001A9280003F0E7FA1F205C
:1029500001901D480290012003900320049001A9DA
:10296000200003F0DBFA012200210620FFF729FFF7
:102970000620FFF737FF012200210720FFF721FF84
:102980000720FFF72FFF012201210820FFF719FF81
:102990000820FFF727FF022201210920FFF711FF7E
:1029A0000920FFF71FFF032201210A20FFF709FF7B
:1029B0000A20FFF717FF07B030BD00BF30380240D4
:1029C00000140240001802400000311010B586B01B
:1029D00001687A4A91421AD100200590784801682E
:1029E00051F010010160006810F01000059005988A
:1029F000C02000900220019001200290032003904B
:102A00000720049069466F4803F088FA48E00068A0
:102A10006D49884244D1002005906C48016851F40A
:102A200080210160006810F4802005900598002046
:102A300005906748016851F080010160006810F05E
:102A40008000059005984FF480600090022001906E
:102A500003200390072004905A4C6946200003F09D
:102A60005DFA4FF400600090022001900020029077
:102A7000072004906946200003F050FA554C0022CC
:102A80004FF48071200003F037FB4FF4807000900A
:102A900001200190022003906946200003F03EFAD5
:102AA00006B010BD1CB5002000904948016851F0E7
:102AB00002010160006810F0020000900098464892
:102AC0003E4901605FF4E1314160002181600021F5
:102AD000C160002101610C2141610021816100215F
:102AE000C16104F0C3FB002000903848016851F434
:102AF00080210160006810F48020009000982BA0D5
:102B000000F03CFC354C304820604FF416506060BB
:102B10004FF48050A0600020E0604FF4806020619E
:102B20000C2060610020A0610020E0612C4800F0D2
:102B300025FC200004F09AFB1DA000F01FFC0022E1
:102B400000212720FFF73DFE2720FFF74BFE19A0AD
:102B500000F014FC01222349200004F030FC16A0F0
:102B600000F00CFC13BD70B504000D00194E0122DD
:102B70004FF48071300003F0BFFA4FF6FF732A0064
:102B800092B22100154804F0ACFB00224FF4807192
:102B9000300003F0B1FA70BD01B54FF6FF730122AA
:102BA00069460D4804F09DFB009802BD310A000003
:102BB000320A0000330A0000340A0000001001400D
:102BC00044380240000402400048004040380240BF
:102BD00030380240001C0240007C0020407C002075
:102BE00088F10008C880002018B58BB0234C244819
:102BF0002060532060600020A06040F64660E060E6
:102C0000002020610821200000F076F84FF4805069
:102C1000079007A9200000F081F93020009040F2D1
:102C20001A60019000200290082003900020049078
:102C3000002005900020069000226946200000F048
:102C40003EF90CB010BD80B500680D49884213D123
:102C5000002000900B48016851F0080101600068F5
:102C600010F0080000900098002200213220FFF7A9
:102C7000A8FD3220FFF7B6FD01BD0000807C0020DA
:102C8000000C00404038024010B50400002C01D177
:102C9000012014E094F93900002805D1002084F8BF
:102CA0003800200000F069FB022084F83900211D63
:102CB000206800F0BFF9012084F83900002010BD21
:102CC000022180F839100168096851F00101026899
:102CD0001160012180F83910002070470168C9682F
:102CE00051F001010268D1600168096851F00101E9
:102CF000006801600020704738B504000D00002C0A
:102D000001D101201FE094F93900002805D10020ED
:102D100084F838002000FFF796FF022084F839007D
:102D2000211D206800F086F92068006830F0080056
:102D3000216808602068006805432068056001205C
:102D400084F83900002032BD10B504002068006905
:102D500080071AD52068C068800716D57FF002006A
:102D600021680861012020762068806910F0030F37
:102D700003D0200004F011FF05E02000FEF7C0FBA7
:102D8000200004F00BFF0020207620680069400737
:102D90001AD52068C068400716D57FF00400216866
:102DA0000861022020762068806910F4407F03D0FB
:102DB000200004F0F2FE05E02000FEF7A1FB200059
:102DC00004F0ECFE002020762068006900071AD588
:102DD0002068C068000716D57FF0080021680861E8
:102DE000042020762068C06910F0030F03D0200073
:102DF00004F0D3FE05E02000FEF782FB200004F083
:102E0000CDFE0020207620680069C0061AD5206813
:102E1000C068C00616D57FF0100021680861082040
:102E200020762068C06910F4407F03D0200004F0B1
:102E3000B4FE05E02000FEF763FB200004F0AEFEC8
:102E40000020207620680069C0070AD52068C06885
:102E5000C00706D57FF00100216808612000FEF759
:102E6000AFFA2068006900060AD52068C06800062D
:102E700006D57FF0800021680861200004F08FFEF5
:102E80002068006940060AD52068C068400606D55B
:102E90007FF0400021680861200004F081FE206876
:102EA000006980060AD52068C068800606D57FF0D4
:102EB000200021680861200004F073FE10BD10B5E9
:102EC000040094F93800012801D1022025E00120F6
:102ED00084F83800022084F83900002A06D0042A39
:102EE00008D0082A0AD00C2A0CD00FE0206800F085
:102EF0004EF90BE0206800F00FF907E0206800F0C1
:102F00007CF903E0206800F0B2F9FFE7012084F8C3
:102F10003900002084F83800002010BD10B50400EE
:102F2000002094F93800012801D1022081E001201D
:102F300084F83800022084F839002068806830F076
:102F4000770030F47F40226890600868002855D0F0
:102F5000102858D020285BD030285ED0402843D09D
:102F600050282DD0602835D070280DD0B0F5805F66
:102F700003D0B0F5005F16D054E020688068C00828
:102F8000C000216888604DE0CB684A688968206885
:102F900000F0E7F92068806830F0770050F07700A3
:102FA000216888603EE0CB684A688968206800F044
:102FB000D8F92068806850F480402168886031E04A
:102FC000CA684968206800F099F95021206800F02B
:102FD000BEF927E0CA684968206800F0A3F96021BB
:102FE000206800F0B4F91DE0CA684968206800F064
:102FF00085F94021206800F0AAF913E0002120683B
:1030000000F0A5F90EE01021206800F0A0F909E019
:103010002021206800F09BF904E03021206800F0B6
:1030200096F9FFE7012084F83900002084F8380081
:10303000002010BD10B400220468DFF894329842DA
:1030400012D0B0F1804F0FD0DFF8882290420BD021
:10305000DFF88422904207D0DFF88022904203D02C
:10306000DFF87C22904201D1012200E00022D2B29E
:10307000002A03D034F070044A68144398422AD0DE
:10308000B0F1804F27D0DFF84C22904223D0DFF8F8
:10309000482290421FD0DFF8442290421BD0DFF834
:1030A0004022904217D0DFF83C22904213D0DFF844
:1030B000382290420FD0DFF8342290420BD0DFF854
:1030C0003022904207D0DFF82C22904203D0DFF864
:1030D0002822904201D1012200E00022D2B2002A2F
:1030E00003D034F44074CA68144304608A68C2622E
:1030F0000A688262984203D0DFF8E421904201D14D
:10310000012200E00022D2B2002A01D00969016345
:103110000121416110BC704730B40022002200221E
:10312000026A32F010020262046A4568836933F46D
:10313000E04333F440730A6853EA022334F0200476
:103140008A6854EA0214624A904202D0644A904269
:1031500001D1012200E00022D2B2002A10D034F0C6
:103160008004CA6854EA021434F0400435F48065DF
:1031700035F400654A6955EA82058A6955EA82058F
:103180004560836149688163046230BC704730B434
:10319000002200220022026A520852000262046ADF
:1031A0004568836933F070039B089B000A681343EA
:1031B00034F002048A681443454A904202D0484AD7
:1031C000904201D1012200E00022D2B2002A0DD0AB
:1031D00034F00804CA68144334F0040435F48075EC
:1031E00035F400754A6915438A6915434560836162
:1031F00049684163046230BC704730B40022002249
:103200000022026A32F480720262046A4568C3696D
:1032100033F070039B089B000A68134334F4007476
:103220008A6854EA02242A4A904202D02C4A9042E8
:1032300001D1012200E00022D2B2002A10D034F4E1
:103240000064CA6854EA022434F4806435F480557A
:1032500035F400554A6955EA02158A6955EA02159E
:103260004560C3614968C163046230BC704730B4D3
:10327000002200220022026A32F480520262046AB2
:103280004568C36933F4E04333F440730A6853EA92
:10329000022334F400548A6854EA02340C4A9042FF
:1032A00002D00F4A904201D1012200E00022D2B2A6
:1032B000002A04D035F480454A6955EA82154560F4
:1032C000C36149680164046230BC704700000000BB
:1032D000000001400004004000080040000C0040D5
:1032E000000401400040014000440140004801400A
:1032F00000180040001C00400020004010B40023D3
:103300000023046A036A5B085B000362836933F08D
:10331000F00353EA021334F00A042143836101628B
:1033200010BC704710B400230023036A33F010036D
:1033300003628369046A33F4704353EA023334F05E
:10334000A00454EA01148361046210BC7047002297
:10335000826832F0700289B251F007011143816036
:10336000704710B40024846834F47F44114351EA58
:1033700003212143816010BC704770470EB4C0B573
:10338000024603A800210190009101AB01210448ED
:1033900078440C3004F006FC06BC5DF810FB00BF5E
:1033A00091BB000080B503F00BF803F04AF903F07D
:1033B00089F905F09BFB05F0AFFD02F00AFF01BDA6
:1033C00000B585B090F83310C9070CD5001D06F084
:1033D00053FB020021A1684606F0A4FB6946204881
:1033E000FFF7CCFF02E01F48FFF7C8FF05B000BDA4
:1033F00010B588B0040094F8330040071FD51A4870
:10340000FFF7BCFF194802907FF07F4001901848F9
:1034100000906B4601AA02A9200003F093F9201D39
:1034200006F02AFB02000DA103A806F07BFB03A90E
:103430000B48FFF7A3FF200003F0E4F905E02000AC
:1034400003F001FA0748FFF799FF08B010BD80B5F7
:10345000084803F014FC02F026FF01BD25730000AC
:10346000E8EE000858ED000880ED0008C0A80065EF
:10347000C0A80001347D0020BFF34F8F29490A689E
:1034800012F4E062284802430A60BFF34F8F00BF86
:10349000FDE738B5254D05F00DFD286028680028AA
:1034A0001CD023482349086040F2D24222492868B0
:1034B00005F0B6FC0400200040B200280ED11F48E1
:1034C000FFF75CFF64B2002C08D11D48FFF756FFE0
:1034D00000220FF27901286805F0E9FC1948FFF78E
:1034E0004DFF31BD70B505000E0003222900C9B2A1
:1034F00089B2002006F036FB0400002C11D0EDB29A
:103500002A0092B21049200006F0DBFD33009BB286
:10351000084A21000548006805F0D9FB200006F0A4
:10352000B8FC70BD0CED00E00400FA0560800020DE
:10353000C0A800139C800020D0F10008B8F100085A
:10354000C0F1000870F10008907700202DE9F843E1
:103550002DED028B140000216368002004E01A5C4A
:10356000DFF8385B2A54401C0528F8D3DFF82C5BC1
:103570002878FA2840F04B87E87801432A7952EA04
:103580000122D21D002002E0195C2954401C511E6A
:103590008842F9D36089824240F02287A8780128C6
:1035A00040F0D082687900280ED0102845D020281D
:1035B0007AD0302800F08F81402800F0C881502850
:1035C00000F08A8200F039BFA879012817D10020C5
:1035D000E87002202871002068710120A871002085
:1035E000E871002107E0DFF8B82AEB79685C434016
:1035F000D05CE871491C0729F5D3FF202872092007
:10360000DFF8A01A0860DFF8A00A0168091E322955
:1036100011D2DFF8981A0122DFF8943A0D685A5552
:103620000A68521C322392FBF3F503FB15220A6051
:103630000168491C016000F000BFA879112803D17E
:10364000E879DFF8701A0870287A122803D1687AAE
:10365000DFF8641A0870A87A132807D1E87ADFF82F
:103660005C1A0880287BDFF8581A08800020E87070
:1036700002202871102068710120A8710020E871D3
:10368000002107E0DFF8182AEB79685C4340D05C42
:10369000E871491C0729F5D3FF2028720920DFF8BB
:1036A000041A086000F0C9BE0020E87048202871A4
:1036B000202068710120A8712120E8710020287263
:1036C000002068720020A8720020E872222028736F
:1036D000DFF8840D007868732320A873DFF87C0D71
:1036E0000078E87324202874DFF8740D818AA974A7
:1036F000B0F9141009126974DFF8681D8A8A2A75F6
:10370000B1F914201212EA74DFF85C2D938AAB75BC
:10371000B2F914301B126B75DFF8503D9E8A2E767D
:10372000B3F914603612EE7525266E76B0F90A608C
:10373000EE7636B23612AE76B1F90A606E7736B2F0
:1037400036122E77B2F90A60EE7736B23612AE77BD
:10375000B3F90A6085F8216036B2361285F8206028
:10376000262685F82260B0F90C6085F8246036B210
:10377000361285F82360B1F90C6085F8266036B200
:10378000361285F82560B2F90C6085F8286036B2EB
:10379000361285F82760B3F90C6085F82A6036B2D6
:1037A000361285F82960272685F82B60C66985F8CA
:1037B0002F60C669360A85F82E60C669360C85F812
:1037C0002D60C669360E85F82C60CE6985F83360A9
:1037D000CE69360A85F83260CE69360C85F83160DC
:1037E000CE69360E85F83060D66985F83760D669BF
:1037F000360A85F83660D669360C85F83560D669A4
:10380000360E85F83460DE6985F83B60DE69360A7D
:1038100085F83A60DE69360C85F83960DE69360E67
:1038200085F83860282685F83C60866985F8406010
:103830008669361285F83F608669361485F83E60E1
:103840008069001685F83D00886985F8440088691C
:10385000001285F843008869001485F842008869E1
:10386000001685F84100906985F8480090690012BB
:1038700085F847009069001485F8460090690016A5
:1038800085F84500986985F84C009869001285F81C
:103890004B009869001485F84A009869001685F86D
:1038A0004900FF2085F84E00002085F84D000021DA
:1038B00009E0DFF8EC2795F84D30685C4340D05CB8
:1038C00085F84D00491C4D29F3D34F20DFF8D4175C
:1038D000086000F0B2BDA879012836D10920DFF8D0
:1038E000C41708600120A8710020E8700220287128
:1038F0000020E871FF202872002107E0DFF8A027F0
:10390000EB79685C4340D05CE871491C0729F5D32A
:10391000DFF894070168091E322911D2DFF88C17ED
:103920000222DFF88C370D685A550A68521C322380
:1039300092FBF3F503FB15220A600168491C016044
:10394000012080F31388FFF797FD00F076BDA8797A
:10395000412806D1E879297A51EA0021DFF8100BD5
:103960000180687A422806D1A87AE97A51EA0021D2
:10397000DFF8000B0180DFF8F86AB6F900000128D3
:1039800003DA0020DFF8F01A0870A87B44280FD172
:10399000E87B012808D10120DFF8E01A0870002038
:1039A000DFF8D41A087003E00020DFF8D01A08709E
:1039B000DFF8C08AB8F90010B6F9000006F0F6FB8F
:1039C000BDEEC00A10EE100ADFF8B41A0880DFF866
:1039D000B47AB8F90010B6F9000006F0B7FBBDEEF6
:1039E000C00A10EE100A3880DFF8900A007801282B
:1039F00003D1B7F9000040423880DFF88C0A3188E3
:103A00000171B6F9001009124171DFF89C060168D6
:103A1000091E322911D2DFF894160322DFF89036FE
:103A20000E689A550A68521C322392FBF3F603FB88
:103A300016220A600168491C0160297B43292DD1A7
:103A4000697B012926D10168091E322911D2DFF8CC
:103A50005C160222DFF858360E689A550A68521C26
:103A6000322392FBF3F603FB16220A600168491C1D
:103A70000160DFF8180A0021017100214171DFF8AF
:103A8000100A00210171002141710120DFF8C819DD
:103A9000087003E00020DFF8C01908700020E8700B
:103AA00002202871402068710120A8710020E8716F
:103AB000002107E0DFF8E825EB79685C4340D05C43
:103AC000E871491C0729F5D3FF2028720920DFF887
:103AD000D415086000F0B1BCDFF8CC050168091E00
:103AE000322911D2DFF8C4150422DFF8C4350E687C
:103AF0009A550A68521C322392FBF3F603FB1622F6
:103B00000A600168491C0160502068710120A87199
:103B10000020E870022028710020E871002107E0F1
:103B2000DFF87C25EB79685C4340D05CE871491C88
:103B30000729F5D3FF2028720920DFF868150860EF
:103B400000F07BBCA878022840F018816879002832
:103B50000ED010282DD0202854D0302800F0B88066
:103B6000502800F0D280602800F0EB8000F065BCA7
:103B7000A879012817D10020E870022028710020C0
:103B800068710120A8710020E871002107E0DFF8CA
:103B90001025EB79685C4340D05CE871491C07292B
:103BA000F5D3FF2028720920DFF8F814086000F030
:103BB00044BCA879112807D1287A122804D1A87A00
:103BC000132801D1287B14280020E87002202871D6
:103BD000102068710120A8710020E871002107E021
:103BE000DFF8BC24EB79685C4340D05CE871491C89
:103BF0000729F5D3FF2028720920DFF8A8140860F0
:103C000000F01BBC0020E8701E2028712020687185
:103C10000120A8712220E871DFF87808018889B2B4
:103C2000090A2972018869722421A9720021E972A6
:103C30000021297325216973418889B2090AA97372
:103C40004188E97326212974402169742721A974C8
:103C50000021E97400212975002169750021A975E9
:103C60000021E97500212976002169760021A976D5
:103C70002821E9768188297729216977C18889B245
:103C8000090AA977C188E9772A2185F820100189D6
:103C900089B2090A85F82110008985F822000020E0
:103CA00085F82300002109E0DFF8F42395F823309C
:103CB000685C4340D05C85F82300491C2329F3D37A
:103CC000FF2085F824002520DFF8D8130860B4E32E
:103CD0000020E87002202871302068710120A8714E
:103CE0000020E871002107E0DFF8B423EB79685C7D
:103CF0004340D05CE871491C0729F5D3FF202872A6
:103D00000920DFF8A013086097E30020E870022084
:103D10002871502068710120A8710020E8710021ED
:103D200007E0DFF87C23EB79685C4340D05CE87106
:103D3000491C0729F5D3FF2028720920D9490860BA
:103D40007BE30020E87085202871602068710020E6
:103D500085F88A00002108E0D14A95F88A30685C2D
:103D60004340D05C85F88A00491C8A29F4D3FF209F
:103D700085F88B008B20CB4908605EE3A878032888
:103D800040F01783687900280DD010283ED02028F5
:103D90005DD0302800F04B81402800F093815028FE
:103DA00000F0D78249E3A879012816D10020E870F5
:103DB00002202871002068710120A8710020E8719C
:103DC000002106E0B64AEB79685C4340D05CE871BC
:103DD000491C0729F6D3FF2028720920B149086041
:103DE000B1480168091E32290FD2B0491122B04BE7
:103DF0000D685A550A68521C322392FBF3F503FBF7
:103E000015220A600168491C016016E3A87911288F
:103E100002D1E879A74908700020E87002202871D3
:103E2000102068710120A8710020E871002106E0CF
:103E30009B4AEB79685C4340D05CE871491C0729D8
:103E4000F6D3FF202872092096490860F5E2202069
:103E500068710120A8712120E871DFF8FC05007865
:103E6000287222206872DFF8F4050078A8722320F7
:103E7000E872DFF8240681896973DFF820168289E9
:103E80000A80B1F9002012122A73DFF814269389F0
:103E9000EB7393890B80B1F900301B12AB73DFF821
:103EA00004369E896E749E890E80B1F900603612C8
:103EB0002E74DFF8F465B789EF74B7890F80B1F914
:103EC00000100912A97424212975C1692976C169D4
:103ED000090AE975C169090CA975C069000E687500
:103EE000D0692877D069000AE876D069000CA876F6
:103EF000D069000E6876D86985F82000D869000A74
:103F0000E877D869000CA877D869000E6877F0695F
:103F100085F82400F069000A85F82300F069000C98
:103F200085F82200F069000E85F82100252085F82B
:103F30002500DFF87805007885F82600262085F82A
:103F40002700DFF86C050168091685F8281001685C
:103F5000091485F829100168091285F82A100068EB
:103F600085F82B00DFF84C050168091685F82C1040
:103F70000168091485F82D100168091285F82E10C2
:103F8000006885F82F00DFF830050168091685F80C
:103F900030100168091485F831100168091285F89C
:103FA0003210006885F83300DFF810050168091643
:103FB00085F834100168091485F835100168091274
:103FC00085F83610006885F83700272085F8380016
:103FD000012085F83900282085F83A00002085F86E
:103FE0003B00002085F83C000020E8703A20287152
:103FF000292085F83D00DFF8C804007885F83E00E8
:10400000002085F83F00FF2085F84000002108E0EF
:10401000234A95F83F30685C4340D05C85F83F0008
:10402000491C3F29F4D341201E49086005E2A879C4
:10403000012831D109201B4908600120A871002006
:10404000E870022028710020E871FF20287200210A
:1040500006E0134AEB79685C4340D05CE871491C88
:104060000729F6D310480168091E32290FD20F49DB
:1040700012220F4B0D685A550A68521C322392FBCC
:10408000F3F503FB15220A600168491C0160012059
:1040900080F31388FFF7F0F9CFE100BF907700209D
:1040A000AC00002098800020B87F0020B07F002066
:1040B0006C7D0020EE800020EF800020BA80002080
:1040C000BC800020A879412861D1E87901285ED11F
:1040D000DFF8F0030078002859D1DFF8EC03E97924
:1040E00001600068012852D10020DFF8E013087059
:1040F0000020DFF8DC1308700020DFF8D813087008
:104100000020DFF8D41308700020DFF8D013087007
:104110000020DFF8CC1308700020DFF8C813087007
:104120000020DFF8C41308700020DFF8C013087007
:104130000020DFF8BC1308700020DFF8B813087007
:104140000020DFF8B41308700020DFF8B013087007
:104150000020DFF8AC1308700020DFF8A813087007
:104160000020DFF8A41308700020DFF8A013087007
:104170000020DFF89C1308700020DFF89813087007
:104180000020DFF8941308700020CD490870287AC9
:10419000422803D1687ADFF884130870A87A43288C
:1041A00040F09A800120DFF878130870DFF874037C
:1041B000E97A2A7B52EA0122697B51EA0221AA7B31
:1041C00052EA01220260DFF86083E97B2A7C52EA2E
:1041D0000122697C51EA0221AA7C52EA0122C8F834
:1041E0000020DFF84893E97C2A7D52EA0122697DAC
:1041F00051EA0221AA7D52EA0122C9F80020CC4EE0
:10420000E97D2A7E52EA0122697E51EA0221AA7ED4
:1042100052EA01223260C74F9FEDD18B006802F055
:10422000FFFD53EC182B02F00DFE0022C24B02F0F2
:10423000DBFE02F0FDFF3860D8F8000002F0F0FD70
:1042400053EC182B02F0FEFD0022BB4B02F0CCFE1B
:1042500002F0EEFFB9490860D9F8000002F0E0FD75
:1042600053EC182B02F0EEFD0022B34B02F0BCFE23
:1042700002F0DEFFB2490860306802F0D1FD53EC75
:10428000182B02F0DFFD0022AB4B02F0ADFE02F076
:10429000CFFFAC490860AC48396801713968091230
:1042A000417139680914817139680916C171A748CB
:1042B0000168091E32290FD2A5491322A54B0E68A9
:1042C0009A550A68521C322392FBF3F603FB16221E
:1042D0000A600168491C0160E87E44281ED1287FDD
:1042E000012818D199480168091E32290FD298492E
:1042F0001222984B0E689A550A68521C322392FB80
:10430000F3F603FB16220A600168491C01600120D4
:104310005149087002E000204F4908704020687140
:104320000120A8710020E870022028710020E871A7
:10433000002106E0884AEB79685C4340D05CE87174
:10434000491C0729F6D3FF202872092083490860F9
:1043500073E07E480168091E32290FD27C4914227D
:104360007C4B0E689A550A68521C322392FBF3F676
:1043700003FB16220A600168491C01605020687125
:104380000120A8710020E870022028710020E87147
:10439000002106E0704AEB79685C4340D05CE8712C
:1043A000491C0729F6D3FF20287209206B490860B1
:1043B00043E00920694908600020A8710020E870E6
:1043C00002202871002106E0634AEB79685C4340D3
:1043D000D05CE871491C0729F6D3FF2028722CE035
:1043E00009205E4908600020A8710020E8700220C2
:1043F0002871002106E0584AEB79685C4340D05CA4
:10440000E871491C0729F6D3FF20287215E009201E
:10441000524908600020A8710020E870022028712D
:10442000002106E04C4AEB79685C4340D05CE871BF
:10443000491C0729F6D3FF2028720A9989B24748F8
:104440000068C0B2FFF74EF8200005F022FDBDEC79
:10445000028BBDE8F18300BFD2800020D380002012
:10446000F87D00201C7E0020407E0020647E00201D
:10447000C4800020C6800020D4800020D580002089
:10448000C0800020C28000202C0000209C00002062
:10449000A40000206C7F0020887E0020BE800020C9
:1044A000AC7E0020D07E0020F47E0020D68000204C
:1044B000688000206C8000207080002074800020C4
:1044C0007E020020EB80002064800020E38000203A
:1044D000D7800020DB800020E7800020DF800020E4
:1044E000E4800020D8800020DC800020E8800020CC
:1044F000E0800020E5800020D9800020DD800020C1
:10450000E9800020E1800020E6800020DA800020A1
:10451000DE800020EA800020E2800020ED80002084
:10452000EC800020888000208C800020908000207B
:1045300094800020788000200080764080800020D9
:104540007C8000208480002044000020B87F002070
:10455000B07F00206C7D0020AC00002098800020FF
:10456000000000000070B7402DE9FC41040000206D
:1045700000200090DFF8B06C300000200025002CF7
:1045800001D1012013E194F84400002805D1002056
:1045900084F84500200002F071F900200190DFF856
:1045A0008C0C016851F480410160006810F4804077
:1045B00001900198DFF8781C086830F4000008606A
:1045C0000A68206A02430A604FF480572068C05985
:1045D00050F001002168C85103F08EFA804620682F
:1045E000C059C0070FD503F087FAB0EB080040F2BE
:1045F000F5118842F3D3032084F84400002084F8A6
:1046000045000320D3E02068076937F01C07FDF759
:10461000F2FFDFF8201C411ADFF81C2C914202D275
:1046200057F008071AE0DFF8141C411ADFF8102CC5
:10463000914202D257F00C0710E0861BDFF8041CF1
:104640008E420BD3DFF8001C401ADFF8001C8842B2
:1046500002D257F0040701E057F010072068076105
:104660004FF400420021200000F0D8FA002808D0C2
:104670000121200000F0F5FB012084F84400012016
:1046800095E0FF2001F04CFE606800286DD003F03B
:1046900033FA07006A460121200000F07DFA41F25A
:1046A000893603F029FAC01BB04213D200984007A4
:1046B000F0D54FF480520021200000F0AFFA00281E
:1046C00014D00121200000F0CCFB012084F844002C
:1046D00001206CE00121200000F0C3FB012084F8E0
:1046E0004400002084F84500032060E003F004FA51
:1046F00007006A460121200000F04EFA03F0FCF9A1
:10470000C01BB04212D200988006F2D56A46102132
:10471000200000F041FA002814D00121200000F010
:10472000A0FB012084F84400012040E0012120008A
:1047300000F097FB012084F84400002084F8450035
:10474000032034E00098400703D54FF40060E06098
:1047500001E00020E0600098800702D50020A06002
:104760001DE04FF48040A06019E0E268D20892B2E8
:10477000A068400880B202430021200000F04EFAF9
:10478000002808D00121200000F06BFB012084F8F4
:10479000440001200BE040F6FF7001F0C1FD29004C
:1047A000200000F05EFB012084F844000020BDE8FA
:1047B000F68170B40400002094F94500012801D16D
:1047C000022032E0012084F84500022084F84400F1
:1047D000E16200251CE0F16019E0680101EB0006D0
:1047E0005FF48010306040F2F45000FB05F010449C
:1047F000B060E069002803D1306850F440003060B8
:10480000581E8542E7D2680108442030F0606D1CD4
:104810009D42E2D3206841F210028150012084F8C9
:104820004400002084F84500002070BC704770B43C
:10483000002490F94540012C01D1022034E00124EC
:1048400080F84540022480F84440816200241EE044
:10485000E9601BE065010D445FF000462E6044F204
:10486000F4566E6040F2F45606FB04F61644AE6051
:104870008669012E03D16E6826F000466E605E1ECA
:10488000B442E5D266010E442036EE60641C9C42C0
:10489000E0D3026841F20C03D150012180F84410AA
:1048A000002180F84510002070BC704770B40200F1
:1048B00000200020002092F94500012801D10220AB
:1048C00089E0012082F84500022082F84400002996
:1048D00007D1012082F84400002082F84500012021
:1048E00079E0D06A0068002807D5122082F84400D9
:1048F000002082F8450001206DE040F2F550814231
:104900000DD340F2F450B1FBF0F340F2F450B1FBA0
:10491000F0F400FB1410002802D05B1C00E001231F
:10492000012B13D1D06A006850F04050D36A186050
:10493000C904C90CD06A4160D06A006850F00040D8
:10494000D16A0860D06AC068D0622FE000202BE0F6
:10495000D46A246834F04054D56A2C60002805D10C
:10496000D46A246854F08054D56A2C6040F2F4551F
:10497000D46A65605C1EA0420CD1D46A246854F0ED
:104980000054D66A34605C1E05FB1414E404E40C85
:10499000D56A6C60D46A246854F00044D56A2C60EF
:1049A000D46AE468D462401C9842D1D341F2140026
:1049B00011680958490707D50421136819500020C8
:1049C000116841F20403C850012082F8440000201D
:1049D00082F84500002070BC7047002190F9451016
:1049E000012901D1022046E0012180F84510022171
:1049F00080F84410816A0968002935D4816A096801
:104A0000C9051DD5816B491C8163816B012901D1C9
:104A1000816A0163816A4163816A0968C1F30D415A
:104A2000091FC163016B89680164816AC968816279
:104A3000012180F84410002180F8451000201AE080
:104A4000816A0968890509D5816A0163002141638A
:104A500001218163816AC968816205E0816B491C1B
:104A60008163816AC9688162012180F84410002154
:104A700080F8451001207047002190F94520012A57
:104A800001D102204CE0012280F84520022280F86A
:104A9000442006E0826A026301228263826AD2684D
:104AA0008262826A1268002A33D4042931D2491CF6
:104AB000826A126812F44072B2F5007FEAD0826A0C
:104AC000126812F4407F06D1826B521C8263826AA4
:104AD000D2688262E5E7816A4163816B491C816328
:104AE000816B012901D1816A0163816A0968C1F37F
:104AF0000D41091FC163016B89680164816AC9683E
:104B00008162012180F84410002180F845100020C6
:104B100006E0012180F84410002180F845100120B2
:104B2000704738B5040041F214052068405940062A
:104B30000CD52000FCF7C2FB402021684851012021
:104B400084F84400002084F845000FE020684059B4
:104B5000C0070BD5200005F063FB012021684851F8
:104B6000012084F84400002084F845005FF4803080
:104B7000216848512068405900040CD5200005F0F8
:104B800050FB4FF4004021684851012084F8440054
:104B9000002084F8450031BDF8B504000E00150072
:104BA0000020002094F84400822801D1022034E043
:104BB000822084F844002068006910F01C00218ADB
:104BC000C90211F478410843B6B2B60116F4F8668A
:104BD000064336F0020656F001062068066102F030
:104BE0008BFF070001E020680669F0070DD502F091
:104BF00083FFC01BB0F5803FF5D3012084F844004B
:104C0000002084F84500032007E02068406980B256
:104C10002860012084F844000020F2BD70B5040033
:104C20000D000020002094F84400422801D1022009
:104C300033E0422084F844002068006910F01C0032
:104C4000218AC90211F478410843ADB2AD0115F4CF
:104C5000F865054355F0020555F0010592B220684C
:104C600042612068056102F047FF060001E020680C
:104C70000569E8070DD502F03FFF801BB0F5803FC6
:104C8000F5D3012084F84400002084F84500032077
:104C900003E0012084F84400002070BD10B504003A
:104CA00094F94500012801D102201BE0012084F87D
:104CB0004500022084F84400200000F018FA20008B
:104CC00000F03DFA200000F086FA200000F05FFAC4
:104CD000200000F06EFA012084F84400002084F8DF
:104CE0004500002010BD10B5040094F945000128CE
:104CF00001D102201BE0012084F84500022084F845
:104D00004400200000F04CFA200000F05BFA200084
:104D100000F029FA200000F05EFA200000F0FBF914
:104D2000012084F84400002084F84500002010BDD4
:104D300070B505000C00002095F94500012801D14F
:104D400002208DE0012085F84500022085F844000E
:104D5000002C6DD028680168DFF8F4040140226857
:104D600060680243A0680243E0680243A868024307
:104D70002069024360690243E8680243A069024374
:104D8000E0690243206A0243606A0243A06A024368
:104D900011432868016028680668012001F0C0FA04
:104DA00028680660E16A206B0143606B0143A06BD9
:104DB0000143E06B0143206C0143606C0143A06C34
:104DC00001432868416028684668012001F0A8FA7C
:104DD00028684660E06C29688860206D2968C86092
:104DE000286881694FF641700140606DA26D52EAFA
:104DF0000042E06D0243206E0243606E0243A06EEB
:104E0000024311432868816128688669012001F006
:104E100087FA28688661E16E206F01432868C161C6
:104E20002868C469012001F07BFA2868C46110E099
:104E30002868016831F49041AA68E8680243114388
:104E40002868016028680468012001F069FA286870
:104E50000460012085F84400002085F8450000200A
:104E600070BD78B5ADB004000020002905D04FF426
:104E70000060E0604FF48040A060002010900020AF
:104E80001190002012900020139000201490002018
:104E90001590E069002803D14FF48060169001E07E
:104EA000002016904FF400701790002018900020FA
:104EB000199000201A9000201B9000201C90402088
:104EC0001D9000201E9000201F90002020900020A8
:104ED0002190002022900020239000202490002088
:104EE00025908020269000202790002028900020E8
:104EF000299000202A9000202B9000202C902068E0
:104F00000168D3480140109A119802431298024355
:104F100013980243A0680243149802431598024371
:104F2000E068024316980243179802431898024318
:104F3000199802431A9802431143206801602068BF
:104F40000568012001F0ECF9206805601B991C98A8
:104F500001431D9801431E9801431F980143209867
:104F60000143219801432298014320684160206851
:104F70004568012001F0D4F9206845602398216834
:104F8000886024982168C860206881694FF6417064
:104F900001402598269A52EA004227980243289811
:104FA0000243299802432A980243114320688161F1
:104FB00020688569012001F0B3F9206885612B998B
:104FC0002C9801432068C1612068C569012001F067
:104FD000A7F92068C561002000905FF00070019083
:104FE000002102915FF4001103910021049100213E
:104FF0000591002106910021079104210891099053
:105000005FF480300A905FF480000B904FF4005002
:105010000C9080200D9000200E9000200F9041F207
:105020001805206841598B480140009A01980243B5
:1050300002980243039802430498024305980243EE
:1050400006980243079802430898024311432068D8
:10505000415120684659012001F062F9206846510B
:105060004FF4805509990A9801430B9801430C9815
:1050700001430D9801430E9851EA80010F980143B6
:1050800051F400012068415120684659012001F087
:1050900047F920684651A06901280CD141F21C0053
:1050A0002168095841F4803151F0400122681150C3
:1050B0006948FEF763F962690021200000F002F8F8
:1050C0002EB070BD5379107950EA0320634B5B1802
:1050D0001860D07893781B0453EA0063507853EA41
:1050E0000023107803435E4841180B6070471CB5DD
:1050F0000400002000902068006850F0080021683B
:105100000860206800680090012000F07AF800989C
:105110002168086013BD1CB50400002000902068C1
:10512000006830F00800216808602068006800907E
:10513000012000F066F800982168086013BD1CB5D6
:105140000400002000902068006850F004002168EE
:105150000860206800680090012000F052F8009874
:105160002168086013BD1CB5040000200090206871
:10517000006830F004002168086020680068009032
:10518000012000F03EF800982168086013BD41F24C
:1051900018010268525852F4005200684250704799
:1051A00041F218010268525832F40052006842502D
:1051B000704741F218010268525852F0020200682A
:1051C0004250704741F218010268525832F0020210
:1051D00000684250704738B504000020009041F24A
:1051E00018052068405950F4801021684851206803
:1051F00040590090012000F004F8009821684851BF
:1052000031BD81B017490968C9084FF47A72B1FB02
:10521000F2F14843009000BF0098411E0091002821
:10522000F9D101B070470000008793034438024071
:1052300004380140002D3101C0E1E400C00E160227
:1052400040787D01005A620200E1F50580F0FA0223
:105250000F8120FF233FDEF8B8EF000840800240B6
:10526000448002400400002010B58AB0524C5348DC
:10527000206053482063534860630620606000202C
:10528000A0600020E0605FF4A02020615FF4C00017
:1052900060610020A0610120E06101202062002007
:1052A00060620020A0620020E062200000F094F81C
:1052B000002005900020069001200790002000901B
:1052C0000020019000200290002003900020049014
:1052D000012008900E2009906946200000F04FF947
:1052E0000AB010BD10B586B000683449884242D17A
:1052F000002000903448016851F00071016000689E
:1053000010F0007000900098002000902F48016875
:1053100051F480710160016811F48071009100996D
:1053200000210091016851F002010160006810F055
:105330000200009000984FF4007401940220029043
:10534000002003900920059001A9214800F0E6FD06
:10535000019402200290022004900920059001A9E6
:105360001C4800F0DBFD002200211420FDF729FA83
:105370001420FDF737FA06B010BD10B50E4A136BB6
:1053800018600020136B98600020136BD860082011
:10539000136B1861002005E00B78146B044423752F
:1053A000491C401C136B1B699842F5D30A2110005D
:1053B00000F068F910BD0000BC7B002000640040D4
:1053C000187F0020D47D0020403802403038024051
:1053D000000402400020024070B5040000250020B7
:1053E000002C01D10120C9E094F93C00002805D12E
:1053F000002084F83D002000FFF774FF022084F8AD
:105400003C002068006830F00200216808602068D5
:10541000006850F001002168086002F06DFB060092
:1054200020684068C0070CD402F066FB801B0B2884
:10543000F6D3032084F83C00002084F83D000320CC
:105440009CE020684068C00740F18B80A06901287B
:1054500006D12068006850F080002168086005E0EF
:105460002068006830F0800021680860E069012849
:1054700006D12068006850F040002168086005E00F
:105480002068006830F0400021680860206A012828
:1054900006D12068006850F020002168086005E00F
:1054A0002068006830F0200021680860606A0128E8
:1054B00006D12068006850F010002168086005E0FF
:1054C0002068006830F0100021680860A06A012898
:1054D00006D12068006850F008002168086005E0E7
:1054E0002068006830F0080021680860E06A012840
:1054F00006D12068006850F004002168086005E0CB
:105500002068006830F0040021680860A168E06845
:10551000014320690143606901436068401E014303
:105520002068C16120680068400840002168086068
:1055300002F0E2FA060020684068C0070CD502F0CD
:10554000DBFA801B0B28F6D3032084F83C000020F4
:1055500084F83D00032011E020684068C00700D4B3
:105560000125012D06D100202064012084F83C0093
:10557000002003E0042084F83C00012070BD30B41A
:10558000002001204A6910FA02F2DFF86433D3F8F0
:10559000000250F00100C3F80002D3F8000230F41A
:1055A0007C50C3F80002D3F800024C6A50EA042091
:1055B000C3F80002D3F81C029043C3F81C02C86968
:1055C000002816D1D3F80C029043C3F80C024869A6
:1055D00003EBC000CC684D68C5EA0444C0F8404203
:1055E000486903EBC0008C680D68C5EA0444C0F844
:1055F0004442C869012816D1D3F80C021043C3F8FD
:105600000C02486903EBC0000C684D68C5EA04440D
:10561000C0F84042486903EBC0008C68CD68C5EA19
:105620000444C0F844428869002805D1D3F8040234
:105630009043C3F8040204E0D3F804021043C3F813
:1056400004020869002804D1D3F814029043C3F877
:1056500014020869012804D1D3F814021043C3F8D6
:105660001402086A012804D1D3F81C020243C3F8CB
:105670001C22D3F8000240084000C3F800020020BA
:1056800030BC7047F8B506000D00042000203068DB
:105690008068400108D430688068000104D4306814
:1056A0008068C00040F11E8196F93D00012801D1BB
:1056B00002201BE1012086F83D0096F93C002228DB
:1056C00004D0322806D0622808D00BE0422086F8A9
:1056D0003C000AE0522086F83C0006E0722086F882
:1056E0003C0002E0122086F83C00306880684001EF
:1056F00001D5002406E030688068000101D501244E
:1057000000E00224306821010844D0F8800110F044
:105710000100316822011144C1F88001306B8068BA
:10572000002811D1306821010844D0F88001316B84
:105730000968326BD26852EA415210433168220143
:105740001144C1F8800113E0306821010844D0F809
:105750008011306B4068326B926852EAC002306B45
:10576000C06802431143306822011044C0F8801120
:10577000306B007C10F00F00316B08613068210144
:105780000844D0F884010009000131682201114465
:10579000C1F88401306821010844D0F88411306BCD
:1057A00000690143306822011044C0F88411306B55
:1057B000C07D316B897D090451EA0061306B407D09
:1057C00051EA0021306B007D014330682201104412
:1057D000C0F88811306BC07E316B897E090451EAB4
:1057E0000061306B407E51EA0021306B007E014346
:1057F000306822011044C0F88C113068210108443F
:10580000D0F8800150F00100316822011144C1F844
:10581000800102F071F90700002C0AD1DFF87C0446
:10582000316889680140814201D1012018E00020DF
:1058300016E0012C0AD1DFF868043168896801405C
:10584000814201D101200BE0002009E0DFF854047F
:10585000316889680140814201D1012000E00020C7
:10586000002822D115F1010FD6D0002D04D002F06E
:1058700043F9C01B8542CFD2032086F83C00002CA0
:1058800003D18020316888600AE0012C04D14FF4F4
:1058900000403168886003E05FF400003168886090
:1058A000002086F83D00032020E096F93C004228C5
:1058B00004D0522806D0722808D00BE0222086F8A7
:1058C0003C000AE0322086F83C0006E0622086F8C0
:1058D0003C0002E0012086F83C00002086F83D00F4
:1058E000002003E0042086F83C000120F2BD000007
:1058F000006400400A00D2B2002A11D190F93C2085
:10590000222A0BD090F93C20422A07D090F93C2063
:10591000622A03D090F93C20722A01D1022071E062
:105920000A00D2B2012A11D190F93C20322A0BD0C0
:1059300090F93C20522A07D090F93C20622A03D0EB
:1059400090F93C20722A01D102205BE090F93D20C1
:10595000012A01D1022055E0012280F83D200A00F1
:10596000D2B2002A18D190F93C20122A04D0322A4F
:1059700006D0522A08D00BE0422280F83C2023E0D7
:10598000622280F83C201FE0722280F83C201BE05D
:10599000222280F83C2017E090F93C20122A04D003
:1059A000222A06D0422A08D00BE0522280F83C205E
:1059B0000AE0622280F83C2006E0722280F83C2057
:1059C00002E0322280F83C20002202640268526920
:1059D00042F40F4252F0010203685A61002280F83B
:1059E0003D20C9B2002906D10168496951F00A0178
:1059F0000068416105E00168496951F050010068A3
:105A000041610020704738B50400002000200020CC
:105A100000252068C168090911F00101206840696A
:105A2000C0F3C00010F00100002906D0002804D007
:105A300055F4007510202168C860206801690909C3
:105A400011F0010120684069C0F3801010F00100DE
:105A5000002906D0002804D055F480651020216864
:105A6000086120684069C0073DD58C482168896875
:105A70000140814201D1012000E0002088492268D4
:105A800092680A408A4201D1012100E00021854A42
:105A900023689B681340934201D1012200E0002259
:105AA0000843104300281ED020688068400810F08A
:105AB000010021688968490A11F001012268926891
:105AC000520C12F0010208431043002803D02000BA
:105AD00000F0EEF801E055F4006520688168724836
