:020000040800F2
:10000000E084002031EE000869E900086BE900088F
:100010006DE900086FE9000871E9000800000000C0
:1000200000000000000000000000000073E900086C
:1000300075E900080000000077E9000879E9000888
:100040005DEF000861EF000865EF000869EF000848
:100050006DEF000885E9000871EF000875EF0008F2
:1000600079EF00087DEF000881EF000885EF0008B8
:1000700089EF00088DEF000891EF000895EF000868
:1000800099EF00089DEF0008A1EF0008A5EF000818
:1000900087E90008A9EF0008ADEF0008B1EF0008FC
:1000A000B5EF0008B9EF0008BDEF0008C1EF000888
:1000B000A5E900089BE90008C5EF0008C9EF0008A2
:1000C000CDEF0008D1EF0008D5EF0008D9EF000808
:1000D000DDEF0008E1EF0008E5EF0008B9E90008EE
:1000E000E9EF0008EDEF0008F1EF0008F5EF000878
:1000F000F9EF0008FDEF000801F0000805F0000826
:1001000009F000080DF00008AFE9000811F0000840
:1001100015F0000819F000081DF0000821F0000893
:1001200025F0000829F000082DF0000831F0000843
:1001300035F0000891E9000839F000083DF00008AA
:1001400041F0000845F0000849F000084DF00008B3
:1001500051F0000855F0000859F000085DF0000863
:1001600061F0000865F0000869F000086DF0000813
:1001700071F0000875F0000879F000080000000038
:100180007DF0000881F0000880B592B0002000905A
:10019000DFF81C07016851F080510160006810F021
:1001A00080500090009800200090DFF80807016858
:1001B00051F480410160006810F480400090009884
:1001C000012006905FF48030079002200C905FF4CD
:1001D00080000D9008200E904FF4A8700F90022020
:1001E00010900720119006A801F0E2FE0F20019068
:1001F00002200290002003904FF4A05004904FF48E
:1002000080500590052101A802F08CF802F04BF90E
:1002100002F04DF96421B0FBF1F002F044FA042041
:1002200002F045FA002200215FF0FF3002F025FACB
:1002300013B000BD38B502F09BFAFFF7A5FF02F03E
:100240001DFB02F0BDFBDFF870060168C96851F0C4
:1002500002010268D1600168C96851F001010268B9
:10026000D16002F019FCDFF8540602F073FF02F0CF
:1002700085FF00F0CBFADFF8480602F08DFFDFF8CB
:10028000440602F067FF02F0F0FFDFF83C0604F0DE
:10029000DFFA04F0D5FEDFF834460021200005F037
:1002A00015FA0020DFF82816088000F0FFFFDFF8BD
:1002B000240602F0FFFB01F02FF8DFF81C0602F025
:1002C000F9FB0021200005F001FA05F0B2FDDFF88E
:1002D0000C060068002801D001F0F6FADFF800569D
:1002E0002868401E322801D200F018F801F02CFDD9
:1002F0002868401E322801D200F010F802F093FF67
:10030000DFF8E0050068002801D001F00BF928684B
:10031000401E3228D5D200F001F8D2E72DE9F0478F
:1003200057E0DFF8C40502F015FF47E040F205672B
:10033000DFF8B8653100380004F00BFF012005F04C
:10034000B5FD40F206683100404604F002FF01208E
:1003500005F0ACFD40F207693100484604F0F9FEB3
:10036000012005F0A3FD31004FF4C16004F0F1FE5F
:10037000012005F09BFDDFF878653100380004F0BE
:10038000E8FE012005F092FD3100404604F0E1FE58
:10039000012005F08BFD3100484604F0DAFE012013
:1003A00005F084FD31004FF4C16004F0D2FE01205D
:1003B00005F07CFDDFF83C0502F0CCFE2868401C0F
:1003C000322190FBF1F201FB120028602068401EF0
:1003D0002060DFF80C452068002800F015822168B5
:1003E000DFF8140502F0B6FEDFF81055DFF810054F
:1003F0002968405C012813D002285AD0032800F055
:10040000A180042800F0C480112800F00781122880
:1004100000F06A81132800F0AE81142886D080E7AE
:1004200040F20166DFF8C8743900300004F091FE34
:10043000012005F03BFD40F202683900404604F01F
:1004400088FE012005F032FD40F20369390048467C
:1004500004F07FFE012005F029FD40F2046A390016
:10046000504604F076FE012005F020FDDFF894747C
:100470003900300004F06DFE012005F017FD390051
:10048000404604F066FE012005F010FD39004846A4
:1004900004F05FFE012005F009FD3900504604F02C
:1004A00058FE012005F002FDDFF85C0402F052FE68
:1004B00084E740F20166DFF854743900300004F03C
:1004C00048FE012005F0F2FC40F202683900404687
:1004D00004F03FFE012005F0E9FC40F20369390019
:1004E000484604F036FE012005F0E0FC40F2046AC4
:1004F0003900504604F02DFE012005F0D7FCDFF84E
:10050000F0733900300004F024FE012005F0CEFC29
:100510003900404604F01DFE012005F0C7FC3900FB
:10052000484604F016FE012005F0C0FC3900504694
:1005300004F00FFE012005F0B9FCDFF8D40302F04F
:1005400009FE3BE7DFF8CC63310040F2016004F0C4
:1005500000FE012005F0AAFC310040F2026004F028
:10056000F8FD012005F0A2FC310040F2036004F028
:10057000F0FD012005F09AFC310040F2046004F027
:10058000E8FD012005F092FCE34802F0E3FD15E7E9
:1005900040F20166D54F3900300004F0DAFD012049
:1005A00005F084FC40F202683900404604F0D1FDB9
:1005B000012005F07BFC40F203693900484604F055
:1005C000C8FD012005F072FC40F2046A3900504673
:1005D00004F0BFFD012005F069FCC54F3900300073
:1005E00004F0B7FD012005F061FC3900404604F03D
:1005F000B0FD012005F05AFC3900484604F0A9FD81
:10060000012005F053FC3900504604F0A2FD012002
:1006100005F04CFCC14802F09DFDCFE6B44E40F21F
:1006200005673100380004F094FD012005F03EFC20
:1006300040F206683100404604F08BFD012005F0D1
:1006400035FC40F207693100484604F082FD012084
:1006500005F02CFC31004FF4C16004F07AFD01205C
:1006600005F024FCA74E3100380004F072FD012093
:1006700005F01CFC3100404604F06BFD012005F044
:1006800015FC3100484604F064FD012005F00EFC25
:1006900031004FF4C16004F05CFD012005F006FC60
:1006A000DFF8F46B3100380004F053FD012005F051
:1006B000FDFB3100404604F04CFD012005F0F6FB47
:1006C0003100484604F045FD012005F0EFFB310004
:1006D0004FF4C16004F03DFD012005F0E7FBDFF8B9
:1006E000C80B02F037FD69E6884E40F2056731001D
:1006F000380004F02EFD012005F0D8FB40F206681A
:100700003100404604F025FD012005F0CFFB40F20A
:1007100007693100484604F01CFD012005F0C6FBC6
:1007200031004FF4C16004F014FD012005F0BEFB60
:100730006F4E3100380004F00CFD012005F0B6FBCF
:100740003100404604F005FD012005F0AFFB31000B
:10075000484604F0FEFC012005F0A8FB31004FF4F0
:10076000C16004F0F6FC012005F0A0FBDFF8A00B4F
:1007700002F0F0FC22E6DFF89C7B40F205663900CF
:10078000300004F0E6FC012005F090FBDFF8EC8B74
:100790004146300004F0DDFC012005F087FB40F20B
:1007A00006663900300004F0D4FC012005F07EFB21
:1007B0004146300004F0CDFC012005F077FB40F20B
:1007C00007663900300004F0C4FC012005F06EFB20
:1007D0004146300004F0BDFC012005F067FB390004
:1007E0004FF4C16004F0B5FC012005F05FFB414609
:1007F0004FF4C16004F0ADFC012005F057FBDFF8B9
:10080000E00C02F0A7FCD9E5BDE8F08710B586B092
:1008100005F09CFB05F0DBFCDFF8640B05907FF036
:100820007F400490DFF85C0B03906520009000236C
:10083000A822C021DFF8500B02F08CFC00200090B1
:10084000FF23FF22FF21DFF8440B02F083FC01208D
:1008500000900023A822C021DFF8340B02F07AFCBC
:10086000174CDFF8300B0290DFF82C0B01900020C2
:10087000009003AB04AA05A9200005F0EAFC2000C3
:1008800005F07AFD94F83300400707D5DFF80C0B2C
:1008900002F060FC200005F07BFD02E0200005F086
:1008A00098FDDFF8641C200005F0A5FD06B010BD22
:1008B0004038024000700040807C002034EC00088A
:1008C000347D0020D8EC0008747B0020BC7B002025
:1008D00096800020F87C0020BC7C00205080002006
:1008E000B87F0020CC7F002064EE000824000020A8
:1008F0000C00002000ED0008ECEC0008B47F0020A4
:100900006C7D00201C00002070ED00081400002009
:1009100040EE00082C0000204CEE000880ED00089E
:1009200070B5002114E0536B0C00A4B223441B7D6E
:10093000DFF8D84B0D00ADB26355526B0B009BB284
:100940001A44127DDFF8C83B0C00A4B21A55491CAA
:10095000DFF8C02B0B009BB2546B2469A342E2D397
:10096000516B0969082940F09384DFF8AC1BDFF86C
:10097000A03B9C785D7855EA04250D60526B1268A7
:1009800040F28154121B16D0521E00F09680521E67
:1009900000F01581521E00F09481521E00F0138267
:1009A000521E00F09C82521E00F02583521E00F061
:1009B000AE8300F037BC0A6842F20304A24204D1BD
:1009C0001979DFF8582B116076E00A68B2F5005FFC
:1009D00004D11979DFF8442B51606DE00A6846F2C2
:1009E0006004A24204D11979DFF8302B118163E051
:1009F0000A6846F26C04A24207D159791A7952EA80
:100A00000122DFF8181B4A8156E00A6846F2780492
:100A1000A24207D159791A7952EA0122DFF8FC1A69
:100A20008A8149E00A6846F29104A24207D15979C5
:100A30001A7952EA0122DFF8E41A4A823CE00A6895
:100A400042F20B04A2420CD1D9799A7952EA0122DE
:100A50005C7954EA022419790C43DFF8C01ACC619E
:100A60002AE00A6846F26B04A24207D159791A7942
:100A700052EA0122DFF8A41A8A821DE00A6846F2CF
:100A80006304A2420DD1D9799A7952EA01225979A7
:100A900051EA02211A7952EA0122DFF8801A8A61AA
:100AA0000AE0096846F29002914205D11979C1F332
:100AB0000011DFF8682A1162B4E30A6842F2030405
:100AC000A24204D11979DFF8582A116076E00A6849
:100AD000B2F5005F04D11979DFF8442A51606DE066
:100AE0000A6846F26004A24204D11979DFF8302A7C
:100AF000118163E00A6846F26C04A24207D1597979
:100B00001A7952EA0122DFF8181A4A8156E00A6877
:100B100046F27804A24207D159791A7952EA0122A1
:100B2000DFF8FC198A8149E00A6846F29104A24282
:100B300007D159791A7952EA0122DFF8E4194A8279
:100B40003CE00A6842F20B04A2420CD1D9799A79AE
:100B500052EA01225C7954EA022419790C43DFF845
:100B6000C019CC612AE00A6846F26B04A24207D1A0
:100B700059791A7952EA0122DFF8A4198A821DE014
:100B80000A6846F26304A2420DD1D9799A7952EAF1
:100B90000122597951EA02211A7952EA0122DFF839
:100BA00080198A610AE0096846F29002914205D1F3
:100BB0001979C1F30011DFF86829116232E30A687C
:100BC00042F20304A24204D11979DFF8302C1160FB
:100BD00076E00A68B2F5005F04D11979DFF81C2CC1
:100BE00051606DE00A6846F26004A24204D11979AE
:100BF000DFF8082C118163E00A6846F26C04A24217
:100C000007D159791A7952EA0122DFF8F01B4A819B
:100C100056E00A6846F27804A24207D159791A7957
:100C200052EA0122DFF8D41B8A8149E00A6846F2C1
:100C30009104A24207D159791A7952EA0122DFF8C8
:100C4000BC1B4A823CE00A6842F20B04A2420CD16F
:100C5000D9799A7952EA01225C7954EA0224197905
:100C60000C43DFF8981BCC612AE00A6846F26B045B
:100C7000A24207D159791A7952EA0122DFF87C1B86
:100C80008A821DE00A6846F26304A2420DD1D97936
:100C90009A7952EA0122597951EA02211A7952EAE3
:100CA0000122DFF8581B8A610AE0096846F29002C7
:100CB000914205D11979C1F30011DFF8402B11627F
:100CC000B0E20A6842F20304A24204D11979DFF8C3
:100CD000D82B116076E00A68B2F5005F04D119796B
:100CE000DFF8C42B51606DE00A6846F26004A2424E
:100CF00004D11979DFF8B02B118163E00A6846F25C
:100D00006C04A24207D159791A7952EA0122DFF81C
:100D1000981B4A8156E00A6846F27804A24207D13D
:100D200059791A7952EA0122DFF87C1B8A8149E05D
:100D30000A6846F29104A24207D159791A7952EA17
:100D40000122DFF8641B4A823CE00A6842F20B048D
:100D5000A2420CD1D9799A7952EA01225C7954EAFB
:100D6000022419790C43DFF8401BCC612AE00A68A1
:100D700046F26B04A24207D159791A7952EA01224C
:100D8000DFF8241B8A821DE00A6846F26304A2424F
:100D90000DD1D9799A7952EA0122597951EA022181
:100DA0001A7952EA0122DFF8001B8A610AE0096819
:100DB00046F29002914205D11979C1F30011DFF892
:100DC000E82A11622EE20A6842F20304A24204D128
:100DD0001979DFF8D82A116080E00A68B2F5005F5F
:100DE00004D11979DFF8C42A516077E00A6846F225
:100DF0006004A24204D11979DFF8B02A11816DE0B4
:100E00000A6846F26C04A24207D159791A7952EA6B
:100E10000122DFF8981A4A8160E00A6846F27804F5
:100E2000A24207D159791A7952EA0122DFF87C1AD5
:100E30008A8153E00A6846F29104A24207D15979A7
:100E40001A7952EA0122DFF8641A4A8246E00A68F7
:100E500042F20B04A2420CD1D9799A7952EA0122CA
:100E60005C7954EA022419790C43DFF8401ACC610A
:100E700034E00A6846F26B04A24207D159791A7924
:100E800052EA0122DFF8241A8A8227E00A6846F231
:100E90006304A2420DD1D9799A7952EA0122597993
:100EA00051EA02211A7952EA0122DFF8001A8A6116
:100EB00014E00A6846F29004A24206D1197911F0B2
:100EC0000101DFF8E829116208E0096846F28902A9
:100ED000914203D11979DFF8D8291160A2E10A689B
:100EE00042F20304A24204D11979DFF8C829116043
:100EF00080E00A68B2F5005F04D11979DFF8B429FF
:100F0000516077E00A6846F26004A24204D1197980
:100F1000DFF8A02911816DE00A6846F26C04A24254
:100F200007D159791A7952EA0122DFF888194A81E2
:100F300060E00A6846F27804A24207D159791A792A
:100F400052EA0122DFF86C198A8153E00A6846F2FE
:100F50009104A24207D159791A7952EA0122DFF8A5
:100F600054194A8246E00A6842F20B04A2420CD1AC
:100F7000D9799A7952EA01225C7954EA02241979E2
:100F80000C43DFF83019CC6134E00A6846F26B0498
:100F9000A24207D159791A7952EA0122DFF81419CD
:100FA0008A8227E00A6846F26304A2420DD1D97909
:100FB0009A7952EA0122597951EA02211A7952EAC0
:100FC0000122DFF8F0188A6114E00A6846F2900402
:100FD000A24206D1197911F00101DFF8D828116277
:100FE00008E0096846F28902914203D11979DFF8D5
:100FF000C828116016E10A6842F20304A24204D133
:101000001979DFF8B828116080E00A68B2F5005F4E
:1010100004D11979DFF8A428516077E00A6846F214
:101020006004A24204D11979DFF8902811816DE0A3
:101030000A6846F26C04A24207D159791A7952EA39
:101040000122DFF878184A8160E00A6846F27804E5
:10105000A24207D159791A7952EA0122DFF85C18C5
:101060008A8153E00A6846F29104A24207D1597975
:101070001A7952EA0122DFF844184A8246E00A68E7
:1010800042F20B04A2420CD1D9799A7952EA012298
:101090005C7954EA022419790C43DFF82018CC61FA
:1010A00034E00A6846F26B04A24207D159791A79F2
:1010B00052EA0122DFF804188A8227E00A6846F221
:1010C0006304A2420DD1D9799A7952EA0122597961
:1010D00051EA02211A7952EA0122DFF8E0178A6107
:1010E00014E00A6846F29004A24206D1197911F080
:1010F0000101DFF8C827116208E0096846F2890299
:10110000914203D11979DFF8602B11608AE00A68F7
:1011100042F20304A24204D11979DFF8A82B11602E
:1011200080E00A68B2F5005F04D11979DFF8942BEA
:10113000516077E00A6846F26004A24204D119794E
:10114000DFF8802B11816DE00A6846F26C04A24240
:1011500007D159791A7952EA0122DFF8681B4A81CE
:1011600060E00A6846F27804A24207D159791A79F8
:1011700052EA0122DFF84C1B8A8153E00A6846F2EA
:101180009104A24207D159791A7952EA0122DFF873
:10119000341B4A8246E00A6842F20B04A2420CD198
:1011A000D9799A7952EA01225C7954EA02241979B0
:1011B0000C43DFF8101BCC6134E00A6846F26B0484
:1011C000A24207D159791A7952EA0122DFF8F41ABA
:1011D0008A8227E00A6846F26304A2420DD1D979D7
:1011E0009A7952EA0122597951EA02211A7952EA8E
:1011F0000122DFF8D01A8A6114E00A6846F29004EE
:10120000A24206D1197911F00101DFF8B82A116262
:1012100008E0096846F28902914203D11979DFF8A2
:101220005C2B1160DFF88416DFF88826DFF88C3637
:10123000DFF8904A0D6A166A56EA45061D6A55EAB5
:101240004605266A56EA4506DFF8345B2E70496883
:10125000526852EA4102596851EA4201626852EA10
:101260004102DFF8201B0A70AC490989AC4A128997
:1012700052EA0112DFF8101B0A70DFF880150989A5
:10128000DFF82426128952EA0112DFF8201C0A70C6
:10129000002104F01BFA70BD4C00002080B5DFF87F
:1012A000100C05F0B2FA01BD90ED00081FB500204A
:1012B0000090DFF8D80A016851F001010160006870
:1012C00010F0010000900098DFF8E84B5FF08040DC
:1012D00020604CF24F30E06040F61F50606000200C
:1012E00020610020A060200001F0BAFB00200190E6
:1012F0000020029001A9200005F02CFB0022012112
:101300001C2001F0BAF91C2001F0C8F91FBD000033
:1013100058EE0008440000201FB500200090DFF8C0
:101320006C0A016851F002010160006810F00200CF
:1013300000900098DFF8584ADFF87C0B20604CF2F0
:101340004F30E06040F28F6060600020206100203C
:10135000A060200001F084FB00200190002002909A
:1013600001A9200005F0F6FA002202211D2001F05B
:1013700084F91D2001F092F91FBD000054000020E7
:10138000C0A80065C0A800014CEA00087CEA00087B
:10139000ACEA000835D1000833680008B0ED000859
:1013A00030B4DFF8EC1988421DD10120DFF80C1BA6
:1013B0000860DFF80C0B0168091E322980F08D806F
:1013C000DFF8001B2122DFF8003B0C681A550A6881
:1013D000521C322392FBF3F403FB14220A600168CF
:1013E000491C016079E0DFF8CC1A884265D1DFF84A
:1013F000DC0A016809295CD1DFF8C41A0A68121EE8
:10140000322A11D2DFF8BC2A2223DFF8BC4A156841
:10141000635513685B1C322493FBF4F504FB15330E
:1014200013600A68521C0A600A68121E322A11D21E
:10143000DFF8902A2323DFF8904A15686355136874
:101440005B1C322493FBF4F504FB153313600A682C
:10145000521C0A600A68121E322A11D2DFF8642A6E
:101460002423DFF8644A1568635513685B1C322433
:1014700093FBF4F504FB153313600A68521C0A60F1
:101480000A68121E322A11D2DFF8382A2523DFF823
:10149000384A1568635513685B1C322493FBF4F5D6
:1014A00004FB153313600A68521C0A6000210160B6
:1014B00013E00168491C01600FE0DFF8141A88424C
:1014C0000BD1DFF8100A0188B1F5004F03D14FF4BA
:1014D0000041018001E00321018030BC7047000021
:1014E000A0ED0008DFF8E81988420CD1DFF8E40924
:1014F0000188B1F5004F03D04FF6FF71018002E083
:101500004FF400410180704759680008C07A0020FC
:10151000787F0020BC7B00208C7F0020F87D00209D
:101520001C7E00202DE9F84F40F20164DFF8A85935
:101530002900200003F00DFE012004F0B7FC40F26A
:1015400002662900300003F004FE012004F0AEFC26
:1015500040F203672900380003F0FBFD012004F08E
:10156000A5FC40F204682900404603F0F2FD01208A
:1015700004F09CFCDFF864994946200003F0E9FD83
:10158000012004F093FC4946300003F0E2FD012005
:1015900004F08CFC4946380003F0DBFD012004F028
:1015A00085FC4946404603F0D4FD012004F07EFC52
:1015B000DFF82C994946200003F0CBFD012004F010
:1015C00075FC4946300003F0C4FD012004F06EFCB8
:1015D0004946380003F0BDFD012004F067FC494690
:1015E000404603F0B6FD012004F060FCDFF8F498FB
:1015F0004946200003F0ADFD012004F057FC4946A8
:10160000300003F0A6FD012004F050FC49463800EC
:1016100003F09FFD012004F049FC4946404603F0D9
:1016200098FD012004F042FCDFF8BCA851462000E0
:1016300003F08FFD012004F039FC5146300003F027
:1016400088FD012004F032FC5146380003F081FD92
:10165000012004F02BFC5146404603F07AFD0120A6
:1016600004F024FCDFF884B85946200003F071FD33
:10167000012004F01BFC5946300003F06AFD0120F4
:1016800004F014FC5946380003F063FD012004F017
:101690000DFC5946404603F05CFD012004F006FCB9
:1016A000DFF84C080068401E322801D2FEF736FEF3
:1016B00040F205642900200003F04BFD012004F0F6
:1016C000F5FB40F206662900300003F042FD0120E0
:1016D00004F0ECFB40F207672900380003F039FD05
:1016E000012004F0E3FB29004FF4C16003F031FD59
:1016F000012004F0DBFB4946200003F02AFD012015
:1017000004F0D4FB4946300003F023FD012004F02F
:10171000CDFB4946380003F01CFD012004F0C6FB58
:1017200049464FF4C16003F014FD012004F0BEFBF4
:101730005146200003F00DFD012004F0B7FB514697
:10174000300003F006FD012004F0B0FB51463800E4
:1017500003F0FFFC012004F0A9FB51464FF4C160E7
:1017600003F0F7FC012004F0A1FB5946200003F030
:10177000F0FC012004F09AFB5946300003F0E9FC2C
:10178000012004F093FB5946380003F0E2FC0120ED
:1017900004F08CFB59464FF4C16003F0DAFC0120E1
:1017A00004F084FBDFF84C572900200003F0D1FC43
:1017B000012004F07BFB2900300003F0CAFC01206B
:1017C00004F074FB2900380003F0C3FC012004F08E
:1017D0006DFB29004FF4C16003F0BBFC012004F055
:1017E00065FB00F00DF80020DFF8D0160860DFF888
:1017F000080701F0AFFCBDE8F18F0000407E00203B
:1018000080B52DED028B9FED2E8BDFF8F006806901
:1018100005F0CCF853EC182B05F0DAF80022DFF8CD
:10182000E03605F0A7F905F0C9FADFF8D816086028
:10183000DFF8D406806905F0B9F853EC182B05F0F1
:10184000C7F80022DFF8B83605F094F905F0B6FACB
:10185000DFF8B8160860DFF8B806806905F0A6F86A
:1018600053EC182B05F0B4F80022DFF8943605F09D
:1018700081F905F0A3FADFF89C1608600A48806930
:1018800005F094F853EC182B05F0A2F80022DFF8CD
:10189000703605F06FF905F091FADFF87C160860F4
:1018A000BDEC028B01BD0000647E0020887E00201C
:1018B000907F0020AC7E0020947F0020D07E00200E
:1018C00000000000008076402DE9F84F40F20166EC
:1018D000DFF848462100300003F03BFC40F202678D
:1018E0002100380003F035FC40F203682100404637
:1018F00003F02FFC012004F0D9FA40F20469210022
:10190000484603F026FCDFF818562900300003F0A3
:1019100020FC2900380003F01CFC012004F0C6FA6A
:101920002900404603F015FC2900484603F011FC4D
:101930000020DFF848140860CB490860DFF8E46550
:101940003060DFF8E475386040F20568DFF8DC9558
:101950004946404603F0FDFB012004F0A7FA40F29F
:10196000066A4946504603F0F4FB012004F09EFA53
:1019700040F2076B4946584603F0EBFB012004F0A8
:1019800095FA49464FF4C16003F0E3FB012004F0EF
:101990008DFADFF89C05DFF89C158969C91701608D
:1019A000DFF894158969C917DFF890251160DFF811
:1019B00090158969C917DFF88C251160C1498969BB
:1019C000C917DFF8842511600068002805D0DFF80A
:1019D0007C15404603F0BDFB04E0DFF8741540467B
:1019E00003F0B7FB012004F061FADFF8500500684E
:1019F000002805D0DFF85415504603F0AAFB04E098
:101A0000DFF84C15504603F0A4FB012004F04EFA19
:101A1000DFF830050068002805D0DFF8301558469B
:101A200003F097FB04E0DFF82815584603F091FB1C
:101A3000012004F03BFADFF810050068002806D00A
:101A4000DFF808154FF4C16003F083FB05E0DFF811
:101A500000154FF4C16003F07CFB012004F026FA6E
:101A60003868FE282FD0DFF8EC14404603F071FBF5
:101A7000012004F01BFA4946404603F06AFB0120AE
:101A800004F014FA06E04946404603F062FB0A20DF
:101A900004F00CFA3868FE28F5D12100404603F026
:101AA00058FB012004F002FA2900404603F051FBE4
:101AB000012004F0FBF9DFF8A014404603F049FBD5
:101AC000012004F0F3F93868FE2832D13068FE288E
:101AD0002FD0DFF88014504603F03BFB012004F0C8
:101AE000E5F94946504603F034FB012004F0DEF9E5
:101AF00006E04946504603F02CFB0A2004F0D6F9D4
:101B00003868FE28F5D12100504603F022FB012061
:101B100004F0CCF92900504603F01BFB012004F02F
:101B2000C5F9DFF83414504603F013FB012004F02C
:101B3000BDF93868FE2839D13068FE2836D14A48C8
:101B40000068FE2832D0DFF80C14584603F001FB81
:101B5000012004F0ABF94946584603F0FAFA012097
:101B600004F0A4F909E04946584603F0F2FA0120CE
:101B700004F09CF90A2004F099F93868FE28F2D1A3
:101B80002100584603F0E5FA012004F08FF92900FE
:101B9000584603F0DEFA012004F088F9DFF8B813A4
:101BA000584603F0D6FA012004F080F93868FE2880
:101BB00043D13068FE2840D12B480068FE283CD134
:101BC0006E480068FE2838D0DFF888134FF4C160F3
:101BD00003F0BFFA012004F069F949464FF4C160EF
:101BE00003F0B7FA012004F061F90AE049464FF426
:101BF000C16003F0AEFA012004F058F90A2004F0A5
:101C000055F93868FE28F1D121004FF4C16003F086
:101C1000A0FA012004F04AF929004FF4C16003F052
:101C200098FA012004F042F9DFF82C134FF4C16058
:101C300003F08FFA012004F039F93868FE2810D13A
:101C40003068FE280DD108480068FE2809D14B48AD
:101C50000068FE2805D10120C04908700020C04955
:101C60000860BDE8F18F0000987F002038B5BD4CBA
:101C7000A04226D197480188012904D04FF6FF726F
:101C8000914209D00BE0022101800020B649088072
:101C90008F4800F001FF02E04FF400410180B2489C
:101CA0000288B2490B78B24D92B2AB540288521CF2
:101CB00002800020864A126850620122200005F04E
:101CC00044F931BDF47E002038B57D4C2168A94827
:101CD00001F040FAA84D7C482968405CA74908609B
:101CE000212807D024D3232810D009D3252819D0A0
:101CF00012D31DE001224321012005F07AFC17E0F8
:101D000001221021012005F074FC11E001221421B0
:101D1000012005F06EFC0BE001220E21012005F0F0
:101D200068FC05E001220F21012005F062FCFFE7BD
:101D30002868401C322190FBF1F201FB1200286060
:101D40002068401E206031BD10B5624C2088B0F57F
:101D5000004F01D1002020802088032801D100F00D
:101D600019F82088002808D155480068401E3228FC
:101D700003D2FFF7A9FF0120208010BD9C7F002027
:101D8000C2800020BF800020B68000204038024082
:101D9000BC7C002070B57A4E754C734D2988891E25
:101DA000200005F007FC30807648318889B23288FF
:101DB000120252EA11220280298889B2214411F8C4
:101DC000021C2A880088C9B292B2224412F8012C5F
:101DD00052EA0122904261D1207801285AD16078DC
:101DE000032853D1A078C0B22988491F884249D11D
:101DF00062480068212807D043D323281AD00ED385
:101E0000252833D027D33CE05F4801F0A3F9E078E0
:101E1000C0B2217951EA00215C48018041E05C4870
:101E200001F098F9E078C0B2217951EA00215748D1
:101E3000418036E0574801F08DF9E0785349C0B24F
:101E4000227952EA00228A80888880000A2290FB48
:101E5000F2F0888025E0504801F07CF9E078C0B2CB
:101E6000217951EA00214948C1801AE04B4801F02C
:101E700071F9E078C0B2217951EA0021434801812B
:101E80000FE00EE0464801F065F90AE0454801F030
:101E900061F906E0444801F05DF902E0434801F0D1
:101EA00059F900200B49088070BD0000B780002060
:101EB000347D0020F87C002000040040CC7F00200E
:101EC000C47F0020BC7F0020A07D0020D07F0020A8
:101ED000807C0020968000205C00002064000020B0
:101EE0006C000020740000207C0000208400002092
:101EF000B87F00208C00002050EC0008F87D002006
:101F00000070B740548000201C7E002058800020C4
:101F1000407E00205C8000206080002014000020B3
:101F20000C000020947F0020907F0020940000206F
:101F3000A07F0020887E0020AC7E0020A47F0020AF
:101F4000D07E0020A87F0020AC7F0020340000203D
:101F50003C000020540000201C0000207E020020D5
:101F600050800020407C002090800020B480002021
:101F7000F071002084EC0008C07F0020C87F0020A2
:101F80009A80002098800020C0ED00086C7F00201F
:101F90009CEC0008D0ED000814ED000828ED0008C6
:101FA000E0ED0008F0ED000870EE00087CEE00089F
:101FB000F8B5040000202078C0075CD5DFF83803AE
:101FC000016811F00C01042909D0006810F00C0020
:101FD00008280ED1DFF824030068400209D5DFF895
:101FE00020030068800346D56068002843D10120A3
:101FF00081E16068B0F5803F06D1DFF80403016835
:1020000051F48031016017E06068B0F5A02F0AD16B
:10201000DFF8EC02016851F480210160016851F49D
:102020008031016008E0B648016831F48031016018
:10203000016831F480210160606800280DD005F04E
:1020400021FB0500AE480068800314D405F01AFB9C
:10205000401B6528F6D303204DE105F013FB050076
:10206000A7480068800306D505F00CFB401B6528D7
:10207000F6D303203FE12078800722D59E480168EF
:1020800011F00C0F08D0006810F00C0008282FD1B8
:102090009A48006840022BD499480168890704D502
:1020A000E168012901D0012025E101685FF0F852C3
:1020B000B2FA82F231F0F801236913FA02F2114305
:1020C00001602078000756D56069002842D00120C1
:1020D0008C49086005F0D6FA05008B480068800737
:1020E00049D405F0CFFA401B0328F6D3032002E1C0
:1020F000E06800281DD001208449086005F0C2FA7C
:1021000005007F480168890706D405F0BBFA401B2B
:102110000328F6D30320EEE001685FF0F852B2FA2C
:1021200082F231F0F801236913FA02F211430160DF
:10213000C7E700207549086005F0A4FA050070485B
:1021400000688007BDD505F09DFA401B0328F6D333
:102150000320D0E000206B49086005F093FA0500E9
:1021600069480068800706D505F08CFA401B0328F3
:10217000F6D30320BFE0207840075FD50020009011
:102180006348016851F080510160006810F0805090
:10219000009000985F4E306850F48070306005F019
:1021A00071FA05003068C00506D405F06BFA401BD3
:1021B0000328F7D303209EE0A068012805D15648E4
:1021C000016851F00101016015E0A068052809D1FE
:1021D0005148016851F004010160016851F00101AA
:1021E000016008E04C480168490849000160016845
:1021F00031F004010160A06800280FD005F042FA18
:10220000050045480068800718D405F03BFA401BDC
:1022100041F289318842F4D303206CE005F032FAB0
:1022200005003D480068800708D505F02BFA401BE3
:1022300041F289318842F4D303205CE0A069002890
:1022400058D02D48006810F00C00082850D0A06924
:1022500002283CD1314E0020306005F013FA07000F
:10226000274D2868800106D505F00CFAC01B03280D
:10227000F6D303203FE02A48B0FA80F14FF4404003
:10228000B0FA80F2F020B0FA80F3E769206A0743E1
:10229000606A10FA01F13943A06A4008401E10FA42
:1022A00002F21143E06A10FA03F319431348016084
:1022B0000120306005F0E6F904002868800119D497
:1022C00005F0E0F9001B0328F7D3032013E00020FA
:1022D0001249086005F0D6F9040009480068800139
:1022E00008D505F0CFF9001B0328F6D3032002E040
:1022F000012000E00020F2BD08380240043802400E
:1023000000380240800E47427438024000004742C5
:102310004038024000700040703802406000474280
:102320000000FE032DE9F04104000D000020714E75
:10233000306810F00F00A84207D23570306810F0F6
:102340000F00A84201D00120ABE02078800706D51D
:1023500069490A6832F0F002A06802430A602078F6
:10236000C00768D56068012805D16448006880030B
:1023700013D4012095E06068022802D06068032829
:1023800005D15E480068800107D4012089E05B48E0
:102390000068800701D4012083E0574F396889081D
:1023A000890060680143396005F06CF98046606817
:1023B00001280ED1386810F00C0004283BD005F03D
:1023C00061F9B0EB080041F289318842F2D3032071
:1023D00067E0606802280ED1386810F00C00082809
:1023E00029D005F04FF9B0EB080041F2893188425D
:1023F000F2D3032055E0606803280ED1386810F04E
:102400000C000C2817D005F03DF9B0EB080041F2A4
:1024100089318842F2D3032043E0386810F00C0F72
:1024200009D005F02FF9B0EB080041F2893188425C
:10243000F3D3032035E0306810F00F00854207D257
:102440003570306810F00F00A84201D0012028E05C
:102450002078400706D528490A6832F4E052E0683F
:1024600002430A602078000707D52348016831F449
:102470006041226951EAC201016000F049F81E4939
:1024800009685FF07062B2FA82F21D4B11F0F00140
:10249000D140595CC8401B490860002005F0F8F89D
:1024A0000020BDE8F08101201749086070471548F9
:1024B0000068704780B5FFF7FAFF0F4909685FF4BD
:1024C0006012B2FA82F2114B11F4E051D140595C22
:1024D000C84002BD80B5FFF7EAFF074909685FF40D
:1024E000E022B2FA82F2094B11F46041D140595C0A
:1024F000C84002BD003C024008380240003802409B
:1025000000EE0008040000204C0047422CEF0008B9
:1025100010B400200020002000201F48006810F0A8
:102520000C00002804D0042804D0082804D030E08F
:102530001A482FE01A482DE01A49086810F03F00A9
:102540000A6852020CD50B68174AB2FA82F4144A90
:10255000B2FBF0F247F6C0700340E3405A430BE091
:102560000B68114AB2FA82F40C4AB2FBF0F247F659
:10257000C0700340E3405A4308684FF44041B1FA49
:1025800081F110F44030C840401C4000B2FBF0F034
:1025900000E0024810BC7047083802400024F400F4
:1025A00000127A00043802400000FE0310F0070019
:1025B000464B1A684FF6FF010A40454951EA00218F
:1025C0000A431A60704741480068C0F30220704710
:1025D000012210F01F018A403E4940B2400941F8F3
:1025E00020207047020052B2002A08D509013A4A59
:1025F00040B210F00F00104400F8041C03E0090181
:10260000364A40B21154704710B410F00700D0F1B0
:102610000703052B01D3042301E0D0F10703041DB8
:10262000072C01D2002000E0C01E012414FA03F39D
:102630005B1E1940814014FA00F0401E1040084310
:1026400010BC704780B5411EB1F1807F01D30120DD
:102650000EE0401E224908600F215FF0FF30FFF7B7
:10266000C1FF00201F49086007201F4908600020A3
:1026700002BD80B5FFF79AFF01BD70B504000D00E3
:1026800016000020FFF79FFF32002900FFF7BCFF74
:102690000100200040B2FFF7A5FF70BD80B540B239
:1026A000FFF796FF01BD80B5FFF7CCFF02BD042800
:1026B00005D10D48016851F00401016004E00A48A9
:1026C000016831F004010160704700000CED00E08A
:1026D0000000FA0500E100E018ED00E000E400E091
:1026E00014E000E018E000E010E000E080B500F049
:1026F00001F801BD7047F0B40246106895681318E0
:10270000506803EB5004C0071DD54D441BE013F87F
:10271000017B05F8017B491EF9D1A0B1B60813F879
:10272000011B06F00306032E08BF13F8016B01EB33
:1027300006214942801C294405D011F8016B05F897
:10274000016B401EF9D1A3420ED013F8016B16F0B5
:10275000030104BF13F8011BC91C30090F28DAD18B
:1027600013F8010B0F30D6E7F0BC02F10C007047F4
:1027700080B50B48016851F400710160016851F4A3
:1027800080610160016851F4807101600320FFF7EE
:1027900070FF002004F07CFF04F08EFF002002BDDB
:1027A000003C024010B586B001687A4A91421AD1C5
:1027B000002005907848016851F010010160006820
:1027C00010F0100005900598C020009002200190A4
:1027D00001200290032003900720049069466F486F
:1027E00004F0A2FF48E000686D49884244D100200F
:1027F00005906C48016851F480210160006810F474
:10280000802005900598002005906748016851F0E8
:1028100080010160006810F08000059005984FF479
:102820008060009002200190032003900720049014
:102830005A4C6946200004F077FF4FF40060009086
:102840000220019000200290072004906946200099
:1028500004F06AFF554C00224FF48071200005F00F
:1028600051F84FF4807000900120019002200390F5
:102870006946200004F058FF06B010BD1CB50020CA
:1028800000904948016851F002010160006810F0B1
:1028900002000090009846483E4901605FF4E13133
:1028A0004160002181600021C160002101610C2193
:1028B0004161002181610021C16104F09DFA002085
:1028C00000903848016851F480210160006810F4DC
:1028D0008020009000982BA000F03CFC354C304844
:1028E00020604FF4165060604FF48050A0600020CC
:1028F000E0604FF4806020610C2060610020A061E6
:102900000020E0612C4800F025FC200004F074FA5F
:102910001DA000F01FFC002200212720FFF7ADFEC4
:102920002720FFF7BBFE19A000F014FC0122234969
:10293000200004F00AFB16A000F00CFC13BD70B5DB
:1029400004000D00194E01224FF48071300004F094
:10295000D9FF4FF6FF732A0092B22100154804F008
:1029600086FA00224FF48071300004F0CBFF70BD76
:1029700001B54FF6FF73012269460D4804F077FA5E
:10298000009802BD310A0000320A0000330A00003C
:10299000340A0000001001404438024000040240A4
:1029A000004800404038024030380240001C0240DD
:1029B000007C0020407C00200CEF0008B480002048
:1029C00018B58BB0234C2448206053206060002051
:1029D000A06040F64660E0600020206108212000F1
:1029E00000F076F84FF48050079007A9200000F01F
:1029F00081F93020009040F21A600190002002908E
:102A000008200390002004900020059000200690EC
:102A100000226946200000F03EF90CB010BD80B5E0
:102A200000680D49884213D1002000900B480168CE
:102A300051F008010160006810F008000090009853
:102A4000002200213220FFF718FE3220FFF726FE79
:102A500001BD0000807C0020000C00404038024096
:102A600010B50400002C01D1012014E094F93900C4
:102A7000002805D1002084F83800200000F069FB10
:102A8000022084F83900211D206800F0BFF90120E0
:102A900084F83900002010BD022180F83910016847
:102AA000096851F0010102681160012180F83910B4
:102AB000002070470168C96851F001010268D160C7
:102AC0000168096851F00101006801600020704749
:102AD00038B504000D00002C01D101201FE094F94D
:102AE0003900002805D1002084F838002000FFF7C5
:102AF00096FF022084F83900211D206800F086F935
:102B00002068006830F008002168086020680068CC
:102B1000054320680560012084F83900002032BD9B
:102B200010B504002068006980071AD52068C068C5
:102B3000800716D57FF00200216808610120207609
:102B40002068806910F0030F03D0200004F000FF1C
:102B500005E02000FEF7C6FC200004F0FAFE00208D
:102B600020762068006940071AD52068C0684007B1
:102B700016D57FF0040021680861022020762068C5
:102B8000806910F4407F03D0200004F0E1FE05E0EE
:102B90002000FEF7A7FC200004F0DBFE00202076DA
:102BA0002068006900071AD52068C068000716D59C
:102BB0007FF0080021680861042020762068C06941
:102BC00010F0030F03D0200004F0C2FE05E0200047
:102BD000FEF788FC200004F0BCFE00202076206870
:102BE0000069C0061AD52068C068C00616D57FF0F7
:102BF000100021680861082020762068C06910F460
:102C0000407F03D0200004F0A3FE05E02000FEF783
:102C100069FC200004F09DFE0020207620680069F9
:102C2000C0070AD52068C068C00706D57FF001003C
:102C3000216808612000FEF7B3FB206800690006E8
:102C40000AD52068C068000606D57FF0800021689C
:102C50000861200004F07EFE2068006940060AD565
:102C60002068C068400606D57FF0400021680861F2
:102C7000200004F070FE2068006980060AD52068F4
:102C8000C068800606D57FF020002168086120001A
:102C900004F062FE10BD10B5040094F9380001285C
:102CA00001D1022025E0012084F83800022084F8B8
:102CB0003900002A06D0042A08D0082A0AD00C2A93
:102CC0000CD00FE0206800F04EF90BE0206800F017
:102CD0000FF907E0206800F07CF903E0206800F0BD
:102CE000B2F9FFE7012084F83900002084F83800A9
:102CF000002010BD10B50400002094F93800012810
:102D000001D1022081E0012084F83800022084F8FB
:102D100039002068806830F0770030F47F40226806
:102D200090600868002855D0102858D020285BD023
:102D300030285ED0402843D050282DD0602835D090
:102D400070280DD0B0F5805F03D0B0F5005F16D0CD
:102D500054E020688068C008C000216888604DE0A9
:102D6000CB684A688968206800F0E7F920688068C5
:102D700030F0770050F07700216888603EE0CB6843
:102D80004A688968206800F0D8F92068806850F4A3
:102D900080402168886031E0CA684968206800F096
:102DA00099F95021206800F0BEF927E0CA68496807
:102DB000206800F0A3F96021206800F0B4F91DE05C
:102DC000CA684968206800F085F94021206800F051
:102DD000AAF913E00021206800F0A5F90EE0102107
:102DE000206800F0A0F909E02021206800F09BF99C
:102DF00004E03021206800F096F9FFE7012084F814
:102E00003900002084F83800002010BD10B40022E2
:102E10000468DFF89432984212D0B0F1804F0FD09E
:102E2000DFF8882290420BD0DFF88422904207D04E
:102E3000DFF88022904203D0DFF87C22904201D15B
:102E4000012200E00022D2B2002A03D034F0700444
:102E50004A68144398422AD0B0F1804F27D0DFF857
:102E60004C22904223D0DFF8482290421FD0DFF856
:102E7000442290421BD0DFF84022904217D0DFF866
:102E80003C22904213D0DFF8382290420FD0DFF876
:102E9000342290420BD0DFF83022904207D0DFF886
:102EA0002C22904203D0DFF82822904201D1012247
:102EB00000E00022D2B2002A03D034F44074CA6881
:102EC000144304608A68C2620A688262984203D02E
:102ED000DFF8E421904201D1012200E00022D2B2C9
:102EE000002A01D0096901630121416110BC7047CA
:102EF00030B4002200220022026A32F01002026284
:102F0000046A4568836933F4E04333F440730A6824
:102F100053EA022334F020048A6854EA0214624A15
:102F2000904202D0644A904201D1012200E0002286
:102F3000D2B2002A10D034F08004CA6854EA0214D5
:102F400034F0400435F4806535F400654A6955EA8B
:102F500082058A6955EA8205456083614968816313
:102F6000046230BC704730B4002200220022026AA2
:102F7000520852000262046A4568836933F07003A4
:102F80009B089B000A68134334F002048A681443C8
:102F9000454A904202D0484A904201D1012200E0C5
:102FA0000022D2B2002A0DD034F00804CA681443BB
:102FB00034F0040435F4807535F400754A6915431E
:102FC0008A6915434560836149684163046230BC86
:102FD000704730B4002200220022026A32F480726C
:102FE0000262046A4568C36933F070039B089B0062
:102FF0000A68134334F400748A6854EA02242A4AA3
:10300000904202D02C4A904201D1012200E00022DD
:10301000D2B2002A10D034F40064CA6854EA022400
:1030200034F4806435F4805535F400554A6955EA26
:1030300002158A6955EA02154560C3614968C16392
:10304000046230BC704730B4002200220022026AC1
:1030500032F480520262046A4568C36933F4E04383
:1030600033F440730A6853EA022334F400548A6844
:1030700054EA02340C4A904202D00F4A904201D1E5
:10308000012200E00022D2B2002A04D035F48045AB
:103090004A6955EA82154560C36149680164046262
:1030A00030BC7047000000000000014000040040F8
:1030B00000080040000C00400004014000400140B6
:1030C000004401400048014000180040001C00403E
:1030D0000020004010B400230023046A036A5B0848
:1030E0005B000362836933F0F00353EA021334F0A8
:1030F0000A0421438361016210BC704710B40023AD
:103100000023036A33F0100303628369046A33F413
:10311000704353EA023334F0A00454EA011483618B
:10312000046210BC70470022826832F0700289B2DB
:1031300051F0070111438160704710B40024846886
:1031400034F47F44114351EA03212143816010BCD0
:10315000704770470EB4C0B5024603A80021019025
:10316000009101AB0121044878440C3004F0F6FBD7
:1031700006BC5DF810FB00BF3DBB000080B502F04F
:10318000E5FE03F024F803F063F805F08BFB05F08F
:103190009FFD02F0E4FD01BD00B585B090F833104D
:1031A000C9070CD5001D06F043FB020021A16846AB
:1031B00006F094FB69462048FFF7CCFF02E01F4869
:1031C000FFF7C8FF05B000BD10B588B0040094F843
:1031D000330040071FD51A48FFF7BCFF194802907B
:1031E0007FF07F400190184800906B4601AA02A929
:1031F000200003F06DF8201D06F01AFB02000DA15F
:1032000003A806F06BFB03A90B48FFF7A3FF200000
:1032100003F0BEF805E0200003F0DBF80748FFF7F5
:1032200099FF08B010BD80B5084803F0EEFA02F02F
:1032300000FE01BD257300006CEC0008DCEA00080C
:1032400004EB0008C0A80065C0A80001347D002080
:10325000BFF34F8F29490A6812F4E06228480243FD
:103260000A60BFF34F8F00BFFDE738B5254D05F06D
:10327000FDFC2860286800281CD0234823490860EA
:1032800040F2D2422249286805F0A6FC0400200042
:1032900040B200280ED11F48FFF75CFF64B2002C3B
:1032A00008D11D48FFF756FF00220FF27901286868
:1032B00005F0D9FC1948FFF74DFF31BD70B5050089
:1032C0000E0003222900C9B289B2002006F026FBB5
:1032D0000400002C11D0EDB22A0092B21049200057
:1032E00006F0CBFD33009BB2084A21000548006878
:1032F00005F0C9FB200006F0A8FC70BD0CED00E055
:103300000400FA054C800020C0A80013888000202B
:1033100054EF00083CEF000844EF0008F4EE00080A
:10332000907700202DE9F8432DED028B1400002149
:103330006368002004E01A5CDFF8385B2A54401C04
:103340000528F8D3DFF82C5B2878FA2840F04B8763
:10335000E87801432A7952EA0122D21D002002E0D6
:10336000195C2954401C511E8842F9D3608982425D
:1033700040F02287A878012840F0D08268790028A0
:103380000ED0102845D020287AD0302800F08F8128
:10339000402800F0C881502800F08A8200F039BF30
:1033A000A879012817D10020E87002202871002098
:1033B00068710120A8710020E871002107E0DFF8A2
:1033C000B82AEB79685C4340D05CE871491C072956
:1033D000F5D3FF2028720920DFF8A01A0860DFF873
:1033E000A00A0168091E322911D2DFF8981A0122B9
:1033F000DFF8943A0D685A550A68521C322392FB42
:10340000F3F503FB15220A600168491C016000F016
:1034100000BFA879112803D1E879DFF8701A087085
:10342000287A122803D1687ADFF8641A0870A87A1B
:10343000132807D1E87ADFF85C1A0880287BDFF8C8
:10344000581A08800020E870022028711020687146
:103450000120A8710020E871002107E0DFF8182A98
:10346000EB79685C4340D05CE871491C0729F5D3CF
:10347000FF2028720920DFF8041A086000F0C9BE96
:103480000020E87048202871202068710120A87170
:103490002120E87100202872002068720020A872A4
:1034A0000020E87222202873DFF8840D007868730A
:1034B0002320A873DFF87C0D0078E873242028749B
:1034C000DFF8740D818AA974B0F9141009126974B7
:1034D000DFF8681D8A8A2A75B1F914201212EA747D
:1034E000DFF85C2D938AAB75B2F914301B126B7543
:1034F000DFF8503D9E8A2E76B3F914603612EE75D1
:1035000025266E76B0F90A60EE7636B23612AE76C1
:10351000B1F90A606E7736B236122E77B2F90A60C8
:10352000EE7736B23612AE77B3F90A6085F82160CD
:1035300036B2361285F82060262685F82260B0F96A
:103540000C6085F8246036B2361285F82360B1F934
:103550000C6085F8266036B2361285F82560B2F91F
:103560000C6085F8286036B2361285F82760B3F90A
:103570000C6085F82A6036B2361285F82960272655
:1035800085F82B60C66985F82F60C669360A85F80C
:103590002E60C669360C85F82D60C669360E85F832
:1035A0002C60CE6985F83360CE69360A85F83260C2
:1035B000CE69360C85F83160CE69360E85F83060FC
:1035C000D66985F83760D669360A85F83660D669D7
:1035D000360C85F83560D669360E85F83460DE69BC
:1035E00085F83B60DE69360A85F83A60DE69360C9C
:1035F00085F83960DE69360E85F83860282685F84A
:103600003C60866985F840608669361285F83F60BF
:103610008669361485F83E608069001685F83D009D
:10362000886985F844008869001285F84300886934
:10363000001485F842008869001685F841009069F9
:1036400085F848009069001285F8470090690014D9
:1036500085F846009069001685F84500986985F858
:103660004C009869001285F84B009869001485F8A1
:103670004A009869001685F84900FF2085F84E0039
:10368000002085F84D00002109E0DFF8EC2795F8CF
:103690004D30685C4340D05C85F84D00491C4D2995
:1036A000F3D34F20DFF8D417086000F0B2BDA8793B
:1036B000012836D10920DFF8C41708600120A8715D
:1036C0000020E870022028710020E871FF20287295
:1036D000002107E0DFF8A027EB79685C4340D05C6D
:1036E000E871491C0729F5D3DFF894070168091E22
:1036F000322911D2DFF88C170222DFF88C370D68DF
:103700005A550A68521C322392FBF3F503FB15222B
:103710000A600168491C0160012080F31388FFF7EB
:1037200097FD00F076BDA879412806D1E879297A7D
:1037300051EA0021DFF8100B0180687A422806D197
:10374000A87AE97A51EA0021DFF8000B0180DFF85E
:10375000F86AB6F90000012803DA0020DFF8F01A51
:103760000870A87B44280FD1E87B012808D10120EC
:10377000DFF8E01A08700020DFF8D41A087003E0C0
:103780000020DFF8D01A0870DFF8C08AB8F90010FE
:10379000B6F9000006F0E6FBBDEEC00A10EE100A16
:1037A000DFF8B41A0880DFF8B47AB8F90010B6F977
:1037B000000006F0A7FBBDEEC00A10EE100A38802C
:1037C000DFF8900A0078012803D1B7F900004042E1
:1037D0003880DFF88C0A31880171B6F900100912BF
:1037E0004171DFF89C060168091E322911D2DFF809
:1037F00094160322DFF890360E689A550A68521C18
:10380000322392FBF3F603FB16220A600168491C7F
:103810000160297B43292DD1697B012926D10168CB
:10382000091E322911D2DFF85C160222DFF8583661
:103830000E689A550A68521C322392FBF3F603FB7A
:1038400016220A600168491C0160DFF8180A00218D
:10385000017100214171DFF8100A0021017100217E
:1038600041710120DFF8C819087003E00020DFF87B
:10387000C01908700020E87002202871402068718B
:103880000120A8710020E871002107E0DFF8E82599
:10389000EB79685C4340D05CE871491C0729F5D39B
:1038A000FF2028720920DFF8D415086000F0B1BCB1
:1038B000DFF8CC050168091E322911D2DFF8C415E2
:1038C0000422DFF8C4350E689A550A68521C322368
:1038D00092FBF3F603FB16220A600168491C0160A3
:1038E000502068710120A8710020E8700220287122
:1038F0000020E871002107E0DFF87C25EB79685CA7
:103900004340D05CE871491C0729F5D3FF20287299
:103910000920DFF86815086000F07BBCA878022851
:1039200040F01881687900280ED010282DD020286A
:1039300054D0302800F0B880502800F0D2806028A1
:1039400000F0EB8000F065BCA879012817D10020B9
:10395000E87002202871002068710120A871002001
:10396000E871002107E0DFF81025EB79685C43403F
:10397000D05CE871491C0729F5D3FF202872092083
:10398000DFF8F814086000F044BCA879112807D1CA
:10399000287A122804D1A87A132801D1287B142868
:1039A0000020E87002202871102068710120A871A1
:1039B0000020E871002107E0DFF8BC24EB79685CA7
:1039C0004340D05CE871491C0729F5D3FF202872D9
:1039D0000920DFF8A814086000F01BBC0020E87084
:1039E0001E202871202068710120A8712220E87112
:1039F000DFF87808018889B2090A2972018869729A
:103A00002421A9720021E9720021297325216973FB
:103A1000418889B2090AA9734188E973262129746A
:103A2000402169742721A9740021E97400212975B6
:103A3000002169750021A9750021E9750021297609
:103A4000002169760021A9762821E97681882977E5
:103A500029216977C18889B2090AA977C188E977DC
:103A60002A2185F82010018989B2090A85F82110D8
:103A7000008985F82200002085F82300002109E054
:103A8000DFF8F42395F82330685C4340D05C85F878
:103A90002300491C2329F3D3FF2085F82400252087
:103AA000DFF8D8130860B4E30020E8700220287122
:103AB000302068710120A8710020E871002107E022
:103AC000DFF8B423EB79685C4340D05CE871491CB3
:103AD0000729F5D3FF2028720920DFF8A01308601A
:103AE00097E30020E87002202871502068710120BF
:103AF000A8710020E871002107E0DFF87C23EB7952
:103B0000685C4340D05CE871491C0729F5D3FF206D
:103B100028720920D94908607BE30020E8708520DD
:103B2000287160206871002085F88A00002108E073
:103B3000D14A95F88A30685C4340D05C85F88A00A9
:103B4000491C8A29F4D3FF2085F88B008B20CB49B0
:103B500008605EE3A878032840F01783687900289E
:103B60000DD010283ED020285DD0302800F04B81A9
:103B7000402800F09381502800F0D78249E3A879CB
:103B8000012816D10020E8700220287100206871F9
:103B90000120A8710020E871002106E0B64AEB7907
:103BA000685C4340D05CE871491C0729F6D3FF20CC
:103BB00028720920B1490860B1480168091E3229FC
:103BC0000FD2B0491122B04B0D685A550A68521CE9
:103BD000322392FBF3F503FB15220A600168491CAE
:103BE000016016E3A879112802D1E879A749087085
:103BF0000020E87002202871102068710120A8714F
:103C00000020E871002106E09B4AEB79685C4340A4
:103C1000D05CE871491C0729F6D3FF2028720920DF
:103C200096490860F5E2202068710120A8712120E2
:103C3000E871DFF8FC050078287222206872DFF84E
:103C4000F4050078A8722320E872DFF82406818941
:103C50006973DFF8201682890A80B1F900201212F8
:103C60002A73DFF814269389EB7393890B80B1F9DB
:103C700000301B12AB73DFF804369E896E749E8988
:103C80000E80B1F9006036122E74DFF8F465B78942
:103C9000EF74B7890F80B1F900100912A9742421BB
:103CA0002975C1692976C169090AE975C169090CD3
:103CB000A975C069000E6875D0692877D069000AB7
:103CC000E876D069000CA876D069000E6876D869CD
:103CD00085F82000D869000AE877D869000CA87731
:103CE000D869000E6877F06985F82400F069000A49
:103CF00085F82300F069000C85F82200F069000EB9
:103D000085F82100252085F82500DFF87805007862
:103D100085F82600262085F82700DFF86C05016865
:103D2000091685F828100168091485F8291001681A
:103D3000091285F82A10006885F82B00DFF84C0579
:103D40000168091685F82C100168091485F82D10F2
:103D50000168091285F82E10006885F82F00DFF839
:103D600030050168091685F830100168091485F8D6
:103D700031100168091285F83210006885F83300A7
:103D8000DFF810050168091685F834100168091478
:103D900085F835100168091285F83610006885F835
:103DA0003700272085F83800012085F839002820C1
:103DB00085F83A00002085F83B00002085F83C009B
:103DC0000020E8703A202871292085F83D00DFF8AE
:103DD000C804007885F83E00002085F83F00FF20E9
:103DE00085F84000002108E0234A95F83F30685CE0
:103DF0004340D05C85F83F00491C3F29F4D3412063
:103E00001E49086005E2A879012831D109201B4923
:103E100008600120A8710020E870022028710020AD
:103E2000E871FF202872002106E0134AEB79685CF4
:103E30004340D05CE871491C0729F6D3104801685B
:103E4000091E32290FD20F4912220F4B0D685A5505
:103E50000A68521C322392FBF3F503FB15220A6019
:103E60000168491C0160012080F31388FFF7F0F915
:103E7000CFE100BF90770020AC00002084800020BC
:103E8000B87F0020B07F00206C7D0020DA80002009
:103E9000DB800020A6800020A8800020A87941288F
:103EA00061D1E87901285ED1DFF8F00300780028BD
:103EB00059D1DFF8EC03E97901600068012852D19B
:103EC0000020DFF8E01308700020DFF8DC13087032
:103ED0000020DFF8D81308700020DFF8D413087032
:103EE0000020DFF8D01308700020DFF8CC13087032
:103EF0000020DFF8C81308700020DFF8C413087032
:103F00000020DFF8C01308700020DFF8BC13087031
:103F10000020DFF8B81308700020DFF8B413087031
:103F20000020DFF8B01308700020DFF8AC13087031
:103F30000020DFF8A81308700020DFF8A413087031
:103F40000020DFF8A01308700020DFF89C13087031
:103F50000020DFF8981308700020DFF89413087031
:103F60000020CD490870287A422803D1687ADFF80A
:103F700084130870A87A432840F09A800120DFF863
:103F800078130870DFF87403E97A2A7B52EA012279
:103F9000697B51EA0221AA7B52EA01220260DFF822
:103FA0006083E97B2A7C52EA0122697C51EA022182
:103FB000AA7C52EA0122C8F80020DFF84893E97C85
:103FC0002A7D52EA0122697D51EA0221AA7D52EA44
:103FD0000122C9F80020CC4EE97D2A7E52EA012256
:103FE000697E51EA0221AA7E52EA01223260C74F5D
:103FF0009FEDD18B006802F0D9FC53EC182B02F036
:10400000E7FC0022C24B02F0B5FD02F0D7FE38609B
:10401000D8F8000002F0CAFC53EC182B02F0D8FCD0
:104020000022BB4B02F0A6FD02F0C8FEB9490860B1
:10403000D9F8000002F0BAFC53EC182B02F0C8FCCF
:104040000022B34B02F096FD02F0B8FEB2490860C0
:10405000306802F0ABFC53EC182B02F0B9FC0022E4
:10406000AB4B02F087FD02F0A9FEAC490860AC48FA
:10407000396801713968091241713968091481710F
:1040800039680916C171A7480168091E32290FD283
:10409000A5491322A54B0E689A550A68521C322373
:1040A00092FBF3F603FB16220A600168491C0160CB
:1040B000E87E44281ED1287F012818D1994801683C
:1040C000091E32290FD298491222984B0E689A5530
:1040D0000A68521C322392FBF3F603FB16220A6095
:1040E0000168491C016001205149087002E000206C
:1040F0004F490870402068710120A8710020E870C5
:10410000022028710020E871002106E0884AEB793E
:10411000685C4340D05CE871491C0729F6D3FF2056
:10412000287209208349086073E07E480168091EEF
:1041300032290FD27C4914227C4B0E689A550A68AA
:10414000521C322392FBF3F603FB16220A6001682D
:10415000491C0160502068710120A8710020E8709E
:10416000022028710020E871002106E0704AEB79F6
:10417000685C4340D05CE871491C0729F6D3FF20F6
:10418000287209206B49086043E0092069490860EA
:104190000020A8710020E87002202871002106E0AC
:1041A000634AEB79685C4340D05CE871491C07299D
:1041B000F6D3FF2028722CE009205E490860002019
:1041C000A8710020E87002202871002106E0584AFA
:1041D000EB79685C4340D05CE871491C0729F6D351
:1041E000FF20287215E00920524908600020A871BC
:1041F0000020E87002202871002106E04C4AEB798B
:10420000685C4340D05CE871491C0729F6D3FF2065
:1042100028720A9989B247480068C0B2FFF74EF881
:10422000200005F012FDBDEC028BBDE8F18300BF5C
:10423000BE800020BF800020F87D00201C7E002072
:10424000407E0020647E0020B0800020B2800020EC
:10425000C0800020C1800020AC800020AE80002003
:104260002C0000209C000020A40000206C7F002077
:10427000887E0020AA800020AC7E0020D07E002016
:10428000F47E0020C280002054800020588000204E
:104290005C800020608000207E020020D78000200B
:1042A00050800020CF800020C3800020C7800020E5
:1042B000D3800020CB800020D0800020C48000204C
:1042C000C8800020D4800020CC800020D180002035
:1042D000C5800020C9800020D5800020CD8000202E
:1042E000D2800020C6800020CA800020D680002016
:1042F000CE800020D9800020D8800020748000204B
:10430000788000207C800020808000206480002055
:10431000008076406C800020688000207080002043
:1043200044000020B87F0020B07F00206C7D00207A
:10433000AC00002084800020000000000070B74026
:104340002DE9FC410400002000200090DFF8B06C53
:10435000300000200025002C01D1012013E194F849
:104360004400002805D1002084F84500200002F018
:104370004BF800200190DFF88C0C016851F480416B
:104380000160006810F4804001900198DFF8781C0B
:10439000086830F4000008600A68206A02430A6076
:1043A0004FF480572068C05950F001002168C8516F
:1043B00003F068F980462068C059C0070FD503F0A4
:1043C00061F9B0EB080040F2F5118842F3D3032005
:1043D00084F84400002084F845000320D3E02068DE
:1043E000076937F01C07FEF762F8DFF8201C411A56
:1043F000DFF81C2C914202D257F008071AE0DFF8D0
:10440000141C411ADFF8102C914202D257F00C070D
:1044100010E0861BDFF8041C8E420BD3DFF8001C73
:10442000401ADFF8001C884202D257F0040701E06E
:1044300057F01007206807614FF400420021200068
:1044400000F0D8FA002808D00121200000F0F5FB88
:10445000012084F84400012095E0FF2001F026FDB2
:10446000606800286DD003F00DF907006A4601214D
:10447000200000F07DFA41F2893603F003F9C01BF9
:10448000B04213D200984007F0D54FF4805200217B
:10449000200000F0AFFA002814D00121200000F025
:1044A000CCFB012084F8440001206CE001212000B5
:1044B00000F0C3FB012084F84400002084F845008C
:1044C000032060E003F0DEF807006A4601212000C7
:1044D00000F04EFA03F0D6F8C01BB04212D200989A
:1044E0008006F2D56A461021200000F041FA00282B
:1044F00014D00121200000F0A0FB012084F844002A
:10450000012040E00121200000F097FB012084F809
:104510004400002084F84500032034E00098400760
:1045200003D54FF40060E06001E00020E0600098F7
:10453000800702D50020A0601DE04FF48040A060FD
:1045400019E0E268D20892B2A068400880B2024343
:104550000021200000F04EFA002808D001212000A0
:1045600000F06BFB012084F8440001200BE040F6D2
:10457000FF7001F09BFC2900200000F05EFB012091
:1045800084F844000020BDE8F68170B404000020E7
:1045900094F94500012801D1022032E0012084F87D
:1045A0004500022084F84400E16200251CE0F1602F
:1045B00019E0680101EB00065FF48010306040F202
:1045C000F45000FB05F01044B060E069002803D10E
:1045D000306850F440003060581E8542E7D26801D0
:1045E00008442030F0606D1C9D42E2D3206841F207
:1045F00010028150012084F84400002084F8450016
:10460000002070BC704770B4002490F94540012C24
:1046100001D1022034E0012480F84540022480F8D2
:104620004440816200241EE0E9601BE065010D4406
:104630005FF000462E6044F2F4566E6040F2F4568D
:1046400006FB04F61644AE608669012E03D16E683F
:1046500026F000466E605E1EB442E5D266010E444E
:104660002036EE60641C9C42E0D3026841F20C03E9
:10467000D150012180F84410002180F8451000201D
:1046800070BC704770B4020000200020002092F936
:104690004500012801D1022089E0012082F845006F
:1046A000022082F84400002907D1012082F844004A
:1046B000002082F84500012079E0D06A00680028D7
:1046C00007D5122082F84400002082F8450001201E
:1046D0006DE040F2F55081420DD340F2F450B1FB51
:1046E000F0F340F2F450B1FBF0F400FB141000289A
:1046F00002D05B1C00E00123012B13D1D06A0068BB
:1047000050F04050D36A1860C904C90CD06A4160A7
:10471000D06A006850F00040D16A0860D06AC06872
:10472000D0622FE000202BE0D46A246834F040549B
:10473000D56A2C60002805D1D46A246854F08054CE
:10474000D56A2C6040F2F455D46A65605C1EA042C4
:104750000CD1D46A246854F00054D66A34605C1ECC
:1047600005FB1414E404E40CD56A6C60D46A246874
:1047700054F00044D56A2C60D46AE468D462401CCA
:104780009842D1D341F2140011680958490707D55E
:104790000421136819500020116841F20403C85025
:1047A000012082F84400002082F84500002070BCFF
:1047B0007047002190F94510012901D1022046E0FF
:1047C000012180F84510022180F84410816A0968AF
:1047D000002935D4816A0968C9051DD5816B491C3A
:1047E0008163816B012901D1816A0163816A41631F
:1047F000816A0968C1F30D41091FC163016B8968B2
:104800000164816AC9688162012180F84410002135
:1048100080F8451000201AE0816A0968890509D5E9
:10482000816A01630021416301218163816AC96852
:10483000816205E0816B491C8163816AC96881627C
:10484000012180F84410002180F8451001207047B4
:10485000002190F94520012A01D102204CE00122DB
:1048600080F84520022280F8442006E0826A026334
:1048700001228263826AD2688262826A1268002A96
:1048800033D4042931D2491C826A126812F440726E
:10489000B2F5007FEAD0826A126812F4407F06D136
:1048A000826B521C8263826AD2688262E5E7816A07
:1048B0004163816B491C8163816B012901D1816A4C
:1048C0000163816A0968C1F30D41091FC163016B6E
:1048D00089680164816AC9688162012180F8441095
:1048E000002180F84510002006E0012180F84410E6
:1048F000002180F845100120704738B5040041F2CE
:1049000014052068405940060CD52000FCF7C6FC71
:10491000402021684851012084F84400002084F898
:1049200045000FE020684059C0070BD5200005F076
:1049300053FB012021684851012084F844000020E5
:1049400084F845005FF48030216848512068405960
:1049500000040CD5200005F040FB4FF40040216816
:104960004851012084F84400002084F8450031BDFE
:10497000F8B504000E0015000020002094F8440053
:10498000822801D1022034E0822084F8440020688B
:10499000006910F01C00218AC90211F47841084313
:1049A000B6B2B60116F4F866064336F0020656F0C3
:1049B00001062068066102F065FE070001E020683C
:1049C0000669F0070DD502F05DFEC01BB0F5803F13
:1049D000F5D3012084F84400002084F8450003202A
:1049E00007E02068406980B22860012084F8440014
:1049F0000020F2BD70B504000D000020002094F8E6
:104A00004400422801D1022033E0422084F84400CF
:104A10002068006910F01C00218AC90211F4784155
:104A20000843ADB2AD0115F4F865054355F0020534
:104A300055F0010592B2206842612068056102F0DC
:104A400021FE060001E020680569E8070DD502F0A7
:104A500019FE801BB0F5803FF5D3012084F8440097
:104A6000002084F84500032003E0012084F844007E
:104A7000002070BD10B5040094F94500012801D153
:104A800002201BE0012084F84500022084F8440045
:104A9000200000F018FA200000F03DFA200000F09D
:104AA00086FA200000F05FFA200000F06EFA012084
:104AB00084F84400002084F84500002010BD10B5A3
:104AC000040094F94500012801D102201BE00120D7
:104AD00084F84500022084F84400200000F04CFADD
:104AE000200000F05BFA200000F029FA200000F01E
:104AF0005EFA200000F0FBF9012084F84400002059
:104B000084F84500002010BD70B505000C000020A1
:104B100095F94500012801D102208DE0012085F89A
:104B20004500022085F84400002C6DD028680168FB
:104B3000DFF8F4040140226860680243A068024381
:104B4000E0680243A86802432069024360690243A7
:104B5000E8680243A0690243E0690243206A024315
:104B6000606A0243A06A0243114328680160286812
:104B70000668012001F09AF928680660E16A206B56
:104B80000143606B0143A06B0143E06B0143206C68
:104B90000143606C0143A06C0143286841602868B0
:104BA0004668012001F082F928684660E06C2968B7
:104BB0008860206D2968C860286881694FF6417057
:104BC0000140606DA26D52EA0042E06D0243206E2A
:104BD0000243606E0243A06E024311432868816164
:104BE00028688669012001F061F928688661E16E14
:104BF000206F01432868C1612868C469012001F061
:104C000055F92868C46110E02868016831F49041C2
:104C1000AA68E868024311432868016028680468AC
:104C2000012001F043F928680460012085F8440060
:104C3000002085F84500002070BD78B5ADB00400B7
:104C40000020002905D04FF40060E0604FF4804060
:104C5000A0600020109000201190002012900020F1
:104C600013900020149000201590E069002803D1D3
:104C70004FF48060169001E0002016904FF4007011
:104C80001790002018900020199000201A90002002
:104C90001B9000201C9040201D9000201E900020A2
:104CA0001F900020209000202190002022900020C2
:104CB0002390002024900020259080202690002022
:104CC0002790002028900020299000202A90002082
:104CD0002B9000202C9020680168D3480140109A46
:104CE000119802431298024313980243A0680243AA
:104CF0001498024315980243E06802431698024351
:104D00001798024318980243199802431A980243CD
:104D100011432068016020680568012001F0C6F891
:104D2000206805601B991C9801431D9801431E983B
:104D300001431F9801432098014321980143229881
:104D400001432068416020684568012001F0AEF809
:104D50002068456023982168886024982168C8608D
:104D6000206881694FF6417001402598269A52EAE1
:104D700000422798024328980243299802432A9820
:104D8000024311432068816120688569012001F098
:104D90008DF8206885612B992C9801432068C161AA
:104DA0002068C569012001F081F82068C5610020F4
:104DB00000905FF000700190002102915FF40011FB
:104DC0000391002104910021059100210691002109
:104DD00007910421089109905FF480300A905FF4F4
:104DE00080000B904FF400500C9080200D9000201C
:104DF0000E9000200F9041F21805206841598B4811
:104E00000140009A0198024302980243039802432A
:104E10000498024305980243069802430798024308
:104E200008980243114320684151206846590120E7
:104E300001F03CF8206846514FF4805509990A98D2
:104E400001430B9801430C9801430D9801430E98C0
:104E500051EA80010F98014351F40001206841514B
:104E600020684659012001F021F820684651A069C8
:104E700001280CD141F21C002168095841F480310D
:104E800051F04001226811506948FEF763F96269E8
:104E90000021200000F002F82EB070BD5379107987
:104EA00050EA0320634B5B181860D07893781B049A
:104EB00053EA0063507853EA0023107803435E48B6
:104EC00041180B6070471CB504000020009020685A
:104ED000006850F0080021680860206800680090B1
:104EE000012000F07AF800982168086013BD1CB515
:104EF0000400002000902068006830F0080021685D
:104F00000860206800680090012000F066F80098B2
:104F10002168086013BD1CB50400002000902068C3
:104F2000006850F004002168086020680068009064
:104F3000012000F052F800982168086013BD1CB5EC
:104F40000400002000902068006830F00400216810
:104F50000860206800680090012000F03EF800988A
:104F60002168086013BD41F218010268525852F4DA
:104F7000005200684250704741F2180102685258CE
:104F800032F4005200684250704741F21801026842
:104F9000525852F0020200684250704741F2180124
:104FA0000268525832F0020200684250704738B529
:104FB00004000020009041F218052068405950F488
:104FC000801021684851206840590090012000F06D
:104FD00004F800982168485131BD81B0174909682B
:104FE000C9084FF47A72B1FBF2F14843009000BF58
:104FF0000098411E00910028F9D101B070470000CF
:10500000008793034438024004380140002D3101E9
:10501000C0E1E400C00E160240787D01005A620231
:1050200000E1F50580F0FA020F8120FF233FDEF852
:105030003CED000840800240448002400400002013
:1050400010B58AB0524C53482060534820635348EF
:105050006063062060600020A0600020E0605FF4D4
:10506000A02020615FF4C00060610020A0610120E9
:10507000E06101202062002060620020A062002028
:10508000E062200000F094F80020059000200690D7
:105090000120079000200090002001900020029045
:1050A0000020039000200490012008900E20099019
:1050B0006946200000F04FF90AB010BD10B586B067
:1050C00000683449884242D1002000903448016889
:1050D00051F000710160006810F0007000900098BD
:1050E000002000902F48016851F480710160016830
:1050F00011F480710091009900210091016851F034
:1051000002010160006810F00200009000984FF466
:105110000074019402200290002003900920059061
:1051200001A9214802F000FB019402200290022014
:1051300004900920059001A91C4802F0F5FA00220C
:1051400000211420FDF799FA1420FDF7A7FA06B004
:1051500010BD10B50E4A136B18600020136B9860D9
:105160000020136BD8600820136B1861002005E045
:105170000B78146B04442375491C401C136B1B698A
:105180009842F5D30A21100000F068F910BD000024
:10519000BC7B002000640040187F0020D47D0020EC
:1051A00040380240303802400004024000200240F3
:1051B00070B5040000250020002C01D10120C9E0B9
:1051C00094F93C00002805D1002084F83D0020001F
:1051D000FFF774FF022084F83C002068006830F07C
:1051E0000200216808602068006850F00100216812
:1051F000086002F047FA060020684068C0070CD437
:1052000002F040FA801B0B28F6D3032084F83C0000
:10521000002084F83D0003209CE020684068C0071F
:1052200040F18B80A069012806D12068006850F009
:1052300080002168086005E02068006830F0800088
:1052400021680860E069012806D12068006850F0F4
:1052500040002168086005E02068006830F04000E8
:1052600021680860206A012806D12068006850F093
:1052700020002168086005E02068006830F0200008
:1052800021680860606A012806D12068006850F033
:1052900010002168086005E02068006830F0100008
:1052A00021680860A06A012806D12068006850F0D3
:1052B00008002168086005E02068006830F00800F8
:1052C00021680860E06A012806D12068006850F073
:1052D00004002168086005E02068006830F00400E0
:1052E00021680860A168E0680143206901436069A2
:1052F00001436068401E01432068C1612068006866
:10530000400840002168086002F0BCF906002068EF
:105310004068C0070CD502F0B5F9801B0B28F6D306
:10532000032084F83C00002084F83D00032011E0B5
:1053300020684068C00700D40125012D06D1002057
:105340002064012084F83C00002003E0042084F85D
:105350003C00012070BD30B4002001204A6910FAE1
:1053600002F2DFF86433D3F8000250F00100C3F812
:105370000002D3F8000230F47C50C3F80002D3F8E6
:1053800000024C6A50EA0420C3F80002D3F81C0261
:105390009043C3F81C02C869002816D1D3F80C0248
:1053A0009043C3F80C02486903EBC000CC684D6819
:1053B000C5EA0444C0F84042486903EBC0008C6869
:1053C0000D68C5EA0444C0F84442C869012816D1F2
:1053D000D3F80C021043C3F80C02486903EBC00079
:1053E0000C684D68C5EA0444C0F84042486903EBC4
:1053F000C0008C68CD68C5EA0444C0F8444288699E
:10540000002805D1D3F804029043C3F8040204E055
:10541000D3F804021043C3F804020869002804D139
:10542000D3F814029043C3F814020869012804D188
:10543000D3F814021043C3F81402086A012804D1F7
:10544000D3F81C020243C3F81C22D3F80002400820
:105450004000C3F80002002030BC7047F8B50600D9
:105460000D000420002030688068400108D43068B6
:105470008068000104D430688068C00040F11E815B
:1054800096F93D00012801D102201BE1012086F898
:105490003D0096F93C00222804D0322806D062282C
:1054A00008D00BE0422086F83C000AE0522086F843
:1054B0003C0006E0722086F83C0002E0122086F8EC
:1054C0003C0030688068400101D5002406E0306867
:1054D0008068000101D5012400E002243068210128
:1054E0000844D0F8800110F0010031682201114415
:1054F000C1F88001306B8068002811D1306821012B
:105500000844D0F88001316B0968326BD26852EAE6
:1055100041521043316822011144C1F8800113E067
:10552000306821010844D0F88011306B4068326B3C
:10553000926852EAC002306BC0680243114330687F
:1055400022011044C0F88011306B007C10F00F0075
:10555000316B0861306821010844D0F884010009EA
:105560000001316822011144C1F884013068210131
:105570000844D0F88411306B00690143306822017F
:105580001044C0F88411306BC07D316B897D0904F3
:1055900051EA0061306B407D51EA0021306B007DA3
:1055A0000143306822011044C0F88811306BC07E7E
:1055B000316B897E090451EA0061306B407E51EA0B
:1055C0000021306B007E0143306822011044C0F896
:1055D0008C11306821010844D0F8800150F001009E
:1055E000316822011144C1F8800102F04BF8070034
:1055F000002C0AD1DFF87C043168896801408142BF
:1056000001D1012018E0002016E0012C0AD1DFF8BA
:105610006804316889680140814201D101200BE0B2
:10562000002009E0DFF854043168896801408142B4
:1056300001D1012000E00020002822D115F1010F46
:10564000D6D0002D04D002F01DF8C01B8542CFD269
:10565000032086F83C00002C03D18020316888604C
:105660000AE0012C04D14FF400403168886003E067
:105670005FF4000031688860002086F83D00032058
:1056800020E096F93C00422804D0522806D0722827
:1056900008D00BE0222086F83C000AE0322086F891
:1056A0003C0006E0622086F83C0002E0012086F81B
:1056B0003C00002086F83D00002003E0042086F82E
:1056C0003C000120F2BD0000006400400A00D2B29C
:1056D000002A11D190F93C20222A0BD090F93C20CD
:1056E000422A07D090F93C20622A03D090F93C204E
:1056F000722A01D1022071E00A00D2B2012A11D12E
:1057000090F93C20322A0BD090F93C20522A07D045
:1057100090F93C20622A03D090F93C20722A01D1F2
:1057200002205BE090F93D20012A01D1022055E0E2
:10573000012280F83D200A00D2B2002A18D190F947
:105740003C20122A04D0322A06D0522A08D00BE07C
:10575000422280F83C2023E0622280F83C201FE0B7
:10576000722280F83C201BE0222280F83C2017E0C7
:1057700090F93C20122A04D0222A06D0422A08D0CE
:105780000BE0522280F83C200AE0622280F83C20A4
:1057900006E0722280F83C2002E0322280F83C20B1
:1057A000002202640268526942F40F4252F0010280
:1057B00003685A61002280F83D20C9B2002906D151
:1057C0000168496951F00A010068416105E001681A
:1057D000496951F05001006841610020704738B5B7
:1057E000040000200020002000252068C16809096D
:1057F00011F0010120684069C0F3C00010F0010001
:10580000002906D0002804D055F400751020216826
:10581000C86020680169090911F001012068406928
:10582000C0F3801010F00100002906D0002804D039
:1058300055F4806510202168086120684069C00720
:105840003DD58C48216889680140814201D1012001
:1058500000E000208849226892680A408A4201D10B
:10586000012100E00021854A23689B681340934290
:1058700001D1012200E000220843104300281ED07D
:1058800020688068400810F0010021688968490A92
:1058900011F0010122689268520C12F001020843D3
:1058A0001043002803D0200000F0EEF801E055F48A
:1058B0000065206881687248014320688160206823
:1058C000C16811F0030120684069C0F3400010F086
:1058D0000100002905D0002803D00021200000F09D
:1058E00000F92068016911F0030120684069C0F3E4
:1058F000001010F00100002905D0002803D001217C
:10590000200000F0EEF8206C0543256420688269D1
:1059100012F0010220684069C0F3002111F001017A
:1059200020684069C0F3C03010F00100002A07D0A1
:10593000002905D0002803D0206C50F0010020641D
:1059400020688269520812F0010220684069C0F3A1
:10595000402111F0010120684069C0F3C03010F00F
:105960000100002A07D0002905D0002803D0206CB0
:1059700050F00200206420688269920812F001024F
:1059800020684069C0F3802111F00101206840695E
:10599000C0F3C03010F00100002A07D0002905D064
:1059A000002803D0206C50F0040020642068806937
:1059B00010F0700F01D1012200E000222068406940
:1059C000C0F3C02111F0010120684069C0F3C0306C
:1059D00010F00100002A38D1002936D0002834D038
:1059E0002068806910F0700010280AD020280DD09F
:1059F000302810D0402813D0502816D0602819D055
:105A00001DE0206C50F00800206418E0206C50F07D
:105A10001000206413E0206C50F0200020640EE0A1
:105A2000206C50F04000206409E0206C50F08000B1
:105A3000206404E0206C50F480702064FFE720684C
:105A4000806930F0700021688861206C00280ED0D9
:105A5000042021684860012084F83C0020684169E6
:105A60000848014020684161200004F0B7FA31BDC8
:105A70000000000003000004000300080000031001
:105A800019050100A470FFFF80B501684969490844
:105A900049000268516190F93C10122905D1016852
:105AA000496931F40F410268516190F93C10422973
:105AB00004D0522906D0722908D00BE0222180F8A8
:105AC0003C100AE0322180F83C1006E0622180F8A8
:105AD0003C1002E0012180F83C1004F080FA002024
